{
  "_format": "hh-sol-artifact-1",
  "contractName": "Sports",
  "sourceName": "contracts/Sports.sol",
  "abi": [
    {
      "inputs": [
        {
          "internalType": "address",
          "name": "_chainlinkToken",
          "type": "address"
        },
        {
          "internalType": "address",
          "name": "_chainlinkOracle",
          "type": "address"
        },
        {
          "internalType": "bytes32",
          "name": "_jobIdNumbers",
          "type": "bytes32"
        },
        {
          "internalType": "bytes32",
          "name": "_jobIdStrings",
          "type": "bytes32"
        },
        {
          "internalType": "address",
          "name": "_relayer",
          "type": "address"
        },
        {
          "internalType": "address",
          "name": "_usdcContractAddress",
          "type": "address"
        },
        {
          "internalType": "address[]",
          "name": "_mods",
          "type": "address[]"
        },
        {
          "internalType": "address[]",
          "name": "_admins",
          "type": "address[]"
        },
        {
          "internalType": "string",
          "name": "_numbersAPI",
          "type": "string"
        },
        {
          "internalType": "string",
          "name": "_gamesAPI",
          "type": "string"
        }
      ],
      "stateMutability": "nonpayable",
      "type": "constructor"
    },
    {
      "anonymous": false,
      "inputs": [
        {
          "indexed": true,
          "internalType": "uint256",
          "name": "_gameId",
          "type": "uint256"
        },
        {
          "indexed": false,
          "internalType": "uint256",
          "name": "_homeScore",
          "type": "uint256"
        },
        {
          "indexed": false,
          "internalType": "uint256",
          "name": "_awayScore",
          "type": "uint256"
        }
      ],
      "name": "BetCreated",
      "type": "event"
    },
    {
      "anonymous": false,
      "inputs": [
        {
          "indexed": true,
          "internalType": "bytes32",
          "name": "id",
          "type": "bytes32"
        }
      ],
      "name": "ChainlinkCancelled",
      "type": "event"
    },
    {
      "anonymous": false,
      "inputs": [
        {
          "indexed": true,
          "internalType": "bytes32",
          "name": "id",
          "type": "bytes32"
        }
      ],
      "name": "ChainlinkFulfilled",
      "type": "event"
    },
    {
      "anonymous": false,
      "inputs": [
        {
          "indexed": true,
          "internalType": "bytes32",
          "name": "id",
          "type": "bytes32"
        }
      ],
      "name": "ChainlinkRequested",
      "type": "event"
    },
    {
      "anonymous": false,
      "inputs": [
        {
          "indexed": false,
          "internalType": "string",
          "name": "_gameTime",
          "type": "string"
        },
        {
          "indexed": true,
          "internalType": "string",
          "name": "_homeTeam",
          "type": "string"
        },
        {
          "indexed": true,
          "internalType": "string",
          "name": "_awayTeam",
          "type": "string"
        }
      ],
      "name": "GameCreated",
      "type": "event"
    },
    {
      "anonymous": false,
      "inputs": [
        {
          "indexed": true,
          "internalType": "bytes32",
          "name": "requestId",
          "type": "bytes32"
        },
        {
          "indexed": false,
          "internalType": "bytes",
          "name": "result",
          "type": "bytes"
        },
        {
          "indexed": false,
          "internalType": "bytes",
          "name": "err",
          "type": "bytes"
        }
      ],
      "name": "OCRResponse",
      "type": "event"
    },
    {
      "anonymous": false,
      "inputs": [
        {
          "indexed": true,
          "internalType": "address",
          "name": "previousOwner",
          "type": "address"
        },
        {
          "indexed": true,
          "internalType": "address",
          "name": "newOwner",
          "type": "address"
        }
      ],
      "name": "OwnershipTransferred",
      "type": "event"
    },
    {
      "anonymous": false,
      "inputs": [
        {
          "indexed": false,
          "internalType": "uint256",
          "name": "print",
          "type": "uint256"
        }
      ],
      "name": "Print",
      "type": "event"
    },
    {
      "anonymous": false,
      "inputs": [
        {
          "indexed": true,
          "internalType": "bytes32",
          "name": "requestId",
          "type": "bytes32"
        },
        {
          "indexed": false,
          "internalType": "uint256",
          "name": "TeamA",
          "type": "uint256"
        },
        {
          "indexed": false,
          "internalType": "uint256",
          "name": "TeamB",
          "type": "uint256"
        }
      ],
      "name": "RequesResult",
      "type": "event"
    },
    {
      "anonymous": false,
      "inputs": [
        {
          "indexed": false,
          "internalType": "bytes32",
          "name": "requestId",
          "type": "bytes32"
        },
        {
          "indexed": false,
          "internalType": "uint256",
          "name": "random",
          "type": "uint256"
        }
      ],
      "name": "RequestFulfilled",
      "type": "event"
    },
    {
      "anonymous": false,
      "inputs": [
        {
          "indexed": true,
          "internalType": "bytes32",
          "name": "requestId",
          "type": "bytes32"
        },
        {
          "indexed": false,
          "internalType": "string",
          "name": "TeamA",
          "type": "string"
        },
        {
          "indexed": false,
          "internalType": "string",
          "name": "TeamB",
          "type": "string"
        },
        {
          "indexed": false,
          "internalType": "string",
          "name": "Date",
          "type": "string"
        }
      ],
      "name": "RequestGames",
      "type": "event"
    },
    {
      "anonymous": false,
      "inputs": [
        {
          "indexed": true,
          "internalType": "bytes32",
          "name": "requestId",
          "type": "bytes32"
        },
        {
          "indexed": false,
          "internalType": "uint256",
          "name": "number",
          "type": "uint256"
        }
      ],
      "name": "RequestNumber",
      "type": "event"
    },
    {
      "anonymous": false,
      "inputs": [
        {
          "indexed": false,
          "internalType": "uint256",
          "name": "requestId",
          "type": "uint256"
        },
        {
          "indexed": false,
          "internalType": "uint32",
          "name": "numWords",
          "type": "uint32"
        }
      ],
      "name": "RequestSent",
      "type": "event"
    },
    {
      "anonymous": false,
      "inputs": [
        {
          "indexed": true,
          "internalType": "bytes32",
          "name": "role",
          "type": "bytes32"
        },
        {
          "indexed": true,
          "internalType": "bytes32",
          "name": "previousAdminRole",
          "type": "bytes32"
        },
        {
          "indexed": true,
          "internalType": "bytes32",
          "name": "newAdminRole",
          "type": "bytes32"
        }
      ],
      "name": "RoleAdminChanged",
      "type": "event"
    },
    {
      "anonymous": false,
      "inputs": [
        {
          "indexed": true,
          "internalType": "bytes32",
          "name": "role",
          "type": "bytes32"
        },
        {
          "indexed": true,
          "internalType": "address",
          "name": "account",
          "type": "address"
        },
        {
          "indexed": true,
          "internalType": "address",
          "name": "sender",
          "type": "address"
        }
      ],
      "name": "RoleGranted",
      "type": "event"
    },
    {
      "anonymous": false,
      "inputs": [
        {
          "indexed": true,
          "internalType": "bytes32",
          "name": "role",
          "type": "bytes32"
        },
        {
          "indexed": true,
          "internalType": "address",
          "name": "account",
          "type": "address"
        },
        {
          "indexed": true,
          "internalType": "address",
          "name": "sender",
          "type": "address"
        }
      ],
      "name": "RoleRevoked",
      "type": "event"
    },
    {
      "inputs": [],
      "name": "ADMIN_ROLE",
      "outputs": [
        {
          "internalType": "bytes32",
          "name": "",
          "type": "bytes32"
        }
      ],
      "stateMutability": "view",
      "type": "function"
    },
    {
      "inputs": [],
      "name": "DEFAULT_ADMIN_ROLE",
      "outputs": [
        {
          "internalType": "bytes32",
          "name": "",
          "type": "bytes32"
        }
      ],
      "stateMutability": "view",
      "type": "function"
    },
    {
      "inputs": [],
      "name": "MOD_ROLE",
      "outputs": [
        {
          "internalType": "bytes32",
          "name": "",
          "type": "bytes32"
        }
      ],
      "stateMutability": "view",
      "type": "function"
    },
    {
      "inputs": [],
      "name": "RELAYER",
      "outputs": [
        {
          "internalType": "bytes32",
          "name": "",
          "type": "bytes32"
        }
      ],
      "stateMutability": "view",
      "type": "function"
    },
    {
      "inputs": [],
      "name": "USDc",
      "outputs": [
        {
          "internalType": "contract USDC",
          "name": "",
          "type": "address"
        }
      ],
      "stateMutability": "view",
      "type": "function"
    },
    {
      "inputs": [
        {
          "internalType": "string",
          "name": "_homeTeam",
          "type": "string"
        },
        {
          "internalType": "string",
          "name": "_homeTeamImage",
          "type": "string"
        },
        {
          "internalType": "string",
          "name": "_awayTeam",
          "type": "string"
        },
        {
          "internalType": "string",
          "name": "_awayTeamImage",
          "type": "string"
        },
        {
          "internalType": "string",
          "name": "_gameTime",
          "type": "string"
        }
      ],
      "name": "addGame",
      "outputs": [],
      "stateMutability": "nonpayable",
      "type": "function"
    },
    {
      "inputs": [
        {
          "internalType": "uint256",
          "name": "",
          "type": "uint256"
        },
        {
          "internalType": "uint256",
          "name": "",
          "type": "uint256"
        }
      ],
      "name": "betsByGame",
      "outputs": [
        {
          "internalType": "address",
          "name": "user",
          "type": "address"
        },
        {
          "internalType": "uint256",
          "name": "gameId",
          "type": "uint256"
        },
        {
          "internalType": "uint256",
          "name": "amount",
          "type": "uint256"
        },
        {
          "internalType": "uint256",
          "name": "homeScore",
          "type": "uint256"
        },
        {
          "internalType": "uint256",
          "name": "awayScore",
          "type": "uint256"
        },
        {
          "internalType": "bool",
          "name": "betWon",
          "type": "bool"
        },
        {
          "internalType": "bool",
          "name": "betCompleted",
          "type": "bool"
        }
      ],
      "stateMutability": "view",
      "type": "function"
    },
    {
      "inputs": [
        {
          "internalType": "bytes32",
          "name": "_requestId",
          "type": "bytes32"
        },
        {
          "internalType": "uint256",
          "name": "_number",
          "type": "uint256"
        }
      ],
      "name": "fulfillNumber",
      "outputs": [],
      "stateMutability": "nonpayable",
      "type": "function"
    },
    {
      "inputs": [],
      "name": "gameCount",
      "outputs": [
        {
          "internalType": "uint256",
          "name": "",
          "type": "uint256"
        }
      ],
      "stateMutability": "view",
      "type": "function"
    },
    {
      "inputs": [
        {
          "internalType": "uint256",
          "name": "",
          "type": "uint256"
        }
      ],
      "name": "games",
      "outputs": [
        {
          "internalType": "string",
          "name": "homeTeam",
          "type": "string"
        },
        {
          "internalType": "string",
          "name": "homeTeamImage",
          "type": "string"
        },
        {
          "internalType": "string",
          "name": "awayTeam",
          "type": "string"
        },
        {
          "internalType": "string",
          "name": "awayTeamImage",
          "type": "string"
        },
        {
          "internalType": "string",
          "name": "gameTime",
          "type": "string"
        },
        {
          "internalType": "uint256",
          "name": "homeScore",
          "type": "uint256"
        },
        {
          "internalType": "uint256",
          "name": "awayScore",
          "type": "uint256"
        },
        {
          "internalType": "bool",
          "name": "gameCompleted",
          "type": "bool"
        },
        {
          "internalType": "uint256",
          "name": "lotteryPool",
          "type": "uint256"
        },
        {
          "internalType": "uint256",
          "name": "betsCount",
          "type": "uint256"
        },
        {
          "internalType": "uint256",
          "name": "betsAmount",
          "type": "uint256"
        }
      ],
      "stateMutability": "view",
      "type": "function"
    },
    {
      "inputs": [],
      "name": "gamesAPI",
      "outputs": [
        {
          "internalType": "string",
          "name": "",
          "type": "string"
        }
      ],
      "stateMutability": "view",
      "type": "function"
    },
    {
      "inputs": [
        {
          "internalType": "bytes32",
          "name": "role",
          "type": "bytes32"
        }
      ],
      "name": "getRoleAdmin",
      "outputs": [
        {
          "internalType": "bytes32",
          "name": "",
          "type": "bytes32"
        }
      ],
      "stateMutability": "view",
      "type": "function"
    },
    {
      "inputs": [
        {
          "internalType": "bytes32",
          "name": "role",
          "type": "bytes32"
        },
        {
          "internalType": "address",
          "name": "account",
          "type": "address"
        }
      ],
      "name": "grantRole",
      "outputs": [],
      "stateMutability": "nonpayable",
      "type": "function"
    },
    {
      "inputs": [
        {
          "internalType": "bytes32",
          "name": "role",
          "type": "bytes32"
        },
        {
          "internalType": "address",
          "name": "account",
          "type": "address"
        }
      ],
      "name": "hasRole",
      "outputs": [
        {
          "internalType": "bool",
          "name": "",
          "type": "bool"
        }
      ],
      "stateMutability": "view",
      "type": "function"
    },
    {
      "inputs": [],
      "name": "lastDate",
      "outputs": [
        {
          "internalType": "string",
          "name": "",
          "type": "string"
        }
      ],
      "stateMutability": "view",
      "type": "function"
    },
    {
      "inputs": [],
      "name": "lastGame",
      "outputs": [
        {
          "internalType": "uint256",
          "name": "",
          "type": "uint256"
        }
      ],
      "stateMutability": "view",
      "type": "function"
    },
    {
      "inputs": [],
      "name": "lastNumber",
      "outputs": [
        {
          "internalType": "uint256",
          "name": "",
          "type": "uint256"
        }
      ],
      "stateMutability": "view",
      "type": "function"
    },
    {
      "inputs": [],
      "name": "lastTeamA",
      "outputs": [
        {
          "internalType": "string",
          "name": "",
          "type": "string"
        }
      ],
      "stateMutability": "view",
      "type": "function"
    },
    {
      "inputs": [],
      "name": "lastTeamB",
      "outputs": [
        {
          "internalType": "string",
          "name": "",
          "type": "string"
        }
      ],
      "stateMutability": "view",
      "type": "function"
    },
    {
      "inputs": [],
      "name": "latestError",
      "outputs": [
        {
          "internalType": "bytes",
          "name": "",
          "type": "bytes"
        }
      ],
      "stateMutability": "view",
      "type": "function"
    },
    {
      "inputs": [],
      "name": "latestRequestId",
      "outputs": [
        {
          "internalType": "bytes32",
          "name": "",
          "type": "bytes32"
        }
      ],
      "stateMutability": "view",
      "type": "function"
    },
    {
      "inputs": [],
      "name": "latestResponse",
      "outputs": [
        {
          "internalType": "bytes",
          "name": "",
          "type": "bytes"
        }
      ],
      "stateMutability": "view",
      "type": "function"
    },
    {
      "inputs": [
        {
          "internalType": "uint256",
          "name": "",
          "type": "uint256"
        },
        {
          "internalType": "uint256",
          "name": "",
          "type": "uint256"
        }
      ],
      "name": "loosersByGame",
      "outputs": [
        {
          "internalType": "address",
          "name": "user",
          "type": "address"
        },
        {
          "internalType": "uint256",
          "name": "gameId",
          "type": "uint256"
        },
        {
          "internalType": "uint256",
          "name": "amount",
          "type": "uint256"
        },
        {
          "internalType": "uint256",
          "name": "homeScore",
          "type": "uint256"
        },
        {
          "internalType": "uint256",
          "name": "awayScore",
          "type": "uint256"
        },
        {
          "internalType": "bool",
          "name": "betWon",
          "type": "bool"
        },
        {
          "internalType": "bool",
          "name": "betCompleted",
          "type": "bool"
        }
      ],
      "stateMutability": "view",
      "type": "function"
    },
    {
      "inputs": [
        {
          "internalType": "uint256",
          "name": "_gameId",
          "type": "uint256"
        },
        {
          "internalType": "uint256",
          "name": "_homeScore",
          "type": "uint256"
        },
        {
          "internalType": "uint256",
          "name": "_awayScore",
          "type": "uint256"
        },
        {
          "internalType": "uint256",
          "name": "_USDCamount",
          "type": "uint256"
        }
      ],
      "name": "makeBet",
      "outputs": [],
      "stateMutability": "nonpayable",
      "type": "function"
    },
    {
      "inputs": [],
      "name": "numbersAPI",
      "outputs": [
        {
          "internalType": "string",
          "name": "",
          "type": "string"
        }
      ],
      "stateMutability": "view",
      "type": "function"
    },
    {
      "inputs": [],
      "name": "owner",
      "outputs": [
        {
          "internalType": "address",
          "name": "",
          "type": "address"
        }
      ],
      "stateMutability": "view",
      "type": "function"
    },
    {
      "inputs": [],
      "name": "renounceOwnership",
      "outputs": [],
      "stateMutability": "nonpayable",
      "type": "function"
    },
    {
      "inputs": [
        {
          "internalType": "bytes32",
          "name": "role",
          "type": "bytes32"
        },
        {
          "internalType": "address",
          "name": "account",
          "type": "address"
        }
      ],
      "name": "renounceRole",
      "outputs": [],
      "stateMutability": "nonpayable",
      "type": "function"
    },
    {
      "inputs": [
        {
          "internalType": "bytes32",
          "name": "role",
          "type": "bytes32"
        },
        {
          "internalType": "address",
          "name": "account",
          "type": "address"
        }
      ],
      "name": "revokeRole",
      "outputs": [],
      "stateMutability": "nonpayable",
      "type": "function"
    },
    {
      "inputs": [
        {
          "internalType": "uint256",
          "name": "loosersQt",
          "type": "uint256"
        }
      ],
      "name": "selectLotteryWinner",
      "outputs": [],
      "stateMutability": "nonpayable",
      "type": "function"
    },
    {
      "inputs": [
        {
          "internalType": "bytes4",
          "name": "interfaceId",
          "type": "bytes4"
        }
      ],
      "name": "supportsInterface",
      "outputs": [
        {
          "internalType": "bool",
          "name": "",
          "type": "bool"
        }
      ],
      "stateMutability": "view",
      "type": "function"
    },
    {
      "inputs": [
        {
          "internalType": "uint256",
          "name": "_amount",
          "type": "uint256"
        },
        {
          "internalType": "address payable",
          "name": "destination",
          "type": "address"
        }
      ],
      "name": "transferFunds",
      "outputs": [],
      "stateMutability": "nonpayable",
      "type": "function"
    },
    {
      "inputs": [
        {
          "internalType": "address",
          "name": "newOwner",
          "type": "address"
        }
      ],
      "name": "transferOwnership",
      "outputs": [],
      "stateMutability": "nonpayable",
      "type": "function"
    },
    {
      "inputs": [
        {
          "internalType": "bytes32",
          "name": "_newJobIdNumbers",
          "type": "bytes32"
        }
      ],
      "name": "updateChainlinkJobIdNumbers",
      "outputs": [],
      "stateMutability": "nonpayable",
      "type": "function"
    },
    {
      "inputs": [
        {
          "internalType": "uint256",
          "name": "_gameId",
          "type": "uint256"
        },
        {
          "internalType": "uint256",
          "name": "_homeScore",
          "type": "uint256"
        },
        {
          "internalType": "uint256",
          "name": "_awayScore",
          "type": "uint256"
        }
      ],
      "name": "updateGameScore",
      "outputs": [],
      "stateMutability": "nonpayable",
      "type": "function"
    },
    {
      "inputs": [
        {
          "internalType": "string",
          "name": "_newUrl",
          "type": "string"
        }
      ],
      "name": "updateNumberAPI",
      "outputs": [],
      "stateMutability": "nonpayable",
      "type": "function"
    },
    {
      "inputs": [
        {
          "internalType": "address",
          "name": "_newRelayer",
          "type": "address"
        }
      ],
      "name": "updateRelayer",
      "outputs": [],
      "stateMutability": "nonpayable",
      "type": "function"
    }
  ],
  "bytecode": "0x608060405260016004553480156200001657600080fd5b506040516200634b3803806200634b83398181016040528101906200003c919062000801565b6200005c620000506200024060201b60201c565b6200024860201b60201c565b60005b8451811015620000cc57620000b87f950b8f2d7415defaee398bb4898e8e094a64c725873b81952b7ab9f08d70efb3868381518110620000a457620000a362000973565b5b60200260200101516200030e60201b60201c565b80620000c490620009db565b90506200005f565b5060005b83518110156200013d57620001297fa49807205ce4d355092ef5a8a18f56e8913cf4a201fbe287825b095693c2177585838151811062000115576200011462000973565b5b60200260200101516200030e60201b60201c565b806200013590620009db565b9050620000d0565b50620001707fab4f864e5201b0fde9b5ee3e4cf96384802b0ffdfcf7f9de4699ce21a30afc4f876200030e60201b60201c565b81600c908162000181919062000c69565b5080600d908162000193919062000c69565b50620001a58a6200040060201b60201c565b620001b6896200044460201b60201c565b87600e8190555086600f81905550600a670de0b6b3a76400006001620001dd919062000d50565b620001e9919062000dca565b60108190555084601960006101000a81548173ffffffffffffffffffffffffffffffffffffffff021916908373ffffffffffffffffffffffffffffffffffffffff1602179055505050505050505050505062000e02565b600033905090565b6000600660009054906101000a900473ffffffffffffffffffffffffffffffffffffffff16905081600660006101000a81548173ffffffffffffffffffffffffffffffffffffffff021916908373ffffffffffffffffffffffffffffffffffffffff1602179055508173ffffffffffffffffffffffffffffffffffffffff168173ffffffffffffffffffffffffffffffffffffffff167f8be0079c531659141344cd1fd0a4f28419497f9722a3daafe3b4186f6b6457e060405160405180910390a35050565b6200032082826200048860201b60201c565b620003fc5760016007600084815260200190815260200160002060000160008373ffffffffffffffffffffffffffffffffffffffff1673ffffffffffffffffffffffffffffffffffffffff16815260200190815260200160002060006101000a81548160ff021916908315150217905550620003a16200024060201b60201c565b73ffffffffffffffffffffffffffffffffffffffff168173ffffffffffffffffffffffffffffffffffffffff16837f2f8788117e7eff1d82e926ec794901d17c78024a50270940304540a733656f0d60405160405180910390a45b5050565b80600260006101000a81548173ffffffffffffffffffffffffffffffffffffffff021916908373ffffffffffffffffffffffffffffffffffffffff16021790555050565b80600360006101000a81548173ffffffffffffffffffffffffffffffffffffffff021916908373ffffffffffffffffffffffffffffffffffffffff16021790555050565b60006007600084815260200190815260200160002060000160008373ffffffffffffffffffffffffffffffffffffffff1673ffffffffffffffffffffffffffffffffffffffff16815260200190815260200160002060009054906101000a900460ff16905092915050565b6000604051905090565b600080fd5b600080fd5b600073ffffffffffffffffffffffffffffffffffffffff82169050919050565b6000620005348262000507565b9050919050565b620005468162000527565b81146200055257600080fd5b50565b60008151905062000566816200053b565b92915050565b6000819050919050565b62000581816200056c565b81146200058d57600080fd5b50565b600081519050620005a18162000576565b92915050565b600080fd5b6000601f19601f8301169050919050565b7f4e487b7100000000000000000000000000000000000000000000000000000000600052604160045260246000fd5b620005f782620005ac565b810181811067ffffffffffffffff82111715620006195762000618620005bd565b5b80604052505050565b60006200062e620004f3565b90506200063c8282620005ec565b919050565b600067ffffffffffffffff8211156200065f576200065e620005bd565b5b602082029050602081019050919050565b600080fd5b60006200068c620006868462000641565b62000622565b90508083825260208201905060208402830185811115620006b257620006b162000670565b5b835b81811015620006df5780620006ca888262000555565b845260208401935050602081019050620006b4565b5050509392505050565b600082601f830112620007015762000700620005a7565b5b81516200071384826020860162000675565b91505092915050565b600080fd5b600067ffffffffffffffff8211156200073f576200073e620005bd565b5b6200074a82620005ac565b9050602081019050919050565b60005b83811015620007775780820151818401526020810190506200075a565b60008484015250505050565b60006200079a620007948462000721565b62000622565b905082815260208101848484011115620007b957620007b86200071c565b5b620007c684828562000757565b509392505050565b600082601f830112620007e657620007e5620005a7565b5b8151620007f884826020860162000783565b91505092915050565b6000806000806000806000806000806101408b8d031215620008285762000827620004fd565b5b6000620008388d828e0162000555565b9a505060206200084b8d828e0162000555565b99505060406200085e8d828e0162000590565b9850506060620008718d828e0162000590565b9750506080620008848d828e0162000555565b96505060a0620008978d828e0162000555565b95505060c08b015167ffffffffffffffff811115620008bb57620008ba62000502565b5b620008c98d828e01620006e9565b94505060e08b015167ffffffffffffffff811115620008ed57620008ec62000502565b5b620008fb8d828e01620006e9565b9350506101008b015167ffffffffffffffff81111562000920576200091f62000502565b5b6200092e8d828e01620007ce565b9250506101208b015167ffffffffffffffff81111562000953576200095262000502565b5b620009618d828e01620007ce565b9150509295989b9194979a5092959850565b7f4e487b7100000000000000000000000000000000000000000000000000000000600052603260045260246000fd5b7f4e487b7100000000000000000000000000000000000000000000000000000000600052601160045260246000fd5b6000819050919050565b6000620009e882620009d1565b91507fffffffffffffffffffffffffffffffffffffffffffffffffffffffffffffffff820362000a1d5762000a1c620009a2565b5b600182019050919050565b600081519050919050565b7f4e487b7100000000000000000000000000000000000000000000000000000000600052602260045260246000fd5b6000600282049050600182168062000a7b57607f821691505b60208210810362000a915762000a9062000a33565b5b50919050565b60008190508160005260206000209050919050565b60006020601f8301049050919050565b600082821b905092915050565b60006008830262000afb7fffffffffffffffffffffffffffffffffffffffffffffffffffffffffffffffff8262000abc565b62000b07868362000abc565b95508019841693508086168417925050509392505050565b6000819050919050565b600062000b4a62000b4462000b3e84620009d1565b62000b1f565b620009d1565b9050919050565b6000819050919050565b62000b668362000b29565b62000b7e62000b758262000b51565b84845462000ac9565b825550505050565b600090565b62000b9562000b86565b62000ba281848462000b5b565b505050565b5b8181101562000bca5762000bbe60008262000b8b565b60018101905062000ba8565b5050565b601f82111562000c195762000be38162000a97565b62000bee8462000aac565b8101602085101562000bfe578190505b62000c1662000c0d8562000aac565b83018262000ba7565b50505b505050565b600082821c905092915050565b600062000c3e6000198460080262000c1e565b1980831691505092915050565b600062000c59838362000c2b565b9150826002028217905092915050565b62000c748262000a28565b67ffffffffffffffff81111562000c905762000c8f620005bd565b5b62000c9c825462000a62565b62000ca982828562000bce565b600060209050601f83116001811462000ce1576000841562000ccc578287015190505b62000cd8858262000c4b565b86555062000d48565b601f19841662000cf18662000a97565b60005b8281101562000d1b5784890151825560018201915060208501945060208101905062000cf4565b8683101562000d3b578489015162000d37601f89168262000c2b565b8355505b6001600288020188555050505b505050505050565b600062000d5d82620009d1565b915062000d6a83620009d1565b925082820262000d7a81620009d1565b9150828204841483151762000d945762000d93620009a2565b5b5092915050565b7f4e487b7100000000000000000000000000000000000000000000000000000000600052601260045260246000fd5b600062000dd782620009d1565b915062000de483620009d1565b92508262000df75762000df662000d9b565b5b828204905092915050565b6155398062000e126000396000f3fe608060405234801561001057600080fd5b50600436106102275760003560e01c806391d1485411610130578063bfd5c6df116100b8578063ee0f45ff1161007c578063ee0f45ff1461062c578063f08e362f14610662578063f0c6506e1461067e578063f2fde38b1461069c578063fffeb84e146106b857610227565b8063bfd5c6df1461059a578063d547741f146105b6578063dd7efaaf146105d2578063e6dd3331146105f0578063e932406f1461060e57610227565b8063a217fddf116100ff578063a217fddf14610506578063ade3778a14610524578063afcc4ad514610540578063b3db9f1a1461055e578063bef3a2f01461057c57610227565b806391d148541461048057806398afa55f146104b0578063a063e9fb146104ce578063a0949595146104ea57610227565b80633b6e6f1b116101b357806355fb9d081161018257806355fb9d0814610402578063715018a61461041e57806375b238fc146104285780638da5cb5b146104465780638f83ab131461046457610227565b80633b6e6f1b146103745780634ba5eb4b146103aa5780634d1975b4146103c657806355a2be24146103e457610227565b80631aa46f59116101fa5780631aa46f59146102d05780632483e715146102ee578063248a9ca31461030c5780632f2ff15d1461033c57806336568abe1461035857610227565b806301ffc9a71461022c578063117a5b901461025c57806311ac97101461029657806315b0a470146102b4575b600080fd5b61024660048036038101906102419190613a63565b6106d6565b6040516102539190613aab565b60405180910390f35b61027660048036038101906102719190613afc565b610750565b60405161028d9b9a99989796959493929190613bc8565b60405180910390f35b61029e610a5f565b6040516102ab9190613c96565b60405180910390f35b6102ce60048036038101906102c99190613ded565b610aed565b005b6102d8610d75565b6040516102e59190613f0d565b60405180910390f35b6102f6610d7b565b6040516103039190613f0d565b60405180910390f35b61032660048036038101906103219190613f54565b610d9f565b6040516103339190613f0d565b60405180910390f35b61035660048036038101906103519190613fdf565b610dbf565b005b610372600480360381019061036d9190613fdf565b610de0565b005b61038e6004803603810190610389919061401f565b610e63565b6040516103a1979695949392919061406e565b60405180910390f35b6103c460048036038101906103bf9190613f54565b610eec565b005b6103ce610f9c565b6040516103db91906140dd565b60405180910390f35b6103ec610fa2565b6040516103f99190613c96565b60405180910390f35b61041c60048036038101906104179190613afc565b611030565b005b6104266111bc565b005b6104306111d0565b60405161043d9190613f0d565b60405180910390f35b61044e6111f4565b60405161045b91906140f8565b60405180910390f35b61047e60048036038101906104799190614113565b61121e565b005b61049a60048036038101906104959190613fdf565b6112f1565b6040516104a79190613aab565b60405180910390f35b6104b861135c565b6040516104c591906140dd565b60405180910390f35b6104e860048036038101906104e39190614140565b611362565b005b61050460048036038101906104ff91906141a7565b611785565b005b61050e611e6e565b60405161051b9190613f0d565b60405180910390f35b61053e600480360381019061053991906141fa565b611e75565b005b6105486120d5565b6040516105559190614299565b60405180910390f35b6105666120fb565b60405161057391906140dd565b60405180910390f35b610584612101565b6040516105919190614309565b60405180910390f35b6105b460048036038101906105af919061432b565b61218f565b005b6105d060048036038101906105cb9190613fdf565b612248565b005b6105da612269565b6040516105e79190613c96565b60405180910390f35b6105f86122f7565b6040516106059190613c96565b60405180910390f35b610616612385565b6040516106239190613f0d565b60405180910390f35b6106466004803603810190610641919061401f565b6123a9565b604051610659979695949392919061406e565b60405180910390f35b61067c600480360381019061067791906143b2565b612432565b005b6106866124df565b6040516106939190613c96565b60405180910390f35b6106b660048036038101906106b19190614113565b61256d565b005b6106c06125f0565b6040516106cd9190614309565b60405180910390f35b60007f7965db0b000000000000000000000000000000000000000000000000000000007bffffffffffffffffffffffffffffffffffffffffffffffffffffffff1916827bffffffffffffffffffffffffffffffffffffffffffffffffffffffff1916148061074957506107488261267e565b5b9050919050565b600a60205280600052604060002060009150905080600001805461077390614421565b80601f016020809104026020016040519081016040528092919081815260200182805461079f90614421565b80156107ec5780601f106107c1576101008083540402835291602001916107ec565b820191906000526020600020905b8154815290600101906020018083116107cf57829003601f168201915b50505050509080600101805461080190614421565b80601f016020809104026020016040519081016040528092919081815260200182805461082d90614421565b801561087a5780601f1061084f5761010080835404028352916020019161087a565b820191906000526020600020905b81548152906001019060200180831161085d57829003601f168201915b50505050509080600201805461088f90614421565b80601f01602080910402602001604051908101604052809291908181526020018280546108bb90614421565b80156109085780601f106108dd57610100808354040283529160200191610908565b820191906000526020600020905b8154815290600101906020018083116108eb57829003601f168201915b50505050509080600301805461091d90614421565b80601f016020809104026020016040519081016040528092919081815260200182805461094990614421565b80156109965780601f1061096b57610100808354040283529160200191610996565b820191906000526020600020905b81548152906001019060200180831161097957829003601f168201915b5050505050908060040180546109ab90614421565b80601f01602080910402602001604051908101604052809291908181526020018280546109d790614421565b8015610a245780601f106109f957610100808354040283529160200191610a24565b820191906000526020600020905b815481529060010190602001808311610a0757829003601f168201915b5050505050908060050154908060060154908060070160009054906101000a900460ff169080600801549080600901549080600a015490508b565b600c8054610a6c90614421565b80601f0160208091040260200160405190810160405280929190818152602001828054610a9890614421565b8015610ae55780601f10610aba57610100808354040283529160200191610ae5565b820191906000526020600020905b815481529060010190602001808311610ac857829003601f168201915b505050505081565b610b177f950b8f2d7415defaee398bb4898e8e094a64c725873b81952b7ab9f08d70efb3336112f1565b80610b485750610b477fa49807205ce4d355092ef5a8a18f56e8913cf4a201fbe287825b095693c21775336112f1565b5b80610b855750610b566111f4565b73ffffffffffffffffffffffffffffffffffffffff163373ffffffffffffffffffffffffffffffffffffffff16145b610bc4576040517f08c379a0000000000000000000000000000000000000000000000000000000008152600401610bbb9061449e565b60405180910390fd5b604051806101600160405280868152602001858152602001848152602001838152602001828152602001600081526020016000815260200160001515815260200160008152602001600081526020016000815250600a6000600b5481526020019081526020016000206000820151816000019081610c429190614660565b506020820151816001019081610c589190614660565b506040820151816002019081610c6e9190614660565b506060820151816003019081610c849190614660565b506080820151816004019081610c9a9190614660565b5060a0820151816005015560c0820151816006015560e08201518160070160006101000a81548160ff0219169083151502179055506101008201518160080155610120820151816009015561014082015181600a0155905050600b6000815480929190610d0690614761565b919050555082604051610d1991906147e5565b604051809103902085604051610d2f91906147e5565b60405180910390207f67e6642558a5a9ecf1c49bb7f946fa9b49371a8845e1747916f5883ad494a3b683604051610d669190613c96565b60405180910390a35050505050565b60165481565b7fab4f864e5201b0fde9b5ee3e4cf96384802b0ffdfcf7f9de4699ce21a30afc4f81565b600060076000838152602001908152602001600020600101549050919050565b610dc882610d9f565b610dd1816126e8565b610ddb83836126fc565b505050565b610de86127dd565b73ffffffffffffffffffffffffffffffffffffffff168173ffffffffffffffffffffffffffffffffffffffff1614610e55576040517f08c379a0000000000000000000000000000000000000000000000000000000008152600401610e4c9061486e565b60405180910390fd5b610e5f82826127e5565b5050565b6008602052816000526040600020602052806000526040600020600091509150508060000160009054906101000a900473ffffffffffffffffffffffffffffffffffffffff16908060010154908060020154908060030154908060040154908060050160009054906101000a900460ff16908060050160019054906101000a900460ff16905087565b610f167fa49807205ce4d355092ef5a8a18f56e8913cf4a201fbe287825b095693c21775336112f1565b80610f535750610f246111f4565b73ffffffffffffffffffffffffffffffffffffffff163373ffffffffffffffffffffffffffffffffffffffff16145b610f92576040517f08c379a0000000000000000000000000000000000000000000000000000000008152600401610f89906148da565b60405180910390fd5b80600e8190555050565b600b5481565b60158054610faf90614421565b80601f0160208091040260200160405190810160405280929190818152602001828054610fdb90614421565b80156110285780601f10610ffd57610100808354040283529160200191611028565b820191906000526020600020905b81548152906001019060200180831161100b57829003601f168201915b505050505081565b6000611046600e543063ade3778a60e01b6128c7565b90506000600c611055846128f8565b60405160200161106692919061497d565b60405160208183030381529060405290506110c16040518060400160405280600381526020017f676574000000000000000000000000000000000000000000000000000000000081525082846129c69092919063ffffffff16565b61111a6040518060400160405280600481526020017f706174680000000000000000000000000000000000000000000000000000000081525060405180602001604052806000815250846129c69092919063ffffffff16565b6111656040518060400160405280600581526020017f74696d65730000000000000000000000000000000000000000000000000000008152506001846129f99092919063ffffffff16565b600061117383601054612a2c565b9050600060115490507f1ca8663227a7fe9919713a01d344afbb434e234f35a3e540a6ad924f88771f3882826040516111ad9291906149a1565b60405180910390a15050505050565b6111c4612a63565b6111ce6000612ae1565b565b7fa49807205ce4d355092ef5a8a18f56e8913cf4a201fbe287825b095693c2177581565b6000600660009054906101000a900473ffffffffffffffffffffffffffffffffffffffff16905090565b6112487fa49807205ce4d355092ef5a8a18f56e8913cf4a201fbe287825b095693c21775336112f1565b8061128557506112566111f4565b73ffffffffffffffffffffffffffffffffffffffff163373ffffffffffffffffffffffffffffffffffffffff16145b6112c4576040517f08c379a00000000000000000000000000000000000000000000000000000000081526004016112bb906148da565b60405180910390fd5b6112ee7fab4f864e5201b0fde9b5ee3e4cf96384802b0ffdfcf7f9de4699ce21a30afc4f826126fc565b50565b60006007600084815260200190815260200160002060000160008373ffffffffffffffffffffffffffffffffffffffff1673ffffffffffffffffffffffffffffffffffffffff16815260200190815260200160002060009054906101000a900460ff16905092915050565b60125481565b600b5484106113a6576040517f08c379a000000000000000000000000000000000000000000000000000000000815260040161139d90614a16565b60405180910390fd5b600081116113e9576040517f08c379a00000000000000000000000000000000000000000000000000000000081526004016113e090614aa8565b60405180910390fd5b6000601960009054906101000a900473ffffffffffffffffffffffffffffffffffffffff1673ffffffffffffffffffffffffffffffffffffffff166323b872dd3330856040518463ffffffff1660e01b815260040161144a93929190614ac8565b6020604051808303816000875af1158015611469573d6000803e3d6000fd5b505050506040513d601f19601f8201168201806040525081019061148d9190614b2b565b9050806114cf576040517f08c379a00000000000000000000000000000000000000000000000000000000081526004016114c690614ba4565b60405180910390fd5b600a600086815260200190815260200160002060070160009054906101000a900460ff1615611533576040517f08c379a000000000000000000000000000000000000000000000000000000000815260040161152a90614c10565b60405180910390fd5b60006014836115429190614c5f565b905060006005846115539190614c5f565b905080600a6000898152602001908152602001600020600801600082825461157b9190614c90565b9250508190555080828561158f9190614cc4565b6115999190614cc4565b600a6000898152602001908152602001600020600a0160008282546115be9190614c90565b925050819055506040518060e001604052803373ffffffffffffffffffffffffffffffffffffffff1681526020018881526020018284876115ff9190614cc4565b6116099190614cc4565b815260200187815260200186815260200160001515815260200160001515815250600860008981526020019081526020016000206000600a60008b815260200190815260200160002060090154815260200190815260200160002060008201518160000160006101000a81548173ffffffffffffffffffffffffffffffffffffffff021916908373ffffffffffffffffffffffffffffffffffffffff1602179055506020820151816001015560408201518160020155606082015181600301556080820151816004015560a08201518160050160006101000a81548160ff02191690831515021790555060c08201518160050160016101000a81548160ff021916908315150217905550905050600a6000888152602001908152602001600020600901600081548092919061173d90614761565b9190505550867fbb79d51f1411ca03952954c866d22ae3532b227b2cf62e257cf182397a6471738787604051611774929190614cf8565b60405180910390a250505050505050565b6117af7f950b8f2d7415defaee398bb4898e8e094a64c725873b81952b7ab9f08d70efb3336112f1565b806117e057506117df7fa49807205ce4d355092ef5a8a18f56e8913cf4a201fbe287825b095693c21775336112f1565b5b8061181d57506117ee6111f4565b73ffffffffffffffffffffffffffffffffffffffff163373ffffffffffffffffffffffffffffffffffffffff16145b61185c576040517f08c379a00000000000000000000000000000000000000000000000000000000081526004016118539061449e565b60405180910390fd5b600b5483106118a0576040517f08c379a000000000000000000000000000000000000000000000000000000000815260040161189790614a16565b60405180910390fd5b81600a60008581526020019081526020016000206005018190555080600a6000858152602001908152602001600020600601819055506001600a600085815260200190815260200160002060070160006101000a81548160ff0219169083151502179055506000600a6000858152602001908152602001600020600901540315611e69576000805b600a6000868152602001908152602001600020600901548110156119ac57600060086000878152602001908152602001600020600083815260200190815260200160002090508481600301541480156119845750838160040154145b1561199857828061199490614761565b9350505b5080806119a490614761565b915050611928565b5060008167ffffffffffffffff8111156119c9576119c8613cc2565b5b604051908082528060200260200182016040528015611a0257816020015b6119ef613919565b8152602001906001900390816119e75790505b5090506000806000805b600a60008a815260200190815260200160002060090154811015611cde576000600860008b815260200190815260200160002060008381526020019081526020016000209050888160030154148015611a685750878160040154145b15611b8d5760018160050160006101000a81548160ff021916908315150217905550806040518060e00160405290816000820160009054906101000a900473ffffffffffffffffffffffffffffffffffffffff1673ffffffffffffffffffffffffffffffffffffffff1673ffffffffffffffffffffffffffffffffffffffff168152602001600182015481526020016002820154815260200160038201548152602001600482015481526020016005820160009054906101000a900460ff161515151581526020016005820160019054906101000a900460ff161515151581525050868681518110611b5d57611b5c614d21565b5b6020026020010181905250806002015483611b789190614c90565b92508480611b8590614761565b955050611cad565b80600960008c815260200190815260200160002060008681526020019081526020016000206000820160009054906101000a900473ffffffffffffffffffffffffffffffffffffffff168160000160006101000a81548173ffffffffffffffffffffffffffffffffffffffff021916908373ffffffffffffffffffffffffffffffffffffffff160217905550600182015481600101556002820154816002015560038201548160030155600482015481600401556005820160009054906101000a900460ff168160050160006101000a81548160ff0219169083151502179055506005820160019054906101000a900460ff168160050160016101000a81548160ff0219169083151502179055509050508380611ca990614761565b9450505b60018160050160016101000a81548160ff021916908315150217905550508080611cd690614761565b915050611a0c565b5060008303611d2b57600a6000898152602001908152602001600020600a0154600a60008a81526020019081526020016000206008016000828254611d239190614c90565b925050819055505b60005b83811015611e5257601960009054906101000a900473ffffffffffffffffffffffffffffffffffffffff1673ffffffffffffffffffffffffffffffffffffffff1663a9059cbb868381518110611d8757611d86614d21565b5b60200260200101516000015184888581518110611da757611da6614d21565b5b602002602001015160400151600a60008f8152602001908152602001600020600a0154611dd49190614d50565b611dde9190614c5f565b6040518363ffffffff1660e01b8152600401611dfb929190614d92565b6020604051808303816000875af1158015611e1a573d6000803e3d6000fd5b505050506040513d601f19601f82011682018060405250810190611e3e9190614b2b565b508080611e4a90614761565b915050611d2e565b5087601281905550611e6382611030565b50505050505b505050565b6000801b81565b816005600082815260200190815260200160002060009054906101000a900473ffffffffffffffffffffffffffffffffffffffff1673ffffffffffffffffffffffffffffffffffffffff163373ffffffffffffffffffffffffffffffffffffffff1614611f17576040517f08c379a0000000000000000000000000000000000000000000000000000000008152600401611f0e90614e2d565b60405180910390fd5b6005600082815260200190815260200160002060006101000a81549073ffffffffffffffffffffffffffffffffffffffff0219169055807f7cc135e0cebb02c3480ae5d74d377283180a2601f8f644edf7987b009316c63a60405160405180910390a2827f4b031b5f8729563cda98e5f016f7cb0d8e6b32db75591d31e59c13df29adea4483604051611faa91906140dd565b60405180910390a281601181905550600182146120d057601960009054906101000a900473ffffffffffffffffffffffffffffffffffffffff1673ffffffffffffffffffffffffffffffffffffffff1663a9059cbb60096000601254815260200190815260200160002060006001866120239190614cc4565b815260200190815260200160002060000160009054906101000a900473ffffffffffffffffffffffffffffffffffffffff16600a60006012548152602001908152602001600020600801546040518363ffffffff1660e01b815260040161208b929190614d92565b6020604051808303816000875af11580156120aa573d6000803e3d6000fd5b505050506040513d601f19601f820116820180604052508101906120ce9190614b2b565b505b505050565b601960009054906101000a900473ffffffffffffffffffffffffffffffffffffffff1681565b60115481565b6017805461210e90614421565b80601f016020809104026020016040519081016040528092919081815260200182805461213a90614421565b80156121875780601f1061215c57610100808354040283529160200191612187565b820191906000526020600020905b81548152906001019060200180831161216a57829003601f168201915b505050505081565b6121b97fa49807205ce4d355092ef5a8a18f56e8913cf4a201fbe287825b095693c21775336112f1565b806121f657506121c76111f4565b73ffffffffffffffffffffffffffffffffffffffff163373ffffffffffffffffffffffffffffffffffffffff16145b612235576040517f08c379a000000000000000000000000000000000000000000000000000000000815260040161222c906148da565b60405180910390fd5b80600c90816122449190614660565b5050565b61225182610d9f565b61225a816126e8565b61226483836127e5565b505050565b6013805461227690614421565b80601f01602080910402602001604051908101604052809291908181526020018280546122a290614421565b80156122ef5780601f106122c4576101008083540402835291602001916122ef565b820191906000526020600020905b8154815290600101906020018083116122d257829003601f168201915b505050505081565b600d805461230490614421565b80601f016020809104026020016040519081016040528092919081815260200182805461233090614421565b801561237d5780601f106123525761010080835404028352916020019161237d565b820191906000526020600020905b81548152906001019060200180831161236057829003601f168201915b505050505081565b7f950b8f2d7415defaee398bb4898e8e094a64c725873b81952b7ab9f08d70efb381565b6009602052816000526040600020602052806000526040600020600091509150508060000160009054906101000a900473ffffffffffffffffffffffffffffffffffffffff16908060010154908060020154908060030154908060040154908060050160009054906101000a900460ff16908060050160019054906101000a900460ff16905087565b61243a612a63565b601960009054906101000a900473ffffffffffffffffffffffffffffffffffffffff1673ffffffffffffffffffffffffffffffffffffffff1663a9059cbb82846040518363ffffffff1660e01b8152600401612497929190614e6e565b6020604051808303816000875af11580156124b6573d6000803e3d6000fd5b505050506040513d601f19601f820116820180604052508101906124da9190614b2b565b505050565b601480546124ec90614421565b80601f016020809104026020016040519081016040528092919081815260200182805461251890614421565b80156125655780601f1061253a57610100808354040283529160200191612565565b820191906000526020600020905b81548152906001019060200180831161254857829003601f168201915b505050505081565b612575612a63565b600073ffffffffffffffffffffffffffffffffffffffff168173ffffffffffffffffffffffffffffffffffffffff16036125e4576040517f08c379a00000000000000000000000000000000000000000000000000000000081526004016125db90614f09565b60405180910390fd5b6125ed81612ae1565b50565b601880546125fd90614421565b80601f016020809104026020016040519081016040528092919081815260200182805461262990614421565b80156126765780601f1061264b57610100808354040283529160200191612676565b820191906000526020600020905b81548152906001019060200180831161265957829003601f168201915b505050505081565b60007f01ffc9a7000000000000000000000000000000000000000000000000000000007bffffffffffffffffffffffffffffffffffffffffffffffffffffffff1916827bffffffffffffffffffffffffffffffffffffffffffffffffffffffff1916149050919050565b6126f9816126f46127dd565b612ba7565b50565b61270682826112f1565b6127d95760016007600084815260200190815260200160002060000160008373ffffffffffffffffffffffffffffffffffffffff1673ffffffffffffffffffffffffffffffffffffffff16815260200190815260200160002060006101000a81548160ff02191690831515021790555061277e6127dd565b73ffffffffffffffffffffffffffffffffffffffff168173ffffffffffffffffffffffffffffffffffffffff16837f2f8788117e7eff1d82e926ec794901d17c78024a50270940304540a733656f0d60405160405180910390a45b5050565b600033905090565b6127ef82826112f1565b156128c35760006007600084815260200190815260200160002060000160008373ffffffffffffffffffffffffffffffffffffffff1673ffffffffffffffffffffffffffffffffffffffff16815260200190815260200160002060006101000a81548160ff0219169083151502179055506128686127dd565b73ffffffffffffffffffffffffffffffffffffffff168173ffffffffffffffffffffffffffffffffffffffff16837ff6391f5c32d9c69d2a47ea670b442974b53935d1edc7fd64eb21e047a839171b60405160405180910390a45b5050565b6128cf613970565b6128d7613970565b6128ee85858584612c2c909392919063ffffffff16565b9150509392505050565b60606000600161290784612cdc565b01905060008167ffffffffffffffff81111561292657612925613cc2565b5b6040519080825280601f01601f1916602001820160405280156129585781602001600182028036833780820191505090505b509050600082602001820190505b6001156129bb578080600190039150507f3031323334353637383961626364656600000000000000000000000000000000600a86061a8153600a85816129af576129ae614c30565b5b04945060008503612966575b819350505050919050565b6129dd828460800151612e2f90919063ffffffff16565b6129f4818460800151612e2f90919063ffffffff16565b505050565b612a10828460800151612e2f90919063ffffffff16565b612a27818460800151612e5490919063ffffffff16565b505050565b6000612a5b600360009054906101000a900473ffffffffffffffffffffffffffffffffffffffff168484612f01565b905092915050565b612a6b6127dd565b73ffffffffffffffffffffffffffffffffffffffff16612a896111f4565b73ffffffffffffffffffffffffffffffffffffffff1614612adf576040517f08c379a0000000000000000000000000000000000000000000000000000000008152600401612ad690614f75565b60405180910390fd5b565b6000600660009054906101000a900473ffffffffffffffffffffffffffffffffffffffff16905081600660006101000a81548173ffffffffffffffffffffffffffffffffffffffff021916908373ffffffffffffffffffffffffffffffffffffffff1602179055508173ffffffffffffffffffffffffffffffffffffffff168173ffffffffffffffffffffffffffffffffffffffff167f8be0079c531659141344cd1fd0a4f28419497f9722a3daafe3b4186f6b6457e060405160405180910390a35050565b612bb182826112f1565b612c2857612bbe81612fcd565b612bcc8360001c6020612ffa565b604051602001612bdd92919061502d565b6040516020818303038152906040526040517f08c379a0000000000000000000000000000000000000000000000000000000008152600401612c1f9190613c96565b60405180910390fd5b5050565b612c34613970565b612c448560800151610100613236565b508385600001818152505082856020019073ffffffffffffffffffffffffffffffffffffffff16908173ffffffffffffffffffffffffffffffffffffffff16815250508185604001907bffffffffffffffffffffffffffffffffffffffffffffffffffffffff191690817bffffffffffffffffffffffffffffffffffffffffffffffffffffffff191681525050849050949350505050565b600080600090507a184f03e93ff9f4daa797ed6e38ed64bf6a1f0100000000000000008310612d3a577a184f03e93ff9f4daa797ed6e38ed64bf6a1f0100000000000000008381612d3057612d2f614c30565b5b0492506040810190505b6d04ee2d6d415b85acef81000000008310612d77576d04ee2d6d415b85acef81000000008381612d6d57612d6c614c30565b5b0492506020810190505b662386f26fc100008310612da657662386f26fc100008381612d9c57612d9b614c30565b5b0492506010810190505b6305f5e1008310612dcf576305f5e1008381612dc557612dc4614c30565b5b0492506008810190505b6127108310612df4576127108381612dea57612de9614c30565b5b0492506004810190505b60648310612e175760648381612e0d57612e0c614c30565b5b0492506002810190505b600a8310612e26576001810190505b80915050919050565b612e3c82600383516132a0565b612e4f818361342590919063ffffffff16565b505050565b7fffffffffffffffffffffffffffffffffffffffffffffffff0000000000000000811215612e8b57612e868282613447565b612efd565b67ffffffffffffffff811315612eaa57612ea582826134be565b612efc565b60008112612ec357612ebe826000836132a0565b612efb565b612efa826001837fffffffffffffffffffffffffffffffffffffffffffffffffffffffffffffffff612ef59190615071565b6132a0565b5b5b5b5050565b6000806004549050600181612f169190614c90565b6004819055506000634042994660e01b60008087600001513089604001518760018c6080015160000151604051602401612f579897969594939291906150c3565b604051602081830303815290604052907bffffffffffffffffffffffffffffffffffffffffffffffffffffffff19166020820180517bffffffffffffffffffffffffffffffffffffffffffffffffffffffff83818316178352505050509050612fc28683868461350a565b925050509392505050565b6060612ff38273ffffffffffffffffffffffffffffffffffffffff16601460ff16612ffa565b9050919050565b60606000600283600261300d9190614d50565b6130179190614c90565b67ffffffffffffffff8111156130305761302f613cc2565b5b6040519080825280601f01601f1916602001820160405280156130625781602001600182028036833780820191505090505b5090507f30000000000000000000000000000000000000000000000000000000000000008160008151811061309a57613099614d21565b5b60200101907effffffffffffffffffffffffffffffffffffffffffffffffffffffffffffff1916908160001a9053507f7800000000000000000000000000000000000000000000000000000000000000816001815181106130fe576130fd614d21565b5b60200101907effffffffffffffffffffffffffffffffffffffffffffffffffffffffffffff1916908160001a9053506000600184600261313e9190614d50565b6131489190614c90565b90505b60018111156131e8577f3031323334353637383961626364656600000000000000000000000000000000600f86166010811061318a57613189614d21565b5b1a60f81b8282815181106131a1576131a0614d21565b5b60200101907effffffffffffffffffffffffffffffffffffffffffffffffffffffffffffff1916908160001a905350600485901c9450806131e190615148565b905061314b565b506000841461322c576040517f08c379a0000000000000000000000000000000000000000000000000000000008152600401613223906151bd565b60405180910390fd5b8091505092915050565b61323e6139dd565b600060208361324d91906151dd565b146132795760208261325f91906151dd565b602061326b9190614cc4565b826132769190614c90565b91505b81836020018181525050604051808452600081528281016020016040525082905092915050565b60178167ffffffffffffffff16116132d7576132d18160058460ff16901b60ff16178461369f90919063ffffffff16565b50613420565b60ff8167ffffffffffffffff161161332d57613306601860058460ff16901b178461369f90919063ffffffff16565b506133278167ffffffffffffffff166001856136bf9092919063ffffffff16565b5061341f565b61ffff8167ffffffffffffffff16116133845761335d601960058460ff16901b178461369f90919063ffffffff16565b5061337e8167ffffffffffffffff166002856136bf9092919063ffffffff16565b5061341e565b63ffffffff8167ffffffffffffffff16116133dd576133b6601a60058460ff16901b178461369f90919063ffffffff16565b506133d78167ffffffffffffffff166004856136bf9092919063ffffffff16565b5061341d565b6133fa601b60058460ff16901b178461369f90919063ffffffff16565b5061341b8167ffffffffffffffff166008856136bf9092919063ffffffff16565b505b5b5b5b505050565b61342d6139dd565b61343f838460000151518485516136e1565b905092915050565b61346560036005600660ff16901b178361369f90919063ffffffff16565b506134ba82827fffffffffffffffffffffffffffffffffffffffffffffffffffffffffffffffff6134969190615071565b6040516020016134a691906140dd565b6040516020818303038152906040526137d0565b5050565b6134dc60026005600660ff16901b178361369f90919063ffffffff16565b5061350682826040516020016134f291906140dd565b6040516020818303038152906040526137d0565b5050565b6000308460405160200161351f929190615289565b604051602081830303815290604052805190602001209050846005600083815260200190815260200160002060006101000a81548173ffffffffffffffffffffffffffffffffffffffff021916908373ffffffffffffffffffffffffffffffffffffffff160217905550807fb5e6e01e79f91267dc17b4e6314d5d4d03593d2ceee0fbb452b750bd70ea5af960405160405180910390a2600260009054906101000a900473ffffffffffffffffffffffffffffffffffffffff1673ffffffffffffffffffffffffffffffffffffffff16634000aea08685856040518463ffffffff1660e01b8152600401613615939291906152b5565b6020604051808303816000875af1158015613634573d6000803e3d6000fd5b505050506040513d601f19601f820116820180604052508101906136589190614b2b565b613697576040517f08c379a000000000000000000000000000000000000000000000000000000000815260040161368e90615365565b60405180910390fd5b949350505050565b6136a76139dd565b6136b783846000015151846137f5565b905092915050565b6136c76139dd565b6136d884856000015151858561384b565b90509392505050565b6136e96139dd565b82518211156136f757600080fd5b846020015182856137089190614c90565b111561373d5761373c85600261372d886020015188876137289190614c90565b6138d9565b6137379190614d50565b6138f5565b5b60008086518051876020830101935080888701111561375c5787860182525b60208701925050505b602084106137a3578051825260208261377e9190614c90565b915060208161378d9190614c90565b905060208461379c9190614cc4565b9350613765565b60006001856020036101000a03905080198251168184511681811785525050508692505050949350505050565b6137dd82600283516132a0565b6137f0818361342590919063ffffffff16565b505050565b6137fd6139dd565b8360200151831061382357613822846002866020015161381d9190614d50565b6138f5565b5b8351805160208583010184815381860361383e576001820183525b5050508390509392505050565b6138536139dd565b846020015184836138649190614c90565b111561388c5761388b856002868561387c9190614c90565b6138869190614d50565b6138f5565b5b600060018361010061389e91906154b8565b6138a89190614cc4565b905085518386820101858319825116178152815185880111156138cb5784870182525b505085915050949350505050565b6000818311156138eb578290506138ef565b8190505b92915050565b6000826000015190506139088383613236565b506139138382613425565b50505050565b6040518060e00160405280600073ffffffffffffffffffffffffffffffffffffffff168152602001600081526020016000815260200160008152602001600081526020016000151581526020016000151581525090565b6040518060a0016040528060008019168152602001600073ffffffffffffffffffffffffffffffffffffffff16815260200160007bffffffffffffffffffffffffffffffffffffffffffffffffffffffff19168152602001600081526020016139d76139dd565b81525090565b604051806040016040528060608152602001600081525090565b6000604051905090565b600080fd5b600080fd5b60007fffffffff0000000000000000000000000000000000000000000000000000000082169050919050565b613a4081613a0b565b8114613a4b57600080fd5b50565b600081359050613a5d81613a37565b92915050565b600060208284031215613a7957613a78613a01565b5b6000613a8784828501613a4e565b91505092915050565b60008115159050919050565b613aa581613a90565b82525050565b6000602082019050613ac06000830184613a9c565b92915050565b6000819050919050565b613ad981613ac6565b8114613ae457600080fd5b50565b600081359050613af681613ad0565b92915050565b600060208284031215613b1257613b11613a01565b5b6000613b2084828501613ae7565b91505092915050565b600081519050919050565b600082825260208201905092915050565b60005b83811015613b63578082015181840152602081019050613b48565b60008484015250505050565b6000601f19601f8301169050919050565b6000613b8b82613b29565b613b958185613b34565b9350613ba5818560208601613b45565b613bae81613b6f565b840191505092915050565b613bc281613ac6565b82525050565b6000610160820190508181036000830152613be3818e613b80565b90508181036020830152613bf7818d613b80565b90508181036040830152613c0b818c613b80565b90508181036060830152613c1f818b613b80565b90508181036080830152613c33818a613b80565b9050613c4260a0830189613bb9565b613c4f60c0830188613bb9565b613c5c60e0830187613a9c565b613c6a610100830186613bb9565b613c78610120830185613bb9565b613c86610140830184613bb9565b9c9b505050505050505050505050565b60006020820190508181036000830152613cb08184613b80565b905092915050565b600080fd5b600080fd5b7f4e487b7100000000000000000000000000000000000000000000000000000000600052604160045260246000fd5b613cfa82613b6f565b810181811067ffffffffffffffff82111715613d1957613d18613cc2565b5b80604052505050565b6000613d2c6139f7565b9050613d388282613cf1565b919050565b600067ffffffffffffffff821115613d5857613d57613cc2565b5b613d6182613b6f565b9050602081019050919050565b82818337600083830152505050565b6000613d90613d8b84613d3d565b613d22565b905082815260208101848484011115613dac57613dab613cbd565b5b613db7848285613d6e565b509392505050565b600082601f830112613dd457613dd3613cb8565b5b8135613de4848260208601613d7d565b91505092915050565b600080600080600060a08688031215613e0957613e08613a01565b5b600086013567ffffffffffffffff811115613e2757613e26613a06565b5b613e3388828901613dbf565b955050602086013567ffffffffffffffff811115613e5457613e53613a06565b5b613e6088828901613dbf565b945050604086013567ffffffffffffffff811115613e8157613e80613a06565b5b613e8d88828901613dbf565b935050606086013567ffffffffffffffff811115613eae57613ead613a06565b5b613eba88828901613dbf565b925050608086013567ffffffffffffffff811115613edb57613eda613a06565b5b613ee788828901613dbf565b9150509295509295909350565b6000819050919050565b613f0781613ef4565b82525050565b6000602082019050613f226000830184613efe565b92915050565b613f3181613ef4565b8114613f3c57600080fd5b50565b600081359050613f4e81613f28565b92915050565b600060208284031215613f6a57613f69613a01565b5b6000613f7884828501613f3f565b91505092915050565b600073ffffffffffffffffffffffffffffffffffffffff82169050919050565b6000613fac82613f81565b9050919050565b613fbc81613fa1565b8114613fc757600080fd5b50565b600081359050613fd981613fb3565b92915050565b60008060408385031215613ff657613ff5613a01565b5b600061400485828601613f3f565b925050602061401585828601613fca565b9150509250929050565b6000806040838503121561403657614035613a01565b5b600061404485828601613ae7565b925050602061405585828601613ae7565b9150509250929050565b61406881613fa1565b82525050565b600060e082019050614083600083018a61405f565b6140906020830189613bb9565b61409d6040830188613bb9565b6140aa6060830187613bb9565b6140b76080830186613bb9565b6140c460a0830185613a9c565b6140d160c0830184613a9c565b98975050505050505050565b60006020820190506140f26000830184613bb9565b92915050565b600060208201905061410d600083018461405f565b92915050565b60006020828403121561412957614128613a01565b5b600061413784828501613fca565b91505092915050565b6000806000806080858703121561415a57614159613a01565b5b600061416887828801613ae7565b945050602061417987828801613ae7565b935050604061418a87828801613ae7565b925050606061419b87828801613ae7565b91505092959194509250565b6000806000606084860312156141c0576141bf613a01565b5b60006141ce86828701613ae7565b93505060206141df86828701613ae7565b92505060406141f086828701613ae7565b9150509250925092565b6000806040838503121561421157614210613a01565b5b600061421f85828601613f3f565b925050602061423085828601613ae7565b9150509250929050565b6000819050919050565b600061425f61425a61425584613f81565b61423a565b613f81565b9050919050565b600061427182614244565b9050919050565b600061428382614266565b9050919050565b61429381614278565b82525050565b60006020820190506142ae600083018461428a565b92915050565b600081519050919050565b600082825260208201905092915050565b60006142db826142b4565b6142e581856142bf565b93506142f5818560208601613b45565b6142fe81613b6f565b840191505092915050565b6000602082019050818103600083015261432381846142d0565b905092915050565b60006020828403121561434157614340613a01565b5b600082013567ffffffffffffffff81111561435f5761435e613a06565b5b61436b84828501613dbf565b91505092915050565b600061437f82613f81565b9050919050565b61438f81614374565b811461439a57600080fd5b50565b6000813590506143ac81614386565b92915050565b600080604083850312156143c9576143c8613a01565b5b60006143d785828601613ae7565b92505060206143e88582860161439d565b9150509250929050565b7f4e487b7100000000000000000000000000000000000000000000000000000000600052602260045260246000fd5b6000600282049050600182168061443957607f821691505b60208210810361444c5761444b6143f2565b5b50919050565b7f49535f4e4f545f4d4f445f4f525f41444d494e00000000000000000000000000600082015250565b6000614488601383613b34565b915061449382614452565b602082019050919050565b600060208201905081810360008301526144b78161447b565b9050919050565b60008190508160005260206000209050919050565b60006020601f8301049050919050565b600082821b905092915050565b6000600883026145207fffffffffffffffffffffffffffffffffffffffffffffffffffffffffffffffff826144e3565b61452a86836144e3565b95508019841693508086168417925050509392505050565b600061455d61455861455384613ac6565b61423a565b613ac6565b9050919050565b6000819050919050565b61457783614542565b61458b61458382614564565b8484546144f0565b825550505050565b600090565b6145a0614593565b6145ab81848461456e565b505050565b5b818110156145cf576145c4600082614598565b6001810190506145b1565b5050565b601f821115614614576145e5816144be565b6145ee846144d3565b810160208510156145fd578190505b614611614609856144d3565b8301826145b0565b50505b505050565b600082821c905092915050565b600061463760001984600802614619565b1980831691505092915050565b60006146508383614626565b9150826002028217905092915050565b61466982613b29565b67ffffffffffffffff81111561468257614681613cc2565b5b61468c8254614421565b6146978282856145d3565b600060209050601f8311600181146146ca57600084156146b8578287015190505b6146c28582614644565b86555061472a565b601f1984166146d8866144be565b60005b82811015614700578489015182556001820191506020850194506020810190506146db565b8683101561471d5784890151614719601f891682614626565b8355505b6001600288020188555050505b505050505050565b7f4e487b7100000000000000000000000000000000000000000000000000000000600052601160045260246000fd5b600061476c82613ac6565b91507fffffffffffffffffffffffffffffffffffffffffffffffffffffffffffffffff820361479e5761479d614732565b5b600182019050919050565b600081905092915050565b60006147bf82613b29565b6147c981856147a9565b93506147d9818560208601613b45565b80840191505092915050565b60006147f182846147b4565b915081905092915050565b7f416363657373436f6e74726f6c3a2063616e206f6e6c792072656e6f756e636560008201527f20726f6c657320666f722073656c660000000000000000000000000000000000602082015250565b6000614858602f83613b34565b9150614863826147fc565b604082019050919050565b600060208201905081810360008301526148878161484b565b9050919050565b7f49535f4e4f545f41444d494e0000000000000000000000000000000000000000600082015250565b60006148c4600c83613b34565b91506148cf8261488e565b602082019050919050565b600060208201905081810360008301526148f3816148b7565b9050919050565b6000815461490781614421565b61491181866147a9565b9450600182166000811461492c576001811461494157614974565b60ff1983168652811515820286019350614974565b61494a856144be565b60005b8381101561496c5781548189015260018201915060208101905061494d565b838801955050505b50505092915050565b600061498982856148fa565b915061499582846147b4565b91508190509392505050565b60006040820190506149b66000830185613efe565b6149c36020830184613bb9565b9392505050565b7f496e76616c69642067616d652049440000000000000000000000000000000000600082015250565b6000614a00600f83613b34565b9150614a0b826149ca565b602082019050919050565b60006020820190508181036000830152614a2f816149f3565b9050919050565b7f42657420616d6f756e74206d7573742062652067726561746572207468616e2060008201527f7a65726f00000000000000000000000000000000000000000000000000000000602082015250565b6000614a92602483613b34565b9150614a9d82614a36565b604082019050919050565b60006020820190508181036000830152614ac181614a85565b9050919050565b6000606082019050614add600083018661405f565b614aea602083018561405f565b614af76040830184613bb9565b949350505050565b614b0881613a90565b8114614b1357600080fd5b50565b600081519050614b2581614aff565b92915050565b600060208284031215614b4157614b40613a01565b5b6000614b4f84828501614b16565b91505092915050565b7f5472616e73616374696f6e206661696c65640000000000000000000000000000600082015250565b6000614b8e601283613b34565b9150614b9982614b58565b602082019050919050565b60006020820190508181036000830152614bbd81614b81565b9050919050565b7f47616d652068617320616c726561647920636f6d706c65746564000000000000600082015250565b6000614bfa601a83613b34565b9150614c0582614bc4565b602082019050919050565b60006020820190508181036000830152614c2981614bed565b9050919050565b7f4e487b7100000000000000000000000000000000000000000000000000000000600052601260045260246000fd5b6000614c6a82613ac6565b9150614c7583613ac6565b925082614c8557614c84614c30565b5b828204905092915050565b6000614c9b82613ac6565b9150614ca683613ac6565b9250828201905080821115614cbe57614cbd614732565b5b92915050565b6000614ccf82613ac6565b9150614cda83613ac6565b9250828203905081811115614cf257614cf1614732565b5b92915050565b6000604082019050614d0d6000830185613bb9565b614d1a6020830184613bb9565b9392505050565b7f4e487b7100000000000000000000000000000000000000000000000000000000600052603260045260246000fd5b6000614d5b82613ac6565b9150614d6683613ac6565b9250828202614d7481613ac6565b91508282048414831517614d8b57614d8a614732565b5b5092915050565b6000604082019050614da7600083018561405f565b614db46020830184613bb9565b9392505050565b7f536f75726365206d75737420626520746865206f7261636c65206f662074686560008201527f2072657175657374000000000000000000000000000000000000000000000000602082015250565b6000614e17602883613b34565b9150614e2282614dbb565b604082019050919050565b60006020820190508181036000830152614e4681614e0a565b9050919050565b6000614e5882614266565b9050919050565b614e6881614e4d565b82525050565b6000604082019050614e836000830185614e5f565b614e906020830184613bb9565b9392505050565b7f4f776e61626c653a206e6577206f776e657220697320746865207a65726f206160008201527f6464726573730000000000000000000000000000000000000000000000000000602082015250565b6000614ef3602683613b34565b9150614efe82614e97565b604082019050919050565b60006020820190508181036000830152614f2281614ee6565b9050919050565b7f4f776e61626c653a2063616c6c6572206973206e6f7420746865206f776e6572600082015250565b6000614f5f602083613b34565b9150614f6a82614f29565b602082019050919050565b60006020820190508181036000830152614f8e81614f52565b9050919050565b7f416363657373436f6e74726f6c3a206163636f756e7420000000000000000000600082015250565b6000614fcb6017836147a9565b9150614fd682614f95565b601782019050919050565b7f206973206d697373696e6720726f6c6520000000000000000000000000000000600082015250565b60006150176011836147a9565b915061502282614fe1565b601182019050919050565b600061503882614fbe565b915061504482856147b4565b915061504f8261500a565b915061505b82846147b4565b91508190509392505050565b6000819050919050565b600061507c82615067565b915061508783615067565b92508282039050818112600084121682821360008512151617156150ae576150ad614732565b5b92915050565b6150bd81613a0b565b82525050565b6000610100820190506150d9600083018b61405f565b6150e6602083018a613bb9565b6150f36040830189613efe565b615100606083018861405f565b61510d60808301876150b4565b61511a60a0830186613bb9565b61512760c0830185613bb9565b81810360e083015261513981846142d0565b90509998505050505050505050565b600061515382613ac6565b91506000820361516657615165614732565b5b600182039050919050565b7f537472696e67733a20686578206c656e67746820696e73756666696369656e74600082015250565b60006151a7602083613b34565b91506151b282615171565b602082019050919050565b600060208201905081810360008301526151d68161519a565b9050919050565b60006151e882613ac6565b91506151f383613ac6565b92508261520357615202614c30565b5b828206905092915050565b600061521982614266565b9050919050565b60008160601b9050919050565b600061523882615220565b9050919050565b600061524a8261522d565b9050919050565b61526261525d8261520e565b61523f565b82525050565b6000819050919050565b61528361527e82613ac6565b615268565b82525050565b60006152958285615251565b6014820191506152a58284615272565b6020820191508190509392505050565b60006060820190506152ca600083018661405f565b6152d76020830185613bb9565b81810360408301526152e981846142d0565b9050949350505050565b7f756e61626c6520746f207472616e73666572416e6443616c6c20746f206f726160008201527f636c650000000000000000000000000000000000000000000000000000000000602082015250565b600061534f602383613b34565b915061535a826152f3565b604082019050919050565b6000602082019050818103600083015261537e81615342565b9050919050565b60008160011c9050919050565b6000808291508390505b60018511156153dc578086048111156153b8576153b7614732565b5b60018516156153c75780820291505b80810290506153d585615385565b945061539c565b94509492505050565b6000826153f557600190506154b1565b8161540357600090506154b1565b8160018114615419576002811461542357615452565b60019150506154b1565b60ff84111561543557615434614732565b5b8360020a91508482111561544c5761544b614732565b5b506154b1565b5060208310610133831016604e8410600b84101617156154875782820a90508381111561548257615481614732565b5b6154b1565b6154948484846001615392565b925090508184048111156154ab576154aa614732565b5b81810290505b9392505050565b60006154c382613ac6565b91506154ce83613ac6565b92506154fb7fffffffffffffffffffffffffffffffffffffffffffffffffffffffffffffffff84846153e5565b90509291505056fea2646970667358221220d07f800b76f8859a21e4c4111ee9c8ca55623474af0a41d0594bdbea87003a4c64736f6c63430008110033",
  "linkReferences": {},
  "deployedLinkReferences": {}
}