{
  "_format": "hh-sol-artifact-1",
  "contractName": "Sports",
  "sourceName": "contracts/Sports.sol",
  "abi": [
    {
      "inputs": [
        {
          "internalType": "address",
          "name": "_chainlinkToken",
          "type": "address"
        },
        {
          "internalType": "address",
          "name": "_chainlinkOracle",
          "type": "address"
        },
        {
          "internalType": "bytes32",
          "name": "_jobId",
          "type": "bytes32"
        },
        {
          "internalType": "address",
          "name": "_relayer",
          "type": "address"
        },
        {
          "internalType": "address",
          "name": "_usdcContractAddress",
          "type": "address"
        },
        {
          "internalType": "address[]",
          "name": "_mods",
          "type": "address[]"
        },
        {
          "internalType": "address[]",
          "name": "_admins",
          "type": "address[]"
        },
        {
          "internalType": "string",
          "name": "_numbersAPI",
          "type": "string"
        },
        {
          "internalType": "string",
          "name": "_gamesAPI",
          "type": "string"
        }
      ],
      "stateMutability": "nonpayable",
      "type": "constructor"
    },
    {
      "anonymous": false,
      "inputs": [
        {
          "indexed": true,
          "internalType": "uint256",
          "name": "_gameId",
          "type": "uint256"
        },
        {
          "indexed": false,
          "internalType": "uint256",
          "name": "_homeScore",
          "type": "uint256"
        },
        {
          "indexed": false,
          "internalType": "uint256",
          "name": "_awayScore",
          "type": "uint256"
        }
      ],
      "name": "BetCreated",
      "type": "event"
    },
    {
      "anonymous": false,
      "inputs": [
        {
          "indexed": true,
          "internalType": "bytes32",
          "name": "id",
          "type": "bytes32"
        }
      ],
      "name": "ChainlinkCancelled",
      "type": "event"
    },
    {
      "anonymous": false,
      "inputs": [
        {
          "indexed": true,
          "internalType": "bytes32",
          "name": "id",
          "type": "bytes32"
        }
      ],
      "name": "ChainlinkFulfilled",
      "type": "event"
    },
    {
      "anonymous": false,
      "inputs": [
        {
          "indexed": true,
          "internalType": "bytes32",
          "name": "id",
          "type": "bytes32"
        }
      ],
      "name": "ChainlinkRequested",
      "type": "event"
    },
    {
      "anonymous": false,
      "inputs": [
        {
          "indexed": false,
          "internalType": "uint256",
          "name": "_gameTime",
          "type": "uint256"
        },
        {
          "indexed": true,
          "internalType": "string",
          "name": "_homeTeam",
          "type": "string"
        },
        {
          "indexed": true,
          "internalType": "string",
          "name": "_awayTeam",
          "type": "string"
        }
      ],
      "name": "GameCreated",
      "type": "event"
    },
    {
      "anonymous": false,
      "inputs": [
        {
          "indexed": true,
          "internalType": "address",
          "name": "previousOwner",
          "type": "address"
        },
        {
          "indexed": true,
          "internalType": "address",
          "name": "newOwner",
          "type": "address"
        }
      ],
      "name": "OwnershipTransferred",
      "type": "event"
    },
    {
      "anonymous": false,
      "inputs": [
        {
          "indexed": false,
          "internalType": "uint256",
          "name": "print",
          "type": "uint256"
        }
      ],
      "name": "Print",
      "type": "event"
    },
    {
      "anonymous": false,
      "inputs": [
        {
          "indexed": false,
          "internalType": "bytes32",
          "name": "requestId",
          "type": "bytes32"
        },
        {
          "indexed": false,
          "internalType": "uint256",
          "name": "random",
          "type": "uint256"
        }
      ],
      "name": "RequestFulfilled",
      "type": "event"
    },
    {
      "anonymous": false,
      "inputs": [
        {
          "indexed": true,
          "internalType": "bytes32",
          "name": "requestId",
          "type": "bytes32"
        },
        {
          "indexed": false,
          "internalType": "uint256",
          "name": "number",
          "type": "uint256"
        }
      ],
      "name": "RequestNumber",
      "type": "event"
    },
    {
      "anonymous": false,
      "inputs": [
        {
          "indexed": false,
          "internalType": "uint256",
          "name": "requestId",
          "type": "uint256"
        },
        {
          "indexed": false,
          "internalType": "uint32",
          "name": "numWords",
          "type": "uint32"
        }
      ],
      "name": "RequestSent",
      "type": "event"
    },
    {
      "anonymous": false,
      "inputs": [
        {
          "indexed": true,
          "internalType": "bytes32",
          "name": "role",
          "type": "bytes32"
        },
        {
          "indexed": true,
          "internalType": "bytes32",
          "name": "previousAdminRole",
          "type": "bytes32"
        },
        {
          "indexed": true,
          "internalType": "bytes32",
          "name": "newAdminRole",
          "type": "bytes32"
        }
      ],
      "name": "RoleAdminChanged",
      "type": "event"
    },
    {
      "anonymous": false,
      "inputs": [
        {
          "indexed": true,
          "internalType": "bytes32",
          "name": "role",
          "type": "bytes32"
        },
        {
          "indexed": true,
          "internalType": "address",
          "name": "account",
          "type": "address"
        },
        {
          "indexed": true,
          "internalType": "address",
          "name": "sender",
          "type": "address"
        }
      ],
      "name": "RoleGranted",
      "type": "event"
    },
    {
      "anonymous": false,
      "inputs": [
        {
          "indexed": true,
          "internalType": "bytes32",
          "name": "role",
          "type": "bytes32"
        },
        {
          "indexed": true,
          "internalType": "address",
          "name": "account",
          "type": "address"
        },
        {
          "indexed": true,
          "internalType": "address",
          "name": "sender",
          "type": "address"
        }
      ],
      "name": "RoleRevoked",
      "type": "event"
    },
    {
      "inputs": [],
      "name": "ADMIN_ROLE",
      "outputs": [
        {
          "internalType": "bytes32",
          "name": "",
          "type": "bytes32"
        }
      ],
      "stateMutability": "view",
      "type": "function"
    },
    {
      "inputs": [],
      "name": "DEFAULT_ADMIN_ROLE",
      "outputs": [
        {
          "internalType": "bytes32",
          "name": "",
          "type": "bytes32"
        }
      ],
      "stateMutability": "view",
      "type": "function"
    },
    {
      "inputs": [],
      "name": "MOD_ROLE",
      "outputs": [
        {
          "internalType": "bytes32",
          "name": "",
          "type": "bytes32"
        }
      ],
      "stateMutability": "view",
      "type": "function"
    },
    {
      "inputs": [],
      "name": "RELAYER",
      "outputs": [
        {
          "internalType": "bytes32",
          "name": "",
          "type": "bytes32"
        }
      ],
      "stateMutability": "view",
      "type": "function"
    },
    {
      "inputs": [],
      "name": "USDc",
      "outputs": [
        {
          "internalType": "contract USDC",
          "name": "",
          "type": "address"
        }
      ],
      "stateMutability": "view",
      "type": "function"
    },
    {
      "inputs": [
        {
          "internalType": "string",
          "name": "_homeTeam",
          "type": "string"
        },
        {
          "internalType": "string",
          "name": "_awayTeam",
          "type": "string"
        },
        {
          "internalType": "uint256",
          "name": "_gameTime",
          "type": "uint256"
        }
      ],
      "name": "addGame",
      "outputs": [],
      "stateMutability": "nonpayable",
      "type": "function"
    },
    {
      "inputs": [
        {
          "internalType": "bytes32",
          "name": "_requestId",
          "type": "bytes32"
        },
        {
          "internalType": "uint256",
          "name": "_number",
          "type": "uint256"
        }
      ],
      "name": "apiCall",
      "outputs": [],
      "stateMutability": "nonpayable",
      "type": "function"
    },
    {
      "inputs": [
        {
          "internalType": "uint256",
          "name": "",
          "type": "uint256"
        },
        {
          "internalType": "uint256",
          "name": "",
          "type": "uint256"
        }
      ],
      "name": "betsByGame",
      "outputs": [
        {
          "internalType": "address",
          "name": "user",
          "type": "address"
        },
        {
          "internalType": "uint256",
          "name": "gameId",
          "type": "uint256"
        },
        {
          "internalType": "uint256",
          "name": "amount",
          "type": "uint256"
        },
        {
          "internalType": "uint256",
          "name": "homeScore",
          "type": "uint256"
        },
        {
          "internalType": "uint256",
          "name": "awayScore",
          "type": "uint256"
        },
        {
          "internalType": "bool",
          "name": "betWon",
          "type": "bool"
        },
        {
          "internalType": "bool",
          "name": "betCompleted",
          "type": "bool"
        }
      ],
      "stateMutability": "view",
      "type": "function"
    },
    {
      "inputs": [
        {
          "internalType": "bytes32",
          "name": "_requestId",
          "type": "bytes32"
        },
        {
          "internalType": "uint256",
          "name": "_number",
          "type": "uint256"
        }
      ],
      "name": "fulfill",
      "outputs": [],
      "stateMutability": "nonpayable",
      "type": "function"
    },
    {
      "inputs": [],
      "name": "gameCount",
      "outputs": [
        {
          "internalType": "uint256",
          "name": "",
          "type": "uint256"
        }
      ],
      "stateMutability": "view",
      "type": "function"
    },
    {
      "inputs": [
        {
          "internalType": "uint256",
          "name": "",
          "type": "uint256"
        }
      ],
      "name": "games",
      "outputs": [
        {
          "internalType": "string",
          "name": "homeTeam",
          "type": "string"
        },
        {
          "internalType": "string",
          "name": "awayTeam",
          "type": "string"
        },
        {
          "internalType": "uint256",
          "name": "gameTime",
          "type": "uint256"
        },
        {
          "internalType": "uint256",
          "name": "homeScore",
          "type": "uint256"
        },
        {
          "internalType": "uint256",
          "name": "awayScore",
          "type": "uint256"
        },
        {
          "internalType": "bool",
          "name": "gameCompleted",
          "type": "bool"
        },
        {
          "internalType": "uint256",
          "name": "lotteryPool",
          "type": "uint256"
        },
        {
          "internalType": "uint256",
          "name": "betsCount",
          "type": "uint256"
        },
        {
          "internalType": "uint256",
          "name": "betsAmount",
          "type": "uint256"
        }
      ],
      "stateMutability": "view",
      "type": "function"
    },
    {
      "inputs": [
        {
          "internalType": "bytes32",
          "name": "role",
          "type": "bytes32"
        }
      ],
      "name": "getRoleAdmin",
      "outputs": [
        {
          "internalType": "bytes32",
          "name": "",
          "type": "bytes32"
        }
      ],
      "stateMutability": "view",
      "type": "function"
    },
    {
      "inputs": [
        {
          "internalType": "bytes32",
          "name": "role",
          "type": "bytes32"
        },
        {
          "internalType": "address",
          "name": "account",
          "type": "address"
        }
      ],
      "name": "grantRole",
      "outputs": [],
      "stateMutability": "nonpayable",
      "type": "function"
    },
    {
      "inputs": [
        {
          "internalType": "bytes32",
          "name": "role",
          "type": "bytes32"
        },
        {
          "internalType": "address",
          "name": "account",
          "type": "address"
        }
      ],
      "name": "hasRole",
      "outputs": [
        {
          "internalType": "bool",
          "name": "",
          "type": "bool"
        }
      ],
      "stateMutability": "view",
      "type": "function"
    },
    {
      "inputs": [],
      "name": "lastNumber",
      "outputs": [
        {
          "internalType": "uint256",
          "name": "",
          "type": "uint256"
        }
      ],
      "stateMutability": "view",
      "type": "function"
    },
    {
      "inputs": [
        {
          "internalType": "uint256",
          "name": "_gameId",
          "type": "uint256"
        },
        {
          "internalType": "uint256",
          "name": "_homeScore",
          "type": "uint256"
        },
        {
          "internalType": "uint256",
          "name": "_awayScore",
          "type": "uint256"
        },
        {
          "internalType": "uint256",
          "name": "amountInDolar",
          "type": "uint256"
        }
      ],
      "name": "makeBet",
      "outputs": [],
      "stateMutability": "payable",
      "type": "function"
    },
    {
      "inputs": [],
      "name": "owner",
      "outputs": [
        {
          "internalType": "address",
          "name": "",
          "type": "address"
        }
      ],
      "stateMutability": "view",
      "type": "function"
    },
    {
      "inputs": [],
      "name": "renounceOwnership",
      "outputs": [],
      "stateMutability": "nonpayable",
      "type": "function"
    },
    {
      "inputs": [
        {
          "internalType": "bytes32",
          "name": "role",
          "type": "bytes32"
        },
        {
          "internalType": "address",
          "name": "account",
          "type": "address"
        }
      ],
      "name": "renounceRole",
      "outputs": [],
      "stateMutability": "nonpayable",
      "type": "function"
    },
    {
      "inputs": [
        {
          "internalType": "bytes32",
          "name": "role",
          "type": "bytes32"
        },
        {
          "internalType": "address",
          "name": "account",
          "type": "address"
        }
      ],
      "name": "revokeRole",
      "outputs": [],
      "stateMutability": "nonpayable",
      "type": "function"
    },
    {
      "inputs": [
        {
          "internalType": "uint256",
          "name": "loosersQt",
          "type": "uint256"
        }
      ],
      "name": "selectLotteryWinner",
      "outputs": [
        {
          "internalType": "uint256",
          "name": "",
          "type": "uint256"
        }
      ],
      "stateMutability": "nonpayable",
      "type": "function"
    },
    {
      "inputs": [
        {
          "internalType": "bytes4",
          "name": "interfaceId",
          "type": "bytes4"
        }
      ],
      "name": "supportsInterface",
      "outputs": [
        {
          "internalType": "bool",
          "name": "",
          "type": "bool"
        }
      ],
      "stateMutability": "view",
      "type": "function"
    },
    {
      "inputs": [
        {
          "internalType": "uint256",
          "name": "_amount",
          "type": "uint256"
        },
        {
          "internalType": "address payable",
          "name": "destination",
          "type": "address"
        }
      ],
      "name": "transferFunds",
      "outputs": [],
      "stateMutability": "payable",
      "type": "function"
    },
    {
      "inputs": [
        {
          "internalType": "address",
          "name": "newOwner",
          "type": "address"
        }
      ],
      "name": "transferOwnership",
      "outputs": [],
      "stateMutability": "nonpayable",
      "type": "function"
    },
    {
      "inputs": [
        {
          "internalType": "bytes32",
          "name": "_newJobId",
          "type": "bytes32"
        }
      ],
      "name": "updateChainlinkJobId",
      "outputs": [],
      "stateMutability": "nonpayable",
      "type": "function"
    },
    {
      "inputs": [],
      "name": "updateDashboard",
      "outputs": [],
      "stateMutability": "nonpayable",
      "type": "function"
    },
    {
      "inputs": [
        {
          "internalType": "uint256",
          "name": "_gameId",
          "type": "uint256"
        },
        {
          "internalType": "uint256",
          "name": "_homeScore",
          "type": "uint256"
        },
        {
          "internalType": "uint256",
          "name": "_awayScore",
          "type": "uint256"
        }
      ],
      "name": "updateGameScore",
      "outputs": [],
      "stateMutability": "nonpayable",
      "type": "function"
    },
    {
      "inputs": [
        {
          "internalType": "string",
          "name": "_newUrl",
          "type": "string"
        }
      ],
      "name": "updateNumberAPI",
      "outputs": [],
      "stateMutability": "nonpayable",
      "type": "function"
    },
    {
      "inputs": [
        {
          "internalType": "address",
          "name": "_newRelayer",
          "type": "address"
        }
      ],
      "name": "updateRelayer",
      "outputs": [],
      "stateMutability": "nonpayable",
      "type": "function"
    }
  ],
  "bytecode": "0x608060405260016004553480156200001657600080fd5b5060405162005ae938038062005ae983398181016040528101906200003c9190620007f9565b6200005c620000506200023860201b60201c565b6200024060201b60201c565b60005b8451811015620000cc57620000b87f950b8f2d7415defaee398bb4898e8e094a64c725873b81952b7ab9f08d70efb3868381518110620000a457620000a362000954565b5b60200260200101516200030660201b60201c565b80620000c490620009bc565b90506200005f565b5060005b83518110156200013d57620001297fa49807205ce4d355092ef5a8a18f56e8913cf4a201fbe287825b095693c2177585838151811062000115576200011462000954565b5b60200260200101516200030660201b60201c565b806200013590620009bc565b9050620000d0565b50620001707fab4f864e5201b0fde9b5ee3e4cf96384802b0ffdfcf7f9de4699ce21a30afc4f876200030660201b60201c565b81600b908162000181919062000c4a565b5080600c908162000193919062000c4a565b50620001a589620003f860201b60201c565b620001b6886200043c60201b60201c565b86600d81905550600a670de0b6b3a76400006001620001d6919062000d31565b620001e2919062000dab565b600e8190555084601060006101000a81548173ffffffffffffffffffffffffffffffffffffffff021916908373ffffffffffffffffffffffffffffffffffffffff16021790555050505050505050505062000de3565b600033905090565b6000600660009054906101000a900473ffffffffffffffffffffffffffffffffffffffff16905081600660006101000a81548173ffffffffffffffffffffffffffffffffffffffff021916908373ffffffffffffffffffffffffffffffffffffffff1602179055508173ffffffffffffffffffffffffffffffffffffffff168173ffffffffffffffffffffffffffffffffffffffff167f8be0079c531659141344cd1fd0a4f28419497f9722a3daafe3b4186f6b6457e060405160405180910390a35050565b6200031882826200048060201b60201c565b620003f45760016007600084815260200190815260200160002060000160008373ffffffffffffffffffffffffffffffffffffffff1673ffffffffffffffffffffffffffffffffffffffff16815260200190815260200160002060006101000a81548160ff021916908315150217905550620003996200023860201b60201c565b73ffffffffffffffffffffffffffffffffffffffff168173ffffffffffffffffffffffffffffffffffffffff16837f2f8788117e7eff1d82e926ec794901d17c78024a50270940304540a733656f0d60405160405180910390a45b5050565b80600260006101000a81548173ffffffffffffffffffffffffffffffffffffffff021916908373ffffffffffffffffffffffffffffffffffffffff16021790555050565b80600360006101000a81548173ffffffffffffffffffffffffffffffffffffffff021916908373ffffffffffffffffffffffffffffffffffffffff16021790555050565b60006007600084815260200190815260200160002060000160008373ffffffffffffffffffffffffffffffffffffffff1673ffffffffffffffffffffffffffffffffffffffff16815260200190815260200160002060009054906101000a900460ff16905092915050565b6000604051905090565b600080fd5b600080fd5b600073ffffffffffffffffffffffffffffffffffffffff82169050919050565b60006200052c82620004ff565b9050919050565b6200053e816200051f565b81146200054a57600080fd5b50565b6000815190506200055e8162000533565b92915050565b6000819050919050565b620005798162000564565b81146200058557600080fd5b50565b60008151905062000599816200056e565b92915050565b600080fd5b6000601f19601f8301169050919050565b7f4e487b7100000000000000000000000000000000000000000000000000000000600052604160045260246000fd5b620005ef82620005a4565b810181811067ffffffffffffffff82111715620006115762000610620005b5565b5b80604052505050565b600062000626620004eb565b9050620006348282620005e4565b919050565b600067ffffffffffffffff821115620006575762000656620005b5565b5b602082029050602081019050919050565b600080fd5b6000620006846200067e8462000639565b6200061a565b90508083825260208201905060208402830185811115620006aa57620006a962000668565b5b835b81811015620006d75780620006c288826200054d565b845260208401935050602081019050620006ac565b5050509392505050565b600082601f830112620006f957620006f86200059f565b5b81516200070b8482602086016200066d565b91505092915050565b600080fd5b600067ffffffffffffffff821115620007375762000736620005b5565b5b6200074282620005a4565b9050602081019050919050565b60005b838110156200076f57808201518184015260208101905062000752565b60008484015250505050565b6000620007926200078c8462000719565b6200061a565b905082815260208101848484011115620007b157620007b062000714565b5b620007be8482856200074f565b509392505050565b600082601f830112620007de57620007dd6200059f565b5b8151620007f08482602086016200077b565b91505092915050565b60008060008060008060008060006101208a8c0312156200081f576200081e620004f5565b5b60006200082f8c828d016200054d565b9950506020620008428c828d016200054d565b9850506040620008558c828d0162000588565b9750506060620008688c828d016200054d565b96505060806200087b8c828d016200054d565b95505060a08a015167ffffffffffffffff8111156200089f576200089e620004fa565b5b620008ad8c828d01620006e1565b94505060c08a015167ffffffffffffffff811115620008d157620008d0620004fa565b5b620008df8c828d01620006e1565b93505060e08a015167ffffffffffffffff811115620009035762000902620004fa565b5b620009118c828d01620007c6565b9250506101008a015167ffffffffffffffff811115620009365762000935620004fa565b5b620009448c828d01620007c6565b9150509295985092959850929598565b7f4e487b7100000000000000000000000000000000000000000000000000000000600052603260045260246000fd5b7f4e487b7100000000000000000000000000000000000000000000000000000000600052601160045260246000fd5b6000819050919050565b6000620009c982620009b2565b91507fffffffffffffffffffffffffffffffffffffffffffffffffffffffffffffffff8203620009fe57620009fd62000983565b5b600182019050919050565b600081519050919050565b7f4e487b7100000000000000000000000000000000000000000000000000000000600052602260045260246000fd5b6000600282049050600182168062000a5c57607f821691505b60208210810362000a725762000a7162000a14565b5b50919050565b60008190508160005260206000209050919050565b60006020601f8301049050919050565b600082821b905092915050565b60006008830262000adc7fffffffffffffffffffffffffffffffffffffffffffffffffffffffffffffffff8262000a9d565b62000ae8868362000a9d565b95508019841693508086168417925050509392505050565b6000819050919050565b600062000b2b62000b2562000b1f84620009b2565b62000b00565b620009b2565b9050919050565b6000819050919050565b62000b478362000b0a565b62000b5f62000b568262000b32565b84845462000aaa565b825550505050565b600090565b62000b7662000b67565b62000b8381848462000b3c565b505050565b5b8181101562000bab5762000b9f60008262000b6c565b60018101905062000b89565b5050565b601f82111562000bfa5762000bc48162000a78565b62000bcf8462000a8d565b8101602085101562000bdf578190505b62000bf762000bee8562000a8d565b83018262000b88565b50505b505050565b600082821c905092915050565b600062000c1f6000198460080262000bff565b1980831691505092915050565b600062000c3a838362000c0c565b9150826002028217905092915050565b62000c558262000a09565b67ffffffffffffffff81111562000c715762000c70620005b5565b5b62000c7d825462000a43565b62000c8a82828562000baf565b600060209050601f83116001811462000cc2576000841562000cad578287015190505b62000cb9858262000c2c565b86555062000d29565b601f19841662000cd28662000a78565b60005b8281101562000cfc5784890151825560018201915060208501945060208101905062000cd5565b8683101562000d1c578489015162000d18601f89168262000c0c565b8355505b6001600288020188555050505b505050505050565b600062000d3e82620009b2565b915062000d4b83620009b2565b925082820262000d5b81620009b2565b9150828204841483151762000d755762000d7462000983565b5b5092915050565b7f4e487b7100000000000000000000000000000000000000000000000000000000600052601260045260246000fd5b600062000db882620009b2565b915062000dc583620009b2565b92508262000dd85762000dd762000d7c565b5b828204905092915050565b614cf68062000df36000396000f3fe6080604052600436106101c25760003560e01c80638b4ac639116100f7578063a5c86b7711610095578063d547741f11610064578063d547741f1461062b578063e932406f14610654578063f08e362f1461067f578063f2fde38b1461069b576101c2565b8063a5c86b7714610583578063afcc4ad5146105ac578063b3db9f1a146105d7578063bfd5c6df14610602576101c2565b806391d14854116100d157806391d14854146104d6578063a063e9fb14610513578063a09495951461052f578063a217fddf14610558576101c2565b80638b4ac639146104595780638da5cb5b146104825780638f83ab13146104ad576101c2565b80634357855e1161016457806355fb9d081161013e57806355fb9d08146103c3578063715018a61461040057806375b238fc146104175780637d80773014610442576101c2565b80634357855e146103465780634d1975b41461036f5780634eca519f1461039a576101c2565b8063248a9ca3116101a0578063248a9ca3146102745780632f2ff15d146102b157806336568abe146102da5780633b6e6f1b14610303576101c2565b806301ffc9a7146101c7578063117a5b90146102045780632483e71514610249575b600080fd5b3480156101d357600080fd5b506101ee60048036038101906101e991906132d2565b6106c4565b6040516101fb919061331a565b60405180910390f35b34801561021057600080fd5b5061022b6004803603810190610226919061336b565b61073e565b60405161024099989796959493929190613437565b60405180910390f35b34801561025557600080fd5b5061025e6108a9565b60405161026b91906134eb565b60405180910390f35b34801561028057600080fd5b5061029b60048036038101906102969190613532565b6108cd565b6040516102a891906134eb565b60405180910390f35b3480156102bd57600080fd5b506102d860048036038101906102d391906135bd565b6108ed565b005b3480156102e657600080fd5b5061030160048036038101906102fc91906135bd565b61090e565b005b34801561030f57600080fd5b5061032a600480360381019061032591906135fd565b610991565b60405161033d979695949392919061364c565b60405180910390f35b34801561035257600080fd5b5061036d600480360381019061036891906136bb565b610a1a565b005b34801561037b57600080fd5b50610384610b63565b60405161039191906136fb565b60405180910390f35b3480156103a657600080fd5b506103c160048036038101906103bc9190613532565b610b69565b005b3480156103cf57600080fd5b506103ea60048036038101906103e5919061336b565b610c19565b6040516103f791906136fb565b60405180910390f35b34801561040c57600080fd5b50610415610d60565b005b34801561042357600080fd5b5061042c610d74565b60405161043991906134eb565b60405180910390f35b34801561044e57600080fd5b50610457610d98565b005b34801561046557600080fd5b50610480600480360381019061047b91906136bb565b610e03565b005b34801561048e57600080fd5b50610497610f4c565b6040516104a49190613716565b60405180910390f35b3480156104b957600080fd5b506104d460048036038101906104cf9190613731565b610f76565b005b3480156104e257600080fd5b506104fd60048036038101906104f891906135bd565b611049565b60405161050a919061331a565b60405180910390f35b61052d6004803603810190610528919061375e565b6110b4565b005b34801561053b57600080fd5b50610556600480360381019061055191906137c5565b6114a3565b005b34801561056457600080fd5b5061056d611c06565b60405161057a91906134eb565b60405180910390f35b34801561058f57600080fd5b506105aa60048036038101906105a5919061394d565b611c0d565b005b3480156105b857600080fd5b506105c1611e4d565b6040516105ce9190613a37565b60405180910390f35b3480156105e357600080fd5b506105ec611e73565b6040516105f991906136fb565b60405180910390f35b34801561060e57600080fd5b5061062960048036038101906106249190613a52565b611e79565b005b34801561063757600080fd5b50610652600480360381019061064d91906135bd565b611f32565b005b34801561066057600080fd5b50610669611f53565b60405161067691906134eb565b60405180910390f35b61069960048036038101906106949190613ad9565b611f77565b005b3480156106a757600080fd5b506106c260048036038101906106bd9190613731565b612032565b005b60007f7965db0b000000000000000000000000000000000000000000000000000000007bffffffffffffffffffffffffffffffffffffffffffffffffffffffff1916827bffffffffffffffffffffffffffffffffffffffffffffffffffffffff191614806107375750610736826120b5565b5b9050919050565b600960205280600052604060002060009150905080600001805461076190613b48565b80601f016020809104026020016040519081016040528092919081815260200182805461078d90613b48565b80156107da5780601f106107af576101008083540402835291602001916107da565b820191906000526020600020905b8154815290600101906020018083116107bd57829003601f168201915b5050505050908060010180546107ef90613b48565b80601f016020809104026020016040519081016040528092919081815260200182805461081b90613b48565b80156108685780601f1061083d57610100808354040283529160200191610868565b820191906000526020600020905b81548152906001019060200180831161084b57829003601f168201915b5050505050908060020154908060030154908060040154908060050160009054906101000a900460ff16908060060154908060070154908060080154905089565b7fab4f864e5201b0fde9b5ee3e4cf96384802b0ffdfcf7f9de4699ce21a30afc4f81565b600060076000838152602001908152602001600020600101549050919050565b6108f6826108cd565b6108ff8161211f565b6109098383612133565b505050565b610916612214565b73ffffffffffffffffffffffffffffffffffffffff168173ffffffffffffffffffffffffffffffffffffffff1614610983576040517f08c379a000000000000000000000000000000000000000000000000000000000815260040161097a90613beb565b60405180910390fd5b61098d828261221c565b5050565b6008602052816000526040600020602052806000526040600020600091509150508060000160009054906101000a900473ffffffffffffffffffffffffffffffffffffffff16908060010154908060020154908060030154908060040154908060050160009054906101000a900460ff16908060050160019054906101000a900460ff16905087565b816005600082815260200190815260200160002060009054906101000a900473ffffffffffffffffffffffffffffffffffffffff1673ffffffffffffffffffffffffffffffffffffffff163373ffffffffffffffffffffffffffffffffffffffff1614610abc576040517f08c379a0000000000000000000000000000000000000000000000000000000008152600401610ab390613c7d565b60405180910390fd5b6005600082815260200190815260200160002060006101000a81549073ffffffffffffffffffffffffffffffffffffffff0219169055807f7cc135e0cebb02c3480ae5d74d377283180a2601f8f644edf7987b009316c63a60405160405180910390a2827f4b031b5f8729563cda98e5f016f7cb0d8e6b32db75591d31e59c13df29adea4483604051610b4f91906136fb565b60405180910390a281600f81905550505050565b600a5481565b610b937fa49807205ce4d355092ef5a8a18f56e8913cf4a201fbe287825b095693c2177533611049565b80610bd05750610ba1610f4c565b73ffffffffffffffffffffffffffffffffffffffff163373ffffffffffffffffffffffffffffffffffffffff16145b610c0f576040517f08c379a0000000000000000000000000000000000000000000000000000000008152600401610c0690613ce9565b60405180910390fd5b80600d8190555050565b600080610c30600d5430634357855e60e01b6122fe565b90506000600b610c3f8561232f565b604051602001610c50929190613ddd565b6040516020818303038152906040529050610cab6040518060400160405280600381526020017f676574000000000000000000000000000000000000000000000000000000000081525082846123fd9092919063ffffffff16565b610d046040518060400160405280600481526020017f706174680000000000000000000000000000000000000000000000000000000081525060405180602001604052806000815250846123fd9092919063ffffffff16565b6000610d1283600e54612430565b90506000600f5490507f1ca8663227a7fe9919713a01d344afbb434e234f35a3e540a6ad924f88771f388282604051610d4c929190613e01565b60405180910390a180945050505050919050565b610d68612467565b610d7260006124e5565b565b7fa49807205ce4d355092ef5a8a18f56e8913cf4a201fbe287825b095693c2177581565b610dc27fab4f864e5201b0fde9b5ee3e4cf96384802b0ffdfcf7f9de4699ce21a30afc4f33611049565b610e01576040517f08c379a0000000000000000000000000000000000000000000000000000000008152600401610df890613e76565b60405180910390fd5b565b816005600082815260200190815260200160002060009054906101000a900473ffffffffffffffffffffffffffffffffffffffff1673ffffffffffffffffffffffffffffffffffffffff163373ffffffffffffffffffffffffffffffffffffffff1614610ea5576040517f08c379a0000000000000000000000000000000000000000000000000000000008152600401610e9c90613c7d565b60405180910390fd5b6005600082815260200190815260200160002060006101000a81549073ffffffffffffffffffffffffffffffffffffffff0219169055807f7cc135e0cebb02c3480ae5d74d377283180a2601f8f644edf7987b009316c63a60405160405180910390a2827f4b031b5f8729563cda98e5f016f7cb0d8e6b32db75591d31e59c13df29adea4483604051610f3891906136fb565b60405180910390a281600f81905550505050565b6000600660009054906101000a900473ffffffffffffffffffffffffffffffffffffffff16905090565b610fa07fa49807205ce4d355092ef5a8a18f56e8913cf4a201fbe287825b095693c2177533611049565b80610fdd5750610fae610f4c565b73ffffffffffffffffffffffffffffffffffffffff163373ffffffffffffffffffffffffffffffffffffffff16145b61101c576040517f08c379a000000000000000000000000000000000000000000000000000000000815260040161101390613ce9565b60405180910390fd5b6110467fab4f864e5201b0fde9b5ee3e4cf96384802b0ffdfcf7f9de4699ce21a30afc4f826108ed565b50565b60006007600084815260200190815260200160002060000160008373ffffffffffffffffffffffffffffffffffffffff1673ffffffffffffffffffffffffffffffffffffffff16815260200190815260200160002060009054906101000a900460ff16905092915050565b600a5484106110f8576040517f08c379a00000000000000000000000000000000000000000000000000000000081526004016110ef90613ee2565b60405180910390fd5b6000811161113b576040517f08c379a000000000000000000000000000000000000000000000000000000000815260040161113290613f74565b60405180910390fd5b6000601060009054906101000a900473ffffffffffffffffffffffffffffffffffffffff1673ffffffffffffffffffffffffffffffffffffffff166323b872dd3330620f42408661118c9190613fc3565b6040518463ffffffff1660e01b81526004016111aa93929190614005565b6020604051808303816000875af11580156111c9573d6000803e3d6000fd5b505050506040513d601f19601f820116820180604052508101906111ed9190614068565b90508061122f576040517f08c379a0000000000000000000000000000000000000000000000000000000008152600401611226906140e1565b60405180910390fd5b60006009600087815260200190815260200160002090508060050160009054906101000a900460ff1615611298576040517f08c379a000000000000000000000000000000000000000000000000000000000815260040161128f9061414d565b60405180910390fd5b60006014846112a7919061419c565b905060006005856112b8919061419c565b9050808360060160008282546112ce91906141cd565b925050819055508082866112e29190614201565b6112ec9190614201565b8360080160008282546112ff91906141cd565b925050819055506040518060e001604052803373ffffffffffffffffffffffffffffffffffffffff1681526020018981526020018284886113409190614201565b61134a9190614201565b815260200188815260200187815260200160001515815260200160001515815250600860008a815260200190815260200160002060008560070154815260200190815260200160002060008201518160000160006101000a81548173ffffffffffffffffffffffffffffffffffffffff021916908373ffffffffffffffffffffffffffffffffffffffff1602179055506020820151816001015560408201518160020155606082015181600301556080820151816004015560a08201518160050160006101000a81548160ff02191690831515021790555060c08201518160050160016101000a81548160ff02191690831515021790555090505082600701600081548092919061145a90614235565b9190505550877fbb79d51f1411ca03952954c866d22ae3532b227b2cf62e257cf182397a647173888860405161149192919061427d565b60405180910390a25050505050505050565b6114cd7f950b8f2d7415defaee398bb4898e8e094a64c725873b81952b7ab9f08d70efb333611049565b806114fe57506114fd7fa49807205ce4d355092ef5a8a18f56e8913cf4a201fbe287825b095693c2177533611049565b5b8061153b575061150c610f4c565b73ffffffffffffffffffffffffffffffffffffffff163373ffffffffffffffffffffffffffffffffffffffff16145b61157a576040517f08c379a0000000000000000000000000000000000000000000000000000000008152600401611571906142f2565b60405180910390fd5b600a5483106115be576040517f08c379a00000000000000000000000000000000000000000000000000000000081526004016115b590613ee2565b60405180910390fd5b600060096000858152602001908152602001600020905082816003018190555081816004018190555060018160050160006101000a81548160ff02191690831515021790555060008160070154036116165750611c01565b6000805b826007015481101561168c57600060086000888152602001908152602001600020600083815260200190815260200160002090508581600301541480156116645750848160040154145b1561167857828061167490614235565b9350505b50808061168490614235565b91505061161a565b5060008167ffffffffffffffff8111156116a9576116a8613822565b5b6040519080825280602002602001820160405280156116e257816020015b6116cf613188565b8152602001906001900390816116c75790505b50905060008284600701546116f79190614201565b67ffffffffffffffff8111156117105761170f613822565b5b60405190808252806020026020018201604052801561174957816020015b611736613188565b81526020019060019003908161172e5790505b5090506000806000805b87600701548110156119e0576000600860008d8152602001908152602001600020600083815260200190815260200160002090508a816003015414801561179d5750898160040154145b156118c25760018160050160006101000a81548160ff021916908315150217905550806040518060e00160405290816000820160009054906101000a900473ffffffffffffffffffffffffffffffffffffffff1673ffffffffffffffffffffffffffffffffffffffff1673ffffffffffffffffffffffffffffffffffffffff168152602001600182015481526020016002820154815260200160038201548152602001600482015481526020016005820160009054906101000a900460ff161515151581526020016005820160019054906101000a900460ff16151515158152505087868151811061189257611891614312565b5b60200260200101819052508060020154836118ad91906141cd565b925084806118ba90614235565b9550506119af565b806040518060e00160405290816000820160009054906101000a900473ffffffffffffffffffffffffffffffffffffffff1673ffffffffffffffffffffffffffffffffffffffff1673ffffffffffffffffffffffffffffffffffffffff168152602001600182015481526020016002820154815260200160038201548152602001600482015481526020016005820160009054906101000a900460ff161515151581526020016005820160019054906101000a900460ff16151515158152505086858151811061199557611994614312565b5b602002602001018190525083806119ab90614235565b9450505b60018160050160016101000a81548160ff0219169083151502179055505080806119d890614235565b915050611753565b5060008303611a09578660080154876006016000828254611a0191906141cd565b925050819055505b60005b83811015611b1e57601060009054906101000a900473ffffffffffffffffffffffffffffffffffffffff1673ffffffffffffffffffffffffffffffffffffffff1663a9059cbb878381518110611a6557611a64614312565b5b60200260200101516000015184898581518110611a8557611a84614312565b5b6020026020010151604001518c60080154611aa09190613fc3565b611aaa919061419c565b6040518363ffffffff1660e01b8152600401611ac7929190614341565b6020604051808303816000875af1158015611ae6573d6000803e3d6000fd5b505050506040513d601f19601f82011682018060405250810190611b0a9190614068565b508080611b1690614235565b915050611a0c565b506000611b2a83610c19565b905060018114611bf857601060009054906101000a900473ffffffffffffffffffffffffffffffffffffffff1673ffffffffffffffffffffffffffffffffffffffff1663a9059cbb868381518110611b8557611b84614312565b5b6020026020010151600001518a600601546040518363ffffffff1660e01b8152600401611bb3929190614341565b6020604051808303816000875af1158015611bd2573d6000803e3d6000fd5b505050506040513d601f19601f82011682018060405250810190611bf69190614068565b505b50505050505050505b505050565b6000801b81565b611c377f950b8f2d7415defaee398bb4898e8e094a64c725873b81952b7ab9f08d70efb333611049565b80611c685750611c677fa49807205ce4d355092ef5a8a18f56e8913cf4a201fbe287825b095693c2177533611049565b5b80611ca55750611c76610f4c565b73ffffffffffffffffffffffffffffffffffffffff163373ffffffffffffffffffffffffffffffffffffffff16145b611ce4576040517f08c379a0000000000000000000000000000000000000000000000000000000008152600401611cdb906142f2565b60405180910390fd5b60405180610120016040528084815260200183815260200182815260200160008152602001600081526020016000151581526020016000815260200160008152602001600081525060096000600a5481526020019081526020016000206000820151816000019081611d5691906144f7565b506020820151816001019081611d6c91906144f7565b5060408201518160020155606082015181600301556080820151816004015560a08201518160050160006101000a81548160ff02191690831515021790555060c0820151816006015560e082015181600701556101008201518160080155905050600a6000815480929190611de090614235565b919050555081604051611df391906145c9565b604051809103902083604051611e0991906145c9565b60405180910390207fd35ca1314b646b63fb0c1f06dbe2338333530431983c8779c9692f9ff4ad249f83604051611e4091906136fb565b60405180910390a3505050565b601060009054906101000a900473ffffffffffffffffffffffffffffffffffffffff1681565b600f5481565b611ea37fa49807205ce4d355092ef5a8a18f56e8913cf4a201fbe287825b095693c2177533611049565b80611ee05750611eb1610f4c565b73ffffffffffffffffffffffffffffffffffffffff163373ffffffffffffffffffffffffffffffffffffffff16145b611f1f576040517f08c379a0000000000000000000000000000000000000000000000000000000008152600401611f1690613ce9565b60405180910390fd5b80600b9081611f2e91906144f7565b5050565b611f3b826108cd565b611f448161211f565b611f4e838361221c565b505050565b7f950b8f2d7415defaee398bb4898e8e094a64c725873b81952b7ab9f08d70efb381565b611f7f612467565b601060009054906101000a900473ffffffffffffffffffffffffffffffffffffffff1673ffffffffffffffffffffffffffffffffffffffff1663a9059cbb82620f424085611fcd9190613fc3565b6040518363ffffffff1660e01b8152600401611fea929190614601565b6020604051808303816000875af1158015612009573d6000803e3d6000fd5b505050506040513d601f19601f8201168201806040525081019061202d9190614068565b505050565b61203a612467565b600073ffffffffffffffffffffffffffffffffffffffff168173ffffffffffffffffffffffffffffffffffffffff16036120a9576040517f08c379a00000000000000000000000000000000000000000000000000000000081526004016120a09061469c565b60405180910390fd5b6120b2816124e5565b50565b60007f01ffc9a7000000000000000000000000000000000000000000000000000000007bffffffffffffffffffffffffffffffffffffffffffffffffffffffff1916827bffffffffffffffffffffffffffffffffffffffffffffffffffffffff1916149050919050565b6121308161212b612214565b6125ab565b50565b61213d8282611049565b6122105760016007600084815260200190815260200160002060000160008373ffffffffffffffffffffffffffffffffffffffff1673ffffffffffffffffffffffffffffffffffffffff16815260200190815260200160002060006101000a81548160ff0219169083151502179055506121b5612214565b73ffffffffffffffffffffffffffffffffffffffff168173ffffffffffffffffffffffffffffffffffffffff16837f2f8788117e7eff1d82e926ec794901d17c78024a50270940304540a733656f0d60405160405180910390a45b5050565b600033905090565b6122268282611049565b156122fa5760006007600084815260200190815260200160002060000160008373ffffffffffffffffffffffffffffffffffffffff1673ffffffffffffffffffffffffffffffffffffffff16815260200190815260200160002060006101000a81548160ff02191690831515021790555061229f612214565b73ffffffffffffffffffffffffffffffffffffffff168173ffffffffffffffffffffffffffffffffffffffff16837ff6391f5c32d9c69d2a47ea670b442974b53935d1edc7fd64eb21e047a839171b60405160405180910390a45b5050565b6123066131df565b61230e6131df565b61232585858584612630909392919063ffffffff16565b9150509392505050565b60606000600161233e846126e0565b01905060008167ffffffffffffffff81111561235d5761235c613822565b5b6040519080825280601f01601f19166020018201604052801561238f5781602001600182028036833780820191505090505b509050600082602001820190505b6001156123f2578080600190039150507f3031323334353637383961626364656600000000000000000000000000000000600a86061a8153600a85816123e6576123e561416d565b5b0494506000850361239d575b819350505050919050565b61241482846080015161283390919063ffffffff16565b61242b81846080015161283390919063ffffffff16565b505050565b600061245f600360009054906101000a900473ffffffffffffffffffffffffffffffffffffffff168484612858565b905092915050565b61246f612214565b73ffffffffffffffffffffffffffffffffffffffff1661248d610f4c565b73ffffffffffffffffffffffffffffffffffffffff16146124e3576040517f08c379a00000000000000000000000000000000000000000000000000000000081526004016124da90614708565b60405180910390fd5b565b6000600660009054906101000a900473ffffffffffffffffffffffffffffffffffffffff16905081600660006101000a81548173ffffffffffffffffffffffffffffffffffffffff021916908373ffffffffffffffffffffffffffffffffffffffff1602179055508173ffffffffffffffffffffffffffffffffffffffff168173ffffffffffffffffffffffffffffffffffffffff167f8be0079c531659141344cd1fd0a4f28419497f9722a3daafe3b4186f6b6457e060405160405180910390a35050565b6125b58282611049565b61262c576125c281612924565b6125d08360001c6020612951565b6040516020016125e19291906147c0565b6040516020818303038152906040526040517f08c379a000000000000000000000000000000000000000000000000000000000815260040161262391906147fa565b60405180910390fd5b5050565b6126386131df565b6126488560800151610100612b8d565b508385600001818152505082856020019073ffffffffffffffffffffffffffffffffffffffff16908173ffffffffffffffffffffffffffffffffffffffff16815250508185604001907bffffffffffffffffffffffffffffffffffffffffffffffffffffffff191690817bffffffffffffffffffffffffffffffffffffffffffffffffffffffff191681525050849050949350505050565b600080600090507a184f03e93ff9f4daa797ed6e38ed64bf6a1f010000000000000000831061273e577a184f03e93ff9f4daa797ed6e38ed64bf6a1f01000000000000000083816127345761273361416d565b5b0492506040810190505b6d04ee2d6d415b85acef8100000000831061277b576d04ee2d6d415b85acef810000000083816127715761277061416d565b5b0492506020810190505b662386f26fc1000083106127aa57662386f26fc1000083816127a05761279f61416d565b5b0492506010810190505b6305f5e10083106127d3576305f5e10083816127c9576127c861416d565b5b0492506008810190505b61271083106127f85761271083816127ee576127ed61416d565b5b0492506004810190505b6064831061281b57606483816128115761281061416d565b5b0492506002810190505b600a831061282a576001810190505b80915050919050565b6128408260038351612bf7565b6128538183612d7c90919063ffffffff16565b505050565b600080600454905060018161286d91906141cd565b6004819055506000634042994660e01b60008087600001513089604001518760018c60800151600001516040516024016128ae989796959493929190614880565b604051602081830303815290604052907bffffffffffffffffffffffffffffffffffffffffffffffffffffffff19166020820180517bffffffffffffffffffffffffffffffffffffffffffffffffffffffff8381831617835250505050905061291986838684612d9e565b925050509392505050565b606061294a8273ffffffffffffffffffffffffffffffffffffffff16601460ff16612951565b9050919050565b6060600060028360026129649190613fc3565b61296e91906141cd565b67ffffffffffffffff81111561298757612986613822565b5b6040519080825280601f01601f1916602001820160405280156129b95781602001600182028036833780820191505090505b5090507f3000000000000000000000000000000000000000000000000000000000000000816000815181106129f1576129f0614312565b5b60200101907effffffffffffffffffffffffffffffffffffffffffffffffffffffffffffff1916908160001a9053507f780000000000000000000000000000000000000000000000000000000000000081600181518110612a5557612a54614312565b5b60200101907effffffffffffffffffffffffffffffffffffffffffffffffffffffffffffff1916908160001a90535060006001846002612a959190613fc3565b612a9f91906141cd565b90505b6001811115612b3f577f3031323334353637383961626364656600000000000000000000000000000000600f861660108110612ae157612ae0614312565b5b1a60f81b828281518110612af857612af7614312565b5b60200101907effffffffffffffffffffffffffffffffffffffffffffffffffffffffffffff1916908160001a905350600485901c945080612b3890614905565b9050612aa2565b5060008414612b83576040517f08c379a0000000000000000000000000000000000000000000000000000000008152600401612b7a9061497a565b60405180910390fd5b8091505092915050565b612b9561324c565b6000602083612ba4919061499a565b14612bd057602082612bb6919061499a565b6020612bc29190614201565b82612bcd91906141cd565b91505b81836020018181525050604051808452600081528281016020016040525082905092915050565b60178167ffffffffffffffff1611612c2e57612c288160058460ff16901b60ff161784612f3390919063ffffffff16565b50612d77565b60ff8167ffffffffffffffff1611612c8457612c5d601860058460ff16901b1784612f3390919063ffffffff16565b50612c7e8167ffffffffffffffff16600185612f539092919063ffffffff16565b50612d76565b61ffff8167ffffffffffffffff1611612cdb57612cb4601960058460ff16901b1784612f3390919063ffffffff16565b50612cd58167ffffffffffffffff16600285612f539092919063ffffffff16565b50612d75565b63ffffffff8167ffffffffffffffff1611612d3457612d0d601a60058460ff16901b1784612f3390919063ffffffff16565b50612d2e8167ffffffffffffffff16600485612f539092919063ffffffff16565b50612d74565b612d51601b60058460ff16901b1784612f3390919063ffffffff16565b50612d728167ffffffffffffffff16600885612f539092919063ffffffff16565b505b5b5b5b505050565b612d8461324c565b612d9683846000015151848551612f75565b905092915050565b60003084604051602001612db3929190614a46565b604051602081830303815290604052805190602001209050846005600083815260200190815260200160002060006101000a81548173ffffffffffffffffffffffffffffffffffffffff021916908373ffffffffffffffffffffffffffffffffffffffff160217905550807fb5e6e01e79f91267dc17b4e6314d5d4d03593d2ceee0fbb452b750bd70ea5af960405160405180910390a2600260009054906101000a900473ffffffffffffffffffffffffffffffffffffffff1673ffffffffffffffffffffffffffffffffffffffff16634000aea08685856040518463ffffffff1660e01b8152600401612ea993929190614a72565b6020604051808303816000875af1158015612ec8573d6000803e3d6000fd5b505050506040513d601f19601f82011682018060405250810190612eec9190614068565b612f2b576040517f08c379a0000000000000000000000000000000000000000000000000000000008152600401612f2290614b22565b60405180910390fd5b949350505050565b612f3b61324c565b612f4b8384600001515184613064565b905092915050565b612f5b61324c565b612f6c8485600001515185856130ba565b90509392505050565b612f7d61324c565b8251821115612f8b57600080fd5b84602001518285612f9c91906141cd565b1115612fd157612fd0856002612fc188602001518887612fbc91906141cd565b613148565b612fcb9190613fc3565b613164565b5b600080865180518760208301019350808887011115612ff05787860182525b60208701925050505b60208410613037578051825260208261301291906141cd565b915060208161302191906141cd565b90506020846130309190614201565b9350612ff9565b60006001856020036101000a03905080198251168184511681811785525050508692505050949350505050565b61306c61324c565b8360200151831061309257613091846002866020015161308c9190613fc3565b613164565b5b835180516020858301018481538186036130ad576001820183525b5050508390509392505050565b6130c261324c565b846020015184836130d391906141cd565b11156130fb576130fa85600286856130eb91906141cd565b6130f59190613fc3565b613164565b5b600060018361010061310d9190614c75565b6131179190614201565b9050855183868201018583198251161781528151858801111561313a5784870182525b505085915050949350505050565b60008183111561315a5782905061315e565b8190505b92915050565b6000826000015190506131778383612b8d565b506131828382612d7c565b50505050565b6040518060e00160405280600073ffffffffffffffffffffffffffffffffffffffff168152602001600081526020016000815260200160008152602001600081526020016000151581526020016000151581525090565b6040518060a0016040528060008019168152602001600073ffffffffffffffffffffffffffffffffffffffff16815260200160007bffffffffffffffffffffffffffffffffffffffffffffffffffffffff191681526020016000815260200161324661324c565b81525090565b604051806040016040528060608152602001600081525090565b6000604051905090565b600080fd5b600080fd5b60007fffffffff0000000000000000000000000000000000000000000000000000000082169050919050565b6132af8161327a565b81146132ba57600080fd5b50565b6000813590506132cc816132a6565b92915050565b6000602082840312156132e8576132e7613270565b5b60006132f6848285016132bd565b91505092915050565b60008115159050919050565b613314816132ff565b82525050565b600060208201905061332f600083018461330b565b92915050565b6000819050919050565b61334881613335565b811461335357600080fd5b50565b6000813590506133658161333f565b92915050565b60006020828403121561338157613380613270565b5b600061338f84828501613356565b91505092915050565b600081519050919050565b600082825260208201905092915050565b60005b838110156133d25780820151818401526020810190506133b7565b60008484015250505050565b6000601f19601f8301169050919050565b60006133fa82613398565b61340481856133a3565b93506134148185602086016133b4565b61341d816133de565b840191505092915050565b61343181613335565b82525050565b6000610120820190508181036000830152613452818c6133ef565b90508181036020830152613466818b6133ef565b9050613475604083018a613428565b6134826060830189613428565b61348f6080830188613428565b61349c60a083018761330b565b6134a960c0830186613428565b6134b660e0830185613428565b6134c4610100830184613428565b9a9950505050505050505050565b6000819050919050565b6134e5816134d2565b82525050565b600060208201905061350060008301846134dc565b92915050565b61350f816134d2565b811461351a57600080fd5b50565b60008135905061352c81613506565b92915050565b60006020828403121561354857613547613270565b5b60006135568482850161351d565b91505092915050565b600073ffffffffffffffffffffffffffffffffffffffff82169050919050565b600061358a8261355f565b9050919050565b61359a8161357f565b81146135a557600080fd5b50565b6000813590506135b781613591565b92915050565b600080604083850312156135d4576135d3613270565b5b60006135e28582860161351d565b92505060206135f3858286016135a8565b9150509250929050565b6000806040838503121561361457613613613270565b5b600061362285828601613356565b925050602061363385828601613356565b9150509250929050565b6136468161357f565b82525050565b600060e082019050613661600083018a61363d565b61366e6020830189613428565b61367b6040830188613428565b6136886060830187613428565b6136956080830186613428565b6136a260a083018561330b565b6136af60c083018461330b565b98975050505050505050565b600080604083850312156136d2576136d1613270565b5b60006136e08582860161351d565b92505060206136f185828601613356565b9150509250929050565b60006020820190506137106000830184613428565b92915050565b600060208201905061372b600083018461363d565b92915050565b60006020828403121561374757613746613270565b5b6000613755848285016135a8565b91505092915050565b6000806000806080858703121561377857613777613270565b5b600061378687828801613356565b945050602061379787828801613356565b93505060406137a887828801613356565b92505060606137b987828801613356565b91505092959194509250565b6000806000606084860312156137de576137dd613270565b5b60006137ec86828701613356565b93505060206137fd86828701613356565b925050604061380e86828701613356565b9150509250925092565b600080fd5b600080fd5b7f4e487b7100000000000000000000000000000000000000000000000000000000600052604160045260246000fd5b61385a826133de565b810181811067ffffffffffffffff8211171561387957613878613822565b5b80604052505050565b600061388c613266565b90506138988282613851565b919050565b600067ffffffffffffffff8211156138b8576138b7613822565b5b6138c1826133de565b9050602081019050919050565b82818337600083830152505050565b60006138f06138eb8461389d565b613882565b90508281526020810184848401111561390c5761390b61381d565b5b6139178482856138ce565b509392505050565b600082601f83011261393457613933613818565b5b81356139448482602086016138dd565b91505092915050565b60008060006060848603121561396657613965613270565b5b600084013567ffffffffffffffff81111561398457613983613275565b5b6139908682870161391f565b935050602084013567ffffffffffffffff8111156139b1576139b0613275565b5b6139bd8682870161391f565b92505060406139ce86828701613356565b9150509250925092565b6000819050919050565b60006139fd6139f86139f38461355f565b6139d8565b61355f565b9050919050565b6000613a0f826139e2565b9050919050565b6000613a2182613a04565b9050919050565b613a3181613a16565b82525050565b6000602082019050613a4c6000830184613a28565b92915050565b600060208284031215613a6857613a67613270565b5b600082013567ffffffffffffffff811115613a8657613a85613275565b5b613a928482850161391f565b91505092915050565b6000613aa68261355f565b9050919050565b613ab681613a9b565b8114613ac157600080fd5b50565b600081359050613ad381613aad565b92915050565b60008060408385031215613af057613aef613270565b5b6000613afe85828601613356565b9250506020613b0f85828601613ac4565b9150509250929050565b7f4e487b7100000000000000000000000000000000000000000000000000000000600052602260045260246000fd5b60006002820490506001821680613b6057607f821691505b602082108103613b7357613b72613b19565b5b50919050565b7f416363657373436f6e74726f6c3a2063616e206f6e6c792072656e6f756e636560008201527f20726f6c657320666f722073656c660000000000000000000000000000000000602082015250565b6000613bd5602f836133a3565b9150613be082613b79565b604082019050919050565b60006020820190508181036000830152613c0481613bc8565b9050919050565b7f536f75726365206d75737420626520746865206f7261636c65206f662074686560008201527f2072657175657374000000000000000000000000000000000000000000000000602082015250565b6000613c676028836133a3565b9150613c7282613c0b565b604082019050919050565b60006020820190508181036000830152613c9681613c5a565b9050919050565b7f49535f4e4f545f41444d494e0000000000000000000000000000000000000000600082015250565b6000613cd3600c836133a3565b9150613cde82613c9d565b602082019050919050565b60006020820190508181036000830152613d0281613cc6565b9050919050565b600081905092915050565b60008190508160005260206000209050919050565b60008154613d3681613b48565b613d408186613d09565b94506001821660008114613d5b5760018114613d7057613da3565b60ff1983168652811515820286019350613da3565b613d7985613d14565b60005b83811015613d9b57815481890152600182019150602081019050613d7c565b838801955050505b50505092915050565b6000613db782613398565b613dc18185613d09565b9350613dd18185602086016133b4565b80840191505092915050565b6000613de98285613d29565b9150613df58284613dac565b91508190509392505050565b6000604082019050613e1660008301856134dc565b613e236020830184613428565b9392505050565b7f49535f4e4f545f52454c41594552000000000000000000000000000000000000600082015250565b6000613e60600e836133a3565b9150613e6b82613e2a565b602082019050919050565b60006020820190508181036000830152613e8f81613e53565b9050919050565b7f496e76616c69642067616d652049440000000000000000000000000000000000600082015250565b6000613ecc600f836133a3565b9150613ed782613e96565b602082019050919050565b60006020820190508181036000830152613efb81613ebf565b9050919050565b7f42657420616d6f756e74206d7573742062652067726561746572207468616e2060008201527f7a65726f00000000000000000000000000000000000000000000000000000000602082015250565b6000613f5e6024836133a3565b9150613f6982613f02565b604082019050919050565b60006020820190508181036000830152613f8d81613f51565b9050919050565b7f4e487b7100000000000000000000000000000000000000000000000000000000600052601160045260246000fd5b6000613fce82613335565b9150613fd983613335565b9250828202613fe781613335565b91508282048414831517613ffe57613ffd613f94565b5b5092915050565b600060608201905061401a600083018661363d565b614027602083018561363d565b6140346040830184613428565b949350505050565b614045816132ff565b811461405057600080fd5b50565b6000815190506140628161403c565b92915050565b60006020828403121561407e5761407d613270565b5b600061408c84828501614053565b91505092915050565b7f5472616e73616374696f6e206661696c65640000000000000000000000000000600082015250565b60006140cb6012836133a3565b91506140d682614095565b602082019050919050565b600060208201905081810360008301526140fa816140be565b9050919050565b7f47616d652068617320616c726561647920636f6d706c65746564000000000000600082015250565b6000614137601a836133a3565b915061414282614101565b602082019050919050565b600060208201905081810360008301526141668161412a565b9050919050565b7f4e487b7100000000000000000000000000000000000000000000000000000000600052601260045260246000fd5b60006141a782613335565b91506141b283613335565b9250826141c2576141c161416d565b5b828204905092915050565b60006141d882613335565b91506141e383613335565b92508282019050808211156141fb576141fa613f94565b5b92915050565b600061420c82613335565b915061421783613335565b925082820390508181111561422f5761422e613f94565b5b92915050565b600061424082613335565b91507fffffffffffffffffffffffffffffffffffffffffffffffffffffffffffffffff820361427257614271613f94565b5b600182019050919050565b60006040820190506142926000830185613428565b61429f6020830184613428565b9392505050565b7f49535f4e4f545f4d4f445f4f525f41444d494e00000000000000000000000000600082015250565b60006142dc6013836133a3565b91506142e7826142a6565b602082019050919050565b6000602082019050818103600083015261430b816142cf565b9050919050565b7f4e487b7100000000000000000000000000000000000000000000000000000000600052603260045260246000fd5b6000604082019050614356600083018561363d565b6143636020830184613428565b9392505050565b60006020601f8301049050919050565b600082821b905092915050565b6000600883026143b77fffffffffffffffffffffffffffffffffffffffffffffffffffffffffffffffff8261437a565b6143c1868361437a565b95508019841693508086168417925050509392505050565b60006143f46143ef6143ea84613335565b6139d8565b613335565b9050919050565b6000819050919050565b61440e836143d9565b61442261441a826143fb565b848454614387565b825550505050565b600090565b61443761442a565b614442818484614405565b505050565b5b818110156144665761445b60008261442f565b600181019050614448565b5050565b601f8211156144ab5761447c81613d14565b6144858461436a565b81016020851015614494578190505b6144a86144a08561436a565b830182614447565b50505b505050565b600082821c905092915050565b60006144ce600019846008026144b0565b1980831691505092915050565b60006144e783836144bd565b9150826002028217905092915050565b61450082613398565b67ffffffffffffffff81111561451957614518613822565b5b6145238254613b48565b61452e82828561446a565b600060209050601f831160018114614561576000841561454f578287015190505b61455985826144db565b8655506145c1565b601f19841661456f86613d14565b60005b8281101561459757848901518255600182019150602085019450602081019050614572565b868310156145b457848901516145b0601f8916826144bd565b8355505b6001600288020188555050505b505050505050565b60006145d58284613dac565b915081905092915050565b60006145eb82613a04565b9050919050565b6145fb816145e0565b82525050565b600060408201905061461660008301856145f2565b6146236020830184613428565b9392505050565b7f4f776e61626c653a206e6577206f776e657220697320746865207a65726f206160008201527f6464726573730000000000000000000000000000000000000000000000000000602082015250565b60006146866026836133a3565b91506146918261462a565b604082019050919050565b600060208201905081810360008301526146b581614679565b9050919050565b7f4f776e61626c653a2063616c6c6572206973206e6f7420746865206f776e6572600082015250565b60006146f26020836133a3565b91506146fd826146bc565b602082019050919050565b60006020820190508181036000830152614721816146e5565b9050919050565b7f416363657373436f6e74726f6c3a206163636f756e7420000000000000000000600082015250565b600061475e601783613d09565b915061476982614728565b601782019050919050565b7f206973206d697373696e6720726f6c6520000000000000000000000000000000600082015250565b60006147aa601183613d09565b91506147b582614774565b601182019050919050565b60006147cb82614751565b91506147d78285613dac565b91506147e28261479d565b91506147ee8284613dac565b91508190509392505050565b6000602082019050818103600083015261481481846133ef565b905092915050565b6148258161327a565b82525050565b600081519050919050565b600082825260208201905092915050565b60006148528261482b565b61485c8185614836565b935061486c8185602086016133b4565b614875816133de565b840191505092915050565b600061010082019050614896600083018b61363d565b6148a3602083018a613428565b6148b060408301896134dc565b6148bd606083018861363d565b6148ca608083018761481c565b6148d760a0830186613428565b6148e460c0830185613428565b81810360e08301526148f68184614847565b90509998505050505050505050565b600061491082613335565b91506000820361492357614922613f94565b5b600182039050919050565b7f537472696e67733a20686578206c656e67746820696e73756666696369656e74600082015250565b60006149646020836133a3565b915061496f8261492e565b602082019050919050565b6000602082019050818103600083015261499381614957565b9050919050565b60006149a582613335565b91506149b083613335565b9250826149c0576149bf61416d565b5b828206905092915050565b60006149d682613a04565b9050919050565b60008160601b9050919050565b60006149f5826149dd565b9050919050565b6000614a07826149ea565b9050919050565b614a1f614a1a826149cb565b6149fc565b82525050565b6000819050919050565b614a40614a3b82613335565b614a25565b82525050565b6000614a528285614a0e565b601482019150614a628284614a2f565b6020820191508190509392505050565b6000606082019050614a87600083018661363d565b614a946020830185613428565b8181036040830152614aa68184614847565b9050949350505050565b7f756e61626c6520746f207472616e73666572416e6443616c6c20746f206f726160008201527f636c650000000000000000000000000000000000000000000000000000000000602082015250565b6000614b0c6023836133a3565b9150614b1782614ab0565b604082019050919050565b60006020820190508181036000830152614b3b81614aff565b9050919050565b60008160011c9050919050565b6000808291508390505b6001851115614b9957808604811115614b7557614b74613f94565b5b6001851615614b845780820291505b8081029050614b9285614b42565b9450614b59565b94509492505050565b600082614bb25760019050614c6e565b81614bc05760009050614c6e565b8160018114614bd65760028114614be057614c0f565b6001915050614c6e565b60ff841115614bf257614bf1613f94565b5b8360020a915084821115614c0957614c08613f94565b5b50614c6e565b5060208310610133831016604e8410600b8410161715614c445782820a905083811115614c3f57614c3e613f94565b5b614c6e565b614c518484846001614b4f565b92509050818404811115614c6857614c67613f94565b5b81810290505b9392505050565b6000614c8082613335565b9150614c8b83613335565b9250614cb87fffffffffffffffffffffffffffffffffffffffffffffffffffffffffffffffff8484614ba2565b90509291505056fea26469706673582212205423e2a29977d1e209521ff6cd4e06a36b2852a2856536de37d83da6280c720d64736f6c63430008110033",
  "linkReferences": {},
  "deployedLinkReferences": {}
}