{
  "_format": "hh-sol-artifact-1",
  "contractName": "Sports",
  "sourceName": "contracts/Sports.sol",
  "abi": [
    {
      "inputs": [
        {
          "internalType": "address",
          "name": "_chainlinkToken",
          "type": "address"
        },
        {
          "internalType": "address",
          "name": "_chainlinkOracle",
          "type": "address"
        },
        {
          "internalType": "bytes32",
          "name": "_jobIdNumbers",
          "type": "bytes32"
        },
        {
          "internalType": "bytes32",
          "name": "_jobIdStrings",
          "type": "bytes32"
        },
        {
          "internalType": "address",
          "name": "_relayer",
          "type": "address"
        },
        {
          "internalType": "address",
          "name": "_usdcContractAddress",
          "type": "address"
        },
        {
          "internalType": "address[]",
          "name": "_mods",
          "type": "address[]"
        },
        {
          "internalType": "address[]",
          "name": "_admins",
          "type": "address[]"
        },
        {
          "internalType": "string",
          "name": "_numbersAPI",
          "type": "string"
        },
        {
          "internalType": "string",
          "name": "_gamesAPI",
          "type": "string"
        }
      ],
      "stateMutability": "nonpayable",
      "type": "constructor"
    },
    {
      "anonymous": false,
      "inputs": [
        {
          "indexed": true,
          "internalType": "uint256",
          "name": "_gameId",
          "type": "uint256"
        },
        {
          "indexed": false,
          "internalType": "uint256",
          "name": "_homeScore",
          "type": "uint256"
        },
        {
          "indexed": false,
          "internalType": "uint256",
          "name": "_awayScore",
          "type": "uint256"
        }
      ],
      "name": "BetCreated",
      "type": "event"
    },
    {
      "anonymous": false,
      "inputs": [
        {
          "indexed": true,
          "internalType": "bytes32",
          "name": "id",
          "type": "bytes32"
        }
      ],
      "name": "ChainlinkCancelled",
      "type": "event"
    },
    {
      "anonymous": false,
      "inputs": [
        {
          "indexed": true,
          "internalType": "bytes32",
          "name": "id",
          "type": "bytes32"
        }
      ],
      "name": "ChainlinkFulfilled",
      "type": "event"
    },
    {
      "anonymous": false,
      "inputs": [
        {
          "indexed": true,
          "internalType": "bytes32",
          "name": "id",
          "type": "bytes32"
        }
      ],
      "name": "ChainlinkRequested",
      "type": "event"
    },
    {
      "anonymous": false,
      "inputs": [
        {
          "indexed": false,
          "internalType": "string",
          "name": "_gameTime",
          "type": "string"
        },
        {
          "indexed": true,
          "internalType": "string",
          "name": "_homeTeam",
          "type": "string"
        },
        {
          "indexed": true,
          "internalType": "string",
          "name": "_awayTeam",
          "type": "string"
        }
      ],
      "name": "GameCreated",
      "type": "event"
    },
    {
      "anonymous": false,
      "inputs": [
        {
          "indexed": true,
          "internalType": "address",
          "name": "previousOwner",
          "type": "address"
        },
        {
          "indexed": true,
          "internalType": "address",
          "name": "newOwner",
          "type": "address"
        }
      ],
      "name": "OwnershipTransferred",
      "type": "event"
    },
    {
      "anonymous": false,
      "inputs": [
        {
          "indexed": false,
          "internalType": "uint256",
          "name": "print",
          "type": "uint256"
        }
      ],
      "name": "Print",
      "type": "event"
    },
    {
      "anonymous": false,
      "inputs": [
        {
          "indexed": false,
          "internalType": "bytes32",
          "name": "requestId",
          "type": "bytes32"
        },
        {
          "indexed": false,
          "internalType": "uint256",
          "name": "random",
          "type": "uint256"
        }
      ],
      "name": "RequestFulfilled",
      "type": "event"
    },
    {
      "anonymous": false,
      "inputs": [
        {
          "indexed": true,
          "internalType": "bytes32",
          "name": "requestId",
          "type": "bytes32"
        },
        {
          "indexed": false,
          "internalType": "string",
          "name": "TeamA",
          "type": "string"
        },
        {
          "indexed": false,
          "internalType": "string",
          "name": "TeamB",
          "type": "string"
        },
        {
          "indexed": false,
          "internalType": "string",
          "name": "Date",
          "type": "string"
        }
      ],
      "name": "RequestMultipleFulfilled",
      "type": "event"
    },
    {
      "anonymous": false,
      "inputs": [
        {
          "indexed": true,
          "internalType": "bytes32",
          "name": "requestId",
          "type": "bytes32"
        },
        {
          "indexed": false,
          "internalType": "uint256",
          "name": "number",
          "type": "uint256"
        }
      ],
      "name": "RequestNumber",
      "type": "event"
    },
    {
      "anonymous": false,
      "inputs": [
        {
          "indexed": false,
          "internalType": "uint256",
          "name": "requestId",
          "type": "uint256"
        },
        {
          "indexed": false,
          "internalType": "uint32",
          "name": "numWords",
          "type": "uint32"
        }
      ],
      "name": "RequestSent",
      "type": "event"
    },
    {
      "anonymous": false,
      "inputs": [
        {
          "indexed": true,
          "internalType": "bytes32",
          "name": "role",
          "type": "bytes32"
        },
        {
          "indexed": true,
          "internalType": "bytes32",
          "name": "previousAdminRole",
          "type": "bytes32"
        },
        {
          "indexed": true,
          "internalType": "bytes32",
          "name": "newAdminRole",
          "type": "bytes32"
        }
      ],
      "name": "RoleAdminChanged",
      "type": "event"
    },
    {
      "anonymous": false,
      "inputs": [
        {
          "indexed": true,
          "internalType": "bytes32",
          "name": "role",
          "type": "bytes32"
        },
        {
          "indexed": true,
          "internalType": "address",
          "name": "account",
          "type": "address"
        },
        {
          "indexed": true,
          "internalType": "address",
          "name": "sender",
          "type": "address"
        }
      ],
      "name": "RoleGranted",
      "type": "event"
    },
    {
      "anonymous": false,
      "inputs": [
        {
          "indexed": true,
          "internalType": "bytes32",
          "name": "role",
          "type": "bytes32"
        },
        {
          "indexed": true,
          "internalType": "address",
          "name": "account",
          "type": "address"
        },
        {
          "indexed": true,
          "internalType": "address",
          "name": "sender",
          "type": "address"
        }
      ],
      "name": "RoleRevoked",
      "type": "event"
    },
    {
      "inputs": [],
      "name": "ADMIN_ROLE",
      "outputs": [
        {
          "internalType": "bytes32",
          "name": "",
          "type": "bytes32"
        }
      ],
      "stateMutability": "view",
      "type": "function"
    },
    {
      "inputs": [],
      "name": "DEFAULT_ADMIN_ROLE",
      "outputs": [
        {
          "internalType": "bytes32",
          "name": "",
          "type": "bytes32"
        }
      ],
      "stateMutability": "view",
      "type": "function"
    },
    {
      "inputs": [],
      "name": "MOD_ROLE",
      "outputs": [
        {
          "internalType": "bytes32",
          "name": "",
          "type": "bytes32"
        }
      ],
      "stateMutability": "view",
      "type": "function"
    },
    {
      "inputs": [],
      "name": "RELAYER",
      "outputs": [
        {
          "internalType": "bytes32",
          "name": "",
          "type": "bytes32"
        }
      ],
      "stateMutability": "view",
      "type": "function"
    },
    {
      "inputs": [],
      "name": "USDc",
      "outputs": [
        {
          "internalType": "contract USDC",
          "name": "",
          "type": "address"
        }
      ],
      "stateMutability": "view",
      "type": "function"
    },
    {
      "inputs": [
        {
          "internalType": "string",
          "name": "_homeTeam",
          "type": "string"
        },
        {
          "internalType": "string",
          "name": "_awayTeam",
          "type": "string"
        },
        {
          "internalType": "string",
          "name": "_gameTime",
          "type": "string"
        }
      ],
      "name": "addGame",
      "outputs": [],
      "stateMutability": "nonpayable",
      "type": "function"
    },
    {
      "inputs": [],
      "name": "addGamesFromAPI",
      "outputs": [],
      "stateMutability": "nonpayable",
      "type": "function"
    },
    {
      "inputs": [
        {
          "internalType": "uint256",
          "name": "",
          "type": "uint256"
        },
        {
          "internalType": "uint256",
          "name": "",
          "type": "uint256"
        }
      ],
      "name": "betsByGame",
      "outputs": [
        {
          "internalType": "address",
          "name": "user",
          "type": "address"
        },
        {
          "internalType": "uint256",
          "name": "gameId",
          "type": "uint256"
        },
        {
          "internalType": "uint256",
          "name": "amount",
          "type": "uint256"
        },
        {
          "internalType": "uint256",
          "name": "homeScore",
          "type": "uint256"
        },
        {
          "internalType": "uint256",
          "name": "awayScore",
          "type": "uint256"
        },
        {
          "internalType": "bool",
          "name": "betWon",
          "type": "bool"
        },
        {
          "internalType": "bool",
          "name": "betCompleted",
          "type": "bool"
        }
      ],
      "stateMutability": "view",
      "type": "function"
    },
    {
      "inputs": [
        {
          "internalType": "bytes32",
          "name": "_requestId",
          "type": "bytes32"
        },
        {
          "internalType": "string",
          "name": "_teamA",
          "type": "string"
        },
        {
          "internalType": "string",
          "name": "_teamB",
          "type": "string"
        },
        {
          "internalType": "string",
          "name": "_date",
          "type": "string"
        }
      ],
      "name": "fulfillGames",
      "outputs": [],
      "stateMutability": "nonpayable",
      "type": "function"
    },
    {
      "inputs": [
        {
          "internalType": "bytes32",
          "name": "_requestId",
          "type": "bytes32"
        },
        {
          "internalType": "uint256",
          "name": "_number",
          "type": "uint256"
        }
      ],
      "name": "fulfillNumber",
      "outputs": [],
      "stateMutability": "nonpayable",
      "type": "function"
    },
    {
      "inputs": [],
      "name": "gameCount",
      "outputs": [
        {
          "internalType": "uint256",
          "name": "",
          "type": "uint256"
        }
      ],
      "stateMutability": "view",
      "type": "function"
    },
    {
      "inputs": [
        {
          "internalType": "uint256",
          "name": "",
          "type": "uint256"
        }
      ],
      "name": "games",
      "outputs": [
        {
          "internalType": "string",
          "name": "homeTeam",
          "type": "string"
        },
        {
          "internalType": "string",
          "name": "awayTeam",
          "type": "string"
        },
        {
          "internalType": "string",
          "name": "gameTime",
          "type": "string"
        },
        {
          "internalType": "uint256",
          "name": "homeScore",
          "type": "uint256"
        },
        {
          "internalType": "uint256",
          "name": "awayScore",
          "type": "uint256"
        },
        {
          "internalType": "bool",
          "name": "gameCompleted",
          "type": "bool"
        },
        {
          "internalType": "uint256",
          "name": "lotteryPool",
          "type": "uint256"
        },
        {
          "internalType": "uint256",
          "name": "betsCount",
          "type": "uint256"
        },
        {
          "internalType": "uint256",
          "name": "betsAmount",
          "type": "uint256"
        }
      ],
      "stateMutability": "view",
      "type": "function"
    },
    {
      "inputs": [],
      "name": "gamesAPI",
      "outputs": [
        {
          "internalType": "string",
          "name": "",
          "type": "string"
        }
      ],
      "stateMutability": "view",
      "type": "function"
    },
    {
      "inputs": [
        {
          "internalType": "bytes32",
          "name": "role",
          "type": "bytes32"
        }
      ],
      "name": "getRoleAdmin",
      "outputs": [
        {
          "internalType": "bytes32",
          "name": "",
          "type": "bytes32"
        }
      ],
      "stateMutability": "view",
      "type": "function"
    },
    {
      "inputs": [
        {
          "internalType": "bytes32",
          "name": "role",
          "type": "bytes32"
        },
        {
          "internalType": "address",
          "name": "account",
          "type": "address"
        }
      ],
      "name": "grantRole",
      "outputs": [],
      "stateMutability": "nonpayable",
      "type": "function"
    },
    {
      "inputs": [
        {
          "internalType": "bytes32",
          "name": "role",
          "type": "bytes32"
        },
        {
          "internalType": "address",
          "name": "account",
          "type": "address"
        }
      ],
      "name": "hasRole",
      "outputs": [
        {
          "internalType": "bool",
          "name": "",
          "type": "bool"
        }
      ],
      "stateMutability": "view",
      "type": "function"
    },
    {
      "inputs": [],
      "name": "lastDate",
      "outputs": [
        {
          "internalType": "string",
          "name": "",
          "type": "string"
        }
      ],
      "stateMutability": "view",
      "type": "function"
    },
    {
      "inputs": [],
      "name": "lastGame",
      "outputs": [
        {
          "internalType": "uint256",
          "name": "",
          "type": "uint256"
        }
      ],
      "stateMutability": "view",
      "type": "function"
    },
    {
      "inputs": [],
      "name": "lastNumber",
      "outputs": [
        {
          "internalType": "uint256",
          "name": "",
          "type": "uint256"
        }
      ],
      "stateMutability": "view",
      "type": "function"
    },
    {
      "inputs": [],
      "name": "lastTeamA",
      "outputs": [
        {
          "internalType": "string",
          "name": "",
          "type": "string"
        }
      ],
      "stateMutability": "view",
      "type": "function"
    },
    {
      "inputs": [],
      "name": "lastTeamB",
      "outputs": [
        {
          "internalType": "string",
          "name": "",
          "type": "string"
        }
      ],
      "stateMutability": "view",
      "type": "function"
    },
    {
      "inputs": [
        {
          "internalType": "uint256",
          "name": "",
          "type": "uint256"
        },
        {
          "internalType": "uint256",
          "name": "",
          "type": "uint256"
        }
      ],
      "name": "loosersByGame",
      "outputs": [
        {
          "internalType": "address",
          "name": "user",
          "type": "address"
        },
        {
          "internalType": "uint256",
          "name": "gameId",
          "type": "uint256"
        },
        {
          "internalType": "uint256",
          "name": "amount",
          "type": "uint256"
        },
        {
          "internalType": "uint256",
          "name": "homeScore",
          "type": "uint256"
        },
        {
          "internalType": "uint256",
          "name": "awayScore",
          "type": "uint256"
        },
        {
          "internalType": "bool",
          "name": "betWon",
          "type": "bool"
        },
        {
          "internalType": "bool",
          "name": "betCompleted",
          "type": "bool"
        }
      ],
      "stateMutability": "view",
      "type": "function"
    },
    {
      "inputs": [
        {
          "internalType": "uint256",
          "name": "_gameId",
          "type": "uint256"
        },
        {
          "internalType": "uint256",
          "name": "_homeScore",
          "type": "uint256"
        },
        {
          "internalType": "uint256",
          "name": "_awayScore",
          "type": "uint256"
        },
        {
          "internalType": "uint256",
          "name": "_USDCamount",
          "type": "uint256"
        }
      ],
      "name": "makeBet",
      "outputs": [],
      "stateMutability": "payable",
      "type": "function"
    },
    {
      "inputs": [],
      "name": "numbersAPI",
      "outputs": [
        {
          "internalType": "string",
          "name": "",
          "type": "string"
        }
      ],
      "stateMutability": "view",
      "type": "function"
    },
    {
      "inputs": [],
      "name": "owner",
      "outputs": [
        {
          "internalType": "address",
          "name": "",
          "type": "address"
        }
      ],
      "stateMutability": "view",
      "type": "function"
    },
    {
      "inputs": [],
      "name": "renounceOwnership",
      "outputs": [],
      "stateMutability": "nonpayable",
      "type": "function"
    },
    {
      "inputs": [
        {
          "internalType": "bytes32",
          "name": "role",
          "type": "bytes32"
        },
        {
          "internalType": "address",
          "name": "account",
          "type": "address"
        }
      ],
      "name": "renounceRole",
      "outputs": [],
      "stateMutability": "nonpayable",
      "type": "function"
    },
    {
      "inputs": [
        {
          "internalType": "bytes32",
          "name": "role",
          "type": "bytes32"
        },
        {
          "internalType": "address",
          "name": "account",
          "type": "address"
        }
      ],
      "name": "revokeRole",
      "outputs": [],
      "stateMutability": "nonpayable",
      "type": "function"
    },
    {
      "inputs": [
        {
          "internalType": "uint256",
          "name": "loosersQt",
          "type": "uint256"
        }
      ],
      "name": "selectLotteryWinner",
      "outputs": [],
      "stateMutability": "nonpayable",
      "type": "function"
    },
    {
      "inputs": [
        {
          "internalType": "bytes4",
          "name": "interfaceId",
          "type": "bytes4"
        }
      ],
      "name": "supportsInterface",
      "outputs": [
        {
          "internalType": "bool",
          "name": "",
          "type": "bool"
        }
      ],
      "stateMutability": "view",
      "type": "function"
    },
    {
      "inputs": [
        {
          "internalType": "uint256",
          "name": "_amount",
          "type": "uint256"
        },
        {
          "internalType": "address payable",
          "name": "destination",
          "type": "address"
        }
      ],
      "name": "transferFunds",
      "outputs": [],
      "stateMutability": "payable",
      "type": "function"
    },
    {
      "inputs": [
        {
          "internalType": "address",
          "name": "newOwner",
          "type": "address"
        }
      ],
      "name": "transferOwnership",
      "outputs": [],
      "stateMutability": "nonpayable",
      "type": "function"
    },
    {
      "inputs": [
        {
          "internalType": "bytes32",
          "name": "_newJobIdNumbers",
          "type": "bytes32"
        }
      ],
      "name": "updateChainlinkJobIdNumbers",
      "outputs": [],
      "stateMutability": "nonpayable",
      "type": "function"
    },
    {
      "inputs": [
        {
          "internalType": "uint256",
          "name": "_gameId",
          "type": "uint256"
        },
        {
          "internalType": "uint256",
          "name": "_homeScore",
          "type": "uint256"
        },
        {
          "internalType": "uint256",
          "name": "_awayScore",
          "type": "uint256"
        }
      ],
      "name": "updateGameScore",
      "outputs": [],
      "stateMutability": "nonpayable",
      "type": "function"
    },
    {
      "inputs": [
        {
          "internalType": "string",
          "name": "_newUrl",
          "type": "string"
        }
      ],
      "name": "updateNumberAPI",
      "outputs": [],
      "stateMutability": "nonpayable",
      "type": "function"
    },
    {
      "inputs": [
        {
          "internalType": "address",
          "name": "_newRelayer",
          "type": "address"
        }
      ],
      "name": "updateRelayer",
      "outputs": [],
      "stateMutability": "nonpayable",
      "type": "function"
    }
  ],
  "bytecode": "0x608060405260016004553480156200001657600080fd5b50604051620066c7380380620066c783398181016040528101906200003c919062000801565b6200005c620000506200024060201b60201c565b6200024860201b60201c565b60005b8451811015620000cc57620000b87f950b8f2d7415defaee398bb4898e8e094a64c725873b81952b7ab9f08d70efb3868381518110620000a457620000a362000973565b5b60200260200101516200030e60201b60201c565b80620000c490620009db565b90506200005f565b5060005b83518110156200013d57620001297fa49807205ce4d355092ef5a8a18f56e8913cf4a201fbe287825b095693c2177585838151811062000115576200011462000973565b5b60200260200101516200030e60201b60201c565b806200013590620009db565b9050620000d0565b50620001707fab4f864e5201b0fde9b5ee3e4cf96384802b0ffdfcf7f9de4699ce21a30afc4f876200030e60201b60201c565b81600c908162000181919062000c69565b5080600d908162000193919062000c69565b50620001a58a6200040060201b60201c565b620001b6896200044460201b60201c565b87600e8190555086600f81905550600a670de0b6b3a76400006001620001dd919062000d50565b620001e9919062000dca565b60108190555084601660006101000a81548173ffffffffffffffffffffffffffffffffffffffff021916908373ffffffffffffffffffffffffffffffffffffffff1602179055505050505050505050505062000e02565b600033905090565b6000600660009054906101000a900473ffffffffffffffffffffffffffffffffffffffff16905081600660006101000a81548173ffffffffffffffffffffffffffffffffffffffff021916908373ffffffffffffffffffffffffffffffffffffffff1602179055508173ffffffffffffffffffffffffffffffffffffffff168173ffffffffffffffffffffffffffffffffffffffff167f8be0079c531659141344cd1fd0a4f28419497f9722a3daafe3b4186f6b6457e060405160405180910390a35050565b6200032082826200048860201b60201c565b620003fc5760016007600084815260200190815260200160002060000160008373ffffffffffffffffffffffffffffffffffffffff1673ffffffffffffffffffffffffffffffffffffffff16815260200190815260200160002060006101000a81548160ff021916908315150217905550620003a16200024060201b60201c565b73ffffffffffffffffffffffffffffffffffffffff168173ffffffffffffffffffffffffffffffffffffffff16837f2f8788117e7eff1d82e926ec794901d17c78024a50270940304540a733656f0d60405160405180910390a45b5050565b80600260006101000a81548173ffffffffffffffffffffffffffffffffffffffff021916908373ffffffffffffffffffffffffffffffffffffffff16021790555050565b80600360006101000a81548173ffffffffffffffffffffffffffffffffffffffff021916908373ffffffffffffffffffffffffffffffffffffffff16021790555050565b60006007600084815260200190815260200160002060000160008373ffffffffffffffffffffffffffffffffffffffff1673ffffffffffffffffffffffffffffffffffffffff16815260200190815260200160002060009054906101000a900460ff16905092915050565b6000604051905090565b600080fd5b600080fd5b600073ffffffffffffffffffffffffffffffffffffffff82169050919050565b6000620005348262000507565b9050919050565b620005468162000527565b81146200055257600080fd5b50565b60008151905062000566816200053b565b92915050565b6000819050919050565b62000581816200056c565b81146200058d57600080fd5b50565b600081519050620005a18162000576565b92915050565b600080fd5b6000601f19601f8301169050919050565b7f4e487b7100000000000000000000000000000000000000000000000000000000600052604160045260246000fd5b620005f782620005ac565b810181811067ffffffffffffffff82111715620006195762000618620005bd565b5b80604052505050565b60006200062e620004f3565b90506200063c8282620005ec565b919050565b600067ffffffffffffffff8211156200065f576200065e620005bd565b5b602082029050602081019050919050565b600080fd5b60006200068c620006868462000641565b62000622565b90508083825260208201905060208402830185811115620006b257620006b162000670565b5b835b81811015620006df5780620006ca888262000555565b845260208401935050602081019050620006b4565b5050509392505050565b600082601f830112620007015762000700620005a7565b5b81516200071384826020860162000675565b91505092915050565b600080fd5b600067ffffffffffffffff8211156200073f576200073e620005bd565b5b6200074a82620005ac565b9050602081019050919050565b60005b83811015620007775780820151818401526020810190506200075a565b60008484015250505050565b60006200079a620007948462000721565b62000622565b905082815260208101848484011115620007b957620007b86200071c565b5b620007c684828562000757565b509392505050565b600082601f830112620007e657620007e5620005a7565b5b8151620007f884826020860162000783565b91505092915050565b6000806000806000806000806000806101408b8d031215620008285762000827620004fd565b5b6000620008388d828e0162000555565b9a505060206200084b8d828e0162000555565b99505060406200085e8d828e0162000590565b9850506060620008718d828e0162000590565b9750506080620008848d828e0162000555565b96505060a0620008978d828e0162000555565b95505060c08b015167ffffffffffffffff811115620008bb57620008ba62000502565b5b620008c98d828e01620006e9565b94505060e08b015167ffffffffffffffff811115620008ed57620008ec62000502565b5b620008fb8d828e01620006e9565b9350506101008b015167ffffffffffffffff81111562000920576200091f62000502565b5b6200092e8d828e01620007ce565b9250506101208b015167ffffffffffffffff81111562000953576200095262000502565b5b620009618d828e01620007ce565b9150509295989b9194979a5092959850565b7f4e487b7100000000000000000000000000000000000000000000000000000000600052603260045260246000fd5b7f4e487b7100000000000000000000000000000000000000000000000000000000600052601160045260246000fd5b6000819050919050565b6000620009e882620009d1565b91507fffffffffffffffffffffffffffffffffffffffffffffffffffffffffffffffff820362000a1d5762000a1c620009a2565b5b600182019050919050565b600081519050919050565b7f4e487b7100000000000000000000000000000000000000000000000000000000600052602260045260246000fd5b6000600282049050600182168062000a7b57607f821691505b60208210810362000a915762000a9062000a33565b5b50919050565b60008190508160005260206000209050919050565b60006020601f8301049050919050565b600082821b905092915050565b60006008830262000afb7fffffffffffffffffffffffffffffffffffffffffffffffffffffffffffffffff8262000abc565b62000b07868362000abc565b95508019841693508086168417925050509392505050565b6000819050919050565b600062000b4a62000b4462000b3e84620009d1565b62000b1f565b620009d1565b9050919050565b6000819050919050565b62000b668362000b29565b62000b7e62000b758262000b51565b84845462000ac9565b825550505050565b600090565b62000b9562000b86565b62000ba281848462000b5b565b505050565b5b8181101562000bca5762000bbe60008262000b8b565b60018101905062000ba8565b5050565b601f82111562000c195762000be38162000a97565b62000bee8462000aac565b8101602085101562000bfe578190505b62000c1662000c0d8562000aac565b83018262000ba7565b50505b505050565b600082821c905092915050565b600062000c3e6000198460080262000c1e565b1980831691505092915050565b600062000c59838362000c2b565b9150826002028217905092915050565b62000c748262000a28565b67ffffffffffffffff81111562000c905762000c8f620005bd565b5b62000c9c825462000a62565b62000ca982828562000bce565b600060209050601f83116001811462000ce1576000841562000ccc578287015190505b62000cd8858262000c4b565b86555062000d48565b601f19841662000cf18662000a97565b60005b8281101562000d1b5784890151825560018201915060208501945060208101905062000cf4565b8683101562000d3b578489015162000d37601f89168262000c2b565b8355505b6001600288020188555050505b505050505050565b600062000d5d82620009d1565b915062000d6a83620009d1565b925082820262000d7a81620009d1565b9150828204841483151762000d945762000d93620009a2565b5b5092915050565b7f4e487b7100000000000000000000000000000000000000000000000000000000600052601260045260246000fd5b600062000dd782620009d1565b915062000de483620009d1565b92508262000df75762000df662000d9b565b5b828204905092915050565b6158b58062000e126000396000f3fe60806040526004361061020f5760003560e01c806398afa55f11610118578063d547741f116100a0578063e932406f1161006f578063e932406f14610764578063ee0f45ff1461078f578063f08e362f146107d2578063f0c6506e146107ee578063f2fde38b146108195761020f565b8063d547741f146106bc578063dd7efaaf146106e5578063e29664ad14610710578063e6dd3331146107395761020f565b8063a217fddf116100e7578063a217fddf146105e9578063ade3778a14610614578063afcc4ad51461063d578063b3db9f1a14610668578063bfd5c6df146106935761020f565b806398afa55f1461056257806399befd531461058d578063a063e9fb146105a4578063a0949595146105c05761020f565b80634ba5eb4b1161019b578063715018a61161016a578063715018a61461048f57806375b238fc146104a65780638da5cb5b146104d15780638f83ab13146104fc57806391d14854146105255761020f565b80634ba5eb4b146103e75780634d1975b41461041057806355a2be241461043b57806355fb9d08146104665761020f565b8063248a9ca3116101e2578063248a9ca3146102ec57806324e7b7aa146103295780632f2ff15d1461035257806336568abe1461037b5780633b6e6f1b146103a45761020f565b806301ffc9a714610214578063117a5b901461025157806311ac9710146102965780632483e715146102c1575b600080fd5b34801561022057600080fd5b5061023b60048036038101906102369190613c3c565b610842565b6040516102489190613c84565b60405180910390f35b34801561025d57600080fd5b5061027860048036038101906102739190613cd5565b6108bc565b60405161028d99989796959493929190613da1565b60405180910390f35b3480156102a257600080fd5b506102ab610aaf565b6040516102b89190613e43565b60405180910390f35b3480156102cd57600080fd5b506102d6610b3d565b6040516102e39190613e7e565b60405180910390f35b3480156102f857600080fd5b50610313600480360381019061030e9190613ec5565b610b61565b6040516103209190613e7e565b60405180910390f35b34801561033557600080fd5b50610350600480360381019061034b9190614027565b610b81565b005b34801561035e57600080fd5b5061037960048036038101906103749190614140565b610cd4565b005b34801561038757600080fd5b506103a2600480360381019061039d9190614140565b610cf5565b005b3480156103b057600080fd5b506103cb60048036038101906103c69190614180565b610d78565b6040516103de97969594939291906141cf565b60405180910390f35b3480156103f357600080fd5b5061040e60048036038101906104099190613ec5565b610e01565b005b34801561041c57600080fd5b50610425610eb1565b604051610432919061423e565b60405180910390f35b34801561044757600080fd5b50610450610eb7565b60405161045d9190613e43565b60405180910390f35b34801561047257600080fd5b5061048d60048036038101906104889190613cd5565b610f45565b005b34801561049b57600080fd5b506104a46110d1565b005b3480156104b257600080fd5b506104bb6110e5565b6040516104c89190613e7e565b60405180910390f35b3480156104dd57600080fd5b506104e6611109565b6040516104f39190614259565b60405180910390f35b34801561050857600080fd5b50610523600480360381019061051e9190614274565b611133565b005b34801561053157600080fd5b5061054c60048036038101906105479190614140565b611206565b6040516105599190613c84565b60405180910390f35b34801561056e57600080fd5b50610577611271565b604051610584919061423e565b60405180910390f35b34801561059957600080fd5b506105a2611277565b005b6105be60048036038101906105b991906142a1565b6114de565b005b3480156105cc57600080fd5b506105e760048036038101906105e29190614308565b6118bf565b005b3480156105f557600080fd5b506105fe611f23565b60405161060b9190613e7e565b60405180910390f35b34801561062057600080fd5b5061063b6004803603810190610636919061435b565b611f2a565b005b34801561064957600080fd5b5061065261217e565b60405161065f91906143fa565b60405180910390f35b34801561067457600080fd5b5061067d6121a4565b60405161068a919061423e565b60405180910390f35b34801561069f57600080fd5b506106ba60048036038101906106b59190614415565b6121aa565b005b3480156106c857600080fd5b506106e360048036038101906106de9190614140565b612263565b005b3480156106f157600080fd5b506106fa612284565b6040516107079190613e43565b60405180910390f35b34801561071c57600080fd5b506107376004803603810190610732919061445e565b612312565b005b34801561074557600080fd5b5061074e61255e565b60405161075b9190613e43565b60405180910390f35b34801561077057600080fd5b506107796125ec565b6040516107869190613e7e565b60405180910390f35b34801561079b57600080fd5b506107b660048036038101906107b19190614180565b612610565b6040516107c997969594939291906141cf565b60405180910390f35b6107ec60048036038101906107e79190614543565b612699565b005b3480156107fa57600080fd5b50610803612746565b6040516108109190613e43565b60405180910390f35b34801561082557600080fd5b50610840600480360381019061083b9190614274565b6127d4565b005b60007f7965db0b000000000000000000000000000000000000000000000000000000007bffffffffffffffffffffffffffffffffffffffffffffffffffffffff1916827bffffffffffffffffffffffffffffffffffffffffffffffffffffffff191614806108b557506108b482612857565b5b9050919050565b600a6020528060005260406000206000915090508060000180546108df906145b2565b80601f016020809104026020016040519081016040528092919081815260200182805461090b906145b2565b80156109585780601f1061092d57610100808354040283529160200191610958565b820191906000526020600020905b81548152906001019060200180831161093b57829003601f168201915b50505050509080600101805461096d906145b2565b80601f0160208091040260200160405190810160405280929190818152602001828054610999906145b2565b80156109e65780601f106109bb576101008083540402835291602001916109e6565b820191906000526020600020905b8154815290600101906020018083116109c957829003601f168201915b5050505050908060020180546109fb906145b2565b80601f0160208091040260200160405190810160405280929190818152602001828054610a27906145b2565b8015610a745780601f10610a4957610100808354040283529160200191610a74565b820191906000526020600020905b815481529060010190602001808311610a5757829003601f168201915b5050505050908060030154908060040154908060050160009054906101000a900460ff16908060060154908060070154908060080154905089565b600c8054610abc906145b2565b80601f0160208091040260200160405190810160405280929190818152602001828054610ae8906145b2565b8015610b355780601f10610b0a57610100808354040283529160200191610b35565b820191906000526020600020905b815481529060010190602001808311610b1857829003601f168201915b505050505081565b7fab4f864e5201b0fde9b5ee3e4cf96384802b0ffdfcf7f9de4699ce21a30afc4f81565b600060076000838152602001908152602001600020600101549050919050565b836005600082815260200190815260200160002060009054906101000a900473ffffffffffffffffffffffffffffffffffffffff1673ffffffffffffffffffffffffffffffffffffffff163373ffffffffffffffffffffffffffffffffffffffff1614610c23576040517f08c379a0000000000000000000000000000000000000000000000000000000008152600401610c1a90614655565b60405180910390fd5b6005600082815260200190815260200160002060006101000a81549073ffffffffffffffffffffffffffffffffffffffff0219169055807f7cc135e0cebb02c3480ae5d74d377283180a2601f8f644edf7987b009316c63a60405160405180910390a2847f22df73edebd47543775fbcfbde9897b918f83794f39e86d4631de1115f54111e858585604051610cba93929190614675565b60405180910390a2610ccd848484612312565b5050505050565b610cdd82610b61565b610ce6816128c1565b610cf083836128d5565b505050565b610cfd6129b6565b73ffffffffffffffffffffffffffffffffffffffff168173ffffffffffffffffffffffffffffffffffffffff1614610d6a576040517f08c379a0000000000000000000000000000000000000000000000000000000008152600401610d6190614733565b60405180910390fd5b610d7482826129be565b5050565b6008602052816000526040600020602052806000526040600020600091509150508060000160009054906101000a900473ffffffffffffffffffffffffffffffffffffffff16908060010154908060020154908060030154908060040154908060050160009054906101000a900460ff16908060050160019054906101000a900460ff16905087565b610e2b7fa49807205ce4d355092ef5a8a18f56e8913cf4a201fbe287825b095693c2177533611206565b80610e685750610e39611109565b73ffffffffffffffffffffffffffffffffffffffff163373ffffffffffffffffffffffffffffffffffffffff16145b610ea7576040517f08c379a0000000000000000000000000000000000000000000000000000000008152600401610e9e9061479f565b60405180910390fd5b80600e8190555050565b600b5481565b60158054610ec4906145b2565b80601f0160208091040260200160405190810160405280929190818152602001828054610ef0906145b2565b8015610f3d5780601f10610f1257610100808354040283529160200191610f3d565b820191906000526020600020905b815481529060010190602001808311610f2057829003601f168201915b505050505081565b6000610f5b600e543063ade3778a60e01b612aa0565b90506000600c610f6a84612ad1565b604051602001610f7b929190614893565b6040516020818303038152906040529050610fd66040518060400160405280600381526020017f67657400000000000000000000000000000000000000000000000000000000008152508284612b9f9092919063ffffffff16565b61102f6040518060400160405280600481526020017f70617468000000000000000000000000000000000000000000000000000000008152506040518060200160405280600081525084612b9f9092919063ffffffff16565b61107a6040518060400160405280600581526020017f74696d6573000000000000000000000000000000000000000000000000000000815250600184612bd29092919063ffffffff16565b600061108883601054612c05565b9050600060115490507f1ca8663227a7fe9919713a01d344afbb434e234f35a3e540a6ad924f88771f3882826040516110c29291906148b7565b60405180910390a15050505050565b6110d9612c3c565b6110e36000612cba565b565b7fa49807205ce4d355092ef5a8a18f56e8913cf4a201fbe287825b095693c2177581565b6000600660009054906101000a900473ffffffffffffffffffffffffffffffffffffffff16905090565b61115d7fa49807205ce4d355092ef5a8a18f56e8913cf4a201fbe287825b095693c2177533611206565b8061119a575061116b611109565b73ffffffffffffffffffffffffffffffffffffffff163373ffffffffffffffffffffffffffffffffffffffff16145b6111d9576040517f08c379a00000000000000000000000000000000000000000000000000000000081526004016111d09061479f565b60405180910390fd5b6112037fab4f864e5201b0fde9b5ee3e4cf96384802b0ffdfcf7f9de4699ce21a30afc4f826128d5565b50565b60006007600084815260200190815260200160002060000160008373ffffffffffffffffffffffffffffffffffffffff1673ffffffffffffffffffffffffffffffffffffffff16815260200190815260200160002060009054906101000a900460ff16905092915050565b60125481565b600061128d600f54306324e7b7aa60e01b612aa0565b90506113636040518060400160405280600381526020017f6765740000000000000000000000000000000000000000000000000000000000815250600d80546112d5906145b2565b80601f0160208091040260200160405190810160405280929190818152602001828054611301906145b2565b801561134e5780601f106113235761010080835404028352916020019161134e565b820191906000526020600020905b81548152906001019060200180831161133157829003601f168201915b505050505083612b9f9092919063ffffffff16565b6000611370600b54612ad1565b604051602001611380919061492c565b6040516020818303038152906040529050600061139e600b54612ad1565b6040516020016113ae919061499a565b604051602081830303815290604052905060006113cc600b54612ad1565b6040516020016113dc9190614a08565b60405160208183030381529060405290506114376040518060400160405280600981526020017f706174685445414d4100000000000000000000000000000000000000000000008152508486612b9f9092919063ffffffff16565b6114816040518060400160405280600981526020017f706174685445414d4200000000000000000000000000000000000000000000008152508386612b9f9092919063ffffffff16565b6114cb6040518060400160405280600881526020017f70617468444154450000000000000000000000000000000000000000000000008152508286612b9f9092919063ffffffff16565b6114d784601054612c05565b5050505050565b600b548410611522576040517f08c379a000000000000000000000000000000000000000000000000000000000815260040161151990614a76565b60405180910390fd5b60008111611565576040517f08c379a000000000000000000000000000000000000000000000000000000000815260040161155c90614b08565b60405180910390fd5b6000601660009054906101000a900473ffffffffffffffffffffffffffffffffffffffff1673ffffffffffffffffffffffffffffffffffffffff166323b872dd3330856040518463ffffffff1660e01b81526004016115c693929190614b28565b6020604051808303816000875af11580156115e5573d6000803e3d6000fd5b505050506040513d601f19601f820116820180604052508101906116099190614b8b565b90508061164b576040517f08c379a000000000000000000000000000000000000000000000000000000000815260040161164290614c04565b60405180910390fd5b6000600a600087815260200190815260200160002090508060050160009054906101000a900460ff16156116b4576040517f08c379a00000000000000000000000000000000000000000000000000000000081526004016116ab90614c70565b60405180910390fd5b60006014846116c39190614cee565b905060006005856116d49190614cee565b9050808360060160008282546116ea9190614d1f565b925050819055508082866116fe9190614d53565b6117089190614d53565b83600801600082825461171b9190614d1f565b925050819055506040518060e001604052803373ffffffffffffffffffffffffffffffffffffffff16815260200189815260200182848861175c9190614d53565b6117669190614d53565b815260200188815260200187815260200160001515815260200160001515815250600860008a815260200190815260200160002060008560070154815260200190815260200160002060008201518160000160006101000a81548173ffffffffffffffffffffffffffffffffffffffff021916908373ffffffffffffffffffffffffffffffffffffffff1602179055506020820151816001015560408201518160020155606082015181600301556080820151816004015560a08201518160050160006101000a81548160ff02191690831515021790555060c08201518160050160016101000a81548160ff02191690831515021790555090505082600701600081548092919061187690614d87565b9190505550877fbb79d51f1411ca03952954c866d22ae3532b227b2cf62e257cf182397a64717388886040516118ad929190614dcf565b60405180910390a25050505050505050565b6118e97f950b8f2d7415defaee398bb4898e8e094a64c725873b81952b7ab9f08d70efb333611206565b8061191a57506119197fa49807205ce4d355092ef5a8a18f56e8913cf4a201fbe287825b095693c2177533611206565b5b806119575750611928611109565b73ffffffffffffffffffffffffffffffffffffffff163373ffffffffffffffffffffffffffffffffffffffff16145b611996576040517f08c379a000000000000000000000000000000000000000000000000000000000815260040161198d90614e44565b60405180910390fd5b600b5483106119da576040517f08c379a00000000000000000000000000000000000000000000000000000000081526004016119d190614a76565b60405180910390fd5b6000600a6000858152602001908152602001600020905082816003018190555081816004018190555060018160050160006101000a81548160ff0219169083151502179055506000816007015403611a325750611f1e565b6000805b8260070154811015611aa85760006008600088815260200190815260200160002060008381526020019081526020016000209050858160030154148015611a805750848160040154145b15611a94578280611a9090614d87565b9350505b508080611aa090614d87565b915050611a36565b5060008167ffffffffffffffff811115611ac557611ac4613efc565b5b604051908082528060200260200182016040528015611afe57816020015b611aeb613af2565b815260200190600190039081611ae35790505b5090506000806000805b8660070154811015611dc8576000600860008c815260200190815260200160002060008381526020019081526020016000209050898160030154148015611b525750888160040154145b15611c775760018160050160006101000a81548160ff021916908315150217905550806040518060e00160405290816000820160009054906101000a900473ffffffffffffffffffffffffffffffffffffffff1673ffffffffffffffffffffffffffffffffffffffff1673ffffffffffffffffffffffffffffffffffffffff168152602001600182015481526020016002820154815260200160038201548152602001600482015481526020016005820160009054906101000a900460ff161515151581526020016005820160019054906101000a900460ff161515151581525050868681518110611c4757611c46614e64565b5b6020026020010181905250806002015483611c629190614d1f565b92508480611c6f90614d87565b955050611d97565b80600960008d815260200190815260200160002060008681526020019081526020016000206000820160009054906101000a900473ffffffffffffffffffffffffffffffffffffffff168160000160006101000a81548173ffffffffffffffffffffffffffffffffffffffff021916908373ffffffffffffffffffffffffffffffffffffffff160217905550600182015481600101556002820154816002015560038201548160030155600482015481600401556005820160009054906101000a900460ff168160050160006101000a81548160ff0219169083151502179055506005820160019054906101000a900460ff168160050160016101000a81548160ff0219169083151502179055509050508380611d9390614d87565b9450505b60018160050160016101000a81548160ff021916908315150217905550508080611dc090614d87565b915050611b08565b5060008303611df1578560080154866006016000828254611de99190614d1f565b925050819055505b60005b83811015611f0657601660009054906101000a900473ffffffffffffffffffffffffffffffffffffffff1673ffffffffffffffffffffffffffffffffffffffff1663a9059cbb868381518110611e4d57611e4c614e64565b5b60200260200101516000015184888581518110611e6d57611e6c614e64565b5b6020026020010151604001518b60080154611e889190614e93565b611e929190614cee565b6040518363ffffffff1660e01b8152600401611eaf929190614ed5565b6020604051808303816000875af1158015611ece573d6000803e3d6000fd5b505050506040513d601f19601f82011682018060405250810190611ef29190614b8b565b508080611efe90614d87565b915050611df4565b5088601281905550611f1782610f45565b5050505050505b505050565b6000801b81565b816005600082815260200190815260200160002060009054906101000a900473ffffffffffffffffffffffffffffffffffffffff1673ffffffffffffffffffffffffffffffffffffffff163373ffffffffffffffffffffffffffffffffffffffff1614611fcc576040517f08c379a0000000000000000000000000000000000000000000000000000000008152600401611fc390614655565b60405180910390fd5b6005600082815260200190815260200160002060006101000a81549073ffffffffffffffffffffffffffffffffffffffff0219169055807f7cc135e0cebb02c3480ae5d74d377283180a2601f8f644edf7987b009316c63a60405160405180910390a2827f4b031b5f8729563cda98e5f016f7cb0d8e6b32db75591d31e59c13df29adea448360405161205f919061423e565b60405180910390a2816011819055506001821461217957601660009054906101000a900473ffffffffffffffffffffffffffffffffffffffff1673ffffffffffffffffffffffffffffffffffffffff1663a9059cbb600960006012548152602001908152602001600020600085815260200190815260200160002060000160009054906101000a900473ffffffffffffffffffffffffffffffffffffffff16600a60006012548152602001908152602001600020600601546040518363ffffffff1660e01b8152600401612134929190614ed5565b6020604051808303816000875af1158015612153573d6000803e3d6000fd5b505050506040513d601f19601f820116820180604052508101906121779190614b8b565b505b505050565b601660009054906101000a900473ffffffffffffffffffffffffffffffffffffffff1681565b60115481565b6121d47fa49807205ce4d355092ef5a8a18f56e8913cf4a201fbe287825b095693c2177533611206565b8061221157506121e2611109565b73ffffffffffffffffffffffffffffffffffffffff163373ffffffffffffffffffffffffffffffffffffffff16145b612250576040517f08c379a00000000000000000000000000000000000000000000000000000000081526004016122479061479f565b60405180910390fd5b80600c908161225f919061508b565b5050565b61226c82610b61565b612275816128c1565b61227f83836129be565b505050565b60138054612291906145b2565b80601f01602080910402602001604051908101604052809291908181526020018280546122bd906145b2565b801561230a5780601f106122df5761010080835404028352916020019161230a565b820191906000526020600020905b8154815290600101906020018083116122ed57829003601f168201915b505050505081565b61233c7f950b8f2d7415defaee398bb4898e8e094a64c725873b81952b7ab9f08d70efb333611206565b8061236d575061236c7fa49807205ce4d355092ef5a8a18f56e8913cf4a201fbe287825b095693c2177533611206565b5b806123aa575061237b611109565b73ffffffffffffffffffffffffffffffffffffffff163373ffffffffffffffffffffffffffffffffffffffff16145b6123e9576040517f08c379a00000000000000000000000000000000000000000000000000000000081526004016123e090614e44565b60405180910390fd5b604051806101200160405280848152602001838152602001828152602001600081526020016000815260200160001515815260200160008152602001600081526020016000815250600a6000600b548152602001908152602001600020600082015181600001908161245b919061508b565b506020820151816001019081612471919061508b565b506040820151816002019081612487919061508b565b50606082015181600301556080820151816004015560a08201518160050160006101000a81548160ff02191690831515021790555060c0820151816006015560e082015181600701556101008201518160080155905050600b60008154809291906124f190614d87565b919050555081604051612504919061515d565b60405180910390208360405161251a919061515d565b60405180910390207f67e6642558a5a9ecf1c49bb7f946fa9b49371a8845e1747916f5883ad494a3b6836040516125519190613e43565b60405180910390a3505050565b600d805461256b906145b2565b80601f0160208091040260200160405190810160405280929190818152602001828054612597906145b2565b80156125e45780601f106125b9576101008083540402835291602001916125e4565b820191906000526020600020905b8154815290600101906020018083116125c757829003601f168201915b505050505081565b7f950b8f2d7415defaee398bb4898e8e094a64c725873b81952b7ab9f08d70efb381565b6009602052816000526040600020602052806000526040600020600091509150508060000160009054906101000a900473ffffffffffffffffffffffffffffffffffffffff16908060010154908060020154908060030154908060040154908060050160009054906101000a900460ff16908060050160019054906101000a900460ff16905087565b6126a1612c3c565b601660009054906101000a900473ffffffffffffffffffffffffffffffffffffffff1673ffffffffffffffffffffffffffffffffffffffff1663a9059cbb82846040518363ffffffff1660e01b81526004016126fe929190615195565b6020604051808303816000875af115801561271d573d6000803e3d6000fd5b505050506040513d601f19601f820116820180604052508101906127419190614b8b565b505050565b60148054612753906145b2565b80601f016020809104026020016040519081016040528092919081815260200182805461277f906145b2565b80156127cc5780601f106127a1576101008083540402835291602001916127cc565b820191906000526020600020905b8154815290600101906020018083116127af57829003601f168201915b505050505081565b6127dc612c3c565b600073ffffffffffffffffffffffffffffffffffffffff168173ffffffffffffffffffffffffffffffffffffffff160361284b576040517f08c379a000000000000000000000000000000000000000000000000000000000815260040161284290615230565b60405180910390fd5b61285481612cba565b50565b60007f01ffc9a7000000000000000000000000000000000000000000000000000000007bffffffffffffffffffffffffffffffffffffffffffffffffffffffff1916827bffffffffffffffffffffffffffffffffffffffffffffffffffffffff1916149050919050565b6128d2816128cd6129b6565b612d80565b50565b6128df8282611206565b6129b25760016007600084815260200190815260200160002060000160008373ffffffffffffffffffffffffffffffffffffffff1673ffffffffffffffffffffffffffffffffffffffff16815260200190815260200160002060006101000a81548160ff0219169083151502179055506129576129b6565b73ffffffffffffffffffffffffffffffffffffffff168173ffffffffffffffffffffffffffffffffffffffff16837f2f8788117e7eff1d82e926ec794901d17c78024a50270940304540a733656f0d60405160405180910390a45b5050565b600033905090565b6129c88282611206565b15612a9c5760006007600084815260200190815260200160002060000160008373ffffffffffffffffffffffffffffffffffffffff1673ffffffffffffffffffffffffffffffffffffffff16815260200190815260200160002060006101000a81548160ff021916908315150217905550612a416129b6565b73ffffffffffffffffffffffffffffffffffffffff168173ffffffffffffffffffffffffffffffffffffffff16837ff6391f5c32d9c69d2a47ea670b442974b53935d1edc7fd64eb21e047a839171b60405160405180910390a45b5050565b612aa8613b49565b612ab0613b49565b612ac785858584612e05909392919063ffffffff16565b9150509392505050565b606060006001612ae084612eb5565b01905060008167ffffffffffffffff811115612aff57612afe613efc565b5b6040519080825280601f01601f191660200182016040528015612b315781602001600182028036833780820191505090505b509050600082602001820190505b600115612b94578080600190039150507f3031323334353637383961626364656600000000000000000000000000000000600a86061a8153600a8581612b8857612b87614c90565b5b04945060008503612b3f575b819350505050919050565b612bb682846080015161300890919063ffffffff16565b612bcd81846080015161300890919063ffffffff16565b505050565b612be982846080015161300890919063ffffffff16565b612c0081846080015161302d90919063ffffffff16565b505050565b6000612c34600360009054906101000a900473ffffffffffffffffffffffffffffffffffffffff1684846130da565b905092915050565b612c446129b6565b73ffffffffffffffffffffffffffffffffffffffff16612c62611109565b73ffffffffffffffffffffffffffffffffffffffff1614612cb8576040517f08c379a0000000000000000000000000000000000000000000000000000000008152600401612caf9061529c565b60405180910390fd5b565b6000600660009054906101000a900473ffffffffffffffffffffffffffffffffffffffff16905081600660006101000a81548173ffffffffffffffffffffffffffffffffffffffff021916908373ffffffffffffffffffffffffffffffffffffffff1602179055508173ffffffffffffffffffffffffffffffffffffffff168173ffffffffffffffffffffffffffffffffffffffff167f8be0079c531659141344cd1fd0a4f28419497f9722a3daafe3b4186f6b6457e060405160405180910390a35050565b612d8a8282611206565b612e0157612d97816131a6565b612da58360001c60206131d3565b604051602001612db6929190615354565b6040516020818303038152906040526040517f08c379a0000000000000000000000000000000000000000000000000000000008152600401612df89190613e43565b60405180910390fd5b5050565b612e0d613b49565b612e1d856080015161010061340f565b508385600001818152505082856020019073ffffffffffffffffffffffffffffffffffffffff16908173ffffffffffffffffffffffffffffffffffffffff16815250508185604001907bffffffffffffffffffffffffffffffffffffffffffffffffffffffff191690817bffffffffffffffffffffffffffffffffffffffffffffffffffffffff191681525050849050949350505050565b600080600090507a184f03e93ff9f4daa797ed6e38ed64bf6a1f0100000000000000008310612f13577a184f03e93ff9f4daa797ed6e38ed64bf6a1f0100000000000000008381612f0957612f08614c90565b5b0492506040810190505b6d04ee2d6d415b85acef81000000008310612f50576d04ee2d6d415b85acef81000000008381612f4657612f45614c90565b5b0492506020810190505b662386f26fc100008310612f7f57662386f26fc100008381612f7557612f74614c90565b5b0492506010810190505b6305f5e1008310612fa8576305f5e1008381612f9e57612f9d614c90565b5b0492506008810190505b6127108310612fcd576127108381612fc357612fc2614c90565b5b0492506004810190505b60648310612ff05760648381612fe657612fe5614c90565b5b0492506002810190505b600a8310612fff576001810190505b80915050919050565b6130158260038351613479565b61302881836135fe90919063ffffffff16565b505050565b7fffffffffffffffffffffffffffffffffffffffffffffffff00000000000000008112156130645761305f8282613620565b6130d6565b67ffffffffffffffff8113156130835761307e8282613697565b6130d5565b6000811261309c5761309782600083613479565b6130d4565b6130d3826001837fffffffffffffffffffffffffffffffffffffffffffffffffffffffffffffffff6130ce9190615398565b613479565b5b5b5b5050565b60008060045490506001816130ef9190614d1f565b6004819055506000634042994660e01b60008087600001513089604001518760018c608001516000015160405160240161313098979695949392919061543f565b604051602081830303815290604052907bffffffffffffffffffffffffffffffffffffffffffffffffffffffff19166020820180517bffffffffffffffffffffffffffffffffffffffffffffffffffffffff8381831617835250505050905061319b868386846136e3565b925050509392505050565b60606131cc8273ffffffffffffffffffffffffffffffffffffffff16601460ff166131d3565b9050919050565b6060600060028360026131e69190614e93565b6131f09190614d1f565b67ffffffffffffffff81111561320957613208613efc565b5b6040519080825280601f01601f19166020018201604052801561323b5781602001600182028036833780820191505090505b5090507f30000000000000000000000000000000000000000000000000000000000000008160008151811061327357613272614e64565b5b60200101907effffffffffffffffffffffffffffffffffffffffffffffffffffffffffffff1916908160001a9053507f7800000000000000000000000000000000000000000000000000000000000000816001815181106132d7576132d6614e64565b5b60200101907effffffffffffffffffffffffffffffffffffffffffffffffffffffffffffff1916908160001a905350600060018460026133179190614e93565b6133219190614d1f565b90505b60018111156133c1577f3031323334353637383961626364656600000000000000000000000000000000600f86166010811061336357613362614e64565b5b1a60f81b82828151811061337a57613379614e64565b5b60200101907effffffffffffffffffffffffffffffffffffffffffffffffffffffffffffff1916908160001a905350600485901c9450806133ba906154c4565b9050613324565b5060008414613405576040517f08c379a00000000000000000000000000000000000000000000000000000000081526004016133fc90615539565b60405180910390fd5b8091505092915050565b613417613bb6565b60006020836134269190615559565b14613452576020826134389190615559565b60206134449190614d53565b8261344f9190614d1f565b91505b81836020018181525050604051808452600081528281016020016040525082905092915050565b60178167ffffffffffffffff16116134b0576134aa8160058460ff16901b60ff16178461387890919063ffffffff16565b506135f9565b60ff8167ffffffffffffffff1611613506576134df601860058460ff16901b178461387890919063ffffffff16565b506135008167ffffffffffffffff166001856138989092919063ffffffff16565b506135f8565b61ffff8167ffffffffffffffff161161355d57613536601960058460ff16901b178461387890919063ffffffff16565b506135578167ffffffffffffffff166002856138989092919063ffffffff16565b506135f7565b63ffffffff8167ffffffffffffffff16116135b65761358f601a60058460ff16901b178461387890919063ffffffff16565b506135b08167ffffffffffffffff166004856138989092919063ffffffff16565b506135f6565b6135d3601b60058460ff16901b178461387890919063ffffffff16565b506135f48167ffffffffffffffff166008856138989092919063ffffffff16565b505b5b5b5b505050565b613606613bb6565b613618838460000151518485516138ba565b905092915050565b61363e60036005600660ff16901b178361387890919063ffffffff16565b5061369382827fffffffffffffffffffffffffffffffffffffffffffffffffffffffffffffffff61366f9190615398565b60405160200161367f919061423e565b6040516020818303038152906040526139a9565b5050565b6136b560026005600660ff16901b178361387890919063ffffffff16565b506136df82826040516020016136cb919061423e565b6040516020818303038152906040526139a9565b5050565b600030846040516020016136f8929190615605565b604051602081830303815290604052805190602001209050846005600083815260200190815260200160002060006101000a81548173ffffffffffffffffffffffffffffffffffffffff021916908373ffffffffffffffffffffffffffffffffffffffff160217905550807fb5e6e01e79f91267dc17b4e6314d5d4d03593d2ceee0fbb452b750bd70ea5af960405160405180910390a2600260009054906101000a900473ffffffffffffffffffffffffffffffffffffffff1673ffffffffffffffffffffffffffffffffffffffff16634000aea08685856040518463ffffffff1660e01b81526004016137ee93929190615631565b6020604051808303816000875af115801561380d573d6000803e3d6000fd5b505050506040513d601f19601f820116820180604052508101906138319190614b8b565b613870576040517f08c379a0000000000000000000000000000000000000000000000000000000008152600401613867906156e1565b60405180910390fd5b949350505050565b613880613bb6565b61389083846000015151846139ce565b905092915050565b6138a0613bb6565b6138b1848560000151518585613a24565b90509392505050565b6138c2613bb6565b82518211156138d057600080fd5b846020015182856138e19190614d1f565b111561391657613915856002613906886020015188876139019190614d1f565b613ab2565b6139109190614e93565b613ace565b5b6000808651805187602083010193508088870111156139355787860182525b60208701925050505b6020841061397c57805182526020826139579190614d1f565b91506020816139669190614d1f565b90506020846139759190614d53565b935061393e565b60006001856020036101000a03905080198251168184511681811785525050508692505050949350505050565b6139b68260028351613479565b6139c981836135fe90919063ffffffff16565b505050565b6139d6613bb6565b836020015183106139fc576139fb84600286602001516139f69190614e93565b613ace565b5b83518051602085830101848153818603613a17576001820183525b5050508390509392505050565b613a2c613bb6565b84602001518483613a3d9190614d1f565b1115613a6557613a648560028685613a559190614d1f565b613a5f9190614e93565b613ace565b5b6000600183610100613a779190615834565b613a819190614d53565b90508551838682010185831982511617815281518588011115613aa45784870182525b505085915050949350505050565b600081831115613ac457829050613ac8565b8190505b92915050565b600082600001519050613ae1838361340f565b50613aec83826135fe565b50505050565b6040518060e00160405280600073ffffffffffffffffffffffffffffffffffffffff168152602001600081526020016000815260200160008152602001600081526020016000151581526020016000151581525090565b6040518060a0016040528060008019168152602001600073ffffffffffffffffffffffffffffffffffffffff16815260200160007bffffffffffffffffffffffffffffffffffffffffffffffffffffffff1916815260200160008152602001613bb0613bb6565b81525090565b604051806040016040528060608152602001600081525090565b6000604051905090565b600080fd5b600080fd5b60007fffffffff0000000000000000000000000000000000000000000000000000000082169050919050565b613c1981613be4565b8114613c2457600080fd5b50565b600081359050613c3681613c10565b92915050565b600060208284031215613c5257613c51613bda565b5b6000613c6084828501613c27565b91505092915050565b60008115159050919050565b613c7e81613c69565b82525050565b6000602082019050613c996000830184613c75565b92915050565b6000819050919050565b613cb281613c9f565b8114613cbd57600080fd5b50565b600081359050613ccf81613ca9565b92915050565b600060208284031215613ceb57613cea613bda565b5b6000613cf984828501613cc0565b91505092915050565b600081519050919050565b600082825260208201905092915050565b60005b83811015613d3c578082015181840152602081019050613d21565b60008484015250505050565b6000601f19601f8301169050919050565b6000613d6482613d02565b613d6e8185613d0d565b9350613d7e818560208601613d1e565b613d8781613d48565b840191505092915050565b613d9b81613c9f565b82525050565b6000610120820190508181036000830152613dbc818c613d59565b90508181036020830152613dd0818b613d59565b90508181036040830152613de4818a613d59565b9050613df36060830189613d92565b613e006080830188613d92565b613e0d60a0830187613c75565b613e1a60c0830186613d92565b613e2760e0830185613d92565b613e35610100830184613d92565b9a9950505050505050505050565b60006020820190508181036000830152613e5d8184613d59565b905092915050565b6000819050919050565b613e7881613e65565b82525050565b6000602082019050613e936000830184613e6f565b92915050565b613ea281613e65565b8114613ead57600080fd5b50565b600081359050613ebf81613e99565b92915050565b600060208284031215613edb57613eda613bda565b5b6000613ee984828501613eb0565b91505092915050565b600080fd5b600080fd5b7f4e487b7100000000000000000000000000000000000000000000000000000000600052604160045260246000fd5b613f3482613d48565b810181811067ffffffffffffffff82111715613f5357613f52613efc565b5b80604052505050565b6000613f66613bd0565b9050613f728282613f2b565b919050565b600067ffffffffffffffff821115613f9257613f91613efc565b5b613f9b82613d48565b9050602081019050919050565b82818337600083830152505050565b6000613fca613fc584613f77565b613f5c565b905082815260208101848484011115613fe657613fe5613ef7565b5b613ff1848285613fa8565b509392505050565b600082601f83011261400e5761400d613ef2565b5b813561401e848260208601613fb7565b91505092915050565b6000806000806080858703121561404157614040613bda565b5b600061404f87828801613eb0565b945050602085013567ffffffffffffffff8111156140705761406f613bdf565b5b61407c87828801613ff9565b935050604085013567ffffffffffffffff81111561409d5761409c613bdf565b5b6140a987828801613ff9565b925050606085013567ffffffffffffffff8111156140ca576140c9613bdf565b5b6140d687828801613ff9565b91505092959194509250565b600073ffffffffffffffffffffffffffffffffffffffff82169050919050565b600061410d826140e2565b9050919050565b61411d81614102565b811461412857600080fd5b50565b60008135905061413a81614114565b92915050565b6000806040838503121561415757614156613bda565b5b600061416585828601613eb0565b92505060206141768582860161412b565b9150509250929050565b6000806040838503121561419757614196613bda565b5b60006141a585828601613cc0565b92505060206141b685828601613cc0565b9150509250929050565b6141c981614102565b82525050565b600060e0820190506141e4600083018a6141c0565b6141f16020830189613d92565b6141fe6040830188613d92565b61420b6060830187613d92565b6142186080830186613d92565b61422560a0830185613c75565b61423260c0830184613c75565b98975050505050505050565b60006020820190506142536000830184613d92565b92915050565b600060208201905061426e60008301846141c0565b92915050565b60006020828403121561428a57614289613bda565b5b60006142988482850161412b565b91505092915050565b600080600080608085870312156142bb576142ba613bda565b5b60006142c987828801613cc0565b94505060206142da87828801613cc0565b93505060406142eb87828801613cc0565b92505060606142fc87828801613cc0565b91505092959194509250565b60008060006060848603121561432157614320613bda565b5b600061432f86828701613cc0565b935050602061434086828701613cc0565b925050604061435186828701613cc0565b9150509250925092565b6000806040838503121561437257614371613bda565b5b600061438085828601613eb0565b925050602061439185828601613cc0565b9150509250929050565b6000819050919050565b60006143c06143bb6143b6846140e2565b61439b565b6140e2565b9050919050565b60006143d2826143a5565b9050919050565b60006143e4826143c7565b9050919050565b6143f4816143d9565b82525050565b600060208201905061440f60008301846143eb565b92915050565b60006020828403121561442b5761442a613bda565b5b600082013567ffffffffffffffff81111561444957614448613bdf565b5b61445584828501613ff9565b91505092915050565b60008060006060848603121561447757614476613bda565b5b600084013567ffffffffffffffff81111561449557614494613bdf565b5b6144a186828701613ff9565b935050602084013567ffffffffffffffff8111156144c2576144c1613bdf565b5b6144ce86828701613ff9565b925050604084013567ffffffffffffffff8111156144ef576144ee613bdf565b5b6144fb86828701613ff9565b9150509250925092565b6000614510826140e2565b9050919050565b61452081614505565b811461452b57600080fd5b50565b60008135905061453d81614517565b92915050565b6000806040838503121561455a57614559613bda565b5b600061456885828601613cc0565b92505060206145798582860161452e565b9150509250929050565b7f4e487b7100000000000000000000000000000000000000000000000000000000600052602260045260246000fd5b600060028204905060018216806145ca57607f821691505b6020821081036145dd576145dc614583565b5b50919050565b7f536f75726365206d75737420626520746865206f7261636c65206f662074686560008201527f2072657175657374000000000000000000000000000000000000000000000000602082015250565b600061463f602883613d0d565b915061464a826145e3565b604082019050919050565b6000602082019050818103600083015261466e81614632565b9050919050565b6000606082019050818103600083015261468f8186613d59565b905081810360208301526146a38185613d59565b905081810360408301526146b78184613d59565b9050949350505050565b7f416363657373436f6e74726f6c3a2063616e206f6e6c792072656e6f756e636560008201527f20726f6c657320666f722073656c660000000000000000000000000000000000602082015250565b600061471d602f83613d0d565b9150614728826146c1565b604082019050919050565b6000602082019050818103600083015261474c81614710565b9050919050565b7f49535f4e4f545f41444d494e0000000000000000000000000000000000000000600082015250565b6000614789600c83613d0d565b915061479482614753565b602082019050919050565b600060208201905081810360008301526147b88161477c565b9050919050565b600081905092915050565b60008190508160005260206000209050919050565b600081546147ec816145b2565b6147f681866147bf565b94506001821660008114614811576001811461482657614859565b60ff1983168652811515820286019350614859565b61482f856147ca565b60005b8381101561485157815481890152600182019150602081019050614832565b838801955050505b50505092915050565b600061486d82613d02565b61487781856147bf565b9350614887818560208601613d1e565b80840191505092915050565b600061489f82856147df565b91506148ab8284614862565b91508190509392505050565b60006040820190506148cc6000830185613e6f565b6148d96020830184613d92565b9392505050565b7f2c7465616d410000000000000000000000000000000000000000000000000000600082015250565b60006149166006836147bf565b9150614921826148e0565b600682019050919050565b60006149388284614862565b915061494382614909565b915081905092915050565b7f2c7465616d420000000000000000000000000000000000000000000000000000600082015250565b60006149846006836147bf565b915061498f8261494e565b600682019050919050565b60006149a68284614862565b91506149b182614977565b915081905092915050565b7f2c64617465000000000000000000000000000000000000000000000000000000600082015250565b60006149f26005836147bf565b91506149fd826149bc565b600582019050919050565b6000614a148284614862565b9150614a1f826149e5565b915081905092915050565b7f496e76616c69642067616d652049440000000000000000000000000000000000600082015250565b6000614a60600f83613d0d565b9150614a6b82614a2a565b602082019050919050565b60006020820190508181036000830152614a8f81614a53565b9050919050565b7f42657420616d6f756e74206d7573742062652067726561746572207468616e2060008201527f7a65726f00000000000000000000000000000000000000000000000000000000602082015250565b6000614af2602483613d0d565b9150614afd82614a96565b604082019050919050565b60006020820190508181036000830152614b2181614ae5565b9050919050565b6000606082019050614b3d60008301866141c0565b614b4a60208301856141c0565b614b576040830184613d92565b949350505050565b614b6881613c69565b8114614b7357600080fd5b50565b600081519050614b8581614b5f565b92915050565b600060208284031215614ba157614ba0613bda565b5b6000614baf84828501614b76565b91505092915050565b7f5472616e73616374696f6e206661696c65640000000000000000000000000000600082015250565b6000614bee601283613d0d565b9150614bf982614bb8565b602082019050919050565b60006020820190508181036000830152614c1d81614be1565b9050919050565b7f47616d652068617320616c726561647920636f6d706c65746564000000000000600082015250565b6000614c5a601a83613d0d565b9150614c6582614c24565b602082019050919050565b60006020820190508181036000830152614c8981614c4d565b9050919050565b7f4e487b7100000000000000000000000000000000000000000000000000000000600052601260045260246000fd5b7f4e487b7100000000000000000000000000000000000000000000000000000000600052601160045260246000fd5b6000614cf982613c9f565b9150614d0483613c9f565b925082614d1457614d13614c90565b5b828204905092915050565b6000614d2a82613c9f565b9150614d3583613c9f565b9250828201905080821115614d4d57614d4c614cbf565b5b92915050565b6000614d5e82613c9f565b9150614d6983613c9f565b9250828203905081811115614d8157614d80614cbf565b5b92915050565b6000614d9282613c9f565b91507fffffffffffffffffffffffffffffffffffffffffffffffffffffffffffffffff8203614dc457614dc3614cbf565b5b600182019050919050565b6000604082019050614de46000830185613d92565b614df16020830184613d92565b9392505050565b7f49535f4e4f545f4d4f445f4f525f41444d494e00000000000000000000000000600082015250565b6000614e2e601383613d0d565b9150614e3982614df8565b602082019050919050565b60006020820190508181036000830152614e5d81614e21565b9050919050565b7f4e487b7100000000000000000000000000000000000000000000000000000000600052603260045260246000fd5b6000614e9e82613c9f565b9150614ea983613c9f565b9250828202614eb781613c9f565b91508282048414831517614ece57614ecd614cbf565b5b5092915050565b6000604082019050614eea60008301856141c0565b614ef76020830184613d92565b9392505050565b60006020601f8301049050919050565b600082821b905092915050565b600060088302614f4b7fffffffffffffffffffffffffffffffffffffffffffffffffffffffffffffffff82614f0e565b614f558683614f0e565b95508019841693508086168417925050509392505050565b6000614f88614f83614f7e84613c9f565b61439b565b613c9f565b9050919050565b6000819050919050565b614fa283614f6d565b614fb6614fae82614f8f565b848454614f1b565b825550505050565b600090565b614fcb614fbe565b614fd6818484614f99565b505050565b5b81811015614ffa57614fef600082614fc3565b600181019050614fdc565b5050565b601f82111561503f57615010816147ca565b61501984614efe565b81016020851015615028578190505b61503c61503485614efe565b830182614fdb565b50505b505050565b600082821c905092915050565b600061506260001984600802615044565b1980831691505092915050565b600061507b8383615051565b9150826002028217905092915050565b61509482613d02565b67ffffffffffffffff8111156150ad576150ac613efc565b5b6150b782546145b2565b6150c2828285614ffe565b600060209050601f8311600181146150f557600084156150e3578287015190505b6150ed858261506f565b865550615155565b601f198416615103866147ca565b60005b8281101561512b57848901518255600182019150602085019450602081019050615106565b868310156151485784890151615144601f891682615051565b8355505b6001600288020188555050505b505050505050565b60006151698284614862565b915081905092915050565b600061517f826143c7565b9050919050565b61518f81615174565b82525050565b60006040820190506151aa6000830185615186565b6151b76020830184613d92565b9392505050565b7f4f776e61626c653a206e6577206f776e657220697320746865207a65726f206160008201527f6464726573730000000000000000000000000000000000000000000000000000602082015250565b600061521a602683613d0d565b9150615225826151be565b604082019050919050565b600060208201905081810360008301526152498161520d565b9050919050565b7f4f776e61626c653a2063616c6c6572206973206e6f7420746865206f776e6572600082015250565b6000615286602083613d0d565b915061529182615250565b602082019050919050565b600060208201905081810360008301526152b581615279565b9050919050565b7f416363657373436f6e74726f6c3a206163636f756e7420000000000000000000600082015250565b60006152f26017836147bf565b91506152fd826152bc565b601782019050919050565b7f206973206d697373696e6720726f6c6520000000000000000000000000000000600082015250565b600061533e6011836147bf565b915061534982615308565b601182019050919050565b600061535f826152e5565b915061536b8285614862565b915061537682615331565b91506153828284614862565b91508190509392505050565b6000819050919050565b60006153a38261538e565b91506153ae8361538e565b92508282039050818112600084121682821360008512151617156153d5576153d4614cbf565b5b92915050565b6153e481613be4565b82525050565b600081519050919050565b600082825260208201905092915050565b6000615411826153ea565b61541b81856153f5565b935061542b818560208601613d1e565b61543481613d48565b840191505092915050565b600061010082019050615455600083018b6141c0565b615462602083018a613d92565b61546f6040830189613e6f565b61547c60608301886141c0565b61548960808301876153db565b61549660a0830186613d92565b6154a360c0830185613d92565b81810360e08301526154b58184615406565b90509998505050505050505050565b60006154cf82613c9f565b9150600082036154e2576154e1614cbf565b5b600182039050919050565b7f537472696e67733a20686578206c656e67746820696e73756666696369656e74600082015250565b6000615523602083613d0d565b915061552e826154ed565b602082019050919050565b6000602082019050818103600083015261555281615516565b9050919050565b600061556482613c9f565b915061556f83613c9f565b92508261557f5761557e614c90565b5b828206905092915050565b6000615595826143c7565b9050919050565b60008160601b9050919050565b60006155b48261559c565b9050919050565b60006155c6826155a9565b9050919050565b6155de6155d98261558a565b6155bb565b82525050565b6000819050919050565b6155ff6155fa82613c9f565b6155e4565b82525050565b600061561182856155cd565b60148201915061562182846155ee565b6020820191508190509392505050565b600060608201905061564660008301866141c0565b6156536020830185613d92565b81810360408301526156658184615406565b9050949350505050565b7f756e61626c6520746f207472616e73666572416e6443616c6c20746f206f726160008201527f636c650000000000000000000000000000000000000000000000000000000000602082015250565b60006156cb602383613d0d565b91506156d68261566f565b604082019050919050565b600060208201905081810360008301526156fa816156be565b9050919050565b60008160011c9050919050565b6000808291508390505b60018511156157585780860481111561573457615733614cbf565b5b60018516156157435780820291505b808102905061575185615701565b9450615718565b94509492505050565b600082615771576001905061582d565b8161577f576000905061582d565b8160018114615795576002811461579f576157ce565b600191505061582d565b60ff8411156157b1576157b0614cbf565b5b8360020a9150848211156157c8576157c7614cbf565b5b5061582d565b5060208310610133831016604e8410600b84101617156158035782820a9050838111156157fe576157fd614cbf565b5b61582d565b615810848484600161570e565b9250905081840481111561582757615826614cbf565b5b81810290505b9392505050565b600061583f82613c9f565b915061584a83613c9f565b92506158777fffffffffffffffffffffffffffffffffffffffffffffffffffffffffffffffff8484615761565b90509291505056fea2646970667358221220401d54e042e91b9ca445add35e4edddad3df4c67aec6b103137d1fd34d61752764736f6c63430008110033",
  "linkReferences": {},
  "deployedLinkReferences": {}
}