{
  "_format": "hh-sol-artifact-1",
  "contractName": "Sports",
  "sourceName": "contracts/Sports.sol",
  "abi": [
    {
      "inputs": [
        {
          "internalType": "address",
          "name": "_chainlinkToken",
          "type": "address"
        },
        {
          "internalType": "address",
          "name": "_chainlinkOracle",
          "type": "address"
        },
        {
          "internalType": "bytes32",
          "name": "_jobIdNumbers",
          "type": "bytes32"
        },
        {
          "internalType": "bytes32",
          "name": "_jobIdMultipleNumbers",
          "type": "bytes32"
        },
        {
          "internalType": "bytes32",
          "name": "_jobIdBytes",
          "type": "bytes32"
        },
        {
          "internalType": "address",
          "name": "_relayer",
          "type": "address"
        },
        {
          "internalType": "address",
          "name": "_usdcContractAddress",
          "type": "address"
        },
        {
          "internalType": "address[]",
          "name": "_mods",
          "type": "address[]"
        },
        {
          "internalType": "address[]",
          "name": "_admins",
          "type": "address[]"
        },
        {
          "internalType": "string[]",
          "name": "_API",
          "type": "string[]"
        }
      ],
      "stateMutability": "nonpayable",
      "type": "constructor"
    },
    {
      "anonymous": false,
      "inputs": [
        {
          "indexed": true,
          "internalType": "uint256",
          "name": "_gameId",
          "type": "uint256"
        },
        {
          "indexed": false,
          "internalType": "uint256",
          "name": "_homeScore",
          "type": "uint256"
        },
        {
          "indexed": false,
          "internalType": "uint256",
          "name": "_awayScore",
          "type": "uint256"
        }
      ],
      "name": "BetCreated",
      "type": "event"
    },
    {
      "anonymous": false,
      "inputs": [
        {
          "indexed": true,
          "internalType": "bytes32",
          "name": "id",
          "type": "bytes32"
        }
      ],
      "name": "ChainlinkCancelled",
      "type": "event"
    },
    {
      "anonymous": false,
      "inputs": [
        {
          "indexed": true,
          "internalType": "bytes32",
          "name": "id",
          "type": "bytes32"
        }
      ],
      "name": "ChainlinkFulfilled",
      "type": "event"
    },
    {
      "anonymous": false,
      "inputs": [
        {
          "indexed": true,
          "internalType": "bytes32",
          "name": "id",
          "type": "bytes32"
        }
      ],
      "name": "ChainlinkRequested",
      "type": "event"
    },
    {
      "anonymous": false,
      "inputs": [
        {
          "indexed": false,
          "internalType": "bytes",
          "name": "_gameTime",
          "type": "bytes"
        },
        {
          "indexed": true,
          "internalType": "bytes",
          "name": "_homeTeam",
          "type": "bytes"
        },
        {
          "indexed": true,
          "internalType": "bytes",
          "name": "_awayTeam",
          "type": "bytes"
        }
      ],
      "name": "GameCreated",
      "type": "event"
    },
    {
      "anonymous": false,
      "inputs": [
        {
          "indexed": true,
          "internalType": "address",
          "name": "previousOwner",
          "type": "address"
        },
        {
          "indexed": true,
          "internalType": "address",
          "name": "newOwner",
          "type": "address"
        }
      ],
      "name": "OwnershipTransferred",
      "type": "event"
    },
    {
      "anonymous": false,
      "inputs": [
        {
          "indexed": false,
          "internalType": "uint256",
          "name": "print",
          "type": "uint256"
        }
      ],
      "name": "Print",
      "type": "event"
    },
    {
      "anonymous": false,
      "inputs": [
        {
          "indexed": true,
          "internalType": "bytes32",
          "name": "requestId",
          "type": "bytes32"
        },
        {
          "indexed": true,
          "internalType": "bytes[]",
          "name": "data",
          "type": "bytes[]"
        }
      ],
      "name": "RequestBytesFulfilled",
      "type": "event"
    },
    {
      "anonymous": false,
      "inputs": [
        {
          "indexed": true,
          "internalType": "bytes32",
          "name": "requestId",
          "type": "bytes32"
        }
      ],
      "name": "RequestBytesSent",
      "type": "event"
    },
    {
      "anonymous": false,
      "inputs": [
        {
          "indexed": true,
          "internalType": "bytes32",
          "name": "requestId",
          "type": "bytes32"
        },
        {
          "indexed": false,
          "internalType": "uint256",
          "name": "random",
          "type": "uint256"
        }
      ],
      "name": "RequestNumberFulfilled",
      "type": "event"
    },
    {
      "anonymous": false,
      "inputs": [
        {
          "indexed": true,
          "internalType": "bytes32",
          "name": "requestId",
          "type": "bytes32"
        }
      ],
      "name": "RequestNumberSent",
      "type": "event"
    },
    {
      "anonymous": false,
      "inputs": [
        {
          "indexed": true,
          "internalType": "bytes32",
          "name": "requestId",
          "type": "bytes32"
        },
        {
          "indexed": false,
          "internalType": "uint256",
          "name": "TeamA",
          "type": "uint256"
        },
        {
          "indexed": false,
          "internalType": "uint256",
          "name": "TeamB",
          "type": "uint256"
        }
      ],
      "name": "RequestResultFulfilled",
      "type": "event"
    },
    {
      "anonymous": false,
      "inputs": [
        {
          "indexed": true,
          "internalType": "bytes32",
          "name": "requestId",
          "type": "bytes32"
        }
      ],
      "name": "RequestResultSent",
      "type": "event"
    },
    {
      "anonymous": false,
      "inputs": [
        {
          "indexed": true,
          "internalType": "bytes32",
          "name": "role",
          "type": "bytes32"
        },
        {
          "indexed": true,
          "internalType": "bytes32",
          "name": "previousAdminRole",
          "type": "bytes32"
        },
        {
          "indexed": true,
          "internalType": "bytes32",
          "name": "newAdminRole",
          "type": "bytes32"
        }
      ],
      "name": "RoleAdminChanged",
      "type": "event"
    },
    {
      "anonymous": false,
      "inputs": [
        {
          "indexed": true,
          "internalType": "bytes32",
          "name": "role",
          "type": "bytes32"
        },
        {
          "indexed": true,
          "internalType": "address",
          "name": "account",
          "type": "address"
        },
        {
          "indexed": true,
          "internalType": "address",
          "name": "sender",
          "type": "address"
        }
      ],
      "name": "RoleGranted",
      "type": "event"
    },
    {
      "anonymous": false,
      "inputs": [
        {
          "indexed": true,
          "internalType": "bytes32",
          "name": "role",
          "type": "bytes32"
        },
        {
          "indexed": true,
          "internalType": "address",
          "name": "account",
          "type": "address"
        },
        {
          "indexed": true,
          "internalType": "address",
          "name": "sender",
          "type": "address"
        }
      ],
      "name": "RoleRevoked",
      "type": "event"
    },
    {
      "inputs": [],
      "name": "DEFAULT_ADMIN_ROLE",
      "outputs": [
        {
          "internalType": "bytes32",
          "name": "",
          "type": "bytes32"
        }
      ],
      "stateMutability": "view",
      "type": "function"
    },
    {
      "inputs": [],
      "name": "USDc",
      "outputs": [
        {
          "internalType": "contract USDC",
          "name": "",
          "type": "address"
        }
      ],
      "stateMutability": "view",
      "type": "function"
    },
    {
      "inputs": [
        {
          "internalType": "bytes",
          "name": "_homeTeam",
          "type": "bytes"
        },
        {
          "internalType": "bytes",
          "name": "_homeTeamImage",
          "type": "bytes"
        },
        {
          "internalType": "bytes",
          "name": "_awayTeam",
          "type": "bytes"
        },
        {
          "internalType": "bytes",
          "name": "_awayTeamImage",
          "type": "bytes"
        },
        {
          "internalType": "bytes",
          "name": "_gameTime",
          "type": "bytes"
        }
      ],
      "name": "addGame",
      "outputs": [],
      "stateMutability": "nonpayable",
      "type": "function"
    },
    {
      "inputs": [],
      "name": "addGamesFromAPI",
      "outputs": [],
      "stateMutability": "nonpayable",
      "type": "function"
    },
    {
      "inputs": [
        {
          "internalType": "uint256",
          "name": "_gameId",
          "type": "uint256"
        }
      ],
      "name": "addResultsFromAPI",
      "outputs": [],
      "stateMutability": "nonpayable",
      "type": "function"
    },
    {
      "inputs": [
        {
          "internalType": "uint256",
          "name": "",
          "type": "uint256"
        },
        {
          "internalType": "uint256",
          "name": "",
          "type": "uint256"
        }
      ],
      "name": "betsByGame",
      "outputs": [
        {
          "internalType": "address",
          "name": "user",
          "type": "address"
        },
        {
          "internalType": "uint256",
          "name": "gameId",
          "type": "uint256"
        },
        {
          "internalType": "uint256",
          "name": "amount",
          "type": "uint256"
        },
        {
          "internalType": "uint256",
          "name": "homeScore",
          "type": "uint256"
        },
        {
          "internalType": "uint256",
          "name": "awayScore",
          "type": "uint256"
        },
        {
          "internalType": "bool",
          "name": "betWon",
          "type": "bool"
        },
        {
          "internalType": "bool",
          "name": "betCompleted",
          "type": "bool"
        }
      ],
      "stateMutability": "view",
      "type": "function"
    },
    {
      "inputs": [
        {
          "internalType": "bytes32",
          "name": "requestId",
          "type": "bytes32"
        },
        {
          "internalType": "bytes[]",
          "name": "_arrayOfBytes",
          "type": "bytes[]"
        }
      ],
      "name": "fulfillBytesArray",
      "outputs": [],
      "stateMutability": "nonpayable",
      "type": "function"
    },
    {
      "inputs": [
        {
          "internalType": "bytes32",
          "name": "_requestId",
          "type": "bytes32"
        },
        {
          "internalType": "uint256",
          "name": "_number",
          "type": "uint256"
        }
      ],
      "name": "fulfillNumber",
      "outputs": [],
      "stateMutability": "nonpayable",
      "type": "function"
    },
    {
      "inputs": [
        {
          "internalType": "bytes32",
          "name": "requestId",
          "type": "bytes32"
        },
        {
          "internalType": "uint256",
          "name": "_teamA",
          "type": "uint256"
        },
        {
          "internalType": "uint256",
          "name": "_teamB",
          "type": "uint256"
        }
      ],
      "name": "fulfillResults",
      "outputs": [],
      "stateMutability": "nonpayable",
      "type": "function"
    },
    {
      "inputs": [],
      "name": "gameCount",
      "outputs": [
        {
          "internalType": "uint256",
          "name": "",
          "type": "uint256"
        }
      ],
      "stateMutability": "view",
      "type": "function"
    },
    {
      "inputs": [
        {
          "internalType": "uint256",
          "name": "",
          "type": "uint256"
        }
      ],
      "name": "games",
      "outputs": [
        {
          "internalType": "bytes",
          "name": "homeTeam",
          "type": "bytes"
        },
        {
          "internalType": "bytes",
          "name": "homeTeamImage",
          "type": "bytes"
        },
        {
          "internalType": "bytes",
          "name": "awayTeam",
          "type": "bytes"
        },
        {
          "internalType": "bytes",
          "name": "awayTeamImage",
          "type": "bytes"
        },
        {
          "internalType": "bytes",
          "name": "gameTime",
          "type": "bytes"
        },
        {
          "internalType": "uint256",
          "name": "homeScore",
          "type": "uint256"
        },
        {
          "internalType": "uint256",
          "name": "awayScore",
          "type": "uint256"
        },
        {
          "internalType": "bool",
          "name": "gameCompleted",
          "type": "bool"
        },
        {
          "internalType": "uint256",
          "name": "lotteryPool",
          "type": "uint256"
        },
        {
          "internalType": "uint256",
          "name": "betsCount",
          "type": "uint256"
        },
        {
          "internalType": "uint256",
          "name": "betsAmount",
          "type": "uint256"
        }
      ],
      "stateMutability": "view",
      "type": "function"
    },
    {
      "inputs": [
        {
          "internalType": "bytes32",
          "name": "role",
          "type": "bytes32"
        }
      ],
      "name": "getRoleAdmin",
      "outputs": [
        {
          "internalType": "bytes32",
          "name": "",
          "type": "bytes32"
        }
      ],
      "stateMutability": "view",
      "type": "function"
    },
    {
      "inputs": [
        {
          "internalType": "bytes32",
          "name": "role",
          "type": "bytes32"
        },
        {
          "internalType": "address",
          "name": "account",
          "type": "address"
        }
      ],
      "name": "grantRole",
      "outputs": [],
      "stateMutability": "nonpayable",
      "type": "function"
    },
    {
      "inputs": [
        {
          "internalType": "bytes32",
          "name": "role",
          "type": "bytes32"
        },
        {
          "internalType": "address",
          "name": "account",
          "type": "address"
        }
      ],
      "name": "hasRole",
      "outputs": [
        {
          "internalType": "bool",
          "name": "",
          "type": "bool"
        }
      ],
      "stateMutability": "view",
      "type": "function"
    },
    {
      "inputs": [
        {
          "internalType": "uint256",
          "name": "",
          "type": "uint256"
        },
        {
          "internalType": "uint256",
          "name": "",
          "type": "uint256"
        }
      ],
      "name": "loosersByGame",
      "outputs": [
        {
          "internalType": "address",
          "name": "user",
          "type": "address"
        },
        {
          "internalType": "uint256",
          "name": "gameId",
          "type": "uint256"
        },
        {
          "internalType": "uint256",
          "name": "amount",
          "type": "uint256"
        },
        {
          "internalType": "uint256",
          "name": "homeScore",
          "type": "uint256"
        },
        {
          "internalType": "uint256",
          "name": "awayScore",
          "type": "uint256"
        },
        {
          "internalType": "bool",
          "name": "betWon",
          "type": "bool"
        },
        {
          "internalType": "bool",
          "name": "betCompleted",
          "type": "bool"
        }
      ],
      "stateMutability": "view",
      "type": "function"
    },
    {
      "inputs": [
        {
          "internalType": "uint256",
          "name": "_gameId",
          "type": "uint256"
        },
        {
          "internalType": "uint256",
          "name": "_homeScore",
          "type": "uint256"
        },
        {
          "internalType": "uint256",
          "name": "_awayScore",
          "type": "uint256"
        },
        {
          "internalType": "uint256",
          "name": "_USDCamount",
          "type": "uint256"
        }
      ],
      "name": "makeBet",
      "outputs": [],
      "stateMutability": "nonpayable",
      "type": "function"
    },
    {
      "inputs": [],
      "name": "owner",
      "outputs": [
        {
          "internalType": "address",
          "name": "",
          "type": "address"
        }
      ],
      "stateMutability": "view",
      "type": "function"
    },
    {
      "inputs": [],
      "name": "renounceOwnership",
      "outputs": [],
      "stateMutability": "nonpayable",
      "type": "function"
    },
    {
      "inputs": [
        {
          "internalType": "bytes32",
          "name": "role",
          "type": "bytes32"
        },
        {
          "internalType": "address",
          "name": "account",
          "type": "address"
        }
      ],
      "name": "renounceRole",
      "outputs": [],
      "stateMutability": "nonpayable",
      "type": "function"
    },
    {
      "inputs": [
        {
          "internalType": "bytes32",
          "name": "role",
          "type": "bytes32"
        },
        {
          "internalType": "address",
          "name": "account",
          "type": "address"
        }
      ],
      "name": "revokeRole",
      "outputs": [],
      "stateMutability": "nonpayable",
      "type": "function"
    },
    {
      "inputs": [
        {
          "internalType": "bytes4",
          "name": "interfaceId",
          "type": "bytes4"
        }
      ],
      "name": "supportsInterface",
      "outputs": [
        {
          "internalType": "bool",
          "name": "",
          "type": "bool"
        }
      ],
      "stateMutability": "view",
      "type": "function"
    },
    {
      "inputs": [
        {
          "internalType": "uint256",
          "name": "_amount",
          "type": "uint256"
        },
        {
          "internalType": "address payable",
          "name": "destination",
          "type": "address"
        }
      ],
      "name": "transferFunds",
      "outputs": [],
      "stateMutability": "nonpayable",
      "type": "function"
    },
    {
      "inputs": [
        {
          "internalType": "address",
          "name": "newOwner",
          "type": "address"
        }
      ],
      "name": "transferOwnership",
      "outputs": [],
      "stateMutability": "nonpayable",
      "type": "function"
    },
    {
      "inputs": [
        {
          "internalType": "bytes32",
          "name": "_newJobIdBytes",
          "type": "bytes32"
        }
      ],
      "name": "updateChainlinkJobIdBytes",
      "outputs": [],
      "stateMutability": "nonpayable",
      "type": "function"
    },
    {
      "inputs": [
        {
          "internalType": "bytes32",
          "name": "_newJobIdMultipleNumbers",
          "type": "bytes32"
        }
      ],
      "name": "updateChainlinkJobIdMultipleNumbers",
      "outputs": [],
      "stateMutability": "nonpayable",
      "type": "function"
    },
    {
      "inputs": [
        {
          "internalType": "bytes32",
          "name": "_newJobIdNumbers",
          "type": "bytes32"
        }
      ],
      "name": "updateChainlinkJobIdNumbers",
      "outputs": [],
      "stateMutability": "nonpayable",
      "type": "function"
    },
    {
      "inputs": [
        {
          "internalType": "string",
          "name": "_newUrl",
          "type": "string"
        }
      ],
      "name": "updateNumberAPI",
      "outputs": [],
      "stateMutability": "nonpayable",
      "type": "function"
    },
    {
      "inputs": [
        {
          "internalType": "address",
          "name": "_newRelayer",
          "type": "address"
        }
      ],
      "name": "updateRelayer",
      "outputs": [],
      "stateMutability": "nonpayable",
      "type": "function"
    }
  ],
  "bytecode": "0x608060405260016004553480156200001657600080fd5b5060405162006db938038062006db983398181016040528101906200003c91906200096b565b6200005c62000050620002b360201b60201c565b620002bb60201b60201c565b6200006d8a6200038160201b60201c565b6200007e89620003c560201b60201c565b87600f819055508560108190555086601181905550600a670de0b6b3a76400006001620000ac919062000af7565b620000b8919062000b71565b60128190555083601560006101000a81548173ffffffffffffffffffffffffffffffffffffffff021916908373ffffffffffffffffffffffffffffffffffffffff16021790555060005b83518110156200016f576200015b7f950b8f2d7415defaee398bb4898e8e094a64c725873b81952b7ab9f08d70efb385838151811062000147576200014662000ba9565b5b60200260200101516200040960201b60201c565b80620001679062000bd8565b905062000102565b5060005b8251811015620001e057620001cc7fa49807205ce4d355092ef5a8a18f56e8913cf4a201fbe287825b095693c21775848381518110620001b857620001b762000ba9565b5b60200260200101516200040960201b60201c565b80620001d89062000bd8565b905062000173565b50620002137fab4f864e5201b0fde9b5ee3e4cf96384802b0ffdfcf7f9de4699ce21a30afc4f866200040960201b60201c565b806000815181106200022a576200022962000ba9565b5b6020026020010151600c908162000242919062000e66565b50806001815181106200025a576200025962000ba9565b5b6020026020010151600d908162000272919062000e66565b50806002815181106200028a576200028962000ba9565b5b6020026020010151600e9081620002a2919062000e66565b505050505050505050505062000f4d565b600033905090565b6000600660009054906101000a900473ffffffffffffffffffffffffffffffffffffffff16905081600660006101000a81548173ffffffffffffffffffffffffffffffffffffffff021916908373ffffffffffffffffffffffffffffffffffffffff1602179055508173ffffffffffffffffffffffffffffffffffffffff168173ffffffffffffffffffffffffffffffffffffffff167f8be0079c531659141344cd1fd0a4f28419497f9722a3daafe3b4186f6b6457e060405160405180910390a35050565b80600260006101000a81548173ffffffffffffffffffffffffffffffffffffffff021916908373ffffffffffffffffffffffffffffffffffffffff16021790555050565b80600360006101000a81548173ffffffffffffffffffffffffffffffffffffffff021916908373ffffffffffffffffffffffffffffffffffffffff16021790555050565b6200041b8282620004fb60201b60201c565b620004f75760016007600084815260200190815260200160002060000160008373ffffffffffffffffffffffffffffffffffffffff1673ffffffffffffffffffffffffffffffffffffffff16815260200190815260200160002060006101000a81548160ff0219169083151502179055506200049c620002b360201b60201c565b73ffffffffffffffffffffffffffffffffffffffff168173ffffffffffffffffffffffffffffffffffffffff16837f2f8788117e7eff1d82e926ec794901d17c78024a50270940304540a733656f0d60405160405180910390a45b5050565b60006007600084815260200190815260200160002060000160008373ffffffffffffffffffffffffffffffffffffffff1673ffffffffffffffffffffffffffffffffffffffff16815260200190815260200160002060009054906101000a900460ff16905092915050565b6000604051905090565b600080fd5b600080fd5b600073ffffffffffffffffffffffffffffffffffffffff82169050919050565b6000620005a7826200057a565b9050919050565b620005b9816200059a565b8114620005c557600080fd5b50565b600081519050620005d981620005ae565b92915050565b6000819050919050565b620005f481620005df565b81146200060057600080fd5b50565b6000815190506200061481620005e9565b92915050565b600080fd5b6000601f19601f8301169050919050565b7f4e487b7100000000000000000000000000000000000000000000000000000000600052604160045260246000fd5b6200066a826200061f565b810181811067ffffffffffffffff821117156200068c576200068b62000630565b5b80604052505050565b6000620006a162000566565b9050620006af82826200065f565b919050565b600067ffffffffffffffff821115620006d257620006d162000630565b5b602082029050602081019050919050565b600080fd5b6000620006ff620006f984620006b4565b62000695565b90508083825260208201905060208402830185811115620007255762000724620006e3565b5b835b818110156200075257806200073d8882620005c8565b84526020840193505060208101905062000727565b5050509392505050565b600082601f8301126200077457620007736200061a565b5b815162000786848260208601620006e8565b91505092915050565b600067ffffffffffffffff821115620007ad57620007ac62000630565b5b602082029050602081019050919050565b600080fd5b600067ffffffffffffffff821115620007e157620007e062000630565b5b620007ec826200061f565b9050602081019050919050565b60005b8381101562000819578082015181840152602081019050620007fc565b60008484015250505050565b60006200083c6200083684620007c3565b62000695565b9050828152602081018484840111156200085b576200085a620007be565b5b62000868848285620007f9565b509392505050565b600082601f8301126200088857620008876200061a565b5b81516200089a84826020860162000825565b91505092915050565b6000620008ba620008b4846200078f565b62000695565b90508083825260208201905060208402830185811115620008e057620008df620006e3565b5b835b818110156200092e57805167ffffffffffffffff8111156200090957620009086200061a565b5b80860162000918898262000870565b85526020850194505050602081019050620008e2565b5050509392505050565b600082601f83011262000950576200094f6200061a565b5b815162000962848260208601620008a3565b91505092915050565b6000806000806000806000806000806101408b8d03121562000992576200099162000570565b5b6000620009a28d828e01620005c8565b9a50506020620009b58d828e01620005c8565b9950506040620009c88d828e0162000603565b9850506060620009db8d828e0162000603565b9750506080620009ee8d828e0162000603565b96505060a062000a018d828e01620005c8565b95505060c062000a148d828e01620005c8565b94505060e08b015167ffffffffffffffff81111562000a385762000a3762000575565b5b62000a468d828e016200075c565b9350506101008b015167ffffffffffffffff81111562000a6b5762000a6a62000575565b5b62000a798d828e016200075c565b9250506101208b015167ffffffffffffffff81111562000a9e5762000a9d62000575565b5b62000aac8d828e0162000938565b9150509295989b9194979a5092959850565b6000819050919050565b7f4e487b7100000000000000000000000000000000000000000000000000000000600052601160045260246000fd5b600062000b048262000abe565b915062000b118362000abe565b925082820262000b218162000abe565b9150828204841483151762000b3b5762000b3a62000ac8565b5b5092915050565b7f4e487b7100000000000000000000000000000000000000000000000000000000600052601260045260246000fd5b600062000b7e8262000abe565b915062000b8b8362000abe565b92508262000b9e5762000b9d62000b42565b5b828204905092915050565b7f4e487b7100000000000000000000000000000000000000000000000000000000600052603260045260246000fd5b600062000be58262000abe565b91507fffffffffffffffffffffffffffffffffffffffffffffffffffffffffffffffff820362000c1a5762000c1962000ac8565b5b600182019050919050565b600081519050919050565b7f4e487b7100000000000000000000000000000000000000000000000000000000600052602260045260246000fd5b6000600282049050600182168062000c7857607f821691505b60208210810362000c8e5762000c8d62000c30565b5b50919050565b60008190508160005260206000209050919050565b60006020601f8301049050919050565b600082821b905092915050565b60006008830262000cf87fffffffffffffffffffffffffffffffffffffffffffffffffffffffffffffffff8262000cb9565b62000d04868362000cb9565b95508019841693508086168417925050509392505050565b6000819050919050565b600062000d4762000d4162000d3b8462000abe565b62000d1c565b62000abe565b9050919050565b6000819050919050565b62000d638362000d26565b62000d7b62000d728262000d4e565b84845462000cc6565b825550505050565b600090565b62000d9262000d83565b62000d9f81848462000d58565b505050565b5b8181101562000dc75762000dbb60008262000d88565b60018101905062000da5565b5050565b601f82111562000e165762000de08162000c94565b62000deb8462000ca9565b8101602085101562000dfb578190505b62000e1362000e0a8562000ca9565b83018262000da4565b50505b505050565b600082821c905092915050565b600062000e3b6000198460080262000e1b565b1980831691505092915050565b600062000e56838362000e28565b9150826002028217905092915050565b62000e718262000c25565b67ffffffffffffffff81111562000e8d5762000e8c62000630565b5b62000e99825462000c5f565b62000ea682828562000dcb565b600060209050601f83116001811462000ede576000841562000ec9578287015190505b62000ed5858262000e48565b86555062000f45565b601f19841662000eee8662000c94565b60005b8281101562000f185784890151825560018201915060208501945060208101905062000ef1565b8683101562000f38578489015162000f34601f89168262000e28565b8355505b6001600288020188555050505b505050505050565b615e5c8062000f5d6000396000f3fe608060405234801561001057600080fd5b50600436106101c45760003560e01c806391d14854116100f9578063c06de5c411610097578063ee0f45ff11610071578063ee0f45ff146104c1578063f08e362f146104f7578063f2fde38b14610513578063f9ace24e1461052f576101c4565b8063c06de5c41461046d578063d547741f14610489578063e5a2a1f8146104a5576101c4565b8063a217fddf116100d3578063a217fddf146103f9578063ade3778a14610417578063afcc4ad514610433578063bfd5c6df14610451576101c4565b806391d14854146103a357806399befd53146103d3578063a063e9fb146103dd576101c4565b80634ba5eb4b11610166578063708d90d611610140578063708d90d614610343578063715018a61461035f5780638da5cb5b146103695780638f83ab1314610387576101c4565b80634ba5eb4b146102ed5780634d1975b414610309578063581fab2614610327576101c4565b80632f2ff15d116101a25780632f2ff15d1461026357806330f11a0c1461027f57806336568abe1461029b5780633b6e6f1b146102b7576101c4565b806301ffc9a7146101c9578063117a5b90146101f9578063248a9ca314610233575b600080fd5b6101e360048036038101906101de9190613e11565b61054b565b6040516101f09190613e59565b60405180910390f35b610213600480360381019061020e9190613eaa565b6105c5565b60405161022a9b9a99989796959493929190613f76565b60405180910390f35b61024d6004803603810190610248919061407a565b6108d4565b60405161025a91906140b6565b60405180910390f35b61027d6004803603810190610278919061412f565b6108f4565b005b6102996004803603810190610294919061407a565b610915565b005b6102b560048036038101906102b0919061412f565b6109c5565b005b6102d160048036038101906102cc919061416f565b610a48565b6040516102e497969594939291906141be565b60405180910390f35b6103076004803603810190610302919061407a565b610ad1565b005b610311610b81565b60405161031e919061422d565b60405180910390f35b610341600480360381019061033c919061437d565b610b87565b005b61035d60048036038101906103589190614484565b610d38565b005b610367610e8a565b005b610371610e9e565b60405161037e91906144d7565b60405180910390f35b6103a1600480360381019061039c91906144f2565b610ec8565b005b6103bd60048036038101906103b8919061412f565b610f9b565b6040516103ca9190613e59565b60405180910390f35b6103db611006565b005b6103f760048036038101906103f2919061451f565b61122d565b005b610401611650565b60405161040e91906140b6565b60405180910390f35b610431600480360381019061042c9190614586565b611657565b005b61043b6118b7565b6040516104489190614625565b60405180910390f35b61046b600480360381019061046691906146e1565b6118dd565b005b6104876004803603810190610482919061407a565b611996565b005b6104a3600480360381019061049e919061412f565b611a46565b005b6104bf60048036038101906104ba9190614810565b611a67565b005b6104db60048036038101906104d6919061416f565b611c48565b6040516104ee97969594939291906141be565b60405180910390f35b610511600480360381019061050c91906148aa565b611cd1565b005b61052d600480360381019061052891906144f2565b611d7e565b005b61054960048036038101906105449190613eaa565b611e01565b005b60007f7965db0b000000000000000000000000000000000000000000000000000000007bffffffffffffffffffffffffffffffffffffffffffffffffffffffff1916827bffffffffffffffffffffffffffffffffffffffffffffffffffffffff191614806105be57506105bd826120be565b5b9050919050565b600a6020528060005260406000206000915090508060000180546105e890614919565b80601f016020809104026020016040519081016040528092919081815260200182805461061490614919565b80156106615780601f1061063657610100808354040283529160200191610661565b820191906000526020600020905b81548152906001019060200180831161064457829003601f168201915b50505050509080600101805461067690614919565b80601f01602080910402602001604051908101604052809291908181526020018280546106a290614919565b80156106ef5780601f106106c4576101008083540402835291602001916106ef565b820191906000526020600020905b8154815290600101906020018083116106d257829003601f168201915b50505050509080600201805461070490614919565b80601f016020809104026020016040519081016040528092919081815260200182805461073090614919565b801561077d5780601f106107525761010080835404028352916020019161077d565b820191906000526020600020905b81548152906001019060200180831161076057829003601f168201915b50505050509080600301805461079290614919565b80601f01602080910402602001604051908101604052809291908181526020018280546107be90614919565b801561080b5780601f106107e05761010080835404028352916020019161080b565b820191906000526020600020905b8154815290600101906020018083116107ee57829003601f168201915b50505050509080600401805461082090614919565b80601f016020809104026020016040519081016040528092919081815260200182805461084c90614919565b80156108995780601f1061086e57610100808354040283529160200191610899565b820191906000526020600020905b81548152906001019060200180831161087c57829003601f168201915b5050505050908060050154908060060154908060070160009054906101000a900460ff169080600801549080600901549080600a015490508b565b600060076000838152602001908152602001600020600101549050919050565b6108fd826108d4565b61090681612128565b610910838361213c565b505050565b61093f7fa49807205ce4d355092ef5a8a18f56e8913cf4a201fbe287825b095693c2177533610f9b565b8061097c575061094d610e9e565b73ffffffffffffffffffffffffffffffffffffffff163373ffffffffffffffffffffffffffffffffffffffff16145b6109bb576040517f08c379a00000000000000000000000000000000000000000000000000000000081526004016109b2906149a7565b60405180910390fd5b8060118190555050565b6109cd61221d565b73ffffffffffffffffffffffffffffffffffffffff168173ffffffffffffffffffffffffffffffffffffffff1614610a3a576040517f08c379a0000000000000000000000000000000000000000000000000000000008152600401610a3190614a39565b60405180910390fd5b610a448282612225565b5050565b6008602052816000526040600020602052806000526040600020600091509150508060000160009054906101000a900473ffffffffffffffffffffffffffffffffffffffff16908060010154908060020154908060030154908060040154908060050160009054906101000a900460ff16908060050160019054906101000a900460ff16905087565b610afb7fa49807205ce4d355092ef5a8a18f56e8913cf4a201fbe287825b095693c2177533610f9b565b80610b385750610b09610e9e565b73ffffffffffffffffffffffffffffffffffffffff163373ffffffffffffffffffffffffffffffffffffffff16145b610b77576040517f08c379a0000000000000000000000000000000000000000000000000000000008152600401610b6e906149a7565b60405180910390fd5b80600f8190555050565b600b5481565b604051806101600160405280868152602001858152602001838152602001848152602001828152602001600081526020016000815260200160001515815260200160008152602001600081526020016000815250600a6000600b5481526020019081526020016000206000820151816000019081610c059190614bfb565b506020820151816001019081610c1b9190614bfb565b506040820151816002019081610c319190614bfb565b506060820151816003019081610c479190614bfb565b506080820151816004019081610c5d9190614bfb565b5060a0820151816005015560c0820151816006015560e08201518160070160006101000a81548160ff0219169083151502179055506101008201518160080155610120820151816009015561014082015181600a0155905050600b6000815480929190610cc990614cfc565b919050555082604051610cdc9190614d80565b604051809103902085604051610cf29190614d80565b60405180910390207f77191e0d0f58febc4c0d721e40183a0a4742b9b53af57cd3bde8468cd27118c183604051610d299190614d97565b60405180910390a35050505050565b826005600082815260200190815260200160002060009054906101000a900473ffffffffffffffffffffffffffffffffffffffff1673ffffffffffffffffffffffffffffffffffffffff163373ffffffffffffffffffffffffffffffffffffffff1614610dda576040517f08c379a0000000000000000000000000000000000000000000000000000000008152600401610dd190614e2b565b60405180910390fd5b6005600082815260200190815260200160002060006101000a81549073ffffffffffffffffffffffffffffffffffffffff0219169055807f7cc135e0cebb02c3480ae5d74d377283180a2601f8f644edf7987b009316c63a60405160405180910390a2837f278d18a75e865cf3e726d05a02b077061926492380d35c05f56555a5e7b3e7df8484604051610e6f929190614e4b565b60405180910390a2610e846014548484612307565b50505050565b610e92612a02565b610e9c6000612a80565b565b6000600660009054906101000a900473ffffffffffffffffffffffffffffffffffffffff16905090565b610ef27fa49807205ce4d355092ef5a8a18f56e8913cf4a201fbe287825b095693c2177533610f9b565b80610f2f5750610f00610e9e565b73ffffffffffffffffffffffffffffffffffffffff163373ffffffffffffffffffffffffffffffffffffffff16145b610f6e576040517f08c379a0000000000000000000000000000000000000000000000000000000008152600401610f65906149a7565b60405180910390fd5b610f987fab4f864e5201b0fde9b5ee3e4cf96384802b0ffdfcf7f9de4699ce21a30afc4f8261213c565b50565b60006007600084815260200190815260200160002060000160008373ffffffffffffffffffffffffffffffffffffffff1673ffffffffffffffffffffffffffffffffffffffff16815260200190815260200160002060009054906101000a900460ff16905092915050565b6110307fab4f864e5201b0fde9b5ee3e4cf96384802b0ffdfcf7f9de4699ce21a30afc4f33610f9b565b8061106d575061103e610e9e565b73ffffffffffffffffffffffffffffffffffffffff163373ffffffffffffffffffffffffffffffffffffffff16145b6110ac576040517f08c379a00000000000000000000000000000000000000000000000000000000081526004016110a390614ec0565b60405180910390fd5b60006110c26010543063e5a2a1f860e01b612b46565b90506111986040518060400160405280600381526020017f6765740000000000000000000000000000000000000000000000000000000000815250600d805461110a90614919565b80601f016020809104026020016040519081016040528092919081815260200182805461113690614919565b80156111835780601f1061115857610100808354040283529160200191611183565b820191906000526020600020905b81548152906001019060200180831161116657829003601f168201915b505050505083612b779092919063ffffffff16565b6111ec6040518060400160405280600481526020017f70617468000000000000000000000000000000000000000000000000000000008152506111dc600b54612baa565b83612b779092919063ffffffff16565b60006111fa82601254612c78565b9050807fd7b8242f7efe54cbffbcb9ab3cab3bd45981f49ab301d6b839ed011d0b31667360405160405180910390a25050565b600b548410611271576040517f08c379a000000000000000000000000000000000000000000000000000000000815260040161126890614f2c565b60405180910390fd5b600081116112b4576040517f08c379a00000000000000000000000000000000000000000000000000000000081526004016112ab90614fbe565b60405180910390fd5b6000601560009054906101000a900473ffffffffffffffffffffffffffffffffffffffff1673ffffffffffffffffffffffffffffffffffffffff166323b872dd3330856040518463ffffffff1660e01b815260040161131593929190614fde565b6020604051808303816000875af1158015611334573d6000803e3d6000fd5b505050506040513d601f19601f820116820180604052508101906113589190615041565b90508061139a576040517f08c379a0000000000000000000000000000000000000000000000000000000008152600401611391906150ba565b60405180910390fd5b600a600086815260200190815260200160002060070160009054906101000a900460ff16156113fe576040517f08c379a00000000000000000000000000000000000000000000000000000000081526004016113f590615126565b60405180910390fd5b600060148361140d9190615175565b9050600060058461141e9190615175565b905080600a6000898152602001908152602001600020600801600082825461144691906151a6565b9250508190555080828561145a91906151da565b61146491906151da565b600a6000898152602001908152602001600020600a01600082825461148991906151a6565b925050819055506040518060e001604052803373ffffffffffffffffffffffffffffffffffffffff1681526020018881526020018284876114ca91906151da565b6114d491906151da565b815260200187815260200186815260200160001515815260200160001515815250600860008981526020019081526020016000206000600a60008b815260200190815260200160002060090154815260200190815260200160002060008201518160000160006101000a81548173ffffffffffffffffffffffffffffffffffffffff021916908373ffffffffffffffffffffffffffffffffffffffff1602179055506020820151816001015560408201518160020155606082015181600301556080820151816004015560a08201518160050160006101000a81548160ff02191690831515021790555060c08201518160050160016101000a81548160ff021916908315150217905550905050600a6000888152602001908152602001600020600901600081548092919061160890614cfc565b9190505550867fbb79d51f1411ca03952954c866d22ae3532b227b2cf62e257cf182397a647173878760405161163f929190614e4b565b60405180910390a250505050505050565b6000801b81565b816005600082815260200190815260200160002060009054906101000a900473ffffffffffffffffffffffffffffffffffffffff1673ffffffffffffffffffffffffffffffffffffffff163373ffffffffffffffffffffffffffffffffffffffff16146116f9576040517f08c379a00000000000000000000000000000000000000000000000000000000081526004016116f090614e2b565b60405180910390fd5b6005600082815260200190815260200160002060006101000a81549073ffffffffffffffffffffffffffffffffffffffff0219169055807f7cc135e0cebb02c3480ae5d74d377283180a2601f8f644edf7987b009316c63a60405160405180910390a2827f56674309f088f07dcc038cf9f886d47b6d58c2aee17422468a7c223cc0839a028360405161178c919061422d565b60405180910390a281601381905550600182146118b257601560009054906101000a900473ffffffffffffffffffffffffffffffffffffffff1673ffffffffffffffffffffffffffffffffffffffff1663a9059cbb600960006014548152602001908152602001600020600060018661180591906151da565b815260200190815260200160002060000160009054906101000a900473ffffffffffffffffffffffffffffffffffffffff16600a60006014548152602001908152602001600020600801546040518363ffffffff1660e01b815260040161186d92919061520e565b6020604051808303816000875af115801561188c573d6000803e3d6000fd5b505050506040513d601f19601f820116820180604052508101906118b09190615041565b505b505050565b601560009054906101000a900473ffffffffffffffffffffffffffffffffffffffff1681565b6119077fa49807205ce4d355092ef5a8a18f56e8913cf4a201fbe287825b095693c2177533610f9b565b806119445750611915610e9e565b73ffffffffffffffffffffffffffffffffffffffff163373ffffffffffffffffffffffffffffffffffffffff16145b611983576040517f08c379a000000000000000000000000000000000000000000000000000000000815260040161197a906149a7565b60405180910390fd5b80600c9081611992919061529d565b5050565b6119c07fa49807205ce4d355092ef5a8a18f56e8913cf4a201fbe287825b095693c2177533610f9b565b806119fd57506119ce610e9e565b73ffffffffffffffffffffffffffffffffffffffff163373ffffffffffffffffffffffffffffffffffffffff16145b611a3c576040517f08c379a0000000000000000000000000000000000000000000000000000000008152600401611a33906149a7565b60405180910390fd5b8060108190555050565b611a4f826108d4565b611a5881612128565b611a628383612225565b505050565b816005600082815260200190815260200160002060009054906101000a900473ffffffffffffffffffffffffffffffffffffffff1673ffffffffffffffffffffffffffffffffffffffff163373ffffffffffffffffffffffffffffffffffffffff1614611b09576040517f08c379a0000000000000000000000000000000000000000000000000000000008152600401611b0090614e2b565b60405180910390fd5b6005600082815260200190815260200160002060006101000a81549073ffffffffffffffffffffffffffffffffffffffff0219169055807f7cc135e0cebb02c3480ae5d74d377283180a2601f8f644edf7987b009316c63a60405160405180910390a281604051611b7a9190615458565b6040518091039020837f5a57b85ff6e2f515bf4fbf834a27cec6083d7baf9eff5bbcce49d75d4c44ce3e60405160405180910390a3611c4382600081518110611bc657611bc561546f565b5b602002602001015183600181518110611be257611be161546f565b5b602002602001015184600281518110611bfe57611bfd61546f565b5b602002602001015185600381518110611c1a57611c1961546f565b5b602002602001015186600481518110611c3657611c3561546f565b5b6020026020010151610b87565b505050565b6009602052816000526040600020602052806000526040600020600091509150508060000160009054906101000a900473ffffffffffffffffffffffffffffffffffffffff16908060010154908060020154908060030154908060040154908060050160009054906101000a900460ff16908060050160019054906101000a900460ff16905087565b611cd9612a02565b601560009054906101000a900473ffffffffffffffffffffffffffffffffffffffff1673ffffffffffffffffffffffffffffffffffffffff1663a9059cbb82846040518363ffffffff1660e01b8152600401611d369291906154bf565b6020604051808303816000875af1158015611d55573d6000803e3d6000fd5b505050506040513d601f19601f82011682018060405250810190611d799190615041565b505050565b611d86612a02565b600073ffffffffffffffffffffffffffffffffffffffff168173ffffffffffffffffffffffffffffffffffffffff1603611df5576040517f08c379a0000000000000000000000000000000000000000000000000000000008152600401611dec9061555a565b60405180910390fd5b611dfe81612a80565b50565b611e2b7fab4f864e5201b0fde9b5ee3e4cf96384802b0ffdfcf7f9de4699ce21a30afc4f33610f9b565b80611e685750611e39610e9e565b73ffffffffffffffffffffffffffffffffffffffff163373ffffffffffffffffffffffffffffffffffffffff16145b611ea7576040517f08c379a0000000000000000000000000000000000000000000000000000000008152600401611e9e90614ec0565b60405180910390fd5b6000611ebd6011543063708d90d660e01b612b46565b9050611f936040518060400160405280600381526020017f6765740000000000000000000000000000000000000000000000000000000000815250600e8054611f0590614919565b80601f0160208091040260200160405190810160405280929190818152602001828054611f3190614919565b8015611f7e5780601f10611f5357610100808354040283529160200191611f7e565b820191906000526020600020905b815481529060010190602001808311611f6157829003601f168201915b505050505083612b779092919063ffffffff16565b6120046040518060400160405280600581526020017f7061746831000000000000000000000000000000000000000000000000000000815250611fd584612baa565b604051602001611fe59190615602565b60405160208183030381529060405283612b779092919063ffffffff16565b6120756040518060400160405280600581526020017f706174683200000000000000000000000000000000000000000000000000000081525061204684612baa565b6040516020016120569190615670565b60405160208183030381529060405283612b779092919063ffffffff16565b81601481905550600061208a82601254612c78565b9050807fe7a32afcf2413a36519016aab1d0c301eb77ab022284beed2a278aad61d1a09260405160405180910390a2505050565b60007f01ffc9a7000000000000000000000000000000000000000000000000000000007bffffffffffffffffffffffffffffffffffffffffffffffffffffffff1916827bffffffffffffffffffffffffffffffffffffffffffffffffffffffff1916149050919050565b6121398161213461221d565b612caf565b50565b6121468282610f9b565b6122195760016007600084815260200190815260200160002060000160008373ffffffffffffffffffffffffffffffffffffffff1673ffffffffffffffffffffffffffffffffffffffff16815260200190815260200160002060006101000a81548160ff0219169083151502179055506121be61221d565b73ffffffffffffffffffffffffffffffffffffffff168173ffffffffffffffffffffffffffffffffffffffff16837f2f8788117e7eff1d82e926ec794901d17c78024a50270940304540a733656f0d60405160405180910390a45b5050565b600033905090565b61222f8282610f9b565b156123035760006007600084815260200190815260200160002060000160008373ffffffffffffffffffffffffffffffffffffffff1673ffffffffffffffffffffffffffffffffffffffff16815260200190815260200160002060006101000a81548160ff0219169083151502179055506122a861221d565b73ffffffffffffffffffffffffffffffffffffffff168173ffffffffffffffffffffffffffffffffffffffff16837ff6391f5c32d9c69d2a47ea670b442974b53935d1edc7fd64eb21e047a839171b60405160405180910390a45b5050565b600b54831061234b576040517f08c379a000000000000000000000000000000000000000000000000000000000815260040161234290614f2c565b60405180910390fd5b81600a60008581526020019081526020016000206005018190555080600a6000858152602001908152602001600020600601819055506001600a600085815260200190815260200160002060070160006101000a81548160ff0219169083151502179055506000600a60008581526020019081526020016000206009015403156129fd576000805b600a60008681526020019081526020016000206009015481101561247457836008600087815260200190815260200160002060008381526020019081526020016000206003015414801561244d57508260086000878152602001908152602001600020600083815260200190815260200160002060040154145b1561246157818061245d90614cfc565b9250505b808061246c90614cfc565b9150506123d3565b5060008167ffffffffffffffff81111561249157612490614252565b5b6040519080825280602002602001820160405280156124ca57816020015b6124b7613cc7565b8152602001906001900390816124af5790505b5090506000806000805b600a60008a8152602001908152602001600020600901548110156128725787600860008b815260200190815260200160002060008381526020019081526020016000206003015414801561254e575086600860008b8152602001908152602001600020600083815260200190815260200160002060040154145b156126dc576001600860008b8152602001908152602001600020600083815260200190815260200160002060050160006101000a81548160ff021916908315150217905550600860008a815260200190815260200160002060008281526020019081526020016000206040518060e00160405290816000820160009054906101000a900473ffffffffffffffffffffffffffffffffffffffff1673ffffffffffffffffffffffffffffffffffffffff1673ffffffffffffffffffffffffffffffffffffffff168152602001600182015481526020016002820154815260200160038201548152602001600482015481526020016005820160009054906101000a900460ff161515151581526020016005820160019054906101000a900460ff1615151515815250508585815181106126895761268861546f565b5b6020026020010181905250600860008a8152602001908152602001600020600082815260200190815260200160002060020154826126c791906151a6565b915083806126d490614cfc565b94505061281f565b600860008a81526020019081526020016000206000828152602001908152602001600020600960008b815260200190815260200160002060008581526020019081526020016000206000820160009054906101000a900473ffffffffffffffffffffffffffffffffffffffff168160000160006101000a81548173ffffffffffffffffffffffffffffffffffffffff021916908373ffffffffffffffffffffffffffffffffffffffff160217905550600182015481600101556002820154816002015560038201548160030155600482015481600401556005820160009054906101000a900460ff168160050160006101000a81548160ff0219169083151502179055506005820160019054906101000a900460ff168160050160016101000a81548160ff021916908315150217905550905050828061281b90614cfc565b9350505b6001600860008b8152602001908152602001600020600083815260200190815260200160002060050160016101000a81548160ff021916908315150217905550808061286a90614cfc565b9150506124d4565b50600083036128bf57600a6000898152602001908152602001600020600a0154600a60008a815260200190815260200160002060080160008282546128b791906151a6565b925050819055505b60005b838110156129e657601560009054906101000a900473ffffffffffffffffffffffffffffffffffffffff1673ffffffffffffffffffffffffffffffffffffffff1663a9059cbb86838151811061291b5761291a61546f565b5b6020026020010151600001518488858151811061293b5761293a61546f565b5b602002602001015160400151600a60008f8152602001908152602001600020600a01546129689190615692565b6129729190615175565b6040518363ffffffff1660e01b815260040161298f92919061520e565b6020604051808303816000875af11580156129ae573d6000803e3d6000fd5b505050506040513d601f19601f820116820180604052508101906129d29190615041565b5080806129de90614cfc565b9150506128c2565b50876014819055506129f782612d34565b50505050505b505050565b612a0a61221d565b73ffffffffffffffffffffffffffffffffffffffff16612a28610e9e565b73ffffffffffffffffffffffffffffffffffffffff1614612a7e576040517f08c379a0000000000000000000000000000000000000000000000000000000008152600401612a7590615720565b60405180910390fd5b565b6000600660009054906101000a900473ffffffffffffffffffffffffffffffffffffffff16905081600660006101000a81548173ffffffffffffffffffffffffffffffffffffffff021916908373ffffffffffffffffffffffffffffffffffffffff1602179055508173ffffffffffffffffffffffffffffffffffffffff168173ffffffffffffffffffffffffffffffffffffffff167f8be0079c531659141344cd1fd0a4f28419497f9722a3daafe3b4186f6b6457e060405160405180910390a35050565b612b4e613d1e565b612b56613d1e565b612b6d85858584612ea6909392919063ffffffff16565b9150509392505050565b612b8e828460800151612f5690919063ffffffff16565b612ba5818460800151612f5690919063ffffffff16565b505050565b606060006001612bb984612f7b565b01905060008167ffffffffffffffff811115612bd857612bd7614252565b5b6040519080825280601f01601f191660200182016040528015612c0a5781602001600182028036833780820191505090505b509050600082602001820190505b600115612c6d578080600190039150507f3031323334353637383961626364656600000000000000000000000000000000600a86061a8153600a8581612c6157612c60615146565b5b04945060008503612c18575b819350505050919050565b6000612ca7600360009054906101000a900473ffffffffffffffffffffffffffffffffffffffff1684846130ce565b905092915050565b612cb98282610f9b565b612d3057612cc681613198565b612cd48360001c60206131c5565b604051602001612ce59291906157d8565b6040516020818303038152906040526040517f08c379a0000000000000000000000000000000000000000000000000000000008152600401612d27919061584b565b60405180910390fd5b5050565b6000612d4a600f543063ade3778a60e01b612b46565b9050612dc06040518060400160405280600381526020017f6765740000000000000000000000000000000000000000000000000000000000815250600c612d9085612baa565b604051602001612da19291906158f0565b60405160208183030381529060405283612b779092919063ffffffff16565b612e196040518060400160405280600481526020017f70617468000000000000000000000000000000000000000000000000000000008152506040518060200160405280600081525083612b779092919063ffffffff16565b612e646040518060400160405280600581526020017f74696d65730000000000000000000000000000000000000000000000000000008152506001836134019092919063ffffffff16565b6000612e7282601254613434565b9050807f1bbf3b6e20d98e7a10bd8311f993bf505fa12c23c2106847f80ded6578bbd95060405160405180910390a2505050565b612eae613d1e565b612ebe856080015161010061346b565b508385600001818152505082856020019073ffffffffffffffffffffffffffffffffffffffff16908173ffffffffffffffffffffffffffffffffffffffff16815250508185604001907bffffffffffffffffffffffffffffffffffffffffffffffffffffffff191690817bffffffffffffffffffffffffffffffffffffffffffffffffffffffff191681525050849050949350505050565b612f6382600383516134d5565b612f76818361365a90919063ffffffff16565b505050565b600080600090507a184f03e93ff9f4daa797ed6e38ed64bf6a1f0100000000000000008310612fd9577a184f03e93ff9f4daa797ed6e38ed64bf6a1f0100000000000000008381612fcf57612fce615146565b5b0492506040810190505b6d04ee2d6d415b85acef81000000008310613016576d04ee2d6d415b85acef8100000000838161300c5761300b615146565b5b0492506020810190505b662386f26fc10000831061304557662386f26fc10000838161303b5761303a615146565b5b0492506010810190505b6305f5e100831061306e576305f5e100838161306457613063615146565b5b0492506008810190505b612710831061309357612710838161308957613088615146565b5b0492506004810190505b606483106130b657606483816130ac576130ab615146565b5b0492506002810190505b600a83106130c5576001810190505b80915050919050565b60008060045490506001816130e391906151a6565b6004819055506000633c6d41b960e01b600080876000015188604001518660028b60800151600001516040516024016131229796959493929190615923565b604051602081830303815290604052907bffffffffffffffffffffffffffffffffffffffffffffffffffffffff19166020820180517bffffffffffffffffffffffffffffffffffffffffffffffffffffffff8381831617835250505050905061318d8683868461367c565b925050509392505050565b60606131be8273ffffffffffffffffffffffffffffffffffffffff16601460ff166131c5565b9050919050565b6060600060028360026131d89190615692565b6131e291906151a6565b67ffffffffffffffff8111156131fb576131fa614252565b5b6040519080825280601f01601f19166020018201604052801561322d5781602001600182028036833780820191505090505b5090507f3000000000000000000000000000000000000000000000000000000000000000816000815181106132655761326461546f565b5b60200101907effffffffffffffffffffffffffffffffffffffffffffffffffffffffffffff1916908160001a9053507f7800000000000000000000000000000000000000000000000000000000000000816001815181106132c9576132c861546f565b5b60200101907effffffffffffffffffffffffffffffffffffffffffffffffffffffffffffff1916908160001a905350600060018460026133099190615692565b61331391906151a6565b90505b60018111156133b3577f3031323334353637383961626364656600000000000000000000000000000000600f8616601081106133555761335461546f565b5b1a60f81b82828151811061336c5761336b61546f565b5b60200101907effffffffffffffffffffffffffffffffffffffffffffffffffffffffffffff1916908160001a905350600485901c9450806133ac90615999565b9050613316565b50600084146133f7576040517f08c379a00000000000000000000000000000000000000000000000000000000081526004016133ee90615a0e565b60405180910390fd5b8091505092915050565b613418828460800151612f5690919063ffffffff16565b61342f81846080015161381190919063ffffffff16565b505050565b6000613463600360009054906101000a900473ffffffffffffffffffffffffffffffffffffffff1684846138be565b905092915050565b613473613d8b565b60006020836134829190615a2e565b146134ae576020826134949190615a2e565b60206134a091906151da565b826134ab91906151a6565b91505b81836020018181525050604051808452600081528281016020016040525082905092915050565b60178167ffffffffffffffff161161350c576135068160058460ff16901b60ff16178461398a90919063ffffffff16565b50613655565b60ff8167ffffffffffffffff16116135625761353b601860058460ff16901b178461398a90919063ffffffff16565b5061355c8167ffffffffffffffff166001856139aa9092919063ffffffff16565b50613654565b61ffff8167ffffffffffffffff16116135b957613592601960058460ff16901b178461398a90919063ffffffff16565b506135b38167ffffffffffffffff166002856139aa9092919063ffffffff16565b50613653565b63ffffffff8167ffffffffffffffff1611613612576135eb601a60058460ff16901b178461398a90919063ffffffff16565b5061360c8167ffffffffffffffff166004856139aa9092919063ffffffff16565b50613652565b61362f601b60058460ff16901b178461398a90919063ffffffff16565b506136508167ffffffffffffffff166008856139aa9092919063ffffffff16565b505b5b5b5b505050565b613662613d8b565b613674838460000151518485516139cc565b905092915050565b60003084604051602001613691929190615ada565b604051602081830303815290604052805190602001209050846005600083815260200190815260200160002060006101000a81548173ffffffffffffffffffffffffffffffffffffffff021916908373ffffffffffffffffffffffffffffffffffffffff160217905550807fb5e6e01e79f91267dc17b4e6314d5d4d03593d2ceee0fbb452b750bd70ea5af960405160405180910390a2600260009054906101000a900473ffffffffffffffffffffffffffffffffffffffff1673ffffffffffffffffffffffffffffffffffffffff16634000aea08685856040518463ffffffff1660e01b815260040161378793929190615b06565b6020604051808303816000875af11580156137a6573d6000803e3d6000fd5b505050506040513d601f19601f820116820180604052508101906137ca9190615041565b613809576040517f08c379a000000000000000000000000000000000000000000000000000000000815260040161380090615bb6565b60405180910390fd5b949350505050565b7fffffffffffffffffffffffffffffffffffffffffffffffff0000000000000000811215613848576138438282613abb565b6138ba565b67ffffffffffffffff811315613867576138628282613b32565b6138b9565b600081126138805761387b826000836134d5565b6138b8565b6138b7826001837fffffffffffffffffffffffffffffffffffffffffffffffffffffffffffffffff6138b29190615be0565b6134d5565b5b5b5b5050565b60008060045490506001816138d391906151a6565b6004819055506000634042994660e01b60008087600001513089604001518760018c6080015160000151604051602401613914989796959493929190615c23565b604051602081830303815290604052907bffffffffffffffffffffffffffffffffffffffffffffffffffffffff19166020820180517bffffffffffffffffffffffffffffffffffffffffffffffffffffffff8381831617835250505050905061397f8683868461367c565b925050509392505050565b613992613d8b565b6139a28384600001515184613b7e565b905092915050565b6139b2613d8b565b6139c3848560000151518585613bd4565b90509392505050565b6139d4613d8b565b82518211156139e257600080fd5b846020015182856139f391906151a6565b1115613a2857613a27856002613a1888602001518887613a1391906151a6565b613c62565b613a229190615692565b613c7e565b5b600080865180518760208301019350808887011115613a475787860182525b60208701925050505b60208410613a8e5780518252602082613a6991906151a6565b9150602081613a7891906151a6565b9050602084613a8791906151da565b9350613a50565b60006001856020036101000a03905080198251168184511681811785525050508692505050949350505050565b613ad960036005600660ff16901b178361398a90919063ffffffff16565b50613b2e82827fffffffffffffffffffffffffffffffffffffffffffffffffffffffffffffffff613b0a9190615be0565b604051602001613b1a919061422d565b604051602081830303815290604052613ca2565b5050565b613b5060026005600660ff16901b178361398a90919063ffffffff16565b50613b7a8282604051602001613b66919061422d565b604051602081830303815290604052613ca2565b5050565b613b86613d8b565b83602001518310613bac57613bab8460028660200151613ba69190615692565b613c7e565b5b83518051602085830101848153818603613bc7576001820183525b5050508390509392505050565b613bdc613d8b565b84602001518483613bed91906151a6565b1115613c1557613c148560028685613c0591906151a6565b613c0f9190615692565b613c7e565b5b6000600183610100613c279190615ddb565b613c3191906151da565b90508551838682010185831982511617815281518588011115613c545784870182525b505085915050949350505050565b600081831115613c7457829050613c78565b8190505b92915050565b600082600001519050613c91838361346b565b50613c9c838261365a565b50505050565b613caf82600283516134d5565b613cc2818361365a90919063ffffffff16565b505050565b6040518060e00160405280600073ffffffffffffffffffffffffffffffffffffffff168152602001600081526020016000815260200160008152602001600081526020016000151581526020016000151581525090565b6040518060a0016040528060008019168152602001600073ffffffffffffffffffffffffffffffffffffffff16815260200160007bffffffffffffffffffffffffffffffffffffffffffffffffffffffff1916815260200160008152602001613d85613d8b565b81525090565b604051806040016040528060608152602001600081525090565b6000604051905090565b600080fd5b600080fd5b60007fffffffff0000000000000000000000000000000000000000000000000000000082169050919050565b613dee81613db9565b8114613df957600080fd5b50565b600081359050613e0b81613de5565b92915050565b600060208284031215613e2757613e26613daf565b5b6000613e3584828501613dfc565b91505092915050565b60008115159050919050565b613e5381613e3e565b82525050565b6000602082019050613e6e6000830184613e4a565b92915050565b6000819050919050565b613e8781613e74565b8114613e9257600080fd5b50565b600081359050613ea481613e7e565b92915050565b600060208284031215613ec057613ebf613daf565b5b6000613ece84828501613e95565b91505092915050565b600081519050919050565b600082825260208201905092915050565b60005b83811015613f11578082015181840152602081019050613ef6565b60008484015250505050565b6000601f19601f8301169050919050565b6000613f3982613ed7565b613f438185613ee2565b9350613f53818560208601613ef3565b613f5c81613f1d565b840191505092915050565b613f7081613e74565b82525050565b6000610160820190508181036000830152613f91818e613f2e565b90508181036020830152613fa5818d613f2e565b90508181036040830152613fb9818c613f2e565b90508181036060830152613fcd818b613f2e565b90508181036080830152613fe1818a613f2e565b9050613ff060a0830189613f67565b613ffd60c0830188613f67565b61400a60e0830187613e4a565b614018610100830186613f67565b614026610120830185613f67565b614034610140830184613f67565b9c9b505050505050505050505050565b6000819050919050565b61405781614044565b811461406257600080fd5b50565b6000813590506140748161404e565b92915050565b6000602082840312156140905761408f613daf565b5b600061409e84828501614065565b91505092915050565b6140b081614044565b82525050565b60006020820190506140cb60008301846140a7565b92915050565b600073ffffffffffffffffffffffffffffffffffffffff82169050919050565b60006140fc826140d1565b9050919050565b61410c816140f1565b811461411757600080fd5b50565b60008135905061412981614103565b92915050565b6000806040838503121561414657614145613daf565b5b600061415485828601614065565b92505060206141658582860161411a565b9150509250929050565b6000806040838503121561418657614185613daf565b5b600061419485828601613e95565b92505060206141a585828601613e95565b9150509250929050565b6141b8816140f1565b82525050565b600060e0820190506141d3600083018a6141af565b6141e06020830189613f67565b6141ed6040830188613f67565b6141fa6060830187613f67565b6142076080830186613f67565b61421460a0830185613e4a565b61422160c0830184613e4a565b98975050505050505050565b60006020820190506142426000830184613f67565b92915050565b600080fd5b600080fd5b7f4e487b7100000000000000000000000000000000000000000000000000000000600052604160045260246000fd5b61428a82613f1d565b810181811067ffffffffffffffff821117156142a9576142a8614252565b5b80604052505050565b60006142bc613da5565b90506142c88282614281565b919050565b600067ffffffffffffffff8211156142e8576142e7614252565b5b6142f182613f1d565b9050602081019050919050565b82818337600083830152505050565b600061432061431b846142cd565b6142b2565b90508281526020810184848401111561433c5761433b61424d565b5b6143478482856142fe565b509392505050565b600082601f83011261436457614363614248565b5b813561437484826020860161430d565b91505092915050565b600080600080600060a0868803121561439957614398613daf565b5b600086013567ffffffffffffffff8111156143b7576143b6613db4565b5b6143c38882890161434f565b955050602086013567ffffffffffffffff8111156143e4576143e3613db4565b5b6143f08882890161434f565b945050604086013567ffffffffffffffff81111561441157614410613db4565b5b61441d8882890161434f565b935050606086013567ffffffffffffffff81111561443e5761443d613db4565b5b61444a8882890161434f565b925050608086013567ffffffffffffffff81111561446b5761446a613db4565b5b6144778882890161434f565b9150509295509295909350565b60008060006060848603121561449d5761449c613daf565b5b60006144ab86828701614065565b93505060206144bc86828701613e95565b92505060406144cd86828701613e95565b9150509250925092565b60006020820190506144ec60008301846141af565b92915050565b60006020828403121561450857614507613daf565b5b60006145168482850161411a565b91505092915050565b6000806000806080858703121561453957614538613daf565b5b600061454787828801613e95565b945050602061455887828801613e95565b935050604061456987828801613e95565b925050606061457a87828801613e95565b91505092959194509250565b6000806040838503121561459d5761459c613daf565b5b60006145ab85828601614065565b92505060206145bc85828601613e95565b9150509250929050565b6000819050919050565b60006145eb6145e66145e1846140d1565b6145c6565b6140d1565b9050919050565b60006145fd826145d0565b9050919050565b600061460f826145f2565b9050919050565b61461f81614604565b82525050565b600060208201905061463a6000830184614616565b92915050565b600067ffffffffffffffff82111561465b5761465a614252565b5b61466482613f1d565b9050602081019050919050565b600061468461467f84614640565b6142b2565b9050828152602081018484840111156146a05761469f61424d565b5b6146ab8482856142fe565b509392505050565b600082601f8301126146c8576146c7614248565b5b81356146d8848260208601614671565b91505092915050565b6000602082840312156146f7576146f6613daf565b5b600082013567ffffffffffffffff81111561471557614714613db4565b5b614721848285016146b3565b91505092915050565b600067ffffffffffffffff82111561474557614744614252565b5b602082029050602081019050919050565b600080fd5b600061476e6147698461472a565b6142b2565b9050808382526020820190506020840283018581111561479157614790614756565b5b835b818110156147d857803567ffffffffffffffff8111156147b6576147b5614248565b5b8086016147c3898261434f565b85526020850194505050602081019050614793565b5050509392505050565b600082601f8301126147f7576147f6614248565b5b813561480784826020860161475b565b91505092915050565b6000806040838503121561482757614826613daf565b5b600061483585828601614065565b925050602083013567ffffffffffffffff81111561485657614855613db4565b5b614862858286016147e2565b9150509250929050565b6000614877826140d1565b9050919050565b6148878161486c565b811461489257600080fd5b50565b6000813590506148a48161487e565b92915050565b600080604083850312156148c1576148c0613daf565b5b60006148cf85828601613e95565b92505060206148e085828601614895565b9150509250929050565b7f4e487b7100000000000000000000000000000000000000000000000000000000600052602260045260246000fd5b6000600282049050600182168061493157607f821691505b602082108103614944576149436148ea565b5b50919050565b600082825260208201905092915050565b7f49535f4e4f545f41444d494e0000000000000000000000000000000000000000600082015250565b6000614991600c8361494a565b915061499c8261495b565b602082019050919050565b600060208201905081810360008301526149c081614984565b9050919050565b7f416363657373436f6e74726f6c3a2063616e206f6e6c792072656e6f756e636560008201527f20726f6c657320666f722073656c660000000000000000000000000000000000602082015250565b6000614a23602f8361494a565b9150614a2e826149c7565b604082019050919050565b60006020820190508181036000830152614a5281614a16565b9050919050565b60008190508160005260206000209050919050565b60006020601f8301049050919050565b600082821b905092915050565b600060088302614abb7fffffffffffffffffffffffffffffffffffffffffffffffffffffffffffffffff82614a7e565b614ac58683614a7e565b95508019841693508086168417925050509392505050565b6000614af8614af3614aee84613e74565b6145c6565b613e74565b9050919050565b6000819050919050565b614b1283614add565b614b26614b1e82614aff565b848454614a8b565b825550505050565b600090565b614b3b614b2e565b614b46818484614b09565b505050565b5b81811015614b6a57614b5f600082614b33565b600181019050614b4c565b5050565b601f821115614baf57614b8081614a59565b614b8984614a6e565b81016020851015614b98578190505b614bac614ba485614a6e565b830182614b4b565b50505b505050565b600082821c905092915050565b6000614bd260001984600802614bb4565b1980831691505092915050565b6000614beb8383614bc1565b9150826002028217905092915050565b614c0482613ed7565b67ffffffffffffffff811115614c1d57614c1c614252565b5b614c278254614919565b614c32828285614b6e565b600060209050601f831160018114614c655760008415614c53578287015190505b614c5d8582614bdf565b865550614cc5565b601f198416614c7386614a59565b60005b82811015614c9b57848901518255600182019150602085019450602081019050614c76565b86831015614cb85784890151614cb4601f891682614bc1565b8355505b6001600288020188555050505b505050505050565b7f4e487b7100000000000000000000000000000000000000000000000000000000600052601160045260246000fd5b6000614d0782613e74565b91507fffffffffffffffffffffffffffffffffffffffffffffffffffffffffffffffff8203614d3957614d38614ccd565b5b600182019050919050565b600081905092915050565b6000614d5a82613ed7565b614d648185614d44565b9350614d74818560208601613ef3565b80840191505092915050565b6000614d8c8284614d4f565b915081905092915050565b60006020820190508181036000830152614db18184613f2e565b905092915050565b7f536f75726365206d75737420626520746865206f7261636c65206f662074686560008201527f2072657175657374000000000000000000000000000000000000000000000000602082015250565b6000614e1560288361494a565b9150614e2082614db9565b604082019050919050565b60006020820190508181036000830152614e4481614e08565b9050919050565b6000604082019050614e606000830185613f67565b614e6d6020830184613f67565b9392505050565b7f49535f4e4f545f52454c41594552000000000000000000000000000000000000600082015250565b6000614eaa600e8361494a565b9150614eb582614e74565b602082019050919050565b60006020820190508181036000830152614ed981614e9d565b9050919050565b7f496e76616c69642067616d652049440000000000000000000000000000000000600082015250565b6000614f16600f8361494a565b9150614f2182614ee0565b602082019050919050565b60006020820190508181036000830152614f4581614f09565b9050919050565b7f42657420616d6f756e74206d7573742062652067726561746572207468616e2060008201527f7a65726f00000000000000000000000000000000000000000000000000000000602082015250565b6000614fa860248361494a565b9150614fb382614f4c565b604082019050919050565b60006020820190508181036000830152614fd781614f9b565b9050919050565b6000606082019050614ff360008301866141af565b61500060208301856141af565b61500d6040830184613f67565b949350505050565b61501e81613e3e565b811461502957600080fd5b50565b60008151905061503b81615015565b92915050565b60006020828403121561505757615056613daf565b5b60006150658482850161502c565b91505092915050565b7f5472616e73616374696f6e206661696c65640000000000000000000000000000600082015250565b60006150a460128361494a565b91506150af8261506e565b602082019050919050565b600060208201905081810360008301526150d381615097565b9050919050565b7f47616d652068617320616c726561647920636f6d706c65746564000000000000600082015250565b6000615110601a8361494a565b915061511b826150da565b602082019050919050565b6000602082019050818103600083015261513f81615103565b9050919050565b7f4e487b7100000000000000000000000000000000000000000000000000000000600052601260045260246000fd5b600061518082613e74565b915061518b83613e74565b92508261519b5761519a615146565b5b828204905092915050565b60006151b182613e74565b91506151bc83613e74565b92508282019050808211156151d4576151d3614ccd565b5b92915050565b60006151e582613e74565b91506151f083613e74565b925082820390508181111561520857615207614ccd565b5b92915050565b600060408201905061522360008301856141af565b6152306020830184613f67565b9392505050565b600081519050919050565b60008190508160005260206000209050919050565b601f8211156152985761526981615242565b61527284614a6e565b81016020851015615281578190505b61529561528d85614a6e565b830182614b4b565b50505b505050565b6152a682615237565b67ffffffffffffffff8111156152bf576152be614252565b5b6152c98254614919565b6152d4828285615257565b600060209050601f83116001811461530757600084156152f5578287015190505b6152ff8582614bdf565b865550615367565b601f19841661531586615242565b60005b8281101561533d57848901518255600182019150602085019450602081019050615318565b8683101561535a5784890151615356601f891682614bc1565b8355505b6001600288020188555050505b505050505050565b600081519050919050565b600081905092915050565b6000819050602082019050919050565b600081905092915050565b60006153ab82613ed7565b6153b58185615395565b93506153c5818560208601613ef3565b6153ce81613f1d565b840191505092915050565b60006153e583836153a0565b905092915050565b6000602082019050919050565b60006154058261536f565b61540f818561537a565b935061541a83615385565b8060005b8381101561544b57815161543288826153d9565b975061543d836153ed565b92505060018101905061541e565b5085935050505092915050565b600061546482846153fa565b915081905092915050565b7f4e487b7100000000000000000000000000000000000000000000000000000000600052603260045260246000fd5b60006154a9826145f2565b9050919050565b6154b98161549e565b82525050565b60006040820190506154d460008301856154b0565b6154e16020830184613f67565b9392505050565b7f4f776e61626c653a206e6577206f776e657220697320746865207a65726f206160008201527f6464726573730000000000000000000000000000000000000000000000000000602082015250565b600061554460268361494a565b915061554f826154e8565b604082019050919050565b6000602082019050818103600083015261557381615537565b9050919050565b600081905092915050565b600061559082615237565b61559a818561557a565b93506155aa818560208601613ef3565b80840191505092915050565b7f2c7465616d410000000000000000000000000000000000000000000000000000600082015250565b60006155ec60068361557a565b91506155f7826155b6565b600682019050919050565b600061560e8284615585565b9150615619826155df565b915081905092915050565b7f2c7465616d420000000000000000000000000000000000000000000000000000600082015250565b600061565a60068361557a565b915061566582615624565b600682019050919050565b600061567c8284615585565b91506156878261564d565b915081905092915050565b600061569d82613e74565b91506156a883613e74565b92508282026156b681613e74565b915082820484148315176156cd576156cc614ccd565b5b5092915050565b7f4f776e61626c653a2063616c6c6572206973206e6f7420746865206f776e6572600082015250565b600061570a60208361494a565b9150615715826156d4565b602082019050919050565b60006020820190508181036000830152615739816156fd565b9050919050565b7f416363657373436f6e74726f6c3a206163636f756e7420000000000000000000600082015250565b600061577660178361557a565b915061578182615740565b601782019050919050565b7f206973206d697373696e6720726f6c6520000000000000000000000000000000600082015250565b60006157c260118361557a565b91506157cd8261578c565b601182019050919050565b60006157e382615769565b91506157ef8285615585565b91506157fa826157b5565b91506158068284615585565b91508190509392505050565b600061581d82615237565b615827818561494a565b9350615837818560208601613ef3565b61584081613f1d565b840191505092915050565b600060208201905081810360008301526158658184615812565b905092915050565b6000815461587a81614919565b615884818661557a565b9450600182166000811461589f57600181146158b4576158e7565b60ff19831686528115158202860193506158e7565b6158bd85615242565b60005b838110156158df578154818901526001820191506020810190506158c0565b838801955050505b50505092915050565b60006158fc828561586d565b91506159088284615585565b91508190509392505050565b61591d81613db9565b82525050565b600060e082019050615938600083018a6141af565b6159456020830189613f67565b61595260408301886140a7565b61595f6060830187615914565b61596c6080830186613f67565b61597960a0830185613f67565b81810360c083015261598b8184613f2e565b905098975050505050505050565b60006159a482613e74565b9150600082036159b7576159b6614ccd565b5b600182039050919050565b7f537472696e67733a20686578206c656e67746820696e73756666696369656e74600082015250565b60006159f860208361494a565b9150615a03826159c2565b602082019050919050565b60006020820190508181036000830152615a27816159eb565b9050919050565b6000615a3982613e74565b9150615a4483613e74565b925082615a5457615a53615146565b5b828206905092915050565b6000615a6a826145f2565b9050919050565b60008160601b9050919050565b6000615a8982615a71565b9050919050565b6000615a9b82615a7e565b9050919050565b615ab3615aae82615a5f565b615a90565b82525050565b6000819050919050565b615ad4615acf82613e74565b615ab9565b82525050565b6000615ae68285615aa2565b601482019150615af68284615ac3565b6020820191508190509392505050565b6000606082019050615b1b60008301866141af565b615b286020830185613f67565b8181036040830152615b3a8184613f2e565b9050949350505050565b7f756e61626c6520746f207472616e73666572416e6443616c6c20746f206f726160008201527f636c650000000000000000000000000000000000000000000000000000000000602082015250565b6000615ba060238361494a565b9150615bab82615b44565b604082019050919050565b60006020820190508181036000830152615bcf81615b93565b9050919050565b6000819050919050565b6000615beb82615bd6565b9150615bf683615bd6565b9250828203905081811260008412168282136000851215161715615c1d57615c1c614ccd565b5b92915050565b600061010082019050615c39600083018b6141af565b615c46602083018a613f67565b615c5360408301896140a7565b615c6060608301886141af565b615c6d6080830187615914565b615c7a60a0830186613f67565b615c8760c0830185613f67565b81810360e0830152615c998184613f2e565b90509998505050505050505050565b60008160011c9050919050565b6000808291508390505b6001851115615cff57808604811115615cdb57615cda614ccd565b5b6001851615615cea5780820291505b8081029050615cf885615ca8565b9450615cbf565b94509492505050565b600082615d185760019050615dd4565b81615d265760009050615dd4565b8160018114615d3c5760028114615d4657615d75565b6001915050615dd4565b60ff841115615d5857615d57614ccd565b5b8360020a915084821115615d6f57615d6e614ccd565b5b50615dd4565b5060208310610133831016604e8410600b8410161715615daa5782820a905083811115615da557615da4614ccd565b5b615dd4565b615db78484846001615cb5565b92509050818404811115615dce57615dcd614ccd565b5b81810290505b9392505050565b6000615de682613e74565b9150615df183613e74565b9250615e1e7fffffffffffffffffffffffffffffffffffffffffffffffffffffffffffffffff8484615d08565b90509291505056fea264697066735822122079e82c33010c1995998dc355ad1af2021d17413067a4c34a4dfefcb31291757e64736f6c63430008110033",
  "linkReferences": {},
  "deployedLinkReferences": {}
}