{
  "_format": "hh-sol-artifact-1",
  "contractName": "Sports",
  "sourceName": "contracts/Sports.sol",
  "abi": [
    {
      "inputs": [
        {
          "internalType": "address",
          "name": "_chainlinkToken",
          "type": "address"
        },
        {
          "internalType": "address",
          "name": "_chainlinkOracle",
          "type": "address"
        },
        {
          "internalType": "bytes32",
          "name": "_jobIdNumbers",
          "type": "bytes32"
        },
        {
          "internalType": "bytes32",
          "name": "_jobIdMultipleNumbers",
          "type": "bytes32"
        },
        {
          "internalType": "bytes32",
          "name": "_jobIdBytes",
          "type": "bytes32"
        },
        {
          "internalType": "address",
          "name": "_relayer",
          "type": "address"
        },
        {
          "internalType": "address",
          "name": "_usdcContractAddress",
          "type": "address"
        },
        {
          "internalType": "address[]",
          "name": "_mods",
          "type": "address[]"
        },
        {
          "internalType": "address[]",
          "name": "_admins",
          "type": "address[]"
        },
        {
          "internalType": "string[]",
          "name": "_API",
          "type": "string[]"
        }
      ],
      "stateMutability": "nonpayable",
      "type": "constructor"
    },
    {
      "anonymous": false,
      "inputs": [
        {
          "indexed": true,
          "internalType": "uint256",
          "name": "_gameId",
          "type": "uint256"
        },
        {
          "indexed": false,
          "internalType": "uint256",
          "name": "_homeScore",
          "type": "uint256"
        },
        {
          "indexed": false,
          "internalType": "uint256",
          "name": "_awayScore",
          "type": "uint256"
        }
      ],
      "name": "BetCreated",
      "type": "event"
    },
    {
      "anonymous": false,
      "inputs": [
        {
          "indexed": true,
          "internalType": "bytes32",
          "name": "id",
          "type": "bytes32"
        }
      ],
      "name": "ChainlinkCancelled",
      "type": "event"
    },
    {
      "anonymous": false,
      "inputs": [
        {
          "indexed": true,
          "internalType": "bytes32",
          "name": "id",
          "type": "bytes32"
        }
      ],
      "name": "ChainlinkFulfilled",
      "type": "event"
    },
    {
      "anonymous": false,
      "inputs": [
        {
          "indexed": true,
          "internalType": "bytes32",
          "name": "id",
          "type": "bytes32"
        }
      ],
      "name": "ChainlinkRequested",
      "type": "event"
    },
    {
      "anonymous": false,
      "inputs": [
        {
          "indexed": false,
          "internalType": "bytes",
          "name": "_gameTime",
          "type": "bytes"
        },
        {
          "indexed": true,
          "internalType": "bytes",
          "name": "_homeTeam",
          "type": "bytes"
        },
        {
          "indexed": true,
          "internalType": "bytes",
          "name": "_awayTeam",
          "type": "bytes"
        }
      ],
      "name": "GameCreated",
      "type": "event"
    },
    {
      "anonymous": false,
      "inputs": [
        {
          "indexed": true,
          "internalType": "address",
          "name": "previousOwner",
          "type": "address"
        },
        {
          "indexed": true,
          "internalType": "address",
          "name": "newOwner",
          "type": "address"
        }
      ],
      "name": "OwnershipTransferred",
      "type": "event"
    },
    {
      "anonymous": false,
      "inputs": [
        {
          "indexed": false,
          "internalType": "uint256",
          "name": "print",
          "type": "uint256"
        }
      ],
      "name": "Print",
      "type": "event"
    },
    {
      "anonymous": false,
      "inputs": [
        {
          "indexed": true,
          "internalType": "bytes32",
          "name": "requestId",
          "type": "bytes32"
        },
        {
          "indexed": true,
          "internalType": "bytes[]",
          "name": "data",
          "type": "bytes[]"
        }
      ],
      "name": "RequestBytesFulfilled",
      "type": "event"
    },
    {
      "anonymous": false,
      "inputs": [
        {
          "indexed": true,
          "internalType": "bytes32",
          "name": "requestId",
          "type": "bytes32"
        }
      ],
      "name": "RequestBytesSent",
      "type": "event"
    },
    {
      "anonymous": false,
      "inputs": [
        {
          "indexed": true,
          "internalType": "bytes32",
          "name": "requestId",
          "type": "bytes32"
        },
        {
          "indexed": false,
          "internalType": "uint256",
          "name": "random",
          "type": "uint256"
        }
      ],
      "name": "RequestNumberFulfilled",
      "type": "event"
    },
    {
      "anonymous": false,
      "inputs": [
        {
          "indexed": true,
          "internalType": "bytes32",
          "name": "requestId",
          "type": "bytes32"
        }
      ],
      "name": "RequestNumberSent",
      "type": "event"
    },
    {
      "anonymous": false,
      "inputs": [
        {
          "indexed": true,
          "internalType": "bytes32",
          "name": "requestId",
          "type": "bytes32"
        },
        {
          "indexed": false,
          "internalType": "uint256",
          "name": "TeamA",
          "type": "uint256"
        },
        {
          "indexed": false,
          "internalType": "uint256",
          "name": "TeamB",
          "type": "uint256"
        }
      ],
      "name": "RequestResultFulfilled",
      "type": "event"
    },
    {
      "anonymous": false,
      "inputs": [
        {
          "indexed": true,
          "internalType": "bytes32",
          "name": "requestId",
          "type": "bytes32"
        }
      ],
      "name": "RequestResultSent",
      "type": "event"
    },
    {
      "anonymous": false,
      "inputs": [
        {
          "indexed": true,
          "internalType": "bytes32",
          "name": "role",
          "type": "bytes32"
        },
        {
          "indexed": true,
          "internalType": "bytes32",
          "name": "previousAdminRole",
          "type": "bytes32"
        },
        {
          "indexed": true,
          "internalType": "bytes32",
          "name": "newAdminRole",
          "type": "bytes32"
        }
      ],
      "name": "RoleAdminChanged",
      "type": "event"
    },
    {
      "anonymous": false,
      "inputs": [
        {
          "indexed": true,
          "internalType": "bytes32",
          "name": "role",
          "type": "bytes32"
        },
        {
          "indexed": true,
          "internalType": "address",
          "name": "account",
          "type": "address"
        },
        {
          "indexed": true,
          "internalType": "address",
          "name": "sender",
          "type": "address"
        }
      ],
      "name": "RoleGranted",
      "type": "event"
    },
    {
      "anonymous": false,
      "inputs": [
        {
          "indexed": true,
          "internalType": "bytes32",
          "name": "role",
          "type": "bytes32"
        },
        {
          "indexed": true,
          "internalType": "address",
          "name": "account",
          "type": "address"
        },
        {
          "indexed": true,
          "internalType": "address",
          "name": "sender",
          "type": "address"
        }
      ],
      "name": "RoleRevoked",
      "type": "event"
    },
    {
      "inputs": [],
      "name": "DEFAULT_ADMIN_ROLE",
      "outputs": [
        {
          "internalType": "bytes32",
          "name": "",
          "type": "bytes32"
        }
      ],
      "stateMutability": "view",
      "type": "function"
    },
    {
      "inputs": [],
      "name": "USDc",
      "outputs": [
        {
          "internalType": "contract USDC",
          "name": "",
          "type": "address"
        }
      ],
      "stateMutability": "view",
      "type": "function"
    },
    {
      "inputs": [
        {
          "internalType": "bytes",
          "name": "_homeTeam",
          "type": "bytes"
        },
        {
          "internalType": "bytes",
          "name": "_homeTeamImage",
          "type": "bytes"
        },
        {
          "internalType": "bytes",
          "name": "_awayTeam",
          "type": "bytes"
        },
        {
          "internalType": "bytes",
          "name": "_awayTeamImage",
          "type": "bytes"
        },
        {
          "internalType": "bytes",
          "name": "_gameTime",
          "type": "bytes"
        }
      ],
      "name": "addGame",
      "outputs": [],
      "stateMutability": "nonpayable",
      "type": "function"
    },
    {
      "inputs": [],
      "name": "addGamesFromAPI",
      "outputs": [],
      "stateMutability": "nonpayable",
      "type": "function"
    },
    {
      "inputs": [
        {
          "internalType": "uint256",
          "name": "_gameId",
          "type": "uint256"
        }
      ],
      "name": "addResultsFromAPI",
      "outputs": [],
      "stateMutability": "nonpayable",
      "type": "function"
    },
    {
      "inputs": [
        {
          "internalType": "uint256",
          "name": "",
          "type": "uint256"
        },
        {
          "internalType": "uint256",
          "name": "",
          "type": "uint256"
        }
      ],
      "name": "betsByGame",
      "outputs": [
        {
          "internalType": "address",
          "name": "user",
          "type": "address"
        },
        {
          "internalType": "uint256",
          "name": "gameId",
          "type": "uint256"
        },
        {
          "internalType": "uint256",
          "name": "amount",
          "type": "uint256"
        },
        {
          "internalType": "uint256",
          "name": "homeScore",
          "type": "uint256"
        },
        {
          "internalType": "uint256",
          "name": "awayScore",
          "type": "uint256"
        },
        {
          "internalType": "bool",
          "name": "betWon",
          "type": "bool"
        },
        {
          "internalType": "bool",
          "name": "betCompleted",
          "type": "bool"
        }
      ],
      "stateMutability": "view",
      "type": "function"
    },
    {
      "inputs": [
        {
          "internalType": "bytes32",
          "name": "requestId",
          "type": "bytes32"
        },
        {
          "internalType": "bytes[]",
          "name": "_arrayOfBytes",
          "type": "bytes[]"
        }
      ],
      "name": "fulfillBytesArray",
      "outputs": [],
      "stateMutability": "nonpayable",
      "type": "function"
    },
    {
      "inputs": [
        {
          "internalType": "bytes32",
          "name": "_requestId",
          "type": "bytes32"
        },
        {
          "internalType": "uint256",
          "name": "_number",
          "type": "uint256"
        }
      ],
      "name": "fulfillNumber",
      "outputs": [],
      "stateMutability": "nonpayable",
      "type": "function"
    },
    {
      "inputs": [
        {
          "internalType": "bytes32",
          "name": "requestId",
          "type": "bytes32"
        },
        {
          "internalType": "uint256",
          "name": "_teamA",
          "type": "uint256"
        },
        {
          "internalType": "uint256",
          "name": "_teamB",
          "type": "uint256"
        }
      ],
      "name": "fulfillResults",
      "outputs": [],
      "stateMutability": "nonpayable",
      "type": "function"
    },
    {
      "inputs": [],
      "name": "gameCount",
      "outputs": [
        {
          "internalType": "uint256",
          "name": "",
          "type": "uint256"
        }
      ],
      "stateMutability": "view",
      "type": "function"
    },
    {
      "inputs": [
        {
          "internalType": "uint256",
          "name": "",
          "type": "uint256"
        }
      ],
      "name": "games",
      "outputs": [
        {
          "internalType": "bytes",
          "name": "homeTeam",
          "type": "bytes"
        },
        {
          "internalType": "bytes",
          "name": "homeTeamImage",
          "type": "bytes"
        },
        {
          "internalType": "bytes",
          "name": "awayTeam",
          "type": "bytes"
        },
        {
          "internalType": "bytes",
          "name": "awayTeamImage",
          "type": "bytes"
        },
        {
          "internalType": "bytes",
          "name": "gameTime",
          "type": "bytes"
        },
        {
          "internalType": "uint256",
          "name": "homeScore",
          "type": "uint256"
        },
        {
          "internalType": "uint256",
          "name": "awayScore",
          "type": "uint256"
        },
        {
          "internalType": "bool",
          "name": "gameCompleted",
          "type": "bool"
        },
        {
          "internalType": "uint256",
          "name": "lotteryPool",
          "type": "uint256"
        },
        {
          "internalType": "uint256",
          "name": "betsCount",
          "type": "uint256"
        },
        {
          "internalType": "uint256",
          "name": "betsAmount",
          "type": "uint256"
        }
      ],
      "stateMutability": "view",
      "type": "function"
    },
    {
      "inputs": [
        {
          "internalType": "bytes32",
          "name": "role",
          "type": "bytes32"
        }
      ],
      "name": "getRoleAdmin",
      "outputs": [
        {
          "internalType": "bytes32",
          "name": "",
          "type": "bytes32"
        }
      ],
      "stateMutability": "view",
      "type": "function"
    },
    {
      "inputs": [
        {
          "internalType": "bytes32",
          "name": "role",
          "type": "bytes32"
        },
        {
          "internalType": "address",
          "name": "account",
          "type": "address"
        }
      ],
      "name": "grantRole",
      "outputs": [],
      "stateMutability": "nonpayable",
      "type": "function"
    },
    {
      "inputs": [
        {
          "internalType": "bytes32",
          "name": "role",
          "type": "bytes32"
        },
        {
          "internalType": "address",
          "name": "account",
          "type": "address"
        }
      ],
      "name": "hasRole",
      "outputs": [
        {
          "internalType": "bool",
          "name": "",
          "type": "bool"
        }
      ],
      "stateMutability": "view",
      "type": "function"
    },
    {
      "inputs": [
        {
          "internalType": "uint256",
          "name": "",
          "type": "uint256"
        },
        {
          "internalType": "uint256",
          "name": "",
          "type": "uint256"
        }
      ],
      "name": "loosersByGame",
      "outputs": [
        {
          "internalType": "address",
          "name": "user",
          "type": "address"
        },
        {
          "internalType": "uint256",
          "name": "gameId",
          "type": "uint256"
        },
        {
          "internalType": "uint256",
          "name": "amount",
          "type": "uint256"
        },
        {
          "internalType": "uint256",
          "name": "homeScore",
          "type": "uint256"
        },
        {
          "internalType": "uint256",
          "name": "awayScore",
          "type": "uint256"
        },
        {
          "internalType": "bool",
          "name": "betWon",
          "type": "bool"
        },
        {
          "internalType": "bool",
          "name": "betCompleted",
          "type": "bool"
        }
      ],
      "stateMutability": "view",
      "type": "function"
    },
    {
      "inputs": [
        {
          "internalType": "uint256",
          "name": "_gameId",
          "type": "uint256"
        },
        {
          "internalType": "uint256",
          "name": "_homeScore",
          "type": "uint256"
        },
        {
          "internalType": "uint256",
          "name": "_awayScore",
          "type": "uint256"
        },
        {
          "internalType": "uint256",
          "name": "_USDCamount",
          "type": "uint256"
        }
      ],
      "name": "makeBet",
      "outputs": [],
      "stateMutability": "nonpayable",
      "type": "function"
    },
    {
      "inputs": [],
      "name": "owner",
      "outputs": [
        {
          "internalType": "address",
          "name": "",
          "type": "address"
        }
      ],
      "stateMutability": "view",
      "type": "function"
    },
    {
      "inputs": [],
      "name": "renounceOwnership",
      "outputs": [],
      "stateMutability": "nonpayable",
      "type": "function"
    },
    {
      "inputs": [
        {
          "internalType": "bytes32",
          "name": "role",
          "type": "bytes32"
        },
        {
          "internalType": "address",
          "name": "account",
          "type": "address"
        }
      ],
      "name": "renounceRole",
      "outputs": [],
      "stateMutability": "nonpayable",
      "type": "function"
    },
    {
      "inputs": [
        {
          "internalType": "bytes32",
          "name": "role",
          "type": "bytes32"
        },
        {
          "internalType": "address",
          "name": "account",
          "type": "address"
        }
      ],
      "name": "revokeRole",
      "outputs": [],
      "stateMutability": "nonpayable",
      "type": "function"
    },
    {
      "inputs": [
        {
          "internalType": "bytes4",
          "name": "interfaceId",
          "type": "bytes4"
        }
      ],
      "name": "supportsInterface",
      "outputs": [
        {
          "internalType": "bool",
          "name": "",
          "type": "bool"
        }
      ],
      "stateMutability": "view",
      "type": "function"
    },
    {
      "inputs": [
        {
          "internalType": "uint256",
          "name": "_amount",
          "type": "uint256"
        },
        {
          "internalType": "address payable",
          "name": "destination",
          "type": "address"
        }
      ],
      "name": "transferFunds",
      "outputs": [],
      "stateMutability": "nonpayable",
      "type": "function"
    },
    {
      "inputs": [
        {
          "internalType": "address",
          "name": "newOwner",
          "type": "address"
        }
      ],
      "name": "transferOwnership",
      "outputs": [],
      "stateMutability": "nonpayable",
      "type": "function"
    },
    {
      "inputs": [
        {
          "internalType": "bytes32",
          "name": "_newJobIdBytes",
          "type": "bytes32"
        }
      ],
      "name": "updateChainlinkJobIdBytes",
      "outputs": [],
      "stateMutability": "nonpayable",
      "type": "function"
    },
    {
      "inputs": [
        {
          "internalType": "bytes32",
          "name": "_newJobIdMultipleNumbers",
          "type": "bytes32"
        }
      ],
      "name": "updateChainlinkJobIdMultipleNumbers",
      "outputs": [],
      "stateMutability": "nonpayable",
      "type": "function"
    },
    {
      "inputs": [
        {
          "internalType": "bytes32",
          "name": "_newJobIdNumbers",
          "type": "bytes32"
        }
      ],
      "name": "updateChainlinkJobIdNumbers",
      "outputs": [],
      "stateMutability": "nonpayable",
      "type": "function"
    },
    {
      "inputs": [
        {
          "internalType": "string",
          "name": "_newUrl",
          "type": "string"
        }
      ],
      "name": "updateNumberAPI",
      "outputs": [],
      "stateMutability": "nonpayable",
      "type": "function"
    },
    {
      "inputs": [
        {
          "internalType": "address",
          "name": "_newRelayer",
          "type": "address"
        }
      ],
      "name": "updateRelayer",
      "outputs": [],
      "stateMutability": "nonpayable",
      "type": "function"
    }
  ],
  "bytecode": "0x608060405260016004553480156200001657600080fd5b5060405162006dcb38038062006dcb83398181016040528101906200003c91906200096b565b6200005c62000050620002b360201b60201c565b620002bb60201b60201c565b6200006d8a6200038160201b60201c565b6200007e89620003c560201b60201c565b87600f819055508560108190555086601181905550600a670de0b6b3a76400006001620000ac919062000af7565b620000b8919062000b71565b60128190555083601560006101000a81548173ffffffffffffffffffffffffffffffffffffffff021916908373ffffffffffffffffffffffffffffffffffffffff16021790555060005b83518110156200016f576200015b7f950b8f2d7415defaee398bb4898e8e094a64c725873b81952b7ab9f08d70efb385838151811062000147576200014662000ba9565b5b60200260200101516200040960201b60201c565b80620001679062000bd8565b905062000102565b5060005b8251811015620001e057620001cc7fa49807205ce4d355092ef5a8a18f56e8913cf4a201fbe287825b095693c21775848381518110620001b857620001b762000ba9565b5b60200260200101516200040960201b60201c565b80620001d89062000bd8565b905062000173565b50620002137fab4f864e5201b0fde9b5ee3e4cf96384802b0ffdfcf7f9de4699ce21a30afc4f866200040960201b60201c565b806000815181106200022a576200022962000ba9565b5b6020026020010151600c908162000242919062000e66565b50806001815181106200025a576200025962000ba9565b5b6020026020010151600d908162000272919062000e66565b50806002815181106200028a576200028962000ba9565b5b6020026020010151600e9081620002a2919062000e66565b505050505050505050505062000f4d565b600033905090565b6000600660009054906101000a900473ffffffffffffffffffffffffffffffffffffffff16905081600660006101000a81548173ffffffffffffffffffffffffffffffffffffffff021916908373ffffffffffffffffffffffffffffffffffffffff1602179055508173ffffffffffffffffffffffffffffffffffffffff168173ffffffffffffffffffffffffffffffffffffffff167f8be0079c531659141344cd1fd0a4f28419497f9722a3daafe3b4186f6b6457e060405160405180910390a35050565b80600260006101000a81548173ffffffffffffffffffffffffffffffffffffffff021916908373ffffffffffffffffffffffffffffffffffffffff16021790555050565b80600360006101000a81548173ffffffffffffffffffffffffffffffffffffffff021916908373ffffffffffffffffffffffffffffffffffffffff16021790555050565b6200041b8282620004fb60201b60201c565b620004f75760016007600084815260200190815260200160002060000160008373ffffffffffffffffffffffffffffffffffffffff1673ffffffffffffffffffffffffffffffffffffffff16815260200190815260200160002060006101000a81548160ff0219169083151502179055506200049c620002b360201b60201c565b73ffffffffffffffffffffffffffffffffffffffff168173ffffffffffffffffffffffffffffffffffffffff16837f2f8788117e7eff1d82e926ec794901d17c78024a50270940304540a733656f0d60405160405180910390a45b5050565b60006007600084815260200190815260200160002060000160008373ffffffffffffffffffffffffffffffffffffffff1673ffffffffffffffffffffffffffffffffffffffff16815260200190815260200160002060009054906101000a900460ff16905092915050565b6000604051905090565b600080fd5b600080fd5b600073ffffffffffffffffffffffffffffffffffffffff82169050919050565b6000620005a7826200057a565b9050919050565b620005b9816200059a565b8114620005c557600080fd5b50565b600081519050620005d981620005ae565b92915050565b6000819050919050565b620005f481620005df565b81146200060057600080fd5b50565b6000815190506200061481620005e9565b92915050565b600080fd5b6000601f19601f8301169050919050565b7f4e487b7100000000000000000000000000000000000000000000000000000000600052604160045260246000fd5b6200066a826200061f565b810181811067ffffffffffffffff821117156200068c576200068b62000630565b5b80604052505050565b6000620006a162000566565b9050620006af82826200065f565b919050565b600067ffffffffffffffff821115620006d257620006d162000630565b5b602082029050602081019050919050565b600080fd5b6000620006ff620006f984620006b4565b62000695565b90508083825260208201905060208402830185811115620007255762000724620006e3565b5b835b818110156200075257806200073d8882620005c8565b84526020840193505060208101905062000727565b5050509392505050565b600082601f8301126200077457620007736200061a565b5b815162000786848260208601620006e8565b91505092915050565b600067ffffffffffffffff821115620007ad57620007ac62000630565b5b602082029050602081019050919050565b600080fd5b600067ffffffffffffffff821115620007e157620007e062000630565b5b620007ec826200061f565b9050602081019050919050565b60005b8381101562000819578082015181840152602081019050620007fc565b60008484015250505050565b60006200083c6200083684620007c3565b62000695565b9050828152602081018484840111156200085b576200085a620007be565b5b62000868848285620007f9565b509392505050565b600082601f8301126200088857620008876200061a565b5b81516200089a84826020860162000825565b91505092915050565b6000620008ba620008b4846200078f565b62000695565b90508083825260208201905060208402830185811115620008e057620008df620006e3565b5b835b818110156200092e57805167ffffffffffffffff8111156200090957620009086200061a565b5b80860162000918898262000870565b85526020850194505050602081019050620008e2565b5050509392505050565b600082601f83011262000950576200094f6200061a565b5b815162000962848260208601620008a3565b91505092915050565b6000806000806000806000806000806101408b8d03121562000992576200099162000570565b5b6000620009a28d828e01620005c8565b9a50506020620009b58d828e01620005c8565b9950506040620009c88d828e0162000603565b9850506060620009db8d828e0162000603565b9750506080620009ee8d828e0162000603565b96505060a062000a018d828e01620005c8565b95505060c062000a148d828e01620005c8565b94505060e08b015167ffffffffffffffff81111562000a385762000a3762000575565b5b62000a468d828e016200075c565b9350506101008b015167ffffffffffffffff81111562000a6b5762000a6a62000575565b5b62000a798d828e016200075c565b9250506101208b015167ffffffffffffffff81111562000a9e5762000a9d62000575565b5b62000aac8d828e0162000938565b9150509295989b9194979a5092959850565b6000819050919050565b7f4e487b7100000000000000000000000000000000000000000000000000000000600052601160045260246000fd5b600062000b048262000abe565b915062000b118362000abe565b925082820262000b218162000abe565b9150828204841483151762000b3b5762000b3a62000ac8565b5b5092915050565b7f4e487b7100000000000000000000000000000000000000000000000000000000600052601260045260246000fd5b600062000b7e8262000abe565b915062000b8b8362000abe565b92508262000b9e5762000b9d62000b42565b5b828204905092915050565b7f4e487b7100000000000000000000000000000000000000000000000000000000600052603260045260246000fd5b600062000be58262000abe565b91507fffffffffffffffffffffffffffffffffffffffffffffffffffffffffffffffff820362000c1a5762000c1962000ac8565b5b600182019050919050565b600081519050919050565b7f4e487b7100000000000000000000000000000000000000000000000000000000600052602260045260246000fd5b6000600282049050600182168062000c7857607f821691505b60208210810362000c8e5762000c8d62000c30565b5b50919050565b60008190508160005260206000209050919050565b60006020601f8301049050919050565b600082821b905092915050565b60006008830262000cf87fffffffffffffffffffffffffffffffffffffffffffffffffffffffffffffffff8262000cb9565b62000d04868362000cb9565b95508019841693508086168417925050509392505050565b6000819050919050565b600062000d4762000d4162000d3b8462000abe565b62000d1c565b62000abe565b9050919050565b6000819050919050565b62000d638362000d26565b62000d7b62000d728262000d4e565b84845462000cc6565b825550505050565b600090565b62000d9262000d83565b62000d9f81848462000d58565b505050565b5b8181101562000dc75762000dbb60008262000d88565b60018101905062000da5565b5050565b601f82111562000e165762000de08162000c94565b62000deb8462000ca9565b8101602085101562000dfb578190505b62000e1362000e0a8562000ca9565b83018262000da4565b50505b505050565b600082821c905092915050565b600062000e3b6000198460080262000e1b565b1980831691505092915050565b600062000e56838362000e28565b9150826002028217905092915050565b62000e718262000c25565b67ffffffffffffffff81111562000e8d5762000e8c62000630565b5b62000e99825462000c5f565b62000ea682828562000dcb565b600060209050601f83116001811462000ede576000841562000ec9578287015190505b62000ed5858262000e48565b86555062000f45565b601f19841662000eee8662000c94565b60005b8281101562000f185784890151825560018201915060208501945060208101905062000ef1565b8683101562000f38578489015162000f34601f89168262000e28565b8355505b6001600288020188555050505b505050505050565b615e6e8062000f5d6000396000f3fe608060405234801561001057600080fd5b50600436106101c45760003560e01c806391d14854116100f9578063c06de5c411610097578063ee0f45ff11610071578063ee0f45ff146104c1578063f08e362f146104f7578063f2fde38b14610513578063f9ace24e1461052f576101c4565b8063c06de5c41461046d578063d547741f14610489578063e5a2a1f8146104a5576101c4565b8063a217fddf116100d3578063a217fddf146103f9578063ade3778a14610417578063afcc4ad514610433578063bfd5c6df14610451576101c4565b806391d14854146103a357806399befd53146103d3578063a063e9fb146103dd576101c4565b80634ba5eb4b11610166578063708d90d611610140578063708d90d614610343578063715018a61461035f5780638da5cb5b146103695780638f83ab1314610387576101c4565b80634ba5eb4b146102ed5780634d1975b414610309578063581fab2614610327576101c4565b80632f2ff15d116101a25780632f2ff15d1461026357806330f11a0c1461027f57806336568abe1461029b5780633b6e6f1b146102b7576101c4565b806301ffc9a7146101c9578063117a5b90146101f9578063248a9ca314610233575b600080fd5b6101e360048036038101906101de9190613e23565b61054b565b6040516101f09190613e6b565b60405180910390f35b610213600480360381019061020e9190613ebc565b6105c5565b60405161022a9b9a99989796959493929190613f88565b60405180910390f35b61024d6004803603810190610248919061408c565b6108d4565b60405161025a91906140c8565b60405180910390f35b61027d60048036038101906102789190614141565b6108f4565b005b6102996004803603810190610294919061408c565b610915565b005b6102b560048036038101906102b09190614141565b6109c5565b005b6102d160048036038101906102cc9190614181565b610a48565b6040516102e497969594939291906141d0565b60405180910390f35b6103076004803603810190610302919061408c565b610ad1565b005b610311610b81565b60405161031e919061423f565b60405180910390f35b610341600480360381019061033c919061438f565b610b87565b005b61035d60048036038101906103589190614496565b610d38565b005b610367610e8a565b005b610371610e9e565b60405161037e91906144e9565b60405180910390f35b6103a1600480360381019061039c9190614504565b610ec8565b005b6103bd60048036038101906103b89190614141565b610f9b565b6040516103ca9190613e6b565b60405180910390f35b6103db611006565b005b6103f760048036038101906103f29190614531565b61122d565b005b610401611650565b60405161040e91906140c8565b60405180910390f35b610431600480360381019061042c9190614598565b611657565b005b61043b6118b7565b6040516104489190614637565b60405180910390f35b61046b600480360381019061046691906146f3565b6118dd565b005b6104876004803603810190610482919061408c565b611996565b005b6104a3600480360381019061049e9190614141565b611a46565b005b6104bf60048036038101906104ba9190614822565b611a67565b005b6104db60048036038101906104d69190614181565b611c48565b6040516104ee97969594939291906141d0565b60405180910390f35b610511600480360381019061050c91906148bc565b611cd1565b005b61052d60048036038101906105289190614504565b611d7e565b005b61054960048036038101906105449190613ebc565b611e01565b005b60007f7965db0b000000000000000000000000000000000000000000000000000000007bffffffffffffffffffffffffffffffffffffffffffffffffffffffff1916827bffffffffffffffffffffffffffffffffffffffffffffffffffffffff191614806105be57506105bd826120ca565b5b9050919050565b600a6020528060005260406000206000915090508060000180546105e89061492b565b80601f01602080910402602001604051908101604052809291908181526020018280546106149061492b565b80156106615780601f1061063657610100808354040283529160200191610661565b820191906000526020600020905b81548152906001019060200180831161064457829003601f168201915b5050505050908060010180546106769061492b565b80601f01602080910402602001604051908101604052809291908181526020018280546106a29061492b565b80156106ef5780601f106106c4576101008083540402835291602001916106ef565b820191906000526020600020905b8154815290600101906020018083116106d257829003601f168201915b5050505050908060020180546107049061492b565b80601f01602080910402602001604051908101604052809291908181526020018280546107309061492b565b801561077d5780601f106107525761010080835404028352916020019161077d565b820191906000526020600020905b81548152906001019060200180831161076057829003601f168201915b5050505050908060030180546107929061492b565b80601f01602080910402602001604051908101604052809291908181526020018280546107be9061492b565b801561080b5780601f106107e05761010080835404028352916020019161080b565b820191906000526020600020905b8154815290600101906020018083116107ee57829003601f168201915b5050505050908060040180546108209061492b565b80601f016020809104026020016040519081016040528092919081815260200182805461084c9061492b565b80156108995780601f1061086e57610100808354040283529160200191610899565b820191906000526020600020905b81548152906001019060200180831161087c57829003601f168201915b5050505050908060050154908060060154908060070160009054906101000a900460ff169080600801549080600901549080600a015490508b565b600060076000838152602001908152602001600020600101549050919050565b6108fd826108d4565b61090681612134565b6109108383612148565b505050565b61093f7fa49807205ce4d355092ef5a8a18f56e8913cf4a201fbe287825b095693c2177533610f9b565b8061097c575061094d610e9e565b73ffffffffffffffffffffffffffffffffffffffff163373ffffffffffffffffffffffffffffffffffffffff16145b6109bb576040517f08c379a00000000000000000000000000000000000000000000000000000000081526004016109b2906149b9565b60405180910390fd5b8060118190555050565b6109cd612229565b73ffffffffffffffffffffffffffffffffffffffff168173ffffffffffffffffffffffffffffffffffffffff1614610a3a576040517f08c379a0000000000000000000000000000000000000000000000000000000008152600401610a3190614a4b565b60405180910390fd5b610a448282612231565b5050565b6008602052816000526040600020602052806000526040600020600091509150508060000160009054906101000a900473ffffffffffffffffffffffffffffffffffffffff16908060010154908060020154908060030154908060040154908060050160009054906101000a900460ff16908060050160019054906101000a900460ff16905087565b610afb7fa49807205ce4d355092ef5a8a18f56e8913cf4a201fbe287825b095693c2177533610f9b565b80610b385750610b09610e9e565b73ffffffffffffffffffffffffffffffffffffffff163373ffffffffffffffffffffffffffffffffffffffff16145b610b77576040517f08c379a0000000000000000000000000000000000000000000000000000000008152600401610b6e906149b9565b60405180910390fd5b80600f8190555050565b600b5481565b604051806101600160405280868152602001858152602001848152602001838152602001828152602001600081526020016000815260200160001515815260200160008152602001600081526020016000815250600a6000600b5481526020019081526020016000206000820151816000019081610c059190614c0d565b506020820151816001019081610c1b9190614c0d565b506040820151816002019081610c319190614c0d565b506060820151816003019081610c479190614c0d565b506080820151816004019081610c5d9190614c0d565b5060a0820151816005015560c0820151816006015560e08201518160070160006101000a81548160ff0219169083151502179055506101008201518160080155610120820151816009015561014082015181600a0155905050600b6000815480929190610cc990614d0e565b919050555082604051610cdc9190614d92565b604051809103902085604051610cf29190614d92565b60405180910390207f77191e0d0f58febc4c0d721e40183a0a4742b9b53af57cd3bde8468cd27118c183604051610d299190614da9565b60405180910390a35050505050565b826005600082815260200190815260200160002060009054906101000a900473ffffffffffffffffffffffffffffffffffffffff1673ffffffffffffffffffffffffffffffffffffffff163373ffffffffffffffffffffffffffffffffffffffff1614610dda576040517f08c379a0000000000000000000000000000000000000000000000000000000008152600401610dd190614e3d565b60405180910390fd5b6005600082815260200190815260200160002060006101000a81549073ffffffffffffffffffffffffffffffffffffffff0219169055807f7cc135e0cebb02c3480ae5d74d377283180a2601f8f644edf7987b009316c63a60405160405180910390a2837f278d18a75e865cf3e726d05a02b077061926492380d35c05f56555a5e7b3e7df8484604051610e6f929190614e5d565b60405180910390a2610e846014548484612313565b50505050565b610e92612a0e565b610e9c6000612a8c565b565b6000600660009054906101000a900473ffffffffffffffffffffffffffffffffffffffff16905090565b610ef27fa49807205ce4d355092ef5a8a18f56e8913cf4a201fbe287825b095693c2177533610f9b565b80610f2f5750610f00610e9e565b73ffffffffffffffffffffffffffffffffffffffff163373ffffffffffffffffffffffffffffffffffffffff16145b610f6e576040517f08c379a0000000000000000000000000000000000000000000000000000000008152600401610f65906149b9565b60405180910390fd5b610f987fab4f864e5201b0fde9b5ee3e4cf96384802b0ffdfcf7f9de4699ce21a30afc4f82612148565b50565b60006007600084815260200190815260200160002060000160008373ffffffffffffffffffffffffffffffffffffffff1673ffffffffffffffffffffffffffffffffffffffff16815260200190815260200160002060009054906101000a900460ff16905092915050565b6110307fab4f864e5201b0fde9b5ee3e4cf96384802b0ffdfcf7f9de4699ce21a30afc4f33610f9b565b8061106d575061103e610e9e565b73ffffffffffffffffffffffffffffffffffffffff163373ffffffffffffffffffffffffffffffffffffffff16145b6110ac576040517f08c379a00000000000000000000000000000000000000000000000000000000081526004016110a390614ed2565b60405180910390fd5b60006110c26010543063e5a2a1f860e01b612b52565b90506111986040518060400160405280600381526020017f6765740000000000000000000000000000000000000000000000000000000000815250600d805461110a9061492b565b80601f01602080910402602001604051908101604052809291908181526020018280546111369061492b565b80156111835780601f1061115857610100808354040283529160200191611183565b820191906000526020600020905b81548152906001019060200180831161116657829003601f168201915b505050505083612b839092919063ffffffff16565b6111ec6040518060400160405280600481526020017f70617468000000000000000000000000000000000000000000000000000000008152506111dc600b54612bb6565b83612b839092919063ffffffff16565b60006111fa82601254612c84565b9050807fd7b8242f7efe54cbffbcb9ab3cab3bd45981f49ab301d6b839ed011d0b31667360405160405180910390a25050565b600b548410611271576040517f08c379a000000000000000000000000000000000000000000000000000000000815260040161126890614f3e565b60405180910390fd5b600081116112b4576040517f08c379a00000000000000000000000000000000000000000000000000000000081526004016112ab90614fd0565b60405180910390fd5b6000601560009054906101000a900473ffffffffffffffffffffffffffffffffffffffff1673ffffffffffffffffffffffffffffffffffffffff166323b872dd3330856040518463ffffffff1660e01b815260040161131593929190614ff0565b6020604051808303816000875af1158015611334573d6000803e3d6000fd5b505050506040513d601f19601f820116820180604052508101906113589190615053565b90508061139a576040517f08c379a0000000000000000000000000000000000000000000000000000000008152600401611391906150cc565b60405180910390fd5b600a600086815260200190815260200160002060070160009054906101000a900460ff16156113fe576040517f08c379a00000000000000000000000000000000000000000000000000000000081526004016113f590615138565b60405180910390fd5b600060148361140d9190615187565b9050600060058461141e9190615187565b905080600a6000898152602001908152602001600020600801600082825461144691906151b8565b9250508190555080828561145a91906151ec565b61146491906151ec565b600a6000898152602001908152602001600020600a01600082825461148991906151b8565b925050819055506040518060e001604052803373ffffffffffffffffffffffffffffffffffffffff1681526020018881526020018284876114ca91906151ec565b6114d491906151ec565b815260200187815260200186815260200160001515815260200160001515815250600860008981526020019081526020016000206000600a60008b815260200190815260200160002060090154815260200190815260200160002060008201518160000160006101000a81548173ffffffffffffffffffffffffffffffffffffffff021916908373ffffffffffffffffffffffffffffffffffffffff1602179055506020820151816001015560408201518160020155606082015181600301556080820151816004015560a08201518160050160006101000a81548160ff02191690831515021790555060c08201518160050160016101000a81548160ff021916908315150217905550905050600a6000888152602001908152602001600020600901600081548092919061160890614d0e565b9190505550867fbb79d51f1411ca03952954c866d22ae3532b227b2cf62e257cf182397a647173878760405161163f929190614e5d565b60405180910390a250505050505050565b6000801b81565b816005600082815260200190815260200160002060009054906101000a900473ffffffffffffffffffffffffffffffffffffffff1673ffffffffffffffffffffffffffffffffffffffff163373ffffffffffffffffffffffffffffffffffffffff16146116f9576040517f08c379a00000000000000000000000000000000000000000000000000000000081526004016116f090614e3d565b60405180910390fd5b6005600082815260200190815260200160002060006101000a81549073ffffffffffffffffffffffffffffffffffffffff0219169055807f7cc135e0cebb02c3480ae5d74d377283180a2601f8f644edf7987b009316c63a60405160405180910390a2827f56674309f088f07dcc038cf9f886d47b6d58c2aee17422468a7c223cc0839a028360405161178c919061423f565b60405180910390a281601381905550600182146118b257601560009054906101000a900473ffffffffffffffffffffffffffffffffffffffff1673ffffffffffffffffffffffffffffffffffffffff1663a9059cbb600960006014548152602001908152602001600020600060018661180591906151ec565b815260200190815260200160002060000160009054906101000a900473ffffffffffffffffffffffffffffffffffffffff16600a60006014548152602001908152602001600020600801546040518363ffffffff1660e01b815260040161186d929190615220565b6020604051808303816000875af115801561188c573d6000803e3d6000fd5b505050506040513d601f19601f820116820180604052508101906118b09190615053565b505b505050565b601560009054906101000a900473ffffffffffffffffffffffffffffffffffffffff1681565b6119077fa49807205ce4d355092ef5a8a18f56e8913cf4a201fbe287825b095693c2177533610f9b565b806119445750611915610e9e565b73ffffffffffffffffffffffffffffffffffffffff163373ffffffffffffffffffffffffffffffffffffffff16145b611983576040517f08c379a000000000000000000000000000000000000000000000000000000000815260040161197a906149b9565b60405180910390fd5b80600c908161199291906152af565b5050565b6119c07fa49807205ce4d355092ef5a8a18f56e8913cf4a201fbe287825b095693c2177533610f9b565b806119fd57506119ce610e9e565b73ffffffffffffffffffffffffffffffffffffffff163373ffffffffffffffffffffffffffffffffffffffff16145b611a3c576040517f08c379a0000000000000000000000000000000000000000000000000000000008152600401611a33906149b9565b60405180910390fd5b8060108190555050565b611a4f826108d4565b611a5881612134565b611a628383612231565b505050565b816005600082815260200190815260200160002060009054906101000a900473ffffffffffffffffffffffffffffffffffffffff1673ffffffffffffffffffffffffffffffffffffffff163373ffffffffffffffffffffffffffffffffffffffff1614611b09576040517f08c379a0000000000000000000000000000000000000000000000000000000008152600401611b0090614e3d565b60405180910390fd5b6005600082815260200190815260200160002060006101000a81549073ffffffffffffffffffffffffffffffffffffffff0219169055807f7cc135e0cebb02c3480ae5d74d377283180a2601f8f644edf7987b009316c63a60405160405180910390a281604051611b7a919061546a565b6040518091039020837f5a57b85ff6e2f515bf4fbf834a27cec6083d7baf9eff5bbcce49d75d4c44ce3e60405160405180910390a3611c4382600081518110611bc657611bc5615481565b5b602002602001015183600181518110611be257611be1615481565b5b602002602001015184600281518110611bfe57611bfd615481565b5b602002602001015185600381518110611c1a57611c19615481565b5b602002602001015186600481518110611c3657611c35615481565b5b6020026020010151610b87565b505050565b6009602052816000526040600020602052806000526040600020600091509150508060000160009054906101000a900473ffffffffffffffffffffffffffffffffffffffff16908060010154908060020154908060030154908060040154908060050160009054906101000a900460ff16908060050160019054906101000a900460ff16905087565b611cd9612a0e565b601560009054906101000a900473ffffffffffffffffffffffffffffffffffffffff1673ffffffffffffffffffffffffffffffffffffffff1663a9059cbb82846040518363ffffffff1660e01b8152600401611d369291906154d1565b6020604051808303816000875af1158015611d55573d6000803e3d6000fd5b505050506040513d601f19601f82011682018060405250810190611d799190615053565b505050565b611d86612a0e565b600073ffffffffffffffffffffffffffffffffffffffff168173ffffffffffffffffffffffffffffffffffffffff1603611df5576040517f08c379a0000000000000000000000000000000000000000000000000000000008152600401611dec9061556c565b60405180910390fd5b611dfe81612a8c565b50565b611e2b7fab4f864e5201b0fde9b5ee3e4cf96384802b0ffdfcf7f9de4699ce21a30afc4f33610f9b565b80611e685750611e39610e9e565b73ffffffffffffffffffffffffffffffffffffffff163373ffffffffffffffffffffffffffffffffffffffff16145b611ea7576040517f08c379a0000000000000000000000000000000000000000000000000000000008152600401611e9e90614ed2565b60405180910390fd5b6000611ebd6011543063708d90d660e01b612b52565b90506000611eca83612bb6565b604051602001611eda9190615614565b60405160208183030381529060405290506000611ef684612bb6565b604051602001611f069190615682565b6040516020818303038152906040529050611feb6040518060400160405280600381526020017f6765740000000000000000000000000000000000000000000000000000000000815250600e8054611f5d9061492b565b80601f0160208091040260200160405190810160405280929190818152602001828054611f899061492b565b8015611fd65780601f10611fab57610100808354040283529160200191611fd6565b820191906000526020600020905b815481529060010190602001808311611fb957829003601f168201915b505050505085612b839092919063ffffffff16565b6120356040518060400160405280600581526020017f70617468310000000000000000000000000000000000000000000000000000008152508385612b839092919063ffffffff16565b61207f6040518060400160405280600581526020017f70617468320000000000000000000000000000000000000000000000000000008152508285612b839092919063ffffffff16565b83601481905550600061209484601254612c84565b9050807fe7a32afcf2413a36519016aab1d0c301eb77ab022284beed2a278aad61d1a09260405160405180910390a25050505050565b60007f01ffc9a7000000000000000000000000000000000000000000000000000000007bffffffffffffffffffffffffffffffffffffffffffffffffffffffff1916827bffffffffffffffffffffffffffffffffffffffffffffffffffffffff1916149050919050565b61214581612140612229565b612cbb565b50565b6121528282610f9b565b6122255760016007600084815260200190815260200160002060000160008373ffffffffffffffffffffffffffffffffffffffff1673ffffffffffffffffffffffffffffffffffffffff16815260200190815260200160002060006101000a81548160ff0219169083151502179055506121ca612229565b73ffffffffffffffffffffffffffffffffffffffff168173ffffffffffffffffffffffffffffffffffffffff16837f2f8788117e7eff1d82e926ec794901d17c78024a50270940304540a733656f0d60405160405180910390a45b5050565b600033905090565b61223b8282610f9b565b1561230f5760006007600084815260200190815260200160002060000160008373ffffffffffffffffffffffffffffffffffffffff1673ffffffffffffffffffffffffffffffffffffffff16815260200190815260200160002060006101000a81548160ff0219169083151502179055506122b4612229565b73ffffffffffffffffffffffffffffffffffffffff168173ffffffffffffffffffffffffffffffffffffffff16837ff6391f5c32d9c69d2a47ea670b442974b53935d1edc7fd64eb21e047a839171b60405160405180910390a45b5050565b600b548310612357576040517f08c379a000000000000000000000000000000000000000000000000000000000815260040161234e90614f3e565b60405180910390fd5b81600a60008581526020019081526020016000206005018190555080600a6000858152602001908152602001600020600601819055506001600a600085815260200190815260200160002060070160006101000a81548160ff0219169083151502179055506000600a6000858152602001908152602001600020600901540315612a09576000805b600a60008681526020019081526020016000206009015481101561248057836008600087815260200190815260200160002060008381526020019081526020016000206003015414801561245957508260086000878152602001908152602001600020600083815260200190815260200160002060040154145b1561246d57818061246990614d0e565b9250505b808061247890614d0e565b9150506123df565b5060008167ffffffffffffffff81111561249d5761249c614264565b5b6040519080825280602002602001820160405280156124d657816020015b6124c3613cd9565b8152602001906001900390816124bb5790505b5090506000806000805b600a60008a81526020019081526020016000206009015481101561287e5787600860008b815260200190815260200160002060008381526020019081526020016000206003015414801561255a575086600860008b8152602001908152602001600020600083815260200190815260200160002060040154145b156126e8576001600860008b8152602001908152602001600020600083815260200190815260200160002060050160006101000a81548160ff021916908315150217905550600860008a815260200190815260200160002060008281526020019081526020016000206040518060e00160405290816000820160009054906101000a900473ffffffffffffffffffffffffffffffffffffffff1673ffffffffffffffffffffffffffffffffffffffff1673ffffffffffffffffffffffffffffffffffffffff168152602001600182015481526020016002820154815260200160038201548152602001600482015481526020016005820160009054906101000a900460ff161515151581526020016005820160019054906101000a900460ff16151515158152505085858151811061269557612694615481565b5b6020026020010181905250600860008a8152602001908152602001600020600082815260200190815260200160002060020154826126d391906151b8565b915083806126e090614d0e565b94505061282b565b600860008a81526020019081526020016000206000828152602001908152602001600020600960008b815260200190815260200160002060008581526020019081526020016000206000820160009054906101000a900473ffffffffffffffffffffffffffffffffffffffff168160000160006101000a81548173ffffffffffffffffffffffffffffffffffffffff021916908373ffffffffffffffffffffffffffffffffffffffff160217905550600182015481600101556002820154816002015560038201548160030155600482015481600401556005820160009054906101000a900460ff168160050160006101000a81548160ff0219169083151502179055506005820160019054906101000a900460ff168160050160016101000a81548160ff021916908315150217905550905050828061282790614d0e565b9350505b6001600860008b8152602001908152602001600020600083815260200190815260200160002060050160016101000a81548160ff021916908315150217905550808061287690614d0e565b9150506124e0565b50600083036128cb57600a6000898152602001908152602001600020600a0154600a60008a815260200190815260200160002060080160008282546128c391906151b8565b925050819055505b60005b838110156129f257601560009054906101000a900473ffffffffffffffffffffffffffffffffffffffff1673ffffffffffffffffffffffffffffffffffffffff1663a9059cbb86838151811061292757612926615481565b5b6020026020010151600001518488858151811061294757612946615481565b5b602002602001015160400151600a60008f8152602001908152602001600020600a015461297491906156a4565b61297e9190615187565b6040518363ffffffff1660e01b815260040161299b929190615220565b6020604051808303816000875af11580156129ba573d6000803e3d6000fd5b505050506040513d601f19601f820116820180604052508101906129de9190615053565b5080806129ea90614d0e565b9150506128ce565b5087601481905550612a0382612d40565b50505050505b505050565b612a16612229565b73ffffffffffffffffffffffffffffffffffffffff16612a34610e9e565b73ffffffffffffffffffffffffffffffffffffffff1614612a8a576040517f08c379a0000000000000000000000000000000000000000000000000000000008152600401612a8190615732565b60405180910390fd5b565b6000600660009054906101000a900473ffffffffffffffffffffffffffffffffffffffff16905081600660006101000a81548173ffffffffffffffffffffffffffffffffffffffff021916908373ffffffffffffffffffffffffffffffffffffffff1602179055508173ffffffffffffffffffffffffffffffffffffffff168173ffffffffffffffffffffffffffffffffffffffff167f8be0079c531659141344cd1fd0a4f28419497f9722a3daafe3b4186f6b6457e060405160405180910390a35050565b612b5a613d30565b612b62613d30565b612b7985858584612eb8909392919063ffffffff16565b9150509392505050565b612b9a828460800151612f6890919063ffffffff16565b612bb1818460800151612f6890919063ffffffff16565b505050565b606060006001612bc584612f8d565b01905060008167ffffffffffffffff811115612be457612be3614264565b5b6040519080825280601f01601f191660200182016040528015612c165781602001600182028036833780820191505090505b509050600082602001820190505b600115612c79578080600190039150507f3031323334353637383961626364656600000000000000000000000000000000600a86061a8153600a8581612c6d57612c6c615158565b5b04945060008503612c24575b819350505050919050565b6000612cb3600360009054906101000a900473ffffffffffffffffffffffffffffffffffffffff1684846130e0565b905092915050565b612cc58282610f9b565b612d3c57612cd2816131aa565b612ce08360001c60206131d7565b604051602001612cf19291906157ea565b6040516020818303038152906040526040517f08c379a0000000000000000000000000000000000000000000000000000000008152600401612d33919061585d565b60405180910390fd5b5050565b6000612d56600f543063ade3778a60e01b612b52565b90506000600c612d6584612bb6565b604051602001612d76929190615902565b6040516020818303038152906040529050612dd16040518060400160405280600381526020017f67657400000000000000000000000000000000000000000000000000000000008152508284612b839092919063ffffffff16565b612e2a6040518060400160405280600481526020017f70617468000000000000000000000000000000000000000000000000000000008152506040518060200160405280600081525084612b839092919063ffffffff16565b612e756040518060400160405280600581526020017f74696d65730000000000000000000000000000000000000000000000000000008152506001846134139092919063ffffffff16565b6000612e8383601254613446565b9050807f1bbf3b6e20d98e7a10bd8311f993bf505fa12c23c2106847f80ded6578bbd95060405160405180910390a250505050565b612ec0613d30565b612ed0856080015161010061347d565b508385600001818152505082856020019073ffffffffffffffffffffffffffffffffffffffff16908173ffffffffffffffffffffffffffffffffffffffff16815250508185604001907bffffffffffffffffffffffffffffffffffffffffffffffffffffffff191690817bffffffffffffffffffffffffffffffffffffffffffffffffffffffff191681525050849050949350505050565b612f7582600383516134e7565b612f88818361366c90919063ffffffff16565b505050565b600080600090507a184f03e93ff9f4daa797ed6e38ed64bf6a1f0100000000000000008310612feb577a184f03e93ff9f4daa797ed6e38ed64bf6a1f0100000000000000008381612fe157612fe0615158565b5b0492506040810190505b6d04ee2d6d415b85acef81000000008310613028576d04ee2d6d415b85acef8100000000838161301e5761301d615158565b5b0492506020810190505b662386f26fc10000831061305757662386f26fc10000838161304d5761304c615158565b5b0492506010810190505b6305f5e1008310613080576305f5e100838161307657613075615158565b5b0492506008810190505b61271083106130a557612710838161309b5761309a615158565b5b0492506004810190505b606483106130c857606483816130be576130bd615158565b5b0492506002810190505b600a83106130d7576001810190505b80915050919050565b60008060045490506001816130f591906151b8565b6004819055506000633c6d41b960e01b600080876000015188604001518660028b60800151600001516040516024016131349796959493929190615935565b604051602081830303815290604052907bffffffffffffffffffffffffffffffffffffffffffffffffffffffff19166020820180517bffffffffffffffffffffffffffffffffffffffffffffffffffffffff8381831617835250505050905061319f8683868461368e565b925050509392505050565b60606131d08273ffffffffffffffffffffffffffffffffffffffff16601460ff166131d7565b9050919050565b6060600060028360026131ea91906156a4565b6131f491906151b8565b67ffffffffffffffff81111561320d5761320c614264565b5b6040519080825280601f01601f19166020018201604052801561323f5781602001600182028036833780820191505090505b5090507f30000000000000000000000000000000000000000000000000000000000000008160008151811061327757613276615481565b5b60200101907effffffffffffffffffffffffffffffffffffffffffffffffffffffffffffff1916908160001a9053507f7800000000000000000000000000000000000000000000000000000000000000816001815181106132db576132da615481565b5b60200101907effffffffffffffffffffffffffffffffffffffffffffffffffffffffffffff1916908160001a9053506000600184600261331b91906156a4565b61332591906151b8565b90505b60018111156133c5577f3031323334353637383961626364656600000000000000000000000000000000600f86166010811061336757613366615481565b5b1a60f81b82828151811061337e5761337d615481565b5b60200101907effffffffffffffffffffffffffffffffffffffffffffffffffffffffffffff1916908160001a905350600485901c9450806133be906159ab565b9050613328565b5060008414613409576040517f08c379a000000000000000000000000000000000000000000000000000000000815260040161340090615a20565b60405180910390fd5b8091505092915050565b61342a828460800151612f6890919063ffffffff16565b61344181846080015161382390919063ffffffff16565b505050565b6000613475600360009054906101000a900473ffffffffffffffffffffffffffffffffffffffff1684846138d0565b905092915050565b613485613d9d565b60006020836134949190615a40565b146134c0576020826134a69190615a40565b60206134b291906151ec565b826134bd91906151b8565b91505b81836020018181525050604051808452600081528281016020016040525082905092915050565b60178167ffffffffffffffff161161351e576135188160058460ff16901b60ff16178461399c90919063ffffffff16565b50613667565b60ff8167ffffffffffffffff16116135745761354d601860058460ff16901b178461399c90919063ffffffff16565b5061356e8167ffffffffffffffff166001856139bc9092919063ffffffff16565b50613666565b61ffff8167ffffffffffffffff16116135cb576135a4601960058460ff16901b178461399c90919063ffffffff16565b506135c58167ffffffffffffffff166002856139bc9092919063ffffffff16565b50613665565b63ffffffff8167ffffffffffffffff1611613624576135fd601a60058460ff16901b178461399c90919063ffffffff16565b5061361e8167ffffffffffffffff166004856139bc9092919063ffffffff16565b50613664565b613641601b60058460ff16901b178461399c90919063ffffffff16565b506136628167ffffffffffffffff166008856139bc9092919063ffffffff16565b505b5b5b5b505050565b613674613d9d565b613686838460000151518485516139de565b905092915050565b600030846040516020016136a3929190615aec565b604051602081830303815290604052805190602001209050846005600083815260200190815260200160002060006101000a81548173ffffffffffffffffffffffffffffffffffffffff021916908373ffffffffffffffffffffffffffffffffffffffff160217905550807fb5e6e01e79f91267dc17b4e6314d5d4d03593d2ceee0fbb452b750bd70ea5af960405160405180910390a2600260009054906101000a900473ffffffffffffffffffffffffffffffffffffffff1673ffffffffffffffffffffffffffffffffffffffff16634000aea08685856040518463ffffffff1660e01b815260040161379993929190615b18565b6020604051808303816000875af11580156137b8573d6000803e3d6000fd5b505050506040513d601f19601f820116820180604052508101906137dc9190615053565b61381b576040517f08c379a000000000000000000000000000000000000000000000000000000000815260040161381290615bc8565b60405180910390fd5b949350505050565b7fffffffffffffffffffffffffffffffffffffffffffffffff000000000000000081121561385a576138558282613acd565b6138cc565b67ffffffffffffffff811315613879576138748282613b44565b6138cb565b600081126138925761388d826000836134e7565b6138ca565b6138c9826001837fffffffffffffffffffffffffffffffffffffffffffffffffffffffffffffffff6138c49190615bf2565b6134e7565b5b5b5b5050565b60008060045490506001816138e591906151b8565b6004819055506000634042994660e01b60008087600001513089604001518760018c6080015160000151604051602401613926989796959493929190615c35565b604051602081830303815290604052907bffffffffffffffffffffffffffffffffffffffffffffffffffffffff19166020820180517bffffffffffffffffffffffffffffffffffffffffffffffffffffffff838183161783525050505090506139918683868461368e565b925050509392505050565b6139a4613d9d565b6139b48384600001515184613b90565b905092915050565b6139c4613d9d565b6139d5848560000151518585613be6565b90509392505050565b6139e6613d9d565b82518211156139f457600080fd5b84602001518285613a0591906151b8565b1115613a3a57613a39856002613a2a88602001518887613a2591906151b8565b613c74565b613a3491906156a4565b613c90565b5b600080865180518760208301019350808887011115613a595787860182525b60208701925050505b60208410613aa05780518252602082613a7b91906151b8565b9150602081613a8a91906151b8565b9050602084613a9991906151ec565b9350613a62565b60006001856020036101000a03905080198251168184511681811785525050508692505050949350505050565b613aeb60036005600660ff16901b178361399c90919063ffffffff16565b50613b4082827fffffffffffffffffffffffffffffffffffffffffffffffffffffffffffffffff613b1c9190615bf2565b604051602001613b2c919061423f565b604051602081830303815290604052613cb4565b5050565b613b6260026005600660ff16901b178361399c90919063ffffffff16565b50613b8c8282604051602001613b78919061423f565b604051602081830303815290604052613cb4565b5050565b613b98613d9d565b83602001518310613bbe57613bbd8460028660200151613bb891906156a4565b613c90565b5b83518051602085830101848153818603613bd9576001820183525b5050508390509392505050565b613bee613d9d565b84602001518483613bff91906151b8565b1115613c2757613c268560028685613c1791906151b8565b613c2191906156a4565b613c90565b5b6000600183610100613c399190615ded565b613c4391906151ec565b90508551838682010185831982511617815281518588011115613c665784870182525b505085915050949350505050565b600081831115613c8657829050613c8a565b8190505b92915050565b600082600001519050613ca3838361347d565b50613cae838261366c565b50505050565b613cc182600283516134e7565b613cd4818361366c90919063ffffffff16565b505050565b6040518060e00160405280600073ffffffffffffffffffffffffffffffffffffffff168152602001600081526020016000815260200160008152602001600081526020016000151581526020016000151581525090565b6040518060a0016040528060008019168152602001600073ffffffffffffffffffffffffffffffffffffffff16815260200160007bffffffffffffffffffffffffffffffffffffffffffffffffffffffff1916815260200160008152602001613d97613d9d565b81525090565b604051806040016040528060608152602001600081525090565b6000604051905090565b600080fd5b600080fd5b60007fffffffff0000000000000000000000000000000000000000000000000000000082169050919050565b613e0081613dcb565b8114613e0b57600080fd5b50565b600081359050613e1d81613df7565b92915050565b600060208284031215613e3957613e38613dc1565b5b6000613e4784828501613e0e565b91505092915050565b60008115159050919050565b613e6581613e50565b82525050565b6000602082019050613e806000830184613e5c565b92915050565b6000819050919050565b613e9981613e86565b8114613ea457600080fd5b50565b600081359050613eb681613e90565b92915050565b600060208284031215613ed257613ed1613dc1565b5b6000613ee084828501613ea7565b91505092915050565b600081519050919050565b600082825260208201905092915050565b60005b83811015613f23578082015181840152602081019050613f08565b60008484015250505050565b6000601f19601f8301169050919050565b6000613f4b82613ee9565b613f558185613ef4565b9350613f65818560208601613f05565b613f6e81613f2f565b840191505092915050565b613f8281613e86565b82525050565b6000610160820190508181036000830152613fa3818e613f40565b90508181036020830152613fb7818d613f40565b90508181036040830152613fcb818c613f40565b90508181036060830152613fdf818b613f40565b90508181036080830152613ff3818a613f40565b905061400260a0830189613f79565b61400f60c0830188613f79565b61401c60e0830187613e5c565b61402a610100830186613f79565b614038610120830185613f79565b614046610140830184613f79565b9c9b505050505050505050505050565b6000819050919050565b61406981614056565b811461407457600080fd5b50565b60008135905061408681614060565b92915050565b6000602082840312156140a2576140a1613dc1565b5b60006140b084828501614077565b91505092915050565b6140c281614056565b82525050565b60006020820190506140dd60008301846140b9565b92915050565b600073ffffffffffffffffffffffffffffffffffffffff82169050919050565b600061410e826140e3565b9050919050565b61411e81614103565b811461412957600080fd5b50565b60008135905061413b81614115565b92915050565b6000806040838503121561415857614157613dc1565b5b600061416685828601614077565b92505060206141778582860161412c565b9150509250929050565b6000806040838503121561419857614197613dc1565b5b60006141a685828601613ea7565b92505060206141b785828601613ea7565b9150509250929050565b6141ca81614103565b82525050565b600060e0820190506141e5600083018a6141c1565b6141f26020830189613f79565b6141ff6040830188613f79565b61420c6060830187613f79565b6142196080830186613f79565b61422660a0830185613e5c565b61423360c0830184613e5c565b98975050505050505050565b60006020820190506142546000830184613f79565b92915050565b600080fd5b600080fd5b7f4e487b7100000000000000000000000000000000000000000000000000000000600052604160045260246000fd5b61429c82613f2f565b810181811067ffffffffffffffff821117156142bb576142ba614264565b5b80604052505050565b60006142ce613db7565b90506142da8282614293565b919050565b600067ffffffffffffffff8211156142fa576142f9614264565b5b61430382613f2f565b9050602081019050919050565b82818337600083830152505050565b600061433261432d846142df565b6142c4565b90508281526020810184848401111561434e5761434d61425f565b5b614359848285614310565b509392505050565b600082601f8301126143765761437561425a565b5b813561438684826020860161431f565b91505092915050565b600080600080600060a086880312156143ab576143aa613dc1565b5b600086013567ffffffffffffffff8111156143c9576143c8613dc6565b5b6143d588828901614361565b955050602086013567ffffffffffffffff8111156143f6576143f5613dc6565b5b61440288828901614361565b945050604086013567ffffffffffffffff81111561442357614422613dc6565b5b61442f88828901614361565b935050606086013567ffffffffffffffff8111156144505761444f613dc6565b5b61445c88828901614361565b925050608086013567ffffffffffffffff81111561447d5761447c613dc6565b5b61448988828901614361565b9150509295509295909350565b6000806000606084860312156144af576144ae613dc1565b5b60006144bd86828701614077565b93505060206144ce86828701613ea7565b92505060406144df86828701613ea7565b9150509250925092565b60006020820190506144fe60008301846141c1565b92915050565b60006020828403121561451a57614519613dc1565b5b60006145288482850161412c565b91505092915050565b6000806000806080858703121561454b5761454a613dc1565b5b600061455987828801613ea7565b945050602061456a87828801613ea7565b935050604061457b87828801613ea7565b925050606061458c87828801613ea7565b91505092959194509250565b600080604083850312156145af576145ae613dc1565b5b60006145bd85828601614077565b92505060206145ce85828601613ea7565b9150509250929050565b6000819050919050565b60006145fd6145f86145f3846140e3565b6145d8565b6140e3565b9050919050565b600061460f826145e2565b9050919050565b600061462182614604565b9050919050565b61463181614616565b82525050565b600060208201905061464c6000830184614628565b92915050565b600067ffffffffffffffff82111561466d5761466c614264565b5b61467682613f2f565b9050602081019050919050565b600061469661469184614652565b6142c4565b9050828152602081018484840111156146b2576146b161425f565b5b6146bd848285614310565b509392505050565b600082601f8301126146da576146d961425a565b5b81356146ea848260208601614683565b91505092915050565b60006020828403121561470957614708613dc1565b5b600082013567ffffffffffffffff81111561472757614726613dc6565b5b614733848285016146c5565b91505092915050565b600067ffffffffffffffff82111561475757614756614264565b5b602082029050602081019050919050565b600080fd5b600061478061477b8461473c565b6142c4565b905080838252602082019050602084028301858111156147a3576147a2614768565b5b835b818110156147ea57803567ffffffffffffffff8111156147c8576147c761425a565b5b8086016147d58982614361565b855260208501945050506020810190506147a5565b5050509392505050565b600082601f8301126148095761480861425a565b5b813561481984826020860161476d565b91505092915050565b6000806040838503121561483957614838613dc1565b5b600061484785828601614077565b925050602083013567ffffffffffffffff81111561486857614867613dc6565b5b614874858286016147f4565b9150509250929050565b6000614889826140e3565b9050919050565b6148998161487e565b81146148a457600080fd5b50565b6000813590506148b681614890565b92915050565b600080604083850312156148d3576148d2613dc1565b5b60006148e185828601613ea7565b92505060206148f2858286016148a7565b9150509250929050565b7f4e487b7100000000000000000000000000000000000000000000000000000000600052602260045260246000fd5b6000600282049050600182168061494357607f821691505b602082108103614956576149556148fc565b5b50919050565b600082825260208201905092915050565b7f49535f4e4f545f41444d494e0000000000000000000000000000000000000000600082015250565b60006149a3600c8361495c565b91506149ae8261496d565b602082019050919050565b600060208201905081810360008301526149d281614996565b9050919050565b7f416363657373436f6e74726f6c3a2063616e206f6e6c792072656e6f756e636560008201527f20726f6c657320666f722073656c660000000000000000000000000000000000602082015250565b6000614a35602f8361495c565b9150614a40826149d9565b604082019050919050565b60006020820190508181036000830152614a6481614a28565b9050919050565b60008190508160005260206000209050919050565b60006020601f8301049050919050565b600082821b905092915050565b600060088302614acd7fffffffffffffffffffffffffffffffffffffffffffffffffffffffffffffffff82614a90565b614ad78683614a90565b95508019841693508086168417925050509392505050565b6000614b0a614b05614b0084613e86565b6145d8565b613e86565b9050919050565b6000819050919050565b614b2483614aef565b614b38614b3082614b11565b848454614a9d565b825550505050565b600090565b614b4d614b40565b614b58818484614b1b565b505050565b5b81811015614b7c57614b71600082614b45565b600181019050614b5e565b5050565b601f821115614bc157614b9281614a6b565b614b9b84614a80565b81016020851015614baa578190505b614bbe614bb685614a80565b830182614b5d565b50505b505050565b600082821c905092915050565b6000614be460001984600802614bc6565b1980831691505092915050565b6000614bfd8383614bd3565b9150826002028217905092915050565b614c1682613ee9565b67ffffffffffffffff811115614c2f57614c2e614264565b5b614c39825461492b565b614c44828285614b80565b600060209050601f831160018114614c775760008415614c65578287015190505b614c6f8582614bf1565b865550614cd7565b601f198416614c8586614a6b565b60005b82811015614cad57848901518255600182019150602085019450602081019050614c88565b86831015614cca5784890151614cc6601f891682614bd3565b8355505b6001600288020188555050505b505050505050565b7f4e487b7100000000000000000000000000000000000000000000000000000000600052601160045260246000fd5b6000614d1982613e86565b91507fffffffffffffffffffffffffffffffffffffffffffffffffffffffffffffffff8203614d4b57614d4a614cdf565b5b600182019050919050565b600081905092915050565b6000614d6c82613ee9565b614d768185614d56565b9350614d86818560208601613f05565b80840191505092915050565b6000614d9e8284614d61565b915081905092915050565b60006020820190508181036000830152614dc38184613f40565b905092915050565b7f536f75726365206d75737420626520746865206f7261636c65206f662074686560008201527f2072657175657374000000000000000000000000000000000000000000000000602082015250565b6000614e2760288361495c565b9150614e3282614dcb565b604082019050919050565b60006020820190508181036000830152614e5681614e1a565b9050919050565b6000604082019050614e726000830185613f79565b614e7f6020830184613f79565b9392505050565b7f49535f4e4f545f52454c41594552000000000000000000000000000000000000600082015250565b6000614ebc600e8361495c565b9150614ec782614e86565b602082019050919050565b60006020820190508181036000830152614eeb81614eaf565b9050919050565b7f496e76616c69642067616d652049440000000000000000000000000000000000600082015250565b6000614f28600f8361495c565b9150614f3382614ef2565b602082019050919050565b60006020820190508181036000830152614f5781614f1b565b9050919050565b7f42657420616d6f756e74206d7573742062652067726561746572207468616e2060008201527f7a65726f00000000000000000000000000000000000000000000000000000000602082015250565b6000614fba60248361495c565b9150614fc582614f5e565b604082019050919050565b60006020820190508181036000830152614fe981614fad565b9050919050565b600060608201905061500560008301866141c1565b61501260208301856141c1565b61501f6040830184613f79565b949350505050565b61503081613e50565b811461503b57600080fd5b50565b60008151905061504d81615027565b92915050565b60006020828403121561506957615068613dc1565b5b60006150778482850161503e565b91505092915050565b7f5472616e73616374696f6e206661696c65640000000000000000000000000000600082015250565b60006150b660128361495c565b91506150c182615080565b602082019050919050565b600060208201905081810360008301526150e5816150a9565b9050919050565b7f47616d652068617320616c726561647920636f6d706c65746564000000000000600082015250565b6000615122601a8361495c565b915061512d826150ec565b602082019050919050565b6000602082019050818103600083015261515181615115565b9050919050565b7f4e487b7100000000000000000000000000000000000000000000000000000000600052601260045260246000fd5b600061519282613e86565b915061519d83613e86565b9250826151ad576151ac615158565b5b828204905092915050565b60006151c382613e86565b91506151ce83613e86565b92508282019050808211156151e6576151e5614cdf565b5b92915050565b60006151f782613e86565b915061520283613e86565b925082820390508181111561521a57615219614cdf565b5b92915050565b600060408201905061523560008301856141c1565b6152426020830184613f79565b9392505050565b600081519050919050565b60008190508160005260206000209050919050565b601f8211156152aa5761527b81615254565b61528484614a80565b81016020851015615293578190505b6152a761529f85614a80565b830182614b5d565b50505b505050565b6152b882615249565b67ffffffffffffffff8111156152d1576152d0614264565b5b6152db825461492b565b6152e6828285615269565b600060209050601f8311600181146153195760008415615307578287015190505b6153118582614bf1565b865550615379565b601f19841661532786615254565b60005b8281101561534f5784890151825560018201915060208501945060208101905061532a565b8683101561536c5784890151615368601f891682614bd3565b8355505b6001600288020188555050505b505050505050565b600081519050919050565b600081905092915050565b6000819050602082019050919050565b600081905092915050565b60006153bd82613ee9565b6153c781856153a7565b93506153d7818560208601613f05565b6153e081613f2f565b840191505092915050565b60006153f783836153b2565b905092915050565b6000602082019050919050565b600061541782615381565b615421818561538c565b935061542c83615397565b8060005b8381101561545d57815161544488826153eb565b975061544f836153ff565b925050600181019050615430565b5085935050505092915050565b6000615476828461540c565b915081905092915050565b7f4e487b7100000000000000000000000000000000000000000000000000000000600052603260045260246000fd5b60006154bb82614604565b9050919050565b6154cb816154b0565b82525050565b60006040820190506154e660008301856154c2565b6154f36020830184613f79565b9392505050565b7f4f776e61626c653a206e6577206f776e657220697320746865207a65726f206160008201527f6464726573730000000000000000000000000000000000000000000000000000602082015250565b600061555660268361495c565b9150615561826154fa565b604082019050919050565b6000602082019050818103600083015261558581615549565b9050919050565b600081905092915050565b60006155a282615249565b6155ac818561558c565b93506155bc818560208601613f05565b80840191505092915050565b7f2c7465616d410000000000000000000000000000000000000000000000000000600082015250565b60006155fe60068361558c565b9150615609826155c8565b600682019050919050565b60006156208284615597565b915061562b826155f1565b915081905092915050565b7f2c7465616d420000000000000000000000000000000000000000000000000000600082015250565b600061566c60068361558c565b915061567782615636565b600682019050919050565b600061568e8284615597565b91506156998261565f565b915081905092915050565b60006156af82613e86565b91506156ba83613e86565b92508282026156c881613e86565b915082820484148315176156df576156de614cdf565b5b5092915050565b7f4f776e61626c653a2063616c6c6572206973206e6f7420746865206f776e6572600082015250565b600061571c60208361495c565b9150615727826156e6565b602082019050919050565b6000602082019050818103600083015261574b8161570f565b9050919050565b7f416363657373436f6e74726f6c3a206163636f756e7420000000000000000000600082015250565b600061578860178361558c565b915061579382615752565b601782019050919050565b7f206973206d697373696e6720726f6c6520000000000000000000000000000000600082015250565b60006157d460118361558c565b91506157df8261579e565b601182019050919050565b60006157f58261577b565b91506158018285615597565b915061580c826157c7565b91506158188284615597565b91508190509392505050565b600061582f82615249565b615839818561495c565b9350615849818560208601613f05565b61585281613f2f565b840191505092915050565b600060208201905081810360008301526158778184615824565b905092915050565b6000815461588c8161492b565b615896818661558c565b945060018216600081146158b157600181146158c6576158f9565b60ff19831686528115158202860193506158f9565b6158cf85615254565b60005b838110156158f1578154818901526001820191506020810190506158d2565b838801955050505b50505092915050565b600061590e828561587f565b915061591a8284615597565b91508190509392505050565b61592f81613dcb565b82525050565b600060e08201905061594a600083018a6141c1565b6159576020830189613f79565b61596460408301886140b9565b6159716060830187615926565b61597e6080830186613f79565b61598b60a0830185613f79565b81810360c083015261599d8184613f40565b905098975050505050505050565b60006159b682613e86565b9150600082036159c9576159c8614cdf565b5b600182039050919050565b7f537472696e67733a20686578206c656e67746820696e73756666696369656e74600082015250565b6000615a0a60208361495c565b9150615a15826159d4565b602082019050919050565b60006020820190508181036000830152615a39816159fd565b9050919050565b6000615a4b82613e86565b9150615a5683613e86565b925082615a6657615a65615158565b5b828206905092915050565b6000615a7c82614604565b9050919050565b60008160601b9050919050565b6000615a9b82615a83565b9050919050565b6000615aad82615a90565b9050919050565b615ac5615ac082615a71565b615aa2565b82525050565b6000819050919050565b615ae6615ae182613e86565b615acb565b82525050565b6000615af88285615ab4565b601482019150615b088284615ad5565b6020820191508190509392505050565b6000606082019050615b2d60008301866141c1565b615b3a6020830185613f79565b8181036040830152615b4c8184613f40565b9050949350505050565b7f756e61626c6520746f207472616e73666572416e6443616c6c20746f206f726160008201527f636c650000000000000000000000000000000000000000000000000000000000602082015250565b6000615bb260238361495c565b9150615bbd82615b56565b604082019050919050565b60006020820190508181036000830152615be181615ba5565b9050919050565b6000819050919050565b6000615bfd82615be8565b9150615c0883615be8565b9250828203905081811260008412168282136000851215161715615c2f57615c2e614cdf565b5b92915050565b600061010082019050615c4b600083018b6141c1565b615c58602083018a613f79565b615c6560408301896140b9565b615c7260608301886141c1565b615c7f6080830187615926565b615c8c60a0830186613f79565b615c9960c0830185613f79565b81810360e0830152615cab8184613f40565b90509998505050505050505050565b60008160011c9050919050565b6000808291508390505b6001851115615d1157808604811115615ced57615cec614cdf565b5b6001851615615cfc5780820291505b8081029050615d0a85615cba565b9450615cd1565b94509492505050565b600082615d2a5760019050615de6565b81615d385760009050615de6565b8160018114615d4e5760028114615d5857615d87565b6001915050615de6565b60ff841115615d6a57615d69614cdf565b5b8360020a915084821115615d8157615d80614cdf565b5b50615de6565b5060208310610133831016604e8410600b8410161715615dbc5782820a905083811115615db757615db6614cdf565b5b615de6565b615dc98484846001615cc7565b92509050818404811115615de057615ddf614cdf565b5b81810290505b9392505050565b6000615df882613e86565b9150615e0383613e86565b9250615e307fffffffffffffffffffffffffffffffffffffffffffffffffffffffffffffffff8484615d1a565b90509291505056fea2646970667358221220d655d05f3200daede2fde2b0ad3abe93722d8adb3165d6a68a4ee4724005a13364736f6c63430008110033",
  "linkReferences": {},
  "deployedLinkReferences": {}
}