{
  "_format": "hh-sol-artifact-1",
  "contractName": "Sports",
  "sourceName": "contracts/Sports.sol",
  "abi": [
    {
      "inputs": [
        {
          "internalType": "address",
          "name": "_chainlinkToken",
          "type": "address"
        },
        {
          "internalType": "address",
          "name": "_chainlinkOracle",
          "type": "address"
        },
        {
          "internalType": "bytes32",
          "name": "_jobIdNumbers",
          "type": "bytes32"
        },
        {
          "internalType": "bytes32",
          "name": "_jobIdStrings",
          "type": "bytes32"
        },
        {
          "internalType": "address",
          "name": "_relayer",
          "type": "address"
        },
        {
          "internalType": "address",
          "name": "_usdcContractAddress",
          "type": "address"
        },
        {
          "internalType": "address[]",
          "name": "_mods",
          "type": "address[]"
        },
        {
          "internalType": "address[]",
          "name": "_admins",
          "type": "address[]"
        },
        {
          "internalType": "string",
          "name": "_numbersAPI",
          "type": "string"
        },
        {
          "internalType": "string",
          "name": "_gamesAPI",
          "type": "string"
        }
      ],
      "stateMutability": "nonpayable",
      "type": "constructor"
    },
    {
      "anonymous": false,
      "inputs": [
        {
          "indexed": true,
          "internalType": "uint256",
          "name": "_gameId",
          "type": "uint256"
        },
        {
          "indexed": false,
          "internalType": "uint256",
          "name": "_homeScore",
          "type": "uint256"
        },
        {
          "indexed": false,
          "internalType": "uint256",
          "name": "_awayScore",
          "type": "uint256"
        }
      ],
      "name": "BetCreated",
      "type": "event"
    },
    {
      "anonymous": false,
      "inputs": [
        {
          "indexed": true,
          "internalType": "bytes32",
          "name": "id",
          "type": "bytes32"
        }
      ],
      "name": "ChainlinkCancelled",
      "type": "event"
    },
    {
      "anonymous": false,
      "inputs": [
        {
          "indexed": true,
          "internalType": "bytes32",
          "name": "id",
          "type": "bytes32"
        }
      ],
      "name": "ChainlinkFulfilled",
      "type": "event"
    },
    {
      "anonymous": false,
      "inputs": [
        {
          "indexed": true,
          "internalType": "bytes32",
          "name": "id",
          "type": "bytes32"
        }
      ],
      "name": "ChainlinkRequested",
      "type": "event"
    },
    {
      "anonymous": false,
      "inputs": [
        {
          "indexed": false,
          "internalType": "string",
          "name": "_gameTime",
          "type": "string"
        },
        {
          "indexed": true,
          "internalType": "string",
          "name": "_homeTeam",
          "type": "string"
        },
        {
          "indexed": true,
          "internalType": "string",
          "name": "_awayTeam",
          "type": "string"
        }
      ],
      "name": "GameCreated",
      "type": "event"
    },
    {
      "anonymous": false,
      "inputs": [
        {
          "indexed": true,
          "internalType": "address",
          "name": "previousOwner",
          "type": "address"
        },
        {
          "indexed": true,
          "internalType": "address",
          "name": "newOwner",
          "type": "address"
        }
      ],
      "name": "OwnershipTransferred",
      "type": "event"
    },
    {
      "anonymous": false,
      "inputs": [
        {
          "indexed": false,
          "internalType": "uint256",
          "name": "print",
          "type": "uint256"
        }
      ],
      "name": "Print",
      "type": "event"
    },
    {
      "anonymous": false,
      "inputs": [
        {
          "indexed": false,
          "internalType": "bytes32",
          "name": "requestId",
          "type": "bytes32"
        },
        {
          "indexed": false,
          "internalType": "uint256",
          "name": "random",
          "type": "uint256"
        }
      ],
      "name": "RequestFulfilled",
      "type": "event"
    },
    {
      "anonymous": false,
      "inputs": [
        {
          "indexed": true,
          "internalType": "bytes32",
          "name": "requestId",
          "type": "bytes32"
        },
        {
          "indexed": false,
          "internalType": "string",
          "name": "TeamA",
          "type": "string"
        },
        {
          "indexed": false,
          "internalType": "string",
          "name": "TeamB",
          "type": "string"
        },
        {
          "indexed": false,
          "internalType": "string",
          "name": "Date",
          "type": "string"
        }
      ],
      "name": "RequestMultipleFulfilled",
      "type": "event"
    },
    {
      "anonymous": false,
      "inputs": [
        {
          "indexed": true,
          "internalType": "bytes32",
          "name": "requestId",
          "type": "bytes32"
        },
        {
          "indexed": false,
          "internalType": "uint256",
          "name": "number",
          "type": "uint256"
        }
      ],
      "name": "RequestNumber",
      "type": "event"
    },
    {
      "anonymous": false,
      "inputs": [
        {
          "indexed": false,
          "internalType": "uint256",
          "name": "requestId",
          "type": "uint256"
        },
        {
          "indexed": false,
          "internalType": "uint32",
          "name": "numWords",
          "type": "uint32"
        }
      ],
      "name": "RequestSent",
      "type": "event"
    },
    {
      "anonymous": false,
      "inputs": [
        {
          "indexed": true,
          "internalType": "bytes32",
          "name": "role",
          "type": "bytes32"
        },
        {
          "indexed": true,
          "internalType": "bytes32",
          "name": "previousAdminRole",
          "type": "bytes32"
        },
        {
          "indexed": true,
          "internalType": "bytes32",
          "name": "newAdminRole",
          "type": "bytes32"
        }
      ],
      "name": "RoleAdminChanged",
      "type": "event"
    },
    {
      "anonymous": false,
      "inputs": [
        {
          "indexed": true,
          "internalType": "bytes32",
          "name": "role",
          "type": "bytes32"
        },
        {
          "indexed": true,
          "internalType": "address",
          "name": "account",
          "type": "address"
        },
        {
          "indexed": true,
          "internalType": "address",
          "name": "sender",
          "type": "address"
        }
      ],
      "name": "RoleGranted",
      "type": "event"
    },
    {
      "anonymous": false,
      "inputs": [
        {
          "indexed": true,
          "internalType": "bytes32",
          "name": "role",
          "type": "bytes32"
        },
        {
          "indexed": true,
          "internalType": "address",
          "name": "account",
          "type": "address"
        },
        {
          "indexed": true,
          "internalType": "address",
          "name": "sender",
          "type": "address"
        }
      ],
      "name": "RoleRevoked",
      "type": "event"
    },
    {
      "inputs": [],
      "name": "ADMIN_ROLE",
      "outputs": [
        {
          "internalType": "bytes32",
          "name": "",
          "type": "bytes32"
        }
      ],
      "stateMutability": "view",
      "type": "function"
    },
    {
      "inputs": [],
      "name": "DEFAULT_ADMIN_ROLE",
      "outputs": [
        {
          "internalType": "bytes32",
          "name": "",
          "type": "bytes32"
        }
      ],
      "stateMutability": "view",
      "type": "function"
    },
    {
      "inputs": [],
      "name": "MOD_ROLE",
      "outputs": [
        {
          "internalType": "bytes32",
          "name": "",
          "type": "bytes32"
        }
      ],
      "stateMutability": "view",
      "type": "function"
    },
    {
      "inputs": [],
      "name": "RELAYER",
      "outputs": [
        {
          "internalType": "bytes32",
          "name": "",
          "type": "bytes32"
        }
      ],
      "stateMutability": "view",
      "type": "function"
    },
    {
      "inputs": [],
      "name": "USDc",
      "outputs": [
        {
          "internalType": "contract USDC",
          "name": "",
          "type": "address"
        }
      ],
      "stateMutability": "view",
      "type": "function"
    },
    {
      "inputs": [
        {
          "internalType": "string",
          "name": "_homeTeam",
          "type": "string"
        },
        {
          "internalType": "string",
          "name": "_awayTeam",
          "type": "string"
        },
        {
          "internalType": "string",
          "name": "_gameTime",
          "type": "string"
        }
      ],
      "name": "addGame",
      "outputs": [],
      "stateMutability": "nonpayable",
      "type": "function"
    },
    {
      "inputs": [],
      "name": "addGamesFromAPI",
      "outputs": [],
      "stateMutability": "nonpayable",
      "type": "function"
    },
    {
      "inputs": [
        {
          "internalType": "uint256",
          "name": "",
          "type": "uint256"
        },
        {
          "internalType": "uint256",
          "name": "",
          "type": "uint256"
        }
      ],
      "name": "betsByGame",
      "outputs": [
        {
          "internalType": "address",
          "name": "user",
          "type": "address"
        },
        {
          "internalType": "uint256",
          "name": "gameId",
          "type": "uint256"
        },
        {
          "internalType": "uint256",
          "name": "amount",
          "type": "uint256"
        },
        {
          "internalType": "uint256",
          "name": "homeScore",
          "type": "uint256"
        },
        {
          "internalType": "uint256",
          "name": "awayScore",
          "type": "uint256"
        },
        {
          "internalType": "bool",
          "name": "betWon",
          "type": "bool"
        },
        {
          "internalType": "bool",
          "name": "betCompleted",
          "type": "bool"
        }
      ],
      "stateMutability": "view",
      "type": "function"
    },
    {
      "inputs": [
        {
          "internalType": "bytes32",
          "name": "_requestId",
          "type": "bytes32"
        },
        {
          "internalType": "string",
          "name": "_teamA",
          "type": "string"
        },
        {
          "internalType": "string",
          "name": "_teamB",
          "type": "string"
        },
        {
          "internalType": "string",
          "name": "_date",
          "type": "string"
        }
      ],
      "name": "fulfillGames",
      "outputs": [],
      "stateMutability": "nonpayable",
      "type": "function"
    },
    {
      "inputs": [
        {
          "internalType": "bytes32",
          "name": "_requestId",
          "type": "bytes32"
        },
        {
          "internalType": "uint256",
          "name": "_number",
          "type": "uint256"
        }
      ],
      "name": "fulfillNumber",
      "outputs": [],
      "stateMutability": "nonpayable",
      "type": "function"
    },
    {
      "inputs": [],
      "name": "gameCount",
      "outputs": [
        {
          "internalType": "uint256",
          "name": "",
          "type": "uint256"
        }
      ],
      "stateMutability": "view",
      "type": "function"
    },
    {
      "inputs": [
        {
          "internalType": "uint256",
          "name": "",
          "type": "uint256"
        }
      ],
      "name": "games",
      "outputs": [
        {
          "internalType": "string",
          "name": "homeTeam",
          "type": "string"
        },
        {
          "internalType": "string",
          "name": "awayTeam",
          "type": "string"
        },
        {
          "internalType": "string",
          "name": "gameTime",
          "type": "string"
        },
        {
          "internalType": "uint256",
          "name": "homeScore",
          "type": "uint256"
        },
        {
          "internalType": "uint256",
          "name": "awayScore",
          "type": "uint256"
        },
        {
          "internalType": "bool",
          "name": "gameCompleted",
          "type": "bool"
        },
        {
          "internalType": "uint256",
          "name": "lotteryPool",
          "type": "uint256"
        },
        {
          "internalType": "uint256",
          "name": "betsCount",
          "type": "uint256"
        },
        {
          "internalType": "uint256",
          "name": "betsAmount",
          "type": "uint256"
        }
      ],
      "stateMutability": "view",
      "type": "function"
    },
    {
      "inputs": [],
      "name": "gamesAPI",
      "outputs": [
        {
          "internalType": "string",
          "name": "",
          "type": "string"
        }
      ],
      "stateMutability": "view",
      "type": "function"
    },
    {
      "inputs": [
        {
          "internalType": "bytes32",
          "name": "role",
          "type": "bytes32"
        }
      ],
      "name": "getRoleAdmin",
      "outputs": [
        {
          "internalType": "bytes32",
          "name": "",
          "type": "bytes32"
        }
      ],
      "stateMutability": "view",
      "type": "function"
    },
    {
      "inputs": [
        {
          "internalType": "bytes32",
          "name": "role",
          "type": "bytes32"
        },
        {
          "internalType": "address",
          "name": "account",
          "type": "address"
        }
      ],
      "name": "grantRole",
      "outputs": [],
      "stateMutability": "nonpayable",
      "type": "function"
    },
    {
      "inputs": [
        {
          "internalType": "bytes32",
          "name": "role",
          "type": "bytes32"
        },
        {
          "internalType": "address",
          "name": "account",
          "type": "address"
        }
      ],
      "name": "hasRole",
      "outputs": [
        {
          "internalType": "bool",
          "name": "",
          "type": "bool"
        }
      ],
      "stateMutability": "view",
      "type": "function"
    },
    {
      "inputs": [],
      "name": "lastDate",
      "outputs": [
        {
          "internalType": "string",
          "name": "",
          "type": "string"
        }
      ],
      "stateMutability": "view",
      "type": "function"
    },
    {
      "inputs": [],
      "name": "lastGame",
      "outputs": [
        {
          "internalType": "uint256",
          "name": "",
          "type": "uint256"
        }
      ],
      "stateMutability": "view",
      "type": "function"
    },
    {
      "inputs": [],
      "name": "lastNumber",
      "outputs": [
        {
          "internalType": "uint256",
          "name": "",
          "type": "uint256"
        }
      ],
      "stateMutability": "view",
      "type": "function"
    },
    {
      "inputs": [],
      "name": "lastTeamA",
      "outputs": [
        {
          "internalType": "string",
          "name": "",
          "type": "string"
        }
      ],
      "stateMutability": "view",
      "type": "function"
    },
    {
      "inputs": [],
      "name": "lastTeamB",
      "outputs": [
        {
          "internalType": "string",
          "name": "",
          "type": "string"
        }
      ],
      "stateMutability": "view",
      "type": "function"
    },
    {
      "inputs": [
        {
          "internalType": "uint256",
          "name": "",
          "type": "uint256"
        },
        {
          "internalType": "uint256",
          "name": "",
          "type": "uint256"
        }
      ],
      "name": "loosersByGame",
      "outputs": [
        {
          "internalType": "address",
          "name": "user",
          "type": "address"
        },
        {
          "internalType": "uint256",
          "name": "gameId",
          "type": "uint256"
        },
        {
          "internalType": "uint256",
          "name": "amount",
          "type": "uint256"
        },
        {
          "internalType": "uint256",
          "name": "homeScore",
          "type": "uint256"
        },
        {
          "internalType": "uint256",
          "name": "awayScore",
          "type": "uint256"
        },
        {
          "internalType": "bool",
          "name": "betWon",
          "type": "bool"
        },
        {
          "internalType": "bool",
          "name": "betCompleted",
          "type": "bool"
        }
      ],
      "stateMutability": "view",
      "type": "function"
    },
    {
      "inputs": [
        {
          "internalType": "uint256",
          "name": "_gameId",
          "type": "uint256"
        },
        {
          "internalType": "uint256",
          "name": "_homeScore",
          "type": "uint256"
        },
        {
          "internalType": "uint256",
          "name": "_awayScore",
          "type": "uint256"
        },
        {
          "internalType": "uint256",
          "name": "_USDCamount",
          "type": "uint256"
        }
      ],
      "name": "makeBet",
      "outputs": [],
      "stateMutability": "nonpayable",
      "type": "function"
    },
    {
      "inputs": [],
      "name": "numbersAPI",
      "outputs": [
        {
          "internalType": "string",
          "name": "",
          "type": "string"
        }
      ],
      "stateMutability": "view",
      "type": "function"
    },
    {
      "inputs": [],
      "name": "owner",
      "outputs": [
        {
          "internalType": "address",
          "name": "",
          "type": "address"
        }
      ],
      "stateMutability": "view",
      "type": "function"
    },
    {
      "inputs": [],
      "name": "renounceOwnership",
      "outputs": [],
      "stateMutability": "nonpayable",
      "type": "function"
    },
    {
      "inputs": [
        {
          "internalType": "bytes32",
          "name": "role",
          "type": "bytes32"
        },
        {
          "internalType": "address",
          "name": "account",
          "type": "address"
        }
      ],
      "name": "renounceRole",
      "outputs": [],
      "stateMutability": "nonpayable",
      "type": "function"
    },
    {
      "inputs": [
        {
          "internalType": "bytes32",
          "name": "role",
          "type": "bytes32"
        },
        {
          "internalType": "address",
          "name": "account",
          "type": "address"
        }
      ],
      "name": "revokeRole",
      "outputs": [],
      "stateMutability": "nonpayable",
      "type": "function"
    },
    {
      "inputs": [
        {
          "internalType": "uint256",
          "name": "loosersQt",
          "type": "uint256"
        }
      ],
      "name": "selectLotteryWinner",
      "outputs": [],
      "stateMutability": "nonpayable",
      "type": "function"
    },
    {
      "inputs": [
        {
          "internalType": "bytes4",
          "name": "interfaceId",
          "type": "bytes4"
        }
      ],
      "name": "supportsInterface",
      "outputs": [
        {
          "internalType": "bool",
          "name": "",
          "type": "bool"
        }
      ],
      "stateMutability": "view",
      "type": "function"
    },
    {
      "inputs": [
        {
          "internalType": "uint256",
          "name": "_amount",
          "type": "uint256"
        },
        {
          "internalType": "address payable",
          "name": "destination",
          "type": "address"
        }
      ],
      "name": "transferFunds",
      "outputs": [],
      "stateMutability": "nonpayable",
      "type": "function"
    },
    {
      "inputs": [
        {
          "internalType": "address",
          "name": "newOwner",
          "type": "address"
        }
      ],
      "name": "transferOwnership",
      "outputs": [],
      "stateMutability": "nonpayable",
      "type": "function"
    },
    {
      "inputs": [
        {
          "internalType": "bytes32",
          "name": "_newJobIdNumbers",
          "type": "bytes32"
        }
      ],
      "name": "updateChainlinkJobIdNumbers",
      "outputs": [],
      "stateMutability": "nonpayable",
      "type": "function"
    },
    {
      "inputs": [
        {
          "internalType": "uint256",
          "name": "_gameId",
          "type": "uint256"
        },
        {
          "internalType": "uint256",
          "name": "_homeScore",
          "type": "uint256"
        },
        {
          "internalType": "uint256",
          "name": "_awayScore",
          "type": "uint256"
        }
      ],
      "name": "updateGameScore",
      "outputs": [],
      "stateMutability": "nonpayable",
      "type": "function"
    },
    {
      "inputs": [
        {
          "internalType": "string",
          "name": "_newUrl",
          "type": "string"
        }
      ],
      "name": "updateNumberAPI",
      "outputs": [],
      "stateMutability": "nonpayable",
      "type": "function"
    },
    {
      "inputs": [
        {
          "internalType": "address",
          "name": "_newRelayer",
          "type": "address"
        }
      ],
      "name": "updateRelayer",
      "outputs": [],
      "stateMutability": "nonpayable",
      "type": "function"
    }
  ],
  "bytecode": "0x608060405260016004553480156200001657600080fd5b50604051620065263803806200652683398181016040528101906200003c919062000801565b6200005c620000506200024060201b60201c565b6200024860201b60201c565b60005b8451811015620000cc57620000b87f950b8f2d7415defaee398bb4898e8e094a64c725873b81952b7ab9f08d70efb3868381518110620000a457620000a362000973565b5b60200260200101516200030e60201b60201c565b80620000c490620009db565b90506200005f565b5060005b83518110156200013d57620001297fa49807205ce4d355092ef5a8a18f56e8913cf4a201fbe287825b095693c2177585838151811062000115576200011462000973565b5b60200260200101516200030e60201b60201c565b806200013590620009db565b9050620000d0565b50620001707fab4f864e5201b0fde9b5ee3e4cf96384802b0ffdfcf7f9de4699ce21a30afc4f876200030e60201b60201c565b81600c908162000181919062000c69565b5080600d908162000193919062000c69565b50620001a58a6200040060201b60201c565b620001b6896200044460201b60201c565b87600e8190555086600f81905550600a670de0b6b3a76400006001620001dd919062000d50565b620001e9919062000dca565b60108190555084601660006101000a81548173ffffffffffffffffffffffffffffffffffffffff021916908373ffffffffffffffffffffffffffffffffffffffff1602179055505050505050505050505062000e02565b600033905090565b6000600660009054906101000a900473ffffffffffffffffffffffffffffffffffffffff16905081600660006101000a81548173ffffffffffffffffffffffffffffffffffffffff021916908373ffffffffffffffffffffffffffffffffffffffff1602179055508173ffffffffffffffffffffffffffffffffffffffff168173ffffffffffffffffffffffffffffffffffffffff167f8be0079c531659141344cd1fd0a4f28419497f9722a3daafe3b4186f6b6457e060405160405180910390a35050565b6200032082826200048860201b60201c565b620003fc5760016007600084815260200190815260200160002060000160008373ffffffffffffffffffffffffffffffffffffffff1673ffffffffffffffffffffffffffffffffffffffff16815260200190815260200160002060006101000a81548160ff021916908315150217905550620003a16200024060201b60201c565b73ffffffffffffffffffffffffffffffffffffffff168173ffffffffffffffffffffffffffffffffffffffff16837f2f8788117e7eff1d82e926ec794901d17c78024a50270940304540a733656f0d60405160405180910390a45b5050565b80600260006101000a81548173ffffffffffffffffffffffffffffffffffffffff021916908373ffffffffffffffffffffffffffffffffffffffff16021790555050565b80600360006101000a81548173ffffffffffffffffffffffffffffffffffffffff021916908373ffffffffffffffffffffffffffffffffffffffff16021790555050565b60006007600084815260200190815260200160002060000160008373ffffffffffffffffffffffffffffffffffffffff1673ffffffffffffffffffffffffffffffffffffffff16815260200190815260200160002060009054906101000a900460ff16905092915050565b6000604051905090565b600080fd5b600080fd5b600073ffffffffffffffffffffffffffffffffffffffff82169050919050565b6000620005348262000507565b9050919050565b620005468162000527565b81146200055257600080fd5b50565b60008151905062000566816200053b565b92915050565b6000819050919050565b62000581816200056c565b81146200058d57600080fd5b50565b600081519050620005a18162000576565b92915050565b600080fd5b6000601f19601f8301169050919050565b7f4e487b7100000000000000000000000000000000000000000000000000000000600052604160045260246000fd5b620005f782620005ac565b810181811067ffffffffffffffff82111715620006195762000618620005bd565b5b80604052505050565b60006200062e620004f3565b90506200063c8282620005ec565b919050565b600067ffffffffffffffff8211156200065f576200065e620005bd565b5b602082029050602081019050919050565b600080fd5b60006200068c620006868462000641565b62000622565b90508083825260208201905060208402830185811115620006b257620006b162000670565b5b835b81811015620006df5780620006ca888262000555565b845260208401935050602081019050620006b4565b5050509392505050565b600082601f830112620007015762000700620005a7565b5b81516200071384826020860162000675565b91505092915050565b600080fd5b600067ffffffffffffffff8211156200073f576200073e620005bd565b5b6200074a82620005ac565b9050602081019050919050565b60005b83811015620007775780820151818401526020810190506200075a565b60008484015250505050565b60006200079a620007948462000721565b62000622565b905082815260208101848484011115620007b957620007b86200071c565b5b620007c684828562000757565b509392505050565b600082601f830112620007e657620007e5620005a7565b5b8151620007f884826020860162000783565b91505092915050565b6000806000806000806000806000806101408b8d031215620008285762000827620004fd565b5b6000620008388d828e0162000555565b9a505060206200084b8d828e0162000555565b99505060406200085e8d828e0162000590565b9850506060620008718d828e0162000590565b9750506080620008848d828e0162000555565b96505060a0620008978d828e0162000555565b95505060c08b015167ffffffffffffffff811115620008bb57620008ba62000502565b5b620008c98d828e01620006e9565b94505060e08b015167ffffffffffffffff811115620008ed57620008ec62000502565b5b620008fb8d828e01620006e9565b9350506101008b015167ffffffffffffffff81111562000920576200091f62000502565b5b6200092e8d828e01620007ce565b9250506101208b015167ffffffffffffffff81111562000953576200095262000502565b5b620009618d828e01620007ce565b9150509295989b9194979a5092959850565b7f4e487b7100000000000000000000000000000000000000000000000000000000600052603260045260246000fd5b7f4e487b7100000000000000000000000000000000000000000000000000000000600052601160045260246000fd5b6000819050919050565b6000620009e882620009d1565b91507fffffffffffffffffffffffffffffffffffffffffffffffffffffffffffffffff820362000a1d5762000a1c620009a2565b5b600182019050919050565b600081519050919050565b7f4e487b7100000000000000000000000000000000000000000000000000000000600052602260045260246000fd5b6000600282049050600182168062000a7b57607f821691505b60208210810362000a915762000a9062000a33565b5b50919050565b60008190508160005260206000209050919050565b60006020601f8301049050919050565b600082821b905092915050565b60006008830262000afb7fffffffffffffffffffffffffffffffffffffffffffffffffffffffffffffffff8262000abc565b62000b07868362000abc565b95508019841693508086168417925050509392505050565b6000819050919050565b600062000b4a62000b4462000b3e84620009d1565b62000b1f565b620009d1565b9050919050565b6000819050919050565b62000b668362000b29565b62000b7e62000b758262000b51565b84845462000ac9565b825550505050565b600090565b62000b9562000b86565b62000ba281848462000b5b565b505050565b5b8181101562000bca5762000bbe60008262000b8b565b60018101905062000ba8565b5050565b601f82111562000c195762000be38162000a97565b62000bee8462000aac565b8101602085101562000bfe578190505b62000c1662000c0d8562000aac565b83018262000ba7565b50505b505050565b600082821c905092915050565b600062000c3e6000198460080262000c1e565b1980831691505092915050565b600062000c59838362000c2b565b9150826002028217905092915050565b62000c748262000a28565b67ffffffffffffffff81111562000c905762000c8f620005bd565b5b62000c9c825462000a62565b62000ca982828562000bce565b600060209050601f83116001811462000ce1576000841562000ccc578287015190505b62000cd8858262000c4b565b86555062000d48565b601f19841662000cf18662000a97565b60005b8281101562000d1b5784890151825560018201915060208501945060208101905062000cf4565b8683101562000d3b578489015162000d37601f89168262000c2b565b8355505b6001600288020188555050505b505050505050565b600062000d5d82620009d1565b915062000d6a83620009d1565b925082820262000d7a81620009d1565b9150828204841483151762000d945762000d93620009a2565b5b5092915050565b7f4e487b7100000000000000000000000000000000000000000000000000000000600052601260045260246000fd5b600062000dd782620009d1565b915062000de483620009d1565b92508262000df75762000df662000d9b565b5b828204905092915050565b6157148062000e126000396000f3fe608060405234801561001057600080fd5b506004361061021c5760003560e01c806398afa55f11610125578063d547741f116100ad578063e932406f1161007c578063e932406f146105eb578063ee0f45ff14610609578063f08e362f1461063f578063f0c6506e1461065b578063f2fde38b146106795761021c565b8063d547741f14610577578063dd7efaaf14610593578063e29664ad146105b1578063e6dd3331146105cd5761021c565b8063a217fddf116100f4578063a217fddf146104e5578063ade3778a14610503578063afcc4ad51461051f578063b3db9f1a1461053d578063bfd5c6df1461055b5761021c565b806398afa55f1461048557806399befd53146104a3578063a063e9fb146104ad578063a0949595146104c95761021c565b80634ba5eb4b116101a8578063715018a611610177578063715018a6146103f357806375b238fc146103fd5780638da5cb5b1461041b5780638f83ab131461043957806391d14854146104555761021c565b80634ba5eb4b1461037f5780634d1975b41461039b57806355a2be24146103b957806355fb9d08146103d75761021c565b8063248a9ca3116101ef578063248a9ca3146102c557806324e7b7aa146102f55780632f2ff15d1461031157806336568abe1461032d5780633b6e6f1b146103495761021c565b806301ffc9a714610221578063117a5b901461025157806311ac9710146102895780632483e715146102a7575b600080fd5b61023b60048036038101906102369190613a9b565b610695565b6040516102489190613ae3565b60405180910390f35b61026b60048036038101906102669190613b34565b61070f565b60405161028099989796959493929190613c00565b60405180910390f35b610291610902565b60405161029e9190613ca2565b60405180910390f35b6102af610990565b6040516102bc9190613cdd565b60405180910390f35b6102df60048036038101906102da9190613d24565b6109b4565b6040516102ec9190613cdd565b60405180910390f35b61030f600480360381019061030a9190613e86565b6109d4565b005b61032b60048036038101906103269190613f9f565b610b27565b005b61034760048036038101906103429190613f9f565b610b48565b005b610363600480360381019061035e9190613fdf565b610bcb565b604051610376979695949392919061402e565b60405180910390f35b61039960048036038101906103949190613d24565b610c54565b005b6103a3610d04565b6040516103b0919061409d565b60405180910390f35b6103c1610d0a565b6040516103ce9190613ca2565b60405180910390f35b6103f160048036038101906103ec9190613b34565b610d98565b005b6103fb610f24565b005b610405610f38565b6040516104129190613cdd565b60405180910390f35b610423610f5c565b60405161043091906140b8565b60405180910390f35b610453600480360381019061044e91906140d3565b610f86565b005b61046f600480360381019061046a9190613f9f565b611059565b60405161047c9190613ae3565b60405180910390f35b61048d6110c4565b60405161049a919061409d565b60405180910390f35b6104ab6110ca565b005b6104c760048036038101906104c29190614100565b611331565b005b6104e360048036038101906104de9190614167565b611712565b005b6104ed611d76565b6040516104fa9190613cdd565b60405180910390f35b61051d600480360381019061051891906141ba565b611d7d565b005b610527611fdd565b6040516105349190614259565b60405180910390f35b610545612003565b604051610552919061409d565b60405180910390f35b61057560048036038101906105709190614274565b612009565b005b610591600480360381019061058c9190613f9f565b6120c2565b005b61059b6120e3565b6040516105a89190613ca2565b60405180910390f35b6105cb60048036038101906105c691906142bd565b612171565b005b6105d56123bd565b6040516105e29190613ca2565b60405180910390f35b6105f361244b565b6040516106009190613cdd565b60405180910390f35b610623600480360381019061061e9190613fdf565b61246f565b604051610636979695949392919061402e565b60405180910390f35b610659600480360381019061065491906143a2565b6124f8565b005b6106636125a5565b6040516106709190613ca2565b60405180910390f35b610693600480360381019061068e91906140d3565b612633565b005b60007f7965db0b000000000000000000000000000000000000000000000000000000007bffffffffffffffffffffffffffffffffffffffffffffffffffffffff1916827bffffffffffffffffffffffffffffffffffffffffffffffffffffffff191614806107085750610707826126b6565b5b9050919050565b600a60205280600052604060002060009150905080600001805461073290614411565b80601f016020809104026020016040519081016040528092919081815260200182805461075e90614411565b80156107ab5780601f10610780576101008083540402835291602001916107ab565b820191906000526020600020905b81548152906001019060200180831161078e57829003601f168201915b5050505050908060010180546107c090614411565b80601f01602080910402602001604051908101604052809291908181526020018280546107ec90614411565b80156108395780601f1061080e57610100808354040283529160200191610839565b820191906000526020600020905b81548152906001019060200180831161081c57829003601f168201915b50505050509080600201805461084e90614411565b80601f016020809104026020016040519081016040528092919081815260200182805461087a90614411565b80156108c75780601f1061089c576101008083540402835291602001916108c7565b820191906000526020600020905b8154815290600101906020018083116108aa57829003601f168201915b5050505050908060030154908060040154908060050160009054906101000a900460ff16908060060154908060070154908060080154905089565b600c805461090f90614411565b80601f016020809104026020016040519081016040528092919081815260200182805461093b90614411565b80156109885780601f1061095d57610100808354040283529160200191610988565b820191906000526020600020905b81548152906001019060200180831161096b57829003601f168201915b505050505081565b7fab4f864e5201b0fde9b5ee3e4cf96384802b0ffdfcf7f9de4699ce21a30afc4f81565b600060076000838152602001908152602001600020600101549050919050565b836005600082815260200190815260200160002060009054906101000a900473ffffffffffffffffffffffffffffffffffffffff1673ffffffffffffffffffffffffffffffffffffffff163373ffffffffffffffffffffffffffffffffffffffff1614610a76576040517f08c379a0000000000000000000000000000000000000000000000000000000008152600401610a6d906144b4565b60405180910390fd5b6005600082815260200190815260200160002060006101000a81549073ffffffffffffffffffffffffffffffffffffffff0219169055807f7cc135e0cebb02c3480ae5d74d377283180a2601f8f644edf7987b009316c63a60405160405180910390a2847f22df73edebd47543775fbcfbde9897b918f83794f39e86d4631de1115f54111e858585604051610b0d939291906144d4565b60405180910390a2610b20848484612171565b5050505050565b610b30826109b4565b610b3981612720565b610b438383612734565b505050565b610b50612815565b73ffffffffffffffffffffffffffffffffffffffff168173ffffffffffffffffffffffffffffffffffffffff1614610bbd576040517f08c379a0000000000000000000000000000000000000000000000000000000008152600401610bb490614592565b60405180910390fd5b610bc7828261281d565b5050565b6008602052816000526040600020602052806000526040600020600091509150508060000160009054906101000a900473ffffffffffffffffffffffffffffffffffffffff16908060010154908060020154908060030154908060040154908060050160009054906101000a900460ff16908060050160019054906101000a900460ff16905087565b610c7e7fa49807205ce4d355092ef5a8a18f56e8913cf4a201fbe287825b095693c2177533611059565b80610cbb5750610c8c610f5c565b73ffffffffffffffffffffffffffffffffffffffff163373ffffffffffffffffffffffffffffffffffffffff16145b610cfa576040517f08c379a0000000000000000000000000000000000000000000000000000000008152600401610cf1906145fe565b60405180910390fd5b80600e8190555050565b600b5481565b60158054610d1790614411565b80601f0160208091040260200160405190810160405280929190818152602001828054610d4390614411565b8015610d905780601f10610d6557610100808354040283529160200191610d90565b820191906000526020600020905b815481529060010190602001808311610d7357829003601f168201915b505050505081565b6000610dae600e543063ade3778a60e01b6128ff565b90506000600c610dbd84612930565b604051602001610dce9291906146f2565b6040516020818303038152906040529050610e296040518060400160405280600381526020017f676574000000000000000000000000000000000000000000000000000000000081525082846129fe9092919063ffffffff16565b610e826040518060400160405280600481526020017f706174680000000000000000000000000000000000000000000000000000000081525060405180602001604052806000815250846129fe9092919063ffffffff16565b610ecd6040518060400160405280600581526020017f74696d6573000000000000000000000000000000000000000000000000000000815250600184612a319092919063ffffffff16565b6000610edb83601054612a64565b9050600060115490507f1ca8663227a7fe9919713a01d344afbb434e234f35a3e540a6ad924f88771f388282604051610f15929190614716565b60405180910390a15050505050565b610f2c612a9b565b610f366000612b19565b565b7fa49807205ce4d355092ef5a8a18f56e8913cf4a201fbe287825b095693c2177581565b6000600660009054906101000a900473ffffffffffffffffffffffffffffffffffffffff16905090565b610fb07fa49807205ce4d355092ef5a8a18f56e8913cf4a201fbe287825b095693c2177533611059565b80610fed5750610fbe610f5c565b73ffffffffffffffffffffffffffffffffffffffff163373ffffffffffffffffffffffffffffffffffffffff16145b61102c576040517f08c379a0000000000000000000000000000000000000000000000000000000008152600401611023906145fe565b60405180910390fd5b6110567fab4f864e5201b0fde9b5ee3e4cf96384802b0ffdfcf7f9de4699ce21a30afc4f82612734565b50565b60006007600084815260200190815260200160002060000160008373ffffffffffffffffffffffffffffffffffffffff1673ffffffffffffffffffffffffffffffffffffffff16815260200190815260200160002060009054906101000a900460ff16905092915050565b60125481565b60006110e0600f54306324e7b7aa60e01b6128ff565b90506111b66040518060400160405280600381526020017f6765740000000000000000000000000000000000000000000000000000000000815250600d805461112890614411565b80601f016020809104026020016040519081016040528092919081815260200182805461115490614411565b80156111a15780601f10611176576101008083540402835291602001916111a1565b820191906000526020600020905b81548152906001019060200180831161118457829003601f168201915b5050505050836129fe9092919063ffffffff16565b60006111c3600b54612930565b6040516020016111d3919061478b565b604051602081830303815290604052905060006111f1600b54612930565b60405160200161120191906147f9565b6040516020818303038152906040529050600061121f600b54612930565b60405160200161122f9190614867565b604051602081830303815290604052905061128a6040518060400160405280600981526020017f706174685445414d41000000000000000000000000000000000000000000000081525084866129fe9092919063ffffffff16565b6112d46040518060400160405280600981526020017f706174685445414d42000000000000000000000000000000000000000000000081525083866129fe9092919063ffffffff16565b61131e6040518060400160405280600881526020017f706174684441544500000000000000000000000000000000000000000000000081525082866129fe9092919063ffffffff16565b61132a84601054612a64565b5050505050565b600b548410611375576040517f08c379a000000000000000000000000000000000000000000000000000000000815260040161136c906148d5565b60405180910390fd5b600081116113b8576040517f08c379a00000000000000000000000000000000000000000000000000000000081526004016113af90614967565b60405180910390fd5b6000601660009054906101000a900473ffffffffffffffffffffffffffffffffffffffff1673ffffffffffffffffffffffffffffffffffffffff166323b872dd3330856040518463ffffffff1660e01b815260040161141993929190614987565b6020604051808303816000875af1158015611438573d6000803e3d6000fd5b505050506040513d601f19601f8201168201806040525081019061145c91906149ea565b90508061149e576040517f08c379a000000000000000000000000000000000000000000000000000000000815260040161149590614a63565b60405180910390fd5b6000600a600087815260200190815260200160002090508060050160009054906101000a900460ff1615611507576040517f08c379a00000000000000000000000000000000000000000000000000000000081526004016114fe90614acf565b60405180910390fd5b60006014846115169190614b4d565b905060006005856115279190614b4d565b90508083600601600082825461153d9190614b7e565b925050819055508082866115519190614bb2565b61155b9190614bb2565b83600801600082825461156e9190614b7e565b925050819055506040518060e001604052803373ffffffffffffffffffffffffffffffffffffffff1681526020018981526020018284886115af9190614bb2565b6115b99190614bb2565b815260200188815260200187815260200160001515815260200160001515815250600860008a815260200190815260200160002060008560070154815260200190815260200160002060008201518160000160006101000a81548173ffffffffffffffffffffffffffffffffffffffff021916908373ffffffffffffffffffffffffffffffffffffffff1602179055506020820151816001015560408201518160020155606082015181600301556080820151816004015560a08201518160050160006101000a81548160ff02191690831515021790555060c08201518160050160016101000a81548160ff0219169083151502179055509050508260070160008154809291906116c990614be6565b9190505550877fbb79d51f1411ca03952954c866d22ae3532b227b2cf62e257cf182397a6471738888604051611700929190614c2e565b60405180910390a25050505050505050565b61173c7f950b8f2d7415defaee398bb4898e8e094a64c725873b81952b7ab9f08d70efb333611059565b8061176d575061176c7fa49807205ce4d355092ef5a8a18f56e8913cf4a201fbe287825b095693c2177533611059565b5b806117aa575061177b610f5c565b73ffffffffffffffffffffffffffffffffffffffff163373ffffffffffffffffffffffffffffffffffffffff16145b6117e9576040517f08c379a00000000000000000000000000000000000000000000000000000000081526004016117e090614ca3565b60405180910390fd5b600b54831061182d576040517f08c379a0000000000000000000000000000000000000000000000000000000008152600401611824906148d5565b60405180910390fd5b6000600a6000858152602001908152602001600020905082816003018190555081816004018190555060018160050160006101000a81548160ff02191690831515021790555060008160070154036118855750611d71565b6000805b82600701548110156118fb57600060086000888152602001908152602001600020600083815260200190815260200160002090508581600301541480156118d35750848160040154145b156118e75782806118e390614be6565b9350505b5080806118f390614be6565b915050611889565b5060008167ffffffffffffffff81111561191857611917613d5b565b5b60405190808252806020026020018201604052801561195157816020015b61193e613951565b8152602001906001900390816119365790505b5090506000806000805b8660070154811015611c1b576000600860008c8152602001908152602001600020600083815260200190815260200160002090508981600301541480156119a55750888160040154145b15611aca5760018160050160006101000a81548160ff021916908315150217905550806040518060e00160405290816000820160009054906101000a900473ffffffffffffffffffffffffffffffffffffffff1673ffffffffffffffffffffffffffffffffffffffff1673ffffffffffffffffffffffffffffffffffffffff168152602001600182015481526020016002820154815260200160038201548152602001600482015481526020016005820160009054906101000a900460ff161515151581526020016005820160019054906101000a900460ff161515151581525050868681518110611a9a57611a99614cc3565b5b6020026020010181905250806002015483611ab59190614b7e565b92508480611ac290614be6565b955050611bea565b80600960008d815260200190815260200160002060008681526020019081526020016000206000820160009054906101000a900473ffffffffffffffffffffffffffffffffffffffff168160000160006101000a81548173ffffffffffffffffffffffffffffffffffffffff021916908373ffffffffffffffffffffffffffffffffffffffff160217905550600182015481600101556002820154816002015560038201548160030155600482015481600401556005820160009054906101000a900460ff168160050160006101000a81548160ff0219169083151502179055506005820160019054906101000a900460ff168160050160016101000a81548160ff0219169083151502179055509050508380611be690614be6565b9450505b60018160050160016101000a81548160ff021916908315150217905550508080611c1390614be6565b91505061195b565b5060008303611c44578560080154866006016000828254611c3c9190614b7e565b925050819055505b60005b83811015611d5957601660009054906101000a900473ffffffffffffffffffffffffffffffffffffffff1673ffffffffffffffffffffffffffffffffffffffff1663a9059cbb868381518110611ca057611c9f614cc3565b5b60200260200101516000015184888581518110611cc057611cbf614cc3565b5b6020026020010151604001518b60080154611cdb9190614cf2565b611ce59190614b4d565b6040518363ffffffff1660e01b8152600401611d02929190614d34565b6020604051808303816000875af1158015611d21573d6000803e3d6000fd5b505050506040513d601f19601f82011682018060405250810190611d4591906149ea565b508080611d5190614be6565b915050611c47565b5088601281905550611d6a82610d98565b5050505050505b505050565b6000801b81565b816005600082815260200190815260200160002060009054906101000a900473ffffffffffffffffffffffffffffffffffffffff1673ffffffffffffffffffffffffffffffffffffffff163373ffffffffffffffffffffffffffffffffffffffff1614611e1f576040517f08c379a0000000000000000000000000000000000000000000000000000000008152600401611e16906144b4565b60405180910390fd5b6005600082815260200190815260200160002060006101000a81549073ffffffffffffffffffffffffffffffffffffffff0219169055807f7cc135e0cebb02c3480ae5d74d377283180a2601f8f644edf7987b009316c63a60405160405180910390a2827f4b031b5f8729563cda98e5f016f7cb0d8e6b32db75591d31e59c13df29adea4483604051611eb2919061409d565b60405180910390a28160118190555060018214611fd857601660009054906101000a900473ffffffffffffffffffffffffffffffffffffffff1673ffffffffffffffffffffffffffffffffffffffff1663a9059cbb6009600060125481526020019081526020016000206000600186611f2b9190614bb2565b815260200190815260200160002060000160009054906101000a900473ffffffffffffffffffffffffffffffffffffffff16600a60006012548152602001908152602001600020600601546040518363ffffffff1660e01b8152600401611f93929190614d34565b6020604051808303816000875af1158015611fb2573d6000803e3d6000fd5b505050506040513d601f19601f82011682018060405250810190611fd691906149ea565b505b505050565b601660009054906101000a900473ffffffffffffffffffffffffffffffffffffffff1681565b60115481565b6120337fa49807205ce4d355092ef5a8a18f56e8913cf4a201fbe287825b095693c2177533611059565b806120705750612041610f5c565b73ffffffffffffffffffffffffffffffffffffffff163373ffffffffffffffffffffffffffffffffffffffff16145b6120af576040517f08c379a00000000000000000000000000000000000000000000000000000000081526004016120a6906145fe565b60405180910390fd5b80600c90816120be9190614eea565b5050565b6120cb826109b4565b6120d481612720565b6120de838361281d565b505050565b601380546120f090614411565b80601f016020809104026020016040519081016040528092919081815260200182805461211c90614411565b80156121695780601f1061213e57610100808354040283529160200191612169565b820191906000526020600020905b81548152906001019060200180831161214c57829003601f168201915b505050505081565b61219b7f950b8f2d7415defaee398bb4898e8e094a64c725873b81952b7ab9f08d70efb333611059565b806121cc57506121cb7fa49807205ce4d355092ef5a8a18f56e8913cf4a201fbe287825b095693c2177533611059565b5b8061220957506121da610f5c565b73ffffffffffffffffffffffffffffffffffffffff163373ffffffffffffffffffffffffffffffffffffffff16145b612248576040517f08c379a000000000000000000000000000000000000000000000000000000000815260040161223f90614ca3565b60405180910390fd5b604051806101200160405280848152602001838152602001828152602001600081526020016000815260200160001515815260200160008152602001600081526020016000815250600a6000600b54815260200190815260200160002060008201518160000190816122ba9190614eea565b5060208201518160010190816122d09190614eea565b5060408201518160020190816122e69190614eea565b50606082015181600301556080820151816004015560a08201518160050160006101000a81548160ff02191690831515021790555060c0820151816006015560e082015181600701556101008201518160080155905050600b600081548092919061235090614be6565b9190505550816040516123639190614fbc565b6040518091039020836040516123799190614fbc565b60405180910390207f67e6642558a5a9ecf1c49bb7f946fa9b49371a8845e1747916f5883ad494a3b6836040516123b09190613ca2565b60405180910390a3505050565b600d80546123ca90614411565b80601f01602080910402602001604051908101604052809291908181526020018280546123f690614411565b80156124435780601f1061241857610100808354040283529160200191612443565b820191906000526020600020905b81548152906001019060200180831161242657829003601f168201915b505050505081565b7f950b8f2d7415defaee398bb4898e8e094a64c725873b81952b7ab9f08d70efb381565b6009602052816000526040600020602052806000526040600020600091509150508060000160009054906101000a900473ffffffffffffffffffffffffffffffffffffffff16908060010154908060020154908060030154908060040154908060050160009054906101000a900460ff16908060050160019054906101000a900460ff16905087565b612500612a9b565b601660009054906101000a900473ffffffffffffffffffffffffffffffffffffffff1673ffffffffffffffffffffffffffffffffffffffff1663a9059cbb82846040518363ffffffff1660e01b815260040161255d929190614ff4565b6020604051808303816000875af115801561257c573d6000803e3d6000fd5b505050506040513d601f19601f820116820180604052508101906125a091906149ea565b505050565b601480546125b290614411565b80601f01602080910402602001604051908101604052809291908181526020018280546125de90614411565b801561262b5780601f106126005761010080835404028352916020019161262b565b820191906000526020600020905b81548152906001019060200180831161260e57829003601f168201915b505050505081565b61263b612a9b565b600073ffffffffffffffffffffffffffffffffffffffff168173ffffffffffffffffffffffffffffffffffffffff16036126aa576040517f08c379a00000000000000000000000000000000000000000000000000000000081526004016126a19061508f565b60405180910390fd5b6126b381612b19565b50565b60007f01ffc9a7000000000000000000000000000000000000000000000000000000007bffffffffffffffffffffffffffffffffffffffffffffffffffffffff1916827bffffffffffffffffffffffffffffffffffffffffffffffffffffffff1916149050919050565b6127318161272c612815565b612bdf565b50565b61273e8282611059565b6128115760016007600084815260200190815260200160002060000160008373ffffffffffffffffffffffffffffffffffffffff1673ffffffffffffffffffffffffffffffffffffffff16815260200190815260200160002060006101000a81548160ff0219169083151502179055506127b6612815565b73ffffffffffffffffffffffffffffffffffffffff168173ffffffffffffffffffffffffffffffffffffffff16837f2f8788117e7eff1d82e926ec794901d17c78024a50270940304540a733656f0d60405160405180910390a45b5050565b600033905090565b6128278282611059565b156128fb5760006007600084815260200190815260200160002060000160008373ffffffffffffffffffffffffffffffffffffffff1673ffffffffffffffffffffffffffffffffffffffff16815260200190815260200160002060006101000a81548160ff0219169083151502179055506128a0612815565b73ffffffffffffffffffffffffffffffffffffffff168173ffffffffffffffffffffffffffffffffffffffff16837ff6391f5c32d9c69d2a47ea670b442974b53935d1edc7fd64eb21e047a839171b60405160405180910390a45b5050565b6129076139a8565b61290f6139a8565b61292685858584612c64909392919063ffffffff16565b9150509392505050565b60606000600161293f84612d14565b01905060008167ffffffffffffffff81111561295e5761295d613d5b565b5b6040519080825280601f01601f1916602001820160405280156129905781602001600182028036833780820191505090505b509050600082602001820190505b6001156129f3578080600190039150507f3031323334353637383961626364656600000000000000000000000000000000600a86061a8153600a85816129e7576129e6614aef565b5b0494506000850361299e575b819350505050919050565b612a15828460800151612e6790919063ffffffff16565b612a2c818460800151612e6790919063ffffffff16565b505050565b612a48828460800151612e6790919063ffffffff16565b612a5f818460800151612e8c90919063ffffffff16565b505050565b6000612a93600360009054906101000a900473ffffffffffffffffffffffffffffffffffffffff168484612f39565b905092915050565b612aa3612815565b73ffffffffffffffffffffffffffffffffffffffff16612ac1610f5c565b73ffffffffffffffffffffffffffffffffffffffff1614612b17576040517f08c379a0000000000000000000000000000000000000000000000000000000008152600401612b0e906150fb565b60405180910390fd5b565b6000600660009054906101000a900473ffffffffffffffffffffffffffffffffffffffff16905081600660006101000a81548173ffffffffffffffffffffffffffffffffffffffff021916908373ffffffffffffffffffffffffffffffffffffffff1602179055508173ffffffffffffffffffffffffffffffffffffffff168173ffffffffffffffffffffffffffffffffffffffff167f8be0079c531659141344cd1fd0a4f28419497f9722a3daafe3b4186f6b6457e060405160405180910390a35050565b612be98282611059565b612c6057612bf681613005565b612c048360001c6020613032565b604051602001612c159291906151b3565b6040516020818303038152906040526040517f08c379a0000000000000000000000000000000000000000000000000000000008152600401612c579190613ca2565b60405180910390fd5b5050565b612c6c6139a8565b612c7c856080015161010061326e565b508385600001818152505082856020019073ffffffffffffffffffffffffffffffffffffffff16908173ffffffffffffffffffffffffffffffffffffffff16815250508185604001907bffffffffffffffffffffffffffffffffffffffffffffffffffffffff191690817bffffffffffffffffffffffffffffffffffffffffffffffffffffffff191681525050849050949350505050565b600080600090507a184f03e93ff9f4daa797ed6e38ed64bf6a1f0100000000000000008310612d72577a184f03e93ff9f4daa797ed6e38ed64bf6a1f0100000000000000008381612d6857612d67614aef565b5b0492506040810190505b6d04ee2d6d415b85acef81000000008310612daf576d04ee2d6d415b85acef81000000008381612da557612da4614aef565b5b0492506020810190505b662386f26fc100008310612dde57662386f26fc100008381612dd457612dd3614aef565b5b0492506010810190505b6305f5e1008310612e07576305f5e1008381612dfd57612dfc614aef565b5b0492506008810190505b6127108310612e2c576127108381612e2257612e21614aef565b5b0492506004810190505b60648310612e4f5760648381612e4557612e44614aef565b5b0492506002810190505b600a8310612e5e576001810190505b80915050919050565b612e7482600383516132d8565b612e87818361345d90919063ffffffff16565b505050565b7fffffffffffffffffffffffffffffffffffffffffffffffff0000000000000000811215612ec357612ebe828261347f565b612f35565b67ffffffffffffffff811315612ee257612edd82826134f6565b612f34565b60008112612efb57612ef6826000836132d8565b612f33565b612f32826001837fffffffffffffffffffffffffffffffffffffffffffffffffffffffffffffffff612f2d91906151f7565b6132d8565b5b5b5b5050565b6000806004549050600181612f4e9190614b7e565b6004819055506000634042994660e01b60008087600001513089604001518760018c6080015160000151604051602401612f8f98979695949392919061529e565b604051602081830303815290604052907bffffffffffffffffffffffffffffffffffffffffffffffffffffffff19166020820180517bffffffffffffffffffffffffffffffffffffffffffffffffffffffff83818316178352505050509050612ffa86838684613542565b925050509392505050565b606061302b8273ffffffffffffffffffffffffffffffffffffffff16601460ff16613032565b9050919050565b6060600060028360026130459190614cf2565b61304f9190614b7e565b67ffffffffffffffff81111561306857613067613d5b565b5b6040519080825280601f01601f19166020018201604052801561309a5781602001600182028036833780820191505090505b5090507f3000000000000000000000000000000000000000000000000000000000000000816000815181106130d2576130d1614cc3565b5b60200101907effffffffffffffffffffffffffffffffffffffffffffffffffffffffffffff1916908160001a9053507f78000000000000000000000000000000000000000000000000000000000000008160018151811061313657613135614cc3565b5b60200101907effffffffffffffffffffffffffffffffffffffffffffffffffffffffffffff1916908160001a905350600060018460026131769190614cf2565b6131809190614b7e565b90505b6001811115613220577f3031323334353637383961626364656600000000000000000000000000000000600f8616601081106131c2576131c1614cc3565b5b1a60f81b8282815181106131d9576131d8614cc3565b5b60200101907effffffffffffffffffffffffffffffffffffffffffffffffffffffffffffff1916908160001a905350600485901c94508061321990615323565b9050613183565b5060008414613264576040517f08c379a000000000000000000000000000000000000000000000000000000000815260040161325b90615398565b60405180910390fd5b8091505092915050565b613276613a15565b600060208361328591906153b8565b146132b15760208261329791906153b8565b60206132a39190614bb2565b826132ae9190614b7e565b91505b81836020018181525050604051808452600081528281016020016040525082905092915050565b60178167ffffffffffffffff161161330f576133098160058460ff16901b60ff1617846136d790919063ffffffff16565b50613458565b60ff8167ffffffffffffffff16116133655761333e601860058460ff16901b17846136d790919063ffffffff16565b5061335f8167ffffffffffffffff166001856136f79092919063ffffffff16565b50613457565b61ffff8167ffffffffffffffff16116133bc57613395601960058460ff16901b17846136d790919063ffffffff16565b506133b68167ffffffffffffffff166002856136f79092919063ffffffff16565b50613456565b63ffffffff8167ffffffffffffffff1611613415576133ee601a60058460ff16901b17846136d790919063ffffffff16565b5061340f8167ffffffffffffffff166004856136f79092919063ffffffff16565b50613455565b613432601b60058460ff16901b17846136d790919063ffffffff16565b506134538167ffffffffffffffff166008856136f79092919063ffffffff16565b505b5b5b5b505050565b613465613a15565b61347783846000015151848551613719565b905092915050565b61349d60036005600660ff16901b17836136d790919063ffffffff16565b506134f282827fffffffffffffffffffffffffffffffffffffffffffffffffffffffffffffffff6134ce91906151f7565b6040516020016134de919061409d565b604051602081830303815290604052613808565b5050565b61351460026005600660ff16901b17836136d790919063ffffffff16565b5061353e828260405160200161352a919061409d565b604051602081830303815290604052613808565b5050565b60003084604051602001613557929190615464565b604051602081830303815290604052805190602001209050846005600083815260200190815260200160002060006101000a81548173ffffffffffffffffffffffffffffffffffffffff021916908373ffffffffffffffffffffffffffffffffffffffff160217905550807fb5e6e01e79f91267dc17b4e6314d5d4d03593d2ceee0fbb452b750bd70ea5af960405160405180910390a2600260009054906101000a900473ffffffffffffffffffffffffffffffffffffffff1673ffffffffffffffffffffffffffffffffffffffff16634000aea08685856040518463ffffffff1660e01b815260040161364d93929190615490565b6020604051808303816000875af115801561366c573d6000803e3d6000fd5b505050506040513d601f19601f8201168201806040525081019061369091906149ea565b6136cf576040517f08c379a00000000000000000000000000000000000000000000000000000000081526004016136c690615540565b60405180910390fd5b949350505050565b6136df613a15565b6136ef838460000151518461382d565b905092915050565b6136ff613a15565b613710848560000151518585613883565b90509392505050565b613721613a15565b825182111561372f57600080fd5b846020015182856137409190614b7e565b111561377557613774856002613765886020015188876137609190614b7e565b613911565b61376f9190614cf2565b61392d565b5b6000808651805187602083010193508088870111156137945787860182525b60208701925050505b602084106137db57805182526020826137b69190614b7e565b91506020816137c59190614b7e565b90506020846137d49190614bb2565b935061379d565b60006001856020036101000a03905080198251168184511681811785525050508692505050949350505050565b61381582600283516132d8565b613828818361345d90919063ffffffff16565b505050565b613835613a15565b8360200151831061385b5761385a84600286602001516138559190614cf2565b61392d565b5b83518051602085830101848153818603613876576001820183525b5050508390509392505050565b61388b613a15565b8460200151848361389c9190614b7e565b11156138c4576138c385600286856138b49190614b7e565b6138be9190614cf2565b61392d565b5b60006001836101006138d69190615693565b6138e09190614bb2565b905085518386820101858319825116178152815185880111156139035784870182525b505085915050949350505050565b60008183111561392357829050613927565b8190505b92915050565b600082600001519050613940838361326e565b5061394b838261345d565b50505050565b6040518060e00160405280600073ffffffffffffffffffffffffffffffffffffffff168152602001600081526020016000815260200160008152602001600081526020016000151581526020016000151581525090565b6040518060a0016040528060008019168152602001600073ffffffffffffffffffffffffffffffffffffffff16815260200160007bffffffffffffffffffffffffffffffffffffffffffffffffffffffff1916815260200160008152602001613a0f613a15565b81525090565b604051806040016040528060608152602001600081525090565b6000604051905090565b600080fd5b600080fd5b60007fffffffff0000000000000000000000000000000000000000000000000000000082169050919050565b613a7881613a43565b8114613a8357600080fd5b50565b600081359050613a9581613a6f565b92915050565b600060208284031215613ab157613ab0613a39565b5b6000613abf84828501613a86565b91505092915050565b60008115159050919050565b613add81613ac8565b82525050565b6000602082019050613af86000830184613ad4565b92915050565b6000819050919050565b613b1181613afe565b8114613b1c57600080fd5b50565b600081359050613b2e81613b08565b92915050565b600060208284031215613b4a57613b49613a39565b5b6000613b5884828501613b1f565b91505092915050565b600081519050919050565b600082825260208201905092915050565b60005b83811015613b9b578082015181840152602081019050613b80565b60008484015250505050565b6000601f19601f8301169050919050565b6000613bc382613b61565b613bcd8185613b6c565b9350613bdd818560208601613b7d565b613be681613ba7565b840191505092915050565b613bfa81613afe565b82525050565b6000610120820190508181036000830152613c1b818c613bb8565b90508181036020830152613c2f818b613bb8565b90508181036040830152613c43818a613bb8565b9050613c526060830189613bf1565b613c5f6080830188613bf1565b613c6c60a0830187613ad4565b613c7960c0830186613bf1565b613c8660e0830185613bf1565b613c94610100830184613bf1565b9a9950505050505050505050565b60006020820190508181036000830152613cbc8184613bb8565b905092915050565b6000819050919050565b613cd781613cc4565b82525050565b6000602082019050613cf26000830184613cce565b92915050565b613d0181613cc4565b8114613d0c57600080fd5b50565b600081359050613d1e81613cf8565b92915050565b600060208284031215613d3a57613d39613a39565b5b6000613d4884828501613d0f565b91505092915050565b600080fd5b600080fd5b7f4e487b7100000000000000000000000000000000000000000000000000000000600052604160045260246000fd5b613d9382613ba7565b810181811067ffffffffffffffff82111715613db257613db1613d5b565b5b80604052505050565b6000613dc5613a2f565b9050613dd18282613d8a565b919050565b600067ffffffffffffffff821115613df157613df0613d5b565b5b613dfa82613ba7565b9050602081019050919050565b82818337600083830152505050565b6000613e29613e2484613dd6565b613dbb565b905082815260208101848484011115613e4557613e44613d56565b5b613e50848285613e07565b509392505050565b600082601f830112613e6d57613e6c613d51565b5b8135613e7d848260208601613e16565b91505092915050565b60008060008060808587031215613ea057613e9f613a39565b5b6000613eae87828801613d0f565b945050602085013567ffffffffffffffff811115613ecf57613ece613a3e565b5b613edb87828801613e58565b935050604085013567ffffffffffffffff811115613efc57613efb613a3e565b5b613f0887828801613e58565b925050606085013567ffffffffffffffff811115613f2957613f28613a3e565b5b613f3587828801613e58565b91505092959194509250565b600073ffffffffffffffffffffffffffffffffffffffff82169050919050565b6000613f6c82613f41565b9050919050565b613f7c81613f61565b8114613f8757600080fd5b50565b600081359050613f9981613f73565b92915050565b60008060408385031215613fb657613fb5613a39565b5b6000613fc485828601613d0f565b9250506020613fd585828601613f8a565b9150509250929050565b60008060408385031215613ff657613ff5613a39565b5b600061400485828601613b1f565b925050602061401585828601613b1f565b9150509250929050565b61402881613f61565b82525050565b600060e082019050614043600083018a61401f565b6140506020830189613bf1565b61405d6040830188613bf1565b61406a6060830187613bf1565b6140776080830186613bf1565b61408460a0830185613ad4565b61409160c0830184613ad4565b98975050505050505050565b60006020820190506140b26000830184613bf1565b92915050565b60006020820190506140cd600083018461401f565b92915050565b6000602082840312156140e9576140e8613a39565b5b60006140f784828501613f8a565b91505092915050565b6000806000806080858703121561411a57614119613a39565b5b600061412887828801613b1f565b945050602061413987828801613b1f565b935050604061414a87828801613b1f565b925050606061415b87828801613b1f565b91505092959194509250565b6000806000606084860312156141805761417f613a39565b5b600061418e86828701613b1f565b935050602061419f86828701613b1f565b92505060406141b086828701613b1f565b9150509250925092565b600080604083850312156141d1576141d0613a39565b5b60006141df85828601613d0f565b92505060206141f085828601613b1f565b9150509250929050565b6000819050919050565b600061421f61421a61421584613f41565b6141fa565b613f41565b9050919050565b600061423182614204565b9050919050565b600061424382614226565b9050919050565b61425381614238565b82525050565b600060208201905061426e600083018461424a565b92915050565b60006020828403121561428a57614289613a39565b5b600082013567ffffffffffffffff8111156142a8576142a7613a3e565b5b6142b484828501613e58565b91505092915050565b6000806000606084860312156142d6576142d5613a39565b5b600084013567ffffffffffffffff8111156142f4576142f3613a3e565b5b61430086828701613e58565b935050602084013567ffffffffffffffff81111561432157614320613a3e565b5b61432d86828701613e58565b925050604084013567ffffffffffffffff81111561434e5761434d613a3e565b5b61435a86828701613e58565b9150509250925092565b600061436f82613f41565b9050919050565b61437f81614364565b811461438a57600080fd5b50565b60008135905061439c81614376565b92915050565b600080604083850312156143b9576143b8613a39565b5b60006143c785828601613b1f565b92505060206143d88582860161438d565b9150509250929050565b7f4e487b7100000000000000000000000000000000000000000000000000000000600052602260045260246000fd5b6000600282049050600182168061442957607f821691505b60208210810361443c5761443b6143e2565b5b50919050565b7f536f75726365206d75737420626520746865206f7261636c65206f662074686560008201527f2072657175657374000000000000000000000000000000000000000000000000602082015250565b600061449e602883613b6c565b91506144a982614442565b604082019050919050565b600060208201905081810360008301526144cd81614491565b9050919050565b600060608201905081810360008301526144ee8186613bb8565b905081810360208301526145028185613bb8565b905081810360408301526145168184613bb8565b9050949350505050565b7f416363657373436f6e74726f6c3a2063616e206f6e6c792072656e6f756e636560008201527f20726f6c657320666f722073656c660000000000000000000000000000000000602082015250565b600061457c602f83613b6c565b915061458782614520565b604082019050919050565b600060208201905081810360008301526145ab8161456f565b9050919050565b7f49535f4e4f545f41444d494e0000000000000000000000000000000000000000600082015250565b60006145e8600c83613b6c565b91506145f3826145b2565b602082019050919050565b60006020820190508181036000830152614617816145db565b9050919050565b600081905092915050565b60008190508160005260206000209050919050565b6000815461464b81614411565b614655818661461e565b945060018216600081146146705760018114614685576146b8565b60ff19831686528115158202860193506146b8565b61468e85614629565b60005b838110156146b057815481890152600182019150602081019050614691565b838801955050505b50505092915050565b60006146cc82613b61565b6146d6818561461e565b93506146e6818560208601613b7d565b80840191505092915050565b60006146fe828561463e565b915061470a82846146c1565b91508190509392505050565b600060408201905061472b6000830185613cce565b6147386020830184613bf1565b9392505050565b7f2c7465616d410000000000000000000000000000000000000000000000000000600082015250565b600061477560068361461e565b91506147808261473f565b600682019050919050565b600061479782846146c1565b91506147a282614768565b915081905092915050565b7f2c7465616d420000000000000000000000000000000000000000000000000000600082015250565b60006147e360068361461e565b91506147ee826147ad565b600682019050919050565b600061480582846146c1565b9150614810826147d6565b915081905092915050565b7f2c64617465000000000000000000000000000000000000000000000000000000600082015250565b600061485160058361461e565b915061485c8261481b565b600582019050919050565b600061487382846146c1565b915061487e82614844565b915081905092915050565b7f496e76616c69642067616d652049440000000000000000000000000000000000600082015250565b60006148bf600f83613b6c565b91506148ca82614889565b602082019050919050565b600060208201905081810360008301526148ee816148b2565b9050919050565b7f42657420616d6f756e74206d7573742062652067726561746572207468616e2060008201527f7a65726f00000000000000000000000000000000000000000000000000000000602082015250565b6000614951602483613b6c565b915061495c826148f5565b604082019050919050565b6000602082019050818103600083015261498081614944565b9050919050565b600060608201905061499c600083018661401f565b6149a9602083018561401f565b6149b66040830184613bf1565b949350505050565b6149c781613ac8565b81146149d257600080fd5b50565b6000815190506149e4816149be565b92915050565b600060208284031215614a00576149ff613a39565b5b6000614a0e848285016149d5565b91505092915050565b7f5472616e73616374696f6e206661696c65640000000000000000000000000000600082015250565b6000614a4d601283613b6c565b9150614a5882614a17565b602082019050919050565b60006020820190508181036000830152614a7c81614a40565b9050919050565b7f47616d652068617320616c726561647920636f6d706c65746564000000000000600082015250565b6000614ab9601a83613b6c565b9150614ac482614a83565b602082019050919050565b60006020820190508181036000830152614ae881614aac565b9050919050565b7f4e487b7100000000000000000000000000000000000000000000000000000000600052601260045260246000fd5b7f4e487b7100000000000000000000000000000000000000000000000000000000600052601160045260246000fd5b6000614b5882613afe565b9150614b6383613afe565b925082614b7357614b72614aef565b5b828204905092915050565b6000614b8982613afe565b9150614b9483613afe565b9250828201905080821115614bac57614bab614b1e565b5b92915050565b6000614bbd82613afe565b9150614bc883613afe565b9250828203905081811115614be057614bdf614b1e565b5b92915050565b6000614bf182613afe565b91507fffffffffffffffffffffffffffffffffffffffffffffffffffffffffffffffff8203614c2357614c22614b1e565b5b600182019050919050565b6000604082019050614c436000830185613bf1565b614c506020830184613bf1565b9392505050565b7f49535f4e4f545f4d4f445f4f525f41444d494e00000000000000000000000000600082015250565b6000614c8d601383613b6c565b9150614c9882614c57565b602082019050919050565b60006020820190508181036000830152614cbc81614c80565b9050919050565b7f4e487b7100000000000000000000000000000000000000000000000000000000600052603260045260246000fd5b6000614cfd82613afe565b9150614d0883613afe565b9250828202614d1681613afe565b91508282048414831517614d2d57614d2c614b1e565b5b5092915050565b6000604082019050614d49600083018561401f565b614d566020830184613bf1565b9392505050565b60006020601f8301049050919050565b600082821b905092915050565b600060088302614daa7fffffffffffffffffffffffffffffffffffffffffffffffffffffffffffffffff82614d6d565b614db48683614d6d565b95508019841693508086168417925050509392505050565b6000614de7614de2614ddd84613afe565b6141fa565b613afe565b9050919050565b6000819050919050565b614e0183614dcc565b614e15614e0d82614dee565b848454614d7a565b825550505050565b600090565b614e2a614e1d565b614e35818484614df8565b505050565b5b81811015614e5957614e4e600082614e22565b600181019050614e3b565b5050565b601f821115614e9e57614e6f81614629565b614e7884614d5d565b81016020851015614e87578190505b614e9b614e9385614d5d565b830182614e3a565b50505b505050565b600082821c905092915050565b6000614ec160001984600802614ea3565b1980831691505092915050565b6000614eda8383614eb0565b9150826002028217905092915050565b614ef382613b61565b67ffffffffffffffff811115614f0c57614f0b613d5b565b5b614f168254614411565b614f21828285614e5d565b600060209050601f831160018114614f545760008415614f42578287015190505b614f4c8582614ece565b865550614fb4565b601f198416614f6286614629565b60005b82811015614f8a57848901518255600182019150602085019450602081019050614f65565b86831015614fa75784890151614fa3601f891682614eb0565b8355505b6001600288020188555050505b505050505050565b6000614fc882846146c1565b915081905092915050565b6000614fde82614226565b9050919050565b614fee81614fd3565b82525050565b60006040820190506150096000830185614fe5565b6150166020830184613bf1565b9392505050565b7f4f776e61626c653a206e6577206f776e657220697320746865207a65726f206160008201527f6464726573730000000000000000000000000000000000000000000000000000602082015250565b6000615079602683613b6c565b91506150848261501d565b604082019050919050565b600060208201905081810360008301526150a88161506c565b9050919050565b7f4f776e61626c653a2063616c6c6572206973206e6f7420746865206f776e6572600082015250565b60006150e5602083613b6c565b91506150f0826150af565b602082019050919050565b60006020820190508181036000830152615114816150d8565b9050919050565b7f416363657373436f6e74726f6c3a206163636f756e7420000000000000000000600082015250565b600061515160178361461e565b915061515c8261511b565b601782019050919050565b7f206973206d697373696e6720726f6c6520000000000000000000000000000000600082015250565b600061519d60118361461e565b91506151a882615167565b601182019050919050565b60006151be82615144565b91506151ca82856146c1565b91506151d582615190565b91506151e182846146c1565b91508190509392505050565b6000819050919050565b6000615202826151ed565b915061520d836151ed565b925082820390508181126000841216828213600085121516171561523457615233614b1e565b5b92915050565b61524381613a43565b82525050565b600081519050919050565b600082825260208201905092915050565b600061527082615249565b61527a8185615254565b935061528a818560208601613b7d565b61529381613ba7565b840191505092915050565b6000610100820190506152b4600083018b61401f565b6152c1602083018a613bf1565b6152ce6040830189613cce565b6152db606083018861401f565b6152e8608083018761523a565b6152f560a0830186613bf1565b61530260c0830185613bf1565b81810360e08301526153148184615265565b90509998505050505050505050565b600061532e82613afe565b91506000820361534157615340614b1e565b5b600182039050919050565b7f537472696e67733a20686578206c656e67746820696e73756666696369656e74600082015250565b6000615382602083613b6c565b915061538d8261534c565b602082019050919050565b600060208201905081810360008301526153b181615375565b9050919050565b60006153c382613afe565b91506153ce83613afe565b9250826153de576153dd614aef565b5b828206905092915050565b60006153f482614226565b9050919050565b60008160601b9050919050565b6000615413826153fb565b9050919050565b600061542582615408565b9050919050565b61543d615438826153e9565b61541a565b82525050565b6000819050919050565b61545e61545982613afe565b615443565b82525050565b6000615470828561542c565b601482019150615480828461544d565b6020820191508190509392505050565b60006060820190506154a5600083018661401f565b6154b26020830185613bf1565b81810360408301526154c48184615265565b9050949350505050565b7f756e61626c6520746f207472616e73666572416e6443616c6c20746f206f726160008201527f636c650000000000000000000000000000000000000000000000000000000000602082015250565b600061552a602383613b6c565b9150615535826154ce565b604082019050919050565b600060208201905081810360008301526155598161551d565b9050919050565b60008160011c9050919050565b6000808291508390505b60018511156155b75780860481111561559357615592614b1e565b5b60018516156155a25780820291505b80810290506155b085615560565b9450615577565b94509492505050565b6000826155d0576001905061568c565b816155de576000905061568c565b81600181146155f457600281146155fe5761562d565b600191505061568c565b60ff8411156156105761560f614b1e565b5b8360020a91508482111561562757615626614b1e565b5b5061568c565b5060208310610133831016604e8410600b84101617156156625782820a90508381111561565d5761565c614b1e565b5b61568c565b61566f848484600161556d565b9250905081840481111561568657615685614b1e565b5b81810290505b9392505050565b600061569e82613afe565b91506156a983613afe565b92506156d67fffffffffffffffffffffffffffffffffffffffffffffffffffffffffffffffff84846155c0565b90509291505056fea2646970667358221220887b86b2ba8ba83ca64d6dedc0927e861a396f71b865a4e26df0fcfb76ce06b464736f6c63430008110033",
  "linkReferences": {},
  "deployedLinkReferences": {}
}