{
  "_format": "hh-sol-artifact-1",
  "contractName": "Sports",
  "sourceName": "contracts/Sports.sol",
  "abi": [
    {
      "inputs": [
        {
          "internalType": "address",
          "name": "_chainlinkToken",
          "type": "address"
        },
        {
          "internalType": "address[]",
          "name": "_chainlinkOracle",
          "type": "address[]"
        },
        {
          "internalType": "bytes32",
          "name": "_jobIdNumbers",
          "type": "bytes32"
        },
        {
          "internalType": "bytes32",
          "name": "_jobIdMultipleNumbers",
          "type": "bytes32"
        },
        {
          "internalType": "bytes32",
          "name": "_jobIdBytes",
          "type": "bytes32"
        },
        {
          "internalType": "address",
          "name": "_relayer",
          "type": "address"
        },
        {
          "internalType": "address",
          "name": "_usdcContractAddress",
          "type": "address"
        },
        {
          "internalType": "address[]",
          "name": "_mods",
          "type": "address[]"
        },
        {
          "internalType": "address[]",
          "name": "_admins",
          "type": "address[]"
        },
        {
          "internalType": "string[]",
          "name": "_API",
          "type": "string[]"
        }
      ],
      "stateMutability": "nonpayable",
      "type": "constructor"
    },
    {
      "anonymous": false,
      "inputs": [
        {
          "indexed": true,
          "internalType": "uint256",
          "name": "_gameId",
          "type": "uint256"
        },
        {
          "indexed": false,
          "internalType": "uint256",
          "name": "_homeScore",
          "type": "uint256"
        },
        {
          "indexed": false,
          "internalType": "uint256",
          "name": "_awayScore",
          "type": "uint256"
        }
      ],
      "name": "BetCreated",
      "type": "event"
    },
    {
      "anonymous": false,
      "inputs": [
        {
          "indexed": true,
          "internalType": "bytes32",
          "name": "id",
          "type": "bytes32"
        }
      ],
      "name": "ChainlinkCancelled",
      "type": "event"
    },
    {
      "anonymous": false,
      "inputs": [
        {
          "indexed": true,
          "internalType": "bytes32",
          "name": "id",
          "type": "bytes32"
        }
      ],
      "name": "ChainlinkFulfilled",
      "type": "event"
    },
    {
      "anonymous": false,
      "inputs": [
        {
          "indexed": true,
          "internalType": "bytes32",
          "name": "id",
          "type": "bytes32"
        }
      ],
      "name": "ChainlinkRequested",
      "type": "event"
    },
    {
      "anonymous": false,
      "inputs": [
        {
          "indexed": false,
          "internalType": "bytes",
          "name": "_gameTime",
          "type": "bytes"
        },
        {
          "indexed": true,
          "internalType": "bytes",
          "name": "_homeTeam",
          "type": "bytes"
        },
        {
          "indexed": true,
          "internalType": "bytes",
          "name": "_awayTeam",
          "type": "bytes"
        }
      ],
      "name": "GameCreated",
      "type": "event"
    },
    {
      "anonymous": false,
      "inputs": [
        {
          "indexed": true,
          "internalType": "address",
          "name": "previousOwner",
          "type": "address"
        },
        {
          "indexed": true,
          "internalType": "address",
          "name": "newOwner",
          "type": "address"
        }
      ],
      "name": "OwnershipTransferred",
      "type": "event"
    },
    {
      "anonymous": false,
      "inputs": [
        {
          "indexed": false,
          "internalType": "uint256",
          "name": "print",
          "type": "uint256"
        }
      ],
      "name": "Print",
      "type": "event"
    },
    {
      "anonymous": false,
      "inputs": [
        {
          "indexed": true,
          "internalType": "bytes32",
          "name": "requestId",
          "type": "bytes32"
        },
        {
          "indexed": true,
          "internalType": "bytes[]",
          "name": "data",
          "type": "bytes[]"
        }
      ],
      "name": "RequestBytesFulfilled",
      "type": "event"
    },
    {
      "anonymous": false,
      "inputs": [
        {
          "indexed": true,
          "internalType": "bytes32",
          "name": "requestId",
          "type": "bytes32"
        }
      ],
      "name": "RequestBytesSent",
      "type": "event"
    },
    {
      "anonymous": false,
      "inputs": [
        {
          "indexed": true,
          "internalType": "bytes32",
          "name": "requestId",
          "type": "bytes32"
        },
        {
          "indexed": false,
          "internalType": "uint256",
          "name": "random",
          "type": "uint256"
        }
      ],
      "name": "RequestNumberFulfilled",
      "type": "event"
    },
    {
      "anonymous": false,
      "inputs": [
        {
          "indexed": true,
          "internalType": "bytes32",
          "name": "requestId",
          "type": "bytes32"
        }
      ],
      "name": "RequestNumberSent",
      "type": "event"
    },
    {
      "anonymous": false,
      "inputs": [
        {
          "indexed": true,
          "internalType": "bytes32",
          "name": "requestId",
          "type": "bytes32"
        },
        {
          "indexed": false,
          "internalType": "uint256",
          "name": "TeamA",
          "type": "uint256"
        },
        {
          "indexed": false,
          "internalType": "uint256",
          "name": "TeamB",
          "type": "uint256"
        }
      ],
      "name": "RequestResultFulfilled",
      "type": "event"
    },
    {
      "anonymous": false,
      "inputs": [
        {
          "indexed": true,
          "internalType": "bytes32",
          "name": "requestId",
          "type": "bytes32"
        }
      ],
      "name": "RequestResultSent",
      "type": "event"
    },
    {
      "anonymous": false,
      "inputs": [
        {
          "indexed": true,
          "internalType": "bytes32",
          "name": "role",
          "type": "bytes32"
        },
        {
          "indexed": true,
          "internalType": "bytes32",
          "name": "previousAdminRole",
          "type": "bytes32"
        },
        {
          "indexed": true,
          "internalType": "bytes32",
          "name": "newAdminRole",
          "type": "bytes32"
        }
      ],
      "name": "RoleAdminChanged",
      "type": "event"
    },
    {
      "anonymous": false,
      "inputs": [
        {
          "indexed": true,
          "internalType": "bytes32",
          "name": "role",
          "type": "bytes32"
        },
        {
          "indexed": true,
          "internalType": "address",
          "name": "account",
          "type": "address"
        },
        {
          "indexed": true,
          "internalType": "address",
          "name": "sender",
          "type": "address"
        }
      ],
      "name": "RoleGranted",
      "type": "event"
    },
    {
      "anonymous": false,
      "inputs": [
        {
          "indexed": true,
          "internalType": "bytes32",
          "name": "role",
          "type": "bytes32"
        },
        {
          "indexed": true,
          "internalType": "address",
          "name": "account",
          "type": "address"
        },
        {
          "indexed": true,
          "internalType": "address",
          "name": "sender",
          "type": "address"
        }
      ],
      "name": "RoleRevoked",
      "type": "event"
    },
    {
      "inputs": [],
      "name": "DEFAULT_ADMIN_ROLE",
      "outputs": [
        {
          "internalType": "bytes32",
          "name": "",
          "type": "bytes32"
        }
      ],
      "stateMutability": "view",
      "type": "function"
    },
    {
      "inputs": [],
      "name": "USDc",
      "outputs": [
        {
          "internalType": "contract USDC",
          "name": "",
          "type": "address"
        }
      ],
      "stateMutability": "view",
      "type": "function"
    },
    {
      "inputs": [],
      "name": "addGamesFromAPI",
      "outputs": [],
      "stateMutability": "nonpayable",
      "type": "function"
    },
    {
      "inputs": [
        {
          "internalType": "uint256",
          "name": "_gameId",
          "type": "uint256"
        }
      ],
      "name": "addResultsFromAPI",
      "outputs": [],
      "stateMutability": "nonpayable",
      "type": "function"
    },
    {
      "inputs": [
        {
          "internalType": "uint256",
          "name": "",
          "type": "uint256"
        },
        {
          "internalType": "uint256",
          "name": "",
          "type": "uint256"
        }
      ],
      "name": "betsByGame",
      "outputs": [
        {
          "internalType": "address",
          "name": "user",
          "type": "address"
        },
        {
          "internalType": "uint256",
          "name": "gameId",
          "type": "uint256"
        },
        {
          "internalType": "uint256",
          "name": "amount",
          "type": "uint256"
        },
        {
          "internalType": "uint256",
          "name": "homeScore",
          "type": "uint256"
        },
        {
          "internalType": "uint256",
          "name": "awayScore",
          "type": "uint256"
        },
        {
          "internalType": "bool",
          "name": "betWon",
          "type": "bool"
        },
        {
          "internalType": "bool",
          "name": "betCompleted",
          "type": "bool"
        }
      ],
      "stateMutability": "view",
      "type": "function"
    },
    {
      "inputs": [
        {
          "internalType": "bytes32",
          "name": "requestId",
          "type": "bytes32"
        },
        {
          "internalType": "bytes[]",
          "name": "_arrayOfBytes",
          "type": "bytes[]"
        }
      ],
      "name": "fulfillBytesArray",
      "outputs": [],
      "stateMutability": "nonpayable",
      "type": "function"
    },
    {
      "inputs": [
        {
          "internalType": "bytes32",
          "name": "_requestId",
          "type": "bytes32"
        },
        {
          "internalType": "uint256",
          "name": "_number",
          "type": "uint256"
        }
      ],
      "name": "fulfillNumber",
      "outputs": [],
      "stateMutability": "nonpayable",
      "type": "function"
    },
    {
      "inputs": [
        {
          "internalType": "bytes32",
          "name": "requestId",
          "type": "bytes32"
        },
        {
          "internalType": "uint256",
          "name": "_teamA",
          "type": "uint256"
        },
        {
          "internalType": "uint256",
          "name": "_teamB",
          "type": "uint256"
        }
      ],
      "name": "fulfillResults",
      "outputs": [],
      "stateMutability": "nonpayable",
      "type": "function"
    },
    {
      "inputs": [],
      "name": "gameCount",
      "outputs": [
        {
          "internalType": "uint256",
          "name": "",
          "type": "uint256"
        }
      ],
      "stateMutability": "view",
      "type": "function"
    },
    {
      "inputs": [
        {
          "internalType": "uint256",
          "name": "",
          "type": "uint256"
        }
      ],
      "name": "games",
      "outputs": [
        {
          "internalType": "bytes",
          "name": "homeTeam",
          "type": "bytes"
        },
        {
          "internalType": "bytes",
          "name": "homeTeamImage",
          "type": "bytes"
        },
        {
          "internalType": "bytes",
          "name": "awayTeam",
          "type": "bytes"
        },
        {
          "internalType": "bytes",
          "name": "awayTeamImage",
          "type": "bytes"
        },
        {
          "internalType": "bytes",
          "name": "gameTime",
          "type": "bytes"
        },
        {
          "internalType": "uint256",
          "name": "homeScore",
          "type": "uint256"
        },
        {
          "internalType": "uint256",
          "name": "awayScore",
          "type": "uint256"
        },
        {
          "internalType": "bool",
          "name": "gameCompleted",
          "type": "bool"
        },
        {
          "internalType": "uint256",
          "name": "lotteryPool",
          "type": "uint256"
        },
        {
          "internalType": "uint256",
          "name": "betsCount",
          "type": "uint256"
        },
        {
          "internalType": "uint256",
          "name": "betsAmount",
          "type": "uint256"
        }
      ],
      "stateMutability": "view",
      "type": "function"
    },
    {
      "inputs": [
        {
          "internalType": "bytes32",
          "name": "role",
          "type": "bytes32"
        }
      ],
      "name": "getRoleAdmin",
      "outputs": [
        {
          "internalType": "bytes32",
          "name": "",
          "type": "bytes32"
        }
      ],
      "stateMutability": "view",
      "type": "function"
    },
    {
      "inputs": [
        {
          "internalType": "bytes32",
          "name": "role",
          "type": "bytes32"
        },
        {
          "internalType": "address",
          "name": "account",
          "type": "address"
        }
      ],
      "name": "grantRole",
      "outputs": [],
      "stateMutability": "nonpayable",
      "type": "function"
    },
    {
      "inputs": [
        {
          "internalType": "bytes32",
          "name": "role",
          "type": "bytes32"
        },
        {
          "internalType": "address",
          "name": "account",
          "type": "address"
        }
      ],
      "name": "hasRole",
      "outputs": [
        {
          "internalType": "bool",
          "name": "",
          "type": "bool"
        }
      ],
      "stateMutability": "view",
      "type": "function"
    },
    {
      "inputs": [
        {
          "internalType": "uint256",
          "name": "",
          "type": "uint256"
        },
        {
          "internalType": "uint256",
          "name": "",
          "type": "uint256"
        }
      ],
      "name": "loosersByGame",
      "outputs": [
        {
          "internalType": "address",
          "name": "user",
          "type": "address"
        },
        {
          "internalType": "uint256",
          "name": "gameId",
          "type": "uint256"
        },
        {
          "internalType": "uint256",
          "name": "amount",
          "type": "uint256"
        },
        {
          "internalType": "uint256",
          "name": "homeScore",
          "type": "uint256"
        },
        {
          "internalType": "uint256",
          "name": "awayScore",
          "type": "uint256"
        },
        {
          "internalType": "bool",
          "name": "betWon",
          "type": "bool"
        },
        {
          "internalType": "bool",
          "name": "betCompleted",
          "type": "bool"
        }
      ],
      "stateMutability": "view",
      "type": "function"
    },
    {
      "inputs": [
        {
          "internalType": "uint256",
          "name": "_gameId",
          "type": "uint256"
        },
        {
          "internalType": "uint256",
          "name": "_homeScore",
          "type": "uint256"
        },
        {
          "internalType": "uint256",
          "name": "_awayScore",
          "type": "uint256"
        },
        {
          "internalType": "uint256",
          "name": "_USDCamount",
          "type": "uint256"
        }
      ],
      "name": "makeBet",
      "outputs": [],
      "stateMutability": "nonpayable",
      "type": "function"
    },
    {
      "inputs": [],
      "name": "owner",
      "outputs": [
        {
          "internalType": "address",
          "name": "",
          "type": "address"
        }
      ],
      "stateMutability": "view",
      "type": "function"
    },
    {
      "inputs": [],
      "name": "renounceOwnership",
      "outputs": [],
      "stateMutability": "nonpayable",
      "type": "function"
    },
    {
      "inputs": [
        {
          "internalType": "bytes32",
          "name": "role",
          "type": "bytes32"
        },
        {
          "internalType": "address",
          "name": "account",
          "type": "address"
        }
      ],
      "name": "renounceRole",
      "outputs": [],
      "stateMutability": "nonpayable",
      "type": "function"
    },
    {
      "inputs": [
        {
          "internalType": "bytes32",
          "name": "role",
          "type": "bytes32"
        },
        {
          "internalType": "address",
          "name": "account",
          "type": "address"
        }
      ],
      "name": "revokeRole",
      "outputs": [],
      "stateMutability": "nonpayable",
      "type": "function"
    },
    {
      "inputs": [
        {
          "internalType": "bytes4",
          "name": "interfaceId",
          "type": "bytes4"
        }
      ],
      "name": "supportsInterface",
      "outputs": [
        {
          "internalType": "bool",
          "name": "",
          "type": "bool"
        }
      ],
      "stateMutability": "view",
      "type": "function"
    },
    {
      "inputs": [
        {
          "internalType": "uint256",
          "name": "_amount",
          "type": "uint256"
        },
        {
          "internalType": "address payable",
          "name": "destination",
          "type": "address"
        }
      ],
      "name": "transferFunds",
      "outputs": [],
      "stateMutability": "nonpayable",
      "type": "function"
    },
    {
      "inputs": [
        {
          "internalType": "address",
          "name": "newOwner",
          "type": "address"
        }
      ],
      "name": "transferOwnership",
      "outputs": [],
      "stateMutability": "nonpayable",
      "type": "function"
    },
    {
      "inputs": [
        {
          "internalType": "bytes32",
          "name": "_newJobIdBytes",
          "type": "bytes32"
        }
      ],
      "name": "updateChainlinkJobIdBytes",
      "outputs": [],
      "stateMutability": "nonpayable",
      "type": "function"
    },
    {
      "inputs": [
        {
          "internalType": "bytes32",
          "name": "_newJobIdMultipleNumbers",
          "type": "bytes32"
        }
      ],
      "name": "updateChainlinkJobIdMultipleNumbers",
      "outputs": [],
      "stateMutability": "nonpayable",
      "type": "function"
    },
    {
      "inputs": [
        {
          "internalType": "bytes32",
          "name": "_newJobIdNumbers",
          "type": "bytes32"
        }
      ],
      "name": "updateChainlinkJobIdNumbers",
      "outputs": [],
      "stateMutability": "nonpayable",
      "type": "function"
    },
    {
      "inputs": [
        {
          "internalType": "uint256",
          "name": "_gameId",
          "type": "uint256"
        }
      ],
      "name": "updateGameScore",
      "outputs": [],
      "stateMutability": "nonpayable",
      "type": "function"
    },
    {
      "inputs": [
        {
          "internalType": "address",
          "name": "_newOracle",
          "type": "address"
        }
      ],
      "name": "updateGamesOracle",
      "outputs": [],
      "stateMutability": "nonpayable",
      "type": "function"
    },
    {
      "inputs": [
        {
          "internalType": "string",
          "name": "_newUrl",
          "type": "string"
        }
      ],
      "name": "updateNumberAPI",
      "outputs": [],
      "stateMutability": "nonpayable",
      "type": "function"
    },
    {
      "inputs": [
        {
          "internalType": "address",
          "name": "_newRelayer",
          "type": "address"
        }
      ],
      "name": "updateRelayer",
      "outputs": [],
      "stateMutability": "nonpayable",
      "type": "function"
    }
  ],
  "bytecode": "0x608060405260016004553480156200001657600080fd5b50604051620070183803806200701883398181016040528101906200003c919062000a22565b6200005c620000506200036a60201b60201c565b6200037260201b60201c565b6200006d8a6200043860201b60201c565b6200009c8960018151811062000088576200008762000b94565b5b60200260200101516200047c60201b60201c565b88600081518110620000b357620000b262000b94565b5b6020026020010151600f60006101000a81548173ffffffffffffffffffffffffffffffffffffffff021916908373ffffffffffffffffffffffffffffffffffffffff160217905550876010819055508560118190555086601281905550600a670de0b6b3a7640000600162000129919062000bfc565b62000135919062000c76565b60138190555060236103e8670de0b6b3a7640000600162000157919062000bfc565b62000163919062000c76565b6200016f919062000bfc565b60148190555083601760006101000a81548173ffffffffffffffffffffffffffffffffffffffff021916908373ffffffffffffffffffffffffffffffffffffffff16021790555060005b83518110156200022657620002127f950b8f2d7415defaee398bb4898e8e094a64c725873b81952b7ab9f08d70efb3858381518110620001fe57620001fd62000b94565b5b6020026020010151620004c060201b60201c565b806200021e9062000cae565b9050620001b9565b5060005b82518110156200029757620002837fa49807205ce4d355092ef5a8a18f56e8913cf4a201fbe287825b095693c217758483815181106200026f576200026e62000b94565b5b6020026020010151620004c060201b60201c565b806200028f9062000cae565b90506200022a565b50620002ca7fab4f864e5201b0fde9b5ee3e4cf96384802b0ffdfcf7f9de4699ce21a30afc4f86620004c060201b60201c565b80600081518110620002e157620002e062000b94565b5b6020026020010151600c9081620002f9919062000f3c565b508060018151811062000311576200031062000b94565b5b6020026020010151600d908162000329919062000f3c565b508060028151811062000341576200034062000b94565b5b6020026020010151600e908162000359919062000f3c565b505050505050505050505062001023565b600033905090565b6000600660009054906101000a900473ffffffffffffffffffffffffffffffffffffffff16905081600660006101000a81548173ffffffffffffffffffffffffffffffffffffffff021916908373ffffffffffffffffffffffffffffffffffffffff1602179055508173ffffffffffffffffffffffffffffffffffffffff168173ffffffffffffffffffffffffffffffffffffffff167f8be0079c531659141344cd1fd0a4f28419497f9722a3daafe3b4186f6b6457e060405160405180910390a35050565b80600260006101000a81548173ffffffffffffffffffffffffffffffffffffffff021916908373ffffffffffffffffffffffffffffffffffffffff16021790555050565b80600360006101000a81548173ffffffffffffffffffffffffffffffffffffffff021916908373ffffffffffffffffffffffffffffffffffffffff16021790555050565b620004d28282620005b260201b60201c565b620005ae5760016007600084815260200190815260200160002060000160008373ffffffffffffffffffffffffffffffffffffffff1673ffffffffffffffffffffffffffffffffffffffff16815260200190815260200160002060006101000a81548160ff021916908315150217905550620005536200036a60201b60201c565b73ffffffffffffffffffffffffffffffffffffffff168173ffffffffffffffffffffffffffffffffffffffff16837f2f8788117e7eff1d82e926ec794901d17c78024a50270940304540a733656f0d60405160405180910390a45b5050565b60006007600084815260200190815260200160002060000160008373ffffffffffffffffffffffffffffffffffffffff1673ffffffffffffffffffffffffffffffffffffffff16815260200190815260200160002060009054906101000a900460ff16905092915050565b6000604051905090565b600080fd5b600080fd5b600073ffffffffffffffffffffffffffffffffffffffff82169050919050565b60006200065e8262000631565b9050919050565b620006708162000651565b81146200067c57600080fd5b50565b600081519050620006908162000665565b92915050565b600080fd5b6000601f19601f8301169050919050565b7f4e487b7100000000000000000000000000000000000000000000000000000000600052604160045260246000fd5b620006e6826200069b565b810181811067ffffffffffffffff82111715620007085762000707620006ac565b5b80604052505050565b60006200071d6200061d565b90506200072b8282620006db565b919050565b600067ffffffffffffffff8211156200074e576200074d620006ac565b5b602082029050602081019050919050565b600080fd5b60006200077b620007758462000730565b62000711565b90508083825260208201905060208402830185811115620007a157620007a06200075f565b5b835b81811015620007ce5780620007b988826200067f565b845260208401935050602081019050620007a3565b5050509392505050565b600082601f830112620007f057620007ef62000696565b5b81516200080284826020860162000764565b91505092915050565b6000819050919050565b62000820816200080b565b81146200082c57600080fd5b50565b600081519050620008408162000815565b92915050565b600067ffffffffffffffff821115620008645762000863620006ac565b5b602082029050602081019050919050565b600080fd5b600067ffffffffffffffff821115620008985762000897620006ac565b5b620008a3826200069b565b9050602081019050919050565b60005b83811015620008d0578082015181840152602081019050620008b3565b60008484015250505050565b6000620008f3620008ed846200087a565b62000711565b90508281526020810184848401111562000912576200091162000875565b5b6200091f848285620008b0565b509392505050565b600082601f8301126200093f576200093e62000696565b5b815162000951848260208601620008dc565b91505092915050565b6000620009716200096b8462000846565b62000711565b905080838252602082019050602084028301858111156200099757620009966200075f565b5b835b81811015620009e557805167ffffffffffffffff811115620009c057620009bf62000696565b5b808601620009cf898262000927565b8552602085019450505060208101905062000999565b5050509392505050565b600082601f83011262000a075762000a0662000696565b5b815162000a198482602086016200095a565b91505092915050565b6000806000806000806000806000806101408b8d03121562000a495762000a4862000627565b5b600062000a598d828e016200067f565b9a505060208b015167ffffffffffffffff81111562000a7d5762000a7c6200062c565b5b62000a8b8d828e01620007d8565b995050604062000a9e8d828e016200082f565b985050606062000ab18d828e016200082f565b975050608062000ac48d828e016200082f565b96505060a062000ad78d828e016200067f565b95505060c062000aea8d828e016200067f565b94505060e08b015167ffffffffffffffff81111562000b0e5762000b0d6200062c565b5b62000b1c8d828e01620007d8565b9350506101008b015167ffffffffffffffff81111562000b415762000b406200062c565b5b62000b4f8d828e01620007d8565b9250506101208b015167ffffffffffffffff81111562000b745762000b736200062c565b5b62000b828d828e01620009ef565b9150509295989b9194979a5092959850565b7f4e487b7100000000000000000000000000000000000000000000000000000000600052603260045260246000fd5b6000819050919050565b7f4e487b7100000000000000000000000000000000000000000000000000000000600052601160045260246000fd5b600062000c098262000bc3565b915062000c168362000bc3565b925082820262000c268162000bc3565b9150828204841483151762000c405762000c3f62000bcd565b5b5092915050565b7f4e487b7100000000000000000000000000000000000000000000000000000000600052601260045260246000fd5b600062000c838262000bc3565b915062000c908362000bc3565b92508262000ca35762000ca262000c47565b5b828204905092915050565b600062000cbb8262000bc3565b91507fffffffffffffffffffffffffffffffffffffffffffffffffffffffffffffffff820362000cf05762000cef62000bcd565b5b600182019050919050565b600081519050919050565b7f4e487b7100000000000000000000000000000000000000000000000000000000600052602260045260246000fd5b6000600282049050600182168062000d4e57607f821691505b60208210810362000d645762000d6362000d06565b5b50919050565b60008190508160005260206000209050919050565b60006020601f8301049050919050565b600082821b905092915050565b60006008830262000dce7fffffffffffffffffffffffffffffffffffffffffffffffffffffffffffffffff8262000d8f565b62000dda868362000d8f565b95508019841693508086168417925050509392505050565b6000819050919050565b600062000e1d62000e1762000e118462000bc3565b62000df2565b62000bc3565b9050919050565b6000819050919050565b62000e398362000dfc565b62000e5162000e488262000e24565b84845462000d9c565b825550505050565b600090565b62000e6862000e59565b62000e7581848462000e2e565b505050565b5b8181101562000e9d5762000e9160008262000e5e565b60018101905062000e7b565b5050565b601f82111562000eec5762000eb68162000d6a565b62000ec18462000d7f565b8101602085101562000ed1578190505b62000ee962000ee08562000d7f565b83018262000e7a565b50505b505050565b600082821c905092915050565b600062000f116000198460080262000ef1565b1980831691505092915050565b600062000f2c838362000efe565b9150826002028217905092915050565b62000f478262000cfb565b67ffffffffffffffff81111562000f635762000f62620006ac565b5b62000f6f825462000d35565b62000f7c82828562000ea1565b600060209050601f83116001811462000fb4576000841562000f9f578287015190505b62000fab858262000f1e565b8655506200101b565b601f19841662000fc48662000d6a565b60005b8281101562000fee5784890151825560018201915060208501945060208101905062000fc7565b868310156200100e57848901516200100a601f89168262000efe565b8355505b6001600288020188555050505b505050505050565b615fe580620010336000396000f3fe608060405234801561001057600080fd5b50600436106101cf5760003560e01c8063955406d111610104578063c06de5c4116100a2578063ee0f45ff11610071578063ee0f45ff146104e8578063f08e362f1461051e578063f2fde38b1461053a578063f9ace24e14610556576101cf565b8063c06de5c414610478578063cea24e7414610494578063d547741f146104b0578063e5a2a1f8146104cc576101cf565b8063a217fddf116100de578063a217fddf14610404578063ade3778a14610422578063afcc4ad51461043e578063bfd5c6df1461045c576101cf565b8063955406d1146103c257806399befd53146103de578063a063e9fb146103e8576101cf565b80634ba5eb4b11610171578063715018a61161014b578063715018a61461034e5780638da5cb5b146103585780638f83ab131461037657806391d1485414610392576101cf565b80634ba5eb4b146102f85780634d1975b414610314578063708d90d614610332576101cf565b80632f2ff15d116101ad5780632f2ff15d1461026e57806330f11a0c1461028a57806336568abe146102a65780633b6e6f1b146102c2576101cf565b806301ffc9a7146101d4578063117a5b9014610204578063248a9ca31461023e575b600080fd5b6101ee60048036038101906101e99190614035565b610572565b6040516101fb919061407d565b60405180910390f35b61021e600480360381019061021991906140ce565b6105ec565b6040516102359b9a9998979695949392919061419a565b60405180910390f35b6102586004803603810190610253919061429e565b6108fb565b60405161026591906142da565b60405180910390f35b61028860048036038101906102839190614353565b61091b565b005b6102a4600480360381019061029f919061429e565b61093c565b005b6102c060048036038101906102bb9190614353565b6109ec565b005b6102dc60048036038101906102d79190614393565b610a6f565b6040516102ef97969594939291906143e2565b60405180910390f35b610312600480360381019061030d919061429e565b610af8565b005b61031c610ba8565b6040516103299190614451565b60405180910390f35b61034c6004803603810190610347919061446c565b610bae565b005b610356610d5e565b005b610360610d72565b60405161036d91906144bf565b60405180910390f35b610390600480360381019061038b91906144da565b610d9c565b005b6103ac60048036038101906103a79190614353565b610e6f565b6040516103b9919061407d565b60405180910390f35b6103dc60048036038101906103d791906144da565b610eda565b005b6103e6610fc4565b005b61040260048036038101906103fd9190614507565b6111f7565b005b61040c61161a565b60405161041991906142da565b60405180910390f35b61043c6004803603810190610437919061456e565b611621565b005b610446611881565b604051610453919061460d565b60405180910390f35b6104766004803603810190610471919061475d565b6118a7565b005b610492600480360381019061048d919061429e565b611960565b005b6104ae60048036038101906104a991906140ce565b611a10565b005b6104ca60048036038101906104c59190614353565b611a1c565b005b6104e660048036038101906104e1919061492d565b611a3d565b005b61050260048036038101906104fd9190614393565b611c1e565b60405161051597969594939291906143e2565b60405180910390f35b610538600480360381019061053391906149c7565b611ca7565b005b610554600480360381019061054f91906144da565b611d54565b005b610570600480360381019061056b91906140ce565b611dd7565b005b60007f7965db0b000000000000000000000000000000000000000000000000000000007bffffffffffffffffffffffffffffffffffffffffffffffffffffffff1916827bffffffffffffffffffffffffffffffffffffffffffffffffffffffff191614806105e557506105e4826120eb565b5b9050919050565b600a60205280600052604060002060009150905080600001805461060f90614a36565b80601f016020809104026020016040519081016040528092919081815260200182805461063b90614a36565b80156106885780601f1061065d57610100808354040283529160200191610688565b820191906000526020600020905b81548152906001019060200180831161066b57829003601f168201915b50505050509080600101805461069d90614a36565b80601f01602080910402602001604051908101604052809291908181526020018280546106c990614a36565b80156107165780601f106106eb57610100808354040283529160200191610716565b820191906000526020600020905b8154815290600101906020018083116106f957829003601f168201915b50505050509080600201805461072b90614a36565b80601f016020809104026020016040519081016040528092919081815260200182805461075790614a36565b80156107a45780601f10610779576101008083540402835291602001916107a4565b820191906000526020600020905b81548152906001019060200180831161078757829003601f168201915b5050505050908060030180546107b990614a36565b80601f01602080910402602001604051908101604052809291908181526020018280546107e590614a36565b80156108325780601f1061080757610100808354040283529160200191610832565b820191906000526020600020905b81548152906001019060200180831161081557829003601f168201915b50505050509080600401805461084790614a36565b80601f016020809104026020016040519081016040528092919081815260200182805461087390614a36565b80156108c05780601f10610895576101008083540402835291602001916108c0565b820191906000526020600020905b8154815290600101906020018083116108a357829003601f168201915b5050505050908060050154908060060154908060070160009054906101000a900460ff169080600801549080600901549080600a015490508b565b600060076000838152602001908152602001600020600101549050919050565b610924826108fb565b61092d81612155565b6109378383612169565b505050565b6109667fa49807205ce4d355092ef5a8a18f56e8913cf4a201fbe287825b095693c2177533610e6f565b806109a35750610974610d72565b73ffffffffffffffffffffffffffffffffffffffff163373ffffffffffffffffffffffffffffffffffffffff16145b6109e2576040517f08c379a00000000000000000000000000000000000000000000000000000000081526004016109d990614ac4565b60405180910390fd5b8060128190555050565b6109f461224a565b73ffffffffffffffffffffffffffffffffffffffff168173ffffffffffffffffffffffffffffffffffffffff1614610a61576040517f08c379a0000000000000000000000000000000000000000000000000000000008152600401610a5890614b56565b60405180910390fd5b610a6b8282612252565b5050565b6008602052816000526040600020602052806000526040600020600091509150508060000160009054906101000a900473ffffffffffffffffffffffffffffffffffffffff16908060010154908060020154908060030154908060040154908060050160009054906101000a900460ff16908060050160019054906101000a900460ff16905087565b610b227fa49807205ce4d355092ef5a8a18f56e8913cf4a201fbe287825b095693c2177533610e6f565b80610b5f5750610b30610d72565b73ffffffffffffffffffffffffffffffffffffffff163373ffffffffffffffffffffffffffffffffffffffff16145b610b9e576040517f08c379a0000000000000000000000000000000000000000000000000000000008152600401610b9590614ac4565b60405180910390fd5b8060108190555050565b600b5481565b826005600082815260200190815260200160002060009054906101000a900473ffffffffffffffffffffffffffffffffffffffff1673ffffffffffffffffffffffffffffffffffffffff163373ffffffffffffffffffffffffffffffffffffffff1614610c50576040517f08c379a0000000000000000000000000000000000000000000000000000000008152600401610c4790614be8565b60405180910390fd5b6005600082815260200190815260200160002060006101000a81549073ffffffffffffffffffffffffffffffffffffffff0219169055807f7cc135e0cebb02c3480ae5d74d377283180a2601f8f644edf7987b009316c63a60405160405180910390a2837f278d18a75e865cf3e726d05a02b077061926492380d35c05f56555a5e7b3e7df8484604051610ce5929190614c08565b60405180910390a282600a600060165481526020019081526020016000206005018190555081600a60006016548152602001908152602001600020600601819055506001600a6000601654815260200190815260200160002060070160006101000a81548160ff02191690831515021790555050505050565b610d66612334565b610d7060006123b2565b565b6000600660009054906101000a900473ffffffffffffffffffffffffffffffffffffffff16905090565b610dc67fa49807205ce4d355092ef5a8a18f56e8913cf4a201fbe287825b095693c2177533610e6f565b80610e035750610dd4610d72565b73ffffffffffffffffffffffffffffffffffffffff163373ffffffffffffffffffffffffffffffffffffffff16145b610e42576040517f08c379a0000000000000000000000000000000000000000000000000000000008152600401610e3990614ac4565b60405180910390fd5b610e6c7fab4f864e5201b0fde9b5ee3e4cf96384802b0ffdfcf7f9de4699ce21a30afc4f82612169565b50565b60006007600084815260200190815260200160002060000160008373ffffffffffffffffffffffffffffffffffffffff1673ffffffffffffffffffffffffffffffffffffffff16815260200190815260200160002060009054906101000a900460ff16905092915050565b610f047fa49807205ce4d355092ef5a8a18f56e8913cf4a201fbe287825b095693c2177533610e6f565b80610f415750610f12610d72565b73ffffffffffffffffffffffffffffffffffffffff163373ffffffffffffffffffffffffffffffffffffffff16145b610f80576040517f08c379a0000000000000000000000000000000000000000000000000000000008152600401610f7790614ac4565b60405180910390fd5b80600f60006101000a81548173ffffffffffffffffffffffffffffffffffffffff021916908373ffffffffffffffffffffffffffffffffffffffff16021790555050565b610fee7fab4f864e5201b0fde9b5ee3e4cf96384802b0ffdfcf7f9de4699ce21a30afc4f33610e6f565b8061102b5750610ffc610d72565b73ffffffffffffffffffffffffffffffffffffffff163373ffffffffffffffffffffffffffffffffffffffff16145b61106a576040517f08c379a000000000000000000000000000000000000000000000000000000000815260040161106190614c7d565b60405180910390fd5b60006110806011543063e5a2a1f860e01b612478565b90506111566040518060400160405280600381526020017f6765740000000000000000000000000000000000000000000000000000000000815250600d80546110c890614a36565b80601f01602080910402602001604051908101604052809291908181526020018280546110f490614a36565b80156111415780601f1061111657610100808354040283529160200191611141565b820191906000526020600020905b81548152906001019060200180831161112457829003601f168201915b5050505050836124a99092919063ffffffff16565b6111aa6040518060400160405280600481526020017f706174680000000000000000000000000000000000000000000000000000000081525061119a600b546124dc565b836124a99092919063ffffffff16565b60006111c48260026013546111bf9190614cfb565b6125aa565b9050807fd7b8242f7efe54cbffbcb9ab3cab3bd45981f49ab301d6b839ed011d0b31667360405160405180910390a25050565b600b54841061123b576040517f08c379a000000000000000000000000000000000000000000000000000000000815260040161123290614d78565b60405180910390fd5b6000811161127e576040517f08c379a000000000000000000000000000000000000000000000000000000000815260040161127590614e0a565b60405180910390fd5b6000601760009054906101000a900473ffffffffffffffffffffffffffffffffffffffff1673ffffffffffffffffffffffffffffffffffffffff166323b872dd3330856040518463ffffffff1660e01b81526004016112df93929190614e2a565b6020604051808303816000875af11580156112fe573d6000803e3d6000fd5b505050506040513d601f19601f820116820180604052508101906113229190614e8d565b905080611364576040517f08c379a000000000000000000000000000000000000000000000000000000000815260040161135b90614f06565b60405180910390fd5b600a600086815260200190815260200160002060070160009054906101000a900460ff16156113c8576040517f08c379a00000000000000000000000000000000000000000000000000000000081526004016113bf90614f72565b60405180910390fd5b60006014836113d79190614cfb565b905060006005846113e89190614cfb565b905080600a600089815260200190815260200160002060080160008282546114109190614f92565b925050819055508082856114249190614fc6565b61142e9190614fc6565b600a6000898152602001908152602001600020600a0160008282546114539190614f92565b925050819055506040518060e001604052803373ffffffffffffffffffffffffffffffffffffffff1681526020018881526020018284876114949190614fc6565b61149e9190614fc6565b815260200187815260200186815260200160001515815260200160001515815250600860008981526020019081526020016000206000600a60008b815260200190815260200160002060090154815260200190815260200160002060008201518160000160006101000a81548173ffffffffffffffffffffffffffffffffffffffff021916908373ffffffffffffffffffffffffffffffffffffffff1602179055506020820151816001015560408201518160020155606082015181600301556080820151816004015560a08201518160050160006101000a81548160ff02191690831515021790555060c08201518160050160016101000a81548160ff021916908315150217905550905050600a600088815260200190815260200160002060090160008154809291906115d290614ffa565b9190505550867fbb79d51f1411ca03952954c866d22ae3532b227b2cf62e257cf182397a6471738787604051611609929190614c08565b60405180910390a250505050505050565b6000801b81565b816005600082815260200190815260200160002060009054906101000a900473ffffffffffffffffffffffffffffffffffffffff1673ffffffffffffffffffffffffffffffffffffffff163373ffffffffffffffffffffffffffffffffffffffff16146116c3576040517f08c379a00000000000000000000000000000000000000000000000000000000081526004016116ba90614be8565b60405180910390fd5b6005600082815260200190815260200160002060006101000a81549073ffffffffffffffffffffffffffffffffffffffff0219169055807f7cc135e0cebb02c3480ae5d74d377283180a2601f8f644edf7987b009316c63a60405160405180910390a2827f56674309f088f07dcc038cf9f886d47b6d58c2aee17422468a7c223cc0839a02836040516117569190614451565b60405180910390a2816015819055506001821461187c57601760009054906101000a900473ffffffffffffffffffffffffffffffffffffffff1673ffffffffffffffffffffffffffffffffffffffff1663a9059cbb60096000601654815260200190815260200160002060006001866117cf9190614fc6565b815260200190815260200160002060000160009054906101000a900473ffffffffffffffffffffffffffffffffffffffff16600a60006016548152602001908152602001600020600801546040518363ffffffff1660e01b8152600401611837929190615042565b6020604051808303816000875af1158015611856573d6000803e3d6000fd5b505050506040513d601f19601f8201168201806040525081019061187a9190614e8d565b505b505050565b601760009054906101000a900473ffffffffffffffffffffffffffffffffffffffff1681565b6118d17fa49807205ce4d355092ef5a8a18f56e8913cf4a201fbe287825b095693c2177533610e6f565b8061190e57506118df610d72565b73ffffffffffffffffffffffffffffffffffffffff163373ffffffffffffffffffffffffffffffffffffffff16145b61194d576040517f08c379a000000000000000000000000000000000000000000000000000000000815260040161194490614ac4565b60405180910390fd5b80600c908161195c9190615218565b5050565b61198a7fa49807205ce4d355092ef5a8a18f56e8913cf4a201fbe287825b095693c2177533610e6f565b806119c75750611998610d72565b73ffffffffffffffffffffffffffffffffffffffff163373ffffffffffffffffffffffffffffffffffffffff16145b611a06576040517f08c379a00000000000000000000000000000000000000000000000000000000081526004016119fd90614ac4565b60405180910390fd5b8060118190555050565b611a19816125e1565b50565b611a25826108fb565b611a2e81612155565b611a388383612252565b505050565b816005600082815260200190815260200160002060009054906101000a900473ffffffffffffffffffffffffffffffffffffffff1673ffffffffffffffffffffffffffffffffffffffff163373ffffffffffffffffffffffffffffffffffffffff1614611adf576040517f08c379a0000000000000000000000000000000000000000000000000000000008152600401611ad690614be8565b60405180910390fd5b6005600082815260200190815260200160002060006101000a81549073ffffffffffffffffffffffffffffffffffffffff0219169055807f7cc135e0cebb02c3480ae5d74d377283180a2601f8f644edf7987b009316c63a60405160405180910390a281604051611b5091906153d3565b6040518091039020837f5a57b85ff6e2f515bf4fbf834a27cec6083d7baf9eff5bbcce49d75d4c44ce3e60405160405180910390a3611c1982600081518110611b9c57611b9b6153ea565b5b602002602001015183600181518110611bb857611bb76153ea565b5b602002602001015184600281518110611bd457611bd36153ea565b5b602002602001015185600381518110611bf057611bef6153ea565b5b602002602001015186600481518110611c0c57611c0b6153ea565b5b6020026020010151612d30565b505050565b6009602052816000526040600020602052806000526040600020600091509150508060000160009054906101000a900473ffffffffffffffffffffffffffffffffffffffff16908060010154908060020154908060030154908060040154908060050160009054906101000a900460ff16908060050160019054906101000a900460ff16905087565b611caf612334565b601760009054906101000a900473ffffffffffffffffffffffffffffffffffffffff1673ffffffffffffffffffffffffffffffffffffffff1663a9059cbb82846040518363ffffffff1660e01b8152600401611d0c92919061543a565b6020604051808303816000875af1158015611d2b573d6000803e3d6000fd5b505050506040513d601f19601f82011682018060405250810190611d4f9190614e8d565b505050565b611d5c612334565b600073ffffffffffffffffffffffffffffffffffffffff168173ffffffffffffffffffffffffffffffffffffffff1603611dcb576040517f08c379a0000000000000000000000000000000000000000000000000000000008152600401611dc2906154d5565b60405180910390fd5b611dd4816123b2565b50565b611e017fab4f864e5201b0fde9b5ee3e4cf96384802b0ffdfcf7f9de4699ce21a30afc4f33610e6f565b80611e3e5750611e0f610d72565b73ffffffffffffffffffffffffffffffffffffffff163373ffffffffffffffffffffffffffffffffffffffff16145b611e7d576040517f08c379a0000000000000000000000000000000000000000000000000000000008152600401611e7490614c7d565b60405180910390fd5b6000611e936012543063708d90d660e01b612478565b90506000611ea0836124dc565b604051602001611eb0919061557d565b60405160208183030381529060405290506000611ecc846124dc565b604051602001611edc91906155eb565b6040516020818303038152906040529050611fc16040518060400160405280600381526020017f6765740000000000000000000000000000000000000000000000000000000000815250600e8054611f3390614a36565b80601f0160208091040260200160405190810160405280929190818152602001828054611f5f90614a36565b8015611fac5780601f10611f8157610100808354040283529160200191611fac565b820191906000526020600020905b815481529060010190602001808311611f8f57829003601f168201915b5050505050856124a99092919063ffffffff16565b61200b6040518060400160405280600581526020017f706174683100000000000000000000000000000000000000000000000000000081525083856124a99092919063ffffffff16565b6120556040518060400160405280600581526020017f706174683200000000000000000000000000000000000000000000000000000081525082856124a99092919063ffffffff16565b6120a06040518060400160405280600881526020017f6d756c7469706c79000000000000000000000000000000000000000000000000815250600185612ee19092919063ffffffff16565b8360168190555060006120b5846014546125aa565b9050807fe7a32afcf2413a36519016aab1d0c301eb77ab022284beed2a278aad61d1a09260405160405180910390a25050505050565b60007f01ffc9a7000000000000000000000000000000000000000000000000000000007bffffffffffffffffffffffffffffffffffffffffffffffffffffffff1916827bffffffffffffffffffffffffffffffffffffffffffffffffffffffff1916149050919050565b6121668161216161224a565b612f14565b50565b6121738282610e6f565b6122465760016007600084815260200190815260200160002060000160008373ffffffffffffffffffffffffffffffffffffffff1673ffffffffffffffffffffffffffffffffffffffff16815260200190815260200160002060006101000a81548160ff0219169083151502179055506121eb61224a565b73ffffffffffffffffffffffffffffffffffffffff168173ffffffffffffffffffffffffffffffffffffffff16837f2f8788117e7eff1d82e926ec794901d17c78024a50270940304540a733656f0d60405160405180910390a45b5050565b600033905090565b61225c8282610e6f565b156123305760006007600084815260200190815260200160002060000160008373ffffffffffffffffffffffffffffffffffffffff1673ffffffffffffffffffffffffffffffffffffffff16815260200190815260200160002060006101000a81548160ff0219169083151502179055506122d561224a565b73ffffffffffffffffffffffffffffffffffffffff168173ffffffffffffffffffffffffffffffffffffffff16837ff6391f5c32d9c69d2a47ea670b442974b53935d1edc7fd64eb21e047a839171b60405160405180910390a45b5050565b61233c61224a565b73ffffffffffffffffffffffffffffffffffffffff1661235a610d72565b73ffffffffffffffffffffffffffffffffffffffff16146123b0576040517f08c379a00000000000000000000000000000000000000000000000000000000081526004016123a790615659565b60405180910390fd5b565b6000600660009054906101000a900473ffffffffffffffffffffffffffffffffffffffff16905081600660006101000a81548173ffffffffffffffffffffffffffffffffffffffff021916908373ffffffffffffffffffffffffffffffffffffffff1602179055508173ffffffffffffffffffffffffffffffffffffffff168173ffffffffffffffffffffffffffffffffffffffff167f8be0079c531659141344cd1fd0a4f28419497f9722a3daafe3b4186f6b6457e060405160405180910390a35050565b612480613eeb565b612488613eeb565b61249f85858584612f99909392919063ffffffff16565b9150509392505050565b6124c082846080015161304990919063ffffffff16565b6124d781846080015161304990919063ffffffff16565b505050565b6060600060016124eb8461306e565b01905060008167ffffffffffffffff81111561250a57612509614632565b5b6040519080825280601f01601f19166020018201604052801561253c5781602001600182028036833780820191505090505b509050600082602001820190505b60011561259f578080600190039150507f3031323334353637383961626364656600000000000000000000000000000000600a86061a8153600a858161259357612592614c9d565b5b0494506000850361254a575b819350505050919050565b60006125d9600360009054906101000a900473ffffffffffffffffffffffffffffffffffffffff1684846131c1565b905092915050565b600b548110612625576040517f08c379a000000000000000000000000000000000000000000000000000000000815260040161261c90614d78565b60405180910390fd5b600a600082815260200190815260200160002060070160009054906101000a900460ff16612688576040517f08c379a000000000000000000000000000000000000000000000000000000000815260040161267f906156c5565b60405180910390fd5b6000600a6000838152602001908152602001600020600901540315612d2d576000805b600a60008481526020019081526020016000206009015481101561277857600a600084815260200190815260200160002060050154600860008581526020019081526020016000206000838152602001908152602001600020600301541480156127515750600a60008481526020019081526020016000206006015460086000858152602001908152602001600020600083815260200190815260200160002060040154145b1561276557818061276190614ffa565b9250505b808061277090614ffa565b9150506126ab565b5060008167ffffffffffffffff81111561279557612794614632565b5b6040519080825280602002602001820160405280156127ce57816020015b6127bb613f58565b8152602001906001900390816127b35790505b5090506000806000805b600a600088815260200190815260200160002060090154811015612ba257600a6000888152602001908152602001600020600501546008600089815260200190815260200160002060008381526020019081526020016000206003015414801561287e5750600a60008881526020019081526020016000206006015460086000898152602001908152602001600020600083815260200190815260200160002060040154145b15612a0c57600160086000898152602001908152602001600020600083815260200190815260200160002060050160006101000a81548160ff0219169083151502179055506008600088815260200190815260200160002060008281526020019081526020016000206040518060e00160405290816000820160009054906101000a900473ffffffffffffffffffffffffffffffffffffffff1673ffffffffffffffffffffffffffffffffffffffff1673ffffffffffffffffffffffffffffffffffffffff168152602001600182015481526020016002820154815260200160038201548152602001600482015481526020016005820160009054906101000a900460ff161515151581526020016005820160019054906101000a900460ff1615151515815250508585815181106129b9576129b86153ea565b5b602002602001018190525060086000888152602001908152602001600020600082815260200190815260200160002060020154826129f79190614f92565b91508380612a0490614ffa565b945050612b4f565b6008600088815260200190815260200160002060008281526020019081526020016000206009600089815260200190815260200160002060008581526020019081526020016000206000820160009054906101000a900473ffffffffffffffffffffffffffffffffffffffff168160000160006101000a81548173ffffffffffffffffffffffffffffffffffffffff021916908373ffffffffffffffffffffffffffffffffffffffff160217905550600182015481600101556002820154816002015560038201548160030155600482015481600401556005820160009054906101000a900460ff168160050160006101000a81548160ff0219169083151502179055506005820160019054906101000a900460ff168160050160016101000a81548160ff0219169083151502179055509050508280612b4b90614ffa565b9350505b600160086000898152602001908152602001600020600083815260200190815260200160002060050160016101000a81548160ff0219169083151502179055508080612b9a90614ffa565b9150506127d8565b5060008303612bef57600a6000878152602001908152602001600020600a0154600a60008881526020019081526020016000206008016000828254612be79190614f92565b925050819055505b60005b83811015612d1657601760009054906101000a900473ffffffffffffffffffffffffffffffffffffffff1673ffffffffffffffffffffffffffffffffffffffff1663a9059cbb868381518110612c4b57612c4a6153ea565b5b60200260200101516000015184888581518110612c6b57612c6a6153ea565b5b602002602001015160400151600a60008d8152602001908152602001600020600a0154612c9891906156e5565b612ca29190614cfb565b6040518363ffffffff1660e01b8152600401612cbf929190615042565b6020604051808303816000875af1158015612cde573d6000803e3d6000fd5b505050506040513d601f19601f82011682018060405250810190612d029190614e8d565b508080612d0e90614ffa565b915050612bf2565b5085601681905550612d278261328b565b50505050505b50565b604051806101600160405280868152602001858152602001848152602001838152602001828152602001600081526020016000815260200160001515815260200160008152602001600081526020016000815250600a6000600b5481526020019081526020016000206000820151816000019081612dae9190615782565b506020820151816001019081612dc49190615782565b506040820151816002019081612dda9190615782565b506060820151816003019081612df09190615782565b506080820151816004019081612e069190615782565b5060a0820151816005015560c0820151816006015560e08201518160070160006101000a81548160ff0219169083151502179055506101008201518160080155610120820151816009015561014082015181600a0155905050600b6000815480929190612e7290614ffa565b919050555082604051612e859190615890565b604051809103902085604051612e9b9190615890565b60405180910390207f77191e0d0f58febc4c0d721e40183a0a4742b9b53af57cd3bde8468cd27118c183604051612ed291906158a7565b60405180910390a35050505050565b612ef882846080015161304990919063ffffffff16565b612f0f81846080015161342690919063ffffffff16565b505050565b612f1e8282610e6f565b612f9557612f2b816134d3565b612f398360001c6020613500565b604051602001612f4a929190615961565b6040516020818303038152906040526040517f08c379a0000000000000000000000000000000000000000000000000000000008152600401612f8c91906159d4565b60405180910390fd5b5050565b612fa1613eeb565b612fb1856080015161010061373c565b508385600001818152505082856020019073ffffffffffffffffffffffffffffffffffffffff16908173ffffffffffffffffffffffffffffffffffffffff16815250508185604001907bffffffffffffffffffffffffffffffffffffffffffffffffffffffff191690817bffffffffffffffffffffffffffffffffffffffffffffffffffffffff191681525050849050949350505050565b61305682600383516137a6565b613069818361392b90919063ffffffff16565b505050565b600080600090507a184f03e93ff9f4daa797ed6e38ed64bf6a1f01000000000000000083106130cc577a184f03e93ff9f4daa797ed6e38ed64bf6a1f01000000000000000083816130c2576130c1614c9d565b5b0492506040810190505b6d04ee2d6d415b85acef81000000008310613109576d04ee2d6d415b85acef810000000083816130ff576130fe614c9d565b5b0492506020810190505b662386f26fc10000831061313857662386f26fc10000838161312e5761312d614c9d565b5b0492506010810190505b6305f5e1008310613161576305f5e100838161315757613156614c9d565b5b0492506008810190505b612710831061318657612710838161317c5761317b614c9d565b5b0492506004810190505b606483106131a9576064838161319f5761319e614c9d565b5b0492506002810190505b600a83106131b8576001810190505b80915050919050565b60008060045490506001816131d69190614f92565b6004819055506000633c6d41b960e01b600080876000015188604001518660028b60800151600001516040516024016132159796959493929190615a05565b604051602081830303815290604052907bffffffffffffffffffffffffffffffffffffffffffffffffffffffff19166020820180517bffffffffffffffffffffffffffffffffffffffffffffffffffffffff838183161783525050505090506132808683868461394d565b925050509392505050565b60006132a16010543063ade3778a60e01b612478565b90506000600c6132b0846124dc565b6040516020016132c1929190615afe565b604051602081830303815290604052905061331c6040518060400160405280600381526020017f676574000000000000000000000000000000000000000000000000000000000081525082846124a99092919063ffffffff16565b6133756040518060400160405280600481526020017f706174680000000000000000000000000000000000000000000000000000000081525060405180602001604052806000815250846124a99092919063ffffffff16565b6133c06040518060400160405280600581526020017f74696d6573000000000000000000000000000000000000000000000000000000815250600184612ee19092919063ffffffff16565b60006133f1600f60009054906101000a900473ffffffffffffffffffffffffffffffffffffffff1684601354613ae2565b9050807f1bbf3b6e20d98e7a10bd8311f993bf505fa12c23c2106847f80ded6578bbd95060405160405180910390a250505050565b7fffffffffffffffffffffffffffffffffffffffffffffffff000000000000000081121561345d576134588282613bae565b6134cf565b67ffffffffffffffff81131561347c576134778282613c25565b6134ce565b6000811261349557613490826000836137a6565b6134cd565b6134cc826001837fffffffffffffffffffffffffffffffffffffffffffffffffffffffffffffffff6134c79190615b2c565b6137a6565b5b5b5b5050565b60606134f98273ffffffffffffffffffffffffffffffffffffffff16601460ff16613500565b9050919050565b60606000600283600261351391906156e5565b61351d9190614f92565b67ffffffffffffffff81111561353657613535614632565b5b6040519080825280601f01601f1916602001820160405280156135685781602001600182028036833780820191505090505b5090507f3000000000000000000000000000000000000000000000000000000000000000816000815181106135a05761359f6153ea565b5b60200101907effffffffffffffffffffffffffffffffffffffffffffffffffffffffffffff1916908160001a9053507f780000000000000000000000000000000000000000000000000000000000000081600181518110613604576136036153ea565b5b60200101907effffffffffffffffffffffffffffffffffffffffffffffffffffffffffffff1916908160001a9053506000600184600261364491906156e5565b61364e9190614f92565b90505b60018111156136ee577f3031323334353637383961626364656600000000000000000000000000000000600f8616601081106136905761368f6153ea565b5b1a60f81b8282815181106136a7576136a66153ea565b5b60200101907effffffffffffffffffffffffffffffffffffffffffffffffffffffffffffff1916908160001a905350600485901c9450806136e790615b6f565b9050613651565b5060008414613732576040517f08c379a000000000000000000000000000000000000000000000000000000000815260040161372990615be4565b60405180910390fd5b8091505092915050565b613744613faf565b60006020836137539190615c04565b1461377f576020826137659190615c04565b60206137719190614fc6565b8261377c9190614f92565b91505b81836020018181525050604051808452600081528281016020016040525082905092915050565b60178167ffffffffffffffff16116137dd576137d78160058460ff16901b60ff161784613c7190919063ffffffff16565b50613926565b60ff8167ffffffffffffffff16116138335761380c601860058460ff16901b1784613c7190919063ffffffff16565b5061382d8167ffffffffffffffff16600185613c919092919063ffffffff16565b50613925565b61ffff8167ffffffffffffffff161161388a57613863601960058460ff16901b1784613c7190919063ffffffff16565b506138848167ffffffffffffffff16600285613c919092919063ffffffff16565b50613924565b63ffffffff8167ffffffffffffffff16116138e3576138bc601a60058460ff16901b1784613c7190919063ffffffff16565b506138dd8167ffffffffffffffff16600485613c919092919063ffffffff16565b50613923565b613900601b60058460ff16901b1784613c7190919063ffffffff16565b506139218167ffffffffffffffff16600885613c919092919063ffffffff16565b505b5b5b5b505050565b613933613faf565b61394583846000015151848551613cb3565b905092915050565b60003084604051602001613962929190615cb0565b604051602081830303815290604052805190602001209050846005600083815260200190815260200160002060006101000a81548173ffffffffffffffffffffffffffffffffffffffff021916908373ffffffffffffffffffffffffffffffffffffffff160217905550807fb5e6e01e79f91267dc17b4e6314d5d4d03593d2ceee0fbb452b750bd70ea5af960405160405180910390a2600260009054906101000a900473ffffffffffffffffffffffffffffffffffffffff1673ffffffffffffffffffffffffffffffffffffffff16634000aea08685856040518463ffffffff1660e01b8152600401613a5893929190615cdc565b6020604051808303816000875af1158015613a77573d6000803e3d6000fd5b505050506040513d601f19601f82011682018060405250810190613a9b9190614e8d565b613ada576040517f08c379a0000000000000000000000000000000000000000000000000000000008152600401613ad190615d8c565b60405180910390fd5b949350505050565b6000806004549050600181613af79190614f92565b6004819055506000634042994660e01b60008087600001513089604001518760018c6080015160000151604051602401613b38989796959493929190615dac565b604051602081830303815290604052907bffffffffffffffffffffffffffffffffffffffffffffffffffffffff19166020820180517bffffffffffffffffffffffffffffffffffffffffffffffffffffffff83818316178352505050509050613ba38683868461394d565b925050509392505050565b613bcc60036005600660ff16901b1783613c7190919063ffffffff16565b50613c2182827fffffffffffffffffffffffffffffffffffffffffffffffffffffffffffffffff613bfd9190615b2c565b604051602001613c0d9190614451565b604051602081830303815290604052613da2565b5050565b613c4360026005600660ff16901b1783613c7190919063ffffffff16565b50613c6d8282604051602001613c599190614451565b604051602081830303815290604052613da2565b5050565b613c79613faf565b613c898384600001515184613dc7565b905092915050565b613c99613faf565b613caa848560000151518585613e1d565b90509392505050565b613cbb613faf565b8251821115613cc957600080fd5b84602001518285613cda9190614f92565b1115613d0f57613d0e856002613cff88602001518887613cfa9190614f92565b613eab565b613d0991906156e5565b613ec7565b5b600080865180518760208301019350808887011115613d2e5787860182525b60208701925050505b60208410613d755780518252602082613d509190614f92565b9150602081613d5f9190614f92565b9050602084613d6e9190614fc6565b9350613d37565b60006001856020036101000a03905080198251168184511681811785525050508692505050949350505050565b613daf82600283516137a6565b613dc2818361392b90919063ffffffff16565b505050565b613dcf613faf565b83602001518310613df557613df48460028660200151613def91906156e5565b613ec7565b5b83518051602085830101848153818603613e10576001820183525b5050508390509392505050565b613e25613faf565b84602001518483613e369190614f92565b1115613e5e57613e5d8560028685613e4e9190614f92565b613e5891906156e5565b613ec7565b5b6000600183610100613e709190615f64565b613e7a9190614fc6565b90508551838682010185831982511617815281518588011115613e9d5784870182525b505085915050949350505050565b600081831115613ebd57829050613ec1565b8190505b92915050565b600082600001519050613eda838361373c565b50613ee5838261392b565b50505050565b6040518060a0016040528060008019168152602001600073ffffffffffffffffffffffffffffffffffffffff16815260200160007bffffffffffffffffffffffffffffffffffffffffffffffffffffffff1916815260200160008152602001613f52613faf565b81525090565b6040518060e00160405280600073ffffffffffffffffffffffffffffffffffffffff168152602001600081526020016000815260200160008152602001600081526020016000151581526020016000151581525090565b604051806040016040528060608152602001600081525090565b6000604051905090565b600080fd5b600080fd5b60007fffffffff0000000000000000000000000000000000000000000000000000000082169050919050565b61401281613fdd565b811461401d57600080fd5b50565b60008135905061402f81614009565b92915050565b60006020828403121561404b5761404a613fd3565b5b600061405984828501614020565b91505092915050565b60008115159050919050565b61407781614062565b82525050565b6000602082019050614092600083018461406e565b92915050565b6000819050919050565b6140ab81614098565b81146140b657600080fd5b50565b6000813590506140c8816140a2565b92915050565b6000602082840312156140e4576140e3613fd3565b5b60006140f2848285016140b9565b91505092915050565b600081519050919050565b600082825260208201905092915050565b60005b8381101561413557808201518184015260208101905061411a565b60008484015250505050565b6000601f19601f8301169050919050565b600061415d826140fb565b6141678185614106565b9350614177818560208601614117565b61418081614141565b840191505092915050565b61419481614098565b82525050565b60006101608201905081810360008301526141b5818e614152565b905081810360208301526141c9818d614152565b905081810360408301526141dd818c614152565b905081810360608301526141f1818b614152565b90508181036080830152614205818a614152565b905061421460a083018961418b565b61422160c083018861418b565b61422e60e083018761406e565b61423c61010083018661418b565b61424a61012083018561418b565b61425861014083018461418b565b9c9b505050505050505050505050565b6000819050919050565b61427b81614268565b811461428657600080fd5b50565b60008135905061429881614272565b92915050565b6000602082840312156142b4576142b3613fd3565b5b60006142c284828501614289565b91505092915050565b6142d481614268565b82525050565b60006020820190506142ef60008301846142cb565b92915050565b600073ffffffffffffffffffffffffffffffffffffffff82169050919050565b6000614320826142f5565b9050919050565b61433081614315565b811461433b57600080fd5b50565b60008135905061434d81614327565b92915050565b6000806040838503121561436a57614369613fd3565b5b600061437885828601614289565b92505060206143898582860161433e565b9150509250929050565b600080604083850312156143aa576143a9613fd3565b5b60006143b8858286016140b9565b92505060206143c9858286016140b9565b9150509250929050565b6143dc81614315565b82525050565b600060e0820190506143f7600083018a6143d3565b614404602083018961418b565b614411604083018861418b565b61441e606083018761418b565b61442b608083018661418b565b61443860a083018561406e565b61444560c083018461406e565b98975050505050505050565b6000602082019050614466600083018461418b565b92915050565b60008060006060848603121561448557614484613fd3565b5b600061449386828701614289565b93505060206144a4868287016140b9565b92505060406144b5868287016140b9565b9150509250925092565b60006020820190506144d460008301846143d3565b92915050565b6000602082840312156144f0576144ef613fd3565b5b60006144fe8482850161433e565b91505092915050565b6000806000806080858703121561452157614520613fd3565b5b600061452f878288016140b9565b9450506020614540878288016140b9565b9350506040614551878288016140b9565b9250506060614562878288016140b9565b91505092959194509250565b6000806040838503121561458557614584613fd3565b5b600061459385828601614289565b92505060206145a4858286016140b9565b9150509250929050565b6000819050919050565b60006145d36145ce6145c9846142f5565b6145ae565b6142f5565b9050919050565b60006145e5826145b8565b9050919050565b60006145f7826145da565b9050919050565b614607816145ec565b82525050565b600060208201905061462260008301846145fe565b92915050565b600080fd5b600080fd5b7f4e487b7100000000000000000000000000000000000000000000000000000000600052604160045260246000fd5b61466a82614141565b810181811067ffffffffffffffff8211171561468957614688614632565b5b80604052505050565b600061469c613fc9565b90506146a88282614661565b919050565b600067ffffffffffffffff8211156146c8576146c7614632565b5b6146d182614141565b9050602081019050919050565b82818337600083830152505050565b60006147006146fb846146ad565b614692565b90508281526020810184848401111561471c5761471b61462d565b5b6147278482856146de565b509392505050565b600082601f83011261474457614743614628565b5b81356147548482602086016146ed565b91505092915050565b60006020828403121561477357614772613fd3565b5b600082013567ffffffffffffffff81111561479157614790613fd8565b5b61479d8482850161472f565b91505092915050565b600067ffffffffffffffff8211156147c1576147c0614632565b5b602082029050602081019050919050565b600080fd5b600067ffffffffffffffff8211156147f2576147f1614632565b5b6147fb82614141565b9050602081019050919050565b600061481b614816846147d7565b614692565b9050828152602081018484840111156148375761483661462d565b5b6148428482856146de565b509392505050565b600082601f83011261485f5761485e614628565b5b813561486f848260208601614808565b91505092915050565b600061488b614886846147a6565b614692565b905080838252602082019050602084028301858111156148ae576148ad6147d2565b5b835b818110156148f557803567ffffffffffffffff8111156148d3576148d2614628565b5b8086016148e0898261484a565b855260208501945050506020810190506148b0565b5050509392505050565b600082601f83011261491457614913614628565b5b8135614924848260208601614878565b91505092915050565b6000806040838503121561494457614943613fd3565b5b600061495285828601614289565b925050602083013567ffffffffffffffff81111561497357614972613fd8565b5b61497f858286016148ff565b9150509250929050565b6000614994826142f5565b9050919050565b6149a481614989565b81146149af57600080fd5b50565b6000813590506149c18161499b565b92915050565b600080604083850312156149de576149dd613fd3565b5b60006149ec858286016140b9565b92505060206149fd858286016149b2565b9150509250929050565b7f4e487b7100000000000000000000000000000000000000000000000000000000600052602260045260246000fd5b60006002820490506001821680614a4e57607f821691505b602082108103614a6157614a60614a07565b5b50919050565b600082825260208201905092915050565b7f49535f4e4f545f41444d494e0000000000000000000000000000000000000000600082015250565b6000614aae600c83614a67565b9150614ab982614a78565b602082019050919050565b60006020820190508181036000830152614add81614aa1565b9050919050565b7f416363657373436f6e74726f6c3a2063616e206f6e6c792072656e6f756e636560008201527f20726f6c657320666f722073656c660000000000000000000000000000000000602082015250565b6000614b40602f83614a67565b9150614b4b82614ae4565b604082019050919050565b60006020820190508181036000830152614b6f81614b33565b9050919050565b7f536f75726365206d75737420626520746865206f7261636c65206f662074686560008201527f2072657175657374000000000000000000000000000000000000000000000000602082015250565b6000614bd2602883614a67565b9150614bdd82614b76565b604082019050919050565b60006020820190508181036000830152614c0181614bc5565b9050919050565b6000604082019050614c1d600083018561418b565b614c2a602083018461418b565b9392505050565b7f49535f4e4f545f52454c41594552000000000000000000000000000000000000600082015250565b6000614c67600e83614a67565b9150614c7282614c31565b602082019050919050565b60006020820190508181036000830152614c9681614c5a565b9050919050565b7f4e487b7100000000000000000000000000000000000000000000000000000000600052601260045260246000fd5b7f4e487b7100000000000000000000000000000000000000000000000000000000600052601160045260246000fd5b6000614d0682614098565b9150614d1183614098565b925082614d2157614d20614c9d565b5b828204905092915050565b7f496e76616c69642067616d652049440000000000000000000000000000000000600082015250565b6000614d62600f83614a67565b9150614d6d82614d2c565b602082019050919050565b60006020820190508181036000830152614d9181614d55565b9050919050565b7f42657420616d6f756e74206d7573742062652067726561746572207468616e2060008201527f7a65726f00000000000000000000000000000000000000000000000000000000602082015250565b6000614df4602483614a67565b9150614dff82614d98565b604082019050919050565b60006020820190508181036000830152614e2381614de7565b9050919050565b6000606082019050614e3f60008301866143d3565b614e4c60208301856143d3565b614e59604083018461418b565b949350505050565b614e6a81614062565b8114614e7557600080fd5b50565b600081519050614e8781614e61565b92915050565b600060208284031215614ea357614ea2613fd3565b5b6000614eb184828501614e78565b91505092915050565b7f5472616e73616374696f6e206661696c65640000000000000000000000000000600082015250565b6000614ef0601283614a67565b9150614efb82614eba565b602082019050919050565b60006020820190508181036000830152614f1f81614ee3565b9050919050565b7f47616d652068617320616c726561647920636f6d706c65746564000000000000600082015250565b6000614f5c601a83614a67565b9150614f6782614f26565b602082019050919050565b60006020820190508181036000830152614f8b81614f4f565b9050919050565b6000614f9d82614098565b9150614fa883614098565b9250828201905080821115614fc057614fbf614ccc565b5b92915050565b6000614fd182614098565b9150614fdc83614098565b9250828203905081811115614ff457614ff3614ccc565b5b92915050565b600061500582614098565b91507fffffffffffffffffffffffffffffffffffffffffffffffffffffffffffffffff820361503757615036614ccc565b5b600182019050919050565b600060408201905061505760008301856143d3565b615064602083018461418b565b9392505050565b600081519050919050565b60008190508160005260206000209050919050565b60006020601f8301049050919050565b600082821b905092915050565b6000600883026150d87fffffffffffffffffffffffffffffffffffffffffffffffffffffffffffffffff8261509b565b6150e2868361509b565b95508019841693508086168417925050509392505050565b600061511561511061510b84614098565b6145ae565b614098565b9050919050565b6000819050919050565b61512f836150fa565b61514361513b8261511c565b8484546150a8565b825550505050565b600090565b61515861514b565b615163818484615126565b505050565b5b818110156151875761517c600082615150565b600181019050615169565b5050565b601f8211156151cc5761519d81615076565b6151a68461508b565b810160208510156151b5578190505b6151c96151c18561508b565b830182615168565b50505b505050565b600082821c905092915050565b60006151ef600019846008026151d1565b1980831691505092915050565b600061520883836151de565b9150826002028217905092915050565b6152218261506b565b67ffffffffffffffff81111561523a57615239614632565b5b6152448254614a36565b61524f82828561518b565b600060209050601f8311600181146152825760008415615270578287015190505b61527a85826151fc565b8655506152e2565b601f19841661529086615076565b60005b828110156152b857848901518255600182019150602085019450602081019050615293565b868310156152d557848901516152d1601f8916826151de565b8355505b6001600288020188555050505b505050505050565b600081519050919050565b600081905092915050565b6000819050602082019050919050565b600081905092915050565b6000615326826140fb565b6153308185615310565b9350615340818560208601614117565b61534981614141565b840191505092915050565b6000615360838361531b565b905092915050565b6000602082019050919050565b6000615380826152ea565b61538a81856152f5565b935061539583615300565b8060005b838110156153c65781516153ad8882615354565b97506153b883615368565b925050600181019050615399565b5085935050505092915050565b60006153df8284615375565b915081905092915050565b7f4e487b7100000000000000000000000000000000000000000000000000000000600052603260045260246000fd5b6000615424826145da565b9050919050565b61543481615419565b82525050565b600060408201905061544f600083018561542b565b61545c602083018461418b565b9392505050565b7f4f776e61626c653a206e6577206f776e657220697320746865207a65726f206160008201527f6464726573730000000000000000000000000000000000000000000000000000602082015250565b60006154bf602683614a67565b91506154ca82615463565b604082019050919050565b600060208201905081810360008301526154ee816154b2565b9050919050565b600081905092915050565b600061550b8261506b565b61551581856154f5565b9350615525818560208601614117565b80840191505092915050565b7f2c7465616d410000000000000000000000000000000000000000000000000000600082015250565b60006155676006836154f5565b915061557282615531565b600682019050919050565b60006155898284615500565b91506155948261555a565b915081905092915050565b7f2c7465616d420000000000000000000000000000000000000000000000000000600082015250565b60006155d56006836154f5565b91506155e08261559f565b600682019050919050565b60006155f78284615500565b9150615602826155c8565b915081905092915050565b7f4f776e61626c653a2063616c6c6572206973206e6f7420746865206f776e6572600082015250565b6000615643602083614a67565b915061564e8261560d565b602082019050919050565b6000602082019050818103600083015261567281615636565b9050919050565b7f5468652067616d65206973206e6f7420636f6d706c6574656400000000000000600082015250565b60006156af601983614a67565b91506156ba82615679565b602082019050919050565b600060208201905081810360008301526156de816156a2565b9050919050565b60006156f082614098565b91506156fb83614098565b925082820261570981614098565b915082820484148315176157205761571f614ccc565b5b5092915050565b60008190508160005260206000209050919050565b601f82111561577d5761574e81615727565b6157578461508b565b81016020851015615766578190505b61577a6157728561508b565b830182615168565b50505b505050565b61578b826140fb565b67ffffffffffffffff8111156157a4576157a3614632565b5b6157ae8254614a36565b6157b982828561573c565b600060209050601f8311600181146157ec57600084156157da578287015190505b6157e485826151fc565b86555061584c565b601f1984166157fa86615727565b60005b82811015615822578489015182556001820191506020850194506020810190506157fd565b8683101561583f578489015161583b601f8916826151de565b8355505b6001600288020188555050505b505050505050565b600081905092915050565b600061586a826140fb565b6158748185615854565b9350615884818560208601614117565b80840191505092915050565b600061589c828461585f565b915081905092915050565b600060208201905081810360008301526158c18184614152565b905092915050565b7f416363657373436f6e74726f6c3a206163636f756e7420000000000000000000600082015250565b60006158ff6017836154f5565b915061590a826158c9565b601782019050919050565b7f206973206d697373696e6720726f6c6520000000000000000000000000000000600082015250565b600061594b6011836154f5565b915061595682615915565b601182019050919050565b600061596c826158f2565b91506159788285615500565b91506159838261593e565b915061598f8284615500565b91508190509392505050565b60006159a68261506b565b6159b08185614a67565b93506159c0818560208601614117565b6159c981614141565b840191505092915050565b600060208201905081810360008301526159ee818461599b565b905092915050565b6159ff81613fdd565b82525050565b600060e082019050615a1a600083018a6143d3565b615a27602083018961418b565b615a3460408301886142cb565b615a4160608301876159f6565b615a4e608083018661418b565b615a5b60a083018561418b565b81810360c0830152615a6d8184614152565b905098975050505050505050565b60008154615a8881614a36565b615a9281866154f5565b94506001821660008114615aad5760018114615ac257615af5565b60ff1983168652811515820286019350615af5565b615acb85615076565b60005b83811015615aed57815481890152600182019150602081019050615ace565b838801955050505b50505092915050565b6000615b0a8285615a7b565b9150615b168284615500565b91508190509392505050565b6000819050919050565b6000615b3782615b22565b9150615b4283615b22565b9250828203905081811260008412168282136000851215161715615b6957615b68614ccc565b5b92915050565b6000615b7a82614098565b915060008203615b8d57615b8c614ccc565b5b600182039050919050565b7f537472696e67733a20686578206c656e67746820696e73756666696369656e74600082015250565b6000615bce602083614a67565b9150615bd982615b98565b602082019050919050565b60006020820190508181036000830152615bfd81615bc1565b9050919050565b6000615c0f82614098565b9150615c1a83614098565b925082615c2a57615c29614c9d565b5b828206905092915050565b6000615c40826145da565b9050919050565b60008160601b9050919050565b6000615c5f82615c47565b9050919050565b6000615c7182615c54565b9050919050565b615c89615c8482615c35565b615c66565b82525050565b6000819050919050565b615caa615ca582614098565b615c8f565b82525050565b6000615cbc8285615c78565b601482019150615ccc8284615c99565b6020820191508190509392505050565b6000606082019050615cf160008301866143d3565b615cfe602083018561418b565b8181036040830152615d108184614152565b9050949350505050565b7f756e61626c6520746f207472616e73666572416e6443616c6c20746f206f726160008201527f636c650000000000000000000000000000000000000000000000000000000000602082015250565b6000615d76602383614a67565b9150615d8182615d1a565b604082019050919050565b60006020820190508181036000830152615da581615d69565b9050919050565b600061010082019050615dc2600083018b6143d3565b615dcf602083018a61418b565b615ddc60408301896142cb565b615de960608301886143d3565b615df660808301876159f6565b615e0360a083018661418b565b615e1060c083018561418b565b81810360e0830152615e228184614152565b90509998505050505050505050565b60008160011c9050919050565b6000808291508390505b6001851115615e8857808604811115615e6457615e63614ccc565b5b6001851615615e735780820291505b8081029050615e8185615e31565b9450615e48565b94509492505050565b600082615ea15760019050615f5d565b81615eaf5760009050615f5d565b8160018114615ec55760028114615ecf57615efe565b6001915050615f5d565b60ff841115615ee157615ee0614ccc565b5b8360020a915084821115615ef857615ef7614ccc565b5b50615f5d565b5060208310610133831016604e8410600b8410161715615f335782820a905083811115615f2e57615f2d614ccc565b5b615f5d565b615f408484846001615e3e565b92509050818404811115615f5757615f56614ccc565b5b81810290505b9392505050565b6000615f6f82614098565b9150615f7a83614098565b9250615fa77fffffffffffffffffffffffffffffffffffffffffffffffffffffffffffffffff8484615e91565b90509291505056fea2646970667358221220eea7a5c586c89bb8b0380c6e7a5029187b5bce5cc9872a0ac0eb055c70b383b364736f6c63430008110033",
  "linkReferences": {},
  "deployedLinkReferences": {}
}