{
  "_format": "hh-sol-artifact-1",
  "contractName": "Sports",
  "sourceName": "contracts/Sports.sol",
  "abi": [
    {
      "inputs": [
        {
          "internalType": "address",
          "name": "_chainlinkToken",
          "type": "address"
        },
        {
          "internalType": "address",
          "name": "_chainlinkOracle",
          "type": "address"
        },
        {
          "internalType": "bytes32",
          "name": "_jobId",
          "type": "bytes32"
        },
        {
          "internalType": "address",
          "name": "_relayer",
          "type": "address"
        },
        {
          "internalType": "address[]",
          "name": "_mods",
          "type": "address[]"
        },
        {
          "internalType": "address[]",
          "name": "_admins",
          "type": "address[]"
        },
        {
          "internalType": "string",
          "name": "_numbersAPI",
          "type": "string"
        },
        {
          "internalType": "string",
          "name": "_gamesAPI",
          "type": "string"
        }
      ],
      "stateMutability": "nonpayable",
      "type": "constructor"
    },
    {
      "anonymous": false,
      "inputs": [
        {
          "indexed": true,
          "internalType": "uint256",
          "name": "_gameId",
          "type": "uint256"
        },
        {
          "indexed": false,
          "internalType": "uint256",
          "name": "_homeScore",
          "type": "uint256"
        },
        {
          "indexed": false,
          "internalType": "uint256",
          "name": "_awayScore",
          "type": "uint256"
        }
      ],
      "name": "BetCreated",
      "type": "event"
    },
    {
      "anonymous": false,
      "inputs": [
        {
          "indexed": true,
          "internalType": "bytes32",
          "name": "id",
          "type": "bytes32"
        }
      ],
      "name": "ChainlinkCancelled",
      "type": "event"
    },
    {
      "anonymous": false,
      "inputs": [
        {
          "indexed": true,
          "internalType": "bytes32",
          "name": "id",
          "type": "bytes32"
        }
      ],
      "name": "ChainlinkFulfilled",
      "type": "event"
    },
    {
      "anonymous": false,
      "inputs": [
        {
          "indexed": true,
          "internalType": "bytes32",
          "name": "id",
          "type": "bytes32"
        }
      ],
      "name": "ChainlinkRequested",
      "type": "event"
    },
    {
      "anonymous": false,
      "inputs": [
        {
          "indexed": false,
          "internalType": "uint256",
          "name": "_gameTime",
          "type": "uint256"
        },
        {
          "indexed": true,
          "internalType": "string",
          "name": "_homeTeam",
          "type": "string"
        },
        {
          "indexed": true,
          "internalType": "string",
          "name": "_awayTeam",
          "type": "string"
        }
      ],
      "name": "GameCreated",
      "type": "event"
    },
    {
      "anonymous": false,
      "inputs": [
        {
          "indexed": true,
          "internalType": "address",
          "name": "previousOwner",
          "type": "address"
        },
        {
          "indexed": true,
          "internalType": "address",
          "name": "newOwner",
          "type": "address"
        }
      ],
      "name": "OwnershipTransferred",
      "type": "event"
    },
    {
      "anonymous": false,
      "inputs": [
        {
          "indexed": false,
          "internalType": "uint256",
          "name": "print",
          "type": "uint256"
        }
      ],
      "name": "Print",
      "type": "event"
    },
    {
      "anonymous": false,
      "inputs": [
        {
          "indexed": false,
          "internalType": "bytes32",
          "name": "requestId",
          "type": "bytes32"
        },
        {
          "indexed": false,
          "internalType": "uint256",
          "name": "random",
          "type": "uint256"
        }
      ],
      "name": "RequestFulfilled",
      "type": "event"
    },
    {
      "anonymous": false,
      "inputs": [
        {
          "indexed": true,
          "internalType": "bytes32",
          "name": "requestId",
          "type": "bytes32"
        },
        {
          "indexed": false,
          "internalType": "uint256",
          "name": "number",
          "type": "uint256"
        }
      ],
      "name": "RequestNumber",
      "type": "event"
    },
    {
      "anonymous": false,
      "inputs": [
        {
          "indexed": false,
          "internalType": "uint256",
          "name": "requestId",
          "type": "uint256"
        },
        {
          "indexed": false,
          "internalType": "uint32",
          "name": "numWords",
          "type": "uint32"
        }
      ],
      "name": "RequestSent",
      "type": "event"
    },
    {
      "anonymous": false,
      "inputs": [
        {
          "indexed": true,
          "internalType": "bytes32",
          "name": "role",
          "type": "bytes32"
        },
        {
          "indexed": true,
          "internalType": "bytes32",
          "name": "previousAdminRole",
          "type": "bytes32"
        },
        {
          "indexed": true,
          "internalType": "bytes32",
          "name": "newAdminRole",
          "type": "bytes32"
        }
      ],
      "name": "RoleAdminChanged",
      "type": "event"
    },
    {
      "anonymous": false,
      "inputs": [
        {
          "indexed": true,
          "internalType": "bytes32",
          "name": "role",
          "type": "bytes32"
        },
        {
          "indexed": true,
          "internalType": "address",
          "name": "account",
          "type": "address"
        },
        {
          "indexed": true,
          "internalType": "address",
          "name": "sender",
          "type": "address"
        }
      ],
      "name": "RoleGranted",
      "type": "event"
    },
    {
      "anonymous": false,
      "inputs": [
        {
          "indexed": true,
          "internalType": "bytes32",
          "name": "role",
          "type": "bytes32"
        },
        {
          "indexed": true,
          "internalType": "address",
          "name": "account",
          "type": "address"
        },
        {
          "indexed": true,
          "internalType": "address",
          "name": "sender",
          "type": "address"
        }
      ],
      "name": "RoleRevoked",
      "type": "event"
    },
    {
      "inputs": [],
      "name": "ADMIN_ROLE",
      "outputs": [
        {
          "internalType": "bytes32",
          "name": "",
          "type": "bytes32"
        }
      ],
      "stateMutability": "view",
      "type": "function"
    },
    {
      "inputs": [],
      "name": "DEFAULT_ADMIN_ROLE",
      "outputs": [
        {
          "internalType": "bytes32",
          "name": "",
          "type": "bytes32"
        }
      ],
      "stateMutability": "view",
      "type": "function"
    },
    {
      "inputs": [],
      "name": "MOD_ROLE",
      "outputs": [
        {
          "internalType": "bytes32",
          "name": "",
          "type": "bytes32"
        }
      ],
      "stateMutability": "view",
      "type": "function"
    },
    {
      "inputs": [],
      "name": "RELAYER",
      "outputs": [
        {
          "internalType": "bytes32",
          "name": "",
          "type": "bytes32"
        }
      ],
      "stateMutability": "view",
      "type": "function"
    },
    {
      "inputs": [
        {
          "internalType": "string",
          "name": "_homeTeam",
          "type": "string"
        },
        {
          "internalType": "string",
          "name": "_awayTeam",
          "type": "string"
        },
        {
          "internalType": "uint256",
          "name": "_gameTime",
          "type": "uint256"
        }
      ],
      "name": "addGame",
      "outputs": [],
      "stateMutability": "nonpayable",
      "type": "function"
    },
    {
      "inputs": [
        {
          "internalType": "bytes32",
          "name": "_requestId",
          "type": "bytes32"
        },
        {
          "internalType": "uint256",
          "name": "_number",
          "type": "uint256"
        }
      ],
      "name": "apiCall",
      "outputs": [],
      "stateMutability": "nonpayable",
      "type": "function"
    },
    {
      "inputs": [
        {
          "internalType": "uint256",
          "name": "",
          "type": "uint256"
        },
        {
          "internalType": "uint256",
          "name": "",
          "type": "uint256"
        }
      ],
      "name": "betsByGame",
      "outputs": [
        {
          "internalType": "address",
          "name": "user",
          "type": "address"
        },
        {
          "internalType": "uint256",
          "name": "gameId",
          "type": "uint256"
        },
        {
          "internalType": "uint256",
          "name": "amount",
          "type": "uint256"
        },
        {
          "internalType": "uint256",
          "name": "homeScore",
          "type": "uint256"
        },
        {
          "internalType": "uint256",
          "name": "awayScore",
          "type": "uint256"
        },
        {
          "internalType": "bool",
          "name": "betWon",
          "type": "bool"
        },
        {
          "internalType": "bool",
          "name": "betCompleted",
          "type": "bool"
        }
      ],
      "stateMutability": "view",
      "type": "function"
    },
    {
      "inputs": [
        {
          "internalType": "bytes32",
          "name": "_requestId",
          "type": "bytes32"
        },
        {
          "internalType": "uint256",
          "name": "_number",
          "type": "uint256"
        }
      ],
      "name": "fulfill",
      "outputs": [],
      "stateMutability": "nonpayable",
      "type": "function"
    },
    {
      "inputs": [],
      "name": "gameCount",
      "outputs": [
        {
          "internalType": "uint256",
          "name": "",
          "type": "uint256"
        }
      ],
      "stateMutability": "view",
      "type": "function"
    },
    {
      "inputs": [
        {
          "internalType": "uint256",
          "name": "",
          "type": "uint256"
        }
      ],
      "name": "games",
      "outputs": [
        {
          "internalType": "string",
          "name": "homeTeam",
          "type": "string"
        },
        {
          "internalType": "string",
          "name": "awayTeam",
          "type": "string"
        },
        {
          "internalType": "uint256",
          "name": "gameTime",
          "type": "uint256"
        },
        {
          "internalType": "uint256",
          "name": "homeScore",
          "type": "uint256"
        },
        {
          "internalType": "uint256",
          "name": "awayScore",
          "type": "uint256"
        },
        {
          "internalType": "bool",
          "name": "gameCompleted",
          "type": "bool"
        },
        {
          "internalType": "uint256",
          "name": "lotteryPool",
          "type": "uint256"
        },
        {
          "internalType": "uint256",
          "name": "betsCount",
          "type": "uint256"
        },
        {
          "internalType": "uint256",
          "name": "betsAmount",
          "type": "uint256"
        }
      ],
      "stateMutability": "view",
      "type": "function"
    },
    {
      "inputs": [
        {
          "internalType": "bytes32",
          "name": "role",
          "type": "bytes32"
        }
      ],
      "name": "getRoleAdmin",
      "outputs": [
        {
          "internalType": "bytes32",
          "name": "",
          "type": "bytes32"
        }
      ],
      "stateMutability": "view",
      "type": "function"
    },
    {
      "inputs": [
        {
          "internalType": "bytes32",
          "name": "role",
          "type": "bytes32"
        },
        {
          "internalType": "address",
          "name": "account",
          "type": "address"
        }
      ],
      "name": "grantRole",
      "outputs": [],
      "stateMutability": "nonpayable",
      "type": "function"
    },
    {
      "inputs": [
        {
          "internalType": "bytes32",
          "name": "role",
          "type": "bytes32"
        },
        {
          "internalType": "address",
          "name": "account",
          "type": "address"
        }
      ],
      "name": "hasRole",
      "outputs": [
        {
          "internalType": "bool",
          "name": "",
          "type": "bool"
        }
      ],
      "stateMutability": "view",
      "type": "function"
    },
    {
      "inputs": [],
      "name": "lastNumber",
      "outputs": [
        {
          "internalType": "uint256",
          "name": "",
          "type": "uint256"
        }
      ],
      "stateMutability": "view",
      "type": "function"
    },
    {
      "inputs": [
        {
          "internalType": "uint256",
          "name": "_gameId",
          "type": "uint256"
        },
        {
          "internalType": "uint256",
          "name": "_homeScore",
          "type": "uint256"
        },
        {
          "internalType": "uint256",
          "name": "_awayScore",
          "type": "uint256"
        }
      ],
      "name": "makeBet",
      "outputs": [],
      "stateMutability": "payable",
      "type": "function"
    },
    {
      "inputs": [],
      "name": "owner",
      "outputs": [
        {
          "internalType": "address",
          "name": "",
          "type": "address"
        }
      ],
      "stateMutability": "view",
      "type": "function"
    },
    {
      "inputs": [],
      "name": "renounceOwnership",
      "outputs": [],
      "stateMutability": "nonpayable",
      "type": "function"
    },
    {
      "inputs": [
        {
          "internalType": "bytes32",
          "name": "role",
          "type": "bytes32"
        },
        {
          "internalType": "address",
          "name": "account",
          "type": "address"
        }
      ],
      "name": "renounceRole",
      "outputs": [],
      "stateMutability": "nonpayable",
      "type": "function"
    },
    {
      "inputs": [
        {
          "internalType": "bytes32",
          "name": "role",
          "type": "bytes32"
        },
        {
          "internalType": "address",
          "name": "account",
          "type": "address"
        }
      ],
      "name": "revokeRole",
      "outputs": [],
      "stateMutability": "nonpayable",
      "type": "function"
    },
    {
      "inputs": [
        {
          "internalType": "uint256",
          "name": "loosersQt",
          "type": "uint256"
        }
      ],
      "name": "selectLotteryWinner",
      "outputs": [
        {
          "internalType": "uint256",
          "name": "",
          "type": "uint256"
        }
      ],
      "stateMutability": "nonpayable",
      "type": "function"
    },
    {
      "inputs": [
        {
          "internalType": "bytes4",
          "name": "interfaceId",
          "type": "bytes4"
        }
      ],
      "name": "supportsInterface",
      "outputs": [
        {
          "internalType": "bool",
          "name": "",
          "type": "bool"
        }
      ],
      "stateMutability": "view",
      "type": "function"
    },
    {
      "inputs": [
        {
          "internalType": "uint256",
          "name": "_amount",
          "type": "uint256"
        },
        {
          "internalType": "address payable",
          "name": "destination",
          "type": "address"
        }
      ],
      "name": "transferFunds",
      "outputs": [],
      "stateMutability": "nonpayable",
      "type": "function"
    },
    {
      "inputs": [
        {
          "internalType": "address",
          "name": "newOwner",
          "type": "address"
        }
      ],
      "name": "transferOwnership",
      "outputs": [],
      "stateMutability": "nonpayable",
      "type": "function"
    },
    {
      "inputs": [
        {
          "internalType": "bytes32",
          "name": "_newJobId",
          "type": "bytes32"
        }
      ],
      "name": "updateChainlinkJobId",
      "outputs": [],
      "stateMutability": "nonpayable",
      "type": "function"
    },
    {
      "inputs": [],
      "name": "updateDashboard",
      "outputs": [],
      "stateMutability": "nonpayable",
      "type": "function"
    },
    {
      "inputs": [
        {
          "internalType": "uint256",
          "name": "_gameId",
          "type": "uint256"
        },
        {
          "internalType": "uint256",
          "name": "_homeScore",
          "type": "uint256"
        },
        {
          "internalType": "uint256",
          "name": "_awayScore",
          "type": "uint256"
        }
      ],
      "name": "updateGameScore",
      "outputs": [],
      "stateMutability": "nonpayable",
      "type": "function"
    },
    {
      "inputs": [
        {
          "internalType": "string",
          "name": "_newUrl",
          "type": "string"
        }
      ],
      "name": "updateNumberAPI",
      "outputs": [],
      "stateMutability": "nonpayable",
      "type": "function"
    },
    {
      "inputs": [
        {
          "internalType": "address",
          "name": "_newRelayer",
          "type": "address"
        }
      ],
      "name": "updateRelayer",
      "outputs": [],
      "stateMutability": "nonpayable",
      "type": "function"
    }
  ],
  "bytecode": "0x608060405260016004553480156200001657600080fd5b5060405162005c7838038062005c7883398181016040528101906200003c919062000b3f565b6200005c62000050620001f660201b60201c565b620001fe60201b60201c565b60005b8451811015620000cc57620000b87f950b8f2d7415defaee398bb4898e8e094a64c725873b81952b7ab9f08d70efb3868381518110620000a457620000a362000c84565b5b6020026020010151620002c460201b60201c565b80620000c49062000cec565b90506200005f565b5060005b83518110156200013d57620001297fa49807205ce4d355092ef5a8a18f56e8913cf4a201fbe287825b095693c2177585838151811062000115576200011462000c84565b5b6020026020010151620002c460201b60201c565b80620001359062000cec565b9050620000d0565b50620001707fab4f864e5201b0fde9b5ee3e4cf96384802b0ffdfcf7f9de4699ce21a30afc4f86620002c460201b60201c565b81600b908162000181919062000f7a565b5080600c908162000193919062000f7a565b50620001a5886200030d60201b60201c565b620001b6876200035160201b60201c565b85600d81905550600a670de0b6b3a76400006001620001d6919062001061565b620001e29190620010db565b600e81905550505050505050505062001388565b600033905090565b6000600660009054906101000a900473ffffffffffffffffffffffffffffffffffffffff16905081600660006101000a81548173ffffffffffffffffffffffffffffffffffffffff021916908373ffffffffffffffffffffffffffffffffffffffff1602179055508173ffffffffffffffffffffffffffffffffffffffff168173ffffffffffffffffffffffffffffffffffffffff167f8be0079c531659141344cd1fd0a4f28419497f9722a3daafe3b4186f6b6457e060405160405180910390a35050565b620002d5826200039560201b60201c565b620002f681620002ea620001f660201b60201c565b620003b560201b60201c565b6200030883836200047960201b60201c565b505050565b80600260006101000a81548173ffffffffffffffffffffffffffffffffffffffff021916908373ffffffffffffffffffffffffffffffffffffffff16021790555050565b80600360006101000a81548173ffffffffffffffffffffffffffffffffffffffff021916908373ffffffffffffffffffffffffffffffffffffffff16021790555050565b600060076000838152602001908152602001600020600101549050919050565b620003c782826200056b60201b60201c565b6200047557620003fa8173ffffffffffffffffffffffffffffffffffffffff166014620005d660201b62001fc01760201c565b620004158360001c6020620005d660201b62001fc01760201c565b60405160200162000428929190620011f5565b6040516020818303038152906040526040517f08c379a00000000000000000000000000000000000000000000000000000000081526004016200046c919062001289565b60405180910390fd5b5050565b6200048b82826200056b60201b60201c565b620005675760016007600084815260200190815260200160002060000160008373ffffffffffffffffffffffffffffffffffffffff1673ffffffffffffffffffffffffffffffffffffffff16815260200190815260200160002060006101000a81548160ff0219169083151502179055506200050c620001f660201b60201c565b73ffffffffffffffffffffffffffffffffffffffff168173ffffffffffffffffffffffffffffffffffffffff16837f2f8788117e7eff1d82e926ec794901d17c78024a50270940304540a733656f0d60405160405180910390a45b5050565b60006007600084815260200190815260200160002060000160008373ffffffffffffffffffffffffffffffffffffffff1673ffffffffffffffffffffffffffffffffffffffff16815260200190815260200160002060009054906101000a900460ff16905092915050565b606060006002836002620005eb919062001061565b620005f79190620012ad565b67ffffffffffffffff811115620006135762000612620008fb565b5b6040519080825280601f01601f191660200182016040528015620006465781602001600182028036833780820191505090505b5090507f30000000000000000000000000000000000000000000000000000000000000008160008151811062000681576200068062000c84565b5b60200101907effffffffffffffffffffffffffffffffffffffffffffffffffffffffffffff1916908160001a9053507f780000000000000000000000000000000000000000000000000000000000000081600181518110620006e857620006e762000c84565b5b60200101907effffffffffffffffffffffffffffffffffffffffffffffffffffffffffffff1916908160001a905350600060018460026200072a919062001061565b620007369190620012ad565b90505b6001811115620007e0577f3031323334353637383961626364656600000000000000000000000000000000600f8616601081106200077c576200077b62000c84565b5b1a60f81b82828151811062000796576200079562000c84565b5b60200101907effffffffffffffffffffffffffffffffffffffffffffffffffffffffffffff1916908160001a905350600485901c945080620007d890620012e8565b905062000739565b506000841462000827576040517f08c379a00000000000000000000000000000000000000000000000000000000081526004016200081e9062001366565b60405180910390fd5b8091505092915050565b6000604051905090565b600080fd5b600080fd5b600073ffffffffffffffffffffffffffffffffffffffff82169050919050565b6000620008728262000845565b9050919050565b620008848162000865565b81146200089057600080fd5b50565b600081519050620008a48162000879565b92915050565b6000819050919050565b620008bf81620008aa565b8114620008cb57600080fd5b50565b600081519050620008df81620008b4565b92915050565b600080fd5b6000601f19601f8301169050919050565b7f4e487b7100000000000000000000000000000000000000000000000000000000600052604160045260246000fd5b6200093582620008ea565b810181811067ffffffffffffffff82111715620009575762000956620008fb565b5b80604052505050565b60006200096c62000831565b90506200097a82826200092a565b919050565b600067ffffffffffffffff8211156200099d576200099c620008fb565b5b602082029050602081019050919050565b600080fd5b6000620009ca620009c4846200097f565b62000960565b90508083825260208201905060208402830185811115620009f057620009ef620009ae565b5b835b8181101562000a1d578062000a08888262000893565b845260208401935050602081019050620009f2565b5050509392505050565b600082601f83011262000a3f5762000a3e620008e5565b5b815162000a51848260208601620009b3565b91505092915050565b600080fd5b600067ffffffffffffffff82111562000a7d5762000a7c620008fb565b5b62000a8882620008ea565b9050602081019050919050565b60005b8381101562000ab557808201518184015260208101905062000a98565b60008484015250505050565b600062000ad862000ad28462000a5f565b62000960565b90508281526020810184848401111562000af75762000af662000a5a565b5b62000b0484828562000a95565b509392505050565b600082601f83011262000b245762000b23620008e5565b5b815162000b3684826020860162000ac1565b91505092915050565b600080600080600080600080610100898b03121562000b635762000b626200083b565b5b600062000b738b828c0162000893565b985050602062000b868b828c0162000893565b975050604062000b998b828c01620008ce565b965050606062000bac8b828c0162000893565b955050608089015167ffffffffffffffff81111562000bd05762000bcf62000840565b5b62000bde8b828c0162000a27565b94505060a089015167ffffffffffffffff81111562000c025762000c0162000840565b5b62000c108b828c0162000a27565b93505060c089015167ffffffffffffffff81111562000c345762000c3362000840565b5b62000c428b828c0162000b0c565b92505060e089015167ffffffffffffffff81111562000c665762000c6562000840565b5b62000c748b828c0162000b0c565b9150509295985092959890939650565b7f4e487b7100000000000000000000000000000000000000000000000000000000600052603260045260246000fd5b7f4e487b7100000000000000000000000000000000000000000000000000000000600052601160045260246000fd5b6000819050919050565b600062000cf98262000ce2565b91507fffffffffffffffffffffffffffffffffffffffffffffffffffffffffffffffff820362000d2e5762000d2d62000cb3565b5b600182019050919050565b600081519050919050565b7f4e487b7100000000000000000000000000000000000000000000000000000000600052602260045260246000fd5b6000600282049050600182168062000d8c57607f821691505b60208210810362000da25762000da162000d44565b5b50919050565b60008190508160005260206000209050919050565b60006020601f8301049050919050565b600082821b905092915050565b60006008830262000e0c7fffffffffffffffffffffffffffffffffffffffffffffffffffffffffffffffff8262000dcd565b62000e18868362000dcd565b95508019841693508086168417925050509392505050565b6000819050919050565b600062000e5b62000e5562000e4f8462000ce2565b62000e30565b62000ce2565b9050919050565b6000819050919050565b62000e778362000e3a565b62000e8f62000e868262000e62565b84845462000dda565b825550505050565b600090565b62000ea662000e97565b62000eb381848462000e6c565b505050565b5b8181101562000edb5762000ecf60008262000e9c565b60018101905062000eb9565b5050565b601f82111562000f2a5762000ef48162000da8565b62000eff8462000dbd565b8101602085101562000f0f578190505b62000f2762000f1e8562000dbd565b83018262000eb8565b50505b505050565b600082821c905092915050565b600062000f4f6000198460080262000f2f565b1980831691505092915050565b600062000f6a838362000f3c565b9150826002028217905092915050565b62000f858262000d39565b67ffffffffffffffff81111562000fa15762000fa0620008fb565b5b62000fad825462000d73565b62000fba82828562000edf565b600060209050601f83116001811462000ff2576000841562000fdd578287015190505b62000fe9858262000f5c565b86555062001059565b601f198416620010028662000da8565b60005b828110156200102c5784890151825560018201915060208501945060208101905062001005565b868310156200104c578489015162001048601f89168262000f3c565b8355505b6001600288020188555050505b505050505050565b60006200106e8262000ce2565b91506200107b8362000ce2565b92508282026200108b8162000ce2565b91508282048414831517620010a557620010a462000cb3565b5b5092915050565b7f4e487b7100000000000000000000000000000000000000000000000000000000600052601260045260246000fd5b6000620010e88262000ce2565b9150620010f58362000ce2565b925082620011085762001107620010ac565b5b828204905092915050565b600081905092915050565b7f416363657373436f6e74726f6c3a206163636f756e7420000000000000000000600082015250565b60006200115660178362001113565b915062001163826200111e565b601782019050919050565b60006200117b8262000d39565b62001187818562001113565b93506200119981856020860162000a95565b80840191505092915050565b7f206973206d697373696e6720726f6c6520000000000000000000000000000000600082015250565b6000620011dd60118362001113565b9150620011ea82620011a5565b601182019050919050565b6000620012028262001147565b91506200121082856200116e565b91506200121d82620011ce565b91506200122b82846200116e565b91508190509392505050565b600082825260208201905092915050565b6000620012558262000d39565b62001261818562001237565b93506200127381856020860162000a95565b6200127e81620008ea565b840191505092915050565b60006020820190508181036000830152620012a5818462001248565b905092915050565b6000620012ba8262000ce2565b9150620012c78362000ce2565b9250828201905080821115620012e257620012e162000cb3565b5b92915050565b6000620012f58262000ce2565b9150600082036200130b576200130a62000cb3565b5b600182039050919050565b7f537472696e67733a20686578206c656e67746820696e73756666696369656e74600082015250565b60006200134e60208362001237565b91506200135b8262001316565b602082019050919050565b6000602082019050818103600083015262001381816200133f565b9050919050565b6148e080620013986000396000f3fe6080604052600436106101b75760003560e01c80637d807730116100ec578063a5c86b771161008a578063d547741f11610064578063d547741f146105f5578063e932406f1461061e578063f08e362f14610649578063f2fde38b14610672576101b7565b8063a5c86b7714610578578063b3db9f1a146105a1578063bfd5c6df146105cc576101b7565b80638f83ab13116100c65780638f83ab13146104be57806391d14854146104e7578063a094959514610524578063a217fddf1461054d576101b7565b80637d807730146104535780638b4ac6391461046a5780638da5cb5b14610493576101b7565b80634357855e1161015957806355fb9d081161013357806355fb9d08146103b8578063715018a6146103f557806375b238fc1461040c578063779a361114610437576101b7565b80634357855e1461033b5780634d1975b4146103645780634eca519f1461038f576101b7565b8063248a9ca311610195578063248a9ca3146102695780632f2ff15d146102a657806336568abe146102cf5780633b6e6f1b146102f8576101b7565b806301ffc9a7146101bc578063117a5b90146101f95780632483e7151461023e575b600080fd5b3480156101c857600080fd5b506101e360048036038101906101de9190613075565b61069b565b6040516101f091906130bd565b60405180910390f35b34801561020557600080fd5b50610220600480360381019061021b919061310e565b610715565b604051610235999897969594939291906131da565b60405180910390f35b34801561024a57600080fd5b50610253610880565b604051610260919061328e565b60405180910390f35b34801561027557600080fd5b50610290600480360381019061028b91906132d5565b6108a4565b60405161029d919061328e565b60405180910390f35b3480156102b257600080fd5b506102cd60048036038101906102c89190613360565b6108c4565b005b3480156102db57600080fd5b506102f660048036038101906102f19190613360565b6108ed565b005b34801561030457600080fd5b5061031f600480360381019061031a91906133a0565b610970565b60405161033297969594939291906133ef565b60405180910390f35b34801561034757600080fd5b50610362600480360381019061035d919061345e565b6109f9565b005b34801561037057600080fd5b50610379610b42565b604051610386919061349e565b60405180910390f35b34801561039b57600080fd5b506103b660048036038101906103b191906132d5565b610b48565b005b3480156103c457600080fd5b506103df60048036038101906103da919061310e565b610bf8565b6040516103ec919061349e565b60405180910390f35b34801561040157600080fd5b5061040a610d3f565b005b34801561041857600080fd5b50610421610dc7565b60405161042e919061328e565b60405180910390f35b610451600480360381019061044c91906134b9565b610deb565b005b34801561045f57600080fd5b506104686110e4565b005b34801561047657600080fd5b50610491600480360381019061048c919061345e565b61114f565b005b34801561049f57600080fd5b506104a8611298565b6040516104b5919061350c565b60405180910390f35b3480156104ca57600080fd5b506104e560048036038101906104e09190613527565b6112c2565b005b3480156104f357600080fd5b5061050e60048036038101906105099190613360565b611395565b60405161051b91906130bd565b60405180910390f35b34801561053057600080fd5b5061054b600480360381019061054691906134b9565b611400565b005b34801561055957600080fd5b50610562611aaf565b60405161056f919061328e565b60405180910390f35b34801561058457600080fd5b5061059f600480360381019061059a9190613689565b611ab6565b005b3480156105ad57600080fd5b506105b6611cf6565b6040516105c3919061349e565b60405180910390f35b3480156105d857600080fd5b506105f360048036038101906105ee9190613714565b611cfc565b005b34801561060157600080fd5b5061061c60048036038101906106179190613360565b611db5565b005b34801561062a57600080fd5b50610633611dde565b604051610640919061328e565b60405180910390f35b34801561065557600080fd5b50610670600480360381019061066b919061379b565b611e02565b005b34801561067e57600080fd5b5061069960048036038101906106949190613527565b611ec9565b005b60007f7965db0b000000000000000000000000000000000000000000000000000000007bffffffffffffffffffffffffffffffffffffffffffffffffffffffff1916827bffffffffffffffffffffffffffffffffffffffffffffffffffffffff1916148061070e575061070d826121fc565b5b9050919050565b60096020528060005260406000206000915090508060000180546107389061380a565b80601f01602080910402602001604051908101604052809291908181526020018280546107649061380a565b80156107b15780601f10610786576101008083540402835291602001916107b1565b820191906000526020600020905b81548152906001019060200180831161079457829003601f168201915b5050505050908060010180546107c69061380a565b80601f01602080910402602001604051908101604052809291908181526020018280546107f29061380a565b801561083f5780601f106108145761010080835404028352916020019161083f565b820191906000526020600020905b81548152906001019060200180831161082257829003601f168201915b5050505050908060020154908060030154908060040154908060050160009054906101000a900460ff16908060060154908060070154908060080154905089565b7fab4f864e5201b0fde9b5ee3e4cf96384802b0ffdfcf7f9de4699ce21a30afc4f81565b600060076000838152602001908152602001600020600101549050919050565b6108cd826108a4565b6108de816108d9612266565b61226e565b6108e8838361230b565b505050565b6108f5612266565b73ffffffffffffffffffffffffffffffffffffffff168173ffffffffffffffffffffffffffffffffffffffff1614610962576040517f08c379a0000000000000000000000000000000000000000000000000000000008152600401610959906138ad565b60405180910390fd5b61096c82826123ec565b5050565b6008602052816000526040600020602052806000526040600020600091509150508060000160009054906101000a900473ffffffffffffffffffffffffffffffffffffffff16908060010154908060020154908060030154908060040154908060050160009054906101000a900460ff16908060050160019054906101000a900460ff16905087565b816005600082815260200190815260200160002060009054906101000a900473ffffffffffffffffffffffffffffffffffffffff1673ffffffffffffffffffffffffffffffffffffffff163373ffffffffffffffffffffffffffffffffffffffff1614610a9b576040517f08c379a0000000000000000000000000000000000000000000000000000000008152600401610a929061393f565b60405180910390fd5b6005600082815260200190815260200160002060006101000a81549073ffffffffffffffffffffffffffffffffffffffff0219169055807f7cc135e0cebb02c3480ae5d74d377283180a2601f8f644edf7987b009316c63a60405160405180910390a2827f4b031b5f8729563cda98e5f016f7cb0d8e6b32db75591d31e59c13df29adea4483604051610b2e919061349e565b60405180910390a281600f81905550505050565b600a5481565b610b727fa49807205ce4d355092ef5a8a18f56e8913cf4a201fbe287825b095693c2177533611395565b80610baf5750610b80611298565b73ffffffffffffffffffffffffffffffffffffffff163373ffffffffffffffffffffffffffffffffffffffff16145b610bee576040517f08c379a0000000000000000000000000000000000000000000000000000000008152600401610be5906139ab565b60405180910390fd5b80600d8190555050565b600080610c0f600d5430634357855e60e01b6124ce565b90506000600b610c1e856124ff565b604051602001610c2f929190613a9f565b6040516020818303038152906040529050610c8a6040518060400160405280600381526020017f6765740000000000000000000000000000000000000000000000000000000000815250828461265f9092919063ffffffff16565b610ce36040518060400160405280600481526020017f7061746800000000000000000000000000000000000000000000000000000000815250604051806020016040528060008152508461265f9092919063ffffffff16565b6000610cf183600e54612692565b90506000600f5490507f1ca8663227a7fe9919713a01d344afbb434e234f35a3e540a6ad924f88771f388282604051610d2b929190613ac3565b60405180910390a180945050505050919050565b610d47612266565b73ffffffffffffffffffffffffffffffffffffffff16610d65611298565b73ffffffffffffffffffffffffffffffffffffffff1614610dbb576040517f08c379a0000000000000000000000000000000000000000000000000000000008152600401610db290613b38565b60405180910390fd5b610dc560006126c9565b565b7fa49807205ce4d355092ef5a8a18f56e8913cf4a201fbe287825b095693c2177581565b600a548310610e2f576040517f08c379a0000000000000000000000000000000000000000000000000000000008152600401610e2690613ba4565b60405180910390fd5b60003411610e72576040517f08c379a0000000000000000000000000000000000000000000000000000000008152600401610e6990613c36565b60405180910390fd5b60006009600085815260200190815260200160002090508060050160009054906101000a900460ff1615610edb576040517f08c379a0000000000000000000000000000000000000000000000000000000008152600401610ed290613ca2565b60405180910390fd5b6000601434610eea9190613d20565b90506000600534610efb9190613d20565b905080836006016000828254610f119190613d51565b92505081905550808234610f259190613d85565b610f2f9190613d85565b836008016000828254610f429190613d51565b925050819055506040518060e001604052803373ffffffffffffffffffffffffffffffffffffffff168152602001878152602001828434610f839190613d85565b610f8d9190613d85565b8152602001868152602001858152602001600015158152602001600015158152506008600088815260200190815260200160002060008560070154815260200190815260200160002060008201518160000160006101000a81548173ffffffffffffffffffffffffffffffffffffffff021916908373ffffffffffffffffffffffffffffffffffffffff1602179055506020820151816001015560408201518160020155606082015181600301556080820151816004015560a08201518160050160006101000a81548160ff02191690831515021790555060c08201518160050160016101000a81548160ff02191690831515021790555090505082600701600081548092919061109d90613db9565b9190505550857fbb79d51f1411ca03952954c866d22ae3532b227b2cf62e257cf182397a64717386866040516110d4929190613e01565b60405180910390a2505050505050565b61110e7fab4f864e5201b0fde9b5ee3e4cf96384802b0ffdfcf7f9de4699ce21a30afc4f33611395565b61114d576040517f08c379a000000000000000000000000000000000000000000000000000000000815260040161114490613e76565b60405180910390fd5b565b816005600082815260200190815260200160002060009054906101000a900473ffffffffffffffffffffffffffffffffffffffff1673ffffffffffffffffffffffffffffffffffffffff163373ffffffffffffffffffffffffffffffffffffffff16146111f1576040517f08c379a00000000000000000000000000000000000000000000000000000000081526004016111e89061393f565b60405180910390fd5b6005600082815260200190815260200160002060006101000a81549073ffffffffffffffffffffffffffffffffffffffff0219169055807f7cc135e0cebb02c3480ae5d74d377283180a2601f8f644edf7987b009316c63a60405160405180910390a2827f4b031b5f8729563cda98e5f016f7cb0d8e6b32db75591d31e59c13df29adea4483604051611284919061349e565b60405180910390a281600f81905550505050565b6000600660009054906101000a900473ffffffffffffffffffffffffffffffffffffffff16905090565b6112ec7fa49807205ce4d355092ef5a8a18f56e8913cf4a201fbe287825b095693c2177533611395565b8061132957506112fa611298565b73ffffffffffffffffffffffffffffffffffffffff163373ffffffffffffffffffffffffffffffffffffffff16145b611368576040517f08c379a000000000000000000000000000000000000000000000000000000000815260040161135f906139ab565b60405180910390fd5b6113927fab4f864e5201b0fde9b5ee3e4cf96384802b0ffdfcf7f9de4699ce21a30afc4f826108c4565b50565b60006007600084815260200190815260200160002060000160008373ffffffffffffffffffffffffffffffffffffffff1673ffffffffffffffffffffffffffffffffffffffff16815260200190815260200160002060009054906101000a900460ff16905092915050565b61142a7f950b8f2d7415defaee398bb4898e8e094a64c725873b81952b7ab9f08d70efb333611395565b8061145b575061145a7fa49807205ce4d355092ef5a8a18f56e8913cf4a201fbe287825b095693c2177533611395565b5b806114985750611469611298565b73ffffffffffffffffffffffffffffffffffffffff163373ffffffffffffffffffffffffffffffffffffffff16145b6114d7576040517f08c379a00000000000000000000000000000000000000000000000000000000081526004016114ce90613ee2565b60405180910390fd5b600a54831061151b576040517f08c379a000000000000000000000000000000000000000000000000000000000815260040161151290613ba4565b60405180910390fd5b600060096000858152602001908152602001600020905082816003018190555081816004018190555060018160050160006101000a81548160ff02191690831515021790555060008160070154036115735750611aaa565b6000805b82600701548110156115e957600060086000888152602001908152602001600020600083815260200190815260200160002090508581600301541480156115c15750848160040154145b156115d55782806115d190613db9565b9350505b5080806115e190613db9565b915050611577565b5060008167ffffffffffffffff8111156116065761160561355e565b5b60405190808252806020026020018201604052801561163f57816020015b61162c612f2b565b8152602001906001900390816116245790505b50905060008284600701546116549190613d85565b67ffffffffffffffff81111561166d5761166c61355e565b5b6040519080825280602002602001820160405280156116a657816020015b611693612f2b565b81526020019060019003908161168b5790505b5090506000806000805b876007015481101561193d576000600860008d8152602001908152602001600020600083815260200190815260200160002090508a81600301541480156116fa5750898160040154145b1561181f5760018160050160006101000a81548160ff021916908315150217905550806040518060e00160405290816000820160009054906101000a900473ffffffffffffffffffffffffffffffffffffffff1673ffffffffffffffffffffffffffffffffffffffff1673ffffffffffffffffffffffffffffffffffffffff168152602001600182015481526020016002820154815260200160038201548152602001600482015481526020016005820160009054906101000a900460ff161515151581526020016005820160019054906101000a900460ff1615151515815250508786815181106117ef576117ee613f02565b5b602002602001018190525080600201548361180a9190613d51565b9250848061181790613db9565b95505061190c565b806040518060e00160405290816000820160009054906101000a900473ffffffffffffffffffffffffffffffffffffffff1673ffffffffffffffffffffffffffffffffffffffff1673ffffffffffffffffffffffffffffffffffffffff168152602001600182015481526020016002820154815260200160038201548152602001600482015481526020016005820160009054906101000a900460ff161515151581526020016005820160019054906101000a900460ff1615151515815250508685815181106118f2576118f1613f02565b5b6020026020010181905250838061190890613db9565b9450505b60018160050160016101000a81548160ff02191690831515021790555050808061193590613db9565b9150506116b0565b506000830361196657866008015487600601600082825461195e9190613d51565b925050819055505b60005b83811015611a215785818151811061198457611983613f02565b5b60200260200101516000015173ffffffffffffffffffffffffffffffffffffffff166108fc838884815181106119bd576119bc613f02565b5b6020026020010151604001518b600801546119d89190613f31565b6119e29190613d20565b9081150290604051600060405180830381858888f19350505050158015611a0d573d6000803e3d6000fd5b508080611a1990613db9565b915050611969565b506000611a2d83610bf8565b905060018114611aa157848181518110611a4a57611a49613f02565b5b60200260200101516000015173ffffffffffffffffffffffffffffffffffffffff166108fc89600601549081150290604051600060405180830381858888f19350505050158015611a9f573d6000803e3d6000fd5b505b50505050505050505b505050565b6000801b81565b611ae07f950b8f2d7415defaee398bb4898e8e094a64c725873b81952b7ab9f08d70efb333611395565b80611b115750611b107fa49807205ce4d355092ef5a8a18f56e8913cf4a201fbe287825b095693c2177533611395565b5b80611b4e5750611b1f611298565b73ffffffffffffffffffffffffffffffffffffffff163373ffffffffffffffffffffffffffffffffffffffff16145b611b8d576040517f08c379a0000000000000000000000000000000000000000000000000000000008152600401611b8490613ee2565b60405180910390fd5b60405180610120016040528084815260200183815260200182815260200160008152602001600081526020016000151581526020016000815260200160008152602001600081525060096000600a5481526020019081526020016000206000820151816000019081611bff919061410a565b506020820151816001019081611c15919061410a565b5060408201518160020155606082015181600301556080820151816004015560a08201518160050160006101000a81548160ff02191690831515021790555060c0820151816006015560e082015181600701556101008201518160080155905050600a6000815480929190611c8990613db9565b919050555081604051611c9c91906141dc565b604051809103902083604051611cb291906141dc565b60405180910390207fd35ca1314b646b63fb0c1f06dbe2338333530431983c8779c9692f9ff4ad249f83604051611ce9919061349e565b60405180910390a3505050565b600f5481565b611d267fa49807205ce4d355092ef5a8a18f56e8913cf4a201fbe287825b095693c2177533611395565b80611d635750611d34611298565b73ffffffffffffffffffffffffffffffffffffffff163373ffffffffffffffffffffffffffffffffffffffff16145b611da2576040517f08c379a0000000000000000000000000000000000000000000000000000000008152600401611d99906139ab565b60405180910390fd5b80600b9081611db1919061410a565b5050565b611dbe826108a4565b611dcf81611dca612266565b61226e565b611dd983836123ec565b505050565b7f950b8f2d7415defaee398bb4898e8e094a64c725873b81952b7ab9f08d70efb381565b611e0a612266565b73ffffffffffffffffffffffffffffffffffffffff16611e28611298565b73ffffffffffffffffffffffffffffffffffffffff1614611e7e576040517f08c379a0000000000000000000000000000000000000000000000000000000008152600401611e7590613b38565b60405180910390fd5b8073ffffffffffffffffffffffffffffffffffffffff166108fc839081150290604051600060405180830381858888f19350505050158015611ec4573d6000803e3d6000fd5b505050565b611ed1612266565b73ffffffffffffffffffffffffffffffffffffffff16611eef611298565b73ffffffffffffffffffffffffffffffffffffffff1614611f45576040517f08c379a0000000000000000000000000000000000000000000000000000000008152600401611f3c90613b38565b60405180910390fd5b600073ffffffffffffffffffffffffffffffffffffffff168173ffffffffffffffffffffffffffffffffffffffff1603611fb4576040517f08c379a0000000000000000000000000000000000000000000000000000000008152600401611fab90614265565b60405180910390fd5b611fbd816126c9565b50565b606060006002836002611fd39190613f31565b611fdd9190613d51565b67ffffffffffffffff811115611ff657611ff561355e565b5b6040519080825280601f01601f1916602001820160405280156120285781602001600182028036833780820191505090505b5090507f3000000000000000000000000000000000000000000000000000000000000000816000815181106120605761205f613f02565b5b60200101907effffffffffffffffffffffffffffffffffffffffffffffffffffffffffffff1916908160001a9053507f7800000000000000000000000000000000000000000000000000000000000000816001815181106120c4576120c3613f02565b5b60200101907effffffffffffffffffffffffffffffffffffffffffffffffffffffffffffff1916908160001a905350600060018460026121049190613f31565b61210e9190613d51565b90505b60018111156121ae577f3031323334353637383961626364656600000000000000000000000000000000600f8616601081106121505761214f613f02565b5b1a60f81b82828151811061216757612166613f02565b5b60200101907effffffffffffffffffffffffffffffffffffffffffffffffffffffffffffff1916908160001a905350600485901c9450806121a790614285565b9050612111565b50600084146121f2576040517f08c379a00000000000000000000000000000000000000000000000000000000081526004016121e9906142fa565b60405180910390fd5b8091505092915050565b60007f01ffc9a7000000000000000000000000000000000000000000000000000000007bffffffffffffffffffffffffffffffffffffffffffffffffffffffff1916827bffffffffffffffffffffffffffffffffffffffffffffffffffffffff1916149050919050565b600033905090565b6122788282611395565b6123075761229d8173ffffffffffffffffffffffffffffffffffffffff166014611fc0565b6122ab8360001c6020611fc0565b6040516020016122bc9291906143b2565b6040516020818303038152906040526040517f08c379a00000000000000000000000000000000000000000000000000000000081526004016122fe91906143ec565b60405180910390fd5b5050565b6123158282611395565b6123e85760016007600084815260200190815260200160002060000160008373ffffffffffffffffffffffffffffffffffffffff1673ffffffffffffffffffffffffffffffffffffffff16815260200190815260200160002060006101000a81548160ff02191690831515021790555061238d612266565b73ffffffffffffffffffffffffffffffffffffffff168173ffffffffffffffffffffffffffffffffffffffff16837f2f8788117e7eff1d82e926ec794901d17c78024a50270940304540a733656f0d60405160405180910390a45b5050565b6123f68282611395565b156124ca5760006007600084815260200190815260200160002060000160008373ffffffffffffffffffffffffffffffffffffffff1673ffffffffffffffffffffffffffffffffffffffff16815260200190815260200160002060006101000a81548160ff02191690831515021790555061246f612266565b73ffffffffffffffffffffffffffffffffffffffff168173ffffffffffffffffffffffffffffffffffffffff16837ff6391f5c32d9c69d2a47ea670b442974b53935d1edc7fd64eb21e047a839171b60405160405180910390a45b5050565b6124d6612f82565b6124de612f82565b6124f58585858461278f909392919063ffffffff16565b9150509392505050565b606060008203612546576040518060400160405280600181526020017f3000000000000000000000000000000000000000000000000000000000000000815250905061265a565b600082905060005b6000821461257857808061256190613db9565b915050600a826125719190613d20565b915061254e565b60008167ffffffffffffffff8111156125945761259361355e565b5b6040519080825280601f01601f1916602001820160405280156125c65781602001600182028036833780820191505090505b5090505b60008514612653576001826125df9190613d85565b9150600a856125ee919061440e565b60306125fa9190613d51565b60f81b8183815181106126105761260f613f02565b5b60200101907effffffffffffffffffffffffffffffffffffffffffffffffffffffffffffff1916908160001a905350600a8561264c9190613d20565b94506125ca565b8093505050505b919050565b61267682846080015161283f90919063ffffffff16565b61268d81846080015161283f90919063ffffffff16565b505050565b60006126c1600360009054906101000a900473ffffffffffffffffffffffffffffffffffffffff168484612864565b905092915050565b6000600660009054906101000a900473ffffffffffffffffffffffffffffffffffffffff16905081600660006101000a81548173ffffffffffffffffffffffffffffffffffffffff021916908373ffffffffffffffffffffffffffffffffffffffff1602179055508173ffffffffffffffffffffffffffffffffffffffff168173ffffffffffffffffffffffffffffffffffffffff167f8be0079c531659141344cd1fd0a4f28419497f9722a3daafe3b4186f6b6457e060405160405180910390a35050565b612797612f82565b6127a78560800151610100612930565b508385600001818152505082856020019073ffffffffffffffffffffffffffffffffffffffff16908173ffffffffffffffffffffffffffffffffffffffff16815250508185604001907bffffffffffffffffffffffffffffffffffffffffffffffffffffffff191690817bffffffffffffffffffffffffffffffffffffffffffffffffffffffff191681525050849050949350505050565b61284c826003835161299a565b61285f8183612b1f90919063ffffffff16565b505050565b60008060045490506001816128799190613d51565b6004819055506000634042994660e01b60008087600001513089604001518760018c60800151600001516040516024016128ba9897969594939291906144a3565b604051602081830303815290604052907bffffffffffffffffffffffffffffffffffffffffffffffffffffffff19166020820180517bffffffffffffffffffffffffffffffffffffffffffffffffffffffff8381831617835250505050905061292586838684612b41565b925050509392505050565b612938612fef565b6000602083612947919061440e565b1461297357602082612959919061440e565b60206129659190613d85565b826129709190613d51565b91505b81836020018181525050604051808452600081528281016020016040525082905092915050565b60178167ffffffffffffffff16116129d1576129cb8160058460ff16901b60ff161784612cd690919063ffffffff16565b50612b1a565b60ff8167ffffffffffffffff1611612a2757612a00601860058460ff16901b1784612cd690919063ffffffff16565b50612a218167ffffffffffffffff16600185612cf69092919063ffffffff16565b50612b19565b61ffff8167ffffffffffffffff1611612a7e57612a57601960058460ff16901b1784612cd690919063ffffffff16565b50612a788167ffffffffffffffff16600285612cf69092919063ffffffff16565b50612b18565b63ffffffff8167ffffffffffffffff1611612ad757612ab0601a60058460ff16901b1784612cd690919063ffffffff16565b50612ad18167ffffffffffffffff16600485612cf69092919063ffffffff16565b50612b17565b612af4601b60058460ff16901b1784612cd690919063ffffffff16565b50612b158167ffffffffffffffff16600885612cf69092919063ffffffff16565b505b5b5b5b505050565b612b27612fef565b612b3983846000015151848551612d18565b905092915050565b60003084604051602001612b569291906145d7565b604051602081830303815290604052805190602001209050846005600083815260200190815260200160002060006101000a81548173ffffffffffffffffffffffffffffffffffffffff021916908373ffffffffffffffffffffffffffffffffffffffff160217905550807fb5e6e01e79f91267dc17b4e6314d5d4d03593d2ceee0fbb452b750bd70ea5af960405160405180910390a2600260009054906101000a900473ffffffffffffffffffffffffffffffffffffffff1673ffffffffffffffffffffffffffffffffffffffff16634000aea08685856040518463ffffffff1660e01b8152600401612c4c93929190614603565b6020604051808303816000875af1158015612c6b573d6000803e3d6000fd5b505050506040513d601f19601f82011682018060405250810190612c8f919061466d565b612cce576040517f08c379a0000000000000000000000000000000000000000000000000000000008152600401612cc59061470c565b60405180910390fd5b949350505050565b612cde612fef565b612cee8384600001515184612e07565b905092915050565b612cfe612fef565b612d0f848560000151518585612e5d565b90509392505050565b612d20612fef565b8251821115612d2e57600080fd5b84602001518285612d3f9190613d51565b1115612d7457612d73856002612d6488602001518887612d5f9190613d51565b612eeb565b612d6e9190613f31565b612f07565b5b600080865180518760208301019350808887011115612d935787860182525b60208701925050505b60208410612dda5780518252602082612db59190613d51565b9150602081612dc49190613d51565b9050602084612dd39190613d85565b9350612d9c565b60006001856020036101000a03905080198251168184511681811785525050508692505050949350505050565b612e0f612fef565b83602001518310612e3557612e348460028660200151612e2f9190613f31565b612f07565b5b83518051602085830101848153818603612e50576001820183525b5050508390509392505050565b612e65612fef565b84602001518483612e769190613d51565b1115612e9e57612e9d8560028685612e8e9190613d51565b612e989190613f31565b612f07565b5b6000600183610100612eb0919061485f565b612eba9190613d85565b90508551838682010185831982511617815281518588011115612edd5784870182525b505085915050949350505050565b600081831115612efd57829050612f01565b8190505b92915050565b600082600001519050612f1a8383612930565b50612f258382612b1f565b50505050565b6040518060e00160405280600073ffffffffffffffffffffffffffffffffffffffff168152602001600081526020016000815260200160008152602001600081526020016000151581526020016000151581525090565b6040518060a0016040528060008019168152602001600073ffffffffffffffffffffffffffffffffffffffff16815260200160007bffffffffffffffffffffffffffffffffffffffffffffffffffffffff1916815260200160008152602001612fe9612fef565b81525090565b604051806040016040528060608152602001600081525090565b6000604051905090565b600080fd5b600080fd5b60007fffffffff0000000000000000000000000000000000000000000000000000000082169050919050565b6130528161301d565b811461305d57600080fd5b50565b60008135905061306f81613049565b92915050565b60006020828403121561308b5761308a613013565b5b600061309984828501613060565b91505092915050565b60008115159050919050565b6130b7816130a2565b82525050565b60006020820190506130d260008301846130ae565b92915050565b6000819050919050565b6130eb816130d8565b81146130f657600080fd5b50565b600081359050613108816130e2565b92915050565b60006020828403121561312457613123613013565b5b6000613132848285016130f9565b91505092915050565b600081519050919050565b600082825260208201905092915050565b60005b8381101561317557808201518184015260208101905061315a565b60008484015250505050565b6000601f19601f8301169050919050565b600061319d8261313b565b6131a78185613146565b93506131b7818560208601613157565b6131c081613181565b840191505092915050565b6131d4816130d8565b82525050565b60006101208201905081810360008301526131f5818c613192565b90508181036020830152613209818b613192565b9050613218604083018a6131cb565b61322560608301896131cb565b61323260808301886131cb565b61323f60a08301876130ae565b61324c60c08301866131cb565b61325960e08301856131cb565b6132676101008301846131cb565b9a9950505050505050505050565b6000819050919050565b61328881613275565b82525050565b60006020820190506132a3600083018461327f565b92915050565b6132b281613275565b81146132bd57600080fd5b50565b6000813590506132cf816132a9565b92915050565b6000602082840312156132eb576132ea613013565b5b60006132f9848285016132c0565b91505092915050565b600073ffffffffffffffffffffffffffffffffffffffff82169050919050565b600061332d82613302565b9050919050565b61333d81613322565b811461334857600080fd5b50565b60008135905061335a81613334565b92915050565b6000806040838503121561337757613376613013565b5b6000613385858286016132c0565b92505060206133968582860161334b565b9150509250929050565b600080604083850312156133b7576133b6613013565b5b60006133c5858286016130f9565b92505060206133d6858286016130f9565b9150509250929050565b6133e981613322565b82525050565b600060e082019050613404600083018a6133e0565b61341160208301896131cb565b61341e60408301886131cb565b61342b60608301876131cb565b61343860808301866131cb565b61344560a08301856130ae565b61345260c08301846130ae565b98975050505050505050565b6000806040838503121561347557613474613013565b5b6000613483858286016132c0565b9250506020613494858286016130f9565b9150509250929050565b60006020820190506134b360008301846131cb565b92915050565b6000806000606084860312156134d2576134d1613013565b5b60006134e0868287016130f9565b93505060206134f1868287016130f9565b9250506040613502868287016130f9565b9150509250925092565b600060208201905061352160008301846133e0565b92915050565b60006020828403121561353d5761353c613013565b5b600061354b8482850161334b565b91505092915050565b600080fd5b600080fd5b7f4e487b7100000000000000000000000000000000000000000000000000000000600052604160045260246000fd5b61359682613181565b810181811067ffffffffffffffff821117156135b5576135b461355e565b5b80604052505050565b60006135c8613009565b90506135d4828261358d565b919050565b600067ffffffffffffffff8211156135f4576135f361355e565b5b6135fd82613181565b9050602081019050919050565b82818337600083830152505050565b600061362c613627846135d9565b6135be565b90508281526020810184848401111561364857613647613559565b5b61365384828561360a565b509392505050565b600082601f8301126136705761366f613554565b5b8135613680848260208601613619565b91505092915050565b6000806000606084860312156136a2576136a1613013565b5b600084013567ffffffffffffffff8111156136c0576136bf613018565b5b6136cc8682870161365b565b935050602084013567ffffffffffffffff8111156136ed576136ec613018565b5b6136f98682870161365b565b925050604061370a868287016130f9565b9150509250925092565b60006020828403121561372a57613729613013565b5b600082013567ffffffffffffffff81111561374857613747613018565b5b6137548482850161365b565b91505092915050565b600061376882613302565b9050919050565b6137788161375d565b811461378357600080fd5b50565b6000813590506137958161376f565b92915050565b600080604083850312156137b2576137b1613013565b5b60006137c0858286016130f9565b92505060206137d185828601613786565b9150509250929050565b7f4e487b7100000000000000000000000000000000000000000000000000000000600052602260045260246000fd5b6000600282049050600182168061382257607f821691505b602082108103613835576138346137db565b5b50919050565b7f416363657373436f6e74726f6c3a2063616e206f6e6c792072656e6f756e636560008201527f20726f6c657320666f722073656c660000000000000000000000000000000000602082015250565b6000613897602f83613146565b91506138a28261383b565b604082019050919050565b600060208201905081810360008301526138c68161388a565b9050919050565b7f536f75726365206d75737420626520746865206f7261636c65206f662074686560008201527f2072657175657374000000000000000000000000000000000000000000000000602082015250565b6000613929602883613146565b9150613934826138cd565b604082019050919050565b600060208201905081810360008301526139588161391c565b9050919050565b7f49535f4e4f545f41444d494e0000000000000000000000000000000000000000600082015250565b6000613995600c83613146565b91506139a08261395f565b602082019050919050565b600060208201905081810360008301526139c481613988565b9050919050565b600081905092915050565b60008190508160005260206000209050919050565b600081546139f88161380a565b613a0281866139cb565b94506001821660008114613a1d5760018114613a3257613a65565b60ff1983168652811515820286019350613a65565b613a3b856139d6565b60005b83811015613a5d57815481890152600182019150602081019050613a3e565b838801955050505b50505092915050565b6000613a798261313b565b613a8381856139cb565b9350613a93818560208601613157565b80840191505092915050565b6000613aab82856139eb565b9150613ab78284613a6e565b91508190509392505050565b6000604082019050613ad8600083018561327f565b613ae560208301846131cb565b9392505050565b7f4f776e61626c653a2063616c6c6572206973206e6f7420746865206f776e6572600082015250565b6000613b22602083613146565b9150613b2d82613aec565b602082019050919050565b60006020820190508181036000830152613b5181613b15565b9050919050565b7f496e76616c69642067616d652049440000000000000000000000000000000000600082015250565b6000613b8e600f83613146565b9150613b9982613b58565b602082019050919050565b60006020820190508181036000830152613bbd81613b81565b9050919050565b7f42657420616d6f756e74206d7573742062652067726561746572207468616e2060008201527f7a65726f00000000000000000000000000000000000000000000000000000000602082015250565b6000613c20602483613146565b9150613c2b82613bc4565b604082019050919050565b60006020820190508181036000830152613c4f81613c13565b9050919050565b7f47616d652068617320616c726561647920636f6d706c65746564000000000000600082015250565b6000613c8c601a83613146565b9150613c9782613c56565b602082019050919050565b60006020820190508181036000830152613cbb81613c7f565b9050919050565b7f4e487b7100000000000000000000000000000000000000000000000000000000600052601260045260246000fd5b7f4e487b7100000000000000000000000000000000000000000000000000000000600052601160045260246000fd5b6000613d2b826130d8565b9150613d36836130d8565b925082613d4657613d45613cc2565b5b828204905092915050565b6000613d5c826130d8565b9150613d67836130d8565b9250828201905080821115613d7f57613d7e613cf1565b5b92915050565b6000613d90826130d8565b9150613d9b836130d8565b9250828203905081811115613db357613db2613cf1565b5b92915050565b6000613dc4826130d8565b91507fffffffffffffffffffffffffffffffffffffffffffffffffffffffffffffffff8203613df657613df5613cf1565b5b600182019050919050565b6000604082019050613e1660008301856131cb565b613e2360208301846131cb565b9392505050565b7f49535f4e4f545f52454c41594552000000000000000000000000000000000000600082015250565b6000613e60600e83613146565b9150613e6b82613e2a565b602082019050919050565b60006020820190508181036000830152613e8f81613e53565b9050919050565b7f49535f4e4f545f4d4f445f4f525f41444d494e00000000000000000000000000600082015250565b6000613ecc601383613146565b9150613ed782613e96565b602082019050919050565b60006020820190508181036000830152613efb81613ebf565b9050919050565b7f4e487b7100000000000000000000000000000000000000000000000000000000600052603260045260246000fd5b6000613f3c826130d8565b9150613f47836130d8565b9250828202613f55816130d8565b91508282048414831517613f6c57613f6b613cf1565b5b5092915050565b60006020601f8301049050919050565b600082821b905092915050565b600060088302613fc07fffffffffffffffffffffffffffffffffffffffffffffffffffffffffffffffff82613f83565b613fca8683613f83565b95508019841693508086168417925050509392505050565b6000819050919050565b6000614007614002613ffd846130d8565b613fe2565b6130d8565b9050919050565b6000819050919050565b61402183613fec565b61403561402d8261400e565b848454613f90565b825550505050565b600090565b61404a61403d565b614055818484614018565b505050565b5b818110156140795761406e600082614042565b60018101905061405b565b5050565b601f8211156140be5761408f816139d6565b61409884613f73565b810160208510156140a7578190505b6140bb6140b385613f73565b83018261405a565b50505b505050565b600082821c905092915050565b60006140e1600019846008026140c3565b1980831691505092915050565b60006140fa83836140d0565b9150826002028217905092915050565b6141138261313b565b67ffffffffffffffff81111561412c5761412b61355e565b5b614136825461380a565b61414182828561407d565b600060209050601f8311600181146141745760008415614162578287015190505b61416c85826140ee565b8655506141d4565b601f198416614182866139d6565b60005b828110156141aa57848901518255600182019150602085019450602081019050614185565b868310156141c757848901516141c3601f8916826140d0565b8355505b6001600288020188555050505b505050505050565b60006141e88284613a6e565b915081905092915050565b7f4f776e61626c653a206e6577206f776e657220697320746865207a65726f206160008201527f6464726573730000000000000000000000000000000000000000000000000000602082015250565b600061424f602683613146565b915061425a826141f3565b604082019050919050565b6000602082019050818103600083015261427e81614242565b9050919050565b6000614290826130d8565b9150600082036142a3576142a2613cf1565b5b600182039050919050565b7f537472696e67733a20686578206c656e67746820696e73756666696369656e74600082015250565b60006142e4602083613146565b91506142ef826142ae565b602082019050919050565b60006020820190508181036000830152614313816142d7565b9050919050565b7f416363657373436f6e74726f6c3a206163636f756e7420000000000000000000600082015250565b60006143506017836139cb565b915061435b8261431a565b601782019050919050565b7f206973206d697373696e6720726f6c6520000000000000000000000000000000600082015250565b600061439c6011836139cb565b91506143a782614366565b601182019050919050565b60006143bd82614343565b91506143c98285613a6e565b91506143d48261438f565b91506143e08284613a6e565b91508190509392505050565b600060208201905081810360008301526144068184613192565b905092915050565b6000614419826130d8565b9150614424836130d8565b92508261443457614433613cc2565b5b828206905092915050565b6144488161301d565b82525050565b600081519050919050565b600082825260208201905092915050565b60006144758261444e565b61447f8185614459565b935061448f818560208601613157565b61449881613181565b840191505092915050565b6000610100820190506144b9600083018b6133e0565b6144c6602083018a6131cb565b6144d3604083018961327f565b6144e060608301886133e0565b6144ed608083018761443f565b6144fa60a08301866131cb565b61450760c08301856131cb565b81810360e0830152614519818461446a565b90509998505050505050505050565b600061454361453e61453984613302565b613fe2565b613302565b9050919050565b600061455582614528565b9050919050565b60006145678261454a565b9050919050565b60008160601b9050919050565b60006145868261456e565b9050919050565b60006145988261457b565b9050919050565b6145b06145ab8261455c565b61458d565b82525050565b6000819050919050565b6145d16145cc826130d8565b6145b6565b82525050565b60006145e3828561459f565b6014820191506145f382846145c0565b6020820191508190509392505050565b600060608201905061461860008301866133e0565b61462560208301856131cb565b8181036040830152614637818461446a565b9050949350505050565b61464a816130a2565b811461465557600080fd5b50565b60008151905061466781614641565b92915050565b60006020828403121561468357614682613013565b5b600061469184828501614658565b91505092915050565b7f756e61626c6520746f207472616e73666572416e6443616c6c20746f206f726160008201527f636c650000000000000000000000000000000000000000000000000000000000602082015250565b60006146f6602383613146565b91506147018261469a565b604082019050919050565b60006020820190508181036000830152614725816146e9565b9050919050565b60008160011c9050919050565b6000808291508390505b60018511156147835780860481111561475f5761475e613cf1565b5b600185161561476e5780820291505b808102905061477c8561472c565b9450614743565b94509492505050565b60008261479c5760019050614858565b816147aa5760009050614858565b81600181146147c057600281146147ca576147f9565b6001915050614858565b60ff8411156147dc576147db613cf1565b5b8360020a9150848211156147f3576147f2613cf1565b5b50614858565b5060208310610133831016604e8410600b841016171561482e5782820a90508381111561482957614828613cf1565b5b614858565b61483b8484846001614739565b9250905081840481111561485257614851613cf1565b5b81810290505b9392505050565b600061486a826130d8565b9150614875836130d8565b92506148a27fffffffffffffffffffffffffffffffffffffffffffffffffffffffffffffffff848461478c565b90509291505056fea2646970667358221220718e1ea1d8e96880aa92faaa7c8edfc4d30cfcf964ede88fd6be2746f9e9039764736f6c63430008110033",
  "linkReferences": {},
  "deployedLinkReferences": {}
}