{"contracts/Sports.sol":{"Sports":{"abi":[{"inputs":[{"internalType":"address","name":"_chainlinkToken","type":"address"},{"internalType":"address","name":"_chainlinkOracle","type":"address"},{"internalType":"bytes32","name":"_jobId","type":"bytes32"},{"internalType":"address","name":"_relayer","type":"address"},{"internalType":"address[]","name":"_mods","type":"address[]"},{"internalType":"address[]","name":"_admins","type":"address[]"},{"internalType":"string","name":"_numbersAPI","type":"string"},{"internalType":"string","name":"_gamesAPI","type":"string"}],"stateMutability":"nonpayable","type":"constructor"},{"anonymous":false,"inputs":[{"indexed":true,"internalType":"uint256","name":"_gameId","type":"uint256"},{"indexed":false,"internalType":"uint256","name":"_homeScore","type":"uint256"},{"indexed":false,"internalType":"uint256","name":"_awayScore","type":"uint256"}],"name":"BetCreated","type":"event"},{"anonymous":false,"inputs":[{"indexed":true,"internalType":"bytes32","name":"id","type":"bytes32"}],"name":"ChainlinkCancelled","type":"event"},{"anonymous":false,"inputs":[{"indexed":true,"internalType":"bytes32","name":"id","type":"bytes32"}],"name":"ChainlinkFulfilled","type":"event"},{"anonymous":false,"inputs":[{"indexed":true,"internalType":"bytes32","name":"id","type":"bytes32"}],"name":"ChainlinkRequested","type":"event"},{"anonymous":false,"inputs":[{"indexed":false,"internalType":"uint256","name":"_gameTime","type":"uint256"},{"indexed":true,"internalType":"string","name":"_homeTeam","type":"string"},{"indexed":true,"internalType":"string","name":"_awayTeam","type":"string"}],"name":"GameCreated","type":"event"},{"anonymous":false,"inputs":[{"indexed":true,"internalType":"address","name":"previousOwner","type":"address"},{"indexed":true,"internalType":"address","name":"newOwner","type":"address"}],"name":"OwnershipTransferred","type":"event"},{"anonymous":false,"inputs":[{"indexed":false,"internalType":"uint256","name":"print","type":"uint256"}],"name":"Print","type":"event"},{"anonymous":false,"inputs":[{"indexed":false,"internalType":"bytes32","name":"requestId","type":"bytes32"},{"indexed":false,"internalType":"uint256","name":"random","type":"uint256"}],"name":"RequestFulfilled","type":"event"},{"anonymous":false,"inputs":[{"indexed":true,"internalType":"bytes32","name":"requestId","type":"bytes32"},{"indexed":false,"internalType":"uint256","name":"number","type":"uint256"}],"name":"RequestNumber","type":"event"},{"anonymous":false,"inputs":[{"indexed":false,"internalType":"uint256","name":"requestId","type":"uint256"},{"indexed":false,"internalType":"uint32","name":"numWords","type":"uint32"}],"name":"RequestSent","type":"event"},{"anonymous":false,"inputs":[{"indexed":true,"internalType":"bytes32","name":"role","type":"bytes32"},{"indexed":true,"internalType":"bytes32","name":"previousAdminRole","type":"bytes32"},{"indexed":true,"internalType":"bytes32","name":"newAdminRole","type":"bytes32"}],"name":"RoleAdminChanged","type":"event"},{"anonymous":false,"inputs":[{"indexed":true,"internalType":"bytes32","name":"role","type":"bytes32"},{"indexed":true,"internalType":"address","name":"account","type":"address"},{"indexed":true,"internalType":"address","name":"sender","type":"address"}],"name":"RoleGranted","type":"event"},{"anonymous":false,"inputs":[{"indexed":true,"internalType":"bytes32","name":"role","type":"bytes32"},{"indexed":true,"internalType":"address","name":"account","type":"address"},{"indexed":true,"internalType":"address","name":"sender","type":"address"}],"name":"RoleRevoked","type":"event"},{"inputs":[],"name":"ADMIN_ROLE","outputs":[{"internalType":"bytes32","name":"","type":"bytes32"}],"stateMutability":"view","type":"function"},{"inputs":[],"name":"DEFAULT_ADMIN_ROLE","outputs":[{"internalType":"bytes32","name":"","type":"bytes32"}],"stateMutability":"view","type":"function"},{"inputs":[],"name":"MOD_ROLE","outputs":[{"internalType":"bytes32","name":"","type":"bytes32"}],"stateMutability":"view","type":"function"},{"inputs":[],"name":"RELAYER","outputs":[{"internalType":"bytes32","name":"","type":"bytes32"}],"stateMutability":"view","type":"function"},{"inputs":[{"internalType":"string","name":"_homeTeam","type":"string"},{"internalType":"string","name":"_awayTeam","type":"string"},{"internalType":"uint256","name":"_gameTime","type":"uint256"}],"name":"addGame","outputs":[],"stateMutability":"nonpayable","type":"function"},{"inputs":[{"internalType":"bytes32","name":"_requestId","type":"bytes32"},{"internalType":"uint256","name":"_number","type":"uint256"}],"name":"apiCall","outputs":[],"stateMutability":"nonpayable","type":"function"},{"inputs":[{"internalType":"uint256","name":"","type":"uint256"},{"internalType":"uint256","name":"","type":"uint256"}],"name":"betsByGame","outputs":[{"internalType":"address","name":"user","type":"address"},{"internalType":"uint256","name":"gameId","type":"uint256"},{"internalType":"uint256","name":"amount","type":"uint256"},{"internalType":"uint256","name":"homeScore","type":"uint256"},{"internalType":"uint256","name":"awayScore","type":"uint256"},{"internalType":"bool","name":"betWon","type":"bool"},{"internalType":"bool","name":"betCompleted","type":"bool"}],"stateMutability":"view","type":"function"},{"inputs":[{"internalType":"bytes32","name":"_requestId","type":"bytes32"},{"internalType":"uint256","name":"_number","type":"uint256"}],"name":"fulfill","outputs":[],"stateMutability":"nonpayable","type":"function"},{"inputs":[],"name":"gameCount","outputs":[{"internalType":"uint256","name":"","type":"uint256"}],"stateMutability":"view","type":"function"},{"inputs":[{"internalType":"uint256","name":"","type":"uint256"}],"name":"games","outputs":[{"internalType":"string","name":"homeTeam","type":"string"},{"internalType":"string","name":"awayTeam","type":"string"},{"internalType":"uint256","name":"gameTime","type":"uint256"},{"internalType":"uint256","name":"homeScore","type":"uint256"},{"internalType":"uint256","name":"awayScore","type":"uint256"},{"internalType":"bool","name":"gameCompleted","type":"bool"},{"internalType":"uint256","name":"lotteryPool","type":"uint256"},{"internalType":"uint256","name":"betsCount","type":"uint256"},{"internalType":"uint256","name":"betsAmount","type":"uint256"}],"stateMutability":"view","type":"function"},{"inputs":[{"internalType":"bytes32","name":"role","type":"bytes32"}],"name":"getRoleAdmin","outputs":[{"internalType":"bytes32","name":"","type":"bytes32"}],"stateMutability":"view","type":"function"},{"inputs":[{"internalType":"bytes32","name":"role","type":"bytes32"},{"internalType":"address","name":"account","type":"address"}],"name":"grantRole","outputs":[],"stateMutability":"nonpayable","type":"function"},{"inputs":[{"internalType":"bytes32","name":"role","type":"bytes32"},{"internalType":"address","name":"account","type":"address"}],"name":"hasRole","outputs":[{"internalType":"bool","name":"","type":"bool"}],"stateMutability":"view","type":"function"},{"inputs":[],"name":"lastNumber","outputs":[{"internalType":"uint256","name":"","type":"uint256"}],"stateMutability":"view","type":"function"},{"inputs":[{"internalType":"uint256","name":"_gameId","type":"uint256"},{"internalType":"uint256","name":"_homeScore","type":"uint256"},{"internalType":"uint256","name":"_awayScore","type":"uint256"}],"name":"makeBet","outputs":[],"stateMutability":"payable","type":"function"},{"inputs":[],"name":"owner","outputs":[{"internalType":"address","name":"","type":"address"}],"stateMutability":"view","type":"function"},{"inputs":[],"name":"renounceOwnership","outputs":[],"stateMutability":"nonpayable","type":"function"},{"inputs":[{"internalType":"bytes32","name":"role","type":"bytes32"},{"internalType":"address","name":"account","type":"address"}],"name":"renounceRole","outputs":[],"stateMutability":"nonpayable","type":"function"},{"inputs":[{"internalType":"bytes32","name":"role","type":"bytes32"},{"internalType":"address","name":"account","type":"address"}],"name":"revokeRole","outputs":[],"stateMutability":"nonpayable","type":"function"},{"inputs":[{"internalType":"uint256","name":"loosersQt","type":"uint256"}],"name":"selectLotteryWinner","outputs":[{"internalType":"uint256","name":"","type":"uint256"}],"stateMutability":"nonpayable","type":"function"},{"inputs":[{"internalType":"bytes4","name":"interfaceId","type":"bytes4"}],"name":"supportsInterface","outputs":[{"internalType":"bool","name":"","type":"bool"}],"stateMutability":"view","type":"function"},{"inputs":[{"internalType":"uint256","name":"_amount","type":"uint256"},{"internalType":"address payable","name":"destination","type":"address"}],"name":"transferFunds","outputs":[],"stateMutability":"nonpayable","type":"function"},{"inputs":[{"internalType":"address","name":"newOwner","type":"address"}],"name":"transferOwnership","outputs":[],"stateMutability":"nonpayable","type":"function"},{"inputs":[{"internalType":"bytes32","name":"_newJobId","type":"bytes32"}],"name":"updateChainlinkJobId","outputs":[],"stateMutability":"nonpayable","type":"function"},{"inputs":[],"name":"updateDashboard","outputs":[],"stateMutability":"nonpayable","type":"function"},{"inputs":[{"internalType":"uint256","name":"_gameId","type":"uint256"},{"internalType":"uint256","name":"_homeScore","type":"uint256"},{"internalType":"uint256","name":"_awayScore","type":"uint256"}],"name":"updateGameScore","outputs":[],"stateMutability":"nonpayable","type":"function"},{"inputs":[{"internalType":"string","name":"_newUrl","type":"string"}],"name":"updateNumberAPI","outputs":[],"stateMutability":"nonpayable","type":"function"},{"inputs":[{"internalType":"address","name":"_newRelayer","type":"address"}],"name":"updateRelayer","outputs":[],"stateMutability":"nonpayable","type":"function"}],"evm":{"bytecode":{"linkReferences":{},"object":"608060405260016004553480156200001657600080fd5b5060405162005c7838038062005c7883398181016040528101906200003c919062000b3f565b6200005c62000050620001f660201b60201c565b620001fe60201b60201c565b60005b8451811015620000cc57620000b87f950b8f2d7415defaee398bb4898e8e094a64c725873b81952b7ab9f08d70efb3868381518110620000a457620000a362000c84565b5b6020026020010151620002c460201b60201c565b80620000c49062000cec565b90506200005f565b5060005b83518110156200013d57620001297fa49807205ce4d355092ef5a8a18f56e8913cf4a201fbe287825b095693c2177585838151811062000115576200011462000c84565b5b6020026020010151620002c460201b60201c565b80620001359062000cec565b9050620000d0565b50620001707fab4f864e5201b0fde9b5ee3e4cf96384802b0ffdfcf7f9de4699ce21a30afc4f86620002c460201b60201c565b81600b908162000181919062000f7a565b5080600c908162000193919062000f7a565b50620001a5886200030d60201b60201c565b620001b6876200035160201b60201c565b85600d81905550600a670de0b6b3a76400006001620001d6919062001061565b620001e29190620010db565b600e81905550505050505050505062001388565b600033905090565b6000600660009054906101000a900473ffffffffffffffffffffffffffffffffffffffff16905081600660006101000a81548173ffffffffffffffffffffffffffffffffffffffff021916908373ffffffffffffffffffffffffffffffffffffffff1602179055508173ffffffffffffffffffffffffffffffffffffffff168173ffffffffffffffffffffffffffffffffffffffff167f8be0079c531659141344cd1fd0a4f28419497f9722a3daafe3b4186f6b6457e060405160405180910390a35050565b620002d5826200039560201b60201c565b620002f681620002ea620001f660201b60201c565b620003b560201b60201c565b6200030883836200047960201b60201c565b505050565b80600260006101000a81548173ffffffffffffffffffffffffffffffffffffffff021916908373ffffffffffffffffffffffffffffffffffffffff16021790555050565b80600360006101000a81548173ffffffffffffffffffffffffffffffffffffffff021916908373ffffffffffffffffffffffffffffffffffffffff16021790555050565b600060076000838152602001908152602001600020600101549050919050565b620003c782826200056b60201b60201c565b6200047557620003fa8173ffffffffffffffffffffffffffffffffffffffff166014620005d660201b62001fc01760201c565b620004158360001c6020620005d660201b62001fc01760201c565b60405160200162000428929190620011f5565b6040516020818303038152906040526040517f08c379a00000000000000000000000000000000000000000000000000000000081526004016200046c919062001289565b60405180910390fd5b5050565b6200048b82826200056b60201b60201c565b620005675760016007600084815260200190815260200160002060000160008373ffffffffffffffffffffffffffffffffffffffff1673ffffffffffffffffffffffffffffffffffffffff16815260200190815260200160002060006101000a81548160ff0219169083151502179055506200050c620001f660201b60201c565b73ffffffffffffffffffffffffffffffffffffffff168173ffffffffffffffffffffffffffffffffffffffff16837f2f8788117e7eff1d82e926ec794901d17c78024a50270940304540a733656f0d60405160405180910390a45b5050565b60006007600084815260200190815260200160002060000160008373ffffffffffffffffffffffffffffffffffffffff1673ffffffffffffffffffffffffffffffffffffffff16815260200190815260200160002060009054906101000a900460ff16905092915050565b606060006002836002620005eb919062001061565b620005f79190620012ad565b67ffffffffffffffff811115620006135762000612620008fb565b5b6040519080825280601f01601f191660200182016040528015620006465781602001600182028036833780820191505090505b5090507f30000000000000000000000000000000000000000000000000000000000000008160008151811062000681576200068062000c84565b5b60200101907effffffffffffffffffffffffffffffffffffffffffffffffffffffffffffff1916908160001a9053507f780000000000000000000000000000000000000000000000000000000000000081600181518110620006e857620006e762000c84565b5b60200101907effffffffffffffffffffffffffffffffffffffffffffffffffffffffffffff1916908160001a905350600060018460026200072a919062001061565b620007369190620012ad565b90505b6001811115620007e0577f3031323334353637383961626364656600000000000000000000000000000000600f8616601081106200077c576200077b62000c84565b5b1a60f81b82828151811062000796576200079562000c84565b5b60200101907effffffffffffffffffffffffffffffffffffffffffffffffffffffffffffff1916908160001a905350600485901c945080620007d890620012e8565b905062000739565b506000841462000827576040517f08c379a00000000000000000000000000000000000000000000000000000000081526004016200081e9062001366565b60405180910390fd5b8091505092915050565b6000604051905090565b600080fd5b600080fd5b600073ffffffffffffffffffffffffffffffffffffffff82169050919050565b6000620008728262000845565b9050919050565b620008848162000865565b81146200089057600080fd5b50565b600081519050620008a48162000879565b92915050565b6000819050919050565b620008bf81620008aa565b8114620008cb57600080fd5b50565b600081519050620008df81620008b4565b92915050565b600080fd5b6000601f19601f8301169050919050565b7f4e487b7100000000000000000000000000000000000000000000000000000000600052604160045260246000fd5b6200093582620008ea565b810181811067ffffffffffffffff82111715620009575762000956620008fb565b5b80604052505050565b60006200096c62000831565b90506200097a82826200092a565b919050565b600067ffffffffffffffff8211156200099d576200099c620008fb565b5b602082029050602081019050919050565b600080fd5b6000620009ca620009c4846200097f565b62000960565b90508083825260208201905060208402830185811115620009f057620009ef620009ae565b5b835b8181101562000a1d578062000a08888262000893565b845260208401935050602081019050620009f2565b5050509392505050565b600082601f83011262000a3f5762000a3e620008e5565b5b815162000a51848260208601620009b3565b91505092915050565b600080fd5b600067ffffffffffffffff82111562000a7d5762000a7c620008fb565b5b62000a8882620008ea565b9050602081019050919050565b60005b8381101562000ab557808201518184015260208101905062000a98565b60008484015250505050565b600062000ad862000ad28462000a5f565b62000960565b90508281526020810184848401111562000af75762000af662000a5a565b5b62000b0484828562000a95565b509392505050565b600082601f83011262000b245762000b23620008e5565b5b815162000b3684826020860162000ac1565b91505092915050565b600080600080600080600080610100898b03121562000b635762000b626200083b565b5b600062000b738b828c0162000893565b985050602062000b868b828c0162000893565b975050604062000b998b828c01620008ce565b965050606062000bac8b828c0162000893565b955050608089015167ffffffffffffffff81111562000bd05762000bcf62000840565b5b62000bde8b828c0162000a27565b94505060a089015167ffffffffffffffff81111562000c025762000c0162000840565b5b62000c108b828c0162000a27565b93505060c089015167ffffffffffffffff81111562000c345762000c3362000840565b5b62000c428b828c0162000b0c565b92505060e089015167ffffffffffffffff81111562000c665762000c6562000840565b5b62000c748b828c0162000b0c565b9150509295985092959890939650565b7f4e487b7100000000000000000000000000000000000000000000000000000000600052603260045260246000fd5b7f4e487b7100000000000000000000000000000000000000000000000000000000600052601160045260246000fd5b6000819050919050565b600062000cf98262000ce2565b91507fffffffffffffffffffffffffffffffffffffffffffffffffffffffffffffffff820362000d2e5762000d2d62000cb3565b5b600182019050919050565b600081519050919050565b7f4e487b7100000000000000000000000000000000000000000000000000000000600052602260045260246000fd5b6000600282049050600182168062000d8c57607f821691505b60208210810362000da25762000da162000d44565b5b50919050565b60008190508160005260206000209050919050565b60006020601f8301049050919050565b600082821b905092915050565b60006008830262000e0c7fffffffffffffffffffffffffffffffffffffffffffffffffffffffffffffffff8262000dcd565b62000e18868362000dcd565b95508019841693508086168417925050509392505050565b6000819050919050565b600062000e5b62000e5562000e4f8462000ce2565b62000e30565b62000ce2565b9050919050565b6000819050919050565b62000e778362000e3a565b62000e8f62000e868262000e62565b84845462000dda565b825550505050565b600090565b62000ea662000e97565b62000eb381848462000e6c565b505050565b5b8181101562000edb5762000ecf60008262000e9c565b60018101905062000eb9565b5050565b601f82111562000f2a5762000ef48162000da8565b62000eff8462000dbd565b8101602085101562000f0f578190505b62000f2762000f1e8562000dbd565b83018262000eb8565b50505b505050565b600082821c905092915050565b600062000f4f6000198460080262000f2f565b1980831691505092915050565b600062000f6a838362000f3c565b9150826002028217905092915050565b62000f858262000d39565b67ffffffffffffffff81111562000fa15762000fa0620008fb565b5b62000fad825462000d73565b62000fba82828562000edf565b600060209050601f83116001811462000ff2576000841562000fdd578287015190505b62000fe9858262000f5c565b86555062001059565b601f198416620010028662000da8565b60005b828110156200102c5784890151825560018201915060208501945060208101905062001005565b868310156200104c578489015162001048601f89168262000f3c565b8355505b6001600288020188555050505b505050505050565b60006200106e8262000ce2565b91506200107b8362000ce2565b92508282026200108b8162000ce2565b91508282048414831517620010a557620010a462000cb3565b5b5092915050565b7f4e487b7100000000000000000000000000000000000000000000000000000000600052601260045260246000fd5b6000620010e88262000ce2565b9150620010f58362000ce2565b925082620011085762001107620010ac565b5b828204905092915050565b600081905092915050565b7f416363657373436f6e74726f6c3a206163636f756e7420000000000000000000600082015250565b60006200115660178362001113565b915062001163826200111e565b601782019050919050565b60006200117b8262000d39565b62001187818562001113565b93506200119981856020860162000a95565b80840191505092915050565b7f206973206d697373696e6720726f6c6520000000000000000000000000000000600082015250565b6000620011dd60118362001113565b9150620011ea82620011a5565b601182019050919050565b6000620012028262001147565b91506200121082856200116e565b91506200121d82620011ce565b91506200122b82846200116e565b91508190509392505050565b600082825260208201905092915050565b6000620012558262000d39565b62001261818562001237565b93506200127381856020860162000a95565b6200127e81620008ea565b840191505092915050565b60006020820190508181036000830152620012a5818462001248565b905092915050565b6000620012ba8262000ce2565b9150620012c78362000ce2565b9250828201905080821115620012e257620012e162000cb3565b5b92915050565b6000620012f58262000ce2565b9150600082036200130b576200130a62000cb3565b5b600182039050919050565b7f537472696e67733a20686578206c656e67746820696e73756666696369656e74600082015250565b60006200134e60208362001237565b91506200135b8262001316565b602082019050919050565b6000602082019050818103600083015262001381816200133f565b9050919050565b6148e080620013986000396000f3fe6080604052600436106101b75760003560e01c80637d807730116100ec578063a5c86b771161008a578063d547741f11610064578063d547741f146105f5578063e932406f1461061e578063f08e362f14610649578063f2fde38b14610672576101b7565b8063a5c86b7714610578578063b3db9f1a146105a1578063bfd5c6df146105cc576101b7565b80638f83ab13116100c65780638f83ab13146104be57806391d14854146104e7578063a094959514610524578063a217fddf1461054d576101b7565b80637d807730146104535780638b4ac6391461046a5780638da5cb5b14610493576101b7565b80634357855e1161015957806355fb9d081161013357806355fb9d08146103b8578063715018a6146103f557806375b238fc1461040c578063779a361114610437576101b7565b80634357855e1461033b5780634d1975b4146103645780634eca519f1461038f576101b7565b8063248a9ca311610195578063248a9ca3146102695780632f2ff15d146102a657806336568abe146102cf5780633b6e6f1b146102f8576101b7565b806301ffc9a7146101bc578063117a5b90146101f95780632483e7151461023e575b600080fd5b3480156101c857600080fd5b506101e360048036038101906101de9190613075565b61069b565b6040516101f091906130bd565b60405180910390f35b34801561020557600080fd5b50610220600480360381019061021b919061310e565b610715565b604051610235999897969594939291906131da565b60405180910390f35b34801561024a57600080fd5b50610253610880565b604051610260919061328e565b60405180910390f35b34801561027557600080fd5b50610290600480360381019061028b91906132d5565b6108a4565b60405161029d919061328e565b60405180910390f35b3480156102b257600080fd5b506102cd60048036038101906102c89190613360565b6108c4565b005b3480156102db57600080fd5b506102f660048036038101906102f19190613360565b6108ed565b005b34801561030457600080fd5b5061031f600480360381019061031a91906133a0565b610970565b60405161033297969594939291906133ef565b60405180910390f35b34801561034757600080fd5b50610362600480360381019061035d919061345e565b6109f9565b005b34801561037057600080fd5b50610379610b42565b604051610386919061349e565b60405180910390f35b34801561039b57600080fd5b506103b660048036038101906103b191906132d5565b610b48565b005b3480156103c457600080fd5b506103df60048036038101906103da919061310e565b610bf8565b6040516103ec919061349e565b60405180910390f35b34801561040157600080fd5b5061040a610d3f565b005b34801561041857600080fd5b50610421610dc7565b60405161042e919061328e565b60405180910390f35b610451600480360381019061044c91906134b9565b610deb565b005b34801561045f57600080fd5b506104686110e4565b005b34801561047657600080fd5b50610491600480360381019061048c919061345e565b61114f565b005b34801561049f57600080fd5b506104a8611298565b6040516104b5919061350c565b60405180910390f35b3480156104ca57600080fd5b506104e560048036038101906104e09190613527565b6112c2565b005b3480156104f357600080fd5b5061050e60048036038101906105099190613360565b611395565b60405161051b91906130bd565b60405180910390f35b34801561053057600080fd5b5061054b600480360381019061054691906134b9565b611400565b005b34801561055957600080fd5b50610562611aaf565b60405161056f919061328e565b60405180910390f35b34801561058457600080fd5b5061059f600480360381019061059a9190613689565b611ab6565b005b3480156105ad57600080fd5b506105b6611cf6565b6040516105c3919061349e565b60405180910390f35b3480156105d857600080fd5b506105f360048036038101906105ee9190613714565b611cfc565b005b34801561060157600080fd5b5061061c60048036038101906106179190613360565b611db5565b005b34801561062a57600080fd5b50610633611dde565b604051610640919061328e565b60405180910390f35b34801561065557600080fd5b50610670600480360381019061066b919061379b565b611e02565b005b34801561067e57600080fd5b5061069960048036038101906106949190613527565b611ec9565b005b60007f7965db0b000000000000000000000000000000000000000000000000000000007bffffffffffffffffffffffffffffffffffffffffffffffffffffffff1916827bffffffffffffffffffffffffffffffffffffffffffffffffffffffff1916148061070e575061070d826121fc565b5b9050919050565b60096020528060005260406000206000915090508060000180546107389061380a565b80601f01602080910402602001604051908101604052809291908181526020018280546107649061380a565b80156107b15780601f10610786576101008083540402835291602001916107b1565b820191906000526020600020905b81548152906001019060200180831161079457829003601f168201915b5050505050908060010180546107c69061380a565b80601f01602080910402602001604051908101604052809291908181526020018280546107f29061380a565b801561083f5780601f106108145761010080835404028352916020019161083f565b820191906000526020600020905b81548152906001019060200180831161082257829003601f168201915b5050505050908060020154908060030154908060040154908060050160009054906101000a900460ff16908060060154908060070154908060080154905089565b7fab4f864e5201b0fde9b5ee3e4cf96384802b0ffdfcf7f9de4699ce21a30afc4f81565b600060076000838152602001908152602001600020600101549050919050565b6108cd826108a4565b6108de816108d9612266565b61226e565b6108e8838361230b565b505050565b6108f5612266565b73ffffffffffffffffffffffffffffffffffffffff168173ffffffffffffffffffffffffffffffffffffffff1614610962576040517f08c379a0000000000000000000000000000000000000000000000000000000008152600401610959906138ad565b60405180910390fd5b61096c82826123ec565b5050565b6008602052816000526040600020602052806000526040600020600091509150508060000160009054906101000a900473ffffffffffffffffffffffffffffffffffffffff16908060010154908060020154908060030154908060040154908060050160009054906101000a900460ff16908060050160019054906101000a900460ff16905087565b816005600082815260200190815260200160002060009054906101000a900473ffffffffffffffffffffffffffffffffffffffff1673ffffffffffffffffffffffffffffffffffffffff163373ffffffffffffffffffffffffffffffffffffffff1614610a9b576040517f08c379a0000000000000000000000000000000000000000000000000000000008152600401610a929061393f565b60405180910390fd5b6005600082815260200190815260200160002060006101000a81549073ffffffffffffffffffffffffffffffffffffffff0219169055807f7cc135e0cebb02c3480ae5d74d377283180a2601f8f644edf7987b009316c63a60405160405180910390a2827f4b031b5f8729563cda98e5f016f7cb0d8e6b32db75591d31e59c13df29adea4483604051610b2e919061349e565b60405180910390a281600f81905550505050565b600a5481565b610b727fa49807205ce4d355092ef5a8a18f56e8913cf4a201fbe287825b095693c2177533611395565b80610baf5750610b80611298565b73ffffffffffffffffffffffffffffffffffffffff163373ffffffffffffffffffffffffffffffffffffffff16145b610bee576040517f08c379a0000000000000000000000000000000000000000000000000000000008152600401610be5906139ab565b60405180910390fd5b80600d8190555050565b600080610c0f600d5430634357855e60e01b6124ce565b90506000600b610c1e856124ff565b604051602001610c2f929190613a9f565b6040516020818303038152906040529050610c8a6040518060400160405280600381526020017f6765740000000000000000000000000000000000000000000000000000000000815250828461265f9092919063ffffffff16565b610ce36040518060400160405280600481526020017f7061746800000000000000000000000000000000000000000000000000000000815250604051806020016040528060008152508461265f9092919063ffffffff16565b6000610cf183600e54612692565b90506000600f5490507f1ca8663227a7fe9919713a01d344afbb434e234f35a3e540a6ad924f88771f388282604051610d2b929190613ac3565b60405180910390a180945050505050919050565b610d47612266565b73ffffffffffffffffffffffffffffffffffffffff16610d65611298565b73ffffffffffffffffffffffffffffffffffffffff1614610dbb576040517f08c379a0000000000000000000000000000000000000000000000000000000008152600401610db290613b38565b60405180910390fd5b610dc560006126c9565b565b7fa49807205ce4d355092ef5a8a18f56e8913cf4a201fbe287825b095693c2177581565b600a548310610e2f576040517f08c379a0000000000000000000000000000000000000000000000000000000008152600401610e2690613ba4565b60405180910390fd5b60003411610e72576040517f08c379a0000000000000000000000000000000000000000000000000000000008152600401610e6990613c36565b60405180910390fd5b60006009600085815260200190815260200160002090508060050160009054906101000a900460ff1615610edb576040517f08c379a0000000000000000000000000000000000000000000000000000000008152600401610ed290613ca2565b60405180910390fd5b6000601434610eea9190613d20565b90506000600534610efb9190613d20565b905080836006016000828254610f119190613d51565b92505081905550808234610f259190613d85565b610f2f9190613d85565b836008016000828254610f429190613d51565b925050819055506040518060e001604052803373ffffffffffffffffffffffffffffffffffffffff168152602001878152602001828434610f839190613d85565b610f8d9190613d85565b8152602001868152602001858152602001600015158152602001600015158152506008600088815260200190815260200160002060008560070154815260200190815260200160002060008201518160000160006101000a81548173ffffffffffffffffffffffffffffffffffffffff021916908373ffffffffffffffffffffffffffffffffffffffff1602179055506020820151816001015560408201518160020155606082015181600301556080820151816004015560a08201518160050160006101000a81548160ff02191690831515021790555060c08201518160050160016101000a81548160ff02191690831515021790555090505082600701600081548092919061109d90613db9565b9190505550857fbb79d51f1411ca03952954c866d22ae3532b227b2cf62e257cf182397a64717386866040516110d4929190613e01565b60405180910390a2505050505050565b61110e7fab4f864e5201b0fde9b5ee3e4cf96384802b0ffdfcf7f9de4699ce21a30afc4f33611395565b61114d576040517f08c379a000000000000000000000000000000000000000000000000000000000815260040161114490613e76565b60405180910390fd5b565b816005600082815260200190815260200160002060009054906101000a900473ffffffffffffffffffffffffffffffffffffffff1673ffffffffffffffffffffffffffffffffffffffff163373ffffffffffffffffffffffffffffffffffffffff16146111f1576040517f08c379a00000000000000000000000000000000000000000000000000000000081526004016111e89061393f565b60405180910390fd5b6005600082815260200190815260200160002060006101000a81549073ffffffffffffffffffffffffffffffffffffffff0219169055807f7cc135e0cebb02c3480ae5d74d377283180a2601f8f644edf7987b009316c63a60405160405180910390a2827f4b031b5f8729563cda98e5f016f7cb0d8e6b32db75591d31e59c13df29adea4483604051611284919061349e565b60405180910390a281600f81905550505050565b6000600660009054906101000a900473ffffffffffffffffffffffffffffffffffffffff16905090565b6112ec7fa49807205ce4d355092ef5a8a18f56e8913cf4a201fbe287825b095693c2177533611395565b8061132957506112fa611298565b73ffffffffffffffffffffffffffffffffffffffff163373ffffffffffffffffffffffffffffffffffffffff16145b611368576040517f08c379a000000000000000000000000000000000000000000000000000000000815260040161135f906139ab565b60405180910390fd5b6113927fab4f864e5201b0fde9b5ee3e4cf96384802b0ffdfcf7f9de4699ce21a30afc4f826108c4565b50565b60006007600084815260200190815260200160002060000160008373ffffffffffffffffffffffffffffffffffffffff1673ffffffffffffffffffffffffffffffffffffffff16815260200190815260200160002060009054906101000a900460ff16905092915050565b61142a7f950b8f2d7415defaee398bb4898e8e094a64c725873b81952b7ab9f08d70efb333611395565b8061145b575061145a7fa49807205ce4d355092ef5a8a18f56e8913cf4a201fbe287825b095693c2177533611395565b5b806114985750611469611298565b73ffffffffffffffffffffffffffffffffffffffff163373ffffffffffffffffffffffffffffffffffffffff16145b6114d7576040517f08c379a00000000000000000000000000000000000000000000000000000000081526004016114ce90613ee2565b60405180910390fd5b600a54831061151b576040517f08c379a000000000000000000000000000000000000000000000000000000000815260040161151290613ba4565b60405180910390fd5b600060096000858152602001908152602001600020905082816003018190555081816004018190555060018160050160006101000a81548160ff02191690831515021790555060008160070154036115735750611aaa565b6000805b82600701548110156115e957600060086000888152602001908152602001600020600083815260200190815260200160002090508581600301541480156115c15750848160040154145b156115d55782806115d190613db9565b9350505b5080806115e190613db9565b915050611577565b5060008167ffffffffffffffff8111156116065761160561355e565b5b60405190808252806020026020018201604052801561163f57816020015b61162c612f2b565b8152602001906001900390816116245790505b50905060008284600701546116549190613d85565b67ffffffffffffffff81111561166d5761166c61355e565b5b6040519080825280602002602001820160405280156116a657816020015b611693612f2b565b81526020019060019003908161168b5790505b5090506000806000805b876007015481101561193d576000600860008d8152602001908152602001600020600083815260200190815260200160002090508a81600301541480156116fa5750898160040154145b1561181f5760018160050160006101000a81548160ff021916908315150217905550806040518060e00160405290816000820160009054906101000a900473ffffffffffffffffffffffffffffffffffffffff1673ffffffffffffffffffffffffffffffffffffffff1673ffffffffffffffffffffffffffffffffffffffff168152602001600182015481526020016002820154815260200160038201548152602001600482015481526020016005820160009054906101000a900460ff161515151581526020016005820160019054906101000a900460ff1615151515815250508786815181106117ef576117ee613f02565b5b602002602001018190525080600201548361180a9190613d51565b9250848061181790613db9565b95505061190c565b806040518060e00160405290816000820160009054906101000a900473ffffffffffffffffffffffffffffffffffffffff1673ffffffffffffffffffffffffffffffffffffffff1673ffffffffffffffffffffffffffffffffffffffff168152602001600182015481526020016002820154815260200160038201548152602001600482015481526020016005820160009054906101000a900460ff161515151581526020016005820160019054906101000a900460ff1615151515815250508685815181106118f2576118f1613f02565b5b6020026020010181905250838061190890613db9565b9450505b60018160050160016101000a81548160ff02191690831515021790555050808061193590613db9565b9150506116b0565b506000830361196657866008015487600601600082825461195e9190613d51565b925050819055505b60005b83811015611a215785818151811061198457611983613f02565b5b60200260200101516000015173ffffffffffffffffffffffffffffffffffffffff166108fc838884815181106119bd576119bc613f02565b5b6020026020010151604001518b600801546119d89190613f31565b6119e29190613d20565b9081150290604051600060405180830381858888f19350505050158015611a0d573d6000803e3d6000fd5b508080611a1990613db9565b915050611969565b506000611a2d83610bf8565b905060018114611aa157848181518110611a4a57611a49613f02565b5b60200260200101516000015173ffffffffffffffffffffffffffffffffffffffff166108fc89600601549081150290604051600060405180830381858888f19350505050158015611a9f573d6000803e3d6000fd5b505b50505050505050505b505050565b6000801b81565b611ae07f950b8f2d7415defaee398bb4898e8e094a64c725873b81952b7ab9f08d70efb333611395565b80611b115750611b107fa49807205ce4d355092ef5a8a18f56e8913cf4a201fbe287825b095693c2177533611395565b5b80611b4e5750611b1f611298565b73ffffffffffffffffffffffffffffffffffffffff163373ffffffffffffffffffffffffffffffffffffffff16145b611b8d576040517f08c379a0000000000000000000000000000000000000000000000000000000008152600401611b8490613ee2565b60405180910390fd5b60405180610120016040528084815260200183815260200182815260200160008152602001600081526020016000151581526020016000815260200160008152602001600081525060096000600a5481526020019081526020016000206000820151816000019081611bff919061410a565b506020820151816001019081611c15919061410a565b5060408201518160020155606082015181600301556080820151816004015560a08201518160050160006101000a81548160ff02191690831515021790555060c0820151816006015560e082015181600701556101008201518160080155905050600a6000815480929190611c8990613db9565b919050555081604051611c9c91906141dc565b604051809103902083604051611cb291906141dc565b60405180910390207fd35ca1314b646b63fb0c1f06dbe2338333530431983c8779c9692f9ff4ad249f83604051611ce9919061349e565b60405180910390a3505050565b600f5481565b611d267fa49807205ce4d355092ef5a8a18f56e8913cf4a201fbe287825b095693c2177533611395565b80611d635750611d34611298565b73ffffffffffffffffffffffffffffffffffffffff163373ffffffffffffffffffffffffffffffffffffffff16145b611da2576040517f08c379a0000000000000000000000000000000000000000000000000000000008152600401611d99906139ab565b60405180910390fd5b80600b9081611db1919061410a565b5050565b611dbe826108a4565b611dcf81611dca612266565b61226e565b611dd983836123ec565b505050565b7f950b8f2d7415defaee398bb4898e8e094a64c725873b81952b7ab9f08d70efb381565b611e0a612266565b73ffffffffffffffffffffffffffffffffffffffff16611e28611298565b73ffffffffffffffffffffffffffffffffffffffff1614611e7e576040517f08c379a0000000000000000000000000000000000000000000000000000000008152600401611e7590613b38565b60405180910390fd5b8073ffffffffffffffffffffffffffffffffffffffff166108fc839081150290604051600060405180830381858888f19350505050158015611ec4573d6000803e3d6000fd5b505050565b611ed1612266565b73ffffffffffffffffffffffffffffffffffffffff16611eef611298565b73ffffffffffffffffffffffffffffffffffffffff1614611f45576040517f08c379a0000000000000000000000000000000000000000000000000000000008152600401611f3c90613b38565b60405180910390fd5b600073ffffffffffffffffffffffffffffffffffffffff168173ffffffffffffffffffffffffffffffffffffffff1603611fb4576040517f08c379a0000000000000000000000000000000000000000000000000000000008152600401611fab90614265565b60405180910390fd5b611fbd816126c9565b50565b606060006002836002611fd39190613f31565b611fdd9190613d51565b67ffffffffffffffff811115611ff657611ff561355e565b5b6040519080825280601f01601f1916602001820160405280156120285781602001600182028036833780820191505090505b5090507f3000000000000000000000000000000000000000000000000000000000000000816000815181106120605761205f613f02565b5b60200101907effffffffffffffffffffffffffffffffffffffffffffffffffffffffffffff1916908160001a9053507f7800000000000000000000000000000000000000000000000000000000000000816001815181106120c4576120c3613f02565b5b60200101907effffffffffffffffffffffffffffffffffffffffffffffffffffffffffffff1916908160001a905350600060018460026121049190613f31565b61210e9190613d51565b90505b60018111156121ae577f3031323334353637383961626364656600000000000000000000000000000000600f8616601081106121505761214f613f02565b5b1a60f81b82828151811061216757612166613f02565b5b60200101907effffffffffffffffffffffffffffffffffffffffffffffffffffffffffffff1916908160001a905350600485901c9450806121a790614285565b9050612111565b50600084146121f2576040517f08c379a00000000000000000000000000000000000000000000000000000000081526004016121e9906142fa565b60405180910390fd5b8091505092915050565b60007f01ffc9a7000000000000000000000000000000000000000000000000000000007bffffffffffffffffffffffffffffffffffffffffffffffffffffffff1916827bffffffffffffffffffffffffffffffffffffffffffffffffffffffff1916149050919050565b600033905090565b6122788282611395565b6123075761229d8173ffffffffffffffffffffffffffffffffffffffff166014611fc0565b6122ab8360001c6020611fc0565b6040516020016122bc9291906143b2565b6040516020818303038152906040526040517f08c379a00000000000000000000000000000000000000000000000000000000081526004016122fe91906143ec565b60405180910390fd5b5050565b6123158282611395565b6123e85760016007600084815260200190815260200160002060000160008373ffffffffffffffffffffffffffffffffffffffff1673ffffffffffffffffffffffffffffffffffffffff16815260200190815260200160002060006101000a81548160ff02191690831515021790555061238d612266565b73ffffffffffffffffffffffffffffffffffffffff168173ffffffffffffffffffffffffffffffffffffffff16837f2f8788117e7eff1d82e926ec794901d17c78024a50270940304540a733656f0d60405160405180910390a45b5050565b6123f68282611395565b156124ca5760006007600084815260200190815260200160002060000160008373ffffffffffffffffffffffffffffffffffffffff1673ffffffffffffffffffffffffffffffffffffffff16815260200190815260200160002060006101000a81548160ff02191690831515021790555061246f612266565b73ffffffffffffffffffffffffffffffffffffffff168173ffffffffffffffffffffffffffffffffffffffff16837ff6391f5c32d9c69d2a47ea670b442974b53935d1edc7fd64eb21e047a839171b60405160405180910390a45b5050565b6124d6612f82565b6124de612f82565b6124f58585858461278f909392919063ffffffff16565b9150509392505050565b606060008203612546576040518060400160405280600181526020017f3000000000000000000000000000000000000000000000000000000000000000815250905061265a565b600082905060005b6000821461257857808061256190613db9565b915050600a826125719190613d20565b915061254e565b60008167ffffffffffffffff8111156125945761259361355e565b5b6040519080825280601f01601f1916602001820160405280156125c65781602001600182028036833780820191505090505b5090505b60008514612653576001826125df9190613d85565b9150600a856125ee919061440e565b60306125fa9190613d51565b60f81b8183815181106126105761260f613f02565b5b60200101907effffffffffffffffffffffffffffffffffffffffffffffffffffffffffffff1916908160001a905350600a8561264c9190613d20565b94506125ca565b8093505050505b919050565b61267682846080015161283f90919063ffffffff16565b61268d81846080015161283f90919063ffffffff16565b505050565b60006126c1600360009054906101000a900473ffffffffffffffffffffffffffffffffffffffff168484612864565b905092915050565b6000600660009054906101000a900473ffffffffffffffffffffffffffffffffffffffff16905081600660006101000a81548173ffffffffffffffffffffffffffffffffffffffff021916908373ffffffffffffffffffffffffffffffffffffffff1602179055508173ffffffffffffffffffffffffffffffffffffffff168173ffffffffffffffffffffffffffffffffffffffff167f8be0079c531659141344cd1fd0a4f28419497f9722a3daafe3b4186f6b6457e060405160405180910390a35050565b612797612f82565b6127a78560800151610100612930565b508385600001818152505082856020019073ffffffffffffffffffffffffffffffffffffffff16908173ffffffffffffffffffffffffffffffffffffffff16815250508185604001907bffffffffffffffffffffffffffffffffffffffffffffffffffffffff191690817bffffffffffffffffffffffffffffffffffffffffffffffffffffffff191681525050849050949350505050565b61284c826003835161299a565b61285f8183612b1f90919063ffffffff16565b505050565b60008060045490506001816128799190613d51565b6004819055506000634042994660e01b60008087600001513089604001518760018c60800151600001516040516024016128ba9897969594939291906144a3565b604051602081830303815290604052907bffffffffffffffffffffffffffffffffffffffffffffffffffffffff19166020820180517bffffffffffffffffffffffffffffffffffffffffffffffffffffffff8381831617835250505050905061292586838684612b41565b925050509392505050565b612938612fef565b6000602083612947919061440e565b1461297357602082612959919061440e565b60206129659190613d85565b826129709190613d51565b91505b81836020018181525050604051808452600081528281016020016040525082905092915050565b60178167ffffffffffffffff16116129d1576129cb8160058460ff16901b60ff161784612cd690919063ffffffff16565b50612b1a565b60ff8167ffffffffffffffff1611612a2757612a00601860058460ff16901b1784612cd690919063ffffffff16565b50612a218167ffffffffffffffff16600185612cf69092919063ffffffff16565b50612b19565b61ffff8167ffffffffffffffff1611612a7e57612a57601960058460ff16901b1784612cd690919063ffffffff16565b50612a788167ffffffffffffffff16600285612cf69092919063ffffffff16565b50612b18565b63ffffffff8167ffffffffffffffff1611612ad757612ab0601a60058460ff16901b1784612cd690919063ffffffff16565b50612ad18167ffffffffffffffff16600485612cf69092919063ffffffff16565b50612b17565b612af4601b60058460ff16901b1784612cd690919063ffffffff16565b50612b158167ffffffffffffffff16600885612cf69092919063ffffffff16565b505b5b5b5b505050565b612b27612fef565b612b3983846000015151848551612d18565b905092915050565b60003084604051602001612b569291906145d7565b604051602081830303815290604052805190602001209050846005600083815260200190815260200160002060006101000a81548173ffffffffffffffffffffffffffffffffffffffff021916908373ffffffffffffffffffffffffffffffffffffffff160217905550807fb5e6e01e79f91267dc17b4e6314d5d4d03593d2ceee0fbb452b750bd70ea5af960405160405180910390a2600260009054906101000a900473ffffffffffffffffffffffffffffffffffffffff1673ffffffffffffffffffffffffffffffffffffffff16634000aea08685856040518463ffffffff1660e01b8152600401612c4c93929190614603565b6020604051808303816000875af1158015612c6b573d6000803e3d6000fd5b505050506040513d601f19601f82011682018060405250810190612c8f919061466d565b612cce576040517f08c379a0000000000000000000000000000000000000000000000000000000008152600401612cc59061470c565b60405180910390fd5b949350505050565b612cde612fef565b612cee8384600001515184612e07565b905092915050565b612cfe612fef565b612d0f848560000151518585612e5d565b90509392505050565b612d20612fef565b8251821115612d2e57600080fd5b84602001518285612d3f9190613d51565b1115612d7457612d73856002612d6488602001518887612d5f9190613d51565b612eeb565b612d6e9190613f31565b612f07565b5b600080865180518760208301019350808887011115612d935787860182525b60208701925050505b60208410612dda5780518252602082612db59190613d51565b9150602081612dc49190613d51565b9050602084612dd39190613d85565b9350612d9c565b60006001856020036101000a03905080198251168184511681811785525050508692505050949350505050565b612e0f612fef565b83602001518310612e3557612e348460028660200151612e2f9190613f31565b612f07565b5b83518051602085830101848153818603612e50576001820183525b5050508390509392505050565b612e65612fef565b84602001518483612e769190613d51565b1115612e9e57612e9d8560028685612e8e9190613d51565b612e989190613f31565b612f07565b5b6000600183610100612eb0919061485f565b612eba9190613d85565b90508551838682010185831982511617815281518588011115612edd5784870182525b505085915050949350505050565b600081831115612efd57829050612f01565b8190505b92915050565b600082600001519050612f1a8383612930565b50612f258382612b1f565b50505050565b6040518060e00160405280600073ffffffffffffffffffffffffffffffffffffffff168152602001600081526020016000815260200160008152602001600081526020016000151581526020016000151581525090565b6040518060a0016040528060008019168152602001600073ffffffffffffffffffffffffffffffffffffffff16815260200160007bffffffffffffffffffffffffffffffffffffffffffffffffffffffff1916815260200160008152602001612fe9612fef565b81525090565b604051806040016040528060608152602001600081525090565b6000604051905090565b600080fd5b600080fd5b60007fffffffff0000000000000000000000000000000000000000000000000000000082169050919050565b6130528161301d565b811461305d57600080fd5b50565b60008135905061306f81613049565b92915050565b60006020828403121561308b5761308a613013565b5b600061309984828501613060565b91505092915050565b60008115159050919050565b6130b7816130a2565b82525050565b60006020820190506130d260008301846130ae565b92915050565b6000819050919050565b6130eb816130d8565b81146130f657600080fd5b50565b600081359050613108816130e2565b92915050565b60006020828403121561312457613123613013565b5b6000613132848285016130f9565b91505092915050565b600081519050919050565b600082825260208201905092915050565b60005b8381101561317557808201518184015260208101905061315a565b60008484015250505050565b6000601f19601f8301169050919050565b600061319d8261313b565b6131a78185613146565b93506131b7818560208601613157565b6131c081613181565b840191505092915050565b6131d4816130d8565b82525050565b60006101208201905081810360008301526131f5818c613192565b90508181036020830152613209818b613192565b9050613218604083018a6131cb565b61322560608301896131cb565b61323260808301886131cb565b61323f60a08301876130ae565b61324c60c08301866131cb565b61325960e08301856131cb565b6132676101008301846131cb565b9a9950505050505050505050565b6000819050919050565b61328881613275565b82525050565b60006020820190506132a3600083018461327f565b92915050565b6132b281613275565b81146132bd57600080fd5b50565b6000813590506132cf816132a9565b92915050565b6000602082840312156132eb576132ea613013565b5b60006132f9848285016132c0565b91505092915050565b600073ffffffffffffffffffffffffffffffffffffffff82169050919050565b600061332d82613302565b9050919050565b61333d81613322565b811461334857600080fd5b50565b60008135905061335a81613334565b92915050565b6000806040838503121561337757613376613013565b5b6000613385858286016132c0565b92505060206133968582860161334b565b9150509250929050565b600080604083850312156133b7576133b6613013565b5b60006133c5858286016130f9565b92505060206133d6858286016130f9565b9150509250929050565b6133e981613322565b82525050565b600060e082019050613404600083018a6133e0565b61341160208301896131cb565b61341e60408301886131cb565b61342b60608301876131cb565b61343860808301866131cb565b61344560a08301856130ae565b61345260c08301846130ae565b98975050505050505050565b6000806040838503121561347557613474613013565b5b6000613483858286016132c0565b9250506020613494858286016130f9565b9150509250929050565b60006020820190506134b360008301846131cb565b92915050565b6000806000606084860312156134d2576134d1613013565b5b60006134e0868287016130f9565b93505060206134f1868287016130f9565b9250506040613502868287016130f9565b9150509250925092565b600060208201905061352160008301846133e0565b92915050565b60006020828403121561353d5761353c613013565b5b600061354b8482850161334b565b91505092915050565b600080fd5b600080fd5b7f4e487b7100000000000000000000000000000000000000000000000000000000600052604160045260246000fd5b61359682613181565b810181811067ffffffffffffffff821117156135b5576135b461355e565b5b80604052505050565b60006135c8613009565b90506135d4828261358d565b919050565b600067ffffffffffffffff8211156135f4576135f361355e565b5b6135fd82613181565b9050602081019050919050565b82818337600083830152505050565b600061362c613627846135d9565b6135be565b90508281526020810184848401111561364857613647613559565b5b61365384828561360a565b509392505050565b600082601f8301126136705761366f613554565b5b8135613680848260208601613619565b91505092915050565b6000806000606084860312156136a2576136a1613013565b5b600084013567ffffffffffffffff8111156136c0576136bf613018565b5b6136cc8682870161365b565b935050602084013567ffffffffffffffff8111156136ed576136ec613018565b5b6136f98682870161365b565b925050604061370a868287016130f9565b9150509250925092565b60006020828403121561372a57613729613013565b5b600082013567ffffffffffffffff81111561374857613747613018565b5b6137548482850161365b565b91505092915050565b600061376882613302565b9050919050565b6137788161375d565b811461378357600080fd5b50565b6000813590506137958161376f565b92915050565b600080604083850312156137b2576137b1613013565b5b60006137c0858286016130f9565b92505060206137d185828601613786565b9150509250929050565b7f4e487b7100000000000000000000000000000000000000000000000000000000600052602260045260246000fd5b6000600282049050600182168061382257607f821691505b602082108103613835576138346137db565b5b50919050565b7f416363657373436f6e74726f6c3a2063616e206f6e6c792072656e6f756e636560008201527f20726f6c657320666f722073656c660000000000000000000000000000000000602082015250565b6000613897602f83613146565b91506138a28261383b565b604082019050919050565b600060208201905081810360008301526138c68161388a565b9050919050565b7f536f75726365206d75737420626520746865206f7261636c65206f662074686560008201527f2072657175657374000000000000000000000000000000000000000000000000602082015250565b6000613929602883613146565b9150613934826138cd565b604082019050919050565b600060208201905081810360008301526139588161391c565b9050919050565b7f49535f4e4f545f41444d494e0000000000000000000000000000000000000000600082015250565b6000613995600c83613146565b91506139a08261395f565b602082019050919050565b600060208201905081810360008301526139c481613988565b9050919050565b600081905092915050565b60008190508160005260206000209050919050565b600081546139f88161380a565b613a0281866139cb565b94506001821660008114613a1d5760018114613a3257613a65565b60ff1983168652811515820286019350613a65565b613a3b856139d6565b60005b83811015613a5d57815481890152600182019150602081019050613a3e565b838801955050505b50505092915050565b6000613a798261313b565b613a8381856139cb565b9350613a93818560208601613157565b80840191505092915050565b6000613aab82856139eb565b9150613ab78284613a6e565b91508190509392505050565b6000604082019050613ad8600083018561327f565b613ae560208301846131cb565b9392505050565b7f4f776e61626c653a2063616c6c6572206973206e6f7420746865206f776e6572600082015250565b6000613b22602083613146565b9150613b2d82613aec565b602082019050919050565b60006020820190508181036000830152613b5181613b15565b9050919050565b7f496e76616c69642067616d652049440000000000000000000000000000000000600082015250565b6000613b8e600f83613146565b9150613b9982613b58565b602082019050919050565b60006020820190508181036000830152613bbd81613b81565b9050919050565b7f42657420616d6f756e74206d7573742062652067726561746572207468616e2060008201527f7a65726f00000000000000000000000000000000000000000000000000000000602082015250565b6000613c20602483613146565b9150613c2b82613bc4565b604082019050919050565b60006020820190508181036000830152613c4f81613c13565b9050919050565b7f47616d652068617320616c726561647920636f6d706c65746564000000000000600082015250565b6000613c8c601a83613146565b9150613c9782613c56565b602082019050919050565b60006020820190508181036000830152613cbb81613c7f565b9050919050565b7f4e487b7100000000000000000000000000000000000000000000000000000000600052601260045260246000fd5b7f4e487b7100000000000000000000000000000000000000000000000000000000600052601160045260246000fd5b6000613d2b826130d8565b9150613d36836130d8565b925082613d4657613d45613cc2565b5b828204905092915050565b6000613d5c826130d8565b9150613d67836130d8565b9250828201905080821115613d7f57613d7e613cf1565b5b92915050565b6000613d90826130d8565b9150613d9b836130d8565b9250828203905081811115613db357613db2613cf1565b5b92915050565b6000613dc4826130d8565b91507fffffffffffffffffffffffffffffffffffffffffffffffffffffffffffffffff8203613df657613df5613cf1565b5b600182019050919050565b6000604082019050613e1660008301856131cb565b613e2360208301846131cb565b9392505050565b7f49535f4e4f545f52454c41594552000000000000000000000000000000000000600082015250565b6000613e60600e83613146565b9150613e6b82613e2a565b602082019050919050565b60006020820190508181036000830152613e8f81613e53565b9050919050565b7f49535f4e4f545f4d4f445f4f525f41444d494e00000000000000000000000000600082015250565b6000613ecc601383613146565b9150613ed782613e96565b602082019050919050565b60006020820190508181036000830152613efb81613ebf565b9050919050565b7f4e487b7100000000000000000000000000000000000000000000000000000000600052603260045260246000fd5b6000613f3c826130d8565b9150613f47836130d8565b9250828202613f55816130d8565b91508282048414831517613f6c57613f6b613cf1565b5b5092915050565b60006020601f8301049050919050565b600082821b905092915050565b600060088302613fc07fffffffffffffffffffffffffffffffffffffffffffffffffffffffffffffffff82613f83565b613fca8683613f83565b95508019841693508086168417925050509392505050565b6000819050919050565b6000614007614002613ffd846130d8565b613fe2565b6130d8565b9050919050565b6000819050919050565b61402183613fec565b61403561402d8261400e565b848454613f90565b825550505050565b600090565b61404a61403d565b614055818484614018565b505050565b5b818110156140795761406e600082614042565b60018101905061405b565b5050565b601f8211156140be5761408f816139d6565b61409884613f73565b810160208510156140a7578190505b6140bb6140b385613f73565b83018261405a565b50505b505050565b600082821c905092915050565b60006140e1600019846008026140c3565b1980831691505092915050565b60006140fa83836140d0565b9150826002028217905092915050565b6141138261313b565b67ffffffffffffffff81111561412c5761412b61355e565b5b614136825461380a565b61414182828561407d565b600060209050601f8311600181146141745760008415614162578287015190505b61416c85826140ee565b8655506141d4565b601f198416614182866139d6565b60005b828110156141aa57848901518255600182019150602085019450602081019050614185565b868310156141c757848901516141c3601f8916826140d0565b8355505b6001600288020188555050505b505050505050565b60006141e88284613a6e565b915081905092915050565b7f4f776e61626c653a206e6577206f776e657220697320746865207a65726f206160008201527f6464726573730000000000000000000000000000000000000000000000000000602082015250565b600061424f602683613146565b915061425a826141f3565b604082019050919050565b6000602082019050818103600083015261427e81614242565b9050919050565b6000614290826130d8565b9150600082036142a3576142a2613cf1565b5b600182039050919050565b7f537472696e67733a20686578206c656e67746820696e73756666696369656e74600082015250565b60006142e4602083613146565b91506142ef826142ae565b602082019050919050565b60006020820190508181036000830152614313816142d7565b9050919050565b7f416363657373436f6e74726f6c3a206163636f756e7420000000000000000000600082015250565b60006143506017836139cb565b915061435b8261431a565b601782019050919050565b7f206973206d697373696e6720726f6c6520000000000000000000000000000000600082015250565b600061439c6011836139cb565b91506143a782614366565b601182019050919050565b60006143bd82614343565b91506143c98285613a6e565b91506143d48261438f565b91506143e08284613a6e565b91508190509392505050565b600060208201905081810360008301526144068184613192565b905092915050565b6000614419826130d8565b9150614424836130d8565b92508261443457614433613cc2565b5b828206905092915050565b6144488161301d565b82525050565b600081519050919050565b600082825260208201905092915050565b60006144758261444e565b61447f8185614459565b935061448f818560208601613157565b61449881613181565b840191505092915050565b6000610100820190506144b9600083018b6133e0565b6144c6602083018a6131cb565b6144d3604083018961327f565b6144e060608301886133e0565b6144ed608083018761443f565b6144fa60a08301866131cb565b61450760c08301856131cb565b81810360e0830152614519818461446a565b90509998505050505050505050565b600061454361453e61453984613302565b613fe2565b613302565b9050919050565b600061455582614528565b9050919050565b60006145678261454a565b9050919050565b60008160601b9050919050565b60006145868261456e565b9050919050565b60006145988261457b565b9050919050565b6145b06145ab8261455c565b61458d565b82525050565b6000819050919050565b6145d16145cc826130d8565b6145b6565b82525050565b60006145e3828561459f565b6014820191506145f382846145c0565b6020820191508190509392505050565b600060608201905061461860008301866133e0565b61462560208301856131cb565b8181036040830152614637818461446a565b9050949350505050565b61464a816130a2565b811461465557600080fd5b50565b60008151905061466781614641565b92915050565b60006020828403121561468357614682613013565b5b600061469184828501614658565b91505092915050565b7f756e61626c6520746f207472616e73666572416e6443616c6c20746f206f726160008201527f636c650000000000000000000000000000000000000000000000000000000000602082015250565b60006146f6602383613146565b91506147018261469a565b604082019050919050565b60006020820190508181036000830152614725816146e9565b9050919050565b60008160011c9050919050565b6000808291508390505b60018511156147835780860481111561475f5761475e613cf1565b5b600185161561476e5780820291505b808102905061477c8561472c565b9450614743565b94509492505050565b60008261479c5760019050614858565b816147aa5760009050614858565b81600181146147c057600281146147ca576147f9565b6001915050614858565b60ff8411156147dc576147db613cf1565b5b8360020a9150848211156147f3576147f2613cf1565b5b50614858565b5060208310610133831016604e8410600b841016171561482e5782820a90508381111561482957614828613cf1565b5b614858565b61483b8484846001614739565b9250905081840481111561485257614851613cf1565b5b81810290505b9392505050565b600061486a826130d8565b9150614875836130d8565b92506148a27fffffffffffffffffffffffffffffffffffffffffffffffffffffffffffffffff848461478c565b90509291505056fea2646970667358221220718e1ea1d8e96880aa92faaa7c8edfc4d30cfcf964ede88fd6be2746f9e9039764736f6c63430008110033","opcodes":"PUSH1 0x80 PUSH1 0x40 MSTORE PUSH1 0x1 PUSH1 0x4 SSTORE CALLVALUE DUP1 ISZERO PUSH3 0x16 JUMPI PUSH1 0x0 DUP1 REVERT JUMPDEST POP PUSH1 0x40 MLOAD PUSH3 0x5C78 CODESIZE SUB DUP1 PUSH3 0x5C78 DUP4 CODECOPY DUP2 DUP2 ADD PUSH1 0x40 MSTORE DUP2 ADD SWAP1 PUSH3 0x3C SWAP2 SWAP1 PUSH3 0xB3F JUMP JUMPDEST PUSH3 0x5C PUSH3 0x50 PUSH3 0x1F6 PUSH1 0x20 SHL PUSH1 0x20 SHR JUMP JUMPDEST PUSH3 0x1FE PUSH1 0x20 SHL PUSH1 0x20 SHR JUMP JUMPDEST PUSH1 0x0 JUMPDEST DUP5 MLOAD DUP2 LT ISZERO PUSH3 0xCC JUMPI PUSH3 0xB8 PUSH32 0x950B8F2D7415DEFAEE398BB4898E8E094A64C725873B81952B7AB9F08D70EFB3 DUP7 DUP4 DUP2 MLOAD DUP2 LT PUSH3 0xA4 JUMPI PUSH3 0xA3 PUSH3 0xC84 JUMP JUMPDEST JUMPDEST PUSH1 0x20 MUL PUSH1 0x20 ADD ADD MLOAD PUSH3 0x2C4 PUSH1 0x20 SHL PUSH1 0x20 SHR JUMP JUMPDEST DUP1 PUSH3 0xC4 SWAP1 PUSH3 0xCEC JUMP JUMPDEST SWAP1 POP PUSH3 0x5F JUMP JUMPDEST POP PUSH1 0x0 JUMPDEST DUP4 MLOAD DUP2 LT ISZERO PUSH3 0x13D JUMPI PUSH3 0x129 PUSH32 0xA49807205CE4D355092EF5A8A18F56E8913CF4A201FBE287825B095693C21775 DUP6 DUP4 DUP2 MLOAD DUP2 LT PUSH3 0x115 JUMPI PUSH3 0x114 PUSH3 0xC84 JUMP JUMPDEST JUMPDEST PUSH1 0x20 MUL PUSH1 0x20 ADD ADD MLOAD PUSH3 0x2C4 PUSH1 0x20 SHL PUSH1 0x20 SHR JUMP JUMPDEST DUP1 PUSH3 0x135 SWAP1 PUSH3 0xCEC JUMP JUMPDEST SWAP1 POP PUSH3 0xD0 JUMP JUMPDEST POP PUSH3 0x170 PUSH32 0xAB4F864E5201B0FDE9B5EE3E4CF96384802B0FFDFCF7F9DE4699CE21A30AFC4F DUP7 PUSH3 0x2C4 PUSH1 0x20 SHL PUSH1 0x20 SHR JUMP JUMPDEST DUP2 PUSH1 0xB SWAP1 DUP2 PUSH3 0x181 SWAP2 SWAP1 PUSH3 0xF7A JUMP JUMPDEST POP DUP1 PUSH1 0xC SWAP1 DUP2 PUSH3 0x193 SWAP2 SWAP1 PUSH3 0xF7A JUMP JUMPDEST POP PUSH3 0x1A5 DUP9 PUSH3 0x30D PUSH1 0x20 SHL PUSH1 0x20 SHR JUMP JUMPDEST PUSH3 0x1B6 DUP8 PUSH3 0x351 PUSH1 0x20 SHL PUSH1 0x20 SHR JUMP JUMPDEST DUP6 PUSH1 0xD DUP2 SWAP1 SSTORE POP PUSH1 0xA PUSH8 0xDE0B6B3A7640000 PUSH1 0x1 PUSH3 0x1D6 SWAP2 SWAP1 PUSH3 0x1061 JUMP JUMPDEST PUSH3 0x1E2 SWAP2 SWAP1 PUSH3 0x10DB JUMP JUMPDEST PUSH1 0xE DUP2 SWAP1 SSTORE POP POP POP POP POP POP POP POP POP PUSH3 0x1388 JUMP JUMPDEST PUSH1 0x0 CALLER SWAP1 POP SWAP1 JUMP JUMPDEST PUSH1 0x0 PUSH1 0x6 PUSH1 0x0 SWAP1 SLOAD SWAP1 PUSH2 0x100 EXP SWAP1 DIV PUSH20 0xFFFFFFFFFFFFFFFFFFFFFFFFFFFFFFFFFFFFFFFF AND SWAP1 POP DUP2 PUSH1 0x6 PUSH1 0x0 PUSH2 0x100 EXP DUP2 SLOAD DUP2 PUSH20 0xFFFFFFFFFFFFFFFFFFFFFFFFFFFFFFFFFFFFFFFF MUL NOT AND SWAP1 DUP4 PUSH20 0xFFFFFFFFFFFFFFFFFFFFFFFFFFFFFFFFFFFFFFFF AND MUL OR SWAP1 SSTORE POP DUP2 PUSH20 0xFFFFFFFFFFFFFFFFFFFFFFFFFFFFFFFFFFFFFFFF AND DUP2 PUSH20 0xFFFFFFFFFFFFFFFFFFFFFFFFFFFFFFFFFFFFFFFF AND PUSH32 0x8BE0079C531659141344CD1FD0A4F28419497F9722A3DAAFE3B4186F6B6457E0 PUSH1 0x40 MLOAD PUSH1 0x40 MLOAD DUP1 SWAP2 SUB SWAP1 LOG3 POP POP JUMP JUMPDEST PUSH3 0x2D5 DUP3 PUSH3 0x395 PUSH1 0x20 SHL PUSH1 0x20 SHR JUMP JUMPDEST PUSH3 0x2F6 DUP2 PUSH3 0x2EA PUSH3 0x1F6 PUSH1 0x20 SHL PUSH1 0x20 SHR JUMP JUMPDEST PUSH3 0x3B5 PUSH1 0x20 SHL PUSH1 0x20 SHR JUMP JUMPDEST PUSH3 0x308 DUP4 DUP4 PUSH3 0x479 PUSH1 0x20 SHL PUSH1 0x20 SHR JUMP JUMPDEST POP POP POP JUMP JUMPDEST DUP1 PUSH1 0x2 PUSH1 0x0 PUSH2 0x100 EXP DUP2 SLOAD DUP2 PUSH20 0xFFFFFFFFFFFFFFFFFFFFFFFFFFFFFFFFFFFFFFFF MUL NOT AND SWAP1 DUP4 PUSH20 0xFFFFFFFFFFFFFFFFFFFFFFFFFFFFFFFFFFFFFFFF AND MUL OR SWAP1 SSTORE POP POP JUMP JUMPDEST DUP1 PUSH1 0x3 PUSH1 0x0 PUSH2 0x100 EXP DUP2 SLOAD DUP2 PUSH20 0xFFFFFFFFFFFFFFFFFFFFFFFFFFFFFFFFFFFFFFFF MUL NOT AND SWAP1 DUP4 PUSH20 0xFFFFFFFFFFFFFFFFFFFFFFFFFFFFFFFFFFFFFFFF AND MUL OR SWAP1 SSTORE POP POP JUMP JUMPDEST PUSH1 0x0 PUSH1 0x7 PUSH1 0x0 DUP4 DUP2 MSTORE PUSH1 0x20 ADD SWAP1 DUP2 MSTORE PUSH1 0x20 ADD PUSH1 0x0 KECCAK256 PUSH1 0x1 ADD SLOAD SWAP1 POP SWAP2 SWAP1 POP JUMP JUMPDEST PUSH3 0x3C7 DUP3 DUP3 PUSH3 0x56B PUSH1 0x20 SHL PUSH1 0x20 SHR JUMP JUMPDEST PUSH3 0x475 JUMPI PUSH3 0x3FA DUP2 PUSH20 0xFFFFFFFFFFFFFFFFFFFFFFFFFFFFFFFFFFFFFFFF AND PUSH1 0x14 PUSH3 0x5D6 PUSH1 0x20 SHL PUSH3 0x1FC0 OR PUSH1 0x20 SHR JUMP JUMPDEST PUSH3 0x415 DUP4 PUSH1 0x0 SHR PUSH1 0x20 PUSH3 0x5D6 PUSH1 0x20 SHL PUSH3 0x1FC0 OR PUSH1 0x20 SHR JUMP JUMPDEST PUSH1 0x40 MLOAD PUSH1 0x20 ADD PUSH3 0x428 SWAP3 SWAP2 SWAP1 PUSH3 0x11F5 JUMP JUMPDEST PUSH1 0x40 MLOAD PUSH1 0x20 DUP2 DUP4 SUB SUB DUP2 MSTORE SWAP1 PUSH1 0x40 MSTORE PUSH1 0x40 MLOAD PUSH32 0x8C379A000000000000000000000000000000000000000000000000000000000 DUP2 MSTORE PUSH1 0x4 ADD PUSH3 0x46C SWAP2 SWAP1 PUSH3 0x1289 JUMP JUMPDEST PUSH1 0x40 MLOAD DUP1 SWAP2 SUB SWAP1 REVERT JUMPDEST POP POP JUMP JUMPDEST PUSH3 0x48B DUP3 DUP3 PUSH3 0x56B PUSH1 0x20 SHL PUSH1 0x20 SHR JUMP JUMPDEST PUSH3 0x567 JUMPI PUSH1 0x1 PUSH1 0x7 PUSH1 0x0 DUP5 DUP2 MSTORE PUSH1 0x20 ADD SWAP1 DUP2 MSTORE PUSH1 0x20 ADD PUSH1 0x0 KECCAK256 PUSH1 0x0 ADD PUSH1 0x0 DUP4 PUSH20 0xFFFFFFFFFFFFFFFFFFFFFFFFFFFFFFFFFFFFFFFF AND PUSH20 0xFFFFFFFFFFFFFFFFFFFFFFFFFFFFFFFFFFFFFFFF AND DUP2 MSTORE PUSH1 0x20 ADD SWAP1 DUP2 MSTORE PUSH1 0x20 ADD PUSH1 0x0 KECCAK256 PUSH1 0x0 PUSH2 0x100 EXP DUP2 SLOAD DUP2 PUSH1 0xFF MUL NOT AND SWAP1 DUP4 ISZERO ISZERO MUL OR SWAP1 SSTORE POP PUSH3 0x50C PUSH3 0x1F6 PUSH1 0x20 SHL PUSH1 0x20 SHR JUMP JUMPDEST PUSH20 0xFFFFFFFFFFFFFFFFFFFFFFFFFFFFFFFFFFFFFFFF AND DUP2 PUSH20 0xFFFFFFFFFFFFFFFFFFFFFFFFFFFFFFFFFFFFFFFF AND DUP4 PUSH32 0x2F8788117E7EFF1D82E926EC794901D17C78024A50270940304540A733656F0D PUSH1 0x40 MLOAD PUSH1 0x40 MLOAD DUP1 SWAP2 SUB SWAP1 LOG4 JUMPDEST POP POP JUMP JUMPDEST PUSH1 0x0 PUSH1 0x7 PUSH1 0x0 DUP5 DUP2 MSTORE PUSH1 0x20 ADD SWAP1 DUP2 MSTORE PUSH1 0x20 ADD PUSH1 0x0 KECCAK256 PUSH1 0x0 ADD PUSH1 0x0 DUP4 PUSH20 0xFFFFFFFFFFFFFFFFFFFFFFFFFFFFFFFFFFFFFFFF AND PUSH20 0xFFFFFFFFFFFFFFFFFFFFFFFFFFFFFFFFFFFFFFFF AND DUP2 MSTORE PUSH1 0x20 ADD SWAP1 DUP2 MSTORE PUSH1 0x20 ADD PUSH1 0x0 KECCAK256 PUSH1 0x0 SWAP1 SLOAD SWAP1 PUSH2 0x100 EXP SWAP1 DIV PUSH1 0xFF AND SWAP1 POP SWAP3 SWAP2 POP POP JUMP JUMPDEST PUSH1 0x60 PUSH1 0x0 PUSH1 0x2 DUP4 PUSH1 0x2 PUSH3 0x5EB SWAP2 SWAP1 PUSH3 0x1061 JUMP JUMPDEST PUSH3 0x5F7 SWAP2 SWAP1 PUSH3 0x12AD JUMP JUMPDEST PUSH8 0xFFFFFFFFFFFFFFFF DUP2 GT ISZERO PUSH3 0x613 JUMPI PUSH3 0x612 PUSH3 0x8FB JUMP JUMPDEST JUMPDEST PUSH1 0x40 MLOAD SWAP1 DUP1 DUP3 MSTORE DUP1 PUSH1 0x1F ADD PUSH1 0x1F NOT AND PUSH1 0x20 ADD DUP3 ADD PUSH1 0x40 MSTORE DUP1 ISZERO PUSH3 0x646 JUMPI DUP2 PUSH1 0x20 ADD PUSH1 0x1 DUP3 MUL DUP1 CALLDATASIZE DUP4 CALLDATACOPY DUP1 DUP3 ADD SWAP2 POP POP SWAP1 POP JUMPDEST POP SWAP1 POP PUSH32 0x3000000000000000000000000000000000000000000000000000000000000000 DUP2 PUSH1 0x0 DUP2 MLOAD DUP2 LT PUSH3 0x681 JUMPI PUSH3 0x680 PUSH3 0xC84 JUMP JUMPDEST JUMPDEST PUSH1 0x20 ADD ADD SWAP1 PUSH31 0xFFFFFFFFFFFFFFFFFFFFFFFFFFFFFFFFFFFFFFFFFFFFFFFFFFFFFFFFFFFFFF NOT AND SWAP1 DUP2 PUSH1 0x0 BYTE SWAP1 MSTORE8 POP PUSH32 0x7800000000000000000000000000000000000000000000000000000000000000 DUP2 PUSH1 0x1 DUP2 MLOAD DUP2 LT PUSH3 0x6E8 JUMPI PUSH3 0x6E7 PUSH3 0xC84 JUMP JUMPDEST JUMPDEST PUSH1 0x20 ADD ADD SWAP1 PUSH31 0xFFFFFFFFFFFFFFFFFFFFFFFFFFFFFFFFFFFFFFFFFFFFFFFFFFFFFFFFFFFFFF NOT AND SWAP1 DUP2 PUSH1 0x0 BYTE SWAP1 MSTORE8 POP PUSH1 0x0 PUSH1 0x1 DUP5 PUSH1 0x2 PUSH3 0x72A SWAP2 SWAP1 PUSH3 0x1061 JUMP JUMPDEST PUSH3 0x736 SWAP2 SWAP1 PUSH3 0x12AD JUMP JUMPDEST SWAP1 POP JUMPDEST PUSH1 0x1 DUP2 GT ISZERO PUSH3 0x7E0 JUMPI PUSH32 0x3031323334353637383961626364656600000000000000000000000000000000 PUSH1 0xF DUP7 AND PUSH1 0x10 DUP2 LT PUSH3 0x77C JUMPI PUSH3 0x77B PUSH3 0xC84 JUMP JUMPDEST JUMPDEST BYTE PUSH1 0xF8 SHL DUP3 DUP3 DUP2 MLOAD DUP2 LT PUSH3 0x796 JUMPI PUSH3 0x795 PUSH3 0xC84 JUMP JUMPDEST JUMPDEST PUSH1 0x20 ADD ADD SWAP1 PUSH31 0xFFFFFFFFFFFFFFFFFFFFFFFFFFFFFFFFFFFFFFFFFFFFFFFFFFFFFFFFFFFFFF NOT AND SWAP1 DUP2 PUSH1 0x0 BYTE SWAP1 MSTORE8 POP PUSH1 0x4 DUP6 SWAP1 SHR SWAP5 POP DUP1 PUSH3 0x7D8 SWAP1 PUSH3 0x12E8 JUMP JUMPDEST SWAP1 POP PUSH3 0x739 JUMP JUMPDEST POP PUSH1 0x0 DUP5 EQ PUSH3 0x827 JUMPI PUSH1 0x40 MLOAD PUSH32 0x8C379A000000000000000000000000000000000000000000000000000000000 DUP2 MSTORE PUSH1 0x4 ADD PUSH3 0x81E SWAP1 PUSH3 0x1366 JUMP JUMPDEST PUSH1 0x40 MLOAD DUP1 SWAP2 SUB SWAP1 REVERT JUMPDEST DUP1 SWAP2 POP POP SWAP3 SWAP2 POP POP JUMP JUMPDEST PUSH1 0x0 PUSH1 0x40 MLOAD SWAP1 POP SWAP1 JUMP JUMPDEST PUSH1 0x0 DUP1 REVERT JUMPDEST PUSH1 0x0 DUP1 REVERT JUMPDEST PUSH1 0x0 PUSH20 0xFFFFFFFFFFFFFFFFFFFFFFFFFFFFFFFFFFFFFFFF DUP3 AND SWAP1 POP SWAP2 SWAP1 POP JUMP JUMPDEST PUSH1 0x0 PUSH3 0x872 DUP3 PUSH3 0x845 JUMP JUMPDEST SWAP1 POP SWAP2 SWAP1 POP JUMP JUMPDEST PUSH3 0x884 DUP2 PUSH3 0x865 JUMP JUMPDEST DUP2 EQ PUSH3 0x890 JUMPI PUSH1 0x0 DUP1 REVERT JUMPDEST POP JUMP JUMPDEST PUSH1 0x0 DUP2 MLOAD SWAP1 POP PUSH3 0x8A4 DUP2 PUSH3 0x879 JUMP JUMPDEST SWAP3 SWAP2 POP POP JUMP JUMPDEST PUSH1 0x0 DUP2 SWAP1 POP SWAP2 SWAP1 POP JUMP JUMPDEST PUSH3 0x8BF DUP2 PUSH3 0x8AA JUMP JUMPDEST DUP2 EQ PUSH3 0x8CB JUMPI PUSH1 0x0 DUP1 REVERT JUMPDEST POP JUMP JUMPDEST PUSH1 0x0 DUP2 MLOAD SWAP1 POP PUSH3 0x8DF DUP2 PUSH3 0x8B4 JUMP JUMPDEST SWAP3 SWAP2 POP POP JUMP JUMPDEST PUSH1 0x0 DUP1 REVERT JUMPDEST PUSH1 0x0 PUSH1 0x1F NOT PUSH1 0x1F DUP4 ADD AND SWAP1 POP SWAP2 SWAP1 POP JUMP JUMPDEST PUSH32 0x4E487B7100000000000000000000000000000000000000000000000000000000 PUSH1 0x0 MSTORE PUSH1 0x41 PUSH1 0x4 MSTORE PUSH1 0x24 PUSH1 0x0 REVERT JUMPDEST PUSH3 0x935 DUP3 PUSH3 0x8EA JUMP JUMPDEST DUP2 ADD DUP2 DUP2 LT PUSH8 0xFFFFFFFFFFFFFFFF DUP3 GT OR ISZERO PUSH3 0x957 JUMPI PUSH3 0x956 PUSH3 0x8FB JUMP JUMPDEST JUMPDEST DUP1 PUSH1 0x40 MSTORE POP POP POP JUMP JUMPDEST PUSH1 0x0 PUSH3 0x96C PUSH3 0x831 JUMP JUMPDEST SWAP1 POP PUSH3 0x97A DUP3 DUP3 PUSH3 0x92A JUMP JUMPDEST SWAP2 SWAP1 POP JUMP JUMPDEST PUSH1 0x0 PUSH8 0xFFFFFFFFFFFFFFFF DUP3 GT ISZERO PUSH3 0x99D JUMPI PUSH3 0x99C PUSH3 0x8FB JUMP JUMPDEST JUMPDEST PUSH1 0x20 DUP3 MUL SWAP1 POP PUSH1 0x20 DUP2 ADD SWAP1 POP SWAP2 SWAP1 POP JUMP JUMPDEST PUSH1 0x0 DUP1 REVERT JUMPDEST PUSH1 0x0 PUSH3 0x9CA PUSH3 0x9C4 DUP5 PUSH3 0x97F JUMP JUMPDEST PUSH3 0x960 JUMP JUMPDEST SWAP1 POP DUP1 DUP4 DUP3 MSTORE PUSH1 0x20 DUP3 ADD SWAP1 POP PUSH1 0x20 DUP5 MUL DUP4 ADD DUP6 DUP2 GT ISZERO PUSH3 0x9F0 JUMPI PUSH3 0x9EF PUSH3 0x9AE JUMP JUMPDEST JUMPDEST DUP4 JUMPDEST DUP2 DUP2 LT ISZERO PUSH3 0xA1D JUMPI DUP1 PUSH3 0xA08 DUP9 DUP3 PUSH3 0x893 JUMP JUMPDEST DUP5 MSTORE PUSH1 0x20 DUP5 ADD SWAP4 POP POP PUSH1 0x20 DUP2 ADD SWAP1 POP PUSH3 0x9F2 JUMP JUMPDEST POP POP POP SWAP4 SWAP3 POP POP POP JUMP JUMPDEST PUSH1 0x0 DUP3 PUSH1 0x1F DUP4 ADD SLT PUSH3 0xA3F JUMPI PUSH3 0xA3E PUSH3 0x8E5 JUMP JUMPDEST JUMPDEST DUP2 MLOAD PUSH3 0xA51 DUP5 DUP3 PUSH1 0x20 DUP7 ADD PUSH3 0x9B3 JUMP JUMPDEST SWAP2 POP POP SWAP3 SWAP2 POP POP JUMP JUMPDEST PUSH1 0x0 DUP1 REVERT JUMPDEST PUSH1 0x0 PUSH8 0xFFFFFFFFFFFFFFFF DUP3 GT ISZERO PUSH3 0xA7D JUMPI PUSH3 0xA7C PUSH3 0x8FB JUMP JUMPDEST JUMPDEST PUSH3 0xA88 DUP3 PUSH3 0x8EA JUMP JUMPDEST SWAP1 POP PUSH1 0x20 DUP2 ADD SWAP1 POP SWAP2 SWAP1 POP JUMP JUMPDEST PUSH1 0x0 JUMPDEST DUP4 DUP2 LT ISZERO PUSH3 0xAB5 JUMPI DUP1 DUP3 ADD MLOAD DUP2 DUP5 ADD MSTORE PUSH1 0x20 DUP2 ADD SWAP1 POP PUSH3 0xA98 JUMP JUMPDEST PUSH1 0x0 DUP5 DUP5 ADD MSTORE POP POP POP POP JUMP JUMPDEST PUSH1 0x0 PUSH3 0xAD8 PUSH3 0xAD2 DUP5 PUSH3 0xA5F JUMP JUMPDEST PUSH3 0x960 JUMP JUMPDEST SWAP1 POP DUP3 DUP2 MSTORE PUSH1 0x20 DUP2 ADD DUP5 DUP5 DUP5 ADD GT ISZERO PUSH3 0xAF7 JUMPI PUSH3 0xAF6 PUSH3 0xA5A JUMP JUMPDEST JUMPDEST PUSH3 0xB04 DUP5 DUP3 DUP6 PUSH3 0xA95 JUMP JUMPDEST POP SWAP4 SWAP3 POP POP POP JUMP JUMPDEST PUSH1 0x0 DUP3 PUSH1 0x1F DUP4 ADD SLT PUSH3 0xB24 JUMPI PUSH3 0xB23 PUSH3 0x8E5 JUMP JUMPDEST JUMPDEST DUP2 MLOAD PUSH3 0xB36 DUP5 DUP3 PUSH1 0x20 DUP7 ADD PUSH3 0xAC1 JUMP JUMPDEST SWAP2 POP POP SWAP3 SWAP2 POP POP JUMP JUMPDEST PUSH1 0x0 DUP1 PUSH1 0x0 DUP1 PUSH1 0x0 DUP1 PUSH1 0x0 DUP1 PUSH2 0x100 DUP10 DUP12 SUB SLT ISZERO PUSH3 0xB63 JUMPI PUSH3 0xB62 PUSH3 0x83B JUMP JUMPDEST JUMPDEST PUSH1 0x0 PUSH3 0xB73 DUP12 DUP3 DUP13 ADD PUSH3 0x893 JUMP JUMPDEST SWAP9 POP POP PUSH1 0x20 PUSH3 0xB86 DUP12 DUP3 DUP13 ADD PUSH3 0x893 JUMP JUMPDEST SWAP8 POP POP PUSH1 0x40 PUSH3 0xB99 DUP12 DUP3 DUP13 ADD PUSH3 0x8CE JUMP JUMPDEST SWAP7 POP POP PUSH1 0x60 PUSH3 0xBAC DUP12 DUP3 DUP13 ADD PUSH3 0x893 JUMP JUMPDEST SWAP6 POP POP PUSH1 0x80 DUP10 ADD MLOAD PUSH8 0xFFFFFFFFFFFFFFFF DUP2 GT ISZERO PUSH3 0xBD0 JUMPI PUSH3 0xBCF PUSH3 0x840 JUMP JUMPDEST JUMPDEST PUSH3 0xBDE DUP12 DUP3 DUP13 ADD PUSH3 0xA27 JUMP JUMPDEST SWAP5 POP POP PUSH1 0xA0 DUP10 ADD MLOAD PUSH8 0xFFFFFFFFFFFFFFFF DUP2 GT ISZERO PUSH3 0xC02 JUMPI PUSH3 0xC01 PUSH3 0x840 JUMP JUMPDEST JUMPDEST PUSH3 0xC10 DUP12 DUP3 DUP13 ADD PUSH3 0xA27 JUMP JUMPDEST SWAP4 POP POP PUSH1 0xC0 DUP10 ADD MLOAD PUSH8 0xFFFFFFFFFFFFFFFF DUP2 GT ISZERO PUSH3 0xC34 JUMPI PUSH3 0xC33 PUSH3 0x840 JUMP JUMPDEST JUMPDEST PUSH3 0xC42 DUP12 DUP3 DUP13 ADD PUSH3 0xB0C JUMP JUMPDEST SWAP3 POP POP PUSH1 0xE0 DUP10 ADD MLOAD PUSH8 0xFFFFFFFFFFFFFFFF DUP2 GT ISZERO PUSH3 0xC66 JUMPI PUSH3 0xC65 PUSH3 0x840 JUMP JUMPDEST JUMPDEST PUSH3 0xC74 DUP12 DUP3 DUP13 ADD PUSH3 0xB0C JUMP JUMPDEST SWAP2 POP POP SWAP3 SWAP6 SWAP9 POP SWAP3 SWAP6 SWAP9 SWAP1 SWAP4 SWAP7 POP JUMP JUMPDEST PUSH32 0x4E487B7100000000000000000000000000000000000000000000000000000000 PUSH1 0x0 MSTORE PUSH1 0x32 PUSH1 0x4 MSTORE PUSH1 0x24 PUSH1 0x0 REVERT JUMPDEST PUSH32 0x4E487B7100000000000000000000000000000000000000000000000000000000 PUSH1 0x0 MSTORE PUSH1 0x11 PUSH1 0x4 MSTORE PUSH1 0x24 PUSH1 0x0 REVERT JUMPDEST PUSH1 0x0 DUP2 SWAP1 POP SWAP2 SWAP1 POP JUMP JUMPDEST PUSH1 0x0 PUSH3 0xCF9 DUP3 PUSH3 0xCE2 JUMP JUMPDEST SWAP2 POP PUSH32 0xFFFFFFFFFFFFFFFFFFFFFFFFFFFFFFFFFFFFFFFFFFFFFFFFFFFFFFFFFFFFFFFF DUP3 SUB PUSH3 0xD2E JUMPI PUSH3 0xD2D PUSH3 0xCB3 JUMP JUMPDEST JUMPDEST PUSH1 0x1 DUP3 ADD SWAP1 POP SWAP2 SWAP1 POP JUMP JUMPDEST PUSH1 0x0 DUP2 MLOAD SWAP1 POP SWAP2 SWAP1 POP JUMP JUMPDEST PUSH32 0x4E487B7100000000000000000000000000000000000000000000000000000000 PUSH1 0x0 MSTORE PUSH1 0x22 PUSH1 0x4 MSTORE PUSH1 0x24 PUSH1 0x0 REVERT JUMPDEST PUSH1 0x0 PUSH1 0x2 DUP3 DIV SWAP1 POP PUSH1 0x1 DUP3 AND DUP1 PUSH3 0xD8C JUMPI PUSH1 0x7F DUP3 AND SWAP2 POP JUMPDEST PUSH1 0x20 DUP3 LT DUP2 SUB PUSH3 0xDA2 JUMPI PUSH3 0xDA1 PUSH3 0xD44 JUMP JUMPDEST JUMPDEST POP SWAP2 SWAP1 POP JUMP JUMPDEST PUSH1 0x0 DUP2 SWAP1 POP DUP2 PUSH1 0x0 MSTORE PUSH1 0x20 PUSH1 0x0 KECCAK256 SWAP1 POP SWAP2 SWAP1 POP JUMP JUMPDEST PUSH1 0x0 PUSH1 0x20 PUSH1 0x1F DUP4 ADD DIV SWAP1 POP SWAP2 SWAP1 POP JUMP JUMPDEST PUSH1 0x0 DUP3 DUP3 SHL SWAP1 POP SWAP3 SWAP2 POP POP JUMP JUMPDEST PUSH1 0x0 PUSH1 0x8 DUP4 MUL PUSH3 0xE0C PUSH32 0xFFFFFFFFFFFFFFFFFFFFFFFFFFFFFFFFFFFFFFFFFFFFFFFFFFFFFFFFFFFFFFFF DUP3 PUSH3 0xDCD JUMP JUMPDEST PUSH3 0xE18 DUP7 DUP4 PUSH3 0xDCD JUMP JUMPDEST SWAP6 POP DUP1 NOT DUP5 AND SWAP4 POP DUP1 DUP7 AND DUP5 OR SWAP3 POP POP POP SWAP4 SWAP3 POP POP POP JUMP JUMPDEST PUSH1 0x0 DUP2 SWAP1 POP SWAP2 SWAP1 POP JUMP JUMPDEST PUSH1 0x0 PUSH3 0xE5B PUSH3 0xE55 PUSH3 0xE4F DUP5 PUSH3 0xCE2 JUMP JUMPDEST PUSH3 0xE30 JUMP JUMPDEST PUSH3 0xCE2 JUMP JUMPDEST SWAP1 POP SWAP2 SWAP1 POP JUMP JUMPDEST PUSH1 0x0 DUP2 SWAP1 POP SWAP2 SWAP1 POP JUMP JUMPDEST PUSH3 0xE77 DUP4 PUSH3 0xE3A JUMP JUMPDEST PUSH3 0xE8F PUSH3 0xE86 DUP3 PUSH3 0xE62 JUMP JUMPDEST DUP5 DUP5 SLOAD PUSH3 0xDDA JUMP JUMPDEST DUP3 SSTORE POP POP POP POP JUMP JUMPDEST PUSH1 0x0 SWAP1 JUMP JUMPDEST PUSH3 0xEA6 PUSH3 0xE97 JUMP JUMPDEST PUSH3 0xEB3 DUP2 DUP5 DUP5 PUSH3 0xE6C JUMP JUMPDEST POP POP POP JUMP JUMPDEST JUMPDEST DUP2 DUP2 LT ISZERO PUSH3 0xEDB JUMPI PUSH3 0xECF PUSH1 0x0 DUP3 PUSH3 0xE9C JUMP JUMPDEST PUSH1 0x1 DUP2 ADD SWAP1 POP PUSH3 0xEB9 JUMP JUMPDEST POP POP JUMP JUMPDEST PUSH1 0x1F DUP3 GT ISZERO PUSH3 0xF2A JUMPI PUSH3 0xEF4 DUP2 PUSH3 0xDA8 JUMP JUMPDEST PUSH3 0xEFF DUP5 PUSH3 0xDBD JUMP JUMPDEST DUP2 ADD PUSH1 0x20 DUP6 LT ISZERO PUSH3 0xF0F JUMPI DUP2 SWAP1 POP JUMPDEST PUSH3 0xF27 PUSH3 0xF1E DUP6 PUSH3 0xDBD JUMP JUMPDEST DUP4 ADD DUP3 PUSH3 0xEB8 JUMP JUMPDEST POP POP JUMPDEST POP POP POP JUMP JUMPDEST PUSH1 0x0 DUP3 DUP3 SHR SWAP1 POP SWAP3 SWAP2 POP POP JUMP JUMPDEST PUSH1 0x0 PUSH3 0xF4F PUSH1 0x0 NOT DUP5 PUSH1 0x8 MUL PUSH3 0xF2F JUMP JUMPDEST NOT DUP1 DUP4 AND SWAP2 POP POP SWAP3 SWAP2 POP POP JUMP JUMPDEST PUSH1 0x0 PUSH3 0xF6A DUP4 DUP4 PUSH3 0xF3C JUMP JUMPDEST SWAP2 POP DUP3 PUSH1 0x2 MUL DUP3 OR SWAP1 POP SWAP3 SWAP2 POP POP JUMP JUMPDEST PUSH3 0xF85 DUP3 PUSH3 0xD39 JUMP JUMPDEST PUSH8 0xFFFFFFFFFFFFFFFF DUP2 GT ISZERO PUSH3 0xFA1 JUMPI PUSH3 0xFA0 PUSH3 0x8FB JUMP JUMPDEST JUMPDEST PUSH3 0xFAD DUP3 SLOAD PUSH3 0xD73 JUMP JUMPDEST PUSH3 0xFBA DUP3 DUP3 DUP6 PUSH3 0xEDF JUMP JUMPDEST PUSH1 0x0 PUSH1 0x20 SWAP1 POP PUSH1 0x1F DUP4 GT PUSH1 0x1 DUP2 EQ PUSH3 0xFF2 JUMPI PUSH1 0x0 DUP5 ISZERO PUSH3 0xFDD JUMPI DUP3 DUP8 ADD MLOAD SWAP1 POP JUMPDEST PUSH3 0xFE9 DUP6 DUP3 PUSH3 0xF5C JUMP JUMPDEST DUP7 SSTORE POP PUSH3 0x1059 JUMP JUMPDEST PUSH1 0x1F NOT DUP5 AND PUSH3 0x1002 DUP7 PUSH3 0xDA8 JUMP JUMPDEST PUSH1 0x0 JUMPDEST DUP3 DUP2 LT ISZERO PUSH3 0x102C JUMPI DUP5 DUP10 ADD MLOAD DUP3 SSTORE PUSH1 0x1 DUP3 ADD SWAP2 POP PUSH1 0x20 DUP6 ADD SWAP5 POP PUSH1 0x20 DUP2 ADD SWAP1 POP PUSH3 0x1005 JUMP JUMPDEST DUP7 DUP4 LT ISZERO PUSH3 0x104C JUMPI DUP5 DUP10 ADD MLOAD PUSH3 0x1048 PUSH1 0x1F DUP10 AND DUP3 PUSH3 0xF3C JUMP JUMPDEST DUP4 SSTORE POP JUMPDEST PUSH1 0x1 PUSH1 0x2 DUP9 MUL ADD DUP9 SSTORE POP POP POP JUMPDEST POP POP POP POP POP POP JUMP JUMPDEST PUSH1 0x0 PUSH3 0x106E DUP3 PUSH3 0xCE2 JUMP JUMPDEST SWAP2 POP PUSH3 0x107B DUP4 PUSH3 0xCE2 JUMP JUMPDEST SWAP3 POP DUP3 DUP3 MUL PUSH3 0x108B DUP2 PUSH3 0xCE2 JUMP JUMPDEST SWAP2 POP DUP3 DUP3 DIV DUP5 EQ DUP4 ISZERO OR PUSH3 0x10A5 JUMPI PUSH3 0x10A4 PUSH3 0xCB3 JUMP JUMPDEST JUMPDEST POP SWAP3 SWAP2 POP POP JUMP JUMPDEST PUSH32 0x4E487B7100000000000000000000000000000000000000000000000000000000 PUSH1 0x0 MSTORE PUSH1 0x12 PUSH1 0x4 MSTORE PUSH1 0x24 PUSH1 0x0 REVERT JUMPDEST PUSH1 0x0 PUSH3 0x10E8 DUP3 PUSH3 0xCE2 JUMP JUMPDEST SWAP2 POP PUSH3 0x10F5 DUP4 PUSH3 0xCE2 JUMP JUMPDEST SWAP3 POP DUP3 PUSH3 0x1108 JUMPI PUSH3 0x1107 PUSH3 0x10AC JUMP JUMPDEST JUMPDEST DUP3 DUP3 DIV SWAP1 POP SWAP3 SWAP2 POP POP JUMP JUMPDEST PUSH1 0x0 DUP2 SWAP1 POP SWAP3 SWAP2 POP POP JUMP JUMPDEST PUSH32 0x416363657373436F6E74726F6C3A206163636F756E7420000000000000000000 PUSH1 0x0 DUP3 ADD MSTORE POP JUMP JUMPDEST PUSH1 0x0 PUSH3 0x1156 PUSH1 0x17 DUP4 PUSH3 0x1113 JUMP JUMPDEST SWAP2 POP PUSH3 0x1163 DUP3 PUSH3 0x111E JUMP JUMPDEST PUSH1 0x17 DUP3 ADD SWAP1 POP SWAP2 SWAP1 POP JUMP JUMPDEST PUSH1 0x0 PUSH3 0x117B DUP3 PUSH3 0xD39 JUMP JUMPDEST PUSH3 0x1187 DUP2 DUP6 PUSH3 0x1113 JUMP JUMPDEST SWAP4 POP PUSH3 0x1199 DUP2 DUP6 PUSH1 0x20 DUP7 ADD PUSH3 0xA95 JUMP JUMPDEST DUP1 DUP5 ADD SWAP2 POP POP SWAP3 SWAP2 POP POP JUMP JUMPDEST PUSH32 0x206973206D697373696E6720726F6C6520000000000000000000000000000000 PUSH1 0x0 DUP3 ADD MSTORE POP JUMP JUMPDEST PUSH1 0x0 PUSH3 0x11DD PUSH1 0x11 DUP4 PUSH3 0x1113 JUMP JUMPDEST SWAP2 POP PUSH3 0x11EA DUP3 PUSH3 0x11A5 JUMP JUMPDEST PUSH1 0x11 DUP3 ADD SWAP1 POP SWAP2 SWAP1 POP JUMP JUMPDEST PUSH1 0x0 PUSH3 0x1202 DUP3 PUSH3 0x1147 JUMP JUMPDEST SWAP2 POP PUSH3 0x1210 DUP3 DUP6 PUSH3 0x116E JUMP JUMPDEST SWAP2 POP PUSH3 0x121D DUP3 PUSH3 0x11CE JUMP JUMPDEST SWAP2 POP PUSH3 0x122B DUP3 DUP5 PUSH3 0x116E JUMP JUMPDEST SWAP2 POP DUP2 SWAP1 POP SWAP4 SWAP3 POP POP POP JUMP JUMPDEST PUSH1 0x0 DUP3 DUP3 MSTORE PUSH1 0x20 DUP3 ADD SWAP1 POP SWAP3 SWAP2 POP POP JUMP JUMPDEST PUSH1 0x0 PUSH3 0x1255 DUP3 PUSH3 0xD39 JUMP JUMPDEST PUSH3 0x1261 DUP2 DUP6 PUSH3 0x1237 JUMP JUMPDEST SWAP4 POP PUSH3 0x1273 DUP2 DUP6 PUSH1 0x20 DUP7 ADD PUSH3 0xA95 JUMP JUMPDEST PUSH3 0x127E DUP2 PUSH3 0x8EA JUMP JUMPDEST DUP5 ADD SWAP2 POP POP SWAP3 SWAP2 POP POP JUMP JUMPDEST PUSH1 0x0 PUSH1 0x20 DUP3 ADD SWAP1 POP DUP2 DUP2 SUB PUSH1 0x0 DUP4 ADD MSTORE PUSH3 0x12A5 DUP2 DUP5 PUSH3 0x1248 JUMP JUMPDEST SWAP1 POP SWAP3 SWAP2 POP POP JUMP JUMPDEST PUSH1 0x0 PUSH3 0x12BA DUP3 PUSH3 0xCE2 JUMP JUMPDEST SWAP2 POP PUSH3 0x12C7 DUP4 PUSH3 0xCE2 JUMP JUMPDEST SWAP3 POP DUP3 DUP3 ADD SWAP1 POP DUP1 DUP3 GT ISZERO PUSH3 0x12E2 JUMPI PUSH3 0x12E1 PUSH3 0xCB3 JUMP JUMPDEST JUMPDEST SWAP3 SWAP2 POP POP JUMP JUMPDEST PUSH1 0x0 PUSH3 0x12F5 DUP3 PUSH3 0xCE2 JUMP JUMPDEST SWAP2 POP PUSH1 0x0 DUP3 SUB PUSH3 0x130B JUMPI PUSH3 0x130A PUSH3 0xCB3 JUMP JUMPDEST JUMPDEST PUSH1 0x1 DUP3 SUB SWAP1 POP SWAP2 SWAP1 POP JUMP JUMPDEST PUSH32 0x537472696E67733A20686578206C656E67746820696E73756666696369656E74 PUSH1 0x0 DUP3 ADD MSTORE POP JUMP JUMPDEST PUSH1 0x0 PUSH3 0x134E PUSH1 0x20 DUP4 PUSH3 0x1237 JUMP JUMPDEST SWAP2 POP PUSH3 0x135B DUP3 PUSH3 0x1316 JUMP JUMPDEST PUSH1 0x20 DUP3 ADD SWAP1 POP SWAP2 SWAP1 POP JUMP JUMPDEST PUSH1 0x0 PUSH1 0x20 DUP3 ADD SWAP1 POP DUP2 DUP2 SUB PUSH1 0x0 DUP4 ADD MSTORE PUSH3 0x1381 DUP2 PUSH3 0x133F JUMP JUMPDEST SWAP1 POP SWAP2 SWAP1 POP JUMP JUMPDEST PUSH2 0x48E0 DUP1 PUSH3 0x1398 PUSH1 0x0 CODECOPY PUSH1 0x0 RETURN INVALID PUSH1 0x80 PUSH1 0x40 MSTORE PUSH1 0x4 CALLDATASIZE LT PUSH2 0x1B7 JUMPI PUSH1 0x0 CALLDATALOAD PUSH1 0xE0 SHR DUP1 PUSH4 0x7D807730 GT PUSH2 0xEC JUMPI DUP1 PUSH4 0xA5C86B77 GT PUSH2 0x8A JUMPI DUP1 PUSH4 0xD547741F GT PUSH2 0x64 JUMPI DUP1 PUSH4 0xD547741F EQ PUSH2 0x5F5 JUMPI DUP1 PUSH4 0xE932406F EQ PUSH2 0x61E JUMPI DUP1 PUSH4 0xF08E362F EQ PUSH2 0x649 JUMPI DUP1 PUSH4 0xF2FDE38B EQ PUSH2 0x672 JUMPI PUSH2 0x1B7 JUMP JUMPDEST DUP1 PUSH4 0xA5C86B77 EQ PUSH2 0x578 JUMPI DUP1 PUSH4 0xB3DB9F1A EQ PUSH2 0x5A1 JUMPI DUP1 PUSH4 0xBFD5C6DF EQ PUSH2 0x5CC JUMPI PUSH2 0x1B7 JUMP JUMPDEST DUP1 PUSH4 0x8F83AB13 GT PUSH2 0xC6 JUMPI DUP1 PUSH4 0x8F83AB13 EQ PUSH2 0x4BE JUMPI DUP1 PUSH4 0x91D14854 EQ PUSH2 0x4E7 JUMPI DUP1 PUSH4 0xA0949595 EQ PUSH2 0x524 JUMPI DUP1 PUSH4 0xA217FDDF EQ PUSH2 0x54D JUMPI PUSH2 0x1B7 JUMP JUMPDEST DUP1 PUSH4 0x7D807730 EQ PUSH2 0x453 JUMPI DUP1 PUSH4 0x8B4AC639 EQ PUSH2 0x46A JUMPI DUP1 PUSH4 0x8DA5CB5B EQ PUSH2 0x493 JUMPI PUSH2 0x1B7 JUMP JUMPDEST DUP1 PUSH4 0x4357855E GT PUSH2 0x159 JUMPI DUP1 PUSH4 0x55FB9D08 GT PUSH2 0x133 JUMPI DUP1 PUSH4 0x55FB9D08 EQ PUSH2 0x3B8 JUMPI DUP1 PUSH4 0x715018A6 EQ PUSH2 0x3F5 JUMPI DUP1 PUSH4 0x75B238FC EQ PUSH2 0x40C JUMPI DUP1 PUSH4 0x779A3611 EQ PUSH2 0x437 JUMPI PUSH2 0x1B7 JUMP JUMPDEST DUP1 PUSH4 0x4357855E EQ PUSH2 0x33B JUMPI DUP1 PUSH4 0x4D1975B4 EQ PUSH2 0x364 JUMPI DUP1 PUSH4 0x4ECA519F EQ PUSH2 0x38F JUMPI PUSH2 0x1B7 JUMP JUMPDEST DUP1 PUSH4 0x248A9CA3 GT PUSH2 0x195 JUMPI DUP1 PUSH4 0x248A9CA3 EQ PUSH2 0x269 JUMPI DUP1 PUSH4 0x2F2FF15D EQ PUSH2 0x2A6 JUMPI DUP1 PUSH4 0x36568ABE EQ PUSH2 0x2CF JUMPI DUP1 PUSH4 0x3B6E6F1B EQ PUSH2 0x2F8 JUMPI PUSH2 0x1B7 JUMP JUMPDEST DUP1 PUSH4 0x1FFC9A7 EQ PUSH2 0x1BC JUMPI DUP1 PUSH4 0x117A5B90 EQ PUSH2 0x1F9 JUMPI DUP1 PUSH4 0x2483E715 EQ PUSH2 0x23E JUMPI JUMPDEST PUSH1 0x0 DUP1 REVERT JUMPDEST CALLVALUE DUP1 ISZERO PUSH2 0x1C8 JUMPI PUSH1 0x0 DUP1 REVERT JUMPDEST POP PUSH2 0x1E3 PUSH1 0x4 DUP1 CALLDATASIZE SUB DUP2 ADD SWAP1 PUSH2 0x1DE SWAP2 SWAP1 PUSH2 0x3075 JUMP JUMPDEST PUSH2 0x69B JUMP JUMPDEST PUSH1 0x40 MLOAD PUSH2 0x1F0 SWAP2 SWAP1 PUSH2 0x30BD JUMP JUMPDEST PUSH1 0x40 MLOAD DUP1 SWAP2 SUB SWAP1 RETURN JUMPDEST CALLVALUE DUP1 ISZERO PUSH2 0x205 JUMPI PUSH1 0x0 DUP1 REVERT JUMPDEST POP PUSH2 0x220 PUSH1 0x4 DUP1 CALLDATASIZE SUB DUP2 ADD SWAP1 PUSH2 0x21B SWAP2 SWAP1 PUSH2 0x310E JUMP JUMPDEST PUSH2 0x715 JUMP JUMPDEST PUSH1 0x40 MLOAD PUSH2 0x235 SWAP10 SWAP9 SWAP8 SWAP7 SWAP6 SWAP5 SWAP4 SWAP3 SWAP2 SWAP1 PUSH2 0x31DA JUMP JUMPDEST PUSH1 0x40 MLOAD DUP1 SWAP2 SUB SWAP1 RETURN JUMPDEST CALLVALUE DUP1 ISZERO PUSH2 0x24A JUMPI PUSH1 0x0 DUP1 REVERT JUMPDEST POP PUSH2 0x253 PUSH2 0x880 JUMP JUMPDEST PUSH1 0x40 MLOAD PUSH2 0x260 SWAP2 SWAP1 PUSH2 0x328E JUMP JUMPDEST PUSH1 0x40 MLOAD DUP1 SWAP2 SUB SWAP1 RETURN JUMPDEST CALLVALUE DUP1 ISZERO PUSH2 0x275 JUMPI PUSH1 0x0 DUP1 REVERT JUMPDEST POP PUSH2 0x290 PUSH1 0x4 DUP1 CALLDATASIZE SUB DUP2 ADD SWAP1 PUSH2 0x28B SWAP2 SWAP1 PUSH2 0x32D5 JUMP JUMPDEST PUSH2 0x8A4 JUMP JUMPDEST PUSH1 0x40 MLOAD PUSH2 0x29D SWAP2 SWAP1 PUSH2 0x328E JUMP JUMPDEST PUSH1 0x40 MLOAD DUP1 SWAP2 SUB SWAP1 RETURN JUMPDEST CALLVALUE DUP1 ISZERO PUSH2 0x2B2 JUMPI PUSH1 0x0 DUP1 REVERT JUMPDEST POP PUSH2 0x2CD PUSH1 0x4 DUP1 CALLDATASIZE SUB DUP2 ADD SWAP1 PUSH2 0x2C8 SWAP2 SWAP1 PUSH2 0x3360 JUMP JUMPDEST PUSH2 0x8C4 JUMP JUMPDEST STOP JUMPDEST CALLVALUE DUP1 ISZERO PUSH2 0x2DB JUMPI PUSH1 0x0 DUP1 REVERT JUMPDEST POP PUSH2 0x2F6 PUSH1 0x4 DUP1 CALLDATASIZE SUB DUP2 ADD SWAP1 PUSH2 0x2F1 SWAP2 SWAP1 PUSH2 0x3360 JUMP JUMPDEST PUSH2 0x8ED JUMP JUMPDEST STOP JUMPDEST CALLVALUE DUP1 ISZERO PUSH2 0x304 JUMPI PUSH1 0x0 DUP1 REVERT JUMPDEST POP PUSH2 0x31F PUSH1 0x4 DUP1 CALLDATASIZE SUB DUP2 ADD SWAP1 PUSH2 0x31A SWAP2 SWAP1 PUSH2 0x33A0 JUMP JUMPDEST PUSH2 0x970 JUMP JUMPDEST PUSH1 0x40 MLOAD PUSH2 0x332 SWAP8 SWAP7 SWAP6 SWAP5 SWAP4 SWAP3 SWAP2 SWAP1 PUSH2 0x33EF JUMP JUMPDEST PUSH1 0x40 MLOAD DUP1 SWAP2 SUB SWAP1 RETURN JUMPDEST CALLVALUE DUP1 ISZERO PUSH2 0x347 JUMPI PUSH1 0x0 DUP1 REVERT JUMPDEST POP PUSH2 0x362 PUSH1 0x4 DUP1 CALLDATASIZE SUB DUP2 ADD SWAP1 PUSH2 0x35D SWAP2 SWAP1 PUSH2 0x345E JUMP JUMPDEST PUSH2 0x9F9 JUMP JUMPDEST STOP JUMPDEST CALLVALUE DUP1 ISZERO PUSH2 0x370 JUMPI PUSH1 0x0 DUP1 REVERT JUMPDEST POP PUSH2 0x379 PUSH2 0xB42 JUMP JUMPDEST PUSH1 0x40 MLOAD PUSH2 0x386 SWAP2 SWAP1 PUSH2 0x349E JUMP JUMPDEST PUSH1 0x40 MLOAD DUP1 SWAP2 SUB SWAP1 RETURN JUMPDEST CALLVALUE DUP1 ISZERO PUSH2 0x39B JUMPI PUSH1 0x0 DUP1 REVERT JUMPDEST POP PUSH2 0x3B6 PUSH1 0x4 DUP1 CALLDATASIZE SUB DUP2 ADD SWAP1 PUSH2 0x3B1 SWAP2 SWAP1 PUSH2 0x32D5 JUMP JUMPDEST PUSH2 0xB48 JUMP JUMPDEST STOP JUMPDEST CALLVALUE DUP1 ISZERO PUSH2 0x3C4 JUMPI PUSH1 0x0 DUP1 REVERT JUMPDEST POP PUSH2 0x3DF PUSH1 0x4 DUP1 CALLDATASIZE SUB DUP2 ADD SWAP1 PUSH2 0x3DA SWAP2 SWAP1 PUSH2 0x310E JUMP JUMPDEST PUSH2 0xBF8 JUMP JUMPDEST PUSH1 0x40 MLOAD PUSH2 0x3EC SWAP2 SWAP1 PUSH2 0x349E JUMP JUMPDEST PUSH1 0x40 MLOAD DUP1 SWAP2 SUB SWAP1 RETURN JUMPDEST CALLVALUE DUP1 ISZERO PUSH2 0x401 JUMPI PUSH1 0x0 DUP1 REVERT JUMPDEST POP PUSH2 0x40A PUSH2 0xD3F JUMP JUMPDEST STOP JUMPDEST CALLVALUE DUP1 ISZERO PUSH2 0x418 JUMPI PUSH1 0x0 DUP1 REVERT JUMPDEST POP PUSH2 0x421 PUSH2 0xDC7 JUMP JUMPDEST PUSH1 0x40 MLOAD PUSH2 0x42E SWAP2 SWAP1 PUSH2 0x328E JUMP JUMPDEST PUSH1 0x40 MLOAD DUP1 SWAP2 SUB SWAP1 RETURN JUMPDEST PUSH2 0x451 PUSH1 0x4 DUP1 CALLDATASIZE SUB DUP2 ADD SWAP1 PUSH2 0x44C SWAP2 SWAP1 PUSH2 0x34B9 JUMP JUMPDEST PUSH2 0xDEB JUMP JUMPDEST STOP JUMPDEST CALLVALUE DUP1 ISZERO PUSH2 0x45F JUMPI PUSH1 0x0 DUP1 REVERT JUMPDEST POP PUSH2 0x468 PUSH2 0x10E4 JUMP JUMPDEST STOP JUMPDEST CALLVALUE DUP1 ISZERO PUSH2 0x476 JUMPI PUSH1 0x0 DUP1 REVERT JUMPDEST POP PUSH2 0x491 PUSH1 0x4 DUP1 CALLDATASIZE SUB DUP2 ADD SWAP1 PUSH2 0x48C SWAP2 SWAP1 PUSH2 0x345E JUMP JUMPDEST PUSH2 0x114F JUMP JUMPDEST STOP JUMPDEST CALLVALUE DUP1 ISZERO PUSH2 0x49F JUMPI PUSH1 0x0 DUP1 REVERT JUMPDEST POP PUSH2 0x4A8 PUSH2 0x1298 JUMP JUMPDEST PUSH1 0x40 MLOAD PUSH2 0x4B5 SWAP2 SWAP1 PUSH2 0x350C JUMP JUMPDEST PUSH1 0x40 MLOAD DUP1 SWAP2 SUB SWAP1 RETURN JUMPDEST CALLVALUE DUP1 ISZERO PUSH2 0x4CA JUMPI PUSH1 0x0 DUP1 REVERT JUMPDEST POP PUSH2 0x4E5 PUSH1 0x4 DUP1 CALLDATASIZE SUB DUP2 ADD SWAP1 PUSH2 0x4E0 SWAP2 SWAP1 PUSH2 0x3527 JUMP JUMPDEST PUSH2 0x12C2 JUMP JUMPDEST STOP JUMPDEST CALLVALUE DUP1 ISZERO PUSH2 0x4F3 JUMPI PUSH1 0x0 DUP1 REVERT JUMPDEST POP PUSH2 0x50E PUSH1 0x4 DUP1 CALLDATASIZE SUB DUP2 ADD SWAP1 PUSH2 0x509 SWAP2 SWAP1 PUSH2 0x3360 JUMP JUMPDEST PUSH2 0x1395 JUMP JUMPDEST PUSH1 0x40 MLOAD PUSH2 0x51B SWAP2 SWAP1 PUSH2 0x30BD JUMP JUMPDEST PUSH1 0x40 MLOAD DUP1 SWAP2 SUB SWAP1 RETURN JUMPDEST CALLVALUE DUP1 ISZERO PUSH2 0x530 JUMPI PUSH1 0x0 DUP1 REVERT JUMPDEST POP PUSH2 0x54B PUSH1 0x4 DUP1 CALLDATASIZE SUB DUP2 ADD SWAP1 PUSH2 0x546 SWAP2 SWAP1 PUSH2 0x34B9 JUMP JUMPDEST PUSH2 0x1400 JUMP JUMPDEST STOP JUMPDEST CALLVALUE DUP1 ISZERO PUSH2 0x559 JUMPI PUSH1 0x0 DUP1 REVERT JUMPDEST POP PUSH2 0x562 PUSH2 0x1AAF JUMP JUMPDEST PUSH1 0x40 MLOAD PUSH2 0x56F SWAP2 SWAP1 PUSH2 0x328E JUMP JUMPDEST PUSH1 0x40 MLOAD DUP1 SWAP2 SUB SWAP1 RETURN JUMPDEST CALLVALUE DUP1 ISZERO PUSH2 0x584 JUMPI PUSH1 0x0 DUP1 REVERT JUMPDEST POP PUSH2 0x59F PUSH1 0x4 DUP1 CALLDATASIZE SUB DUP2 ADD SWAP1 PUSH2 0x59A SWAP2 SWAP1 PUSH2 0x3689 JUMP JUMPDEST PUSH2 0x1AB6 JUMP JUMPDEST STOP JUMPDEST CALLVALUE DUP1 ISZERO PUSH2 0x5AD JUMPI PUSH1 0x0 DUP1 REVERT JUMPDEST POP PUSH2 0x5B6 PUSH2 0x1CF6 JUMP JUMPDEST PUSH1 0x40 MLOAD PUSH2 0x5C3 SWAP2 SWAP1 PUSH2 0x349E JUMP JUMPDEST PUSH1 0x40 MLOAD DUP1 SWAP2 SUB SWAP1 RETURN JUMPDEST CALLVALUE DUP1 ISZERO PUSH2 0x5D8 JUMPI PUSH1 0x0 DUP1 REVERT JUMPDEST POP PUSH2 0x5F3 PUSH1 0x4 DUP1 CALLDATASIZE SUB DUP2 ADD SWAP1 PUSH2 0x5EE SWAP2 SWAP1 PUSH2 0x3714 JUMP JUMPDEST PUSH2 0x1CFC JUMP JUMPDEST STOP JUMPDEST CALLVALUE DUP1 ISZERO PUSH2 0x601 JUMPI PUSH1 0x0 DUP1 REVERT JUMPDEST POP PUSH2 0x61C PUSH1 0x4 DUP1 CALLDATASIZE SUB DUP2 ADD SWAP1 PUSH2 0x617 SWAP2 SWAP1 PUSH2 0x3360 JUMP JUMPDEST PUSH2 0x1DB5 JUMP JUMPDEST STOP JUMPDEST CALLVALUE DUP1 ISZERO PUSH2 0x62A JUMPI PUSH1 0x0 DUP1 REVERT JUMPDEST POP PUSH2 0x633 PUSH2 0x1DDE JUMP JUMPDEST PUSH1 0x40 MLOAD PUSH2 0x640 SWAP2 SWAP1 PUSH2 0x328E JUMP JUMPDEST PUSH1 0x40 MLOAD DUP1 SWAP2 SUB SWAP1 RETURN JUMPDEST CALLVALUE DUP1 ISZERO PUSH2 0x655 JUMPI PUSH1 0x0 DUP1 REVERT JUMPDEST POP PUSH2 0x670 PUSH1 0x4 DUP1 CALLDATASIZE SUB DUP2 ADD SWAP1 PUSH2 0x66B SWAP2 SWAP1 PUSH2 0x379B JUMP JUMPDEST PUSH2 0x1E02 JUMP JUMPDEST STOP JUMPDEST CALLVALUE DUP1 ISZERO PUSH2 0x67E JUMPI PUSH1 0x0 DUP1 REVERT JUMPDEST POP PUSH2 0x699 PUSH1 0x4 DUP1 CALLDATASIZE SUB DUP2 ADD SWAP1 PUSH2 0x694 SWAP2 SWAP1 PUSH2 0x3527 JUMP JUMPDEST PUSH2 0x1EC9 JUMP JUMPDEST STOP JUMPDEST PUSH1 0x0 PUSH32 0x7965DB0B00000000000000000000000000000000000000000000000000000000 PUSH28 0xFFFFFFFFFFFFFFFFFFFFFFFFFFFFFFFFFFFFFFFFFFFFFFFFFFFFFFFF NOT AND DUP3 PUSH28 0xFFFFFFFFFFFFFFFFFFFFFFFFFFFFFFFFFFFFFFFFFFFFFFFFFFFFFFFF NOT AND EQ DUP1 PUSH2 0x70E JUMPI POP PUSH2 0x70D DUP3 PUSH2 0x21FC JUMP JUMPDEST JUMPDEST SWAP1 POP SWAP2 SWAP1 POP JUMP JUMPDEST PUSH1 0x9 PUSH1 0x20 MSTORE DUP1 PUSH1 0x0 MSTORE PUSH1 0x40 PUSH1 0x0 KECCAK256 PUSH1 0x0 SWAP2 POP SWAP1 POP DUP1 PUSH1 0x0 ADD DUP1 SLOAD PUSH2 0x738 SWAP1 PUSH2 0x380A JUMP JUMPDEST DUP1 PUSH1 0x1F ADD PUSH1 0x20 DUP1 SWAP2 DIV MUL PUSH1 0x20 ADD PUSH1 0x40 MLOAD SWAP1 DUP2 ADD PUSH1 0x40 MSTORE DUP1 SWAP3 SWAP2 SWAP1 DUP2 DUP2 MSTORE PUSH1 0x20 ADD DUP3 DUP1 SLOAD PUSH2 0x764 SWAP1 PUSH2 0x380A JUMP JUMPDEST DUP1 ISZERO PUSH2 0x7B1 JUMPI DUP1 PUSH1 0x1F LT PUSH2 0x786 JUMPI PUSH2 0x100 DUP1 DUP4 SLOAD DIV MUL DUP4 MSTORE SWAP2 PUSH1 0x20 ADD SWAP2 PUSH2 0x7B1 JUMP JUMPDEST DUP3 ADD SWAP2 SWAP1 PUSH1 0x0 MSTORE PUSH1 0x20 PUSH1 0x0 KECCAK256 SWAP1 JUMPDEST DUP2 SLOAD DUP2 MSTORE SWAP1 PUSH1 0x1 ADD SWAP1 PUSH1 0x20 ADD DUP1 DUP4 GT PUSH2 0x794 JUMPI DUP3 SWAP1 SUB PUSH1 0x1F AND DUP3 ADD SWAP2 JUMPDEST POP POP POP POP POP SWAP1 DUP1 PUSH1 0x1 ADD DUP1 SLOAD PUSH2 0x7C6 SWAP1 PUSH2 0x380A JUMP JUMPDEST DUP1 PUSH1 0x1F ADD PUSH1 0x20 DUP1 SWAP2 DIV MUL PUSH1 0x20 ADD PUSH1 0x40 MLOAD SWAP1 DUP2 ADD PUSH1 0x40 MSTORE DUP1 SWAP3 SWAP2 SWAP1 DUP2 DUP2 MSTORE PUSH1 0x20 ADD DUP3 DUP1 SLOAD PUSH2 0x7F2 SWAP1 PUSH2 0x380A JUMP JUMPDEST DUP1 ISZERO PUSH2 0x83F JUMPI DUP1 PUSH1 0x1F LT PUSH2 0x814 JUMPI PUSH2 0x100 DUP1 DUP4 SLOAD DIV MUL DUP4 MSTORE SWAP2 PUSH1 0x20 ADD SWAP2 PUSH2 0x83F JUMP JUMPDEST DUP3 ADD SWAP2 SWAP1 PUSH1 0x0 MSTORE PUSH1 0x20 PUSH1 0x0 KECCAK256 SWAP1 JUMPDEST DUP2 SLOAD DUP2 MSTORE SWAP1 PUSH1 0x1 ADD SWAP1 PUSH1 0x20 ADD DUP1 DUP4 GT PUSH2 0x822 JUMPI DUP3 SWAP1 SUB PUSH1 0x1F AND DUP3 ADD SWAP2 JUMPDEST POP POP POP POP POP SWAP1 DUP1 PUSH1 0x2 ADD SLOAD SWAP1 DUP1 PUSH1 0x3 ADD SLOAD SWAP1 DUP1 PUSH1 0x4 ADD SLOAD SWAP1 DUP1 PUSH1 0x5 ADD PUSH1 0x0 SWAP1 SLOAD SWAP1 PUSH2 0x100 EXP SWAP1 DIV PUSH1 0xFF AND SWAP1 DUP1 PUSH1 0x6 ADD SLOAD SWAP1 DUP1 PUSH1 0x7 ADD SLOAD SWAP1 DUP1 PUSH1 0x8 ADD SLOAD SWAP1 POP DUP10 JUMP JUMPDEST PUSH32 0xAB4F864E5201B0FDE9B5EE3E4CF96384802B0FFDFCF7F9DE4699CE21A30AFC4F DUP2 JUMP JUMPDEST PUSH1 0x0 PUSH1 0x7 PUSH1 0x0 DUP4 DUP2 MSTORE PUSH1 0x20 ADD SWAP1 DUP2 MSTORE PUSH1 0x20 ADD PUSH1 0x0 KECCAK256 PUSH1 0x1 ADD SLOAD SWAP1 POP SWAP2 SWAP1 POP JUMP JUMPDEST PUSH2 0x8CD DUP3 PUSH2 0x8A4 JUMP JUMPDEST PUSH2 0x8DE DUP2 PUSH2 0x8D9 PUSH2 0x2266 JUMP JUMPDEST PUSH2 0x226E JUMP JUMPDEST PUSH2 0x8E8 DUP4 DUP4 PUSH2 0x230B JUMP JUMPDEST POP POP POP JUMP JUMPDEST PUSH2 0x8F5 PUSH2 0x2266 JUMP JUMPDEST PUSH20 0xFFFFFFFFFFFFFFFFFFFFFFFFFFFFFFFFFFFFFFFF AND DUP2 PUSH20 0xFFFFFFFFFFFFFFFFFFFFFFFFFFFFFFFFFFFFFFFF AND EQ PUSH2 0x962 JUMPI PUSH1 0x40 MLOAD PUSH32 0x8C379A000000000000000000000000000000000000000000000000000000000 DUP2 MSTORE PUSH1 0x4 ADD PUSH2 0x959 SWAP1 PUSH2 0x38AD JUMP JUMPDEST PUSH1 0x40 MLOAD DUP1 SWAP2 SUB SWAP1 REVERT JUMPDEST PUSH2 0x96C DUP3 DUP3 PUSH2 0x23EC JUMP JUMPDEST POP POP JUMP JUMPDEST PUSH1 0x8 PUSH1 0x20 MSTORE DUP2 PUSH1 0x0 MSTORE PUSH1 0x40 PUSH1 0x0 KECCAK256 PUSH1 0x20 MSTORE DUP1 PUSH1 0x0 MSTORE PUSH1 0x40 PUSH1 0x0 KECCAK256 PUSH1 0x0 SWAP2 POP SWAP2 POP POP DUP1 PUSH1 0x0 ADD PUSH1 0x0 SWAP1 SLOAD SWAP1 PUSH2 0x100 EXP SWAP1 DIV PUSH20 0xFFFFFFFFFFFFFFFFFFFFFFFFFFFFFFFFFFFFFFFF AND SWAP1 DUP1 PUSH1 0x1 ADD SLOAD SWAP1 DUP1 PUSH1 0x2 ADD SLOAD SWAP1 DUP1 PUSH1 0x3 ADD SLOAD SWAP1 DUP1 PUSH1 0x4 ADD SLOAD SWAP1 DUP1 PUSH1 0x5 ADD PUSH1 0x0 SWAP1 SLOAD SWAP1 PUSH2 0x100 EXP SWAP1 DIV PUSH1 0xFF AND SWAP1 DUP1 PUSH1 0x5 ADD PUSH1 0x1 SWAP1 SLOAD SWAP1 PUSH2 0x100 EXP SWAP1 DIV PUSH1 0xFF AND SWAP1 POP DUP8 JUMP JUMPDEST DUP2 PUSH1 0x5 PUSH1 0x0 DUP3 DUP2 MSTORE PUSH1 0x20 ADD SWAP1 DUP2 MSTORE PUSH1 0x20 ADD PUSH1 0x0 KECCAK256 PUSH1 0x0 SWAP1 SLOAD SWAP1 PUSH2 0x100 EXP SWAP1 DIV PUSH20 0xFFFFFFFFFFFFFFFFFFFFFFFFFFFFFFFFFFFFFFFF AND PUSH20 0xFFFFFFFFFFFFFFFFFFFFFFFFFFFFFFFFFFFFFFFF AND CALLER PUSH20 0xFFFFFFFFFFFFFFFFFFFFFFFFFFFFFFFFFFFFFFFF AND EQ PUSH2 0xA9B JUMPI PUSH1 0x40 MLOAD PUSH32 0x8C379A000000000000000000000000000000000000000000000000000000000 DUP2 MSTORE PUSH1 0x4 ADD PUSH2 0xA92 SWAP1 PUSH2 0x393F JUMP JUMPDEST PUSH1 0x40 MLOAD DUP1 SWAP2 SUB SWAP1 REVERT JUMPDEST PUSH1 0x5 PUSH1 0x0 DUP3 DUP2 MSTORE PUSH1 0x20 ADD SWAP1 DUP2 MSTORE PUSH1 0x20 ADD PUSH1 0x0 KECCAK256 PUSH1 0x0 PUSH2 0x100 EXP DUP2 SLOAD SWAP1 PUSH20 0xFFFFFFFFFFFFFFFFFFFFFFFFFFFFFFFFFFFFFFFF MUL NOT AND SWAP1 SSTORE DUP1 PUSH32 0x7CC135E0CEBB02C3480AE5D74D377283180A2601F8F644EDF7987B009316C63A PUSH1 0x40 MLOAD PUSH1 0x40 MLOAD DUP1 SWAP2 SUB SWAP1 LOG2 DUP3 PUSH32 0x4B031B5F8729563CDA98E5F016F7CB0D8E6B32DB75591D31E59C13DF29ADEA44 DUP4 PUSH1 0x40 MLOAD PUSH2 0xB2E SWAP2 SWAP1 PUSH2 0x349E JUMP JUMPDEST PUSH1 0x40 MLOAD DUP1 SWAP2 SUB SWAP1 LOG2 DUP2 PUSH1 0xF DUP2 SWAP1 SSTORE POP POP POP POP JUMP JUMPDEST PUSH1 0xA SLOAD DUP2 JUMP JUMPDEST PUSH2 0xB72 PUSH32 0xA49807205CE4D355092EF5A8A18F56E8913CF4A201FBE287825B095693C21775 CALLER PUSH2 0x1395 JUMP JUMPDEST DUP1 PUSH2 0xBAF JUMPI POP PUSH2 0xB80 PUSH2 0x1298 JUMP JUMPDEST PUSH20 0xFFFFFFFFFFFFFFFFFFFFFFFFFFFFFFFFFFFFFFFF AND CALLER PUSH20 0xFFFFFFFFFFFFFFFFFFFFFFFFFFFFFFFFFFFFFFFF AND EQ JUMPDEST PUSH2 0xBEE JUMPI PUSH1 0x40 MLOAD PUSH32 0x8C379A000000000000000000000000000000000000000000000000000000000 DUP2 MSTORE PUSH1 0x4 ADD PUSH2 0xBE5 SWAP1 PUSH2 0x39AB JUMP JUMPDEST PUSH1 0x40 MLOAD DUP1 SWAP2 SUB SWAP1 REVERT JUMPDEST DUP1 PUSH1 0xD DUP2 SWAP1 SSTORE POP POP JUMP JUMPDEST PUSH1 0x0 DUP1 PUSH2 0xC0F PUSH1 0xD SLOAD ADDRESS PUSH4 0x4357855E PUSH1 0xE0 SHL PUSH2 0x24CE JUMP JUMPDEST SWAP1 POP PUSH1 0x0 PUSH1 0xB PUSH2 0xC1E DUP6 PUSH2 0x24FF JUMP JUMPDEST PUSH1 0x40 MLOAD PUSH1 0x20 ADD PUSH2 0xC2F SWAP3 SWAP2 SWAP1 PUSH2 0x3A9F JUMP JUMPDEST PUSH1 0x40 MLOAD PUSH1 0x20 DUP2 DUP4 SUB SUB DUP2 MSTORE SWAP1 PUSH1 0x40 MSTORE SWAP1 POP PUSH2 0xC8A PUSH1 0x40 MLOAD DUP1 PUSH1 0x40 ADD PUSH1 0x40 MSTORE DUP1 PUSH1 0x3 DUP2 MSTORE PUSH1 0x20 ADD PUSH32 0x6765740000000000000000000000000000000000000000000000000000000000 DUP2 MSTORE POP DUP3 DUP5 PUSH2 0x265F SWAP1 SWAP3 SWAP2 SWAP1 PUSH4 0xFFFFFFFF AND JUMP JUMPDEST PUSH2 0xCE3 PUSH1 0x40 MLOAD DUP1 PUSH1 0x40 ADD PUSH1 0x40 MSTORE DUP1 PUSH1 0x4 DUP2 MSTORE PUSH1 0x20 ADD PUSH32 0x7061746800000000000000000000000000000000000000000000000000000000 DUP2 MSTORE POP PUSH1 0x40 MLOAD DUP1 PUSH1 0x20 ADD PUSH1 0x40 MSTORE DUP1 PUSH1 0x0 DUP2 MSTORE POP DUP5 PUSH2 0x265F SWAP1 SWAP3 SWAP2 SWAP1 PUSH4 0xFFFFFFFF AND JUMP JUMPDEST PUSH1 0x0 PUSH2 0xCF1 DUP4 PUSH1 0xE SLOAD PUSH2 0x2692 JUMP JUMPDEST SWAP1 POP PUSH1 0x0 PUSH1 0xF SLOAD SWAP1 POP PUSH32 0x1CA8663227A7FE9919713A01D344AFBB434E234F35A3E540A6AD924F88771F38 DUP3 DUP3 PUSH1 0x40 MLOAD PUSH2 0xD2B SWAP3 SWAP2 SWAP1 PUSH2 0x3AC3 JUMP JUMPDEST PUSH1 0x40 MLOAD DUP1 SWAP2 SUB SWAP1 LOG1 DUP1 SWAP5 POP POP POP POP POP SWAP2 SWAP1 POP JUMP JUMPDEST PUSH2 0xD47 PUSH2 0x2266 JUMP JUMPDEST PUSH20 0xFFFFFFFFFFFFFFFFFFFFFFFFFFFFFFFFFFFFFFFF AND PUSH2 0xD65 PUSH2 0x1298 JUMP JUMPDEST PUSH20 0xFFFFFFFFFFFFFFFFFFFFFFFFFFFFFFFFFFFFFFFF AND EQ PUSH2 0xDBB JUMPI PUSH1 0x40 MLOAD PUSH32 0x8C379A000000000000000000000000000000000000000000000000000000000 DUP2 MSTORE PUSH1 0x4 ADD PUSH2 0xDB2 SWAP1 PUSH2 0x3B38 JUMP JUMPDEST PUSH1 0x40 MLOAD DUP1 SWAP2 SUB SWAP1 REVERT JUMPDEST PUSH2 0xDC5 PUSH1 0x0 PUSH2 0x26C9 JUMP JUMPDEST JUMP JUMPDEST PUSH32 0xA49807205CE4D355092EF5A8A18F56E8913CF4A201FBE287825B095693C21775 DUP2 JUMP JUMPDEST PUSH1 0xA SLOAD DUP4 LT PUSH2 0xE2F JUMPI PUSH1 0x40 MLOAD PUSH32 0x8C379A000000000000000000000000000000000000000000000000000000000 DUP2 MSTORE PUSH1 0x4 ADD PUSH2 0xE26 SWAP1 PUSH2 0x3BA4 JUMP JUMPDEST PUSH1 0x40 MLOAD DUP1 SWAP2 SUB SWAP1 REVERT JUMPDEST PUSH1 0x0 CALLVALUE GT PUSH2 0xE72 JUMPI PUSH1 0x40 MLOAD PUSH32 0x8C379A000000000000000000000000000000000000000000000000000000000 DUP2 MSTORE PUSH1 0x4 ADD PUSH2 0xE69 SWAP1 PUSH2 0x3C36 JUMP JUMPDEST PUSH1 0x40 MLOAD DUP1 SWAP2 SUB SWAP1 REVERT JUMPDEST PUSH1 0x0 PUSH1 0x9 PUSH1 0x0 DUP6 DUP2 MSTORE PUSH1 0x20 ADD SWAP1 DUP2 MSTORE PUSH1 0x20 ADD PUSH1 0x0 KECCAK256 SWAP1 POP DUP1 PUSH1 0x5 ADD PUSH1 0x0 SWAP1 SLOAD SWAP1 PUSH2 0x100 EXP SWAP1 DIV PUSH1 0xFF AND ISZERO PUSH2 0xEDB JUMPI PUSH1 0x40 MLOAD PUSH32 0x8C379A000000000000000000000000000000000000000000000000000000000 DUP2 MSTORE PUSH1 0x4 ADD PUSH2 0xED2 SWAP1 PUSH2 0x3CA2 JUMP JUMPDEST PUSH1 0x40 MLOAD DUP1 SWAP2 SUB SWAP1 REVERT JUMPDEST PUSH1 0x0 PUSH1 0x14 CALLVALUE PUSH2 0xEEA SWAP2 SWAP1 PUSH2 0x3D20 JUMP JUMPDEST SWAP1 POP PUSH1 0x0 PUSH1 0x5 CALLVALUE PUSH2 0xEFB SWAP2 SWAP1 PUSH2 0x3D20 JUMP JUMPDEST SWAP1 POP DUP1 DUP4 PUSH1 0x6 ADD PUSH1 0x0 DUP3 DUP3 SLOAD PUSH2 0xF11 SWAP2 SWAP1 PUSH2 0x3D51 JUMP JUMPDEST SWAP3 POP POP DUP2 SWAP1 SSTORE POP DUP1 DUP3 CALLVALUE PUSH2 0xF25 SWAP2 SWAP1 PUSH2 0x3D85 JUMP JUMPDEST PUSH2 0xF2F SWAP2 SWAP1 PUSH2 0x3D85 JUMP JUMPDEST DUP4 PUSH1 0x8 ADD PUSH1 0x0 DUP3 DUP3 SLOAD PUSH2 0xF42 SWAP2 SWAP1 PUSH2 0x3D51 JUMP JUMPDEST SWAP3 POP POP DUP2 SWAP1 SSTORE POP PUSH1 0x40 MLOAD DUP1 PUSH1 0xE0 ADD PUSH1 0x40 MSTORE DUP1 CALLER PUSH20 0xFFFFFFFFFFFFFFFFFFFFFFFFFFFFFFFFFFFFFFFF AND DUP2 MSTORE PUSH1 0x20 ADD DUP8 DUP2 MSTORE PUSH1 0x20 ADD DUP3 DUP5 CALLVALUE PUSH2 0xF83 SWAP2 SWAP1 PUSH2 0x3D85 JUMP JUMPDEST PUSH2 0xF8D SWAP2 SWAP1 PUSH2 0x3D85 JUMP JUMPDEST DUP2 MSTORE PUSH1 0x20 ADD DUP7 DUP2 MSTORE PUSH1 0x20 ADD DUP6 DUP2 MSTORE PUSH1 0x20 ADD PUSH1 0x0 ISZERO ISZERO DUP2 MSTORE PUSH1 0x20 ADD PUSH1 0x0 ISZERO ISZERO DUP2 MSTORE POP PUSH1 0x8 PUSH1 0x0 DUP9 DUP2 MSTORE PUSH1 0x20 ADD SWAP1 DUP2 MSTORE PUSH1 0x20 ADD PUSH1 0x0 KECCAK256 PUSH1 0x0 DUP6 PUSH1 0x7 ADD SLOAD DUP2 MSTORE PUSH1 0x20 ADD SWAP1 DUP2 MSTORE PUSH1 0x20 ADD PUSH1 0x0 KECCAK256 PUSH1 0x0 DUP3 ADD MLOAD DUP2 PUSH1 0x0 ADD PUSH1 0x0 PUSH2 0x100 EXP DUP2 SLOAD DUP2 PUSH20 0xFFFFFFFFFFFFFFFFFFFFFFFFFFFFFFFFFFFFFFFF MUL NOT AND SWAP1 DUP4 PUSH20 0xFFFFFFFFFFFFFFFFFFFFFFFFFFFFFFFFFFFFFFFF AND MUL OR SWAP1 SSTORE POP PUSH1 0x20 DUP3 ADD MLOAD DUP2 PUSH1 0x1 ADD SSTORE PUSH1 0x40 DUP3 ADD MLOAD DUP2 PUSH1 0x2 ADD SSTORE PUSH1 0x60 DUP3 ADD MLOAD DUP2 PUSH1 0x3 ADD SSTORE PUSH1 0x80 DUP3 ADD MLOAD DUP2 PUSH1 0x4 ADD SSTORE PUSH1 0xA0 DUP3 ADD MLOAD DUP2 PUSH1 0x5 ADD PUSH1 0x0 PUSH2 0x100 EXP DUP2 SLOAD DUP2 PUSH1 0xFF MUL NOT AND SWAP1 DUP4 ISZERO ISZERO MUL OR SWAP1 SSTORE POP PUSH1 0xC0 DUP3 ADD MLOAD DUP2 PUSH1 0x5 ADD PUSH1 0x1 PUSH2 0x100 EXP DUP2 SLOAD DUP2 PUSH1 0xFF MUL NOT AND SWAP1 DUP4 ISZERO ISZERO MUL OR SWAP1 SSTORE POP SWAP1 POP POP DUP3 PUSH1 0x7 ADD PUSH1 0x0 DUP2 SLOAD DUP1 SWAP3 SWAP2 SWAP1 PUSH2 0x109D SWAP1 PUSH2 0x3DB9 JUMP JUMPDEST SWAP2 SWAP1 POP SSTORE POP DUP6 PUSH32 0xBB79D51F1411CA03952954C866D22AE3532B227B2CF62E257CF182397A647173 DUP7 DUP7 PUSH1 0x40 MLOAD PUSH2 0x10D4 SWAP3 SWAP2 SWAP1 PUSH2 0x3E01 JUMP JUMPDEST PUSH1 0x40 MLOAD DUP1 SWAP2 SUB SWAP1 LOG2 POP POP POP POP POP POP JUMP JUMPDEST PUSH2 0x110E PUSH32 0xAB4F864E5201B0FDE9B5EE3E4CF96384802B0FFDFCF7F9DE4699CE21A30AFC4F CALLER PUSH2 0x1395 JUMP JUMPDEST PUSH2 0x114D JUMPI PUSH1 0x40 MLOAD PUSH32 0x8C379A000000000000000000000000000000000000000000000000000000000 DUP2 MSTORE PUSH1 0x4 ADD PUSH2 0x1144 SWAP1 PUSH2 0x3E76 JUMP JUMPDEST PUSH1 0x40 MLOAD DUP1 SWAP2 SUB SWAP1 REVERT JUMPDEST JUMP JUMPDEST DUP2 PUSH1 0x5 PUSH1 0x0 DUP3 DUP2 MSTORE PUSH1 0x20 ADD SWAP1 DUP2 MSTORE PUSH1 0x20 ADD PUSH1 0x0 KECCAK256 PUSH1 0x0 SWAP1 SLOAD SWAP1 PUSH2 0x100 EXP SWAP1 DIV PUSH20 0xFFFFFFFFFFFFFFFFFFFFFFFFFFFFFFFFFFFFFFFF AND PUSH20 0xFFFFFFFFFFFFFFFFFFFFFFFFFFFFFFFFFFFFFFFF AND CALLER PUSH20 0xFFFFFFFFFFFFFFFFFFFFFFFFFFFFFFFFFFFFFFFF AND EQ PUSH2 0x11F1 JUMPI PUSH1 0x40 MLOAD PUSH32 0x8C379A000000000000000000000000000000000000000000000000000000000 DUP2 MSTORE PUSH1 0x4 ADD PUSH2 0x11E8 SWAP1 PUSH2 0x393F JUMP JUMPDEST PUSH1 0x40 MLOAD DUP1 SWAP2 SUB SWAP1 REVERT JUMPDEST PUSH1 0x5 PUSH1 0x0 DUP3 DUP2 MSTORE PUSH1 0x20 ADD SWAP1 DUP2 MSTORE PUSH1 0x20 ADD PUSH1 0x0 KECCAK256 PUSH1 0x0 PUSH2 0x100 EXP DUP2 SLOAD SWAP1 PUSH20 0xFFFFFFFFFFFFFFFFFFFFFFFFFFFFFFFFFFFFFFFF MUL NOT AND SWAP1 SSTORE DUP1 PUSH32 0x7CC135E0CEBB02C3480AE5D74D377283180A2601F8F644EDF7987B009316C63A PUSH1 0x40 MLOAD PUSH1 0x40 MLOAD DUP1 SWAP2 SUB SWAP1 LOG2 DUP3 PUSH32 0x4B031B5F8729563CDA98E5F016F7CB0D8E6B32DB75591D31E59C13DF29ADEA44 DUP4 PUSH1 0x40 MLOAD PUSH2 0x1284 SWAP2 SWAP1 PUSH2 0x349E JUMP JUMPDEST PUSH1 0x40 MLOAD DUP1 SWAP2 SUB SWAP1 LOG2 DUP2 PUSH1 0xF DUP2 SWAP1 SSTORE POP POP POP POP JUMP JUMPDEST PUSH1 0x0 PUSH1 0x6 PUSH1 0x0 SWAP1 SLOAD SWAP1 PUSH2 0x100 EXP SWAP1 DIV PUSH20 0xFFFFFFFFFFFFFFFFFFFFFFFFFFFFFFFFFFFFFFFF AND SWAP1 POP SWAP1 JUMP JUMPDEST PUSH2 0x12EC PUSH32 0xA49807205CE4D355092EF5A8A18F56E8913CF4A201FBE287825B095693C21775 CALLER PUSH2 0x1395 JUMP JUMPDEST DUP1 PUSH2 0x1329 JUMPI POP PUSH2 0x12FA PUSH2 0x1298 JUMP JUMPDEST PUSH20 0xFFFFFFFFFFFFFFFFFFFFFFFFFFFFFFFFFFFFFFFF AND CALLER PUSH20 0xFFFFFFFFFFFFFFFFFFFFFFFFFFFFFFFFFFFFFFFF AND EQ JUMPDEST PUSH2 0x1368 JUMPI PUSH1 0x40 MLOAD PUSH32 0x8C379A000000000000000000000000000000000000000000000000000000000 DUP2 MSTORE PUSH1 0x4 ADD PUSH2 0x135F SWAP1 PUSH2 0x39AB JUMP JUMPDEST PUSH1 0x40 MLOAD DUP1 SWAP2 SUB SWAP1 REVERT JUMPDEST PUSH2 0x1392 PUSH32 0xAB4F864E5201B0FDE9B5EE3E4CF96384802B0FFDFCF7F9DE4699CE21A30AFC4F DUP3 PUSH2 0x8C4 JUMP JUMPDEST POP JUMP JUMPDEST PUSH1 0x0 PUSH1 0x7 PUSH1 0x0 DUP5 DUP2 MSTORE PUSH1 0x20 ADD SWAP1 DUP2 MSTORE PUSH1 0x20 ADD PUSH1 0x0 KECCAK256 PUSH1 0x0 ADD PUSH1 0x0 DUP4 PUSH20 0xFFFFFFFFFFFFFFFFFFFFFFFFFFFFFFFFFFFFFFFF AND PUSH20 0xFFFFFFFFFFFFFFFFFFFFFFFFFFFFFFFFFFFFFFFF AND DUP2 MSTORE PUSH1 0x20 ADD SWAP1 DUP2 MSTORE PUSH1 0x20 ADD PUSH1 0x0 KECCAK256 PUSH1 0x0 SWAP1 SLOAD SWAP1 PUSH2 0x100 EXP SWAP1 DIV PUSH1 0xFF AND SWAP1 POP SWAP3 SWAP2 POP POP JUMP JUMPDEST PUSH2 0x142A PUSH32 0x950B8F2D7415DEFAEE398BB4898E8E094A64C725873B81952B7AB9F08D70EFB3 CALLER PUSH2 0x1395 JUMP JUMPDEST DUP1 PUSH2 0x145B JUMPI POP PUSH2 0x145A PUSH32 0xA49807205CE4D355092EF5A8A18F56E8913CF4A201FBE287825B095693C21775 CALLER PUSH2 0x1395 JUMP JUMPDEST JUMPDEST DUP1 PUSH2 0x1498 JUMPI POP PUSH2 0x1469 PUSH2 0x1298 JUMP JUMPDEST PUSH20 0xFFFFFFFFFFFFFFFFFFFFFFFFFFFFFFFFFFFFFFFF AND CALLER PUSH20 0xFFFFFFFFFFFFFFFFFFFFFFFFFFFFFFFFFFFFFFFF AND EQ JUMPDEST PUSH2 0x14D7 JUMPI PUSH1 0x40 MLOAD PUSH32 0x8C379A000000000000000000000000000000000000000000000000000000000 DUP2 MSTORE PUSH1 0x4 ADD PUSH2 0x14CE SWAP1 PUSH2 0x3EE2 JUMP JUMPDEST PUSH1 0x40 MLOAD DUP1 SWAP2 SUB SWAP1 REVERT JUMPDEST PUSH1 0xA SLOAD DUP4 LT PUSH2 0x151B JUMPI PUSH1 0x40 MLOAD PUSH32 0x8C379A000000000000000000000000000000000000000000000000000000000 DUP2 MSTORE PUSH1 0x4 ADD PUSH2 0x1512 SWAP1 PUSH2 0x3BA4 JUMP JUMPDEST PUSH1 0x40 MLOAD DUP1 SWAP2 SUB SWAP1 REVERT JUMPDEST PUSH1 0x0 PUSH1 0x9 PUSH1 0x0 DUP6 DUP2 MSTORE PUSH1 0x20 ADD SWAP1 DUP2 MSTORE PUSH1 0x20 ADD PUSH1 0x0 KECCAK256 SWAP1 POP DUP3 DUP2 PUSH1 0x3 ADD DUP2 SWAP1 SSTORE POP DUP2 DUP2 PUSH1 0x4 ADD DUP2 SWAP1 SSTORE POP PUSH1 0x1 DUP2 PUSH1 0x5 ADD PUSH1 0x0 PUSH2 0x100 EXP DUP2 SLOAD DUP2 PUSH1 0xFF MUL NOT AND SWAP1 DUP4 ISZERO ISZERO MUL OR SWAP1 SSTORE POP PUSH1 0x0 DUP2 PUSH1 0x7 ADD SLOAD SUB PUSH2 0x1573 JUMPI POP PUSH2 0x1AAA JUMP JUMPDEST PUSH1 0x0 DUP1 JUMPDEST DUP3 PUSH1 0x7 ADD SLOAD DUP2 LT ISZERO PUSH2 0x15E9 JUMPI PUSH1 0x0 PUSH1 0x8 PUSH1 0x0 DUP9 DUP2 MSTORE PUSH1 0x20 ADD SWAP1 DUP2 MSTORE PUSH1 0x20 ADD PUSH1 0x0 KECCAK256 PUSH1 0x0 DUP4 DUP2 MSTORE PUSH1 0x20 ADD SWAP1 DUP2 MSTORE PUSH1 0x20 ADD PUSH1 0x0 KECCAK256 SWAP1 POP DUP6 DUP2 PUSH1 0x3 ADD SLOAD EQ DUP1 ISZERO PUSH2 0x15C1 JUMPI POP DUP5 DUP2 PUSH1 0x4 ADD SLOAD EQ JUMPDEST ISZERO PUSH2 0x15D5 JUMPI DUP3 DUP1 PUSH2 0x15D1 SWAP1 PUSH2 0x3DB9 JUMP JUMPDEST SWAP4 POP POP JUMPDEST POP DUP1 DUP1 PUSH2 0x15E1 SWAP1 PUSH2 0x3DB9 JUMP JUMPDEST SWAP2 POP POP PUSH2 0x1577 JUMP JUMPDEST POP PUSH1 0x0 DUP2 PUSH8 0xFFFFFFFFFFFFFFFF DUP2 GT ISZERO PUSH2 0x1606 JUMPI PUSH2 0x1605 PUSH2 0x355E JUMP JUMPDEST JUMPDEST PUSH1 0x40 MLOAD SWAP1 DUP1 DUP3 MSTORE DUP1 PUSH1 0x20 MUL PUSH1 0x20 ADD DUP3 ADD PUSH1 0x40 MSTORE DUP1 ISZERO PUSH2 0x163F JUMPI DUP2 PUSH1 0x20 ADD JUMPDEST PUSH2 0x162C PUSH2 0x2F2B JUMP JUMPDEST DUP2 MSTORE PUSH1 0x20 ADD SWAP1 PUSH1 0x1 SWAP1 SUB SWAP1 DUP2 PUSH2 0x1624 JUMPI SWAP1 POP JUMPDEST POP SWAP1 POP PUSH1 0x0 DUP3 DUP5 PUSH1 0x7 ADD SLOAD PUSH2 0x1654 SWAP2 SWAP1 PUSH2 0x3D85 JUMP JUMPDEST PUSH8 0xFFFFFFFFFFFFFFFF DUP2 GT ISZERO PUSH2 0x166D JUMPI PUSH2 0x166C PUSH2 0x355E JUMP JUMPDEST JUMPDEST PUSH1 0x40 MLOAD SWAP1 DUP1 DUP3 MSTORE DUP1 PUSH1 0x20 MUL PUSH1 0x20 ADD DUP3 ADD PUSH1 0x40 MSTORE DUP1 ISZERO PUSH2 0x16A6 JUMPI DUP2 PUSH1 0x20 ADD JUMPDEST PUSH2 0x1693 PUSH2 0x2F2B JUMP JUMPDEST DUP2 MSTORE PUSH1 0x20 ADD SWAP1 PUSH1 0x1 SWAP1 SUB SWAP1 DUP2 PUSH2 0x168B JUMPI SWAP1 POP JUMPDEST POP SWAP1 POP PUSH1 0x0 DUP1 PUSH1 0x0 DUP1 JUMPDEST DUP8 PUSH1 0x7 ADD SLOAD DUP2 LT ISZERO PUSH2 0x193D JUMPI PUSH1 0x0 PUSH1 0x8 PUSH1 0x0 DUP14 DUP2 MSTORE PUSH1 0x20 ADD SWAP1 DUP2 MSTORE PUSH1 0x20 ADD PUSH1 0x0 KECCAK256 PUSH1 0x0 DUP4 DUP2 MSTORE PUSH1 0x20 ADD SWAP1 DUP2 MSTORE PUSH1 0x20 ADD PUSH1 0x0 KECCAK256 SWAP1 POP DUP11 DUP2 PUSH1 0x3 ADD SLOAD EQ DUP1 ISZERO PUSH2 0x16FA JUMPI POP DUP10 DUP2 PUSH1 0x4 ADD SLOAD EQ JUMPDEST ISZERO PUSH2 0x181F JUMPI PUSH1 0x1 DUP2 PUSH1 0x5 ADD PUSH1 0x0 PUSH2 0x100 EXP DUP2 SLOAD DUP2 PUSH1 0xFF MUL NOT AND SWAP1 DUP4 ISZERO ISZERO MUL OR SWAP1 SSTORE POP DUP1 PUSH1 0x40 MLOAD DUP1 PUSH1 0xE0 ADD PUSH1 0x40 MSTORE SWAP1 DUP2 PUSH1 0x0 DUP3 ADD PUSH1 0x0 SWAP1 SLOAD SWAP1 PUSH2 0x100 EXP SWAP1 DIV PUSH20 0xFFFFFFFFFFFFFFFFFFFFFFFFFFFFFFFFFFFFFFFF AND PUSH20 0xFFFFFFFFFFFFFFFFFFFFFFFFFFFFFFFFFFFFFFFF AND PUSH20 0xFFFFFFFFFFFFFFFFFFFFFFFFFFFFFFFFFFFFFFFF AND DUP2 MSTORE PUSH1 0x20 ADD PUSH1 0x1 DUP3 ADD SLOAD DUP2 MSTORE PUSH1 0x20 ADD PUSH1 0x2 DUP3 ADD SLOAD DUP2 MSTORE PUSH1 0x20 ADD PUSH1 0x3 DUP3 ADD SLOAD DUP2 MSTORE PUSH1 0x20 ADD PUSH1 0x4 DUP3 ADD SLOAD DUP2 MSTORE PUSH1 0x20 ADD PUSH1 0x5 DUP3 ADD PUSH1 0x0 SWAP1 SLOAD SWAP1 PUSH2 0x100 EXP SWAP1 DIV PUSH1 0xFF AND ISZERO ISZERO ISZERO ISZERO DUP2 MSTORE PUSH1 0x20 ADD PUSH1 0x5 DUP3 ADD PUSH1 0x1 SWAP1 SLOAD SWAP1 PUSH2 0x100 EXP SWAP1 DIV PUSH1 0xFF AND ISZERO ISZERO ISZERO ISZERO DUP2 MSTORE POP POP DUP8 DUP7 DUP2 MLOAD DUP2 LT PUSH2 0x17EF JUMPI PUSH2 0x17EE PUSH2 0x3F02 JUMP JUMPDEST JUMPDEST PUSH1 0x20 MUL PUSH1 0x20 ADD ADD DUP2 SWAP1 MSTORE POP DUP1 PUSH1 0x2 ADD SLOAD DUP4 PUSH2 0x180A SWAP2 SWAP1 PUSH2 0x3D51 JUMP JUMPDEST SWAP3 POP DUP5 DUP1 PUSH2 0x1817 SWAP1 PUSH2 0x3DB9 JUMP JUMPDEST SWAP6 POP POP PUSH2 0x190C JUMP JUMPDEST DUP1 PUSH1 0x40 MLOAD DUP1 PUSH1 0xE0 ADD PUSH1 0x40 MSTORE SWAP1 DUP2 PUSH1 0x0 DUP3 ADD PUSH1 0x0 SWAP1 SLOAD SWAP1 PUSH2 0x100 EXP SWAP1 DIV PUSH20 0xFFFFFFFFFFFFFFFFFFFFFFFFFFFFFFFFFFFFFFFF AND PUSH20 0xFFFFFFFFFFFFFFFFFFFFFFFFFFFFFFFFFFFFFFFF AND PUSH20 0xFFFFFFFFFFFFFFFFFFFFFFFFFFFFFFFFFFFFFFFF AND DUP2 MSTORE PUSH1 0x20 ADD PUSH1 0x1 DUP3 ADD SLOAD DUP2 MSTORE PUSH1 0x20 ADD PUSH1 0x2 DUP3 ADD SLOAD DUP2 MSTORE PUSH1 0x20 ADD PUSH1 0x3 DUP3 ADD SLOAD DUP2 MSTORE PUSH1 0x20 ADD PUSH1 0x4 DUP3 ADD SLOAD DUP2 MSTORE PUSH1 0x20 ADD PUSH1 0x5 DUP3 ADD PUSH1 0x0 SWAP1 SLOAD SWAP1 PUSH2 0x100 EXP SWAP1 DIV PUSH1 0xFF AND ISZERO ISZERO ISZERO ISZERO DUP2 MSTORE PUSH1 0x20 ADD PUSH1 0x5 DUP3 ADD PUSH1 0x1 SWAP1 SLOAD SWAP1 PUSH2 0x100 EXP SWAP1 DIV PUSH1 0xFF AND ISZERO ISZERO ISZERO ISZERO DUP2 MSTORE POP POP DUP7 DUP6 DUP2 MLOAD DUP2 LT PUSH2 0x18F2 JUMPI PUSH2 0x18F1 PUSH2 0x3F02 JUMP JUMPDEST JUMPDEST PUSH1 0x20 MUL PUSH1 0x20 ADD ADD DUP2 SWAP1 MSTORE POP DUP4 DUP1 PUSH2 0x1908 SWAP1 PUSH2 0x3DB9 JUMP JUMPDEST SWAP5 POP POP JUMPDEST PUSH1 0x1 DUP2 PUSH1 0x5 ADD PUSH1 0x1 PUSH2 0x100 EXP DUP2 SLOAD DUP2 PUSH1 0xFF MUL NOT AND SWAP1 DUP4 ISZERO ISZERO MUL OR SWAP1 SSTORE POP POP DUP1 DUP1 PUSH2 0x1935 SWAP1 PUSH2 0x3DB9 JUMP JUMPDEST SWAP2 POP POP PUSH2 0x16B0 JUMP JUMPDEST POP PUSH1 0x0 DUP4 SUB PUSH2 0x1966 JUMPI DUP7 PUSH1 0x8 ADD SLOAD DUP8 PUSH1 0x6 ADD PUSH1 0x0 DUP3 DUP3 SLOAD PUSH2 0x195E SWAP2 SWAP1 PUSH2 0x3D51 JUMP JUMPDEST SWAP3 POP POP DUP2 SWAP1 SSTORE POP JUMPDEST PUSH1 0x0 JUMPDEST DUP4 DUP2 LT ISZERO PUSH2 0x1A21 JUMPI DUP6 DUP2 DUP2 MLOAD DUP2 LT PUSH2 0x1984 JUMPI PUSH2 0x1983 PUSH2 0x3F02 JUMP JUMPDEST JUMPDEST PUSH1 0x20 MUL PUSH1 0x20 ADD ADD MLOAD PUSH1 0x0 ADD MLOAD PUSH20 0xFFFFFFFFFFFFFFFFFFFFFFFFFFFFFFFFFFFFFFFF AND PUSH2 0x8FC DUP4 DUP9 DUP5 DUP2 MLOAD DUP2 LT PUSH2 0x19BD JUMPI PUSH2 0x19BC PUSH2 0x3F02 JUMP JUMPDEST JUMPDEST PUSH1 0x20 MUL PUSH1 0x20 ADD ADD MLOAD PUSH1 0x40 ADD MLOAD DUP12 PUSH1 0x8 ADD SLOAD PUSH2 0x19D8 SWAP2 SWAP1 PUSH2 0x3F31 JUMP JUMPDEST PUSH2 0x19E2 SWAP2 SWAP1 PUSH2 0x3D20 JUMP JUMPDEST SWAP1 DUP2 ISZERO MUL SWAP1 PUSH1 0x40 MLOAD PUSH1 0x0 PUSH1 0x40 MLOAD DUP1 DUP4 SUB DUP2 DUP6 DUP9 DUP9 CALL SWAP4 POP POP POP POP ISZERO DUP1 ISZERO PUSH2 0x1A0D JUMPI RETURNDATASIZE PUSH1 0x0 DUP1 RETURNDATACOPY RETURNDATASIZE PUSH1 0x0 REVERT JUMPDEST POP DUP1 DUP1 PUSH2 0x1A19 SWAP1 PUSH2 0x3DB9 JUMP JUMPDEST SWAP2 POP POP PUSH2 0x1969 JUMP JUMPDEST POP PUSH1 0x0 PUSH2 0x1A2D DUP4 PUSH2 0xBF8 JUMP JUMPDEST SWAP1 POP PUSH1 0x1 DUP2 EQ PUSH2 0x1AA1 JUMPI DUP5 DUP2 DUP2 MLOAD DUP2 LT PUSH2 0x1A4A JUMPI PUSH2 0x1A49 PUSH2 0x3F02 JUMP JUMPDEST JUMPDEST PUSH1 0x20 MUL PUSH1 0x20 ADD ADD MLOAD PUSH1 0x0 ADD MLOAD PUSH20 0xFFFFFFFFFFFFFFFFFFFFFFFFFFFFFFFFFFFFFFFF AND PUSH2 0x8FC DUP10 PUSH1 0x6 ADD SLOAD SWAP1 DUP2 ISZERO MUL SWAP1 PUSH1 0x40 MLOAD PUSH1 0x0 PUSH1 0x40 MLOAD DUP1 DUP4 SUB DUP2 DUP6 DUP9 DUP9 CALL SWAP4 POP POP POP POP ISZERO DUP1 ISZERO PUSH2 0x1A9F JUMPI RETURNDATASIZE PUSH1 0x0 DUP1 RETURNDATACOPY RETURNDATASIZE PUSH1 0x0 REVERT JUMPDEST POP JUMPDEST POP POP POP POP POP POP POP POP JUMPDEST POP POP POP JUMP JUMPDEST PUSH1 0x0 DUP1 SHL DUP2 JUMP JUMPDEST PUSH2 0x1AE0 PUSH32 0x950B8F2D7415DEFAEE398BB4898E8E094A64C725873B81952B7AB9F08D70EFB3 CALLER PUSH2 0x1395 JUMP JUMPDEST DUP1 PUSH2 0x1B11 JUMPI POP PUSH2 0x1B10 PUSH32 0xA49807205CE4D355092EF5A8A18F56E8913CF4A201FBE287825B095693C21775 CALLER PUSH2 0x1395 JUMP JUMPDEST JUMPDEST DUP1 PUSH2 0x1B4E JUMPI POP PUSH2 0x1B1F PUSH2 0x1298 JUMP JUMPDEST PUSH20 0xFFFFFFFFFFFFFFFFFFFFFFFFFFFFFFFFFFFFFFFF AND CALLER PUSH20 0xFFFFFFFFFFFFFFFFFFFFFFFFFFFFFFFFFFFFFFFF AND EQ JUMPDEST PUSH2 0x1B8D JUMPI PUSH1 0x40 MLOAD PUSH32 0x8C379A000000000000000000000000000000000000000000000000000000000 DUP2 MSTORE PUSH1 0x4 ADD PUSH2 0x1B84 SWAP1 PUSH2 0x3EE2 JUMP JUMPDEST PUSH1 0x40 MLOAD DUP1 SWAP2 SUB SWAP1 REVERT JUMPDEST PUSH1 0x40 MLOAD DUP1 PUSH2 0x120 ADD PUSH1 0x40 MSTORE DUP1 DUP5 DUP2 MSTORE PUSH1 0x20 ADD DUP4 DUP2 MSTORE PUSH1 0x20 ADD DUP3 DUP2 MSTORE PUSH1 0x20 ADD PUSH1 0x0 DUP2 MSTORE PUSH1 0x20 ADD PUSH1 0x0 DUP2 MSTORE PUSH1 0x20 ADD PUSH1 0x0 ISZERO ISZERO DUP2 MSTORE PUSH1 0x20 ADD PUSH1 0x0 DUP2 MSTORE PUSH1 0x20 ADD PUSH1 0x0 DUP2 MSTORE PUSH1 0x20 ADD PUSH1 0x0 DUP2 MSTORE POP PUSH1 0x9 PUSH1 0x0 PUSH1 0xA SLOAD DUP2 MSTORE PUSH1 0x20 ADD SWAP1 DUP2 MSTORE PUSH1 0x20 ADD PUSH1 0x0 KECCAK256 PUSH1 0x0 DUP3 ADD MLOAD DUP2 PUSH1 0x0 ADD SWAP1 DUP2 PUSH2 0x1BFF SWAP2 SWAP1 PUSH2 0x410A JUMP JUMPDEST POP PUSH1 0x20 DUP3 ADD MLOAD DUP2 PUSH1 0x1 ADD SWAP1 DUP2 PUSH2 0x1C15 SWAP2 SWAP1 PUSH2 0x410A JUMP JUMPDEST POP PUSH1 0x40 DUP3 ADD MLOAD DUP2 PUSH1 0x2 ADD SSTORE PUSH1 0x60 DUP3 ADD MLOAD DUP2 PUSH1 0x3 ADD SSTORE PUSH1 0x80 DUP3 ADD MLOAD DUP2 PUSH1 0x4 ADD SSTORE PUSH1 0xA0 DUP3 ADD MLOAD DUP2 PUSH1 0x5 ADD PUSH1 0x0 PUSH2 0x100 EXP DUP2 SLOAD DUP2 PUSH1 0xFF MUL NOT AND SWAP1 DUP4 ISZERO ISZERO MUL OR SWAP1 SSTORE POP PUSH1 0xC0 DUP3 ADD MLOAD DUP2 PUSH1 0x6 ADD SSTORE PUSH1 0xE0 DUP3 ADD MLOAD DUP2 PUSH1 0x7 ADD SSTORE PUSH2 0x100 DUP3 ADD MLOAD DUP2 PUSH1 0x8 ADD SSTORE SWAP1 POP POP PUSH1 0xA PUSH1 0x0 DUP2 SLOAD DUP1 SWAP3 SWAP2 SWAP1 PUSH2 0x1C89 SWAP1 PUSH2 0x3DB9 JUMP JUMPDEST SWAP2 SWAP1 POP SSTORE POP DUP2 PUSH1 0x40 MLOAD PUSH2 0x1C9C SWAP2 SWAP1 PUSH2 0x41DC JUMP JUMPDEST PUSH1 0x40 MLOAD DUP1 SWAP2 SUB SWAP1 KECCAK256 DUP4 PUSH1 0x40 MLOAD PUSH2 0x1CB2 SWAP2 SWAP1 PUSH2 0x41DC JUMP JUMPDEST PUSH1 0x40 MLOAD DUP1 SWAP2 SUB SWAP1 KECCAK256 PUSH32 0xD35CA1314B646B63FB0C1F06DBE2338333530431983C8779C9692F9FF4AD249F DUP4 PUSH1 0x40 MLOAD PUSH2 0x1CE9 SWAP2 SWAP1 PUSH2 0x349E JUMP JUMPDEST PUSH1 0x40 MLOAD DUP1 SWAP2 SUB SWAP1 LOG3 POP POP POP JUMP JUMPDEST PUSH1 0xF SLOAD DUP2 JUMP JUMPDEST PUSH2 0x1D26 PUSH32 0xA49807205CE4D355092EF5A8A18F56E8913CF4A201FBE287825B095693C21775 CALLER PUSH2 0x1395 JUMP JUMPDEST DUP1 PUSH2 0x1D63 JUMPI POP PUSH2 0x1D34 PUSH2 0x1298 JUMP JUMPDEST PUSH20 0xFFFFFFFFFFFFFFFFFFFFFFFFFFFFFFFFFFFFFFFF AND CALLER PUSH20 0xFFFFFFFFFFFFFFFFFFFFFFFFFFFFFFFFFFFFFFFF AND EQ JUMPDEST PUSH2 0x1DA2 JUMPI PUSH1 0x40 MLOAD PUSH32 0x8C379A000000000000000000000000000000000000000000000000000000000 DUP2 MSTORE PUSH1 0x4 ADD PUSH2 0x1D99 SWAP1 PUSH2 0x39AB JUMP JUMPDEST PUSH1 0x40 MLOAD DUP1 SWAP2 SUB SWAP1 REVERT JUMPDEST DUP1 PUSH1 0xB SWAP1 DUP2 PUSH2 0x1DB1 SWAP2 SWAP1 PUSH2 0x410A JUMP JUMPDEST POP POP JUMP JUMPDEST PUSH2 0x1DBE DUP3 PUSH2 0x8A4 JUMP JUMPDEST PUSH2 0x1DCF DUP2 PUSH2 0x1DCA PUSH2 0x2266 JUMP JUMPDEST PUSH2 0x226E JUMP JUMPDEST PUSH2 0x1DD9 DUP4 DUP4 PUSH2 0x23EC JUMP JUMPDEST POP POP POP JUMP JUMPDEST PUSH32 0x950B8F2D7415DEFAEE398BB4898E8E094A64C725873B81952B7AB9F08D70EFB3 DUP2 JUMP JUMPDEST PUSH2 0x1E0A PUSH2 0x2266 JUMP JUMPDEST PUSH20 0xFFFFFFFFFFFFFFFFFFFFFFFFFFFFFFFFFFFFFFFF AND PUSH2 0x1E28 PUSH2 0x1298 JUMP JUMPDEST PUSH20 0xFFFFFFFFFFFFFFFFFFFFFFFFFFFFFFFFFFFFFFFF AND EQ PUSH2 0x1E7E JUMPI PUSH1 0x40 MLOAD PUSH32 0x8C379A000000000000000000000000000000000000000000000000000000000 DUP2 MSTORE PUSH1 0x4 ADD PUSH2 0x1E75 SWAP1 PUSH2 0x3B38 JUMP JUMPDEST PUSH1 0x40 MLOAD DUP1 SWAP2 SUB SWAP1 REVERT JUMPDEST DUP1 PUSH20 0xFFFFFFFFFFFFFFFFFFFFFFFFFFFFFFFFFFFFFFFF AND PUSH2 0x8FC DUP4 SWAP1 DUP2 ISZERO MUL SWAP1 PUSH1 0x40 MLOAD PUSH1 0x0 PUSH1 0x40 MLOAD DUP1 DUP4 SUB DUP2 DUP6 DUP9 DUP9 CALL SWAP4 POP POP POP POP ISZERO DUP1 ISZERO PUSH2 0x1EC4 JUMPI RETURNDATASIZE PUSH1 0x0 DUP1 RETURNDATACOPY RETURNDATASIZE PUSH1 0x0 REVERT JUMPDEST POP POP POP JUMP JUMPDEST PUSH2 0x1ED1 PUSH2 0x2266 JUMP JUMPDEST PUSH20 0xFFFFFFFFFFFFFFFFFFFFFFFFFFFFFFFFFFFFFFFF AND PUSH2 0x1EEF PUSH2 0x1298 JUMP JUMPDEST PUSH20 0xFFFFFFFFFFFFFFFFFFFFFFFFFFFFFFFFFFFFFFFF AND EQ PUSH2 0x1F45 JUMPI PUSH1 0x40 MLOAD PUSH32 0x8C379A000000000000000000000000000000000000000000000000000000000 DUP2 MSTORE PUSH1 0x4 ADD PUSH2 0x1F3C SWAP1 PUSH2 0x3B38 JUMP JUMPDEST PUSH1 0x40 MLOAD DUP1 SWAP2 SUB SWAP1 REVERT JUMPDEST PUSH1 0x0 PUSH20 0xFFFFFFFFFFFFFFFFFFFFFFFFFFFFFFFFFFFFFFFF AND DUP2 PUSH20 0xFFFFFFFFFFFFFFFFFFFFFFFFFFFFFFFFFFFFFFFF AND SUB PUSH2 0x1FB4 JUMPI PUSH1 0x40 MLOAD PUSH32 0x8C379A000000000000000000000000000000000000000000000000000000000 DUP2 MSTORE PUSH1 0x4 ADD PUSH2 0x1FAB SWAP1 PUSH2 0x4265 JUMP JUMPDEST PUSH1 0x40 MLOAD DUP1 SWAP2 SUB SWAP1 REVERT JUMPDEST PUSH2 0x1FBD DUP2 PUSH2 0x26C9 JUMP JUMPDEST POP JUMP JUMPDEST PUSH1 0x60 PUSH1 0x0 PUSH1 0x2 DUP4 PUSH1 0x2 PUSH2 0x1FD3 SWAP2 SWAP1 PUSH2 0x3F31 JUMP JUMPDEST PUSH2 0x1FDD SWAP2 SWAP1 PUSH2 0x3D51 JUMP JUMPDEST PUSH8 0xFFFFFFFFFFFFFFFF DUP2 GT ISZERO PUSH2 0x1FF6 JUMPI PUSH2 0x1FF5 PUSH2 0x355E JUMP JUMPDEST JUMPDEST PUSH1 0x40 MLOAD SWAP1 DUP1 DUP3 MSTORE DUP1 PUSH1 0x1F ADD PUSH1 0x1F NOT AND PUSH1 0x20 ADD DUP3 ADD PUSH1 0x40 MSTORE DUP1 ISZERO PUSH2 0x2028 JUMPI DUP2 PUSH1 0x20 ADD PUSH1 0x1 DUP3 MUL DUP1 CALLDATASIZE DUP4 CALLDATACOPY DUP1 DUP3 ADD SWAP2 POP POP SWAP1 POP JUMPDEST POP SWAP1 POP PUSH32 0x3000000000000000000000000000000000000000000000000000000000000000 DUP2 PUSH1 0x0 DUP2 MLOAD DUP2 LT PUSH2 0x2060 JUMPI PUSH2 0x205F PUSH2 0x3F02 JUMP JUMPDEST JUMPDEST PUSH1 0x20 ADD ADD SWAP1 PUSH31 0xFFFFFFFFFFFFFFFFFFFFFFFFFFFFFFFFFFFFFFFFFFFFFFFFFFFFFFFFFFFFFF NOT AND SWAP1 DUP2 PUSH1 0x0 BYTE SWAP1 MSTORE8 POP PUSH32 0x7800000000000000000000000000000000000000000000000000000000000000 DUP2 PUSH1 0x1 DUP2 MLOAD DUP2 LT PUSH2 0x20C4 JUMPI PUSH2 0x20C3 PUSH2 0x3F02 JUMP JUMPDEST JUMPDEST PUSH1 0x20 ADD ADD SWAP1 PUSH31 0xFFFFFFFFFFFFFFFFFFFFFFFFFFFFFFFFFFFFFFFFFFFFFFFFFFFFFFFFFFFFFF NOT AND SWAP1 DUP2 PUSH1 0x0 BYTE SWAP1 MSTORE8 POP PUSH1 0x0 PUSH1 0x1 DUP5 PUSH1 0x2 PUSH2 0x2104 SWAP2 SWAP1 PUSH2 0x3F31 JUMP JUMPDEST PUSH2 0x210E SWAP2 SWAP1 PUSH2 0x3D51 JUMP JUMPDEST SWAP1 POP JUMPDEST PUSH1 0x1 DUP2 GT ISZERO PUSH2 0x21AE JUMPI PUSH32 0x3031323334353637383961626364656600000000000000000000000000000000 PUSH1 0xF DUP7 AND PUSH1 0x10 DUP2 LT PUSH2 0x2150 JUMPI PUSH2 0x214F PUSH2 0x3F02 JUMP JUMPDEST JUMPDEST BYTE PUSH1 0xF8 SHL DUP3 DUP3 DUP2 MLOAD DUP2 LT PUSH2 0x2167 JUMPI PUSH2 0x2166 PUSH2 0x3F02 JUMP JUMPDEST JUMPDEST PUSH1 0x20 ADD ADD SWAP1 PUSH31 0xFFFFFFFFFFFFFFFFFFFFFFFFFFFFFFFFFFFFFFFFFFFFFFFFFFFFFFFFFFFFFF NOT AND SWAP1 DUP2 PUSH1 0x0 BYTE SWAP1 MSTORE8 POP PUSH1 0x4 DUP6 SWAP1 SHR SWAP5 POP DUP1 PUSH2 0x21A7 SWAP1 PUSH2 0x4285 JUMP JUMPDEST SWAP1 POP PUSH2 0x2111 JUMP JUMPDEST POP PUSH1 0x0 DUP5 EQ PUSH2 0x21F2 JUMPI PUSH1 0x40 MLOAD PUSH32 0x8C379A000000000000000000000000000000000000000000000000000000000 DUP2 MSTORE PUSH1 0x4 ADD PUSH2 0x21E9 SWAP1 PUSH2 0x42FA JUMP JUMPDEST PUSH1 0x40 MLOAD DUP1 SWAP2 SUB SWAP1 REVERT JUMPDEST DUP1 SWAP2 POP POP SWAP3 SWAP2 POP POP JUMP JUMPDEST PUSH1 0x0 PUSH32 0x1FFC9A700000000000000000000000000000000000000000000000000000000 PUSH28 0xFFFFFFFFFFFFFFFFFFFFFFFFFFFFFFFFFFFFFFFFFFFFFFFFFFFFFFFF NOT AND DUP3 PUSH28 0xFFFFFFFFFFFFFFFFFFFFFFFFFFFFFFFFFFFFFFFFFFFFFFFFFFFFFFFF NOT AND EQ SWAP1 POP SWAP2 SWAP1 POP JUMP JUMPDEST PUSH1 0x0 CALLER SWAP1 POP SWAP1 JUMP JUMPDEST PUSH2 0x2278 DUP3 DUP3 PUSH2 0x1395 JUMP JUMPDEST PUSH2 0x2307 JUMPI PUSH2 0x229D DUP2 PUSH20 0xFFFFFFFFFFFFFFFFFFFFFFFFFFFFFFFFFFFFFFFF AND PUSH1 0x14 PUSH2 0x1FC0 JUMP JUMPDEST PUSH2 0x22AB DUP4 PUSH1 0x0 SHR PUSH1 0x20 PUSH2 0x1FC0 JUMP JUMPDEST PUSH1 0x40 MLOAD PUSH1 0x20 ADD PUSH2 0x22BC SWAP3 SWAP2 SWAP1 PUSH2 0x43B2 JUMP JUMPDEST PUSH1 0x40 MLOAD PUSH1 0x20 DUP2 DUP4 SUB SUB DUP2 MSTORE SWAP1 PUSH1 0x40 MSTORE PUSH1 0x40 MLOAD PUSH32 0x8C379A000000000000000000000000000000000000000000000000000000000 DUP2 MSTORE PUSH1 0x4 ADD PUSH2 0x22FE SWAP2 SWAP1 PUSH2 0x43EC JUMP JUMPDEST PUSH1 0x40 MLOAD DUP1 SWAP2 SUB SWAP1 REVERT JUMPDEST POP POP JUMP JUMPDEST PUSH2 0x2315 DUP3 DUP3 PUSH2 0x1395 JUMP JUMPDEST PUSH2 0x23E8 JUMPI PUSH1 0x1 PUSH1 0x7 PUSH1 0x0 DUP5 DUP2 MSTORE PUSH1 0x20 ADD SWAP1 DUP2 MSTORE PUSH1 0x20 ADD PUSH1 0x0 KECCAK256 PUSH1 0x0 ADD PUSH1 0x0 DUP4 PUSH20 0xFFFFFFFFFFFFFFFFFFFFFFFFFFFFFFFFFFFFFFFF AND PUSH20 0xFFFFFFFFFFFFFFFFFFFFFFFFFFFFFFFFFFFFFFFF AND DUP2 MSTORE PUSH1 0x20 ADD SWAP1 DUP2 MSTORE PUSH1 0x20 ADD PUSH1 0x0 KECCAK256 PUSH1 0x0 PUSH2 0x100 EXP DUP2 SLOAD DUP2 PUSH1 0xFF MUL NOT AND SWAP1 DUP4 ISZERO ISZERO MUL OR SWAP1 SSTORE POP PUSH2 0x238D PUSH2 0x2266 JUMP JUMPDEST PUSH20 0xFFFFFFFFFFFFFFFFFFFFFFFFFFFFFFFFFFFFFFFF AND DUP2 PUSH20 0xFFFFFFFFFFFFFFFFFFFFFFFFFFFFFFFFFFFFFFFF AND DUP4 PUSH32 0x2F8788117E7EFF1D82E926EC794901D17C78024A50270940304540A733656F0D PUSH1 0x40 MLOAD PUSH1 0x40 MLOAD DUP1 SWAP2 SUB SWAP1 LOG4 JUMPDEST POP POP JUMP JUMPDEST PUSH2 0x23F6 DUP3 DUP3 PUSH2 0x1395 JUMP JUMPDEST ISZERO PUSH2 0x24CA JUMPI PUSH1 0x0 PUSH1 0x7 PUSH1 0x0 DUP5 DUP2 MSTORE PUSH1 0x20 ADD SWAP1 DUP2 MSTORE PUSH1 0x20 ADD PUSH1 0x0 KECCAK256 PUSH1 0x0 ADD PUSH1 0x0 DUP4 PUSH20 0xFFFFFFFFFFFFFFFFFFFFFFFFFFFFFFFFFFFFFFFF AND PUSH20 0xFFFFFFFFFFFFFFFFFFFFFFFFFFFFFFFFFFFFFFFF AND DUP2 MSTORE PUSH1 0x20 ADD SWAP1 DUP2 MSTORE PUSH1 0x20 ADD PUSH1 0x0 KECCAK256 PUSH1 0x0 PUSH2 0x100 EXP DUP2 SLOAD DUP2 PUSH1 0xFF MUL NOT AND SWAP1 DUP4 ISZERO ISZERO MUL OR SWAP1 SSTORE POP PUSH2 0x246F PUSH2 0x2266 JUMP JUMPDEST PUSH20 0xFFFFFFFFFFFFFFFFFFFFFFFFFFFFFFFFFFFFFFFF AND DUP2 PUSH20 0xFFFFFFFFFFFFFFFFFFFFFFFFFFFFFFFFFFFFFFFF AND DUP4 PUSH32 0xF6391F5C32D9C69D2A47EA670B442974B53935D1EDC7FD64EB21E047A839171B PUSH1 0x40 MLOAD PUSH1 0x40 MLOAD DUP1 SWAP2 SUB SWAP1 LOG4 JUMPDEST POP POP JUMP JUMPDEST PUSH2 0x24D6 PUSH2 0x2F82 JUMP JUMPDEST PUSH2 0x24DE PUSH2 0x2F82 JUMP JUMPDEST PUSH2 0x24F5 DUP6 DUP6 DUP6 DUP5 PUSH2 0x278F SWAP1 SWAP4 SWAP3 SWAP2 SWAP1 PUSH4 0xFFFFFFFF AND JUMP JUMPDEST SWAP2 POP POP SWAP4 SWAP3 POP POP POP JUMP JUMPDEST PUSH1 0x60 PUSH1 0x0 DUP3 SUB PUSH2 0x2546 JUMPI PUSH1 0x40 MLOAD DUP1 PUSH1 0x40 ADD PUSH1 0x40 MSTORE DUP1 PUSH1 0x1 DUP2 MSTORE PUSH1 0x20 ADD PUSH32 0x3000000000000000000000000000000000000000000000000000000000000000 DUP2 MSTORE POP SWAP1 POP PUSH2 0x265A JUMP JUMPDEST PUSH1 0x0 DUP3 SWAP1 POP PUSH1 0x0 JUMPDEST PUSH1 0x0 DUP3 EQ PUSH2 0x2578 JUMPI DUP1 DUP1 PUSH2 0x2561 SWAP1 PUSH2 0x3DB9 JUMP JUMPDEST SWAP2 POP POP PUSH1 0xA DUP3 PUSH2 0x2571 SWAP2 SWAP1 PUSH2 0x3D20 JUMP JUMPDEST SWAP2 POP PUSH2 0x254E JUMP JUMPDEST PUSH1 0x0 DUP2 PUSH8 0xFFFFFFFFFFFFFFFF DUP2 GT ISZERO PUSH2 0x2594 JUMPI PUSH2 0x2593 PUSH2 0x355E JUMP JUMPDEST JUMPDEST PUSH1 0x40 MLOAD SWAP1 DUP1 DUP3 MSTORE DUP1 PUSH1 0x1F ADD PUSH1 0x1F NOT AND PUSH1 0x20 ADD DUP3 ADD PUSH1 0x40 MSTORE DUP1 ISZERO PUSH2 0x25C6 JUMPI DUP2 PUSH1 0x20 ADD PUSH1 0x1 DUP3 MUL DUP1 CALLDATASIZE DUP4 CALLDATACOPY DUP1 DUP3 ADD SWAP2 POP POP SWAP1 POP JUMPDEST POP SWAP1 POP JUMPDEST PUSH1 0x0 DUP6 EQ PUSH2 0x2653 JUMPI PUSH1 0x1 DUP3 PUSH2 0x25DF SWAP2 SWAP1 PUSH2 0x3D85 JUMP JUMPDEST SWAP2 POP PUSH1 0xA DUP6 PUSH2 0x25EE SWAP2 SWAP1 PUSH2 0x440E JUMP JUMPDEST PUSH1 0x30 PUSH2 0x25FA SWAP2 SWAP1 PUSH2 0x3D51 JUMP JUMPDEST PUSH1 0xF8 SHL DUP2 DUP4 DUP2 MLOAD DUP2 LT PUSH2 0x2610 JUMPI PUSH2 0x260F PUSH2 0x3F02 JUMP JUMPDEST JUMPDEST PUSH1 0x20 ADD ADD SWAP1 PUSH31 0xFFFFFFFFFFFFFFFFFFFFFFFFFFFFFFFFFFFFFFFFFFFFFFFFFFFFFFFFFFFFFF NOT AND SWAP1 DUP2 PUSH1 0x0 BYTE SWAP1 MSTORE8 POP PUSH1 0xA DUP6 PUSH2 0x264C SWAP2 SWAP1 PUSH2 0x3D20 JUMP JUMPDEST SWAP5 POP PUSH2 0x25CA JUMP JUMPDEST DUP1 SWAP4 POP POP POP POP JUMPDEST SWAP2 SWAP1 POP JUMP JUMPDEST PUSH2 0x2676 DUP3 DUP5 PUSH1 0x80 ADD MLOAD PUSH2 0x283F SWAP1 SWAP2 SWAP1 PUSH4 0xFFFFFFFF AND JUMP JUMPDEST PUSH2 0x268D DUP2 DUP5 PUSH1 0x80 ADD MLOAD PUSH2 0x283F SWAP1 SWAP2 SWAP1 PUSH4 0xFFFFFFFF AND JUMP JUMPDEST POP POP POP JUMP JUMPDEST PUSH1 0x0 PUSH2 0x26C1 PUSH1 0x3 PUSH1 0x0 SWAP1 SLOAD SWAP1 PUSH2 0x100 EXP SWAP1 DIV PUSH20 0xFFFFFFFFFFFFFFFFFFFFFFFFFFFFFFFFFFFFFFFF AND DUP5 DUP5 PUSH2 0x2864 JUMP JUMPDEST SWAP1 POP SWAP3 SWAP2 POP POP JUMP JUMPDEST PUSH1 0x0 PUSH1 0x6 PUSH1 0x0 SWAP1 SLOAD SWAP1 PUSH2 0x100 EXP SWAP1 DIV PUSH20 0xFFFFFFFFFFFFFFFFFFFFFFFFFFFFFFFFFFFFFFFF AND SWAP1 POP DUP2 PUSH1 0x6 PUSH1 0x0 PUSH2 0x100 EXP DUP2 SLOAD DUP2 PUSH20 0xFFFFFFFFFFFFFFFFFFFFFFFFFFFFFFFFFFFFFFFF MUL NOT AND SWAP1 DUP4 PUSH20 0xFFFFFFFFFFFFFFFFFFFFFFFFFFFFFFFFFFFFFFFF AND MUL OR SWAP1 SSTORE POP DUP2 PUSH20 0xFFFFFFFFFFFFFFFFFFFFFFFFFFFFFFFFFFFFFFFF AND DUP2 PUSH20 0xFFFFFFFFFFFFFFFFFFFFFFFFFFFFFFFFFFFFFFFF AND PUSH32 0x8BE0079C531659141344CD1FD0A4F28419497F9722A3DAAFE3B4186F6B6457E0 PUSH1 0x40 MLOAD PUSH1 0x40 MLOAD DUP1 SWAP2 SUB SWAP1 LOG3 POP POP JUMP JUMPDEST PUSH2 0x2797 PUSH2 0x2F82 JUMP JUMPDEST PUSH2 0x27A7 DUP6 PUSH1 0x80 ADD MLOAD PUSH2 0x100 PUSH2 0x2930 JUMP JUMPDEST POP DUP4 DUP6 PUSH1 0x0 ADD DUP2 DUP2 MSTORE POP POP DUP3 DUP6 PUSH1 0x20 ADD SWAP1 PUSH20 0xFFFFFFFFFFFFFFFFFFFFFFFFFFFFFFFFFFFFFFFF AND SWAP1 DUP2 PUSH20 0xFFFFFFFFFFFFFFFFFFFFFFFFFFFFFFFFFFFFFFFF AND DUP2 MSTORE POP POP DUP2 DUP6 PUSH1 0x40 ADD SWAP1 PUSH28 0xFFFFFFFFFFFFFFFFFFFFFFFFFFFFFFFFFFFFFFFFFFFFFFFFFFFFFFFF NOT AND SWAP1 DUP2 PUSH28 0xFFFFFFFFFFFFFFFFFFFFFFFFFFFFFFFFFFFFFFFFFFFFFFFFFFFFFFFF NOT AND DUP2 MSTORE POP POP DUP5 SWAP1 POP SWAP5 SWAP4 POP POP POP POP JUMP JUMPDEST PUSH2 0x284C DUP3 PUSH1 0x3 DUP4 MLOAD PUSH2 0x299A JUMP JUMPDEST PUSH2 0x285F DUP2 DUP4 PUSH2 0x2B1F SWAP1 SWAP2 SWAP1 PUSH4 0xFFFFFFFF AND JUMP JUMPDEST POP POP POP JUMP JUMPDEST PUSH1 0x0 DUP1 PUSH1 0x4 SLOAD SWAP1 POP PUSH1 0x1 DUP2 PUSH2 0x2879 SWAP2 SWAP1 PUSH2 0x3D51 JUMP JUMPDEST PUSH1 0x4 DUP2 SWAP1 SSTORE POP PUSH1 0x0 PUSH4 0x40429946 PUSH1 0xE0 SHL PUSH1 0x0 DUP1 DUP8 PUSH1 0x0 ADD MLOAD ADDRESS DUP10 PUSH1 0x40 ADD MLOAD DUP8 PUSH1 0x1 DUP13 PUSH1 0x80 ADD MLOAD PUSH1 0x0 ADD MLOAD PUSH1 0x40 MLOAD PUSH1 0x24 ADD PUSH2 0x28BA SWAP9 SWAP8 SWAP7 SWAP6 SWAP5 SWAP4 SWAP3 SWAP2 SWAP1 PUSH2 0x44A3 JUMP JUMPDEST PUSH1 0x40 MLOAD PUSH1 0x20 DUP2 DUP4 SUB SUB DUP2 MSTORE SWAP1 PUSH1 0x40 MSTORE SWAP1 PUSH28 0xFFFFFFFFFFFFFFFFFFFFFFFFFFFFFFFFFFFFFFFFFFFFFFFFFFFFFFFF NOT AND PUSH1 0x20 DUP3 ADD DUP1 MLOAD PUSH28 0xFFFFFFFFFFFFFFFFFFFFFFFFFFFFFFFFFFFFFFFFFFFFFFFFFFFFFFFF DUP4 DUP2 DUP4 AND OR DUP4 MSTORE POP POP POP POP SWAP1 POP PUSH2 0x2925 DUP7 DUP4 DUP7 DUP5 PUSH2 0x2B41 JUMP JUMPDEST SWAP3 POP POP POP SWAP4 SWAP3 POP POP POP JUMP JUMPDEST PUSH2 0x2938 PUSH2 0x2FEF JUMP JUMPDEST PUSH1 0x0 PUSH1 0x20 DUP4 PUSH2 0x2947 SWAP2 SWAP1 PUSH2 0x440E JUMP JUMPDEST EQ PUSH2 0x2973 JUMPI PUSH1 0x20 DUP3 PUSH2 0x2959 SWAP2 SWAP1 PUSH2 0x440E JUMP JUMPDEST PUSH1 0x20 PUSH2 0x2965 SWAP2 SWAP1 PUSH2 0x3D85 JUMP JUMPDEST DUP3 PUSH2 0x2970 SWAP2 SWAP1 PUSH2 0x3D51 JUMP JUMPDEST SWAP2 POP JUMPDEST DUP2 DUP4 PUSH1 0x20 ADD DUP2 DUP2 MSTORE POP POP PUSH1 0x40 MLOAD DUP1 DUP5 MSTORE PUSH1 0x0 DUP2 MSTORE DUP3 DUP2 ADD PUSH1 0x20 ADD PUSH1 0x40 MSTORE POP DUP3 SWAP1 POP SWAP3 SWAP2 POP POP JUMP JUMPDEST PUSH1 0x17 DUP2 PUSH8 0xFFFFFFFFFFFFFFFF AND GT PUSH2 0x29D1 JUMPI PUSH2 0x29CB DUP2 PUSH1 0x5 DUP5 PUSH1 0xFF AND SWAP1 SHL PUSH1 0xFF AND OR DUP5 PUSH2 0x2CD6 SWAP1 SWAP2 SWAP1 PUSH4 0xFFFFFFFF AND JUMP JUMPDEST POP PUSH2 0x2B1A JUMP JUMPDEST PUSH1 0xFF DUP2 PUSH8 0xFFFFFFFFFFFFFFFF AND GT PUSH2 0x2A27 JUMPI PUSH2 0x2A00 PUSH1 0x18 PUSH1 0x5 DUP5 PUSH1 0xFF AND SWAP1 SHL OR DUP5 PUSH2 0x2CD6 SWAP1 SWAP2 SWAP1 PUSH4 0xFFFFFFFF AND JUMP JUMPDEST POP PUSH2 0x2A21 DUP2 PUSH8 0xFFFFFFFFFFFFFFFF AND PUSH1 0x1 DUP6 PUSH2 0x2CF6 SWAP1 SWAP3 SWAP2 SWAP1 PUSH4 0xFFFFFFFF AND JUMP JUMPDEST POP PUSH2 0x2B19 JUMP JUMPDEST PUSH2 0xFFFF DUP2 PUSH8 0xFFFFFFFFFFFFFFFF AND GT PUSH2 0x2A7E JUMPI PUSH2 0x2A57 PUSH1 0x19 PUSH1 0x5 DUP5 PUSH1 0xFF AND SWAP1 SHL OR DUP5 PUSH2 0x2CD6 SWAP1 SWAP2 SWAP1 PUSH4 0xFFFFFFFF AND JUMP JUMPDEST POP PUSH2 0x2A78 DUP2 PUSH8 0xFFFFFFFFFFFFFFFF AND PUSH1 0x2 DUP6 PUSH2 0x2CF6 SWAP1 SWAP3 SWAP2 SWAP1 PUSH4 0xFFFFFFFF AND JUMP JUMPDEST POP PUSH2 0x2B18 JUMP JUMPDEST PUSH4 0xFFFFFFFF DUP2 PUSH8 0xFFFFFFFFFFFFFFFF AND GT PUSH2 0x2AD7 JUMPI PUSH2 0x2AB0 PUSH1 0x1A PUSH1 0x5 DUP5 PUSH1 0xFF AND SWAP1 SHL OR DUP5 PUSH2 0x2CD6 SWAP1 SWAP2 SWAP1 PUSH4 0xFFFFFFFF AND JUMP JUMPDEST POP PUSH2 0x2AD1 DUP2 PUSH8 0xFFFFFFFFFFFFFFFF AND PUSH1 0x4 DUP6 PUSH2 0x2CF6 SWAP1 SWAP3 SWAP2 SWAP1 PUSH4 0xFFFFFFFF AND JUMP JUMPDEST POP PUSH2 0x2B17 JUMP JUMPDEST PUSH2 0x2AF4 PUSH1 0x1B PUSH1 0x5 DUP5 PUSH1 0xFF AND SWAP1 SHL OR DUP5 PUSH2 0x2CD6 SWAP1 SWAP2 SWAP1 PUSH4 0xFFFFFFFF AND JUMP JUMPDEST POP PUSH2 0x2B15 DUP2 PUSH8 0xFFFFFFFFFFFFFFFF AND PUSH1 0x8 DUP6 PUSH2 0x2CF6 SWAP1 SWAP3 SWAP2 SWAP1 PUSH4 0xFFFFFFFF AND JUMP JUMPDEST POP JUMPDEST JUMPDEST JUMPDEST JUMPDEST POP POP POP JUMP JUMPDEST PUSH2 0x2B27 PUSH2 0x2FEF JUMP JUMPDEST PUSH2 0x2B39 DUP4 DUP5 PUSH1 0x0 ADD MLOAD MLOAD DUP5 DUP6 MLOAD PUSH2 0x2D18 JUMP JUMPDEST SWAP1 POP SWAP3 SWAP2 POP POP JUMP JUMPDEST PUSH1 0x0 ADDRESS DUP5 PUSH1 0x40 MLOAD PUSH1 0x20 ADD PUSH2 0x2B56 SWAP3 SWAP2 SWAP1 PUSH2 0x45D7 JUMP JUMPDEST PUSH1 0x40 MLOAD PUSH1 0x20 DUP2 DUP4 SUB SUB DUP2 MSTORE SWAP1 PUSH1 0x40 MSTORE DUP1 MLOAD SWAP1 PUSH1 0x20 ADD KECCAK256 SWAP1 POP DUP5 PUSH1 0x5 PUSH1 0x0 DUP4 DUP2 MSTORE PUSH1 0x20 ADD SWAP1 DUP2 MSTORE PUSH1 0x20 ADD PUSH1 0x0 KECCAK256 PUSH1 0x0 PUSH2 0x100 EXP DUP2 SLOAD DUP2 PUSH20 0xFFFFFFFFFFFFFFFFFFFFFFFFFFFFFFFFFFFFFFFF MUL NOT AND SWAP1 DUP4 PUSH20 0xFFFFFFFFFFFFFFFFFFFFFFFFFFFFFFFFFFFFFFFF AND MUL OR SWAP1 SSTORE POP DUP1 PUSH32 0xB5E6E01E79F91267DC17B4E6314D5D4D03593D2CEEE0FBB452B750BD70EA5AF9 PUSH1 0x40 MLOAD PUSH1 0x40 MLOAD DUP1 SWAP2 SUB SWAP1 LOG2 PUSH1 0x2 PUSH1 0x0 SWAP1 SLOAD SWAP1 PUSH2 0x100 EXP SWAP1 DIV PUSH20 0xFFFFFFFFFFFFFFFFFFFFFFFFFFFFFFFFFFFFFFFF AND PUSH20 0xFFFFFFFFFFFFFFFFFFFFFFFFFFFFFFFFFFFFFFFF AND PUSH4 0x4000AEA0 DUP7 DUP6 DUP6 PUSH1 0x40 MLOAD DUP5 PUSH4 0xFFFFFFFF AND PUSH1 0xE0 SHL DUP2 MSTORE PUSH1 0x4 ADD PUSH2 0x2C4C SWAP4 SWAP3 SWAP2 SWAP1 PUSH2 0x4603 JUMP JUMPDEST PUSH1 0x20 PUSH1 0x40 MLOAD DUP1 DUP4 SUB DUP2 PUSH1 0x0 DUP8 GAS CALL ISZERO DUP1 ISZERO PUSH2 0x2C6B JUMPI RETURNDATASIZE PUSH1 0x0 DUP1 RETURNDATACOPY RETURNDATASIZE PUSH1 0x0 REVERT JUMPDEST POP POP POP POP PUSH1 0x40 MLOAD RETURNDATASIZE PUSH1 0x1F NOT PUSH1 0x1F DUP3 ADD AND DUP3 ADD DUP1 PUSH1 0x40 MSTORE POP DUP2 ADD SWAP1 PUSH2 0x2C8F SWAP2 SWAP1 PUSH2 0x466D JUMP JUMPDEST PUSH2 0x2CCE JUMPI PUSH1 0x40 MLOAD PUSH32 0x8C379A000000000000000000000000000000000000000000000000000000000 DUP2 MSTORE PUSH1 0x4 ADD PUSH2 0x2CC5 SWAP1 PUSH2 0x470C JUMP JUMPDEST PUSH1 0x40 MLOAD DUP1 SWAP2 SUB SWAP1 REVERT JUMPDEST SWAP5 SWAP4 POP POP POP POP JUMP JUMPDEST PUSH2 0x2CDE PUSH2 0x2FEF JUMP JUMPDEST PUSH2 0x2CEE DUP4 DUP5 PUSH1 0x0 ADD MLOAD MLOAD DUP5 PUSH2 0x2E07 JUMP JUMPDEST SWAP1 POP SWAP3 SWAP2 POP POP JUMP JUMPDEST PUSH2 0x2CFE PUSH2 0x2FEF JUMP JUMPDEST PUSH2 0x2D0F DUP5 DUP6 PUSH1 0x0 ADD MLOAD MLOAD DUP6 DUP6 PUSH2 0x2E5D JUMP JUMPDEST SWAP1 POP SWAP4 SWAP3 POP POP POP JUMP JUMPDEST PUSH2 0x2D20 PUSH2 0x2FEF JUMP JUMPDEST DUP3 MLOAD DUP3 GT ISZERO PUSH2 0x2D2E JUMPI PUSH1 0x0 DUP1 REVERT JUMPDEST DUP5 PUSH1 0x20 ADD MLOAD DUP3 DUP6 PUSH2 0x2D3F SWAP2 SWAP1 PUSH2 0x3D51 JUMP JUMPDEST GT ISZERO PUSH2 0x2D74 JUMPI PUSH2 0x2D73 DUP6 PUSH1 0x2 PUSH2 0x2D64 DUP9 PUSH1 0x20 ADD MLOAD DUP9 DUP8 PUSH2 0x2D5F SWAP2 SWAP1 PUSH2 0x3D51 JUMP JUMPDEST PUSH2 0x2EEB JUMP JUMPDEST PUSH2 0x2D6E SWAP2 SWAP1 PUSH2 0x3F31 JUMP JUMPDEST PUSH2 0x2F07 JUMP JUMPDEST JUMPDEST PUSH1 0x0 DUP1 DUP7 MLOAD DUP1 MLOAD DUP8 PUSH1 0x20 DUP4 ADD ADD SWAP4 POP DUP1 DUP9 DUP8 ADD GT ISZERO PUSH2 0x2D93 JUMPI DUP8 DUP7 ADD DUP3 MSTORE JUMPDEST PUSH1 0x20 DUP8 ADD SWAP3 POP POP POP JUMPDEST PUSH1 0x20 DUP5 LT PUSH2 0x2DDA JUMPI DUP1 MLOAD DUP3 MSTORE PUSH1 0x20 DUP3 PUSH2 0x2DB5 SWAP2 SWAP1 PUSH2 0x3D51 JUMP JUMPDEST SWAP2 POP PUSH1 0x20 DUP2 PUSH2 0x2DC4 SWAP2 SWAP1 PUSH2 0x3D51 JUMP JUMPDEST SWAP1 POP PUSH1 0x20 DUP5 PUSH2 0x2DD3 SWAP2 SWAP1 PUSH2 0x3D85 JUMP JUMPDEST SWAP4 POP PUSH2 0x2D9C JUMP JUMPDEST PUSH1 0x0 PUSH1 0x1 DUP6 PUSH1 0x20 SUB PUSH2 0x100 EXP SUB SWAP1 POP DUP1 NOT DUP3 MLOAD AND DUP2 DUP5 MLOAD AND DUP2 DUP2 OR DUP6 MSTORE POP POP POP DUP7 SWAP3 POP POP POP SWAP5 SWAP4 POP POP POP POP JUMP JUMPDEST PUSH2 0x2E0F PUSH2 0x2FEF JUMP JUMPDEST DUP4 PUSH1 0x20 ADD MLOAD DUP4 LT PUSH2 0x2E35 JUMPI PUSH2 0x2E34 DUP5 PUSH1 0x2 DUP7 PUSH1 0x20 ADD MLOAD PUSH2 0x2E2F SWAP2 SWAP1 PUSH2 0x3F31 JUMP JUMPDEST PUSH2 0x2F07 JUMP JUMPDEST JUMPDEST DUP4 MLOAD DUP1 MLOAD PUSH1 0x20 DUP6 DUP4 ADD ADD DUP5 DUP2 MSTORE8 DUP2 DUP7 SUB PUSH2 0x2E50 JUMPI PUSH1 0x1 DUP3 ADD DUP4 MSTORE JUMPDEST POP POP POP DUP4 SWAP1 POP SWAP4 SWAP3 POP POP POP JUMP JUMPDEST PUSH2 0x2E65 PUSH2 0x2FEF JUMP JUMPDEST DUP5 PUSH1 0x20 ADD MLOAD DUP5 DUP4 PUSH2 0x2E76 SWAP2 SWAP1 PUSH2 0x3D51 JUMP JUMPDEST GT ISZERO PUSH2 0x2E9E JUMPI PUSH2 0x2E9D DUP6 PUSH1 0x2 DUP7 DUP6 PUSH2 0x2E8E SWAP2 SWAP1 PUSH2 0x3D51 JUMP JUMPDEST PUSH2 0x2E98 SWAP2 SWAP1 PUSH2 0x3F31 JUMP JUMPDEST PUSH2 0x2F07 JUMP JUMPDEST JUMPDEST PUSH1 0x0 PUSH1 0x1 DUP4 PUSH2 0x100 PUSH2 0x2EB0 SWAP2 SWAP1 PUSH2 0x485F JUMP JUMPDEST PUSH2 0x2EBA SWAP2 SWAP1 PUSH2 0x3D85 JUMP JUMPDEST SWAP1 POP DUP6 MLOAD DUP4 DUP7 DUP3 ADD ADD DUP6 DUP4 NOT DUP3 MLOAD AND OR DUP2 MSTORE DUP2 MLOAD DUP6 DUP9 ADD GT ISZERO PUSH2 0x2EDD JUMPI DUP5 DUP8 ADD DUP3 MSTORE JUMPDEST POP POP DUP6 SWAP2 POP POP SWAP5 SWAP4 POP POP POP POP JUMP JUMPDEST PUSH1 0x0 DUP2 DUP4 GT ISZERO PUSH2 0x2EFD JUMPI DUP3 SWAP1 POP PUSH2 0x2F01 JUMP JUMPDEST DUP2 SWAP1 POP JUMPDEST SWAP3 SWAP2 POP POP JUMP JUMPDEST PUSH1 0x0 DUP3 PUSH1 0x0 ADD MLOAD SWAP1 POP PUSH2 0x2F1A DUP4 DUP4 PUSH2 0x2930 JUMP JUMPDEST POP PUSH2 0x2F25 DUP4 DUP3 PUSH2 0x2B1F JUMP JUMPDEST POP POP POP POP JUMP JUMPDEST PUSH1 0x40 MLOAD DUP1 PUSH1 0xE0 ADD PUSH1 0x40 MSTORE DUP1 PUSH1 0x0 PUSH20 0xFFFFFFFFFFFFFFFFFFFFFFFFFFFFFFFFFFFFFFFF AND DUP2 MSTORE PUSH1 0x20 ADD PUSH1 0x0 DUP2 MSTORE PUSH1 0x20 ADD PUSH1 0x0 DUP2 MSTORE PUSH1 0x20 ADD PUSH1 0x0 DUP2 MSTORE PUSH1 0x20 ADD PUSH1 0x0 DUP2 MSTORE PUSH1 0x20 ADD PUSH1 0x0 ISZERO ISZERO DUP2 MSTORE PUSH1 0x20 ADD PUSH1 0x0 ISZERO ISZERO DUP2 MSTORE POP SWAP1 JUMP JUMPDEST PUSH1 0x40 MLOAD DUP1 PUSH1 0xA0 ADD PUSH1 0x40 MSTORE DUP1 PUSH1 0x0 DUP1 NOT AND DUP2 MSTORE PUSH1 0x20 ADD PUSH1 0x0 PUSH20 0xFFFFFFFFFFFFFFFFFFFFFFFFFFFFFFFFFFFFFFFF AND DUP2 MSTORE PUSH1 0x20 ADD PUSH1 0x0 PUSH28 0xFFFFFFFFFFFFFFFFFFFFFFFFFFFFFFFFFFFFFFFFFFFFFFFFFFFFFFFF NOT AND DUP2 MSTORE PUSH1 0x20 ADD PUSH1 0x0 DUP2 MSTORE PUSH1 0x20 ADD PUSH2 0x2FE9 PUSH2 0x2FEF JUMP JUMPDEST DUP2 MSTORE POP SWAP1 JUMP JUMPDEST PUSH1 0x40 MLOAD DUP1 PUSH1 0x40 ADD PUSH1 0x40 MSTORE DUP1 PUSH1 0x60 DUP2 MSTORE PUSH1 0x20 ADD PUSH1 0x0 DUP2 MSTORE POP SWAP1 JUMP JUMPDEST PUSH1 0x0 PUSH1 0x40 MLOAD SWAP1 POP SWAP1 JUMP JUMPDEST PUSH1 0x0 DUP1 REVERT JUMPDEST PUSH1 0x0 DUP1 REVERT JUMPDEST PUSH1 0x0 PUSH32 0xFFFFFFFF00000000000000000000000000000000000000000000000000000000 DUP3 AND SWAP1 POP SWAP2 SWAP1 POP JUMP JUMPDEST PUSH2 0x3052 DUP2 PUSH2 0x301D JUMP JUMPDEST DUP2 EQ PUSH2 0x305D JUMPI PUSH1 0x0 DUP1 REVERT JUMPDEST POP JUMP JUMPDEST PUSH1 0x0 DUP2 CALLDATALOAD SWAP1 POP PUSH2 0x306F DUP2 PUSH2 0x3049 JUMP JUMPDEST SWAP3 SWAP2 POP POP JUMP JUMPDEST PUSH1 0x0 PUSH1 0x20 DUP3 DUP5 SUB SLT ISZERO PUSH2 0x308B JUMPI PUSH2 0x308A PUSH2 0x3013 JUMP JUMPDEST JUMPDEST PUSH1 0x0 PUSH2 0x3099 DUP5 DUP3 DUP6 ADD PUSH2 0x3060 JUMP JUMPDEST SWAP2 POP POP SWAP3 SWAP2 POP POP JUMP JUMPDEST PUSH1 0x0 DUP2 ISZERO ISZERO SWAP1 POP SWAP2 SWAP1 POP JUMP JUMPDEST PUSH2 0x30B7 DUP2 PUSH2 0x30A2 JUMP JUMPDEST DUP3 MSTORE POP POP JUMP JUMPDEST PUSH1 0x0 PUSH1 0x20 DUP3 ADD SWAP1 POP PUSH2 0x30D2 PUSH1 0x0 DUP4 ADD DUP5 PUSH2 0x30AE JUMP JUMPDEST SWAP3 SWAP2 POP POP JUMP JUMPDEST PUSH1 0x0 DUP2 SWAP1 POP SWAP2 SWAP1 POP JUMP JUMPDEST PUSH2 0x30EB DUP2 PUSH2 0x30D8 JUMP JUMPDEST DUP2 EQ PUSH2 0x30F6 JUMPI PUSH1 0x0 DUP1 REVERT JUMPDEST POP JUMP JUMPDEST PUSH1 0x0 DUP2 CALLDATALOAD SWAP1 POP PUSH2 0x3108 DUP2 PUSH2 0x30E2 JUMP JUMPDEST SWAP3 SWAP2 POP POP JUMP JUMPDEST PUSH1 0x0 PUSH1 0x20 DUP3 DUP5 SUB SLT ISZERO PUSH2 0x3124 JUMPI PUSH2 0x3123 PUSH2 0x3013 JUMP JUMPDEST JUMPDEST PUSH1 0x0 PUSH2 0x3132 DUP5 DUP3 DUP6 ADD PUSH2 0x30F9 JUMP JUMPDEST SWAP2 POP POP SWAP3 SWAP2 POP POP JUMP JUMPDEST PUSH1 0x0 DUP2 MLOAD SWAP1 POP SWAP2 SWAP1 POP JUMP JUMPDEST PUSH1 0x0 DUP3 DUP3 MSTORE PUSH1 0x20 DUP3 ADD SWAP1 POP SWAP3 SWAP2 POP POP JUMP JUMPDEST PUSH1 0x0 JUMPDEST DUP4 DUP2 LT ISZERO PUSH2 0x3175 JUMPI DUP1 DUP3 ADD MLOAD DUP2 DUP5 ADD MSTORE PUSH1 0x20 DUP2 ADD SWAP1 POP PUSH2 0x315A JUMP JUMPDEST PUSH1 0x0 DUP5 DUP5 ADD MSTORE POP POP POP POP JUMP JUMPDEST PUSH1 0x0 PUSH1 0x1F NOT PUSH1 0x1F DUP4 ADD AND SWAP1 POP SWAP2 SWAP1 POP JUMP JUMPDEST PUSH1 0x0 PUSH2 0x319D DUP3 PUSH2 0x313B JUMP JUMPDEST PUSH2 0x31A7 DUP2 DUP6 PUSH2 0x3146 JUMP JUMPDEST SWAP4 POP PUSH2 0x31B7 DUP2 DUP6 PUSH1 0x20 DUP7 ADD PUSH2 0x3157 JUMP JUMPDEST PUSH2 0x31C0 DUP2 PUSH2 0x3181 JUMP JUMPDEST DUP5 ADD SWAP2 POP POP SWAP3 SWAP2 POP POP JUMP JUMPDEST PUSH2 0x31D4 DUP2 PUSH2 0x30D8 JUMP JUMPDEST DUP3 MSTORE POP POP JUMP JUMPDEST PUSH1 0x0 PUSH2 0x120 DUP3 ADD SWAP1 POP DUP2 DUP2 SUB PUSH1 0x0 DUP4 ADD MSTORE PUSH2 0x31F5 DUP2 DUP13 PUSH2 0x3192 JUMP JUMPDEST SWAP1 POP DUP2 DUP2 SUB PUSH1 0x20 DUP4 ADD MSTORE PUSH2 0x3209 DUP2 DUP12 PUSH2 0x3192 JUMP JUMPDEST SWAP1 POP PUSH2 0x3218 PUSH1 0x40 DUP4 ADD DUP11 PUSH2 0x31CB JUMP JUMPDEST PUSH2 0x3225 PUSH1 0x60 DUP4 ADD DUP10 PUSH2 0x31CB JUMP JUMPDEST PUSH2 0x3232 PUSH1 0x80 DUP4 ADD DUP9 PUSH2 0x31CB JUMP JUMPDEST PUSH2 0x323F PUSH1 0xA0 DUP4 ADD DUP8 PUSH2 0x30AE JUMP JUMPDEST PUSH2 0x324C PUSH1 0xC0 DUP4 ADD DUP7 PUSH2 0x31CB JUMP JUMPDEST PUSH2 0x3259 PUSH1 0xE0 DUP4 ADD DUP6 PUSH2 0x31CB JUMP JUMPDEST PUSH2 0x3267 PUSH2 0x100 DUP4 ADD DUP5 PUSH2 0x31CB JUMP JUMPDEST SWAP11 SWAP10 POP POP POP POP POP POP POP POP POP POP JUMP JUMPDEST PUSH1 0x0 DUP2 SWAP1 POP SWAP2 SWAP1 POP JUMP JUMPDEST PUSH2 0x3288 DUP2 PUSH2 0x3275 JUMP JUMPDEST DUP3 MSTORE POP POP JUMP JUMPDEST PUSH1 0x0 PUSH1 0x20 DUP3 ADD SWAP1 POP PUSH2 0x32A3 PUSH1 0x0 DUP4 ADD DUP5 PUSH2 0x327F JUMP JUMPDEST SWAP3 SWAP2 POP POP JUMP JUMPDEST PUSH2 0x32B2 DUP2 PUSH2 0x3275 JUMP JUMPDEST DUP2 EQ PUSH2 0x32BD JUMPI PUSH1 0x0 DUP1 REVERT JUMPDEST POP JUMP JUMPDEST PUSH1 0x0 DUP2 CALLDATALOAD SWAP1 POP PUSH2 0x32CF DUP2 PUSH2 0x32A9 JUMP JUMPDEST SWAP3 SWAP2 POP POP JUMP JUMPDEST PUSH1 0x0 PUSH1 0x20 DUP3 DUP5 SUB SLT ISZERO PUSH2 0x32EB JUMPI PUSH2 0x32EA PUSH2 0x3013 JUMP JUMPDEST JUMPDEST PUSH1 0x0 PUSH2 0x32F9 DUP5 DUP3 DUP6 ADD PUSH2 0x32C0 JUMP JUMPDEST SWAP2 POP POP SWAP3 SWAP2 POP POP JUMP JUMPDEST PUSH1 0x0 PUSH20 0xFFFFFFFFFFFFFFFFFFFFFFFFFFFFFFFFFFFFFFFF DUP3 AND SWAP1 POP SWAP2 SWAP1 POP JUMP JUMPDEST PUSH1 0x0 PUSH2 0x332D DUP3 PUSH2 0x3302 JUMP JUMPDEST SWAP1 POP SWAP2 SWAP1 POP JUMP JUMPDEST PUSH2 0x333D DUP2 PUSH2 0x3322 JUMP JUMPDEST DUP2 EQ PUSH2 0x3348 JUMPI PUSH1 0x0 DUP1 REVERT JUMPDEST POP JUMP JUMPDEST PUSH1 0x0 DUP2 CALLDATALOAD SWAP1 POP PUSH2 0x335A DUP2 PUSH2 0x3334 JUMP JUMPDEST SWAP3 SWAP2 POP POP JUMP JUMPDEST PUSH1 0x0 DUP1 PUSH1 0x40 DUP4 DUP6 SUB SLT ISZERO PUSH2 0x3377 JUMPI PUSH2 0x3376 PUSH2 0x3013 JUMP JUMPDEST JUMPDEST PUSH1 0x0 PUSH2 0x3385 DUP6 DUP3 DUP7 ADD PUSH2 0x32C0 JUMP JUMPDEST SWAP3 POP POP PUSH1 0x20 PUSH2 0x3396 DUP6 DUP3 DUP7 ADD PUSH2 0x334B JUMP JUMPDEST SWAP2 POP POP SWAP3 POP SWAP3 SWAP1 POP JUMP JUMPDEST PUSH1 0x0 DUP1 PUSH1 0x40 DUP4 DUP6 SUB SLT ISZERO PUSH2 0x33B7 JUMPI PUSH2 0x33B6 PUSH2 0x3013 JUMP JUMPDEST JUMPDEST PUSH1 0x0 PUSH2 0x33C5 DUP6 DUP3 DUP7 ADD PUSH2 0x30F9 JUMP JUMPDEST SWAP3 POP POP PUSH1 0x20 PUSH2 0x33D6 DUP6 DUP3 DUP7 ADD PUSH2 0x30F9 JUMP JUMPDEST SWAP2 POP POP SWAP3 POP SWAP3 SWAP1 POP JUMP JUMPDEST PUSH2 0x33E9 DUP2 PUSH2 0x3322 JUMP JUMPDEST DUP3 MSTORE POP POP JUMP JUMPDEST PUSH1 0x0 PUSH1 0xE0 DUP3 ADD SWAP1 POP PUSH2 0x3404 PUSH1 0x0 DUP4 ADD DUP11 PUSH2 0x33E0 JUMP JUMPDEST PUSH2 0x3411 PUSH1 0x20 DUP4 ADD DUP10 PUSH2 0x31CB JUMP JUMPDEST PUSH2 0x341E PUSH1 0x40 DUP4 ADD DUP9 PUSH2 0x31CB JUMP JUMPDEST PUSH2 0x342B PUSH1 0x60 DUP4 ADD DUP8 PUSH2 0x31CB JUMP JUMPDEST PUSH2 0x3438 PUSH1 0x80 DUP4 ADD DUP7 PUSH2 0x31CB JUMP JUMPDEST PUSH2 0x3445 PUSH1 0xA0 DUP4 ADD DUP6 PUSH2 0x30AE JUMP JUMPDEST PUSH2 0x3452 PUSH1 0xC0 DUP4 ADD DUP5 PUSH2 0x30AE JUMP JUMPDEST SWAP9 SWAP8 POP POP POP POP POP POP POP POP JUMP JUMPDEST PUSH1 0x0 DUP1 PUSH1 0x40 DUP4 DUP6 SUB SLT ISZERO PUSH2 0x3475 JUMPI PUSH2 0x3474 PUSH2 0x3013 JUMP JUMPDEST JUMPDEST PUSH1 0x0 PUSH2 0x3483 DUP6 DUP3 DUP7 ADD PUSH2 0x32C0 JUMP JUMPDEST SWAP3 POP POP PUSH1 0x20 PUSH2 0x3494 DUP6 DUP3 DUP7 ADD PUSH2 0x30F9 JUMP JUMPDEST SWAP2 POP POP SWAP3 POP SWAP3 SWAP1 POP JUMP JUMPDEST PUSH1 0x0 PUSH1 0x20 DUP3 ADD SWAP1 POP PUSH2 0x34B3 PUSH1 0x0 DUP4 ADD DUP5 PUSH2 0x31CB JUMP JUMPDEST SWAP3 SWAP2 POP POP JUMP JUMPDEST PUSH1 0x0 DUP1 PUSH1 0x0 PUSH1 0x60 DUP5 DUP7 SUB SLT ISZERO PUSH2 0x34D2 JUMPI PUSH2 0x34D1 PUSH2 0x3013 JUMP JUMPDEST JUMPDEST PUSH1 0x0 PUSH2 0x34E0 DUP7 DUP3 DUP8 ADD PUSH2 0x30F9 JUMP JUMPDEST SWAP4 POP POP PUSH1 0x20 PUSH2 0x34F1 DUP7 DUP3 DUP8 ADD PUSH2 0x30F9 JUMP JUMPDEST SWAP3 POP POP PUSH1 0x40 PUSH2 0x3502 DUP7 DUP3 DUP8 ADD PUSH2 0x30F9 JUMP JUMPDEST SWAP2 POP POP SWAP3 POP SWAP3 POP SWAP3 JUMP JUMPDEST PUSH1 0x0 PUSH1 0x20 DUP3 ADD SWAP1 POP PUSH2 0x3521 PUSH1 0x0 DUP4 ADD DUP5 PUSH2 0x33E0 JUMP JUMPDEST SWAP3 SWAP2 POP POP JUMP JUMPDEST PUSH1 0x0 PUSH1 0x20 DUP3 DUP5 SUB SLT ISZERO PUSH2 0x353D JUMPI PUSH2 0x353C PUSH2 0x3013 JUMP JUMPDEST JUMPDEST PUSH1 0x0 PUSH2 0x354B DUP5 DUP3 DUP6 ADD PUSH2 0x334B JUMP JUMPDEST SWAP2 POP POP SWAP3 SWAP2 POP POP JUMP JUMPDEST PUSH1 0x0 DUP1 REVERT JUMPDEST PUSH1 0x0 DUP1 REVERT JUMPDEST PUSH32 0x4E487B7100000000000000000000000000000000000000000000000000000000 PUSH1 0x0 MSTORE PUSH1 0x41 PUSH1 0x4 MSTORE PUSH1 0x24 PUSH1 0x0 REVERT JUMPDEST PUSH2 0x3596 DUP3 PUSH2 0x3181 JUMP JUMPDEST DUP2 ADD DUP2 DUP2 LT PUSH8 0xFFFFFFFFFFFFFFFF DUP3 GT OR ISZERO PUSH2 0x35B5 JUMPI PUSH2 0x35B4 PUSH2 0x355E JUMP JUMPDEST JUMPDEST DUP1 PUSH1 0x40 MSTORE POP POP POP JUMP JUMPDEST PUSH1 0x0 PUSH2 0x35C8 PUSH2 0x3009 JUMP JUMPDEST SWAP1 POP PUSH2 0x35D4 DUP3 DUP3 PUSH2 0x358D JUMP JUMPDEST SWAP2 SWAP1 POP JUMP JUMPDEST PUSH1 0x0 PUSH8 0xFFFFFFFFFFFFFFFF DUP3 GT ISZERO PUSH2 0x35F4 JUMPI PUSH2 0x35F3 PUSH2 0x355E JUMP JUMPDEST JUMPDEST PUSH2 0x35FD DUP3 PUSH2 0x3181 JUMP JUMPDEST SWAP1 POP PUSH1 0x20 DUP2 ADD SWAP1 POP SWAP2 SWAP1 POP JUMP JUMPDEST DUP3 DUP2 DUP4 CALLDATACOPY PUSH1 0x0 DUP4 DUP4 ADD MSTORE POP POP POP JUMP JUMPDEST PUSH1 0x0 PUSH2 0x362C PUSH2 0x3627 DUP5 PUSH2 0x35D9 JUMP JUMPDEST PUSH2 0x35BE JUMP JUMPDEST SWAP1 POP DUP3 DUP2 MSTORE PUSH1 0x20 DUP2 ADD DUP5 DUP5 DUP5 ADD GT ISZERO PUSH2 0x3648 JUMPI PUSH2 0x3647 PUSH2 0x3559 JUMP JUMPDEST JUMPDEST PUSH2 0x3653 DUP5 DUP3 DUP6 PUSH2 0x360A JUMP JUMPDEST POP SWAP4 SWAP3 POP POP POP JUMP JUMPDEST PUSH1 0x0 DUP3 PUSH1 0x1F DUP4 ADD SLT PUSH2 0x3670 JUMPI PUSH2 0x366F PUSH2 0x3554 JUMP JUMPDEST JUMPDEST DUP2 CALLDATALOAD PUSH2 0x3680 DUP5 DUP3 PUSH1 0x20 DUP7 ADD PUSH2 0x3619 JUMP JUMPDEST SWAP2 POP POP SWAP3 SWAP2 POP POP JUMP JUMPDEST PUSH1 0x0 DUP1 PUSH1 0x0 PUSH1 0x60 DUP5 DUP7 SUB SLT ISZERO PUSH2 0x36A2 JUMPI PUSH2 0x36A1 PUSH2 0x3013 JUMP JUMPDEST JUMPDEST PUSH1 0x0 DUP5 ADD CALLDATALOAD PUSH8 0xFFFFFFFFFFFFFFFF DUP2 GT ISZERO PUSH2 0x36C0 JUMPI PUSH2 0x36BF PUSH2 0x3018 JUMP JUMPDEST JUMPDEST PUSH2 0x36CC DUP7 DUP3 DUP8 ADD PUSH2 0x365B JUMP JUMPDEST SWAP4 POP POP PUSH1 0x20 DUP5 ADD CALLDATALOAD PUSH8 0xFFFFFFFFFFFFFFFF DUP2 GT ISZERO PUSH2 0x36ED JUMPI PUSH2 0x36EC PUSH2 0x3018 JUMP JUMPDEST JUMPDEST PUSH2 0x36F9 DUP7 DUP3 DUP8 ADD PUSH2 0x365B JUMP JUMPDEST SWAP3 POP POP PUSH1 0x40 PUSH2 0x370A DUP7 DUP3 DUP8 ADD PUSH2 0x30F9 JUMP JUMPDEST SWAP2 POP POP SWAP3 POP SWAP3 POP SWAP3 JUMP JUMPDEST PUSH1 0x0 PUSH1 0x20 DUP3 DUP5 SUB SLT ISZERO PUSH2 0x372A JUMPI PUSH2 0x3729 PUSH2 0x3013 JUMP JUMPDEST JUMPDEST PUSH1 0x0 DUP3 ADD CALLDATALOAD PUSH8 0xFFFFFFFFFFFFFFFF DUP2 GT ISZERO PUSH2 0x3748 JUMPI PUSH2 0x3747 PUSH2 0x3018 JUMP JUMPDEST JUMPDEST PUSH2 0x3754 DUP5 DUP3 DUP6 ADD PUSH2 0x365B JUMP JUMPDEST SWAP2 POP POP SWAP3 SWAP2 POP POP JUMP JUMPDEST PUSH1 0x0 PUSH2 0x3768 DUP3 PUSH2 0x3302 JUMP JUMPDEST SWAP1 POP SWAP2 SWAP1 POP JUMP JUMPDEST PUSH2 0x3778 DUP2 PUSH2 0x375D JUMP JUMPDEST DUP2 EQ PUSH2 0x3783 JUMPI PUSH1 0x0 DUP1 REVERT JUMPDEST POP JUMP JUMPDEST PUSH1 0x0 DUP2 CALLDATALOAD SWAP1 POP PUSH2 0x3795 DUP2 PUSH2 0x376F JUMP JUMPDEST SWAP3 SWAP2 POP POP JUMP JUMPDEST PUSH1 0x0 DUP1 PUSH1 0x40 DUP4 DUP6 SUB SLT ISZERO PUSH2 0x37B2 JUMPI PUSH2 0x37B1 PUSH2 0x3013 JUMP JUMPDEST JUMPDEST PUSH1 0x0 PUSH2 0x37C0 DUP6 DUP3 DUP7 ADD PUSH2 0x30F9 JUMP JUMPDEST SWAP3 POP POP PUSH1 0x20 PUSH2 0x37D1 DUP6 DUP3 DUP7 ADD PUSH2 0x3786 JUMP JUMPDEST SWAP2 POP POP SWAP3 POP SWAP3 SWAP1 POP JUMP JUMPDEST PUSH32 0x4E487B7100000000000000000000000000000000000000000000000000000000 PUSH1 0x0 MSTORE PUSH1 0x22 PUSH1 0x4 MSTORE PUSH1 0x24 PUSH1 0x0 REVERT JUMPDEST PUSH1 0x0 PUSH1 0x2 DUP3 DIV SWAP1 POP PUSH1 0x1 DUP3 AND DUP1 PUSH2 0x3822 JUMPI PUSH1 0x7F DUP3 AND SWAP2 POP JUMPDEST PUSH1 0x20 DUP3 LT DUP2 SUB PUSH2 0x3835 JUMPI PUSH2 0x3834 PUSH2 0x37DB JUMP JUMPDEST JUMPDEST POP SWAP2 SWAP1 POP JUMP JUMPDEST PUSH32 0x416363657373436F6E74726F6C3A2063616E206F6E6C792072656E6F756E6365 PUSH1 0x0 DUP3 ADD MSTORE PUSH32 0x20726F6C657320666F722073656C660000000000000000000000000000000000 PUSH1 0x20 DUP3 ADD MSTORE POP JUMP JUMPDEST PUSH1 0x0 PUSH2 0x3897 PUSH1 0x2F DUP4 PUSH2 0x3146 JUMP JUMPDEST SWAP2 POP PUSH2 0x38A2 DUP3 PUSH2 0x383B JUMP JUMPDEST PUSH1 0x40 DUP3 ADD SWAP1 POP SWAP2 SWAP1 POP JUMP JUMPDEST PUSH1 0x0 PUSH1 0x20 DUP3 ADD SWAP1 POP DUP2 DUP2 SUB PUSH1 0x0 DUP4 ADD MSTORE PUSH2 0x38C6 DUP2 PUSH2 0x388A JUMP JUMPDEST SWAP1 POP SWAP2 SWAP1 POP JUMP JUMPDEST PUSH32 0x536F75726365206D75737420626520746865206F7261636C65206F6620746865 PUSH1 0x0 DUP3 ADD MSTORE PUSH32 0x2072657175657374000000000000000000000000000000000000000000000000 PUSH1 0x20 DUP3 ADD MSTORE POP JUMP JUMPDEST PUSH1 0x0 PUSH2 0x3929 PUSH1 0x28 DUP4 PUSH2 0x3146 JUMP JUMPDEST SWAP2 POP PUSH2 0x3934 DUP3 PUSH2 0x38CD JUMP JUMPDEST PUSH1 0x40 DUP3 ADD SWAP1 POP SWAP2 SWAP1 POP JUMP JUMPDEST PUSH1 0x0 PUSH1 0x20 DUP3 ADD SWAP1 POP DUP2 DUP2 SUB PUSH1 0x0 DUP4 ADD MSTORE PUSH2 0x3958 DUP2 PUSH2 0x391C JUMP JUMPDEST SWAP1 POP SWAP2 SWAP1 POP JUMP JUMPDEST PUSH32 0x49535F4E4F545F41444D494E0000000000000000000000000000000000000000 PUSH1 0x0 DUP3 ADD MSTORE POP JUMP JUMPDEST PUSH1 0x0 PUSH2 0x3995 PUSH1 0xC DUP4 PUSH2 0x3146 JUMP JUMPDEST SWAP2 POP PUSH2 0x39A0 DUP3 PUSH2 0x395F JUMP JUMPDEST PUSH1 0x20 DUP3 ADD SWAP1 POP SWAP2 SWAP1 POP JUMP JUMPDEST PUSH1 0x0 PUSH1 0x20 DUP3 ADD SWAP1 POP DUP2 DUP2 SUB PUSH1 0x0 DUP4 ADD MSTORE PUSH2 0x39C4 DUP2 PUSH2 0x3988 JUMP JUMPDEST SWAP1 POP SWAP2 SWAP1 POP JUMP JUMPDEST PUSH1 0x0 DUP2 SWAP1 POP SWAP3 SWAP2 POP POP JUMP JUMPDEST PUSH1 0x0 DUP2 SWAP1 POP DUP2 PUSH1 0x0 MSTORE PUSH1 0x20 PUSH1 0x0 KECCAK256 SWAP1 POP SWAP2 SWAP1 POP JUMP JUMPDEST PUSH1 0x0 DUP2 SLOAD PUSH2 0x39F8 DUP2 PUSH2 0x380A JUMP JUMPDEST PUSH2 0x3A02 DUP2 DUP7 PUSH2 0x39CB JUMP JUMPDEST SWAP5 POP PUSH1 0x1 DUP3 AND PUSH1 0x0 DUP2 EQ PUSH2 0x3A1D JUMPI PUSH1 0x1 DUP2 EQ PUSH2 0x3A32 JUMPI PUSH2 0x3A65 JUMP JUMPDEST PUSH1 0xFF NOT DUP4 AND DUP7 MSTORE DUP2 ISZERO ISZERO DUP3 MUL DUP7 ADD SWAP4 POP PUSH2 0x3A65 JUMP JUMPDEST PUSH2 0x3A3B DUP6 PUSH2 0x39D6 JUMP JUMPDEST PUSH1 0x0 JUMPDEST DUP4 DUP2 LT ISZERO PUSH2 0x3A5D JUMPI DUP2 SLOAD DUP2 DUP10 ADD MSTORE PUSH1 0x1 DUP3 ADD SWAP2 POP PUSH1 0x20 DUP2 ADD SWAP1 POP PUSH2 0x3A3E JUMP JUMPDEST DUP4 DUP9 ADD SWAP6 POP POP POP JUMPDEST POP POP POP SWAP3 SWAP2 POP POP JUMP JUMPDEST PUSH1 0x0 PUSH2 0x3A79 DUP3 PUSH2 0x313B JUMP JUMPDEST PUSH2 0x3A83 DUP2 DUP6 PUSH2 0x39CB JUMP JUMPDEST SWAP4 POP PUSH2 0x3A93 DUP2 DUP6 PUSH1 0x20 DUP7 ADD PUSH2 0x3157 JUMP JUMPDEST DUP1 DUP5 ADD SWAP2 POP POP SWAP3 SWAP2 POP POP JUMP JUMPDEST PUSH1 0x0 PUSH2 0x3AAB DUP3 DUP6 PUSH2 0x39EB JUMP JUMPDEST SWAP2 POP PUSH2 0x3AB7 DUP3 DUP5 PUSH2 0x3A6E JUMP JUMPDEST SWAP2 POP DUP2 SWAP1 POP SWAP4 SWAP3 POP POP POP JUMP JUMPDEST PUSH1 0x0 PUSH1 0x40 DUP3 ADD SWAP1 POP PUSH2 0x3AD8 PUSH1 0x0 DUP4 ADD DUP6 PUSH2 0x327F JUMP JUMPDEST PUSH2 0x3AE5 PUSH1 0x20 DUP4 ADD DUP5 PUSH2 0x31CB JUMP JUMPDEST SWAP4 SWAP3 POP POP POP JUMP JUMPDEST PUSH32 0x4F776E61626C653A2063616C6C6572206973206E6F7420746865206F776E6572 PUSH1 0x0 DUP3 ADD MSTORE POP JUMP JUMPDEST PUSH1 0x0 PUSH2 0x3B22 PUSH1 0x20 DUP4 PUSH2 0x3146 JUMP JUMPDEST SWAP2 POP PUSH2 0x3B2D DUP3 PUSH2 0x3AEC JUMP JUMPDEST PUSH1 0x20 DUP3 ADD SWAP1 POP SWAP2 SWAP1 POP JUMP JUMPDEST PUSH1 0x0 PUSH1 0x20 DUP3 ADD SWAP1 POP DUP2 DUP2 SUB PUSH1 0x0 DUP4 ADD MSTORE PUSH2 0x3B51 DUP2 PUSH2 0x3B15 JUMP JUMPDEST SWAP1 POP SWAP2 SWAP1 POP JUMP JUMPDEST PUSH32 0x496E76616C69642067616D652049440000000000000000000000000000000000 PUSH1 0x0 DUP3 ADD MSTORE POP JUMP JUMPDEST PUSH1 0x0 PUSH2 0x3B8E PUSH1 0xF DUP4 PUSH2 0x3146 JUMP JUMPDEST SWAP2 POP PUSH2 0x3B99 DUP3 PUSH2 0x3B58 JUMP JUMPDEST PUSH1 0x20 DUP3 ADD SWAP1 POP SWAP2 SWAP1 POP JUMP JUMPDEST PUSH1 0x0 PUSH1 0x20 DUP3 ADD SWAP1 POP DUP2 DUP2 SUB PUSH1 0x0 DUP4 ADD MSTORE PUSH2 0x3BBD DUP2 PUSH2 0x3B81 JUMP JUMPDEST SWAP1 POP SWAP2 SWAP1 POP JUMP JUMPDEST PUSH32 0x42657420616D6F756E74206D7573742062652067726561746572207468616E20 PUSH1 0x0 DUP3 ADD MSTORE PUSH32 0x7A65726F00000000000000000000000000000000000000000000000000000000 PUSH1 0x20 DUP3 ADD MSTORE POP JUMP JUMPDEST PUSH1 0x0 PUSH2 0x3C20 PUSH1 0x24 DUP4 PUSH2 0x3146 JUMP JUMPDEST SWAP2 POP PUSH2 0x3C2B DUP3 PUSH2 0x3BC4 JUMP JUMPDEST PUSH1 0x40 DUP3 ADD SWAP1 POP SWAP2 SWAP1 POP JUMP JUMPDEST PUSH1 0x0 PUSH1 0x20 DUP3 ADD SWAP1 POP DUP2 DUP2 SUB PUSH1 0x0 DUP4 ADD MSTORE PUSH2 0x3C4F DUP2 PUSH2 0x3C13 JUMP JUMPDEST SWAP1 POP SWAP2 SWAP1 POP JUMP JUMPDEST PUSH32 0x47616D652068617320616C726561647920636F6D706C65746564000000000000 PUSH1 0x0 DUP3 ADD MSTORE POP JUMP JUMPDEST PUSH1 0x0 PUSH2 0x3C8C PUSH1 0x1A DUP4 PUSH2 0x3146 JUMP JUMPDEST SWAP2 POP PUSH2 0x3C97 DUP3 PUSH2 0x3C56 JUMP JUMPDEST PUSH1 0x20 DUP3 ADD SWAP1 POP SWAP2 SWAP1 POP JUMP JUMPDEST PUSH1 0x0 PUSH1 0x20 DUP3 ADD SWAP1 POP DUP2 DUP2 SUB PUSH1 0x0 DUP4 ADD MSTORE PUSH2 0x3CBB DUP2 PUSH2 0x3C7F JUMP JUMPDEST SWAP1 POP SWAP2 SWAP1 POP JUMP JUMPDEST PUSH32 0x4E487B7100000000000000000000000000000000000000000000000000000000 PUSH1 0x0 MSTORE PUSH1 0x12 PUSH1 0x4 MSTORE PUSH1 0x24 PUSH1 0x0 REVERT JUMPDEST PUSH32 0x4E487B7100000000000000000000000000000000000000000000000000000000 PUSH1 0x0 MSTORE PUSH1 0x11 PUSH1 0x4 MSTORE PUSH1 0x24 PUSH1 0x0 REVERT JUMPDEST PUSH1 0x0 PUSH2 0x3D2B DUP3 PUSH2 0x30D8 JUMP JUMPDEST SWAP2 POP PUSH2 0x3D36 DUP4 PUSH2 0x30D8 JUMP JUMPDEST SWAP3 POP DUP3 PUSH2 0x3D46 JUMPI PUSH2 0x3D45 PUSH2 0x3CC2 JUMP JUMPDEST JUMPDEST DUP3 DUP3 DIV SWAP1 POP SWAP3 SWAP2 POP POP JUMP JUMPDEST PUSH1 0x0 PUSH2 0x3D5C DUP3 PUSH2 0x30D8 JUMP JUMPDEST SWAP2 POP PUSH2 0x3D67 DUP4 PUSH2 0x30D8 JUMP JUMPDEST SWAP3 POP DUP3 DUP3 ADD SWAP1 POP DUP1 DUP3 GT ISZERO PUSH2 0x3D7F JUMPI PUSH2 0x3D7E PUSH2 0x3CF1 JUMP JUMPDEST JUMPDEST SWAP3 SWAP2 POP POP JUMP JUMPDEST PUSH1 0x0 PUSH2 0x3D90 DUP3 PUSH2 0x30D8 JUMP JUMPDEST SWAP2 POP PUSH2 0x3D9B DUP4 PUSH2 0x30D8 JUMP JUMPDEST SWAP3 POP DUP3 DUP3 SUB SWAP1 POP DUP2 DUP2 GT ISZERO PUSH2 0x3DB3 JUMPI PUSH2 0x3DB2 PUSH2 0x3CF1 JUMP JUMPDEST JUMPDEST SWAP3 SWAP2 POP POP JUMP JUMPDEST PUSH1 0x0 PUSH2 0x3DC4 DUP3 PUSH2 0x30D8 JUMP JUMPDEST SWAP2 POP PUSH32 0xFFFFFFFFFFFFFFFFFFFFFFFFFFFFFFFFFFFFFFFFFFFFFFFFFFFFFFFFFFFFFFFF DUP3 SUB PUSH2 0x3DF6 JUMPI PUSH2 0x3DF5 PUSH2 0x3CF1 JUMP JUMPDEST JUMPDEST PUSH1 0x1 DUP3 ADD SWAP1 POP SWAP2 SWAP1 POP JUMP JUMPDEST PUSH1 0x0 PUSH1 0x40 DUP3 ADD SWAP1 POP PUSH2 0x3E16 PUSH1 0x0 DUP4 ADD DUP6 PUSH2 0x31CB JUMP JUMPDEST PUSH2 0x3E23 PUSH1 0x20 DUP4 ADD DUP5 PUSH2 0x31CB JUMP JUMPDEST SWAP4 SWAP3 POP POP POP JUMP JUMPDEST PUSH32 0x49535F4E4F545F52454C41594552000000000000000000000000000000000000 PUSH1 0x0 DUP3 ADD MSTORE POP JUMP JUMPDEST PUSH1 0x0 PUSH2 0x3E60 PUSH1 0xE DUP4 PUSH2 0x3146 JUMP JUMPDEST SWAP2 POP PUSH2 0x3E6B DUP3 PUSH2 0x3E2A JUMP JUMPDEST PUSH1 0x20 DUP3 ADD SWAP1 POP SWAP2 SWAP1 POP JUMP JUMPDEST PUSH1 0x0 PUSH1 0x20 DUP3 ADD SWAP1 POP DUP2 DUP2 SUB PUSH1 0x0 DUP4 ADD MSTORE PUSH2 0x3E8F DUP2 PUSH2 0x3E53 JUMP JUMPDEST SWAP1 POP SWAP2 SWAP1 POP JUMP JUMPDEST PUSH32 0x49535F4E4F545F4D4F445F4F525F41444D494E00000000000000000000000000 PUSH1 0x0 DUP3 ADD MSTORE POP JUMP JUMPDEST PUSH1 0x0 PUSH2 0x3ECC PUSH1 0x13 DUP4 PUSH2 0x3146 JUMP JUMPDEST SWAP2 POP PUSH2 0x3ED7 DUP3 PUSH2 0x3E96 JUMP JUMPDEST PUSH1 0x20 DUP3 ADD SWAP1 POP SWAP2 SWAP1 POP JUMP JUMPDEST PUSH1 0x0 PUSH1 0x20 DUP3 ADD SWAP1 POP DUP2 DUP2 SUB PUSH1 0x0 DUP4 ADD MSTORE PUSH2 0x3EFB DUP2 PUSH2 0x3EBF JUMP JUMPDEST SWAP1 POP SWAP2 SWAP1 POP JUMP JUMPDEST PUSH32 0x4E487B7100000000000000000000000000000000000000000000000000000000 PUSH1 0x0 MSTORE PUSH1 0x32 PUSH1 0x4 MSTORE PUSH1 0x24 PUSH1 0x0 REVERT JUMPDEST PUSH1 0x0 PUSH2 0x3F3C DUP3 PUSH2 0x30D8 JUMP JUMPDEST SWAP2 POP PUSH2 0x3F47 DUP4 PUSH2 0x30D8 JUMP JUMPDEST SWAP3 POP DUP3 DUP3 MUL PUSH2 0x3F55 DUP2 PUSH2 0x30D8 JUMP JUMPDEST SWAP2 POP DUP3 DUP3 DIV DUP5 EQ DUP4 ISZERO OR PUSH2 0x3F6C JUMPI PUSH2 0x3F6B PUSH2 0x3CF1 JUMP JUMPDEST JUMPDEST POP SWAP3 SWAP2 POP POP JUMP JUMPDEST PUSH1 0x0 PUSH1 0x20 PUSH1 0x1F DUP4 ADD DIV SWAP1 POP SWAP2 SWAP1 POP JUMP JUMPDEST PUSH1 0x0 DUP3 DUP3 SHL SWAP1 POP SWAP3 SWAP2 POP POP JUMP JUMPDEST PUSH1 0x0 PUSH1 0x8 DUP4 MUL PUSH2 0x3FC0 PUSH32 0xFFFFFFFFFFFFFFFFFFFFFFFFFFFFFFFFFFFFFFFFFFFFFFFFFFFFFFFFFFFFFFFF DUP3 PUSH2 0x3F83 JUMP JUMPDEST PUSH2 0x3FCA DUP7 DUP4 PUSH2 0x3F83 JUMP JUMPDEST SWAP6 POP DUP1 NOT DUP5 AND SWAP4 POP DUP1 DUP7 AND DUP5 OR SWAP3 POP POP POP SWAP4 SWAP3 POP POP POP JUMP JUMPDEST PUSH1 0x0 DUP2 SWAP1 POP SWAP2 SWAP1 POP JUMP JUMPDEST PUSH1 0x0 PUSH2 0x4007 PUSH2 0x4002 PUSH2 0x3FFD DUP5 PUSH2 0x30D8 JUMP JUMPDEST PUSH2 0x3FE2 JUMP JUMPDEST PUSH2 0x30D8 JUMP JUMPDEST SWAP1 POP SWAP2 SWAP1 POP JUMP JUMPDEST PUSH1 0x0 DUP2 SWAP1 POP SWAP2 SWAP1 POP JUMP JUMPDEST PUSH2 0x4021 DUP4 PUSH2 0x3FEC JUMP JUMPDEST PUSH2 0x4035 PUSH2 0x402D DUP3 PUSH2 0x400E JUMP JUMPDEST DUP5 DUP5 SLOAD PUSH2 0x3F90 JUMP JUMPDEST DUP3 SSTORE POP POP POP POP JUMP JUMPDEST PUSH1 0x0 SWAP1 JUMP JUMPDEST PUSH2 0x404A PUSH2 0x403D JUMP JUMPDEST PUSH2 0x4055 DUP2 DUP5 DUP5 PUSH2 0x4018 JUMP JUMPDEST POP POP POP JUMP JUMPDEST JUMPDEST DUP2 DUP2 LT ISZERO PUSH2 0x4079 JUMPI PUSH2 0x406E PUSH1 0x0 DUP3 PUSH2 0x4042 JUMP JUMPDEST PUSH1 0x1 DUP2 ADD SWAP1 POP PUSH2 0x405B JUMP JUMPDEST POP POP JUMP JUMPDEST PUSH1 0x1F DUP3 GT ISZERO PUSH2 0x40BE JUMPI PUSH2 0x408F DUP2 PUSH2 0x39D6 JUMP JUMPDEST PUSH2 0x4098 DUP5 PUSH2 0x3F73 JUMP JUMPDEST DUP2 ADD PUSH1 0x20 DUP6 LT ISZERO PUSH2 0x40A7 JUMPI DUP2 SWAP1 POP JUMPDEST PUSH2 0x40BB PUSH2 0x40B3 DUP6 PUSH2 0x3F73 JUMP JUMPDEST DUP4 ADD DUP3 PUSH2 0x405A JUMP JUMPDEST POP POP JUMPDEST POP POP POP JUMP JUMPDEST PUSH1 0x0 DUP3 DUP3 SHR SWAP1 POP SWAP3 SWAP2 POP POP JUMP JUMPDEST PUSH1 0x0 PUSH2 0x40E1 PUSH1 0x0 NOT DUP5 PUSH1 0x8 MUL PUSH2 0x40C3 JUMP JUMPDEST NOT DUP1 DUP4 AND SWAP2 POP POP SWAP3 SWAP2 POP POP JUMP JUMPDEST PUSH1 0x0 PUSH2 0x40FA DUP4 DUP4 PUSH2 0x40D0 JUMP JUMPDEST SWAP2 POP DUP3 PUSH1 0x2 MUL DUP3 OR SWAP1 POP SWAP3 SWAP2 POP POP JUMP JUMPDEST PUSH2 0x4113 DUP3 PUSH2 0x313B JUMP JUMPDEST PUSH8 0xFFFFFFFFFFFFFFFF DUP2 GT ISZERO PUSH2 0x412C JUMPI PUSH2 0x412B PUSH2 0x355E JUMP JUMPDEST JUMPDEST PUSH2 0x4136 DUP3 SLOAD PUSH2 0x380A JUMP JUMPDEST PUSH2 0x4141 DUP3 DUP3 DUP6 PUSH2 0x407D JUMP JUMPDEST PUSH1 0x0 PUSH1 0x20 SWAP1 POP PUSH1 0x1F DUP4 GT PUSH1 0x1 DUP2 EQ PUSH2 0x4174 JUMPI PUSH1 0x0 DUP5 ISZERO PUSH2 0x4162 JUMPI DUP3 DUP8 ADD MLOAD SWAP1 POP JUMPDEST PUSH2 0x416C DUP6 DUP3 PUSH2 0x40EE JUMP JUMPDEST DUP7 SSTORE POP PUSH2 0x41D4 JUMP JUMPDEST PUSH1 0x1F NOT DUP5 AND PUSH2 0x4182 DUP7 PUSH2 0x39D6 JUMP JUMPDEST PUSH1 0x0 JUMPDEST DUP3 DUP2 LT ISZERO PUSH2 0x41AA JUMPI DUP5 DUP10 ADD MLOAD DUP3 SSTORE PUSH1 0x1 DUP3 ADD SWAP2 POP PUSH1 0x20 DUP6 ADD SWAP5 POP PUSH1 0x20 DUP2 ADD SWAP1 POP PUSH2 0x4185 JUMP JUMPDEST DUP7 DUP4 LT ISZERO PUSH2 0x41C7 JUMPI DUP5 DUP10 ADD MLOAD PUSH2 0x41C3 PUSH1 0x1F DUP10 AND DUP3 PUSH2 0x40D0 JUMP JUMPDEST DUP4 SSTORE POP JUMPDEST PUSH1 0x1 PUSH1 0x2 DUP9 MUL ADD DUP9 SSTORE POP POP POP JUMPDEST POP POP POP POP POP POP JUMP JUMPDEST PUSH1 0x0 PUSH2 0x41E8 DUP3 DUP5 PUSH2 0x3A6E JUMP JUMPDEST SWAP2 POP DUP2 SWAP1 POP SWAP3 SWAP2 POP POP JUMP JUMPDEST PUSH32 0x4F776E61626C653A206E6577206F776E657220697320746865207A65726F2061 PUSH1 0x0 DUP3 ADD MSTORE PUSH32 0x6464726573730000000000000000000000000000000000000000000000000000 PUSH1 0x20 DUP3 ADD MSTORE POP JUMP JUMPDEST PUSH1 0x0 PUSH2 0x424F PUSH1 0x26 DUP4 PUSH2 0x3146 JUMP JUMPDEST SWAP2 POP PUSH2 0x425A DUP3 PUSH2 0x41F3 JUMP JUMPDEST PUSH1 0x40 DUP3 ADD SWAP1 POP SWAP2 SWAP1 POP JUMP JUMPDEST PUSH1 0x0 PUSH1 0x20 DUP3 ADD SWAP1 POP DUP2 DUP2 SUB PUSH1 0x0 DUP4 ADD MSTORE PUSH2 0x427E DUP2 PUSH2 0x4242 JUMP JUMPDEST SWAP1 POP SWAP2 SWAP1 POP JUMP JUMPDEST PUSH1 0x0 PUSH2 0x4290 DUP3 PUSH2 0x30D8 JUMP JUMPDEST SWAP2 POP PUSH1 0x0 DUP3 SUB PUSH2 0x42A3 JUMPI PUSH2 0x42A2 PUSH2 0x3CF1 JUMP JUMPDEST JUMPDEST PUSH1 0x1 DUP3 SUB SWAP1 POP SWAP2 SWAP1 POP JUMP JUMPDEST PUSH32 0x537472696E67733A20686578206C656E67746820696E73756666696369656E74 PUSH1 0x0 DUP3 ADD MSTORE POP JUMP JUMPDEST PUSH1 0x0 PUSH2 0x42E4 PUSH1 0x20 DUP4 PUSH2 0x3146 JUMP JUMPDEST SWAP2 POP PUSH2 0x42EF DUP3 PUSH2 0x42AE JUMP JUMPDEST PUSH1 0x20 DUP3 ADD SWAP1 POP SWAP2 SWAP1 POP JUMP JUMPDEST PUSH1 0x0 PUSH1 0x20 DUP3 ADD SWAP1 POP DUP2 DUP2 SUB PUSH1 0x0 DUP4 ADD MSTORE PUSH2 0x4313 DUP2 PUSH2 0x42D7 JUMP JUMPDEST SWAP1 POP SWAP2 SWAP1 POP JUMP JUMPDEST PUSH32 0x416363657373436F6E74726F6C3A206163636F756E7420000000000000000000 PUSH1 0x0 DUP3 ADD MSTORE POP JUMP JUMPDEST PUSH1 0x0 PUSH2 0x4350 PUSH1 0x17 DUP4 PUSH2 0x39CB JUMP JUMPDEST SWAP2 POP PUSH2 0x435B DUP3 PUSH2 0x431A JUMP JUMPDEST PUSH1 0x17 DUP3 ADD SWAP1 POP SWAP2 SWAP1 POP JUMP JUMPDEST PUSH32 0x206973206D697373696E6720726F6C6520000000000000000000000000000000 PUSH1 0x0 DUP3 ADD MSTORE POP JUMP JUMPDEST PUSH1 0x0 PUSH2 0x439C PUSH1 0x11 DUP4 PUSH2 0x39CB JUMP JUMPDEST SWAP2 POP PUSH2 0x43A7 DUP3 PUSH2 0x4366 JUMP JUMPDEST PUSH1 0x11 DUP3 ADD SWAP1 POP SWAP2 SWAP1 POP JUMP JUMPDEST PUSH1 0x0 PUSH2 0x43BD DUP3 PUSH2 0x4343 JUMP JUMPDEST SWAP2 POP PUSH2 0x43C9 DUP3 DUP6 PUSH2 0x3A6E JUMP JUMPDEST SWAP2 POP PUSH2 0x43D4 DUP3 PUSH2 0x438F JUMP JUMPDEST SWAP2 POP PUSH2 0x43E0 DUP3 DUP5 PUSH2 0x3A6E JUMP JUMPDEST SWAP2 POP DUP2 SWAP1 POP SWAP4 SWAP3 POP POP POP JUMP JUMPDEST PUSH1 0x0 PUSH1 0x20 DUP3 ADD SWAP1 POP DUP2 DUP2 SUB PUSH1 0x0 DUP4 ADD MSTORE PUSH2 0x4406 DUP2 DUP5 PUSH2 0x3192 JUMP JUMPDEST SWAP1 POP SWAP3 SWAP2 POP POP JUMP JUMPDEST PUSH1 0x0 PUSH2 0x4419 DUP3 PUSH2 0x30D8 JUMP JUMPDEST SWAP2 POP PUSH2 0x4424 DUP4 PUSH2 0x30D8 JUMP JUMPDEST SWAP3 POP DUP3 PUSH2 0x4434 JUMPI PUSH2 0x4433 PUSH2 0x3CC2 JUMP JUMPDEST JUMPDEST DUP3 DUP3 MOD SWAP1 POP SWAP3 SWAP2 POP POP JUMP JUMPDEST PUSH2 0x4448 DUP2 PUSH2 0x301D JUMP JUMPDEST DUP3 MSTORE POP POP JUMP JUMPDEST PUSH1 0x0 DUP2 MLOAD SWAP1 POP SWAP2 SWAP1 POP JUMP JUMPDEST PUSH1 0x0 DUP3 DUP3 MSTORE PUSH1 0x20 DUP3 ADD SWAP1 POP SWAP3 SWAP2 POP POP JUMP JUMPDEST PUSH1 0x0 PUSH2 0x4475 DUP3 PUSH2 0x444E JUMP JUMPDEST PUSH2 0x447F DUP2 DUP6 PUSH2 0x4459 JUMP JUMPDEST SWAP4 POP PUSH2 0x448F DUP2 DUP6 PUSH1 0x20 DUP7 ADD PUSH2 0x3157 JUMP JUMPDEST PUSH2 0x4498 DUP2 PUSH2 0x3181 JUMP JUMPDEST DUP5 ADD SWAP2 POP POP SWAP3 SWAP2 POP POP JUMP JUMPDEST PUSH1 0x0 PUSH2 0x100 DUP3 ADD SWAP1 POP PUSH2 0x44B9 PUSH1 0x0 DUP4 ADD DUP12 PUSH2 0x33E0 JUMP JUMPDEST PUSH2 0x44C6 PUSH1 0x20 DUP4 ADD DUP11 PUSH2 0x31CB JUMP JUMPDEST PUSH2 0x44D3 PUSH1 0x40 DUP4 ADD DUP10 PUSH2 0x327F JUMP JUMPDEST PUSH2 0x44E0 PUSH1 0x60 DUP4 ADD DUP9 PUSH2 0x33E0 JUMP JUMPDEST PUSH2 0x44ED PUSH1 0x80 DUP4 ADD DUP8 PUSH2 0x443F JUMP JUMPDEST PUSH2 0x44FA PUSH1 0xA0 DUP4 ADD DUP7 PUSH2 0x31CB JUMP JUMPDEST PUSH2 0x4507 PUSH1 0xC0 DUP4 ADD DUP6 PUSH2 0x31CB JUMP JUMPDEST DUP2 DUP2 SUB PUSH1 0xE0 DUP4 ADD MSTORE PUSH2 0x4519 DUP2 DUP5 PUSH2 0x446A JUMP JUMPDEST SWAP1 POP SWAP10 SWAP9 POP POP POP POP POP POP POP POP POP JUMP JUMPDEST PUSH1 0x0 PUSH2 0x4543 PUSH2 0x453E PUSH2 0x4539 DUP5 PUSH2 0x3302 JUMP JUMPDEST PUSH2 0x3FE2 JUMP JUMPDEST PUSH2 0x3302 JUMP JUMPDEST SWAP1 POP SWAP2 SWAP1 POP JUMP JUMPDEST PUSH1 0x0 PUSH2 0x4555 DUP3 PUSH2 0x4528 JUMP JUMPDEST SWAP1 POP SWAP2 SWAP1 POP JUMP JUMPDEST PUSH1 0x0 PUSH2 0x4567 DUP3 PUSH2 0x454A JUMP JUMPDEST SWAP1 POP SWAP2 SWAP1 POP JUMP JUMPDEST PUSH1 0x0 DUP2 PUSH1 0x60 SHL SWAP1 POP SWAP2 SWAP1 POP JUMP JUMPDEST PUSH1 0x0 PUSH2 0x4586 DUP3 PUSH2 0x456E JUMP JUMPDEST SWAP1 POP SWAP2 SWAP1 POP JUMP JUMPDEST PUSH1 0x0 PUSH2 0x4598 DUP3 PUSH2 0x457B JUMP JUMPDEST SWAP1 POP SWAP2 SWAP1 POP JUMP JUMPDEST PUSH2 0x45B0 PUSH2 0x45AB DUP3 PUSH2 0x455C JUMP JUMPDEST PUSH2 0x458D JUMP JUMPDEST DUP3 MSTORE POP POP JUMP JUMPDEST PUSH1 0x0 DUP2 SWAP1 POP SWAP2 SWAP1 POP JUMP JUMPDEST PUSH2 0x45D1 PUSH2 0x45CC DUP3 PUSH2 0x30D8 JUMP JUMPDEST PUSH2 0x45B6 JUMP JUMPDEST DUP3 MSTORE POP POP JUMP JUMPDEST PUSH1 0x0 PUSH2 0x45E3 DUP3 DUP6 PUSH2 0x459F JUMP JUMPDEST PUSH1 0x14 DUP3 ADD SWAP2 POP PUSH2 0x45F3 DUP3 DUP5 PUSH2 0x45C0 JUMP JUMPDEST PUSH1 0x20 DUP3 ADD SWAP2 POP DUP2 SWAP1 POP SWAP4 SWAP3 POP POP POP JUMP JUMPDEST PUSH1 0x0 PUSH1 0x60 DUP3 ADD SWAP1 POP PUSH2 0x4618 PUSH1 0x0 DUP4 ADD DUP7 PUSH2 0x33E0 JUMP JUMPDEST PUSH2 0x4625 PUSH1 0x20 DUP4 ADD DUP6 PUSH2 0x31CB JUMP JUMPDEST DUP2 DUP2 SUB PUSH1 0x40 DUP4 ADD MSTORE PUSH2 0x4637 DUP2 DUP5 PUSH2 0x446A JUMP JUMPDEST SWAP1 POP SWAP5 SWAP4 POP POP POP POP JUMP JUMPDEST PUSH2 0x464A DUP2 PUSH2 0x30A2 JUMP JUMPDEST DUP2 EQ PUSH2 0x4655 JUMPI PUSH1 0x0 DUP1 REVERT JUMPDEST POP JUMP JUMPDEST PUSH1 0x0 DUP2 MLOAD SWAP1 POP PUSH2 0x4667 DUP2 PUSH2 0x4641 JUMP JUMPDEST SWAP3 SWAP2 POP POP JUMP JUMPDEST PUSH1 0x0 PUSH1 0x20 DUP3 DUP5 SUB SLT ISZERO PUSH2 0x4683 JUMPI PUSH2 0x4682 PUSH2 0x3013 JUMP JUMPDEST JUMPDEST PUSH1 0x0 PUSH2 0x4691 DUP5 DUP3 DUP6 ADD PUSH2 0x4658 JUMP JUMPDEST SWAP2 POP POP SWAP3 SWAP2 POP POP JUMP JUMPDEST PUSH32 0x756E61626C6520746F207472616E73666572416E6443616C6C20746F206F7261 PUSH1 0x0 DUP3 ADD MSTORE PUSH32 0x636C650000000000000000000000000000000000000000000000000000000000 PUSH1 0x20 DUP3 ADD MSTORE POP JUMP JUMPDEST PUSH1 0x0 PUSH2 0x46F6 PUSH1 0x23 DUP4 PUSH2 0x3146 JUMP JUMPDEST SWAP2 POP PUSH2 0x4701 DUP3 PUSH2 0x469A JUMP JUMPDEST PUSH1 0x40 DUP3 ADD SWAP1 POP SWAP2 SWAP1 POP JUMP JUMPDEST PUSH1 0x0 PUSH1 0x20 DUP3 ADD SWAP1 POP DUP2 DUP2 SUB PUSH1 0x0 DUP4 ADD MSTORE PUSH2 0x4725 DUP2 PUSH2 0x46E9 JUMP JUMPDEST SWAP1 POP SWAP2 SWAP1 POP JUMP JUMPDEST PUSH1 0x0 DUP2 PUSH1 0x1 SHR SWAP1 POP SWAP2 SWAP1 POP JUMP JUMPDEST PUSH1 0x0 DUP1 DUP3 SWAP2 POP DUP4 SWAP1 POP JUMPDEST PUSH1 0x1 DUP6 GT ISZERO PUSH2 0x4783 JUMPI DUP1 DUP7 DIV DUP2 GT ISZERO PUSH2 0x475F JUMPI PUSH2 0x475E PUSH2 0x3CF1 JUMP JUMPDEST JUMPDEST PUSH1 0x1 DUP6 AND ISZERO PUSH2 0x476E JUMPI DUP1 DUP3 MUL SWAP2 POP JUMPDEST DUP1 DUP2 MUL SWAP1 POP PUSH2 0x477C DUP6 PUSH2 0x472C JUMP JUMPDEST SWAP5 POP PUSH2 0x4743 JUMP JUMPDEST SWAP5 POP SWAP5 SWAP3 POP POP POP JUMP JUMPDEST PUSH1 0x0 DUP3 PUSH2 0x479C JUMPI PUSH1 0x1 SWAP1 POP PUSH2 0x4858 JUMP JUMPDEST DUP2 PUSH2 0x47AA JUMPI PUSH1 0x0 SWAP1 POP PUSH2 0x4858 JUMP JUMPDEST DUP2 PUSH1 0x1 DUP2 EQ PUSH2 0x47C0 JUMPI PUSH1 0x2 DUP2 EQ PUSH2 0x47CA JUMPI PUSH2 0x47F9 JUMP JUMPDEST PUSH1 0x1 SWAP2 POP POP PUSH2 0x4858 JUMP JUMPDEST PUSH1 0xFF DUP5 GT ISZERO PUSH2 0x47DC JUMPI PUSH2 0x47DB PUSH2 0x3CF1 JUMP JUMPDEST JUMPDEST DUP4 PUSH1 0x2 EXP SWAP2 POP DUP5 DUP3 GT ISZERO PUSH2 0x47F3 JUMPI PUSH2 0x47F2 PUSH2 0x3CF1 JUMP JUMPDEST JUMPDEST POP PUSH2 0x4858 JUMP JUMPDEST POP PUSH1 0x20 DUP4 LT PUSH2 0x133 DUP4 LT AND PUSH1 0x4E DUP5 LT PUSH1 0xB DUP5 LT AND OR ISZERO PUSH2 0x482E JUMPI DUP3 DUP3 EXP SWAP1 POP DUP4 DUP2 GT ISZERO PUSH2 0x4829 JUMPI PUSH2 0x4828 PUSH2 0x3CF1 JUMP JUMPDEST JUMPDEST PUSH2 0x4858 JUMP JUMPDEST PUSH2 0x483B DUP5 DUP5 DUP5 PUSH1 0x1 PUSH2 0x4739 JUMP JUMPDEST SWAP3 POP SWAP1 POP DUP2 DUP5 DIV DUP2 GT ISZERO PUSH2 0x4852 JUMPI PUSH2 0x4851 PUSH2 0x3CF1 JUMP JUMPDEST JUMPDEST DUP2 DUP2 MUL SWAP1 POP JUMPDEST SWAP4 SWAP3 POP POP POP JUMP JUMPDEST PUSH1 0x0 PUSH2 0x486A DUP3 PUSH2 0x30D8 JUMP JUMPDEST SWAP2 POP PUSH2 0x4875 DUP4 PUSH2 0x30D8 JUMP JUMPDEST SWAP3 POP PUSH2 0x48A2 PUSH32 0xFFFFFFFFFFFFFFFFFFFFFFFFFFFFFFFFFFFFFFFFFFFFFFFFFFFFFFFFFFFFFFFF DUP5 DUP5 PUSH2 0x478C JUMP JUMPDEST SWAP1 POP SWAP3 SWAP2 POP POP JUMP INVALID LOG2 PUSH5 0x6970667358 0x22 SLT KECCAK256 PUSH18 0x8E1EA1D8E96880AA92FAAA7C8EDFC4D30CFC 0xF9 PUSH5 0xEDE88FD6BE 0x27 CHAINID 0xF9 0xE9 SUB SWAP8 PUSH5 0x736F6C6343 STOP ADDMOD GT STOP CALLER "},"methodIdentifiers":{"ADMIN_ROLE()":"75b238fc","DEFAULT_ADMIN_ROLE()":"a217fddf","MOD_ROLE()":"e932406f","RELAYER()":"2483e715","addGame(string,string,uint256)":"a5c86b77","apiCall(bytes32,uint256)":"8b4ac639","betsByGame(uint256,uint256)":"3b6e6f1b","fulfill(bytes32,uint256)":"4357855e","gameCount()":"4d1975b4","games(uint256)":"117a5b90","getRoleAdmin(bytes32)":"248a9ca3","grantRole(bytes32,address)":"2f2ff15d","hasRole(bytes32,address)":"91d14854","lastNumber()":"b3db9f1a","makeBet(uint256,uint256,uint256)":"779a3611","owner()":"8da5cb5b","renounceOwnership()":"715018a6","renounceRole(bytes32,address)":"36568abe","revokeRole(bytes32,address)":"d547741f","selectLotteryWinner(uint256)":"55fb9d08","supportsInterface(bytes4)":"01ffc9a7","transferFunds(uint256,address)":"f08e362f","transferOwnership(address)":"f2fde38b","updateChainlinkJobId(bytes32)":"4eca519f","updateDashboard()":"7d807730","updateGameScore(uint256,uint256,uint256)":"a0949595","updateNumberAPI(string)":"bfd5c6df","updateRelayer(address)":"8f83ab13"}}}}}