{"contracts/Sports.sol":{"Sports":{"abi":[{"inputs":[{"internalType":"address","name":"_chainlinkToken","type":"address"},{"internalType":"address","name":"_chainlinkOracle","type":"address"},{"internalType":"bytes32","name":"_jobId","type":"bytes32"},{"internalType":"address","name":"_relayer","type":"address"},{"internalType":"address","name":"_usdcContractAddress","type":"address"},{"internalType":"address[]","name":"_mods","type":"address[]"},{"internalType":"address[]","name":"_admins","type":"address[]"},{"internalType":"string","name":"_numbersAPI","type":"string"},{"internalType":"string","name":"_gamesAPI","type":"string"}],"stateMutability":"nonpayable","type":"constructor"},{"anonymous":false,"inputs":[{"indexed":true,"internalType":"uint256","name":"_gameId","type":"uint256"},{"indexed":false,"internalType":"uint256","name":"_homeScore","type":"uint256"},{"indexed":false,"internalType":"uint256","name":"_awayScore","type":"uint256"}],"name":"BetCreated","type":"event"},{"anonymous":false,"inputs":[{"indexed":true,"internalType":"bytes32","name":"id","type":"bytes32"}],"name":"ChainlinkCancelled","type":"event"},{"anonymous":false,"inputs":[{"indexed":true,"internalType":"bytes32","name":"id","type":"bytes32"}],"name":"ChainlinkFulfilled","type":"event"},{"anonymous":false,"inputs":[{"indexed":true,"internalType":"bytes32","name":"id","type":"bytes32"}],"name":"ChainlinkRequested","type":"event"},{"anonymous":false,"inputs":[{"indexed":false,"internalType":"uint256","name":"_gameTime","type":"uint256"},{"indexed":true,"internalType":"string","name":"_homeTeam","type":"string"},{"indexed":true,"internalType":"string","name":"_awayTeam","type":"string"}],"name":"GameCreated","type":"event"},{"anonymous":false,"inputs":[{"indexed":true,"internalType":"address","name":"previousOwner","type":"address"},{"indexed":true,"internalType":"address","name":"newOwner","type":"address"}],"name":"OwnershipTransferred","type":"event"},{"anonymous":false,"inputs":[{"indexed":false,"internalType":"uint256","name":"print","type":"uint256"}],"name":"Print","type":"event"},{"anonymous":false,"inputs":[{"indexed":false,"internalType":"bytes32","name":"requestId","type":"bytes32"},{"indexed":false,"internalType":"uint256","name":"random","type":"uint256"}],"name":"RequestFulfilled","type":"event"},{"anonymous":false,"inputs":[{"indexed":true,"internalType":"bytes32","name":"requestId","type":"bytes32"},{"indexed":false,"internalType":"uint256","name":"number","type":"uint256"}],"name":"RequestNumber","type":"event"},{"anonymous":false,"inputs":[{"indexed":false,"internalType":"uint256","name":"requestId","type":"uint256"},{"indexed":false,"internalType":"uint32","name":"numWords","type":"uint32"}],"name":"RequestSent","type":"event"},{"anonymous":false,"inputs":[{"indexed":true,"internalType":"bytes32","name":"role","type":"bytes32"},{"indexed":true,"internalType":"bytes32","name":"previousAdminRole","type":"bytes32"},{"indexed":true,"internalType":"bytes32","name":"newAdminRole","type":"bytes32"}],"name":"RoleAdminChanged","type":"event"},{"anonymous":false,"inputs":[{"indexed":true,"internalType":"bytes32","name":"role","type":"bytes32"},{"indexed":true,"internalType":"address","name":"account","type":"address"},{"indexed":true,"internalType":"address","name":"sender","type":"address"}],"name":"RoleGranted","type":"event"},{"anonymous":false,"inputs":[{"indexed":true,"internalType":"bytes32","name":"role","type":"bytes32"},{"indexed":true,"internalType":"address","name":"account","type":"address"},{"indexed":true,"internalType":"address","name":"sender","type":"address"}],"name":"RoleRevoked","type":"event"},{"inputs":[],"name":"ADMIN_ROLE","outputs":[{"internalType":"bytes32","name":"","type":"bytes32"}],"stateMutability":"view","type":"function"},{"inputs":[],"name":"DEFAULT_ADMIN_ROLE","outputs":[{"internalType":"bytes32","name":"","type":"bytes32"}],"stateMutability":"view","type":"function"},{"inputs":[],"name":"MOD_ROLE","outputs":[{"internalType":"bytes32","name":"","type":"bytes32"}],"stateMutability":"view","type":"function"},{"inputs":[],"name":"RELAYER","outputs":[{"internalType":"bytes32","name":"","type":"bytes32"}],"stateMutability":"view","type":"function"},{"inputs":[],"name":"USDc","outputs":[{"internalType":"contract USDC","name":"","type":"address"}],"stateMutability":"view","type":"function"},{"inputs":[{"internalType":"string","name":"_homeTeam","type":"string"},{"internalType":"string","name":"_awayTeam","type":"string"},{"internalType":"uint256","name":"_gameTime","type":"uint256"}],"name":"addGame","outputs":[],"stateMutability":"nonpayable","type":"function"},{"inputs":[{"internalType":"bytes32","name":"_requestId","type":"bytes32"},{"internalType":"uint256","name":"_number","type":"uint256"}],"name":"apiCall","outputs":[],"stateMutability":"nonpayable","type":"function"},{"inputs":[{"internalType":"uint256","name":"","type":"uint256"},{"internalType":"uint256","name":"","type":"uint256"}],"name":"betsByGame","outputs":[{"internalType":"address","name":"user","type":"address"},{"internalType":"uint256","name":"gameId","type":"uint256"},{"internalType":"uint256","name":"amount","type":"uint256"},{"internalType":"uint256","name":"homeScore","type":"uint256"},{"internalType":"uint256","name":"awayScore","type":"uint256"},{"internalType":"bool","name":"betWon","type":"bool"},{"internalType":"bool","name":"betCompleted","type":"bool"}],"stateMutability":"view","type":"function"},{"inputs":[{"internalType":"bytes32","name":"_requestId","type":"bytes32"},{"internalType":"uint256","name":"_number","type":"uint256"}],"name":"fulfill","outputs":[],"stateMutability":"nonpayable","type":"function"},{"inputs":[],"name":"gameCount","outputs":[{"internalType":"uint256","name":"","type":"uint256"}],"stateMutability":"view","type":"function"},{"inputs":[{"internalType":"uint256","name":"","type":"uint256"}],"name":"games","outputs":[{"internalType":"string","name":"homeTeam","type":"string"},{"internalType":"string","name":"awayTeam","type":"string"},{"internalType":"uint256","name":"gameTime","type":"uint256"},{"internalType":"uint256","name":"homeScore","type":"uint256"},{"internalType":"uint256","name":"awayScore","type":"uint256"},{"internalType":"bool","name":"gameCompleted","type":"bool"},{"internalType":"uint256","name":"lotteryPool","type":"uint256"},{"internalType":"uint256","name":"betsCount","type":"uint256"},{"internalType":"uint256","name":"betsAmount","type":"uint256"}],"stateMutability":"view","type":"function"},{"inputs":[{"internalType":"bytes32","name":"role","type":"bytes32"}],"name":"getRoleAdmin","outputs":[{"internalType":"bytes32","name":"","type":"bytes32"}],"stateMutability":"view","type":"function"},{"inputs":[{"internalType":"bytes32","name":"role","type":"bytes32"},{"internalType":"address","name":"account","type":"address"}],"name":"grantRole","outputs":[],"stateMutability":"nonpayable","type":"function"},{"inputs":[{"internalType":"bytes32","name":"role","type":"bytes32"},{"internalType":"address","name":"account","type":"address"}],"name":"hasRole","outputs":[{"internalType":"bool","name":"","type":"bool"}],"stateMutability":"view","type":"function"},{"inputs":[],"name":"lastNumber","outputs":[{"internalType":"uint256","name":"","type":"uint256"}],"stateMutability":"view","type":"function"},{"inputs":[{"internalType":"uint256","name":"_gameId","type":"uint256"},{"internalType":"uint256","name":"_homeScore","type":"uint256"},{"internalType":"uint256","name":"_awayScore","type":"uint256"},{"internalType":"uint256","name":"amountInDolar","type":"uint256"}],"name":"makeBet","outputs":[],"stateMutability":"payable","type":"function"},{"inputs":[],"name":"owner","outputs":[{"internalType":"address","name":"","type":"address"}],"stateMutability":"view","type":"function"},{"inputs":[],"name":"renounceOwnership","outputs":[],"stateMutability":"nonpayable","type":"function"},{"inputs":[{"internalType":"bytes32","name":"role","type":"bytes32"},{"internalType":"address","name":"account","type":"address"}],"name":"renounceRole","outputs":[],"stateMutability":"nonpayable","type":"function"},{"inputs":[{"internalType":"bytes32","name":"role","type":"bytes32"},{"internalType":"address","name":"account","type":"address"}],"name":"revokeRole","outputs":[],"stateMutability":"nonpayable","type":"function"},{"inputs":[{"internalType":"uint256","name":"loosersQt","type":"uint256"}],"name":"selectLotteryWinner","outputs":[{"internalType":"uint256","name":"","type":"uint256"}],"stateMutability":"nonpayable","type":"function"},{"inputs":[{"internalType":"bytes4","name":"interfaceId","type":"bytes4"}],"name":"supportsInterface","outputs":[{"internalType":"bool","name":"","type":"bool"}],"stateMutability":"view","type":"function"},{"inputs":[{"internalType":"uint256","name":"_amount","type":"uint256"},{"internalType":"address payable","name":"destination","type":"address"}],"name":"transferFunds","outputs":[],"stateMutability":"payable","type":"function"},{"inputs":[{"internalType":"address","name":"newOwner","type":"address"}],"name":"transferOwnership","outputs":[],"stateMutability":"nonpayable","type":"function"},{"inputs":[{"internalType":"bytes32","name":"_newJobId","type":"bytes32"}],"name":"updateChainlinkJobId","outputs":[],"stateMutability":"nonpayable","type":"function"},{"inputs":[],"name":"updateDashboard","outputs":[],"stateMutability":"nonpayable","type":"function"},{"inputs":[{"internalType":"uint256","name":"_gameId","type":"uint256"},{"internalType":"uint256","name":"_homeScore","type":"uint256"},{"internalType":"uint256","name":"_awayScore","type":"uint256"}],"name":"updateGameScore","outputs":[],"stateMutability":"nonpayable","type":"function"},{"inputs":[{"internalType":"string","name":"_newUrl","type":"string"}],"name":"updateNumberAPI","outputs":[],"stateMutability":"nonpayable","type":"function"},{"inputs":[{"internalType":"address","name":"_newRelayer","type":"address"}],"name":"updateRelayer","outputs":[],"stateMutability":"nonpayable","type":"function"}],"evm":{"bytecode":{"linkReferences":{},"object":"608060405260016004553480156200001657600080fd5b50604051620060ea380380620060ea83398181016040528101906200003c919062000b81565b6200005c620000506200023860201b60201c565b6200024060201b60201c565b60005b8451811015620000cc57620000b87f950b8f2d7415defaee398bb4898e8e094a64c725873b81952b7ab9f08d70efb3868381518110620000a457620000a362000cdc565b5b60200260200101516200030660201b60201c565b80620000c49062000d44565b90506200005f565b5060005b83518110156200013d57620001297fa49807205ce4d355092ef5a8a18f56e8913cf4a201fbe287825b095693c2177585838151811062000115576200011462000cdc565b5b60200260200101516200030660201b60201c565b80620001359062000d44565b9050620000d0565b50620001707fab4f864e5201b0fde9b5ee3e4cf96384802b0ffdfcf7f9de4699ce21a30afc4f876200030660201b60201c565b81600b908162000181919062000fd2565b5080600c908162000193919062000fd2565b50620001a5896200034f60201b60201c565b620001b6886200039360201b60201c565b86600d81905550600a670de0b6b3a76400006001620001d69190620010b9565b620001e2919062001133565b600e8190555084601060006101000a81548173ffffffffffffffffffffffffffffffffffffffff021916908373ffffffffffffffffffffffffffffffffffffffff160217905550505050505050505050620013e0565b600033905090565b6000600660009054906101000a900473ffffffffffffffffffffffffffffffffffffffff16905081600660006101000a81548173ffffffffffffffffffffffffffffffffffffffff021916908373ffffffffffffffffffffffffffffffffffffffff1602179055508173ffffffffffffffffffffffffffffffffffffffff168173ffffffffffffffffffffffffffffffffffffffff167f8be0079c531659141344cd1fd0a4f28419497f9722a3daafe3b4186f6b6457e060405160405180910390a35050565b6200031782620003d760201b60201c565b62000338816200032c6200023860201b60201c565b620003f760201b60201c565b6200034a8383620004bb60201b60201c565b505050565b80600260006101000a81548173ffffffffffffffffffffffffffffffffffffffff021916908373ffffffffffffffffffffffffffffffffffffffff16021790555050565b80600360006101000a81548173ffffffffffffffffffffffffffffffffffffffff021916908373ffffffffffffffffffffffffffffffffffffffff16021790555050565b600060076000838152602001908152602001600020600101549050919050565b620004098282620005ad60201b60201c565b620004b7576200043c8173ffffffffffffffffffffffffffffffffffffffff1660146200061860201b620022211760201c565b620004578360001c60206200061860201b620022211760201c565b6040516020016200046a9291906200124d565b6040516020818303038152906040526040517f08c379a0000000000000000000000000000000000000000000000000000000008152600401620004ae9190620012e1565b60405180910390fd5b5050565b620004cd8282620005ad60201b60201c565b620005a95760016007600084815260200190815260200160002060000160008373ffffffffffffffffffffffffffffffffffffffff1673ffffffffffffffffffffffffffffffffffffffff16815260200190815260200160002060006101000a81548160ff0219169083151502179055506200054e6200023860201b60201c565b73ffffffffffffffffffffffffffffffffffffffff168173ffffffffffffffffffffffffffffffffffffffff16837f2f8788117e7eff1d82e926ec794901d17c78024a50270940304540a733656f0d60405160405180910390a45b5050565b60006007600084815260200190815260200160002060000160008373ffffffffffffffffffffffffffffffffffffffff1673ffffffffffffffffffffffffffffffffffffffff16815260200190815260200160002060009054906101000a900460ff16905092915050565b6060600060028360026200062d9190620010b9565b62000639919062001305565b67ffffffffffffffff8111156200065557620006546200093d565b5b6040519080825280601f01601f191660200182016040528015620006885781602001600182028036833780820191505090505b5090507f300000000000000000000000000000000000000000000000000000000000000081600081518110620006c357620006c262000cdc565b5b60200101907effffffffffffffffffffffffffffffffffffffffffffffffffffffffffffff1916908160001a9053507f7800000000000000000000000000000000000000000000000000000000000000816001815181106200072a576200072962000cdc565b5b60200101907effffffffffffffffffffffffffffffffffffffffffffffffffffffffffffff1916908160001a905350600060018460026200076c9190620010b9565b62000778919062001305565b90505b600181111562000822577f3031323334353637383961626364656600000000000000000000000000000000600f861660108110620007be57620007bd62000cdc565b5b1a60f81b828281518110620007d857620007d762000cdc565b5b60200101907effffffffffffffffffffffffffffffffffffffffffffffffffffffffffffff1916908160001a905350600485901c9450806200081a9062001340565b90506200077b565b506000841462000869576040517f08c379a00000000000000000000000000000000000000000000000000000000081526004016200086090620013be565b60405180910390fd5b8091505092915050565b6000604051905090565b600080fd5b600080fd5b600073ffffffffffffffffffffffffffffffffffffffff82169050919050565b6000620008b48262000887565b9050919050565b620008c681620008a7565b8114620008d257600080fd5b50565b600081519050620008e681620008bb565b92915050565b6000819050919050565b6200090181620008ec565b81146200090d57600080fd5b50565b6000815190506200092181620008f6565b92915050565b600080fd5b6000601f19601f8301169050919050565b7f4e487b7100000000000000000000000000000000000000000000000000000000600052604160045260246000fd5b62000977826200092c565b810181811067ffffffffffffffff821117156200099957620009986200093d565b5b80604052505050565b6000620009ae62000873565b9050620009bc82826200096c565b919050565b600067ffffffffffffffff821115620009df57620009de6200093d565b5b602082029050602081019050919050565b600080fd5b600062000a0c62000a0684620009c1565b620009a2565b9050808382526020820190506020840283018581111562000a325762000a31620009f0565b5b835b8181101562000a5f578062000a4a8882620008d5565b84526020840193505060208101905062000a34565b5050509392505050565b600082601f83011262000a815762000a8062000927565b5b815162000a93848260208601620009f5565b91505092915050565b600080fd5b600067ffffffffffffffff82111562000abf5762000abe6200093d565b5b62000aca826200092c565b9050602081019050919050565b60005b8381101562000af757808201518184015260208101905062000ada565b60008484015250505050565b600062000b1a62000b148462000aa1565b620009a2565b90508281526020810184848401111562000b395762000b3862000a9c565b5b62000b4684828562000ad7565b509392505050565b600082601f83011262000b665762000b6562000927565b5b815162000b7884826020860162000b03565b91505092915050565b60008060008060008060008060006101208a8c03121562000ba75762000ba66200087d565b5b600062000bb78c828d01620008d5565b995050602062000bca8c828d01620008d5565b985050604062000bdd8c828d0162000910565b975050606062000bf08c828d01620008d5565b965050608062000c038c828d01620008d5565b95505060a08a015167ffffffffffffffff81111562000c275762000c2662000882565b5b62000c358c828d0162000a69565b94505060c08a015167ffffffffffffffff81111562000c595762000c5862000882565b5b62000c678c828d0162000a69565b93505060e08a015167ffffffffffffffff81111562000c8b5762000c8a62000882565b5b62000c998c828d0162000b4e565b9250506101008a015167ffffffffffffffff81111562000cbe5762000cbd62000882565b5b62000ccc8c828d0162000b4e565b9150509295985092959850929598565b7f4e487b7100000000000000000000000000000000000000000000000000000000600052603260045260246000fd5b7f4e487b7100000000000000000000000000000000000000000000000000000000600052601160045260246000fd5b6000819050919050565b600062000d518262000d3a565b91507fffffffffffffffffffffffffffffffffffffffffffffffffffffffffffffffff820362000d865762000d8562000d0b565b5b600182019050919050565b600081519050919050565b7f4e487b7100000000000000000000000000000000000000000000000000000000600052602260045260246000fd5b6000600282049050600182168062000de457607f821691505b60208210810362000dfa5762000df962000d9c565b5b50919050565b60008190508160005260206000209050919050565b60006020601f8301049050919050565b600082821b905092915050565b60006008830262000e647fffffffffffffffffffffffffffffffffffffffffffffffffffffffffffffffff8262000e25565b62000e70868362000e25565b95508019841693508086168417925050509392505050565b6000819050919050565b600062000eb362000ead62000ea78462000d3a565b62000e88565b62000d3a565b9050919050565b6000819050919050565b62000ecf8362000e92565b62000ee762000ede8262000eba565b84845462000e32565b825550505050565b600090565b62000efe62000eef565b62000f0b81848462000ec4565b505050565b5b8181101562000f335762000f2760008262000ef4565b60018101905062000f11565b5050565b601f82111562000f825762000f4c8162000e00565b62000f578462000e15565b8101602085101562000f67578190505b62000f7f62000f768562000e15565b83018262000f10565b50505b505050565b600082821c905092915050565b600062000fa76000198460080262000f87565b1980831691505092915050565b600062000fc2838362000f94565b9150826002028217905092915050565b62000fdd8262000d91565b67ffffffffffffffff81111562000ff95762000ff86200093d565b5b62001005825462000dcb565b6200101282828562000f37565b600060209050601f8311600181146200104a576000841562001035578287015190505b62001041858262000fb4565b865550620010b1565b601f1984166200105a8662000e00565b60005b8281101562001084578489015182556001820191506020850194506020810190506200105d565b86831015620010a45784890151620010a0601f89168262000f94565b8355505b6001600288020188555050505b505050505050565b6000620010c68262000d3a565b9150620010d38362000d3a565b9250828202620010e38162000d3a565b91508282048414831517620010fd57620010fc62000d0b565b5b5092915050565b7f4e487b7100000000000000000000000000000000000000000000000000000000600052601260045260246000fd5b6000620011408262000d3a565b91506200114d8362000d3a565b92508262001160576200115f62001104565b5b828204905092915050565b600081905092915050565b7f416363657373436f6e74726f6c3a206163636f756e7420000000000000000000600082015250565b6000620011ae6017836200116b565b9150620011bb8262001176565b601782019050919050565b6000620011d38262000d91565b620011df81856200116b565b9350620011f181856020860162000ad7565b80840191505092915050565b7f206973206d697373696e6720726f6c6520000000000000000000000000000000600082015250565b6000620012356011836200116b565b91506200124282620011fd565b601182019050919050565b60006200125a826200119f565b9150620012688285620011c6565b9150620012758262001226565b9150620012838284620011c6565b91508190509392505050565b600082825260208201905092915050565b6000620012ad8262000d91565b620012b981856200128f565b9350620012cb81856020860162000ad7565b620012d6816200092c565b840191505092915050565b60006020820190508181036000830152620012fd8184620012a0565b905092915050565b6000620013128262000d3a565b91506200131f8362000d3a565b92508282019050808211156200133a576200133962000d0b565b5b92915050565b60006200134d8262000d3a565b91506000820362001363576200136262000d0b565b5b600182039050919050565b7f537472696e67733a20686578206c656e67746820696e73756666696369656e74600082015250565b6000620013a66020836200128f565b9150620013b3826200136e565b602082019050919050565b60006020820190508181036000830152620013d98162001397565b9050919050565b614cfa80620013f06000396000f3fe6080604052600436106101c25760003560e01c80638b4ac639116100f7578063a5c86b7711610095578063d547741f11610064578063d547741f1461062b578063e932406f14610654578063f08e362f1461067f578063f2fde38b1461069b576101c2565b8063a5c86b7714610583578063afcc4ad5146105ac578063b3db9f1a146105d7578063bfd5c6df14610602576101c2565b806391d14854116100d157806391d14854146104d6578063a063e9fb14610513578063a09495951461052f578063a217fddf14610558576101c2565b80638b4ac639146104595780638da5cb5b146104825780638f83ab13146104ad576101c2565b80634357855e1161016457806355fb9d081161013e57806355fb9d08146103c3578063715018a61461040057806375b238fc146104175780637d80773014610442576101c2565b80634357855e146103465780634d1975b41461036f5780634eca519f1461039a576101c2565b8063248a9ca3116101a0578063248a9ca3146102745780632f2ff15d146102b157806336568abe146102da5780633b6e6f1b14610303576101c2565b806301ffc9a7146101c7578063117a5b90146102045780632483e71514610249575b600080fd5b3480156101d357600080fd5b506101ee60048036038101906101e991906132d6565b6106c4565b6040516101fb919061331e565b60405180910390f35b34801561021057600080fd5b5061022b6004803603810190610226919061336f565b61073e565b6040516102409998979695949392919061343b565b60405180910390f35b34801561025557600080fd5b5061025e6108a9565b60405161026b91906134ef565b60405180910390f35b34801561028057600080fd5b5061029b60048036038101906102969190613536565b6108cd565b6040516102a891906134ef565b60405180910390f35b3480156102bd57600080fd5b506102d860048036038101906102d391906135c1565b6108ed565b005b3480156102e657600080fd5b5061030160048036038101906102fc91906135c1565b610916565b005b34801561030f57600080fd5b5061032a60048036038101906103259190613601565b610999565b60405161033d9796959493929190613650565b60405180910390f35b34801561035257600080fd5b5061036d600480360381019061036891906136bf565b610a22565b005b34801561037b57600080fd5b50610384610b6b565b60405161039191906136ff565b60405180910390f35b3480156103a657600080fd5b506103c160048036038101906103bc9190613536565b610b71565b005b3480156103cf57600080fd5b506103ea60048036038101906103e5919061336f565b610c21565b6040516103f791906136ff565b60405180910390f35b34801561040c57600080fd5b50610415610d68565b005b34801561042357600080fd5b5061042c610df0565b60405161043991906134ef565b60405180910390f35b34801561044e57600080fd5b50610457610e14565b005b34801561046557600080fd5b50610480600480360381019061047b91906136bf565b610e7f565b005b34801561048e57600080fd5b50610497610fc8565b6040516104a4919061371a565b60405180910390f35b3480156104b957600080fd5b506104d460048036038101906104cf9190613735565b610ff2565b005b3480156104e257600080fd5b506104fd60048036038101906104f891906135c1565b6110c5565b60405161050a919061331e565b60405180910390f35b61052d60048036038101906105289190613762565b611130565b005b34801561053b57600080fd5b50610556600480360381019061055191906137c9565b61151f565b005b34801561056457600080fd5b5061056d611c82565b60405161057a91906134ef565b60405180910390f35b34801561058f57600080fd5b506105aa60048036038101906105a59190613951565b611c89565b005b3480156105b857600080fd5b506105c1611ec9565b6040516105ce9190613a3b565b60405180910390f35b3480156105e357600080fd5b506105ec611eef565b6040516105f991906136ff565b60405180910390f35b34801561060e57600080fd5b5061062960048036038101906106249190613a56565b611ef5565b005b34801561063757600080fd5b50610652600480360381019061064d91906135c1565b611fae565b005b34801561066057600080fd5b50610669611fd7565b60405161067691906134ef565b60405180910390f35b61069960048036038101906106949190613add565b611ffb565b005b3480156106a757600080fd5b506106c260048036038101906106bd9190613735565b61212a565b005b60007f7965db0b000000000000000000000000000000000000000000000000000000007bffffffffffffffffffffffffffffffffffffffffffffffffffffffff1916827bffffffffffffffffffffffffffffffffffffffffffffffffffffffff1916148061073757506107368261245d565b5b9050919050565b600960205280600052604060002060009150905080600001805461076190613b4c565b80601f016020809104026020016040519081016040528092919081815260200182805461078d90613b4c565b80156107da5780601f106107af576101008083540402835291602001916107da565b820191906000526020600020905b8154815290600101906020018083116107bd57829003601f168201915b5050505050908060010180546107ef90613b4c565b80601f016020809104026020016040519081016040528092919081815260200182805461081b90613b4c565b80156108685780601f1061083d57610100808354040283529160200191610868565b820191906000526020600020905b81548152906001019060200180831161084b57829003601f168201915b5050505050908060020154908060030154908060040154908060050160009054906101000a900460ff16908060060154908060070154908060080154905089565b7fab4f864e5201b0fde9b5ee3e4cf96384802b0ffdfcf7f9de4699ce21a30afc4f81565b600060076000838152602001908152602001600020600101549050919050565b6108f6826108cd565b610907816109026124c7565b6124cf565b610911838361256c565b505050565b61091e6124c7565b73ffffffffffffffffffffffffffffffffffffffff168173ffffffffffffffffffffffffffffffffffffffff161461098b576040517f08c379a000000000000000000000000000000000000000000000000000000000815260040161098290613bef565b60405180910390fd5b610995828261264d565b5050565b6008602052816000526040600020602052806000526040600020600091509150508060000160009054906101000a900473ffffffffffffffffffffffffffffffffffffffff16908060010154908060020154908060030154908060040154908060050160009054906101000a900460ff16908060050160019054906101000a900460ff16905087565b816005600082815260200190815260200160002060009054906101000a900473ffffffffffffffffffffffffffffffffffffffff1673ffffffffffffffffffffffffffffffffffffffff163373ffffffffffffffffffffffffffffffffffffffff1614610ac4576040517f08c379a0000000000000000000000000000000000000000000000000000000008152600401610abb90613c81565b60405180910390fd5b6005600082815260200190815260200160002060006101000a81549073ffffffffffffffffffffffffffffffffffffffff0219169055807f7cc135e0cebb02c3480ae5d74d377283180a2601f8f644edf7987b009316c63a60405160405180910390a2827f4b031b5f8729563cda98e5f016f7cb0d8e6b32db75591d31e59c13df29adea4483604051610b5791906136ff565b60405180910390a281600f81905550505050565b600a5481565b610b9b7fa49807205ce4d355092ef5a8a18f56e8913cf4a201fbe287825b095693c21775336110c5565b80610bd85750610ba9610fc8565b73ffffffffffffffffffffffffffffffffffffffff163373ffffffffffffffffffffffffffffffffffffffff16145b610c17576040517f08c379a0000000000000000000000000000000000000000000000000000000008152600401610c0e90613ced565b60405180910390fd5b80600d8190555050565b600080610c38600d5430634357855e60e01b61272f565b90506000600b610c4785612760565b604051602001610c58929190613de1565b6040516020818303038152906040529050610cb36040518060400160405280600381526020017f676574000000000000000000000000000000000000000000000000000000000081525082846128c09092919063ffffffff16565b610d0c6040518060400160405280600481526020017f706174680000000000000000000000000000000000000000000000000000000081525060405180602001604052806000815250846128c09092919063ffffffff16565b6000610d1a83600e546128f3565b90506000600f5490507f1ca8663227a7fe9919713a01d344afbb434e234f35a3e540a6ad924f88771f388282604051610d54929190613e05565b60405180910390a180945050505050919050565b610d706124c7565b73ffffffffffffffffffffffffffffffffffffffff16610d8e610fc8565b73ffffffffffffffffffffffffffffffffffffffff1614610de4576040517f08c379a0000000000000000000000000000000000000000000000000000000008152600401610ddb90613e7a565b60405180910390fd5b610dee600061292a565b565b7fa49807205ce4d355092ef5a8a18f56e8913cf4a201fbe287825b095693c2177581565b610e3e7fab4f864e5201b0fde9b5ee3e4cf96384802b0ffdfcf7f9de4699ce21a30afc4f336110c5565b610e7d576040517f08c379a0000000000000000000000000000000000000000000000000000000008152600401610e7490613ee6565b60405180910390fd5b565b816005600082815260200190815260200160002060009054906101000a900473ffffffffffffffffffffffffffffffffffffffff1673ffffffffffffffffffffffffffffffffffffffff163373ffffffffffffffffffffffffffffffffffffffff1614610f21576040517f08c379a0000000000000000000000000000000000000000000000000000000008152600401610f1890613c81565b60405180910390fd5b6005600082815260200190815260200160002060006101000a81549073ffffffffffffffffffffffffffffffffffffffff0219169055807f7cc135e0cebb02c3480ae5d74d377283180a2601f8f644edf7987b009316c63a60405160405180910390a2827f4b031b5f8729563cda98e5f016f7cb0d8e6b32db75591d31e59c13df29adea4483604051610fb491906136ff565b60405180910390a281600f81905550505050565b6000600660009054906101000a900473ffffffffffffffffffffffffffffffffffffffff16905090565b61101c7fa49807205ce4d355092ef5a8a18f56e8913cf4a201fbe287825b095693c21775336110c5565b80611059575061102a610fc8565b73ffffffffffffffffffffffffffffffffffffffff163373ffffffffffffffffffffffffffffffffffffffff16145b611098576040517f08c379a000000000000000000000000000000000000000000000000000000000815260040161108f90613ced565b60405180910390fd5b6110c27fab4f864e5201b0fde9b5ee3e4cf96384802b0ffdfcf7f9de4699ce21a30afc4f826108ed565b50565b60006007600084815260200190815260200160002060000160008373ffffffffffffffffffffffffffffffffffffffff1673ffffffffffffffffffffffffffffffffffffffff16815260200190815260200160002060009054906101000a900460ff16905092915050565b600a548410611174576040517f08c379a000000000000000000000000000000000000000000000000000000000815260040161116b90613f52565b60405180910390fd5b600081116111b7576040517f08c379a00000000000000000000000000000000000000000000000000000000081526004016111ae90613fe4565b60405180910390fd5b6000601060009054906101000a900473ffffffffffffffffffffffffffffffffffffffff1673ffffffffffffffffffffffffffffffffffffffff166323b872dd3330620f4240866112089190614033565b6040518463ffffffff1660e01b815260040161122693929190614075565b6020604051808303816000875af1158015611245573d6000803e3d6000fd5b505050506040513d601f19601f8201168201806040525081019061126991906140d8565b9050806112ab576040517f08c379a00000000000000000000000000000000000000000000000000000000081526004016112a290614151565b60405180910390fd5b60006009600087815260200190815260200160002090508060050160009054906101000a900460ff1615611314576040517f08c379a000000000000000000000000000000000000000000000000000000000815260040161130b906141bd565b60405180910390fd5b6000601484611323919061420c565b90506000600585611334919061420c565b90508083600601600082825461134a919061423d565b9250508190555080828661135e9190614271565b6113689190614271565b83600801600082825461137b919061423d565b925050819055506040518060e001604052803373ffffffffffffffffffffffffffffffffffffffff1681526020018981526020018284886113bc9190614271565b6113c69190614271565b815260200188815260200187815260200160001515815260200160001515815250600860008a815260200190815260200160002060008560070154815260200190815260200160002060008201518160000160006101000a81548173ffffffffffffffffffffffffffffffffffffffff021916908373ffffffffffffffffffffffffffffffffffffffff1602179055506020820151816001015560408201518160020155606082015181600301556080820151816004015560a08201518160050160006101000a81548160ff02191690831515021790555060c08201518160050160016101000a81548160ff0219169083151502179055509050508260070160008154809291906114d6906142a5565b9190505550877fbb79d51f1411ca03952954c866d22ae3532b227b2cf62e257cf182397a647173888860405161150d9291906142ed565b60405180910390a25050505050505050565b6115497f950b8f2d7415defaee398bb4898e8e094a64c725873b81952b7ab9f08d70efb3336110c5565b8061157a57506115797fa49807205ce4d355092ef5a8a18f56e8913cf4a201fbe287825b095693c21775336110c5565b5b806115b75750611588610fc8565b73ffffffffffffffffffffffffffffffffffffffff163373ffffffffffffffffffffffffffffffffffffffff16145b6115f6576040517f08c379a00000000000000000000000000000000000000000000000000000000081526004016115ed90614362565b60405180910390fd5b600a54831061163a576040517f08c379a000000000000000000000000000000000000000000000000000000000815260040161163190613f52565b60405180910390fd5b600060096000858152602001908152602001600020905082816003018190555081816004018190555060018160050160006101000a81548160ff02191690831515021790555060008160070154036116925750611c7d565b6000805b826007015481101561170857600060086000888152602001908152602001600020600083815260200190815260200160002090508581600301541480156116e05750848160040154145b156116f45782806116f0906142a5565b9350505b508080611700906142a5565b915050611696565b5060008167ffffffffffffffff81111561172557611724613826565b5b60405190808252806020026020018201604052801561175e57816020015b61174b61318c565b8152602001906001900390816117435790505b50905060008284600701546117739190614271565b67ffffffffffffffff81111561178c5761178b613826565b5b6040519080825280602002602001820160405280156117c557816020015b6117b261318c565b8152602001906001900390816117aa5790505b5090506000806000805b8760070154811015611a5c576000600860008d8152602001908152602001600020600083815260200190815260200160002090508a81600301541480156118195750898160040154145b1561193e5760018160050160006101000a81548160ff021916908315150217905550806040518060e00160405290816000820160009054906101000a900473ffffffffffffffffffffffffffffffffffffffff1673ffffffffffffffffffffffffffffffffffffffff1673ffffffffffffffffffffffffffffffffffffffff168152602001600182015481526020016002820154815260200160038201548152602001600482015481526020016005820160009054906101000a900460ff161515151581526020016005820160019054906101000a900460ff16151515158152505087868151811061190e5761190d614382565b5b6020026020010181905250806002015483611929919061423d565b92508480611936906142a5565b955050611a2b565b806040518060e00160405290816000820160009054906101000a900473ffffffffffffffffffffffffffffffffffffffff1673ffffffffffffffffffffffffffffffffffffffff1673ffffffffffffffffffffffffffffffffffffffff168152602001600182015481526020016002820154815260200160038201548152602001600482015481526020016005820160009054906101000a900460ff161515151581526020016005820160019054906101000a900460ff161515151581525050868581518110611a1157611a10614382565b5b60200260200101819052508380611a27906142a5565b9450505b60018160050160016101000a81548160ff021916908315150217905550508080611a54906142a5565b9150506117cf565b5060008303611a85578660080154876006016000828254611a7d919061423d565b925050819055505b60005b83811015611b9a57601060009054906101000a900473ffffffffffffffffffffffffffffffffffffffff1673ffffffffffffffffffffffffffffffffffffffff1663a9059cbb878381518110611ae157611ae0614382565b5b60200260200101516000015184898581518110611b0157611b00614382565b5b6020026020010151604001518c60080154611b1c9190614033565b611b26919061420c565b6040518363ffffffff1660e01b8152600401611b439291906143b1565b6020604051808303816000875af1158015611b62573d6000803e3d6000fd5b505050506040513d601f19601f82011682018060405250810190611b8691906140d8565b508080611b92906142a5565b915050611a88565b506000611ba683610c21565b905060018114611c7457601060009054906101000a900473ffffffffffffffffffffffffffffffffffffffff1673ffffffffffffffffffffffffffffffffffffffff1663a9059cbb868381518110611c0157611c00614382565b5b6020026020010151600001518a600601546040518363ffffffff1660e01b8152600401611c2f9291906143b1565b6020604051808303816000875af1158015611c4e573d6000803e3d6000fd5b505050506040513d601f19601f82011682018060405250810190611c7291906140d8565b505b50505050505050505b505050565b6000801b81565b611cb37f950b8f2d7415defaee398bb4898e8e094a64c725873b81952b7ab9f08d70efb3336110c5565b80611ce45750611ce37fa49807205ce4d355092ef5a8a18f56e8913cf4a201fbe287825b095693c21775336110c5565b5b80611d215750611cf2610fc8565b73ffffffffffffffffffffffffffffffffffffffff163373ffffffffffffffffffffffffffffffffffffffff16145b611d60576040517f08c379a0000000000000000000000000000000000000000000000000000000008152600401611d5790614362565b60405180910390fd5b60405180610120016040528084815260200183815260200182815260200160008152602001600081526020016000151581526020016000815260200160008152602001600081525060096000600a5481526020019081526020016000206000820151816000019081611dd29190614567565b506020820151816001019081611de89190614567565b5060408201518160020155606082015181600301556080820151816004015560a08201518160050160006101000a81548160ff02191690831515021790555060c0820151816006015560e082015181600701556101008201518160080155905050600a6000815480929190611e5c906142a5565b919050555081604051611e6f9190614639565b604051809103902083604051611e859190614639565b60405180910390207fd35ca1314b646b63fb0c1f06dbe2338333530431983c8779c9692f9ff4ad249f83604051611ebc91906136ff565b60405180910390a3505050565b601060009054906101000a900473ffffffffffffffffffffffffffffffffffffffff1681565b600f5481565b611f1f7fa49807205ce4d355092ef5a8a18f56e8913cf4a201fbe287825b095693c21775336110c5565b80611f5c5750611f2d610fc8565b73ffffffffffffffffffffffffffffffffffffffff163373ffffffffffffffffffffffffffffffffffffffff16145b611f9b576040517f08c379a0000000000000000000000000000000000000000000000000000000008152600401611f9290613ced565b60405180910390fd5b80600b9081611faa9190614567565b5050565b611fb7826108cd565b611fc881611fc36124c7565b6124cf565b611fd2838361264d565b505050565b7f950b8f2d7415defaee398bb4898e8e094a64c725873b81952b7ab9f08d70efb381565b6120036124c7565b73ffffffffffffffffffffffffffffffffffffffff16612021610fc8565b73ffffffffffffffffffffffffffffffffffffffff1614612077576040517f08c379a000000000000000000000000000000000000000000000000000000000815260040161206e90613e7a565b60405180910390fd5b601060009054906101000a900473ffffffffffffffffffffffffffffffffffffffff1673ffffffffffffffffffffffffffffffffffffffff1663a9059cbb82620f4240856120c59190614033565b6040518363ffffffff1660e01b81526004016120e2929190614671565b6020604051808303816000875af1158015612101573d6000803e3d6000fd5b505050506040513d601f19601f8201168201806040525081019061212591906140d8565b505050565b6121326124c7565b73ffffffffffffffffffffffffffffffffffffffff16612150610fc8565b73ffffffffffffffffffffffffffffffffffffffff16146121a6576040517f08c379a000000000000000000000000000000000000000000000000000000000815260040161219d90613e7a565b60405180910390fd5b600073ffffffffffffffffffffffffffffffffffffffff168173ffffffffffffffffffffffffffffffffffffffff1603612215576040517f08c379a000000000000000000000000000000000000000000000000000000000815260040161220c9061470c565b60405180910390fd5b61221e8161292a565b50565b6060600060028360026122349190614033565b61223e919061423d565b67ffffffffffffffff81111561225757612256613826565b5b6040519080825280601f01601f1916602001820160405280156122895781602001600182028036833780820191505090505b5090507f3000000000000000000000000000000000000000000000000000000000000000816000815181106122c1576122c0614382565b5b60200101907effffffffffffffffffffffffffffffffffffffffffffffffffffffffffffff1916908160001a9053507f78000000000000000000000000000000000000000000000000000000000000008160018151811061232557612324614382565b5b60200101907effffffffffffffffffffffffffffffffffffffffffffffffffffffffffffff1916908160001a905350600060018460026123659190614033565b61236f919061423d565b90505b600181111561240f577f3031323334353637383961626364656600000000000000000000000000000000600f8616601081106123b1576123b0614382565b5b1a60f81b8282815181106123c8576123c7614382565b5b60200101907effffffffffffffffffffffffffffffffffffffffffffffffffffffffffffff1916908160001a905350600485901c9450806124089061472c565b9050612372565b5060008414612453576040517f08c379a000000000000000000000000000000000000000000000000000000000815260040161244a906147a1565b60405180910390fd5b8091505092915050565b60007f01ffc9a7000000000000000000000000000000000000000000000000000000007bffffffffffffffffffffffffffffffffffffffffffffffffffffffff1916827bffffffffffffffffffffffffffffffffffffffffffffffffffffffff1916149050919050565b600033905090565b6124d982826110c5565b612568576124fe8173ffffffffffffffffffffffffffffffffffffffff166014612221565b61250c8360001c6020612221565b60405160200161251d929190614859565b6040516020818303038152906040526040517f08c379a000000000000000000000000000000000000000000000000000000000815260040161255f9190614893565b60405180910390fd5b5050565b61257682826110c5565b6126495760016007600084815260200190815260200160002060000160008373ffffffffffffffffffffffffffffffffffffffff1673ffffffffffffffffffffffffffffffffffffffff16815260200190815260200160002060006101000a81548160ff0219169083151502179055506125ee6124c7565b73ffffffffffffffffffffffffffffffffffffffff168173ffffffffffffffffffffffffffffffffffffffff16837f2f8788117e7eff1d82e926ec794901d17c78024a50270940304540a733656f0d60405160405180910390a45b5050565b61265782826110c5565b1561272b5760006007600084815260200190815260200160002060000160008373ffffffffffffffffffffffffffffffffffffffff1673ffffffffffffffffffffffffffffffffffffffff16815260200190815260200160002060006101000a81548160ff0219169083151502179055506126d06124c7565b73ffffffffffffffffffffffffffffffffffffffff168173ffffffffffffffffffffffffffffffffffffffff16837ff6391f5c32d9c69d2a47ea670b442974b53935d1edc7fd64eb21e047a839171b60405160405180910390a45b5050565b6127376131e3565b61273f6131e3565b612756858585846129f0909392919063ffffffff16565b9150509392505050565b6060600082036127a7576040518060400160405280600181526020017f300000000000000000000000000000000000000000000000000000000000000081525090506128bb565b600082905060005b600082146127d95780806127c2906142a5565b915050600a826127d2919061420c565b91506127af565b60008167ffffffffffffffff8111156127f5576127f4613826565b5b6040519080825280601f01601f1916602001820160405280156128275781602001600182028036833780820191505090505b5090505b600085146128b4576001826128409190614271565b9150600a8561284f91906148b5565b603061285b919061423d565b60f81b81838151811061287157612870614382565b5b60200101907effffffffffffffffffffffffffffffffffffffffffffffffffffffffffffff1916908160001a905350600a856128ad919061420c565b945061282b565b8093505050505b919050565b6128d7828460800151612aa090919063ffffffff16565b6128ee818460800151612aa090919063ffffffff16565b505050565b6000612922600360009054906101000a900473ffffffffffffffffffffffffffffffffffffffff168484612ac5565b905092915050565b6000600660009054906101000a900473ffffffffffffffffffffffffffffffffffffffff16905081600660006101000a81548173ffffffffffffffffffffffffffffffffffffffff021916908373ffffffffffffffffffffffffffffffffffffffff1602179055508173ffffffffffffffffffffffffffffffffffffffff168173ffffffffffffffffffffffffffffffffffffffff167f8be0079c531659141344cd1fd0a4f28419497f9722a3daafe3b4186f6b6457e060405160405180910390a35050565b6129f86131e3565b612a088560800151610100612b91565b508385600001818152505082856020019073ffffffffffffffffffffffffffffffffffffffff16908173ffffffffffffffffffffffffffffffffffffffff16815250508185604001907bffffffffffffffffffffffffffffffffffffffffffffffffffffffff191690817bffffffffffffffffffffffffffffffffffffffffffffffffffffffff191681525050849050949350505050565b612aad8260038351612bfb565b612ac08183612d8090919063ffffffff16565b505050565b6000806004549050600181612ada919061423d565b6004819055506000634042994660e01b60008087600001513089604001518760018c6080015160000151604051602401612b1b98979695949392919061494a565b604051602081830303815290604052907bffffffffffffffffffffffffffffffffffffffffffffffffffffffff19166020820180517bffffffffffffffffffffffffffffffffffffffffffffffffffffffff83818316178352505050509050612b8686838684612da2565b925050509392505050565b612b99613250565b6000602083612ba891906148b5565b14612bd457602082612bba91906148b5565b6020612bc69190614271565b82612bd1919061423d565b91505b81836020018181525050604051808452600081528281016020016040525082905092915050565b60178167ffffffffffffffff1611612c3257612c2c8160058460ff16901b60ff161784612f3790919063ffffffff16565b50612d7b565b60ff8167ffffffffffffffff1611612c8857612c61601860058460ff16901b1784612f3790919063ffffffff16565b50612c828167ffffffffffffffff16600185612f579092919063ffffffff16565b50612d7a565b61ffff8167ffffffffffffffff1611612cdf57612cb8601960058460ff16901b1784612f3790919063ffffffff16565b50612cd98167ffffffffffffffff16600285612f579092919063ffffffff16565b50612d79565b63ffffffff8167ffffffffffffffff1611612d3857612d11601a60058460ff16901b1784612f3790919063ffffffff16565b50612d328167ffffffffffffffff16600485612f579092919063ffffffff16565b50612d78565b612d55601b60058460ff16901b1784612f3790919063ffffffff16565b50612d768167ffffffffffffffff16600885612f579092919063ffffffff16565b505b5b5b5b505050565b612d88613250565b612d9a83846000015151848551612f79565b905092915050565b60003084604051602001612db7929190614a4a565b604051602081830303815290604052805190602001209050846005600083815260200190815260200160002060006101000a81548173ffffffffffffffffffffffffffffffffffffffff021916908373ffffffffffffffffffffffffffffffffffffffff160217905550807fb5e6e01e79f91267dc17b4e6314d5d4d03593d2ceee0fbb452b750bd70ea5af960405160405180910390a2600260009054906101000a900473ffffffffffffffffffffffffffffffffffffffff1673ffffffffffffffffffffffffffffffffffffffff16634000aea08685856040518463ffffffff1660e01b8152600401612ead93929190614a76565b6020604051808303816000875af1158015612ecc573d6000803e3d6000fd5b505050506040513d601f19601f82011682018060405250810190612ef091906140d8565b612f2f576040517f08c379a0000000000000000000000000000000000000000000000000000000008152600401612f2690614b26565b60405180910390fd5b949350505050565b612f3f613250565b612f4f8384600001515184613068565b905092915050565b612f5f613250565b612f708485600001515185856130be565b90509392505050565b612f81613250565b8251821115612f8f57600080fd5b84602001518285612fa0919061423d565b1115612fd557612fd4856002612fc588602001518887612fc0919061423d565b61314c565b612fcf9190614033565b613168565b5b600080865180518760208301019350808887011115612ff45787860182525b60208701925050505b6020841061303b5780518252602082613016919061423d565b9150602081613025919061423d565b90506020846130349190614271565b9350612ffd565b60006001856020036101000a03905080198251168184511681811785525050508692505050949350505050565b613070613250565b836020015183106130965761309584600286602001516130909190614033565b613168565b5b835180516020858301018481538186036130b1576001820183525b5050508390509392505050565b6130c6613250565b846020015184836130d7919061423d565b11156130ff576130fe85600286856130ef919061423d565b6130f99190614033565b613168565b5b60006001836101006131119190614c79565b61311b9190614271565b9050855183868201018583198251161781528151858801111561313e5784870182525b505085915050949350505050565b60008183111561315e57829050613162565b8190505b92915050565b60008260000151905061317b8383612b91565b506131868382612d80565b50505050565b6040518060e00160405280600073ffffffffffffffffffffffffffffffffffffffff168152602001600081526020016000815260200160008152602001600081526020016000151581526020016000151581525090565b6040518060a0016040528060008019168152602001600073ffffffffffffffffffffffffffffffffffffffff16815260200160007bffffffffffffffffffffffffffffffffffffffffffffffffffffffff191681526020016000815260200161324a613250565b81525090565b604051806040016040528060608152602001600081525090565b6000604051905090565b600080fd5b600080fd5b60007fffffffff0000000000000000000000000000000000000000000000000000000082169050919050565b6132b38161327e565b81146132be57600080fd5b50565b6000813590506132d0816132aa565b92915050565b6000602082840312156132ec576132eb613274565b5b60006132fa848285016132c1565b91505092915050565b60008115159050919050565b61331881613303565b82525050565b6000602082019050613333600083018461330f565b92915050565b6000819050919050565b61334c81613339565b811461335757600080fd5b50565b60008135905061336981613343565b92915050565b60006020828403121561338557613384613274565b5b60006133938482850161335a565b91505092915050565b600081519050919050565b600082825260208201905092915050565b60005b838110156133d65780820151818401526020810190506133bb565b60008484015250505050565b6000601f19601f8301169050919050565b60006133fe8261339c565b61340881856133a7565b93506134188185602086016133b8565b613421816133e2565b840191505092915050565b61343581613339565b82525050565b6000610120820190508181036000830152613456818c6133f3565b9050818103602083015261346a818b6133f3565b9050613479604083018a61342c565b613486606083018961342c565b613493608083018861342c565b6134a060a083018761330f565b6134ad60c083018661342c565b6134ba60e083018561342c565b6134c861010083018461342c565b9a9950505050505050505050565b6000819050919050565b6134e9816134d6565b82525050565b600060208201905061350460008301846134e0565b92915050565b613513816134d6565b811461351e57600080fd5b50565b6000813590506135308161350a565b92915050565b60006020828403121561354c5761354b613274565b5b600061355a84828501613521565b91505092915050565b600073ffffffffffffffffffffffffffffffffffffffff82169050919050565b600061358e82613563565b9050919050565b61359e81613583565b81146135a957600080fd5b50565b6000813590506135bb81613595565b92915050565b600080604083850312156135d8576135d7613274565b5b60006135e685828601613521565b92505060206135f7858286016135ac565b9150509250929050565b6000806040838503121561361857613617613274565b5b60006136268582860161335a565b92505060206136378582860161335a565b9150509250929050565b61364a81613583565b82525050565b600060e082019050613665600083018a613641565b613672602083018961342c565b61367f604083018861342c565b61368c606083018761342c565b613699608083018661342c565b6136a660a083018561330f565b6136b360c083018461330f565b98975050505050505050565b600080604083850312156136d6576136d5613274565b5b60006136e485828601613521565b92505060206136f58582860161335a565b9150509250929050565b6000602082019050613714600083018461342c565b92915050565b600060208201905061372f6000830184613641565b92915050565b60006020828403121561374b5761374a613274565b5b6000613759848285016135ac565b91505092915050565b6000806000806080858703121561377c5761377b613274565b5b600061378a8782880161335a565b945050602061379b8782880161335a565b93505060406137ac8782880161335a565b92505060606137bd8782880161335a565b91505092959194509250565b6000806000606084860312156137e2576137e1613274565b5b60006137f08682870161335a565b93505060206138018682870161335a565b92505060406138128682870161335a565b9150509250925092565b600080fd5b600080fd5b7f4e487b7100000000000000000000000000000000000000000000000000000000600052604160045260246000fd5b61385e826133e2565b810181811067ffffffffffffffff8211171561387d5761387c613826565b5b80604052505050565b600061389061326a565b905061389c8282613855565b919050565b600067ffffffffffffffff8211156138bc576138bb613826565b5b6138c5826133e2565b9050602081019050919050565b82818337600083830152505050565b60006138f46138ef846138a1565b613886565b9050828152602081018484840111156139105761390f613821565b5b61391b8482856138d2565b509392505050565b600082601f8301126139385761393761381c565b5b81356139488482602086016138e1565b91505092915050565b60008060006060848603121561396a57613969613274565b5b600084013567ffffffffffffffff81111561398857613987613279565b5b61399486828701613923565b935050602084013567ffffffffffffffff8111156139b5576139b4613279565b5b6139c186828701613923565b92505060406139d28682870161335a565b9150509250925092565b6000819050919050565b6000613a016139fc6139f784613563565b6139dc565b613563565b9050919050565b6000613a13826139e6565b9050919050565b6000613a2582613a08565b9050919050565b613a3581613a1a565b82525050565b6000602082019050613a506000830184613a2c565b92915050565b600060208284031215613a6c57613a6b613274565b5b600082013567ffffffffffffffff811115613a8a57613a89613279565b5b613a9684828501613923565b91505092915050565b6000613aaa82613563565b9050919050565b613aba81613a9f565b8114613ac557600080fd5b50565b600081359050613ad781613ab1565b92915050565b60008060408385031215613af457613af3613274565b5b6000613b028582860161335a565b9250506020613b1385828601613ac8565b9150509250929050565b7f4e487b7100000000000000000000000000000000000000000000000000000000600052602260045260246000fd5b60006002820490506001821680613b6457607f821691505b602082108103613b7757613b76613b1d565b5b50919050565b7f416363657373436f6e74726f6c3a2063616e206f6e6c792072656e6f756e636560008201527f20726f6c657320666f722073656c660000000000000000000000000000000000602082015250565b6000613bd9602f836133a7565b9150613be482613b7d565b604082019050919050565b60006020820190508181036000830152613c0881613bcc565b9050919050565b7f536f75726365206d75737420626520746865206f7261636c65206f662074686560008201527f2072657175657374000000000000000000000000000000000000000000000000602082015250565b6000613c6b6028836133a7565b9150613c7682613c0f565b604082019050919050565b60006020820190508181036000830152613c9a81613c5e565b9050919050565b7f49535f4e4f545f41444d494e0000000000000000000000000000000000000000600082015250565b6000613cd7600c836133a7565b9150613ce282613ca1565b602082019050919050565b60006020820190508181036000830152613d0681613cca565b9050919050565b600081905092915050565b60008190508160005260206000209050919050565b60008154613d3a81613b4c565b613d448186613d0d565b94506001821660008114613d5f5760018114613d7457613da7565b60ff1983168652811515820286019350613da7565b613d7d85613d18565b60005b83811015613d9f57815481890152600182019150602081019050613d80565b838801955050505b50505092915050565b6000613dbb8261339c565b613dc58185613d0d565b9350613dd58185602086016133b8565b80840191505092915050565b6000613ded8285613d2d565b9150613df98284613db0565b91508190509392505050565b6000604082019050613e1a60008301856134e0565b613e27602083018461342c565b9392505050565b7f4f776e61626c653a2063616c6c6572206973206e6f7420746865206f776e6572600082015250565b6000613e646020836133a7565b9150613e6f82613e2e565b602082019050919050565b60006020820190508181036000830152613e9381613e57565b9050919050565b7f49535f4e4f545f52454c41594552000000000000000000000000000000000000600082015250565b6000613ed0600e836133a7565b9150613edb82613e9a565b602082019050919050565b60006020820190508181036000830152613eff81613ec3565b9050919050565b7f496e76616c69642067616d652049440000000000000000000000000000000000600082015250565b6000613f3c600f836133a7565b9150613f4782613f06565b602082019050919050565b60006020820190508181036000830152613f6b81613f2f565b9050919050565b7f42657420616d6f756e74206d7573742062652067726561746572207468616e2060008201527f7a65726f00000000000000000000000000000000000000000000000000000000602082015250565b6000613fce6024836133a7565b9150613fd982613f72565b604082019050919050565b60006020820190508181036000830152613ffd81613fc1565b9050919050565b7f4e487b7100000000000000000000000000000000000000000000000000000000600052601160045260246000fd5b600061403e82613339565b915061404983613339565b925082820261405781613339565b9150828204841483151761406e5761406d614004565b5b5092915050565b600060608201905061408a6000830186613641565b6140976020830185613641565b6140a4604083018461342c565b949350505050565b6140b581613303565b81146140c057600080fd5b50565b6000815190506140d2816140ac565b92915050565b6000602082840312156140ee576140ed613274565b5b60006140fc848285016140c3565b91505092915050565b7f5472616e73616374696f6e206661696c65640000000000000000000000000000600082015250565b600061413b6012836133a7565b915061414682614105565b602082019050919050565b6000602082019050818103600083015261416a8161412e565b9050919050565b7f47616d652068617320616c726561647920636f6d706c65746564000000000000600082015250565b60006141a7601a836133a7565b91506141b282614171565b602082019050919050565b600060208201905081810360008301526141d68161419a565b9050919050565b7f4e487b7100000000000000000000000000000000000000000000000000000000600052601260045260246000fd5b600061421782613339565b915061422283613339565b925082614232576142316141dd565b5b828204905092915050565b600061424882613339565b915061425383613339565b925082820190508082111561426b5761426a614004565b5b92915050565b600061427c82613339565b915061428783613339565b925082820390508181111561429f5761429e614004565b5b92915050565b60006142b082613339565b91507fffffffffffffffffffffffffffffffffffffffffffffffffffffffffffffffff82036142e2576142e1614004565b5b600182019050919050565b6000604082019050614302600083018561342c565b61430f602083018461342c565b9392505050565b7f49535f4e4f545f4d4f445f4f525f41444d494e00000000000000000000000000600082015250565b600061434c6013836133a7565b915061435782614316565b602082019050919050565b6000602082019050818103600083015261437b8161433f565b9050919050565b7f4e487b7100000000000000000000000000000000000000000000000000000000600052603260045260246000fd5b60006040820190506143c66000830185613641565b6143d3602083018461342c565b9392505050565b60006020601f8301049050919050565b600082821b905092915050565b6000600883026144277fffffffffffffffffffffffffffffffffffffffffffffffffffffffffffffffff826143ea565b61443186836143ea565b95508019841693508086168417925050509392505050565b600061446461445f61445a84613339565b6139dc565b613339565b9050919050565b6000819050919050565b61447e83614449565b61449261448a8261446b565b8484546143f7565b825550505050565b600090565b6144a761449a565b6144b2818484614475565b505050565b5b818110156144d6576144cb60008261449f565b6001810190506144b8565b5050565b601f82111561451b576144ec81613d18565b6144f5846143da565b81016020851015614504578190505b614518614510856143da565b8301826144b7565b50505b505050565b600082821c905092915050565b600061453e60001984600802614520565b1980831691505092915050565b6000614557838361452d565b9150826002028217905092915050565b6145708261339c565b67ffffffffffffffff81111561458957614588613826565b5b6145938254613b4c565b61459e8282856144da565b600060209050601f8311600181146145d157600084156145bf578287015190505b6145c9858261454b565b865550614631565b601f1984166145df86613d18565b60005b82811015614607578489015182556001820191506020850194506020810190506145e2565b868310156146245784890151614620601f89168261452d565b8355505b6001600288020188555050505b505050505050565b60006146458284613db0565b915081905092915050565b600061465b82613a08565b9050919050565b61466b81614650565b82525050565b60006040820190506146866000830185614662565b614693602083018461342c565b9392505050565b7f4f776e61626c653a206e6577206f776e657220697320746865207a65726f206160008201527f6464726573730000000000000000000000000000000000000000000000000000602082015250565b60006146f66026836133a7565b91506147018261469a565b604082019050919050565b60006020820190508181036000830152614725816146e9565b9050919050565b600061473782613339565b91506000820361474a57614749614004565b5b600182039050919050565b7f537472696e67733a20686578206c656e67746820696e73756666696369656e74600082015250565b600061478b6020836133a7565b915061479682614755565b602082019050919050565b600060208201905081810360008301526147ba8161477e565b9050919050565b7f416363657373436f6e74726f6c3a206163636f756e7420000000000000000000600082015250565b60006147f7601783613d0d565b9150614802826147c1565b601782019050919050565b7f206973206d697373696e6720726f6c6520000000000000000000000000000000600082015250565b6000614843601183613d0d565b915061484e8261480d565b601182019050919050565b6000614864826147ea565b91506148708285613db0565b915061487b82614836565b91506148878284613db0565b91508190509392505050565b600060208201905081810360008301526148ad81846133f3565b905092915050565b60006148c082613339565b91506148cb83613339565b9250826148db576148da6141dd565b5b828206905092915050565b6148ef8161327e565b82525050565b600081519050919050565b600082825260208201905092915050565b600061491c826148f5565b6149268185614900565b93506149368185602086016133b8565b61493f816133e2565b840191505092915050565b600061010082019050614960600083018b613641565b61496d602083018a61342c565b61497a60408301896134e0565b6149876060830188613641565b61499460808301876148e6565b6149a160a083018661342c565b6149ae60c083018561342c565b81810360e08301526149c08184614911565b90509998505050505050505050565b60006149da82613a08565b9050919050565b60008160601b9050919050565b60006149f9826149e1565b9050919050565b6000614a0b826149ee565b9050919050565b614a23614a1e826149cf565b614a00565b82525050565b6000819050919050565b614a44614a3f82613339565b614a29565b82525050565b6000614a568285614a12565b601482019150614a668284614a33565b6020820191508190509392505050565b6000606082019050614a8b6000830186613641565b614a98602083018561342c565b8181036040830152614aaa8184614911565b9050949350505050565b7f756e61626c6520746f207472616e73666572416e6443616c6c20746f206f726160008201527f636c650000000000000000000000000000000000000000000000000000000000602082015250565b6000614b106023836133a7565b9150614b1b82614ab4565b604082019050919050565b60006020820190508181036000830152614b3f81614b03565b9050919050565b60008160011c9050919050565b6000808291508390505b6001851115614b9d57808604811115614b7957614b78614004565b5b6001851615614b885780820291505b8081029050614b9685614b46565b9450614b5d565b94509492505050565b600082614bb65760019050614c72565b81614bc45760009050614c72565b8160018114614bda5760028114614be457614c13565b6001915050614c72565b60ff841115614bf657614bf5614004565b5b8360020a915084821115614c0d57614c0c614004565b5b50614c72565b5060208310610133831016604e8410600b8410161715614c485782820a905083811115614c4357614c42614004565b5b614c72565b614c558484846001614b53565b92509050818404811115614c6c57614c6b614004565b5b81810290505b9392505050565b6000614c8482613339565b9150614c8f83613339565b9250614cbc7fffffffffffffffffffffffffffffffffffffffffffffffffffffffffffffffff8484614ba6565b90509291505056fea2646970667358221220fe5245f6d3adbcb9499ad091117ea260b881618f6a3580c4752ca7a31ec802cc64736f6c63430008110033","opcodes":"PUSH1 0x80 PUSH1 0x40 MSTORE PUSH1 0x1 PUSH1 0x4 SSTORE CALLVALUE DUP1 ISZERO PUSH3 0x16 JUMPI PUSH1 0x0 DUP1 REVERT JUMPDEST POP PUSH1 0x40 MLOAD PUSH3 0x60EA CODESIZE SUB DUP1 PUSH3 0x60EA DUP4 CODECOPY DUP2 DUP2 ADD PUSH1 0x40 MSTORE DUP2 ADD SWAP1 PUSH3 0x3C SWAP2 SWAP1 PUSH3 0xB81 JUMP JUMPDEST PUSH3 0x5C PUSH3 0x50 PUSH3 0x238 PUSH1 0x20 SHL PUSH1 0x20 SHR JUMP JUMPDEST PUSH3 0x240 PUSH1 0x20 SHL PUSH1 0x20 SHR JUMP JUMPDEST PUSH1 0x0 JUMPDEST DUP5 MLOAD DUP2 LT ISZERO PUSH3 0xCC JUMPI PUSH3 0xB8 PUSH32 0x950B8F2D7415DEFAEE398BB4898E8E094A64C725873B81952B7AB9F08D70EFB3 DUP7 DUP4 DUP2 MLOAD DUP2 LT PUSH3 0xA4 JUMPI PUSH3 0xA3 PUSH3 0xCDC JUMP JUMPDEST JUMPDEST PUSH1 0x20 MUL PUSH1 0x20 ADD ADD MLOAD PUSH3 0x306 PUSH1 0x20 SHL PUSH1 0x20 SHR JUMP JUMPDEST DUP1 PUSH3 0xC4 SWAP1 PUSH3 0xD44 JUMP JUMPDEST SWAP1 POP PUSH3 0x5F JUMP JUMPDEST POP PUSH1 0x0 JUMPDEST DUP4 MLOAD DUP2 LT ISZERO PUSH3 0x13D JUMPI PUSH3 0x129 PUSH32 0xA49807205CE4D355092EF5A8A18F56E8913CF4A201FBE287825B095693C21775 DUP6 DUP4 DUP2 MLOAD DUP2 LT PUSH3 0x115 JUMPI PUSH3 0x114 PUSH3 0xCDC JUMP JUMPDEST JUMPDEST PUSH1 0x20 MUL PUSH1 0x20 ADD ADD MLOAD PUSH3 0x306 PUSH1 0x20 SHL PUSH1 0x20 SHR JUMP JUMPDEST DUP1 PUSH3 0x135 SWAP1 PUSH3 0xD44 JUMP JUMPDEST SWAP1 POP PUSH3 0xD0 JUMP JUMPDEST POP PUSH3 0x170 PUSH32 0xAB4F864E5201B0FDE9B5EE3E4CF96384802B0FFDFCF7F9DE4699CE21A30AFC4F DUP8 PUSH3 0x306 PUSH1 0x20 SHL PUSH1 0x20 SHR JUMP JUMPDEST DUP2 PUSH1 0xB SWAP1 DUP2 PUSH3 0x181 SWAP2 SWAP1 PUSH3 0xFD2 JUMP JUMPDEST POP DUP1 PUSH1 0xC SWAP1 DUP2 PUSH3 0x193 SWAP2 SWAP1 PUSH3 0xFD2 JUMP JUMPDEST POP PUSH3 0x1A5 DUP10 PUSH3 0x34F PUSH1 0x20 SHL PUSH1 0x20 SHR JUMP JUMPDEST PUSH3 0x1B6 DUP9 PUSH3 0x393 PUSH1 0x20 SHL PUSH1 0x20 SHR JUMP JUMPDEST DUP7 PUSH1 0xD DUP2 SWAP1 SSTORE POP PUSH1 0xA PUSH8 0xDE0B6B3A7640000 PUSH1 0x1 PUSH3 0x1D6 SWAP2 SWAP1 PUSH3 0x10B9 JUMP JUMPDEST PUSH3 0x1E2 SWAP2 SWAP1 PUSH3 0x1133 JUMP JUMPDEST PUSH1 0xE DUP2 SWAP1 SSTORE POP DUP5 PUSH1 0x10 PUSH1 0x0 PUSH2 0x100 EXP DUP2 SLOAD DUP2 PUSH20 0xFFFFFFFFFFFFFFFFFFFFFFFFFFFFFFFFFFFFFFFF MUL NOT AND SWAP1 DUP4 PUSH20 0xFFFFFFFFFFFFFFFFFFFFFFFFFFFFFFFFFFFFFFFF AND MUL OR SWAP1 SSTORE POP POP POP POP POP POP POP POP POP POP PUSH3 0x13E0 JUMP JUMPDEST PUSH1 0x0 CALLER SWAP1 POP SWAP1 JUMP JUMPDEST PUSH1 0x0 PUSH1 0x6 PUSH1 0x0 SWAP1 SLOAD SWAP1 PUSH2 0x100 EXP SWAP1 DIV PUSH20 0xFFFFFFFFFFFFFFFFFFFFFFFFFFFFFFFFFFFFFFFF AND SWAP1 POP DUP2 PUSH1 0x6 PUSH1 0x0 PUSH2 0x100 EXP DUP2 SLOAD DUP2 PUSH20 0xFFFFFFFFFFFFFFFFFFFFFFFFFFFFFFFFFFFFFFFF MUL NOT AND SWAP1 DUP4 PUSH20 0xFFFFFFFFFFFFFFFFFFFFFFFFFFFFFFFFFFFFFFFF AND MUL OR SWAP1 SSTORE POP DUP2 PUSH20 0xFFFFFFFFFFFFFFFFFFFFFFFFFFFFFFFFFFFFFFFF AND DUP2 PUSH20 0xFFFFFFFFFFFFFFFFFFFFFFFFFFFFFFFFFFFFFFFF AND PUSH32 0x8BE0079C531659141344CD1FD0A4F28419497F9722A3DAAFE3B4186F6B6457E0 PUSH1 0x40 MLOAD PUSH1 0x40 MLOAD DUP1 SWAP2 SUB SWAP1 LOG3 POP POP JUMP JUMPDEST PUSH3 0x317 DUP3 PUSH3 0x3D7 PUSH1 0x20 SHL PUSH1 0x20 SHR JUMP JUMPDEST PUSH3 0x338 DUP2 PUSH3 0x32C PUSH3 0x238 PUSH1 0x20 SHL PUSH1 0x20 SHR JUMP JUMPDEST PUSH3 0x3F7 PUSH1 0x20 SHL PUSH1 0x20 SHR JUMP JUMPDEST PUSH3 0x34A DUP4 DUP4 PUSH3 0x4BB PUSH1 0x20 SHL PUSH1 0x20 SHR JUMP JUMPDEST POP POP POP JUMP JUMPDEST DUP1 PUSH1 0x2 PUSH1 0x0 PUSH2 0x100 EXP DUP2 SLOAD DUP2 PUSH20 0xFFFFFFFFFFFFFFFFFFFFFFFFFFFFFFFFFFFFFFFF MUL NOT AND SWAP1 DUP4 PUSH20 0xFFFFFFFFFFFFFFFFFFFFFFFFFFFFFFFFFFFFFFFF AND MUL OR SWAP1 SSTORE POP POP JUMP JUMPDEST DUP1 PUSH1 0x3 PUSH1 0x0 PUSH2 0x100 EXP DUP2 SLOAD DUP2 PUSH20 0xFFFFFFFFFFFFFFFFFFFFFFFFFFFFFFFFFFFFFFFF MUL NOT AND SWAP1 DUP4 PUSH20 0xFFFFFFFFFFFFFFFFFFFFFFFFFFFFFFFFFFFFFFFF AND MUL OR SWAP1 SSTORE POP POP JUMP JUMPDEST PUSH1 0x0 PUSH1 0x7 PUSH1 0x0 DUP4 DUP2 MSTORE PUSH1 0x20 ADD SWAP1 DUP2 MSTORE PUSH1 0x20 ADD PUSH1 0x0 KECCAK256 PUSH1 0x1 ADD SLOAD SWAP1 POP SWAP2 SWAP1 POP JUMP JUMPDEST PUSH3 0x409 DUP3 DUP3 PUSH3 0x5AD PUSH1 0x20 SHL PUSH1 0x20 SHR JUMP JUMPDEST PUSH3 0x4B7 JUMPI PUSH3 0x43C DUP2 PUSH20 0xFFFFFFFFFFFFFFFFFFFFFFFFFFFFFFFFFFFFFFFF AND PUSH1 0x14 PUSH3 0x618 PUSH1 0x20 SHL PUSH3 0x2221 OR PUSH1 0x20 SHR JUMP JUMPDEST PUSH3 0x457 DUP4 PUSH1 0x0 SHR PUSH1 0x20 PUSH3 0x618 PUSH1 0x20 SHL PUSH3 0x2221 OR PUSH1 0x20 SHR JUMP JUMPDEST PUSH1 0x40 MLOAD PUSH1 0x20 ADD PUSH3 0x46A SWAP3 SWAP2 SWAP1 PUSH3 0x124D JUMP JUMPDEST PUSH1 0x40 MLOAD PUSH1 0x20 DUP2 DUP4 SUB SUB DUP2 MSTORE SWAP1 PUSH1 0x40 MSTORE PUSH1 0x40 MLOAD PUSH32 0x8C379A000000000000000000000000000000000000000000000000000000000 DUP2 MSTORE PUSH1 0x4 ADD PUSH3 0x4AE SWAP2 SWAP1 PUSH3 0x12E1 JUMP JUMPDEST PUSH1 0x40 MLOAD DUP1 SWAP2 SUB SWAP1 REVERT JUMPDEST POP POP JUMP JUMPDEST PUSH3 0x4CD DUP3 DUP3 PUSH3 0x5AD PUSH1 0x20 SHL PUSH1 0x20 SHR JUMP JUMPDEST PUSH3 0x5A9 JUMPI PUSH1 0x1 PUSH1 0x7 PUSH1 0x0 DUP5 DUP2 MSTORE PUSH1 0x20 ADD SWAP1 DUP2 MSTORE PUSH1 0x20 ADD PUSH1 0x0 KECCAK256 PUSH1 0x0 ADD PUSH1 0x0 DUP4 PUSH20 0xFFFFFFFFFFFFFFFFFFFFFFFFFFFFFFFFFFFFFFFF AND PUSH20 0xFFFFFFFFFFFFFFFFFFFFFFFFFFFFFFFFFFFFFFFF AND DUP2 MSTORE PUSH1 0x20 ADD SWAP1 DUP2 MSTORE PUSH1 0x20 ADD PUSH1 0x0 KECCAK256 PUSH1 0x0 PUSH2 0x100 EXP DUP2 SLOAD DUP2 PUSH1 0xFF MUL NOT AND SWAP1 DUP4 ISZERO ISZERO MUL OR SWAP1 SSTORE POP PUSH3 0x54E PUSH3 0x238 PUSH1 0x20 SHL PUSH1 0x20 SHR JUMP JUMPDEST PUSH20 0xFFFFFFFFFFFFFFFFFFFFFFFFFFFFFFFFFFFFFFFF AND DUP2 PUSH20 0xFFFFFFFFFFFFFFFFFFFFFFFFFFFFFFFFFFFFFFFF AND DUP4 PUSH32 0x2F8788117E7EFF1D82E926EC794901D17C78024A50270940304540A733656F0D PUSH1 0x40 MLOAD PUSH1 0x40 MLOAD DUP1 SWAP2 SUB SWAP1 LOG4 JUMPDEST POP POP JUMP JUMPDEST PUSH1 0x0 PUSH1 0x7 PUSH1 0x0 DUP5 DUP2 MSTORE PUSH1 0x20 ADD SWAP1 DUP2 MSTORE PUSH1 0x20 ADD PUSH1 0x0 KECCAK256 PUSH1 0x0 ADD PUSH1 0x0 DUP4 PUSH20 0xFFFFFFFFFFFFFFFFFFFFFFFFFFFFFFFFFFFFFFFF AND PUSH20 0xFFFFFFFFFFFFFFFFFFFFFFFFFFFFFFFFFFFFFFFF AND DUP2 MSTORE PUSH1 0x20 ADD SWAP1 DUP2 MSTORE PUSH1 0x20 ADD PUSH1 0x0 KECCAK256 PUSH1 0x0 SWAP1 SLOAD SWAP1 PUSH2 0x100 EXP SWAP1 DIV PUSH1 0xFF AND SWAP1 POP SWAP3 SWAP2 POP POP JUMP JUMPDEST PUSH1 0x60 PUSH1 0x0 PUSH1 0x2 DUP4 PUSH1 0x2 PUSH3 0x62D SWAP2 SWAP1 PUSH3 0x10B9 JUMP JUMPDEST PUSH3 0x639 SWAP2 SWAP1 PUSH3 0x1305 JUMP JUMPDEST PUSH8 0xFFFFFFFFFFFFFFFF DUP2 GT ISZERO PUSH3 0x655 JUMPI PUSH3 0x654 PUSH3 0x93D JUMP JUMPDEST JUMPDEST PUSH1 0x40 MLOAD SWAP1 DUP1 DUP3 MSTORE DUP1 PUSH1 0x1F ADD PUSH1 0x1F NOT AND PUSH1 0x20 ADD DUP3 ADD PUSH1 0x40 MSTORE DUP1 ISZERO PUSH3 0x688 JUMPI DUP2 PUSH1 0x20 ADD PUSH1 0x1 DUP3 MUL DUP1 CALLDATASIZE DUP4 CALLDATACOPY DUP1 DUP3 ADD SWAP2 POP POP SWAP1 POP JUMPDEST POP SWAP1 POP PUSH32 0x3000000000000000000000000000000000000000000000000000000000000000 DUP2 PUSH1 0x0 DUP2 MLOAD DUP2 LT PUSH3 0x6C3 JUMPI PUSH3 0x6C2 PUSH3 0xCDC JUMP JUMPDEST JUMPDEST PUSH1 0x20 ADD ADD SWAP1 PUSH31 0xFFFFFFFFFFFFFFFFFFFFFFFFFFFFFFFFFFFFFFFFFFFFFFFFFFFFFFFFFFFFFF NOT AND SWAP1 DUP2 PUSH1 0x0 BYTE SWAP1 MSTORE8 POP PUSH32 0x7800000000000000000000000000000000000000000000000000000000000000 DUP2 PUSH1 0x1 DUP2 MLOAD DUP2 LT PUSH3 0x72A JUMPI PUSH3 0x729 PUSH3 0xCDC JUMP JUMPDEST JUMPDEST PUSH1 0x20 ADD ADD SWAP1 PUSH31 0xFFFFFFFFFFFFFFFFFFFFFFFFFFFFFFFFFFFFFFFFFFFFFFFFFFFFFFFFFFFFFF NOT AND SWAP1 DUP2 PUSH1 0x0 BYTE SWAP1 MSTORE8 POP PUSH1 0x0 PUSH1 0x1 DUP5 PUSH1 0x2 PUSH3 0x76C SWAP2 SWAP1 PUSH3 0x10B9 JUMP JUMPDEST PUSH3 0x778 SWAP2 SWAP1 PUSH3 0x1305 JUMP JUMPDEST SWAP1 POP JUMPDEST PUSH1 0x1 DUP2 GT ISZERO PUSH3 0x822 JUMPI PUSH32 0x3031323334353637383961626364656600000000000000000000000000000000 PUSH1 0xF DUP7 AND PUSH1 0x10 DUP2 LT PUSH3 0x7BE JUMPI PUSH3 0x7BD PUSH3 0xCDC JUMP JUMPDEST JUMPDEST BYTE PUSH1 0xF8 SHL DUP3 DUP3 DUP2 MLOAD DUP2 LT PUSH3 0x7D8 JUMPI PUSH3 0x7D7 PUSH3 0xCDC JUMP JUMPDEST JUMPDEST PUSH1 0x20 ADD ADD SWAP1 PUSH31 0xFFFFFFFFFFFFFFFFFFFFFFFFFFFFFFFFFFFFFFFFFFFFFFFFFFFFFFFFFFFFFF NOT AND SWAP1 DUP2 PUSH1 0x0 BYTE SWAP1 MSTORE8 POP PUSH1 0x4 DUP6 SWAP1 SHR SWAP5 POP DUP1 PUSH3 0x81A SWAP1 PUSH3 0x1340 JUMP JUMPDEST SWAP1 POP PUSH3 0x77B JUMP JUMPDEST POP PUSH1 0x0 DUP5 EQ PUSH3 0x869 JUMPI PUSH1 0x40 MLOAD PUSH32 0x8C379A000000000000000000000000000000000000000000000000000000000 DUP2 MSTORE PUSH1 0x4 ADD PUSH3 0x860 SWAP1 PUSH3 0x13BE JUMP JUMPDEST PUSH1 0x40 MLOAD DUP1 SWAP2 SUB SWAP1 REVERT JUMPDEST DUP1 SWAP2 POP POP SWAP3 SWAP2 POP POP JUMP JUMPDEST PUSH1 0x0 PUSH1 0x40 MLOAD SWAP1 POP SWAP1 JUMP JUMPDEST PUSH1 0x0 DUP1 REVERT JUMPDEST PUSH1 0x0 DUP1 REVERT JUMPDEST PUSH1 0x0 PUSH20 0xFFFFFFFFFFFFFFFFFFFFFFFFFFFFFFFFFFFFFFFF DUP3 AND SWAP1 POP SWAP2 SWAP1 POP JUMP JUMPDEST PUSH1 0x0 PUSH3 0x8B4 DUP3 PUSH3 0x887 JUMP JUMPDEST SWAP1 POP SWAP2 SWAP1 POP JUMP JUMPDEST PUSH3 0x8C6 DUP2 PUSH3 0x8A7 JUMP JUMPDEST DUP2 EQ PUSH3 0x8D2 JUMPI PUSH1 0x0 DUP1 REVERT JUMPDEST POP JUMP JUMPDEST PUSH1 0x0 DUP2 MLOAD SWAP1 POP PUSH3 0x8E6 DUP2 PUSH3 0x8BB JUMP JUMPDEST SWAP3 SWAP2 POP POP JUMP JUMPDEST PUSH1 0x0 DUP2 SWAP1 POP SWAP2 SWAP1 POP JUMP JUMPDEST PUSH3 0x901 DUP2 PUSH3 0x8EC JUMP JUMPDEST DUP2 EQ PUSH3 0x90D JUMPI PUSH1 0x0 DUP1 REVERT JUMPDEST POP JUMP JUMPDEST PUSH1 0x0 DUP2 MLOAD SWAP1 POP PUSH3 0x921 DUP2 PUSH3 0x8F6 JUMP JUMPDEST SWAP3 SWAP2 POP POP JUMP JUMPDEST PUSH1 0x0 DUP1 REVERT JUMPDEST PUSH1 0x0 PUSH1 0x1F NOT PUSH1 0x1F DUP4 ADD AND SWAP1 POP SWAP2 SWAP1 POP JUMP JUMPDEST PUSH32 0x4E487B7100000000000000000000000000000000000000000000000000000000 PUSH1 0x0 MSTORE PUSH1 0x41 PUSH1 0x4 MSTORE PUSH1 0x24 PUSH1 0x0 REVERT JUMPDEST PUSH3 0x977 DUP3 PUSH3 0x92C JUMP JUMPDEST DUP2 ADD DUP2 DUP2 LT PUSH8 0xFFFFFFFFFFFFFFFF DUP3 GT OR ISZERO PUSH3 0x999 JUMPI PUSH3 0x998 PUSH3 0x93D JUMP JUMPDEST JUMPDEST DUP1 PUSH1 0x40 MSTORE POP POP POP JUMP JUMPDEST PUSH1 0x0 PUSH3 0x9AE PUSH3 0x873 JUMP JUMPDEST SWAP1 POP PUSH3 0x9BC DUP3 DUP3 PUSH3 0x96C JUMP JUMPDEST SWAP2 SWAP1 POP JUMP JUMPDEST PUSH1 0x0 PUSH8 0xFFFFFFFFFFFFFFFF DUP3 GT ISZERO PUSH3 0x9DF JUMPI PUSH3 0x9DE PUSH3 0x93D JUMP JUMPDEST JUMPDEST PUSH1 0x20 DUP3 MUL SWAP1 POP PUSH1 0x20 DUP2 ADD SWAP1 POP SWAP2 SWAP1 POP JUMP JUMPDEST PUSH1 0x0 DUP1 REVERT JUMPDEST PUSH1 0x0 PUSH3 0xA0C PUSH3 0xA06 DUP5 PUSH3 0x9C1 JUMP JUMPDEST PUSH3 0x9A2 JUMP JUMPDEST SWAP1 POP DUP1 DUP4 DUP3 MSTORE PUSH1 0x20 DUP3 ADD SWAP1 POP PUSH1 0x20 DUP5 MUL DUP4 ADD DUP6 DUP2 GT ISZERO PUSH3 0xA32 JUMPI PUSH3 0xA31 PUSH3 0x9F0 JUMP JUMPDEST JUMPDEST DUP4 JUMPDEST DUP2 DUP2 LT ISZERO PUSH3 0xA5F JUMPI DUP1 PUSH3 0xA4A DUP9 DUP3 PUSH3 0x8D5 JUMP JUMPDEST DUP5 MSTORE PUSH1 0x20 DUP5 ADD SWAP4 POP POP PUSH1 0x20 DUP2 ADD SWAP1 POP PUSH3 0xA34 JUMP JUMPDEST POP POP POP SWAP4 SWAP3 POP POP POP JUMP JUMPDEST PUSH1 0x0 DUP3 PUSH1 0x1F DUP4 ADD SLT PUSH3 0xA81 JUMPI PUSH3 0xA80 PUSH3 0x927 JUMP JUMPDEST JUMPDEST DUP2 MLOAD PUSH3 0xA93 DUP5 DUP3 PUSH1 0x20 DUP7 ADD PUSH3 0x9F5 JUMP JUMPDEST SWAP2 POP POP SWAP3 SWAP2 POP POP JUMP JUMPDEST PUSH1 0x0 DUP1 REVERT JUMPDEST PUSH1 0x0 PUSH8 0xFFFFFFFFFFFFFFFF DUP3 GT ISZERO PUSH3 0xABF JUMPI PUSH3 0xABE PUSH3 0x93D JUMP JUMPDEST JUMPDEST PUSH3 0xACA DUP3 PUSH3 0x92C JUMP JUMPDEST SWAP1 POP PUSH1 0x20 DUP2 ADD SWAP1 POP SWAP2 SWAP1 POP JUMP JUMPDEST PUSH1 0x0 JUMPDEST DUP4 DUP2 LT ISZERO PUSH3 0xAF7 JUMPI DUP1 DUP3 ADD MLOAD DUP2 DUP5 ADD MSTORE PUSH1 0x20 DUP2 ADD SWAP1 POP PUSH3 0xADA JUMP JUMPDEST PUSH1 0x0 DUP5 DUP5 ADD MSTORE POP POP POP POP JUMP JUMPDEST PUSH1 0x0 PUSH3 0xB1A PUSH3 0xB14 DUP5 PUSH3 0xAA1 JUMP JUMPDEST PUSH3 0x9A2 JUMP JUMPDEST SWAP1 POP DUP3 DUP2 MSTORE PUSH1 0x20 DUP2 ADD DUP5 DUP5 DUP5 ADD GT ISZERO PUSH3 0xB39 JUMPI PUSH3 0xB38 PUSH3 0xA9C JUMP JUMPDEST JUMPDEST PUSH3 0xB46 DUP5 DUP3 DUP6 PUSH3 0xAD7 JUMP JUMPDEST POP SWAP4 SWAP3 POP POP POP JUMP JUMPDEST PUSH1 0x0 DUP3 PUSH1 0x1F DUP4 ADD SLT PUSH3 0xB66 JUMPI PUSH3 0xB65 PUSH3 0x927 JUMP JUMPDEST JUMPDEST DUP2 MLOAD PUSH3 0xB78 DUP5 DUP3 PUSH1 0x20 DUP7 ADD PUSH3 0xB03 JUMP JUMPDEST SWAP2 POP POP SWAP3 SWAP2 POP POP JUMP JUMPDEST PUSH1 0x0 DUP1 PUSH1 0x0 DUP1 PUSH1 0x0 DUP1 PUSH1 0x0 DUP1 PUSH1 0x0 PUSH2 0x120 DUP11 DUP13 SUB SLT ISZERO PUSH3 0xBA7 JUMPI PUSH3 0xBA6 PUSH3 0x87D JUMP JUMPDEST JUMPDEST PUSH1 0x0 PUSH3 0xBB7 DUP13 DUP3 DUP14 ADD PUSH3 0x8D5 JUMP JUMPDEST SWAP10 POP POP PUSH1 0x20 PUSH3 0xBCA DUP13 DUP3 DUP14 ADD PUSH3 0x8D5 JUMP JUMPDEST SWAP9 POP POP PUSH1 0x40 PUSH3 0xBDD DUP13 DUP3 DUP14 ADD PUSH3 0x910 JUMP JUMPDEST SWAP8 POP POP PUSH1 0x60 PUSH3 0xBF0 DUP13 DUP3 DUP14 ADD PUSH3 0x8D5 JUMP JUMPDEST SWAP7 POP POP PUSH1 0x80 PUSH3 0xC03 DUP13 DUP3 DUP14 ADD PUSH3 0x8D5 JUMP JUMPDEST SWAP6 POP POP PUSH1 0xA0 DUP11 ADD MLOAD PUSH8 0xFFFFFFFFFFFFFFFF DUP2 GT ISZERO PUSH3 0xC27 JUMPI PUSH3 0xC26 PUSH3 0x882 JUMP JUMPDEST JUMPDEST PUSH3 0xC35 DUP13 DUP3 DUP14 ADD PUSH3 0xA69 JUMP JUMPDEST SWAP5 POP POP PUSH1 0xC0 DUP11 ADD MLOAD PUSH8 0xFFFFFFFFFFFFFFFF DUP2 GT ISZERO PUSH3 0xC59 JUMPI PUSH3 0xC58 PUSH3 0x882 JUMP JUMPDEST JUMPDEST PUSH3 0xC67 DUP13 DUP3 DUP14 ADD PUSH3 0xA69 JUMP JUMPDEST SWAP4 POP POP PUSH1 0xE0 DUP11 ADD MLOAD PUSH8 0xFFFFFFFFFFFFFFFF DUP2 GT ISZERO PUSH3 0xC8B JUMPI PUSH3 0xC8A PUSH3 0x882 JUMP JUMPDEST JUMPDEST PUSH3 0xC99 DUP13 DUP3 DUP14 ADD PUSH3 0xB4E JUMP JUMPDEST SWAP3 POP POP PUSH2 0x100 DUP11 ADD MLOAD PUSH8 0xFFFFFFFFFFFFFFFF DUP2 GT ISZERO PUSH3 0xCBE JUMPI PUSH3 0xCBD PUSH3 0x882 JUMP JUMPDEST JUMPDEST PUSH3 0xCCC DUP13 DUP3 DUP14 ADD PUSH3 0xB4E JUMP JUMPDEST SWAP2 POP POP SWAP3 SWAP6 SWAP9 POP SWAP3 SWAP6 SWAP9 POP SWAP3 SWAP6 SWAP9 JUMP JUMPDEST PUSH32 0x4E487B7100000000000000000000000000000000000000000000000000000000 PUSH1 0x0 MSTORE PUSH1 0x32 PUSH1 0x4 MSTORE PUSH1 0x24 PUSH1 0x0 REVERT JUMPDEST PUSH32 0x4E487B7100000000000000000000000000000000000000000000000000000000 PUSH1 0x0 MSTORE PUSH1 0x11 PUSH1 0x4 MSTORE PUSH1 0x24 PUSH1 0x0 REVERT JUMPDEST PUSH1 0x0 DUP2 SWAP1 POP SWAP2 SWAP1 POP JUMP JUMPDEST PUSH1 0x0 PUSH3 0xD51 DUP3 PUSH3 0xD3A JUMP JUMPDEST SWAP2 POP PUSH32 0xFFFFFFFFFFFFFFFFFFFFFFFFFFFFFFFFFFFFFFFFFFFFFFFFFFFFFFFFFFFFFFFF DUP3 SUB PUSH3 0xD86 JUMPI PUSH3 0xD85 PUSH3 0xD0B JUMP JUMPDEST JUMPDEST PUSH1 0x1 DUP3 ADD SWAP1 POP SWAP2 SWAP1 POP JUMP JUMPDEST PUSH1 0x0 DUP2 MLOAD SWAP1 POP SWAP2 SWAP1 POP JUMP JUMPDEST PUSH32 0x4E487B7100000000000000000000000000000000000000000000000000000000 PUSH1 0x0 MSTORE PUSH1 0x22 PUSH1 0x4 MSTORE PUSH1 0x24 PUSH1 0x0 REVERT JUMPDEST PUSH1 0x0 PUSH1 0x2 DUP3 DIV SWAP1 POP PUSH1 0x1 DUP3 AND DUP1 PUSH3 0xDE4 JUMPI PUSH1 0x7F DUP3 AND SWAP2 POP JUMPDEST PUSH1 0x20 DUP3 LT DUP2 SUB PUSH3 0xDFA JUMPI PUSH3 0xDF9 PUSH3 0xD9C JUMP JUMPDEST JUMPDEST POP SWAP2 SWAP1 POP JUMP JUMPDEST PUSH1 0x0 DUP2 SWAP1 POP DUP2 PUSH1 0x0 MSTORE PUSH1 0x20 PUSH1 0x0 KECCAK256 SWAP1 POP SWAP2 SWAP1 POP JUMP JUMPDEST PUSH1 0x0 PUSH1 0x20 PUSH1 0x1F DUP4 ADD DIV SWAP1 POP SWAP2 SWAP1 POP JUMP JUMPDEST PUSH1 0x0 DUP3 DUP3 SHL SWAP1 POP SWAP3 SWAP2 POP POP JUMP JUMPDEST PUSH1 0x0 PUSH1 0x8 DUP4 MUL PUSH3 0xE64 PUSH32 0xFFFFFFFFFFFFFFFFFFFFFFFFFFFFFFFFFFFFFFFFFFFFFFFFFFFFFFFFFFFFFFFF DUP3 PUSH3 0xE25 JUMP JUMPDEST PUSH3 0xE70 DUP7 DUP4 PUSH3 0xE25 JUMP JUMPDEST SWAP6 POP DUP1 NOT DUP5 AND SWAP4 POP DUP1 DUP7 AND DUP5 OR SWAP3 POP POP POP SWAP4 SWAP3 POP POP POP JUMP JUMPDEST PUSH1 0x0 DUP2 SWAP1 POP SWAP2 SWAP1 POP JUMP JUMPDEST PUSH1 0x0 PUSH3 0xEB3 PUSH3 0xEAD PUSH3 0xEA7 DUP5 PUSH3 0xD3A JUMP JUMPDEST PUSH3 0xE88 JUMP JUMPDEST PUSH3 0xD3A JUMP JUMPDEST SWAP1 POP SWAP2 SWAP1 POP JUMP JUMPDEST PUSH1 0x0 DUP2 SWAP1 POP SWAP2 SWAP1 POP JUMP JUMPDEST PUSH3 0xECF DUP4 PUSH3 0xE92 JUMP JUMPDEST PUSH3 0xEE7 PUSH3 0xEDE DUP3 PUSH3 0xEBA JUMP JUMPDEST DUP5 DUP5 SLOAD PUSH3 0xE32 JUMP JUMPDEST DUP3 SSTORE POP POP POP POP JUMP JUMPDEST PUSH1 0x0 SWAP1 JUMP JUMPDEST PUSH3 0xEFE PUSH3 0xEEF JUMP JUMPDEST PUSH3 0xF0B DUP2 DUP5 DUP5 PUSH3 0xEC4 JUMP JUMPDEST POP POP POP JUMP JUMPDEST JUMPDEST DUP2 DUP2 LT ISZERO PUSH3 0xF33 JUMPI PUSH3 0xF27 PUSH1 0x0 DUP3 PUSH3 0xEF4 JUMP JUMPDEST PUSH1 0x1 DUP2 ADD SWAP1 POP PUSH3 0xF11 JUMP JUMPDEST POP POP JUMP JUMPDEST PUSH1 0x1F DUP3 GT ISZERO PUSH3 0xF82 JUMPI PUSH3 0xF4C DUP2 PUSH3 0xE00 JUMP JUMPDEST PUSH3 0xF57 DUP5 PUSH3 0xE15 JUMP JUMPDEST DUP2 ADD PUSH1 0x20 DUP6 LT ISZERO PUSH3 0xF67 JUMPI DUP2 SWAP1 POP JUMPDEST PUSH3 0xF7F PUSH3 0xF76 DUP6 PUSH3 0xE15 JUMP JUMPDEST DUP4 ADD DUP3 PUSH3 0xF10 JUMP JUMPDEST POP POP JUMPDEST POP POP POP JUMP JUMPDEST PUSH1 0x0 DUP3 DUP3 SHR SWAP1 POP SWAP3 SWAP2 POP POP JUMP JUMPDEST PUSH1 0x0 PUSH3 0xFA7 PUSH1 0x0 NOT DUP5 PUSH1 0x8 MUL PUSH3 0xF87 JUMP JUMPDEST NOT DUP1 DUP4 AND SWAP2 POP POP SWAP3 SWAP2 POP POP JUMP JUMPDEST PUSH1 0x0 PUSH3 0xFC2 DUP4 DUP4 PUSH3 0xF94 JUMP JUMPDEST SWAP2 POP DUP3 PUSH1 0x2 MUL DUP3 OR SWAP1 POP SWAP3 SWAP2 POP POP JUMP JUMPDEST PUSH3 0xFDD DUP3 PUSH3 0xD91 JUMP JUMPDEST PUSH8 0xFFFFFFFFFFFFFFFF DUP2 GT ISZERO PUSH3 0xFF9 JUMPI PUSH3 0xFF8 PUSH3 0x93D JUMP JUMPDEST JUMPDEST PUSH3 0x1005 DUP3 SLOAD PUSH3 0xDCB JUMP JUMPDEST PUSH3 0x1012 DUP3 DUP3 DUP6 PUSH3 0xF37 JUMP JUMPDEST PUSH1 0x0 PUSH1 0x20 SWAP1 POP PUSH1 0x1F DUP4 GT PUSH1 0x1 DUP2 EQ PUSH3 0x104A JUMPI PUSH1 0x0 DUP5 ISZERO PUSH3 0x1035 JUMPI DUP3 DUP8 ADD MLOAD SWAP1 POP JUMPDEST PUSH3 0x1041 DUP6 DUP3 PUSH3 0xFB4 JUMP JUMPDEST DUP7 SSTORE POP PUSH3 0x10B1 JUMP JUMPDEST PUSH1 0x1F NOT DUP5 AND PUSH3 0x105A DUP7 PUSH3 0xE00 JUMP JUMPDEST PUSH1 0x0 JUMPDEST DUP3 DUP2 LT ISZERO PUSH3 0x1084 JUMPI DUP5 DUP10 ADD MLOAD DUP3 SSTORE PUSH1 0x1 DUP3 ADD SWAP2 POP PUSH1 0x20 DUP6 ADD SWAP5 POP PUSH1 0x20 DUP2 ADD SWAP1 POP PUSH3 0x105D JUMP JUMPDEST DUP7 DUP4 LT ISZERO PUSH3 0x10A4 JUMPI DUP5 DUP10 ADD MLOAD PUSH3 0x10A0 PUSH1 0x1F DUP10 AND DUP3 PUSH3 0xF94 JUMP JUMPDEST DUP4 SSTORE POP JUMPDEST PUSH1 0x1 PUSH1 0x2 DUP9 MUL ADD DUP9 SSTORE POP POP POP JUMPDEST POP POP POP POP POP POP JUMP JUMPDEST PUSH1 0x0 PUSH3 0x10C6 DUP3 PUSH3 0xD3A JUMP JUMPDEST SWAP2 POP PUSH3 0x10D3 DUP4 PUSH3 0xD3A JUMP JUMPDEST SWAP3 POP DUP3 DUP3 MUL PUSH3 0x10E3 DUP2 PUSH3 0xD3A JUMP JUMPDEST SWAP2 POP DUP3 DUP3 DIV DUP5 EQ DUP4 ISZERO OR PUSH3 0x10FD JUMPI PUSH3 0x10FC PUSH3 0xD0B JUMP JUMPDEST JUMPDEST POP SWAP3 SWAP2 POP POP JUMP JUMPDEST PUSH32 0x4E487B7100000000000000000000000000000000000000000000000000000000 PUSH1 0x0 MSTORE PUSH1 0x12 PUSH1 0x4 MSTORE PUSH1 0x24 PUSH1 0x0 REVERT JUMPDEST PUSH1 0x0 PUSH3 0x1140 DUP3 PUSH3 0xD3A JUMP JUMPDEST SWAP2 POP PUSH3 0x114D DUP4 PUSH3 0xD3A JUMP JUMPDEST SWAP3 POP DUP3 PUSH3 0x1160 JUMPI PUSH3 0x115F PUSH3 0x1104 JUMP JUMPDEST JUMPDEST DUP3 DUP3 DIV SWAP1 POP SWAP3 SWAP2 POP POP JUMP JUMPDEST PUSH1 0x0 DUP2 SWAP1 POP SWAP3 SWAP2 POP POP JUMP JUMPDEST PUSH32 0x416363657373436F6E74726F6C3A206163636F756E7420000000000000000000 PUSH1 0x0 DUP3 ADD MSTORE POP JUMP JUMPDEST PUSH1 0x0 PUSH3 0x11AE PUSH1 0x17 DUP4 PUSH3 0x116B JUMP JUMPDEST SWAP2 POP PUSH3 0x11BB DUP3 PUSH3 0x1176 JUMP JUMPDEST PUSH1 0x17 DUP3 ADD SWAP1 POP SWAP2 SWAP1 POP JUMP JUMPDEST PUSH1 0x0 PUSH3 0x11D3 DUP3 PUSH3 0xD91 JUMP JUMPDEST PUSH3 0x11DF DUP2 DUP6 PUSH3 0x116B JUMP JUMPDEST SWAP4 POP PUSH3 0x11F1 DUP2 DUP6 PUSH1 0x20 DUP7 ADD PUSH3 0xAD7 JUMP JUMPDEST DUP1 DUP5 ADD SWAP2 POP POP SWAP3 SWAP2 POP POP JUMP JUMPDEST PUSH32 0x206973206D697373696E6720726F6C6520000000000000000000000000000000 PUSH1 0x0 DUP3 ADD MSTORE POP JUMP JUMPDEST PUSH1 0x0 PUSH3 0x1235 PUSH1 0x11 DUP4 PUSH3 0x116B JUMP JUMPDEST SWAP2 POP PUSH3 0x1242 DUP3 PUSH3 0x11FD JUMP JUMPDEST PUSH1 0x11 DUP3 ADD SWAP1 POP SWAP2 SWAP1 POP JUMP JUMPDEST PUSH1 0x0 PUSH3 0x125A DUP3 PUSH3 0x119F JUMP JUMPDEST SWAP2 POP PUSH3 0x1268 DUP3 DUP6 PUSH3 0x11C6 JUMP JUMPDEST SWAP2 POP PUSH3 0x1275 DUP3 PUSH3 0x1226 JUMP JUMPDEST SWAP2 POP PUSH3 0x1283 DUP3 DUP5 PUSH3 0x11C6 JUMP JUMPDEST SWAP2 POP DUP2 SWAP1 POP SWAP4 SWAP3 POP POP POP JUMP JUMPDEST PUSH1 0x0 DUP3 DUP3 MSTORE PUSH1 0x20 DUP3 ADD SWAP1 POP SWAP3 SWAP2 POP POP JUMP JUMPDEST PUSH1 0x0 PUSH3 0x12AD DUP3 PUSH3 0xD91 JUMP JUMPDEST PUSH3 0x12B9 DUP2 DUP6 PUSH3 0x128F JUMP JUMPDEST SWAP4 POP PUSH3 0x12CB DUP2 DUP6 PUSH1 0x20 DUP7 ADD PUSH3 0xAD7 JUMP JUMPDEST PUSH3 0x12D6 DUP2 PUSH3 0x92C JUMP JUMPDEST DUP5 ADD SWAP2 POP POP SWAP3 SWAP2 POP POP JUMP JUMPDEST PUSH1 0x0 PUSH1 0x20 DUP3 ADD SWAP1 POP DUP2 DUP2 SUB PUSH1 0x0 DUP4 ADD MSTORE PUSH3 0x12FD DUP2 DUP5 PUSH3 0x12A0 JUMP JUMPDEST SWAP1 POP SWAP3 SWAP2 POP POP JUMP JUMPDEST PUSH1 0x0 PUSH3 0x1312 DUP3 PUSH3 0xD3A JUMP JUMPDEST SWAP2 POP PUSH3 0x131F DUP4 PUSH3 0xD3A JUMP JUMPDEST SWAP3 POP DUP3 DUP3 ADD SWAP1 POP DUP1 DUP3 GT ISZERO PUSH3 0x133A JUMPI PUSH3 0x1339 PUSH3 0xD0B JUMP JUMPDEST JUMPDEST SWAP3 SWAP2 POP POP JUMP JUMPDEST PUSH1 0x0 PUSH3 0x134D DUP3 PUSH3 0xD3A JUMP JUMPDEST SWAP2 POP PUSH1 0x0 DUP3 SUB PUSH3 0x1363 JUMPI PUSH3 0x1362 PUSH3 0xD0B JUMP JUMPDEST JUMPDEST PUSH1 0x1 DUP3 SUB SWAP1 POP SWAP2 SWAP1 POP JUMP JUMPDEST PUSH32 0x537472696E67733A20686578206C656E67746820696E73756666696369656E74 PUSH1 0x0 DUP3 ADD MSTORE POP JUMP JUMPDEST PUSH1 0x0 PUSH3 0x13A6 PUSH1 0x20 DUP4 PUSH3 0x128F JUMP JUMPDEST SWAP2 POP PUSH3 0x13B3 DUP3 PUSH3 0x136E JUMP JUMPDEST PUSH1 0x20 DUP3 ADD SWAP1 POP SWAP2 SWAP1 POP JUMP JUMPDEST PUSH1 0x0 PUSH1 0x20 DUP3 ADD SWAP1 POP DUP2 DUP2 SUB PUSH1 0x0 DUP4 ADD MSTORE PUSH3 0x13D9 DUP2 PUSH3 0x1397 JUMP JUMPDEST SWAP1 POP SWAP2 SWAP1 POP JUMP JUMPDEST PUSH2 0x4CFA DUP1 PUSH3 0x13F0 PUSH1 0x0 CODECOPY PUSH1 0x0 RETURN INVALID PUSH1 0x80 PUSH1 0x40 MSTORE PUSH1 0x4 CALLDATASIZE LT PUSH2 0x1C2 JUMPI PUSH1 0x0 CALLDATALOAD PUSH1 0xE0 SHR DUP1 PUSH4 0x8B4AC639 GT PUSH2 0xF7 JUMPI DUP1 PUSH4 0xA5C86B77 GT PUSH2 0x95 JUMPI DUP1 PUSH4 0xD547741F GT PUSH2 0x64 JUMPI DUP1 PUSH4 0xD547741F EQ PUSH2 0x62B JUMPI DUP1 PUSH4 0xE932406F EQ PUSH2 0x654 JUMPI DUP1 PUSH4 0xF08E362F EQ PUSH2 0x67F JUMPI DUP1 PUSH4 0xF2FDE38B EQ PUSH2 0x69B JUMPI PUSH2 0x1C2 JUMP JUMPDEST DUP1 PUSH4 0xA5C86B77 EQ PUSH2 0x583 JUMPI DUP1 PUSH4 0xAFCC4AD5 EQ PUSH2 0x5AC JUMPI DUP1 PUSH4 0xB3DB9F1A EQ PUSH2 0x5D7 JUMPI DUP1 PUSH4 0xBFD5C6DF EQ PUSH2 0x602 JUMPI PUSH2 0x1C2 JUMP JUMPDEST DUP1 PUSH4 0x91D14854 GT PUSH2 0xD1 JUMPI DUP1 PUSH4 0x91D14854 EQ PUSH2 0x4D6 JUMPI DUP1 PUSH4 0xA063E9FB EQ PUSH2 0x513 JUMPI DUP1 PUSH4 0xA0949595 EQ PUSH2 0x52F JUMPI DUP1 PUSH4 0xA217FDDF EQ PUSH2 0x558 JUMPI PUSH2 0x1C2 JUMP JUMPDEST DUP1 PUSH4 0x8B4AC639 EQ PUSH2 0x459 JUMPI DUP1 PUSH4 0x8DA5CB5B EQ PUSH2 0x482 JUMPI DUP1 PUSH4 0x8F83AB13 EQ PUSH2 0x4AD JUMPI PUSH2 0x1C2 JUMP JUMPDEST DUP1 PUSH4 0x4357855E GT PUSH2 0x164 JUMPI DUP1 PUSH4 0x55FB9D08 GT PUSH2 0x13E JUMPI DUP1 PUSH4 0x55FB9D08 EQ PUSH2 0x3C3 JUMPI DUP1 PUSH4 0x715018A6 EQ PUSH2 0x400 JUMPI DUP1 PUSH4 0x75B238FC EQ PUSH2 0x417 JUMPI DUP1 PUSH4 0x7D807730 EQ PUSH2 0x442 JUMPI PUSH2 0x1C2 JUMP JUMPDEST DUP1 PUSH4 0x4357855E EQ PUSH2 0x346 JUMPI DUP1 PUSH4 0x4D1975B4 EQ PUSH2 0x36F JUMPI DUP1 PUSH4 0x4ECA519F EQ PUSH2 0x39A JUMPI PUSH2 0x1C2 JUMP JUMPDEST DUP1 PUSH4 0x248A9CA3 GT PUSH2 0x1A0 JUMPI DUP1 PUSH4 0x248A9CA3 EQ PUSH2 0x274 JUMPI DUP1 PUSH4 0x2F2FF15D EQ PUSH2 0x2B1 JUMPI DUP1 PUSH4 0x36568ABE EQ PUSH2 0x2DA JUMPI DUP1 PUSH4 0x3B6E6F1B EQ PUSH2 0x303 JUMPI PUSH2 0x1C2 JUMP JUMPDEST DUP1 PUSH4 0x1FFC9A7 EQ PUSH2 0x1C7 JUMPI DUP1 PUSH4 0x117A5B90 EQ PUSH2 0x204 JUMPI DUP1 PUSH4 0x2483E715 EQ PUSH2 0x249 JUMPI JUMPDEST PUSH1 0x0 DUP1 REVERT JUMPDEST CALLVALUE DUP1 ISZERO PUSH2 0x1D3 JUMPI PUSH1 0x0 DUP1 REVERT JUMPDEST POP PUSH2 0x1EE PUSH1 0x4 DUP1 CALLDATASIZE SUB DUP2 ADD SWAP1 PUSH2 0x1E9 SWAP2 SWAP1 PUSH2 0x32D6 JUMP JUMPDEST PUSH2 0x6C4 JUMP JUMPDEST PUSH1 0x40 MLOAD PUSH2 0x1FB SWAP2 SWAP1 PUSH2 0x331E JUMP JUMPDEST PUSH1 0x40 MLOAD DUP1 SWAP2 SUB SWAP1 RETURN JUMPDEST CALLVALUE DUP1 ISZERO PUSH2 0x210 JUMPI PUSH1 0x0 DUP1 REVERT JUMPDEST POP PUSH2 0x22B PUSH1 0x4 DUP1 CALLDATASIZE SUB DUP2 ADD SWAP1 PUSH2 0x226 SWAP2 SWAP1 PUSH2 0x336F JUMP JUMPDEST PUSH2 0x73E JUMP JUMPDEST PUSH1 0x40 MLOAD PUSH2 0x240 SWAP10 SWAP9 SWAP8 SWAP7 SWAP6 SWAP5 SWAP4 SWAP3 SWAP2 SWAP1 PUSH2 0x343B JUMP JUMPDEST PUSH1 0x40 MLOAD DUP1 SWAP2 SUB SWAP1 RETURN JUMPDEST CALLVALUE DUP1 ISZERO PUSH2 0x255 JUMPI PUSH1 0x0 DUP1 REVERT JUMPDEST POP PUSH2 0x25E PUSH2 0x8A9 JUMP JUMPDEST PUSH1 0x40 MLOAD PUSH2 0x26B SWAP2 SWAP1 PUSH2 0x34EF JUMP JUMPDEST PUSH1 0x40 MLOAD DUP1 SWAP2 SUB SWAP1 RETURN JUMPDEST CALLVALUE DUP1 ISZERO PUSH2 0x280 JUMPI PUSH1 0x0 DUP1 REVERT JUMPDEST POP PUSH2 0x29B PUSH1 0x4 DUP1 CALLDATASIZE SUB DUP2 ADD SWAP1 PUSH2 0x296 SWAP2 SWAP1 PUSH2 0x3536 JUMP JUMPDEST PUSH2 0x8CD JUMP JUMPDEST PUSH1 0x40 MLOAD PUSH2 0x2A8 SWAP2 SWAP1 PUSH2 0x34EF JUMP JUMPDEST PUSH1 0x40 MLOAD DUP1 SWAP2 SUB SWAP1 RETURN JUMPDEST CALLVALUE DUP1 ISZERO PUSH2 0x2BD JUMPI PUSH1 0x0 DUP1 REVERT JUMPDEST POP PUSH2 0x2D8 PUSH1 0x4 DUP1 CALLDATASIZE SUB DUP2 ADD SWAP1 PUSH2 0x2D3 SWAP2 SWAP1 PUSH2 0x35C1 JUMP JUMPDEST PUSH2 0x8ED JUMP JUMPDEST STOP JUMPDEST CALLVALUE DUP1 ISZERO PUSH2 0x2E6 JUMPI PUSH1 0x0 DUP1 REVERT JUMPDEST POP PUSH2 0x301 PUSH1 0x4 DUP1 CALLDATASIZE SUB DUP2 ADD SWAP1 PUSH2 0x2FC SWAP2 SWAP1 PUSH2 0x35C1 JUMP JUMPDEST PUSH2 0x916 JUMP JUMPDEST STOP JUMPDEST CALLVALUE DUP1 ISZERO PUSH2 0x30F JUMPI PUSH1 0x0 DUP1 REVERT JUMPDEST POP PUSH2 0x32A PUSH1 0x4 DUP1 CALLDATASIZE SUB DUP2 ADD SWAP1 PUSH2 0x325 SWAP2 SWAP1 PUSH2 0x3601 JUMP JUMPDEST PUSH2 0x999 JUMP JUMPDEST PUSH1 0x40 MLOAD PUSH2 0x33D SWAP8 SWAP7 SWAP6 SWAP5 SWAP4 SWAP3 SWAP2 SWAP1 PUSH2 0x3650 JUMP JUMPDEST PUSH1 0x40 MLOAD DUP1 SWAP2 SUB SWAP1 RETURN JUMPDEST CALLVALUE DUP1 ISZERO PUSH2 0x352 JUMPI PUSH1 0x0 DUP1 REVERT JUMPDEST POP PUSH2 0x36D PUSH1 0x4 DUP1 CALLDATASIZE SUB DUP2 ADD SWAP1 PUSH2 0x368 SWAP2 SWAP1 PUSH2 0x36BF JUMP JUMPDEST PUSH2 0xA22 JUMP JUMPDEST STOP JUMPDEST CALLVALUE DUP1 ISZERO PUSH2 0x37B JUMPI PUSH1 0x0 DUP1 REVERT JUMPDEST POP PUSH2 0x384 PUSH2 0xB6B JUMP JUMPDEST PUSH1 0x40 MLOAD PUSH2 0x391 SWAP2 SWAP1 PUSH2 0x36FF JUMP JUMPDEST PUSH1 0x40 MLOAD DUP1 SWAP2 SUB SWAP1 RETURN JUMPDEST CALLVALUE DUP1 ISZERO PUSH2 0x3A6 JUMPI PUSH1 0x0 DUP1 REVERT JUMPDEST POP PUSH2 0x3C1 PUSH1 0x4 DUP1 CALLDATASIZE SUB DUP2 ADD SWAP1 PUSH2 0x3BC SWAP2 SWAP1 PUSH2 0x3536 JUMP JUMPDEST PUSH2 0xB71 JUMP JUMPDEST STOP JUMPDEST CALLVALUE DUP1 ISZERO PUSH2 0x3CF JUMPI PUSH1 0x0 DUP1 REVERT JUMPDEST POP PUSH2 0x3EA PUSH1 0x4 DUP1 CALLDATASIZE SUB DUP2 ADD SWAP1 PUSH2 0x3E5 SWAP2 SWAP1 PUSH2 0x336F JUMP JUMPDEST PUSH2 0xC21 JUMP JUMPDEST PUSH1 0x40 MLOAD PUSH2 0x3F7 SWAP2 SWAP1 PUSH2 0x36FF JUMP JUMPDEST PUSH1 0x40 MLOAD DUP1 SWAP2 SUB SWAP1 RETURN JUMPDEST CALLVALUE DUP1 ISZERO PUSH2 0x40C JUMPI PUSH1 0x0 DUP1 REVERT JUMPDEST POP PUSH2 0x415 PUSH2 0xD68 JUMP JUMPDEST STOP JUMPDEST CALLVALUE DUP1 ISZERO PUSH2 0x423 JUMPI PUSH1 0x0 DUP1 REVERT JUMPDEST POP PUSH2 0x42C PUSH2 0xDF0 JUMP JUMPDEST PUSH1 0x40 MLOAD PUSH2 0x439 SWAP2 SWAP1 PUSH2 0x34EF JUMP JUMPDEST PUSH1 0x40 MLOAD DUP1 SWAP2 SUB SWAP1 RETURN JUMPDEST CALLVALUE DUP1 ISZERO PUSH2 0x44E JUMPI PUSH1 0x0 DUP1 REVERT JUMPDEST POP PUSH2 0x457 PUSH2 0xE14 JUMP JUMPDEST STOP JUMPDEST CALLVALUE DUP1 ISZERO PUSH2 0x465 JUMPI PUSH1 0x0 DUP1 REVERT JUMPDEST POP PUSH2 0x480 PUSH1 0x4 DUP1 CALLDATASIZE SUB DUP2 ADD SWAP1 PUSH2 0x47B SWAP2 SWAP1 PUSH2 0x36BF JUMP JUMPDEST PUSH2 0xE7F JUMP JUMPDEST STOP JUMPDEST CALLVALUE DUP1 ISZERO PUSH2 0x48E JUMPI PUSH1 0x0 DUP1 REVERT JUMPDEST POP PUSH2 0x497 PUSH2 0xFC8 JUMP JUMPDEST PUSH1 0x40 MLOAD PUSH2 0x4A4 SWAP2 SWAP1 PUSH2 0x371A JUMP JUMPDEST PUSH1 0x40 MLOAD DUP1 SWAP2 SUB SWAP1 RETURN JUMPDEST CALLVALUE DUP1 ISZERO PUSH2 0x4B9 JUMPI PUSH1 0x0 DUP1 REVERT JUMPDEST POP PUSH2 0x4D4 PUSH1 0x4 DUP1 CALLDATASIZE SUB DUP2 ADD SWAP1 PUSH2 0x4CF SWAP2 SWAP1 PUSH2 0x3735 JUMP JUMPDEST PUSH2 0xFF2 JUMP JUMPDEST STOP JUMPDEST CALLVALUE DUP1 ISZERO PUSH2 0x4E2 JUMPI PUSH1 0x0 DUP1 REVERT JUMPDEST POP PUSH2 0x4FD PUSH1 0x4 DUP1 CALLDATASIZE SUB DUP2 ADD SWAP1 PUSH2 0x4F8 SWAP2 SWAP1 PUSH2 0x35C1 JUMP JUMPDEST PUSH2 0x10C5 JUMP JUMPDEST PUSH1 0x40 MLOAD PUSH2 0x50A SWAP2 SWAP1 PUSH2 0x331E JUMP JUMPDEST PUSH1 0x40 MLOAD DUP1 SWAP2 SUB SWAP1 RETURN JUMPDEST PUSH2 0x52D PUSH1 0x4 DUP1 CALLDATASIZE SUB DUP2 ADD SWAP1 PUSH2 0x528 SWAP2 SWAP1 PUSH2 0x3762 JUMP JUMPDEST PUSH2 0x1130 JUMP JUMPDEST STOP JUMPDEST CALLVALUE DUP1 ISZERO PUSH2 0x53B JUMPI PUSH1 0x0 DUP1 REVERT JUMPDEST POP PUSH2 0x556 PUSH1 0x4 DUP1 CALLDATASIZE SUB DUP2 ADD SWAP1 PUSH2 0x551 SWAP2 SWAP1 PUSH2 0x37C9 JUMP JUMPDEST PUSH2 0x151F JUMP JUMPDEST STOP JUMPDEST CALLVALUE DUP1 ISZERO PUSH2 0x564 JUMPI PUSH1 0x0 DUP1 REVERT JUMPDEST POP PUSH2 0x56D PUSH2 0x1C82 JUMP JUMPDEST PUSH1 0x40 MLOAD PUSH2 0x57A SWAP2 SWAP1 PUSH2 0x34EF JUMP JUMPDEST PUSH1 0x40 MLOAD DUP1 SWAP2 SUB SWAP1 RETURN JUMPDEST CALLVALUE DUP1 ISZERO PUSH2 0x58F JUMPI PUSH1 0x0 DUP1 REVERT JUMPDEST POP PUSH2 0x5AA PUSH1 0x4 DUP1 CALLDATASIZE SUB DUP2 ADD SWAP1 PUSH2 0x5A5 SWAP2 SWAP1 PUSH2 0x3951 JUMP JUMPDEST PUSH2 0x1C89 JUMP JUMPDEST STOP JUMPDEST CALLVALUE DUP1 ISZERO PUSH2 0x5B8 JUMPI PUSH1 0x0 DUP1 REVERT JUMPDEST POP PUSH2 0x5C1 PUSH2 0x1EC9 JUMP JUMPDEST PUSH1 0x40 MLOAD PUSH2 0x5CE SWAP2 SWAP1 PUSH2 0x3A3B JUMP JUMPDEST PUSH1 0x40 MLOAD DUP1 SWAP2 SUB SWAP1 RETURN JUMPDEST CALLVALUE DUP1 ISZERO PUSH2 0x5E3 JUMPI PUSH1 0x0 DUP1 REVERT JUMPDEST POP PUSH2 0x5EC PUSH2 0x1EEF JUMP JUMPDEST PUSH1 0x40 MLOAD PUSH2 0x5F9 SWAP2 SWAP1 PUSH2 0x36FF JUMP JUMPDEST PUSH1 0x40 MLOAD DUP1 SWAP2 SUB SWAP1 RETURN JUMPDEST CALLVALUE DUP1 ISZERO PUSH2 0x60E JUMPI PUSH1 0x0 DUP1 REVERT JUMPDEST POP PUSH2 0x629 PUSH1 0x4 DUP1 CALLDATASIZE SUB DUP2 ADD SWAP1 PUSH2 0x624 SWAP2 SWAP1 PUSH2 0x3A56 JUMP JUMPDEST PUSH2 0x1EF5 JUMP JUMPDEST STOP JUMPDEST CALLVALUE DUP1 ISZERO PUSH2 0x637 JUMPI PUSH1 0x0 DUP1 REVERT JUMPDEST POP PUSH2 0x652 PUSH1 0x4 DUP1 CALLDATASIZE SUB DUP2 ADD SWAP1 PUSH2 0x64D SWAP2 SWAP1 PUSH2 0x35C1 JUMP JUMPDEST PUSH2 0x1FAE JUMP JUMPDEST STOP JUMPDEST CALLVALUE DUP1 ISZERO PUSH2 0x660 JUMPI PUSH1 0x0 DUP1 REVERT JUMPDEST POP PUSH2 0x669 PUSH2 0x1FD7 JUMP JUMPDEST PUSH1 0x40 MLOAD PUSH2 0x676 SWAP2 SWAP1 PUSH2 0x34EF JUMP JUMPDEST PUSH1 0x40 MLOAD DUP1 SWAP2 SUB SWAP1 RETURN JUMPDEST PUSH2 0x699 PUSH1 0x4 DUP1 CALLDATASIZE SUB DUP2 ADD SWAP1 PUSH2 0x694 SWAP2 SWAP1 PUSH2 0x3ADD JUMP JUMPDEST PUSH2 0x1FFB JUMP JUMPDEST STOP JUMPDEST CALLVALUE DUP1 ISZERO PUSH2 0x6A7 JUMPI PUSH1 0x0 DUP1 REVERT JUMPDEST POP PUSH2 0x6C2 PUSH1 0x4 DUP1 CALLDATASIZE SUB DUP2 ADD SWAP1 PUSH2 0x6BD SWAP2 SWAP1 PUSH2 0x3735 JUMP JUMPDEST PUSH2 0x212A JUMP JUMPDEST STOP JUMPDEST PUSH1 0x0 PUSH32 0x7965DB0B00000000000000000000000000000000000000000000000000000000 PUSH28 0xFFFFFFFFFFFFFFFFFFFFFFFFFFFFFFFFFFFFFFFFFFFFFFFFFFFFFFFF NOT AND DUP3 PUSH28 0xFFFFFFFFFFFFFFFFFFFFFFFFFFFFFFFFFFFFFFFFFFFFFFFFFFFFFFFF NOT AND EQ DUP1 PUSH2 0x737 JUMPI POP PUSH2 0x736 DUP3 PUSH2 0x245D JUMP JUMPDEST JUMPDEST SWAP1 POP SWAP2 SWAP1 POP JUMP JUMPDEST PUSH1 0x9 PUSH1 0x20 MSTORE DUP1 PUSH1 0x0 MSTORE PUSH1 0x40 PUSH1 0x0 KECCAK256 PUSH1 0x0 SWAP2 POP SWAP1 POP DUP1 PUSH1 0x0 ADD DUP1 SLOAD PUSH2 0x761 SWAP1 PUSH2 0x3B4C JUMP JUMPDEST DUP1 PUSH1 0x1F ADD PUSH1 0x20 DUP1 SWAP2 DIV MUL PUSH1 0x20 ADD PUSH1 0x40 MLOAD SWAP1 DUP2 ADD PUSH1 0x40 MSTORE DUP1 SWAP3 SWAP2 SWAP1 DUP2 DUP2 MSTORE PUSH1 0x20 ADD DUP3 DUP1 SLOAD PUSH2 0x78D SWAP1 PUSH2 0x3B4C JUMP JUMPDEST DUP1 ISZERO PUSH2 0x7DA JUMPI DUP1 PUSH1 0x1F LT PUSH2 0x7AF JUMPI PUSH2 0x100 DUP1 DUP4 SLOAD DIV MUL DUP4 MSTORE SWAP2 PUSH1 0x20 ADD SWAP2 PUSH2 0x7DA JUMP JUMPDEST DUP3 ADD SWAP2 SWAP1 PUSH1 0x0 MSTORE PUSH1 0x20 PUSH1 0x0 KECCAK256 SWAP1 JUMPDEST DUP2 SLOAD DUP2 MSTORE SWAP1 PUSH1 0x1 ADD SWAP1 PUSH1 0x20 ADD DUP1 DUP4 GT PUSH2 0x7BD JUMPI DUP3 SWAP1 SUB PUSH1 0x1F AND DUP3 ADD SWAP2 JUMPDEST POP POP POP POP POP SWAP1 DUP1 PUSH1 0x1 ADD DUP1 SLOAD PUSH2 0x7EF SWAP1 PUSH2 0x3B4C JUMP JUMPDEST DUP1 PUSH1 0x1F ADD PUSH1 0x20 DUP1 SWAP2 DIV MUL PUSH1 0x20 ADD PUSH1 0x40 MLOAD SWAP1 DUP2 ADD PUSH1 0x40 MSTORE DUP1 SWAP3 SWAP2 SWAP1 DUP2 DUP2 MSTORE PUSH1 0x20 ADD DUP3 DUP1 SLOAD PUSH2 0x81B SWAP1 PUSH2 0x3B4C JUMP JUMPDEST DUP1 ISZERO PUSH2 0x868 JUMPI DUP1 PUSH1 0x1F LT PUSH2 0x83D JUMPI PUSH2 0x100 DUP1 DUP4 SLOAD DIV MUL DUP4 MSTORE SWAP2 PUSH1 0x20 ADD SWAP2 PUSH2 0x868 JUMP JUMPDEST DUP3 ADD SWAP2 SWAP1 PUSH1 0x0 MSTORE PUSH1 0x20 PUSH1 0x0 KECCAK256 SWAP1 JUMPDEST DUP2 SLOAD DUP2 MSTORE SWAP1 PUSH1 0x1 ADD SWAP1 PUSH1 0x20 ADD DUP1 DUP4 GT PUSH2 0x84B JUMPI DUP3 SWAP1 SUB PUSH1 0x1F AND DUP3 ADD SWAP2 JUMPDEST POP POP POP POP POP SWAP1 DUP1 PUSH1 0x2 ADD SLOAD SWAP1 DUP1 PUSH1 0x3 ADD SLOAD SWAP1 DUP1 PUSH1 0x4 ADD SLOAD SWAP1 DUP1 PUSH1 0x5 ADD PUSH1 0x0 SWAP1 SLOAD SWAP1 PUSH2 0x100 EXP SWAP1 DIV PUSH1 0xFF AND SWAP1 DUP1 PUSH1 0x6 ADD SLOAD SWAP1 DUP1 PUSH1 0x7 ADD SLOAD SWAP1 DUP1 PUSH1 0x8 ADD SLOAD SWAP1 POP DUP10 JUMP JUMPDEST PUSH32 0xAB4F864E5201B0FDE9B5EE3E4CF96384802B0FFDFCF7F9DE4699CE21A30AFC4F DUP2 JUMP JUMPDEST PUSH1 0x0 PUSH1 0x7 PUSH1 0x0 DUP4 DUP2 MSTORE PUSH1 0x20 ADD SWAP1 DUP2 MSTORE PUSH1 0x20 ADD PUSH1 0x0 KECCAK256 PUSH1 0x1 ADD SLOAD SWAP1 POP SWAP2 SWAP1 POP JUMP JUMPDEST PUSH2 0x8F6 DUP3 PUSH2 0x8CD JUMP JUMPDEST PUSH2 0x907 DUP2 PUSH2 0x902 PUSH2 0x24C7 JUMP JUMPDEST PUSH2 0x24CF JUMP JUMPDEST PUSH2 0x911 DUP4 DUP4 PUSH2 0x256C JUMP JUMPDEST POP POP POP JUMP JUMPDEST PUSH2 0x91E PUSH2 0x24C7 JUMP JUMPDEST PUSH20 0xFFFFFFFFFFFFFFFFFFFFFFFFFFFFFFFFFFFFFFFF AND DUP2 PUSH20 0xFFFFFFFFFFFFFFFFFFFFFFFFFFFFFFFFFFFFFFFF AND EQ PUSH2 0x98B JUMPI PUSH1 0x40 MLOAD PUSH32 0x8C379A000000000000000000000000000000000000000000000000000000000 DUP2 MSTORE PUSH1 0x4 ADD PUSH2 0x982 SWAP1 PUSH2 0x3BEF JUMP JUMPDEST PUSH1 0x40 MLOAD DUP1 SWAP2 SUB SWAP1 REVERT JUMPDEST PUSH2 0x995 DUP3 DUP3 PUSH2 0x264D JUMP JUMPDEST POP POP JUMP JUMPDEST PUSH1 0x8 PUSH1 0x20 MSTORE DUP2 PUSH1 0x0 MSTORE PUSH1 0x40 PUSH1 0x0 KECCAK256 PUSH1 0x20 MSTORE DUP1 PUSH1 0x0 MSTORE PUSH1 0x40 PUSH1 0x0 KECCAK256 PUSH1 0x0 SWAP2 POP SWAP2 POP POP DUP1 PUSH1 0x0 ADD PUSH1 0x0 SWAP1 SLOAD SWAP1 PUSH2 0x100 EXP SWAP1 DIV PUSH20 0xFFFFFFFFFFFFFFFFFFFFFFFFFFFFFFFFFFFFFFFF AND SWAP1 DUP1 PUSH1 0x1 ADD SLOAD SWAP1 DUP1 PUSH1 0x2 ADD SLOAD SWAP1 DUP1 PUSH1 0x3 ADD SLOAD SWAP1 DUP1 PUSH1 0x4 ADD SLOAD SWAP1 DUP1 PUSH1 0x5 ADD PUSH1 0x0 SWAP1 SLOAD SWAP1 PUSH2 0x100 EXP SWAP1 DIV PUSH1 0xFF AND SWAP1 DUP1 PUSH1 0x5 ADD PUSH1 0x1 SWAP1 SLOAD SWAP1 PUSH2 0x100 EXP SWAP1 DIV PUSH1 0xFF AND SWAP1 POP DUP8 JUMP JUMPDEST DUP2 PUSH1 0x5 PUSH1 0x0 DUP3 DUP2 MSTORE PUSH1 0x20 ADD SWAP1 DUP2 MSTORE PUSH1 0x20 ADD PUSH1 0x0 KECCAK256 PUSH1 0x0 SWAP1 SLOAD SWAP1 PUSH2 0x100 EXP SWAP1 DIV PUSH20 0xFFFFFFFFFFFFFFFFFFFFFFFFFFFFFFFFFFFFFFFF AND PUSH20 0xFFFFFFFFFFFFFFFFFFFFFFFFFFFFFFFFFFFFFFFF AND CALLER PUSH20 0xFFFFFFFFFFFFFFFFFFFFFFFFFFFFFFFFFFFFFFFF AND EQ PUSH2 0xAC4 JUMPI PUSH1 0x40 MLOAD PUSH32 0x8C379A000000000000000000000000000000000000000000000000000000000 DUP2 MSTORE PUSH1 0x4 ADD PUSH2 0xABB SWAP1 PUSH2 0x3C81 JUMP JUMPDEST PUSH1 0x40 MLOAD DUP1 SWAP2 SUB SWAP1 REVERT JUMPDEST PUSH1 0x5 PUSH1 0x0 DUP3 DUP2 MSTORE PUSH1 0x20 ADD SWAP1 DUP2 MSTORE PUSH1 0x20 ADD PUSH1 0x0 KECCAK256 PUSH1 0x0 PUSH2 0x100 EXP DUP2 SLOAD SWAP1 PUSH20 0xFFFFFFFFFFFFFFFFFFFFFFFFFFFFFFFFFFFFFFFF MUL NOT AND SWAP1 SSTORE DUP1 PUSH32 0x7CC135E0CEBB02C3480AE5D74D377283180A2601F8F644EDF7987B009316C63A PUSH1 0x40 MLOAD PUSH1 0x40 MLOAD DUP1 SWAP2 SUB SWAP1 LOG2 DUP3 PUSH32 0x4B031B5F8729563CDA98E5F016F7CB0D8E6B32DB75591D31E59C13DF29ADEA44 DUP4 PUSH1 0x40 MLOAD PUSH2 0xB57 SWAP2 SWAP1 PUSH2 0x36FF JUMP JUMPDEST PUSH1 0x40 MLOAD DUP1 SWAP2 SUB SWAP1 LOG2 DUP2 PUSH1 0xF DUP2 SWAP1 SSTORE POP POP POP POP JUMP JUMPDEST PUSH1 0xA SLOAD DUP2 JUMP JUMPDEST PUSH2 0xB9B PUSH32 0xA49807205CE4D355092EF5A8A18F56E8913CF4A201FBE287825B095693C21775 CALLER PUSH2 0x10C5 JUMP JUMPDEST DUP1 PUSH2 0xBD8 JUMPI POP PUSH2 0xBA9 PUSH2 0xFC8 JUMP JUMPDEST PUSH20 0xFFFFFFFFFFFFFFFFFFFFFFFFFFFFFFFFFFFFFFFF AND CALLER PUSH20 0xFFFFFFFFFFFFFFFFFFFFFFFFFFFFFFFFFFFFFFFF AND EQ JUMPDEST PUSH2 0xC17 JUMPI PUSH1 0x40 MLOAD PUSH32 0x8C379A000000000000000000000000000000000000000000000000000000000 DUP2 MSTORE PUSH1 0x4 ADD PUSH2 0xC0E SWAP1 PUSH2 0x3CED JUMP JUMPDEST PUSH1 0x40 MLOAD DUP1 SWAP2 SUB SWAP1 REVERT JUMPDEST DUP1 PUSH1 0xD DUP2 SWAP1 SSTORE POP POP JUMP JUMPDEST PUSH1 0x0 DUP1 PUSH2 0xC38 PUSH1 0xD SLOAD ADDRESS PUSH4 0x4357855E PUSH1 0xE0 SHL PUSH2 0x272F JUMP JUMPDEST SWAP1 POP PUSH1 0x0 PUSH1 0xB PUSH2 0xC47 DUP6 PUSH2 0x2760 JUMP JUMPDEST PUSH1 0x40 MLOAD PUSH1 0x20 ADD PUSH2 0xC58 SWAP3 SWAP2 SWAP1 PUSH2 0x3DE1 JUMP JUMPDEST PUSH1 0x40 MLOAD PUSH1 0x20 DUP2 DUP4 SUB SUB DUP2 MSTORE SWAP1 PUSH1 0x40 MSTORE SWAP1 POP PUSH2 0xCB3 PUSH1 0x40 MLOAD DUP1 PUSH1 0x40 ADD PUSH1 0x40 MSTORE DUP1 PUSH1 0x3 DUP2 MSTORE PUSH1 0x20 ADD PUSH32 0x6765740000000000000000000000000000000000000000000000000000000000 DUP2 MSTORE POP DUP3 DUP5 PUSH2 0x28C0 SWAP1 SWAP3 SWAP2 SWAP1 PUSH4 0xFFFFFFFF AND JUMP JUMPDEST PUSH2 0xD0C PUSH1 0x40 MLOAD DUP1 PUSH1 0x40 ADD PUSH1 0x40 MSTORE DUP1 PUSH1 0x4 DUP2 MSTORE PUSH1 0x20 ADD PUSH32 0x7061746800000000000000000000000000000000000000000000000000000000 DUP2 MSTORE POP PUSH1 0x40 MLOAD DUP1 PUSH1 0x20 ADD PUSH1 0x40 MSTORE DUP1 PUSH1 0x0 DUP2 MSTORE POP DUP5 PUSH2 0x28C0 SWAP1 SWAP3 SWAP2 SWAP1 PUSH4 0xFFFFFFFF AND JUMP JUMPDEST PUSH1 0x0 PUSH2 0xD1A DUP4 PUSH1 0xE SLOAD PUSH2 0x28F3 JUMP JUMPDEST SWAP1 POP PUSH1 0x0 PUSH1 0xF SLOAD SWAP1 POP PUSH32 0x1CA8663227A7FE9919713A01D344AFBB434E234F35A3E540A6AD924F88771F38 DUP3 DUP3 PUSH1 0x40 MLOAD PUSH2 0xD54 SWAP3 SWAP2 SWAP1 PUSH2 0x3E05 JUMP JUMPDEST PUSH1 0x40 MLOAD DUP1 SWAP2 SUB SWAP1 LOG1 DUP1 SWAP5 POP POP POP POP POP SWAP2 SWAP1 POP JUMP JUMPDEST PUSH2 0xD70 PUSH2 0x24C7 JUMP JUMPDEST PUSH20 0xFFFFFFFFFFFFFFFFFFFFFFFFFFFFFFFFFFFFFFFF AND PUSH2 0xD8E PUSH2 0xFC8 JUMP JUMPDEST PUSH20 0xFFFFFFFFFFFFFFFFFFFFFFFFFFFFFFFFFFFFFFFF AND EQ PUSH2 0xDE4 JUMPI PUSH1 0x40 MLOAD PUSH32 0x8C379A000000000000000000000000000000000000000000000000000000000 DUP2 MSTORE PUSH1 0x4 ADD PUSH2 0xDDB SWAP1 PUSH2 0x3E7A JUMP JUMPDEST PUSH1 0x40 MLOAD DUP1 SWAP2 SUB SWAP1 REVERT JUMPDEST PUSH2 0xDEE PUSH1 0x0 PUSH2 0x292A JUMP JUMPDEST JUMP JUMPDEST PUSH32 0xA49807205CE4D355092EF5A8A18F56E8913CF4A201FBE287825B095693C21775 DUP2 JUMP JUMPDEST PUSH2 0xE3E PUSH32 0xAB4F864E5201B0FDE9B5EE3E4CF96384802B0FFDFCF7F9DE4699CE21A30AFC4F CALLER PUSH2 0x10C5 JUMP JUMPDEST PUSH2 0xE7D JUMPI PUSH1 0x40 MLOAD PUSH32 0x8C379A000000000000000000000000000000000000000000000000000000000 DUP2 MSTORE PUSH1 0x4 ADD PUSH2 0xE74 SWAP1 PUSH2 0x3EE6 JUMP JUMPDEST PUSH1 0x40 MLOAD DUP1 SWAP2 SUB SWAP1 REVERT JUMPDEST JUMP JUMPDEST DUP2 PUSH1 0x5 PUSH1 0x0 DUP3 DUP2 MSTORE PUSH1 0x20 ADD SWAP1 DUP2 MSTORE PUSH1 0x20 ADD PUSH1 0x0 KECCAK256 PUSH1 0x0 SWAP1 SLOAD SWAP1 PUSH2 0x100 EXP SWAP1 DIV PUSH20 0xFFFFFFFFFFFFFFFFFFFFFFFFFFFFFFFFFFFFFFFF AND PUSH20 0xFFFFFFFFFFFFFFFFFFFFFFFFFFFFFFFFFFFFFFFF AND CALLER PUSH20 0xFFFFFFFFFFFFFFFFFFFFFFFFFFFFFFFFFFFFFFFF AND EQ PUSH2 0xF21 JUMPI PUSH1 0x40 MLOAD PUSH32 0x8C379A000000000000000000000000000000000000000000000000000000000 DUP2 MSTORE PUSH1 0x4 ADD PUSH2 0xF18 SWAP1 PUSH2 0x3C81 JUMP JUMPDEST PUSH1 0x40 MLOAD DUP1 SWAP2 SUB SWAP1 REVERT JUMPDEST PUSH1 0x5 PUSH1 0x0 DUP3 DUP2 MSTORE PUSH1 0x20 ADD SWAP1 DUP2 MSTORE PUSH1 0x20 ADD PUSH1 0x0 KECCAK256 PUSH1 0x0 PUSH2 0x100 EXP DUP2 SLOAD SWAP1 PUSH20 0xFFFFFFFFFFFFFFFFFFFFFFFFFFFFFFFFFFFFFFFF MUL NOT AND SWAP1 SSTORE DUP1 PUSH32 0x7CC135E0CEBB02C3480AE5D74D377283180A2601F8F644EDF7987B009316C63A PUSH1 0x40 MLOAD PUSH1 0x40 MLOAD DUP1 SWAP2 SUB SWAP1 LOG2 DUP3 PUSH32 0x4B031B5F8729563CDA98E5F016F7CB0D8E6B32DB75591D31E59C13DF29ADEA44 DUP4 PUSH1 0x40 MLOAD PUSH2 0xFB4 SWAP2 SWAP1 PUSH2 0x36FF JUMP JUMPDEST PUSH1 0x40 MLOAD DUP1 SWAP2 SUB SWAP1 LOG2 DUP2 PUSH1 0xF DUP2 SWAP1 SSTORE POP POP POP POP JUMP JUMPDEST PUSH1 0x0 PUSH1 0x6 PUSH1 0x0 SWAP1 SLOAD SWAP1 PUSH2 0x100 EXP SWAP1 DIV PUSH20 0xFFFFFFFFFFFFFFFFFFFFFFFFFFFFFFFFFFFFFFFF AND SWAP1 POP SWAP1 JUMP JUMPDEST PUSH2 0x101C PUSH32 0xA49807205CE4D355092EF5A8A18F56E8913CF4A201FBE287825B095693C21775 CALLER PUSH2 0x10C5 JUMP JUMPDEST DUP1 PUSH2 0x1059 JUMPI POP PUSH2 0x102A PUSH2 0xFC8 JUMP JUMPDEST PUSH20 0xFFFFFFFFFFFFFFFFFFFFFFFFFFFFFFFFFFFFFFFF AND CALLER PUSH20 0xFFFFFFFFFFFFFFFFFFFFFFFFFFFFFFFFFFFFFFFF AND EQ JUMPDEST PUSH2 0x1098 JUMPI PUSH1 0x40 MLOAD PUSH32 0x8C379A000000000000000000000000000000000000000000000000000000000 DUP2 MSTORE PUSH1 0x4 ADD PUSH2 0x108F SWAP1 PUSH2 0x3CED JUMP JUMPDEST PUSH1 0x40 MLOAD DUP1 SWAP2 SUB SWAP1 REVERT JUMPDEST PUSH2 0x10C2 PUSH32 0xAB4F864E5201B0FDE9B5EE3E4CF96384802B0FFDFCF7F9DE4699CE21A30AFC4F DUP3 PUSH2 0x8ED JUMP JUMPDEST POP JUMP JUMPDEST PUSH1 0x0 PUSH1 0x7 PUSH1 0x0 DUP5 DUP2 MSTORE PUSH1 0x20 ADD SWAP1 DUP2 MSTORE PUSH1 0x20 ADD PUSH1 0x0 KECCAK256 PUSH1 0x0 ADD PUSH1 0x0 DUP4 PUSH20 0xFFFFFFFFFFFFFFFFFFFFFFFFFFFFFFFFFFFFFFFF AND PUSH20 0xFFFFFFFFFFFFFFFFFFFFFFFFFFFFFFFFFFFFFFFF AND DUP2 MSTORE PUSH1 0x20 ADD SWAP1 DUP2 MSTORE PUSH1 0x20 ADD PUSH1 0x0 KECCAK256 PUSH1 0x0 SWAP1 SLOAD SWAP1 PUSH2 0x100 EXP SWAP1 DIV PUSH1 0xFF AND SWAP1 POP SWAP3 SWAP2 POP POP JUMP JUMPDEST PUSH1 0xA SLOAD DUP5 LT PUSH2 0x1174 JUMPI PUSH1 0x40 MLOAD PUSH32 0x8C379A000000000000000000000000000000000000000000000000000000000 DUP2 MSTORE PUSH1 0x4 ADD PUSH2 0x116B SWAP1 PUSH2 0x3F52 JUMP JUMPDEST PUSH1 0x40 MLOAD DUP1 SWAP2 SUB SWAP1 REVERT JUMPDEST PUSH1 0x0 DUP2 GT PUSH2 0x11B7 JUMPI PUSH1 0x40 MLOAD PUSH32 0x8C379A000000000000000000000000000000000000000000000000000000000 DUP2 MSTORE PUSH1 0x4 ADD PUSH2 0x11AE SWAP1 PUSH2 0x3FE4 JUMP JUMPDEST PUSH1 0x40 MLOAD DUP1 SWAP2 SUB SWAP1 REVERT JUMPDEST PUSH1 0x0 PUSH1 0x10 PUSH1 0x0 SWAP1 SLOAD SWAP1 PUSH2 0x100 EXP SWAP1 DIV PUSH20 0xFFFFFFFFFFFFFFFFFFFFFFFFFFFFFFFFFFFFFFFF AND PUSH20 0xFFFFFFFFFFFFFFFFFFFFFFFFFFFFFFFFFFFFFFFF AND PUSH4 0x23B872DD CALLER ADDRESS PUSH3 0xF4240 DUP7 PUSH2 0x1208 SWAP2 SWAP1 PUSH2 0x4033 JUMP JUMPDEST PUSH1 0x40 MLOAD DUP5 PUSH4 0xFFFFFFFF AND PUSH1 0xE0 SHL DUP2 MSTORE PUSH1 0x4 ADD PUSH2 0x1226 SWAP4 SWAP3 SWAP2 SWAP1 PUSH2 0x4075 JUMP JUMPDEST PUSH1 0x20 PUSH1 0x40 MLOAD DUP1 DUP4 SUB DUP2 PUSH1 0x0 DUP8 GAS CALL ISZERO DUP1 ISZERO PUSH2 0x1245 JUMPI RETURNDATASIZE PUSH1 0x0 DUP1 RETURNDATACOPY RETURNDATASIZE PUSH1 0x0 REVERT JUMPDEST POP POP POP POP PUSH1 0x40 MLOAD RETURNDATASIZE PUSH1 0x1F NOT PUSH1 0x1F DUP3 ADD AND DUP3 ADD DUP1 PUSH1 0x40 MSTORE POP DUP2 ADD SWAP1 PUSH2 0x1269 SWAP2 SWAP1 PUSH2 0x40D8 JUMP JUMPDEST SWAP1 POP DUP1 PUSH2 0x12AB JUMPI PUSH1 0x40 MLOAD PUSH32 0x8C379A000000000000000000000000000000000000000000000000000000000 DUP2 MSTORE PUSH1 0x4 ADD PUSH2 0x12A2 SWAP1 PUSH2 0x4151 JUMP JUMPDEST PUSH1 0x40 MLOAD DUP1 SWAP2 SUB SWAP1 REVERT JUMPDEST PUSH1 0x0 PUSH1 0x9 PUSH1 0x0 DUP8 DUP2 MSTORE PUSH1 0x20 ADD SWAP1 DUP2 MSTORE PUSH1 0x20 ADD PUSH1 0x0 KECCAK256 SWAP1 POP DUP1 PUSH1 0x5 ADD PUSH1 0x0 SWAP1 SLOAD SWAP1 PUSH2 0x100 EXP SWAP1 DIV PUSH1 0xFF AND ISZERO PUSH2 0x1314 JUMPI PUSH1 0x40 MLOAD PUSH32 0x8C379A000000000000000000000000000000000000000000000000000000000 DUP2 MSTORE PUSH1 0x4 ADD PUSH2 0x130B SWAP1 PUSH2 0x41BD JUMP JUMPDEST PUSH1 0x40 MLOAD DUP1 SWAP2 SUB SWAP1 REVERT JUMPDEST PUSH1 0x0 PUSH1 0x14 DUP5 PUSH2 0x1323 SWAP2 SWAP1 PUSH2 0x420C JUMP JUMPDEST SWAP1 POP PUSH1 0x0 PUSH1 0x5 DUP6 PUSH2 0x1334 SWAP2 SWAP1 PUSH2 0x420C JUMP JUMPDEST SWAP1 POP DUP1 DUP4 PUSH1 0x6 ADD PUSH1 0x0 DUP3 DUP3 SLOAD PUSH2 0x134A SWAP2 SWAP1 PUSH2 0x423D JUMP JUMPDEST SWAP3 POP POP DUP2 SWAP1 SSTORE POP DUP1 DUP3 DUP7 PUSH2 0x135E SWAP2 SWAP1 PUSH2 0x4271 JUMP JUMPDEST PUSH2 0x1368 SWAP2 SWAP1 PUSH2 0x4271 JUMP JUMPDEST DUP4 PUSH1 0x8 ADD PUSH1 0x0 DUP3 DUP3 SLOAD PUSH2 0x137B SWAP2 SWAP1 PUSH2 0x423D JUMP JUMPDEST SWAP3 POP POP DUP2 SWAP1 SSTORE POP PUSH1 0x40 MLOAD DUP1 PUSH1 0xE0 ADD PUSH1 0x40 MSTORE DUP1 CALLER PUSH20 0xFFFFFFFFFFFFFFFFFFFFFFFFFFFFFFFFFFFFFFFF AND DUP2 MSTORE PUSH1 0x20 ADD DUP10 DUP2 MSTORE PUSH1 0x20 ADD DUP3 DUP5 DUP9 PUSH2 0x13BC SWAP2 SWAP1 PUSH2 0x4271 JUMP JUMPDEST PUSH2 0x13C6 SWAP2 SWAP1 PUSH2 0x4271 JUMP JUMPDEST DUP2 MSTORE PUSH1 0x20 ADD DUP9 DUP2 MSTORE PUSH1 0x20 ADD DUP8 DUP2 MSTORE PUSH1 0x20 ADD PUSH1 0x0 ISZERO ISZERO DUP2 MSTORE PUSH1 0x20 ADD PUSH1 0x0 ISZERO ISZERO DUP2 MSTORE POP PUSH1 0x8 PUSH1 0x0 DUP11 DUP2 MSTORE PUSH1 0x20 ADD SWAP1 DUP2 MSTORE PUSH1 0x20 ADD PUSH1 0x0 KECCAK256 PUSH1 0x0 DUP6 PUSH1 0x7 ADD SLOAD DUP2 MSTORE PUSH1 0x20 ADD SWAP1 DUP2 MSTORE PUSH1 0x20 ADD PUSH1 0x0 KECCAK256 PUSH1 0x0 DUP3 ADD MLOAD DUP2 PUSH1 0x0 ADD PUSH1 0x0 PUSH2 0x100 EXP DUP2 SLOAD DUP2 PUSH20 0xFFFFFFFFFFFFFFFFFFFFFFFFFFFFFFFFFFFFFFFF MUL NOT AND SWAP1 DUP4 PUSH20 0xFFFFFFFFFFFFFFFFFFFFFFFFFFFFFFFFFFFFFFFF AND MUL OR SWAP1 SSTORE POP PUSH1 0x20 DUP3 ADD MLOAD DUP2 PUSH1 0x1 ADD SSTORE PUSH1 0x40 DUP3 ADD MLOAD DUP2 PUSH1 0x2 ADD SSTORE PUSH1 0x60 DUP3 ADD MLOAD DUP2 PUSH1 0x3 ADD SSTORE PUSH1 0x80 DUP3 ADD MLOAD DUP2 PUSH1 0x4 ADD SSTORE PUSH1 0xA0 DUP3 ADD MLOAD DUP2 PUSH1 0x5 ADD PUSH1 0x0 PUSH2 0x100 EXP DUP2 SLOAD DUP2 PUSH1 0xFF MUL NOT AND SWAP1 DUP4 ISZERO ISZERO MUL OR SWAP1 SSTORE POP PUSH1 0xC0 DUP3 ADD MLOAD DUP2 PUSH1 0x5 ADD PUSH1 0x1 PUSH2 0x100 EXP DUP2 SLOAD DUP2 PUSH1 0xFF MUL NOT AND SWAP1 DUP4 ISZERO ISZERO MUL OR SWAP1 SSTORE POP SWAP1 POP POP DUP3 PUSH1 0x7 ADD PUSH1 0x0 DUP2 SLOAD DUP1 SWAP3 SWAP2 SWAP1 PUSH2 0x14D6 SWAP1 PUSH2 0x42A5 JUMP JUMPDEST SWAP2 SWAP1 POP SSTORE POP DUP8 PUSH32 0xBB79D51F1411CA03952954C866D22AE3532B227B2CF62E257CF182397A647173 DUP9 DUP9 PUSH1 0x40 MLOAD PUSH2 0x150D SWAP3 SWAP2 SWAP1 PUSH2 0x42ED JUMP JUMPDEST PUSH1 0x40 MLOAD DUP1 SWAP2 SUB SWAP1 LOG2 POP POP POP POP POP POP POP POP JUMP JUMPDEST PUSH2 0x1549 PUSH32 0x950B8F2D7415DEFAEE398BB4898E8E094A64C725873B81952B7AB9F08D70EFB3 CALLER PUSH2 0x10C5 JUMP JUMPDEST DUP1 PUSH2 0x157A JUMPI POP PUSH2 0x1579 PUSH32 0xA49807205CE4D355092EF5A8A18F56E8913CF4A201FBE287825B095693C21775 CALLER PUSH2 0x10C5 JUMP JUMPDEST JUMPDEST DUP1 PUSH2 0x15B7 JUMPI POP PUSH2 0x1588 PUSH2 0xFC8 JUMP JUMPDEST PUSH20 0xFFFFFFFFFFFFFFFFFFFFFFFFFFFFFFFFFFFFFFFF AND CALLER PUSH20 0xFFFFFFFFFFFFFFFFFFFFFFFFFFFFFFFFFFFFFFFF AND EQ JUMPDEST PUSH2 0x15F6 JUMPI PUSH1 0x40 MLOAD PUSH32 0x8C379A000000000000000000000000000000000000000000000000000000000 DUP2 MSTORE PUSH1 0x4 ADD PUSH2 0x15ED SWAP1 PUSH2 0x4362 JUMP JUMPDEST PUSH1 0x40 MLOAD DUP1 SWAP2 SUB SWAP1 REVERT JUMPDEST PUSH1 0xA SLOAD DUP4 LT PUSH2 0x163A JUMPI PUSH1 0x40 MLOAD PUSH32 0x8C379A000000000000000000000000000000000000000000000000000000000 DUP2 MSTORE PUSH1 0x4 ADD PUSH2 0x1631 SWAP1 PUSH2 0x3F52 JUMP JUMPDEST PUSH1 0x40 MLOAD DUP1 SWAP2 SUB SWAP1 REVERT JUMPDEST PUSH1 0x0 PUSH1 0x9 PUSH1 0x0 DUP6 DUP2 MSTORE PUSH1 0x20 ADD SWAP1 DUP2 MSTORE PUSH1 0x20 ADD PUSH1 0x0 KECCAK256 SWAP1 POP DUP3 DUP2 PUSH1 0x3 ADD DUP2 SWAP1 SSTORE POP DUP2 DUP2 PUSH1 0x4 ADD DUP2 SWAP1 SSTORE POP PUSH1 0x1 DUP2 PUSH1 0x5 ADD PUSH1 0x0 PUSH2 0x100 EXP DUP2 SLOAD DUP2 PUSH1 0xFF MUL NOT AND SWAP1 DUP4 ISZERO ISZERO MUL OR SWAP1 SSTORE POP PUSH1 0x0 DUP2 PUSH1 0x7 ADD SLOAD SUB PUSH2 0x1692 JUMPI POP PUSH2 0x1C7D JUMP JUMPDEST PUSH1 0x0 DUP1 JUMPDEST DUP3 PUSH1 0x7 ADD SLOAD DUP2 LT ISZERO PUSH2 0x1708 JUMPI PUSH1 0x0 PUSH1 0x8 PUSH1 0x0 DUP9 DUP2 MSTORE PUSH1 0x20 ADD SWAP1 DUP2 MSTORE PUSH1 0x20 ADD PUSH1 0x0 KECCAK256 PUSH1 0x0 DUP4 DUP2 MSTORE PUSH1 0x20 ADD SWAP1 DUP2 MSTORE PUSH1 0x20 ADD PUSH1 0x0 KECCAK256 SWAP1 POP DUP6 DUP2 PUSH1 0x3 ADD SLOAD EQ DUP1 ISZERO PUSH2 0x16E0 JUMPI POP DUP5 DUP2 PUSH1 0x4 ADD SLOAD EQ JUMPDEST ISZERO PUSH2 0x16F4 JUMPI DUP3 DUP1 PUSH2 0x16F0 SWAP1 PUSH2 0x42A5 JUMP JUMPDEST SWAP4 POP POP JUMPDEST POP DUP1 DUP1 PUSH2 0x1700 SWAP1 PUSH2 0x42A5 JUMP JUMPDEST SWAP2 POP POP PUSH2 0x1696 JUMP JUMPDEST POP PUSH1 0x0 DUP2 PUSH8 0xFFFFFFFFFFFFFFFF DUP2 GT ISZERO PUSH2 0x1725 JUMPI PUSH2 0x1724 PUSH2 0x3826 JUMP JUMPDEST JUMPDEST PUSH1 0x40 MLOAD SWAP1 DUP1 DUP3 MSTORE DUP1 PUSH1 0x20 MUL PUSH1 0x20 ADD DUP3 ADD PUSH1 0x40 MSTORE DUP1 ISZERO PUSH2 0x175E JUMPI DUP2 PUSH1 0x20 ADD JUMPDEST PUSH2 0x174B PUSH2 0x318C JUMP JUMPDEST DUP2 MSTORE PUSH1 0x20 ADD SWAP1 PUSH1 0x1 SWAP1 SUB SWAP1 DUP2 PUSH2 0x1743 JUMPI SWAP1 POP JUMPDEST POP SWAP1 POP PUSH1 0x0 DUP3 DUP5 PUSH1 0x7 ADD SLOAD PUSH2 0x1773 SWAP2 SWAP1 PUSH2 0x4271 JUMP JUMPDEST PUSH8 0xFFFFFFFFFFFFFFFF DUP2 GT ISZERO PUSH2 0x178C JUMPI PUSH2 0x178B PUSH2 0x3826 JUMP JUMPDEST JUMPDEST PUSH1 0x40 MLOAD SWAP1 DUP1 DUP3 MSTORE DUP1 PUSH1 0x20 MUL PUSH1 0x20 ADD DUP3 ADD PUSH1 0x40 MSTORE DUP1 ISZERO PUSH2 0x17C5 JUMPI DUP2 PUSH1 0x20 ADD JUMPDEST PUSH2 0x17B2 PUSH2 0x318C JUMP JUMPDEST DUP2 MSTORE PUSH1 0x20 ADD SWAP1 PUSH1 0x1 SWAP1 SUB SWAP1 DUP2 PUSH2 0x17AA JUMPI SWAP1 POP JUMPDEST POP SWAP1 POP PUSH1 0x0 DUP1 PUSH1 0x0 DUP1 JUMPDEST DUP8 PUSH1 0x7 ADD SLOAD DUP2 LT ISZERO PUSH2 0x1A5C JUMPI PUSH1 0x0 PUSH1 0x8 PUSH1 0x0 DUP14 DUP2 MSTORE PUSH1 0x20 ADD SWAP1 DUP2 MSTORE PUSH1 0x20 ADD PUSH1 0x0 KECCAK256 PUSH1 0x0 DUP4 DUP2 MSTORE PUSH1 0x20 ADD SWAP1 DUP2 MSTORE PUSH1 0x20 ADD PUSH1 0x0 KECCAK256 SWAP1 POP DUP11 DUP2 PUSH1 0x3 ADD SLOAD EQ DUP1 ISZERO PUSH2 0x1819 JUMPI POP DUP10 DUP2 PUSH1 0x4 ADD SLOAD EQ JUMPDEST ISZERO PUSH2 0x193E JUMPI PUSH1 0x1 DUP2 PUSH1 0x5 ADD PUSH1 0x0 PUSH2 0x100 EXP DUP2 SLOAD DUP2 PUSH1 0xFF MUL NOT AND SWAP1 DUP4 ISZERO ISZERO MUL OR SWAP1 SSTORE POP DUP1 PUSH1 0x40 MLOAD DUP1 PUSH1 0xE0 ADD PUSH1 0x40 MSTORE SWAP1 DUP2 PUSH1 0x0 DUP3 ADD PUSH1 0x0 SWAP1 SLOAD SWAP1 PUSH2 0x100 EXP SWAP1 DIV PUSH20 0xFFFFFFFFFFFFFFFFFFFFFFFFFFFFFFFFFFFFFFFF AND PUSH20 0xFFFFFFFFFFFFFFFFFFFFFFFFFFFFFFFFFFFFFFFF AND PUSH20 0xFFFFFFFFFFFFFFFFFFFFFFFFFFFFFFFFFFFFFFFF AND DUP2 MSTORE PUSH1 0x20 ADD PUSH1 0x1 DUP3 ADD SLOAD DUP2 MSTORE PUSH1 0x20 ADD PUSH1 0x2 DUP3 ADD SLOAD DUP2 MSTORE PUSH1 0x20 ADD PUSH1 0x3 DUP3 ADD SLOAD DUP2 MSTORE PUSH1 0x20 ADD PUSH1 0x4 DUP3 ADD SLOAD DUP2 MSTORE PUSH1 0x20 ADD PUSH1 0x5 DUP3 ADD PUSH1 0x0 SWAP1 SLOAD SWAP1 PUSH2 0x100 EXP SWAP1 DIV PUSH1 0xFF AND ISZERO ISZERO ISZERO ISZERO DUP2 MSTORE PUSH1 0x20 ADD PUSH1 0x5 DUP3 ADD PUSH1 0x1 SWAP1 SLOAD SWAP1 PUSH2 0x100 EXP SWAP1 DIV PUSH1 0xFF AND ISZERO ISZERO ISZERO ISZERO DUP2 MSTORE POP POP DUP8 DUP7 DUP2 MLOAD DUP2 LT PUSH2 0x190E JUMPI PUSH2 0x190D PUSH2 0x4382 JUMP JUMPDEST JUMPDEST PUSH1 0x20 MUL PUSH1 0x20 ADD ADD DUP2 SWAP1 MSTORE POP DUP1 PUSH1 0x2 ADD SLOAD DUP4 PUSH2 0x1929 SWAP2 SWAP1 PUSH2 0x423D JUMP JUMPDEST SWAP3 POP DUP5 DUP1 PUSH2 0x1936 SWAP1 PUSH2 0x42A5 JUMP JUMPDEST SWAP6 POP POP PUSH2 0x1A2B JUMP JUMPDEST DUP1 PUSH1 0x40 MLOAD DUP1 PUSH1 0xE0 ADD PUSH1 0x40 MSTORE SWAP1 DUP2 PUSH1 0x0 DUP3 ADD PUSH1 0x0 SWAP1 SLOAD SWAP1 PUSH2 0x100 EXP SWAP1 DIV PUSH20 0xFFFFFFFFFFFFFFFFFFFFFFFFFFFFFFFFFFFFFFFF AND PUSH20 0xFFFFFFFFFFFFFFFFFFFFFFFFFFFFFFFFFFFFFFFF AND PUSH20 0xFFFFFFFFFFFFFFFFFFFFFFFFFFFFFFFFFFFFFFFF AND DUP2 MSTORE PUSH1 0x20 ADD PUSH1 0x1 DUP3 ADD SLOAD DUP2 MSTORE PUSH1 0x20 ADD PUSH1 0x2 DUP3 ADD SLOAD DUP2 MSTORE PUSH1 0x20 ADD PUSH1 0x3 DUP3 ADD SLOAD DUP2 MSTORE PUSH1 0x20 ADD PUSH1 0x4 DUP3 ADD SLOAD DUP2 MSTORE PUSH1 0x20 ADD PUSH1 0x5 DUP3 ADD PUSH1 0x0 SWAP1 SLOAD SWAP1 PUSH2 0x100 EXP SWAP1 DIV PUSH1 0xFF AND ISZERO ISZERO ISZERO ISZERO DUP2 MSTORE PUSH1 0x20 ADD PUSH1 0x5 DUP3 ADD PUSH1 0x1 SWAP1 SLOAD SWAP1 PUSH2 0x100 EXP SWAP1 DIV PUSH1 0xFF AND ISZERO ISZERO ISZERO ISZERO DUP2 MSTORE POP POP DUP7 DUP6 DUP2 MLOAD DUP2 LT PUSH2 0x1A11 JUMPI PUSH2 0x1A10 PUSH2 0x4382 JUMP JUMPDEST JUMPDEST PUSH1 0x20 MUL PUSH1 0x20 ADD ADD DUP2 SWAP1 MSTORE POP DUP4 DUP1 PUSH2 0x1A27 SWAP1 PUSH2 0x42A5 JUMP JUMPDEST SWAP5 POP POP JUMPDEST PUSH1 0x1 DUP2 PUSH1 0x5 ADD PUSH1 0x1 PUSH2 0x100 EXP DUP2 SLOAD DUP2 PUSH1 0xFF MUL NOT AND SWAP1 DUP4 ISZERO ISZERO MUL OR SWAP1 SSTORE POP POP DUP1 DUP1 PUSH2 0x1A54 SWAP1 PUSH2 0x42A5 JUMP JUMPDEST SWAP2 POP POP PUSH2 0x17CF JUMP JUMPDEST POP PUSH1 0x0 DUP4 SUB PUSH2 0x1A85 JUMPI DUP7 PUSH1 0x8 ADD SLOAD DUP8 PUSH1 0x6 ADD PUSH1 0x0 DUP3 DUP3 SLOAD PUSH2 0x1A7D SWAP2 SWAP1 PUSH2 0x423D JUMP JUMPDEST SWAP3 POP POP DUP2 SWAP1 SSTORE POP JUMPDEST PUSH1 0x0 JUMPDEST DUP4 DUP2 LT ISZERO PUSH2 0x1B9A JUMPI PUSH1 0x10 PUSH1 0x0 SWAP1 SLOAD SWAP1 PUSH2 0x100 EXP SWAP1 DIV PUSH20 0xFFFFFFFFFFFFFFFFFFFFFFFFFFFFFFFFFFFFFFFF AND PUSH20 0xFFFFFFFFFFFFFFFFFFFFFFFFFFFFFFFFFFFFFFFF AND PUSH4 0xA9059CBB DUP8 DUP4 DUP2 MLOAD DUP2 LT PUSH2 0x1AE1 JUMPI PUSH2 0x1AE0 PUSH2 0x4382 JUMP JUMPDEST JUMPDEST PUSH1 0x20 MUL PUSH1 0x20 ADD ADD MLOAD PUSH1 0x0 ADD MLOAD DUP5 DUP10 DUP6 DUP2 MLOAD DUP2 LT PUSH2 0x1B01 JUMPI PUSH2 0x1B00 PUSH2 0x4382 JUMP JUMPDEST JUMPDEST PUSH1 0x20 MUL PUSH1 0x20 ADD ADD MLOAD PUSH1 0x40 ADD MLOAD DUP13 PUSH1 0x8 ADD SLOAD PUSH2 0x1B1C SWAP2 SWAP1 PUSH2 0x4033 JUMP JUMPDEST PUSH2 0x1B26 SWAP2 SWAP1 PUSH2 0x420C JUMP JUMPDEST PUSH1 0x40 MLOAD DUP4 PUSH4 0xFFFFFFFF AND PUSH1 0xE0 SHL DUP2 MSTORE PUSH1 0x4 ADD PUSH2 0x1B43 SWAP3 SWAP2 SWAP1 PUSH2 0x43B1 JUMP JUMPDEST PUSH1 0x20 PUSH1 0x40 MLOAD DUP1 DUP4 SUB DUP2 PUSH1 0x0 DUP8 GAS CALL ISZERO DUP1 ISZERO PUSH2 0x1B62 JUMPI RETURNDATASIZE PUSH1 0x0 DUP1 RETURNDATACOPY RETURNDATASIZE PUSH1 0x0 REVERT JUMPDEST POP POP POP POP PUSH1 0x40 MLOAD RETURNDATASIZE PUSH1 0x1F NOT PUSH1 0x1F DUP3 ADD AND DUP3 ADD DUP1 PUSH1 0x40 MSTORE POP DUP2 ADD SWAP1 PUSH2 0x1B86 SWAP2 SWAP1 PUSH2 0x40D8 JUMP JUMPDEST POP DUP1 DUP1 PUSH2 0x1B92 SWAP1 PUSH2 0x42A5 JUMP JUMPDEST SWAP2 POP POP PUSH2 0x1A88 JUMP JUMPDEST POP PUSH1 0x0 PUSH2 0x1BA6 DUP4 PUSH2 0xC21 JUMP JUMPDEST SWAP1 POP PUSH1 0x1 DUP2 EQ PUSH2 0x1C74 JUMPI PUSH1 0x10 PUSH1 0x0 SWAP1 SLOAD SWAP1 PUSH2 0x100 EXP SWAP1 DIV PUSH20 0xFFFFFFFFFFFFFFFFFFFFFFFFFFFFFFFFFFFFFFFF AND PUSH20 0xFFFFFFFFFFFFFFFFFFFFFFFFFFFFFFFFFFFFFFFF AND PUSH4 0xA9059CBB DUP7 DUP4 DUP2 MLOAD DUP2 LT PUSH2 0x1C01 JUMPI PUSH2 0x1C00 PUSH2 0x4382 JUMP JUMPDEST JUMPDEST PUSH1 0x20 MUL PUSH1 0x20 ADD ADD MLOAD PUSH1 0x0 ADD MLOAD DUP11 PUSH1 0x6 ADD SLOAD PUSH1 0x40 MLOAD DUP4 PUSH4 0xFFFFFFFF AND PUSH1 0xE0 SHL DUP2 MSTORE PUSH1 0x4 ADD PUSH2 0x1C2F SWAP3 SWAP2 SWAP1 PUSH2 0x43B1 JUMP JUMPDEST PUSH1 0x20 PUSH1 0x40 MLOAD DUP1 DUP4 SUB DUP2 PUSH1 0x0 DUP8 GAS CALL ISZERO DUP1 ISZERO PUSH2 0x1C4E JUMPI RETURNDATASIZE PUSH1 0x0 DUP1 RETURNDATACOPY RETURNDATASIZE PUSH1 0x0 REVERT JUMPDEST POP POP POP POP PUSH1 0x40 MLOAD RETURNDATASIZE PUSH1 0x1F NOT PUSH1 0x1F DUP3 ADD AND DUP3 ADD DUP1 PUSH1 0x40 MSTORE POP DUP2 ADD SWAP1 PUSH2 0x1C72 SWAP2 SWAP1 PUSH2 0x40D8 JUMP JUMPDEST POP JUMPDEST POP POP POP POP POP POP POP POP JUMPDEST POP POP POP JUMP JUMPDEST PUSH1 0x0 DUP1 SHL DUP2 JUMP JUMPDEST PUSH2 0x1CB3 PUSH32 0x950B8F2D7415DEFAEE398BB4898E8E094A64C725873B81952B7AB9F08D70EFB3 CALLER PUSH2 0x10C5 JUMP JUMPDEST DUP1 PUSH2 0x1CE4 JUMPI POP PUSH2 0x1CE3 PUSH32 0xA49807205CE4D355092EF5A8A18F56E8913CF4A201FBE287825B095693C21775 CALLER PUSH2 0x10C5 JUMP JUMPDEST JUMPDEST DUP1 PUSH2 0x1D21 JUMPI POP PUSH2 0x1CF2 PUSH2 0xFC8 JUMP JUMPDEST PUSH20 0xFFFFFFFFFFFFFFFFFFFFFFFFFFFFFFFFFFFFFFFF AND CALLER PUSH20 0xFFFFFFFFFFFFFFFFFFFFFFFFFFFFFFFFFFFFFFFF AND EQ JUMPDEST PUSH2 0x1D60 JUMPI PUSH1 0x40 MLOAD PUSH32 0x8C379A000000000000000000000000000000000000000000000000000000000 DUP2 MSTORE PUSH1 0x4 ADD PUSH2 0x1D57 SWAP1 PUSH2 0x4362 JUMP JUMPDEST PUSH1 0x40 MLOAD DUP1 SWAP2 SUB SWAP1 REVERT JUMPDEST PUSH1 0x40 MLOAD DUP1 PUSH2 0x120 ADD PUSH1 0x40 MSTORE DUP1 DUP5 DUP2 MSTORE PUSH1 0x20 ADD DUP4 DUP2 MSTORE PUSH1 0x20 ADD DUP3 DUP2 MSTORE PUSH1 0x20 ADD PUSH1 0x0 DUP2 MSTORE PUSH1 0x20 ADD PUSH1 0x0 DUP2 MSTORE PUSH1 0x20 ADD PUSH1 0x0 ISZERO ISZERO DUP2 MSTORE PUSH1 0x20 ADD PUSH1 0x0 DUP2 MSTORE PUSH1 0x20 ADD PUSH1 0x0 DUP2 MSTORE PUSH1 0x20 ADD PUSH1 0x0 DUP2 MSTORE POP PUSH1 0x9 PUSH1 0x0 PUSH1 0xA SLOAD DUP2 MSTORE PUSH1 0x20 ADD SWAP1 DUP2 MSTORE PUSH1 0x20 ADD PUSH1 0x0 KECCAK256 PUSH1 0x0 DUP3 ADD MLOAD DUP2 PUSH1 0x0 ADD SWAP1 DUP2 PUSH2 0x1DD2 SWAP2 SWAP1 PUSH2 0x4567 JUMP JUMPDEST POP PUSH1 0x20 DUP3 ADD MLOAD DUP2 PUSH1 0x1 ADD SWAP1 DUP2 PUSH2 0x1DE8 SWAP2 SWAP1 PUSH2 0x4567 JUMP JUMPDEST POP PUSH1 0x40 DUP3 ADD MLOAD DUP2 PUSH1 0x2 ADD SSTORE PUSH1 0x60 DUP3 ADD MLOAD DUP2 PUSH1 0x3 ADD SSTORE PUSH1 0x80 DUP3 ADD MLOAD DUP2 PUSH1 0x4 ADD SSTORE PUSH1 0xA0 DUP3 ADD MLOAD DUP2 PUSH1 0x5 ADD PUSH1 0x0 PUSH2 0x100 EXP DUP2 SLOAD DUP2 PUSH1 0xFF MUL NOT AND SWAP1 DUP4 ISZERO ISZERO MUL OR SWAP1 SSTORE POP PUSH1 0xC0 DUP3 ADD MLOAD DUP2 PUSH1 0x6 ADD SSTORE PUSH1 0xE0 DUP3 ADD MLOAD DUP2 PUSH1 0x7 ADD SSTORE PUSH2 0x100 DUP3 ADD MLOAD DUP2 PUSH1 0x8 ADD SSTORE SWAP1 POP POP PUSH1 0xA PUSH1 0x0 DUP2 SLOAD DUP1 SWAP3 SWAP2 SWAP1 PUSH2 0x1E5C SWAP1 PUSH2 0x42A5 JUMP JUMPDEST SWAP2 SWAP1 POP SSTORE POP DUP2 PUSH1 0x40 MLOAD PUSH2 0x1E6F SWAP2 SWAP1 PUSH2 0x4639 JUMP JUMPDEST PUSH1 0x40 MLOAD DUP1 SWAP2 SUB SWAP1 KECCAK256 DUP4 PUSH1 0x40 MLOAD PUSH2 0x1E85 SWAP2 SWAP1 PUSH2 0x4639 JUMP JUMPDEST PUSH1 0x40 MLOAD DUP1 SWAP2 SUB SWAP1 KECCAK256 PUSH32 0xD35CA1314B646B63FB0C1F06DBE2338333530431983C8779C9692F9FF4AD249F DUP4 PUSH1 0x40 MLOAD PUSH2 0x1EBC SWAP2 SWAP1 PUSH2 0x36FF JUMP JUMPDEST PUSH1 0x40 MLOAD DUP1 SWAP2 SUB SWAP1 LOG3 POP POP POP JUMP JUMPDEST PUSH1 0x10 PUSH1 0x0 SWAP1 SLOAD SWAP1 PUSH2 0x100 EXP SWAP1 DIV PUSH20 0xFFFFFFFFFFFFFFFFFFFFFFFFFFFFFFFFFFFFFFFF AND DUP2 JUMP JUMPDEST PUSH1 0xF SLOAD DUP2 JUMP JUMPDEST PUSH2 0x1F1F PUSH32 0xA49807205CE4D355092EF5A8A18F56E8913CF4A201FBE287825B095693C21775 CALLER PUSH2 0x10C5 JUMP JUMPDEST DUP1 PUSH2 0x1F5C JUMPI POP PUSH2 0x1F2D PUSH2 0xFC8 JUMP JUMPDEST PUSH20 0xFFFFFFFFFFFFFFFFFFFFFFFFFFFFFFFFFFFFFFFF AND CALLER PUSH20 0xFFFFFFFFFFFFFFFFFFFFFFFFFFFFFFFFFFFFFFFF AND EQ JUMPDEST PUSH2 0x1F9B JUMPI PUSH1 0x40 MLOAD PUSH32 0x8C379A000000000000000000000000000000000000000000000000000000000 DUP2 MSTORE PUSH1 0x4 ADD PUSH2 0x1F92 SWAP1 PUSH2 0x3CED JUMP JUMPDEST PUSH1 0x40 MLOAD DUP1 SWAP2 SUB SWAP1 REVERT JUMPDEST DUP1 PUSH1 0xB SWAP1 DUP2 PUSH2 0x1FAA SWAP2 SWAP1 PUSH2 0x4567 JUMP JUMPDEST POP POP JUMP JUMPDEST PUSH2 0x1FB7 DUP3 PUSH2 0x8CD JUMP JUMPDEST PUSH2 0x1FC8 DUP2 PUSH2 0x1FC3 PUSH2 0x24C7 JUMP JUMPDEST PUSH2 0x24CF JUMP JUMPDEST PUSH2 0x1FD2 DUP4 DUP4 PUSH2 0x264D JUMP JUMPDEST POP POP POP JUMP JUMPDEST PUSH32 0x950B8F2D7415DEFAEE398BB4898E8E094A64C725873B81952B7AB9F08D70EFB3 DUP2 JUMP JUMPDEST PUSH2 0x2003 PUSH2 0x24C7 JUMP JUMPDEST PUSH20 0xFFFFFFFFFFFFFFFFFFFFFFFFFFFFFFFFFFFFFFFF AND PUSH2 0x2021 PUSH2 0xFC8 JUMP JUMPDEST PUSH20 0xFFFFFFFFFFFFFFFFFFFFFFFFFFFFFFFFFFFFFFFF AND EQ PUSH2 0x2077 JUMPI PUSH1 0x40 MLOAD PUSH32 0x8C379A000000000000000000000000000000000000000000000000000000000 DUP2 MSTORE PUSH1 0x4 ADD PUSH2 0x206E SWAP1 PUSH2 0x3E7A JUMP JUMPDEST PUSH1 0x40 MLOAD DUP1 SWAP2 SUB SWAP1 REVERT JUMPDEST PUSH1 0x10 PUSH1 0x0 SWAP1 SLOAD SWAP1 PUSH2 0x100 EXP SWAP1 DIV PUSH20 0xFFFFFFFFFFFFFFFFFFFFFFFFFFFFFFFFFFFFFFFF AND PUSH20 0xFFFFFFFFFFFFFFFFFFFFFFFFFFFFFFFFFFFFFFFF AND PUSH4 0xA9059CBB DUP3 PUSH3 0xF4240 DUP6 PUSH2 0x20C5 SWAP2 SWAP1 PUSH2 0x4033 JUMP JUMPDEST PUSH1 0x40 MLOAD DUP4 PUSH4 0xFFFFFFFF AND PUSH1 0xE0 SHL DUP2 MSTORE PUSH1 0x4 ADD PUSH2 0x20E2 SWAP3 SWAP2 SWAP1 PUSH2 0x4671 JUMP JUMPDEST PUSH1 0x20 PUSH1 0x40 MLOAD DUP1 DUP4 SUB DUP2 PUSH1 0x0 DUP8 GAS CALL ISZERO DUP1 ISZERO PUSH2 0x2101 JUMPI RETURNDATASIZE PUSH1 0x0 DUP1 RETURNDATACOPY RETURNDATASIZE PUSH1 0x0 REVERT JUMPDEST POP POP POP POP PUSH1 0x40 MLOAD RETURNDATASIZE PUSH1 0x1F NOT PUSH1 0x1F DUP3 ADD AND DUP3 ADD DUP1 PUSH1 0x40 MSTORE POP DUP2 ADD SWAP1 PUSH2 0x2125 SWAP2 SWAP1 PUSH2 0x40D8 JUMP JUMPDEST POP POP POP JUMP JUMPDEST PUSH2 0x2132 PUSH2 0x24C7 JUMP JUMPDEST PUSH20 0xFFFFFFFFFFFFFFFFFFFFFFFFFFFFFFFFFFFFFFFF AND PUSH2 0x2150 PUSH2 0xFC8 JUMP JUMPDEST PUSH20 0xFFFFFFFFFFFFFFFFFFFFFFFFFFFFFFFFFFFFFFFF AND EQ PUSH2 0x21A6 JUMPI PUSH1 0x40 MLOAD PUSH32 0x8C379A000000000000000000000000000000000000000000000000000000000 DUP2 MSTORE PUSH1 0x4 ADD PUSH2 0x219D SWAP1 PUSH2 0x3E7A JUMP JUMPDEST PUSH1 0x40 MLOAD DUP1 SWAP2 SUB SWAP1 REVERT JUMPDEST PUSH1 0x0 PUSH20 0xFFFFFFFFFFFFFFFFFFFFFFFFFFFFFFFFFFFFFFFF AND DUP2 PUSH20 0xFFFFFFFFFFFFFFFFFFFFFFFFFFFFFFFFFFFFFFFF AND SUB PUSH2 0x2215 JUMPI PUSH1 0x40 MLOAD PUSH32 0x8C379A000000000000000000000000000000000000000000000000000000000 DUP2 MSTORE PUSH1 0x4 ADD PUSH2 0x220C SWAP1 PUSH2 0x470C JUMP JUMPDEST PUSH1 0x40 MLOAD DUP1 SWAP2 SUB SWAP1 REVERT JUMPDEST PUSH2 0x221E DUP2 PUSH2 0x292A JUMP JUMPDEST POP JUMP JUMPDEST PUSH1 0x60 PUSH1 0x0 PUSH1 0x2 DUP4 PUSH1 0x2 PUSH2 0x2234 SWAP2 SWAP1 PUSH2 0x4033 JUMP JUMPDEST PUSH2 0x223E SWAP2 SWAP1 PUSH2 0x423D JUMP JUMPDEST PUSH8 0xFFFFFFFFFFFFFFFF DUP2 GT ISZERO PUSH2 0x2257 JUMPI PUSH2 0x2256 PUSH2 0x3826 JUMP JUMPDEST JUMPDEST PUSH1 0x40 MLOAD SWAP1 DUP1 DUP3 MSTORE DUP1 PUSH1 0x1F ADD PUSH1 0x1F NOT AND PUSH1 0x20 ADD DUP3 ADD PUSH1 0x40 MSTORE DUP1 ISZERO PUSH2 0x2289 JUMPI DUP2 PUSH1 0x20 ADD PUSH1 0x1 DUP3 MUL DUP1 CALLDATASIZE DUP4 CALLDATACOPY DUP1 DUP3 ADD SWAP2 POP POP SWAP1 POP JUMPDEST POP SWAP1 POP PUSH32 0x3000000000000000000000000000000000000000000000000000000000000000 DUP2 PUSH1 0x0 DUP2 MLOAD DUP2 LT PUSH2 0x22C1 JUMPI PUSH2 0x22C0 PUSH2 0x4382 JUMP JUMPDEST JUMPDEST PUSH1 0x20 ADD ADD SWAP1 PUSH31 0xFFFFFFFFFFFFFFFFFFFFFFFFFFFFFFFFFFFFFFFFFFFFFFFFFFFFFFFFFFFFFF NOT AND SWAP1 DUP2 PUSH1 0x0 BYTE SWAP1 MSTORE8 POP PUSH32 0x7800000000000000000000000000000000000000000000000000000000000000 DUP2 PUSH1 0x1 DUP2 MLOAD DUP2 LT PUSH2 0x2325 JUMPI PUSH2 0x2324 PUSH2 0x4382 JUMP JUMPDEST JUMPDEST PUSH1 0x20 ADD ADD SWAP1 PUSH31 0xFFFFFFFFFFFFFFFFFFFFFFFFFFFFFFFFFFFFFFFFFFFFFFFFFFFFFFFFFFFFFF NOT AND SWAP1 DUP2 PUSH1 0x0 BYTE SWAP1 MSTORE8 POP PUSH1 0x0 PUSH1 0x1 DUP5 PUSH1 0x2 PUSH2 0x2365 SWAP2 SWAP1 PUSH2 0x4033 JUMP JUMPDEST PUSH2 0x236F SWAP2 SWAP1 PUSH2 0x423D JUMP JUMPDEST SWAP1 POP JUMPDEST PUSH1 0x1 DUP2 GT ISZERO PUSH2 0x240F JUMPI PUSH32 0x3031323334353637383961626364656600000000000000000000000000000000 PUSH1 0xF DUP7 AND PUSH1 0x10 DUP2 LT PUSH2 0x23B1 JUMPI PUSH2 0x23B0 PUSH2 0x4382 JUMP JUMPDEST JUMPDEST BYTE PUSH1 0xF8 SHL DUP3 DUP3 DUP2 MLOAD DUP2 LT PUSH2 0x23C8 JUMPI PUSH2 0x23C7 PUSH2 0x4382 JUMP JUMPDEST JUMPDEST PUSH1 0x20 ADD ADD SWAP1 PUSH31 0xFFFFFFFFFFFFFFFFFFFFFFFFFFFFFFFFFFFFFFFFFFFFFFFFFFFFFFFFFFFFFF NOT AND SWAP1 DUP2 PUSH1 0x0 BYTE SWAP1 MSTORE8 POP PUSH1 0x4 DUP6 SWAP1 SHR SWAP5 POP DUP1 PUSH2 0x2408 SWAP1 PUSH2 0x472C JUMP JUMPDEST SWAP1 POP PUSH2 0x2372 JUMP JUMPDEST POP PUSH1 0x0 DUP5 EQ PUSH2 0x2453 JUMPI PUSH1 0x40 MLOAD PUSH32 0x8C379A000000000000000000000000000000000000000000000000000000000 DUP2 MSTORE PUSH1 0x4 ADD PUSH2 0x244A SWAP1 PUSH2 0x47A1 JUMP JUMPDEST PUSH1 0x40 MLOAD DUP1 SWAP2 SUB SWAP1 REVERT JUMPDEST DUP1 SWAP2 POP POP SWAP3 SWAP2 POP POP JUMP JUMPDEST PUSH1 0x0 PUSH32 0x1FFC9A700000000000000000000000000000000000000000000000000000000 PUSH28 0xFFFFFFFFFFFFFFFFFFFFFFFFFFFFFFFFFFFFFFFFFFFFFFFFFFFFFFFF NOT AND DUP3 PUSH28 0xFFFFFFFFFFFFFFFFFFFFFFFFFFFFFFFFFFFFFFFFFFFFFFFFFFFFFFFF NOT AND EQ SWAP1 POP SWAP2 SWAP1 POP JUMP JUMPDEST PUSH1 0x0 CALLER SWAP1 POP SWAP1 JUMP JUMPDEST PUSH2 0x24D9 DUP3 DUP3 PUSH2 0x10C5 JUMP JUMPDEST PUSH2 0x2568 JUMPI PUSH2 0x24FE DUP2 PUSH20 0xFFFFFFFFFFFFFFFFFFFFFFFFFFFFFFFFFFFFFFFF AND PUSH1 0x14 PUSH2 0x2221 JUMP JUMPDEST PUSH2 0x250C DUP4 PUSH1 0x0 SHR PUSH1 0x20 PUSH2 0x2221 JUMP JUMPDEST PUSH1 0x40 MLOAD PUSH1 0x20 ADD PUSH2 0x251D SWAP3 SWAP2 SWAP1 PUSH2 0x4859 JUMP JUMPDEST PUSH1 0x40 MLOAD PUSH1 0x20 DUP2 DUP4 SUB SUB DUP2 MSTORE SWAP1 PUSH1 0x40 MSTORE PUSH1 0x40 MLOAD PUSH32 0x8C379A000000000000000000000000000000000000000000000000000000000 DUP2 MSTORE PUSH1 0x4 ADD PUSH2 0x255F SWAP2 SWAP1 PUSH2 0x4893 JUMP JUMPDEST PUSH1 0x40 MLOAD DUP1 SWAP2 SUB SWAP1 REVERT JUMPDEST POP POP JUMP JUMPDEST PUSH2 0x2576 DUP3 DUP3 PUSH2 0x10C5 JUMP JUMPDEST PUSH2 0x2649 JUMPI PUSH1 0x1 PUSH1 0x7 PUSH1 0x0 DUP5 DUP2 MSTORE PUSH1 0x20 ADD SWAP1 DUP2 MSTORE PUSH1 0x20 ADD PUSH1 0x0 KECCAK256 PUSH1 0x0 ADD PUSH1 0x0 DUP4 PUSH20 0xFFFFFFFFFFFFFFFFFFFFFFFFFFFFFFFFFFFFFFFF AND PUSH20 0xFFFFFFFFFFFFFFFFFFFFFFFFFFFFFFFFFFFFFFFF AND DUP2 MSTORE PUSH1 0x20 ADD SWAP1 DUP2 MSTORE PUSH1 0x20 ADD PUSH1 0x0 KECCAK256 PUSH1 0x0 PUSH2 0x100 EXP DUP2 SLOAD DUP2 PUSH1 0xFF MUL NOT AND SWAP1 DUP4 ISZERO ISZERO MUL OR SWAP1 SSTORE POP PUSH2 0x25EE PUSH2 0x24C7 JUMP JUMPDEST PUSH20 0xFFFFFFFFFFFFFFFFFFFFFFFFFFFFFFFFFFFFFFFF AND DUP2 PUSH20 0xFFFFFFFFFFFFFFFFFFFFFFFFFFFFFFFFFFFFFFFF AND DUP4 PUSH32 0x2F8788117E7EFF1D82E926EC794901D17C78024A50270940304540A733656F0D PUSH1 0x40 MLOAD PUSH1 0x40 MLOAD DUP1 SWAP2 SUB SWAP1 LOG4 JUMPDEST POP POP JUMP JUMPDEST PUSH2 0x2657 DUP3 DUP3 PUSH2 0x10C5 JUMP JUMPDEST ISZERO PUSH2 0x272B JUMPI PUSH1 0x0 PUSH1 0x7 PUSH1 0x0 DUP5 DUP2 MSTORE PUSH1 0x20 ADD SWAP1 DUP2 MSTORE PUSH1 0x20 ADD PUSH1 0x0 KECCAK256 PUSH1 0x0 ADD PUSH1 0x0 DUP4 PUSH20 0xFFFFFFFFFFFFFFFFFFFFFFFFFFFFFFFFFFFFFFFF AND PUSH20 0xFFFFFFFFFFFFFFFFFFFFFFFFFFFFFFFFFFFFFFFF AND DUP2 MSTORE PUSH1 0x20 ADD SWAP1 DUP2 MSTORE PUSH1 0x20 ADD PUSH1 0x0 KECCAK256 PUSH1 0x0 PUSH2 0x100 EXP DUP2 SLOAD DUP2 PUSH1 0xFF MUL NOT AND SWAP1 DUP4 ISZERO ISZERO MUL OR SWAP1 SSTORE POP PUSH2 0x26D0 PUSH2 0x24C7 JUMP JUMPDEST PUSH20 0xFFFFFFFFFFFFFFFFFFFFFFFFFFFFFFFFFFFFFFFF AND DUP2 PUSH20 0xFFFFFFFFFFFFFFFFFFFFFFFFFFFFFFFFFFFFFFFF AND DUP4 PUSH32 0xF6391F5C32D9C69D2A47EA670B442974B53935D1EDC7FD64EB21E047A839171B PUSH1 0x40 MLOAD PUSH1 0x40 MLOAD DUP1 SWAP2 SUB SWAP1 LOG4 JUMPDEST POP POP JUMP JUMPDEST PUSH2 0x2737 PUSH2 0x31E3 JUMP JUMPDEST PUSH2 0x273F PUSH2 0x31E3 JUMP JUMPDEST PUSH2 0x2756 DUP6 DUP6 DUP6 DUP5 PUSH2 0x29F0 SWAP1 SWAP4 SWAP3 SWAP2 SWAP1 PUSH4 0xFFFFFFFF AND JUMP JUMPDEST SWAP2 POP POP SWAP4 SWAP3 POP POP POP JUMP JUMPDEST PUSH1 0x60 PUSH1 0x0 DUP3 SUB PUSH2 0x27A7 JUMPI PUSH1 0x40 MLOAD DUP1 PUSH1 0x40 ADD PUSH1 0x40 MSTORE DUP1 PUSH1 0x1 DUP2 MSTORE PUSH1 0x20 ADD PUSH32 0x3000000000000000000000000000000000000000000000000000000000000000 DUP2 MSTORE POP SWAP1 POP PUSH2 0x28BB JUMP JUMPDEST PUSH1 0x0 DUP3 SWAP1 POP PUSH1 0x0 JUMPDEST PUSH1 0x0 DUP3 EQ PUSH2 0x27D9 JUMPI DUP1 DUP1 PUSH2 0x27C2 SWAP1 PUSH2 0x42A5 JUMP JUMPDEST SWAP2 POP POP PUSH1 0xA DUP3 PUSH2 0x27D2 SWAP2 SWAP1 PUSH2 0x420C JUMP JUMPDEST SWAP2 POP PUSH2 0x27AF JUMP JUMPDEST PUSH1 0x0 DUP2 PUSH8 0xFFFFFFFFFFFFFFFF DUP2 GT ISZERO PUSH2 0x27F5 JUMPI PUSH2 0x27F4 PUSH2 0x3826 JUMP JUMPDEST JUMPDEST PUSH1 0x40 MLOAD SWAP1 DUP1 DUP3 MSTORE DUP1 PUSH1 0x1F ADD PUSH1 0x1F NOT AND PUSH1 0x20 ADD DUP3 ADD PUSH1 0x40 MSTORE DUP1 ISZERO PUSH2 0x2827 JUMPI DUP2 PUSH1 0x20 ADD PUSH1 0x1 DUP3 MUL DUP1 CALLDATASIZE DUP4 CALLDATACOPY DUP1 DUP3 ADD SWAP2 POP POP SWAP1 POP JUMPDEST POP SWAP1 POP JUMPDEST PUSH1 0x0 DUP6 EQ PUSH2 0x28B4 JUMPI PUSH1 0x1 DUP3 PUSH2 0x2840 SWAP2 SWAP1 PUSH2 0x4271 JUMP JUMPDEST SWAP2 POP PUSH1 0xA DUP6 PUSH2 0x284F SWAP2 SWAP1 PUSH2 0x48B5 JUMP JUMPDEST PUSH1 0x30 PUSH2 0x285B SWAP2 SWAP1 PUSH2 0x423D JUMP JUMPDEST PUSH1 0xF8 SHL DUP2 DUP4 DUP2 MLOAD DUP2 LT PUSH2 0x2871 JUMPI PUSH2 0x2870 PUSH2 0x4382 JUMP JUMPDEST JUMPDEST PUSH1 0x20 ADD ADD SWAP1 PUSH31 0xFFFFFFFFFFFFFFFFFFFFFFFFFFFFFFFFFFFFFFFFFFFFFFFFFFFFFFFFFFFFFF NOT AND SWAP1 DUP2 PUSH1 0x0 BYTE SWAP1 MSTORE8 POP PUSH1 0xA DUP6 PUSH2 0x28AD SWAP2 SWAP1 PUSH2 0x420C JUMP JUMPDEST SWAP5 POP PUSH2 0x282B JUMP JUMPDEST DUP1 SWAP4 POP POP POP POP JUMPDEST SWAP2 SWAP1 POP JUMP JUMPDEST PUSH2 0x28D7 DUP3 DUP5 PUSH1 0x80 ADD MLOAD PUSH2 0x2AA0 SWAP1 SWAP2 SWAP1 PUSH4 0xFFFFFFFF AND JUMP JUMPDEST PUSH2 0x28EE DUP2 DUP5 PUSH1 0x80 ADD MLOAD PUSH2 0x2AA0 SWAP1 SWAP2 SWAP1 PUSH4 0xFFFFFFFF AND JUMP JUMPDEST POP POP POP JUMP JUMPDEST PUSH1 0x0 PUSH2 0x2922 PUSH1 0x3 PUSH1 0x0 SWAP1 SLOAD SWAP1 PUSH2 0x100 EXP SWAP1 DIV PUSH20 0xFFFFFFFFFFFFFFFFFFFFFFFFFFFFFFFFFFFFFFFF AND DUP5 DUP5 PUSH2 0x2AC5 JUMP JUMPDEST SWAP1 POP SWAP3 SWAP2 POP POP JUMP JUMPDEST PUSH1 0x0 PUSH1 0x6 PUSH1 0x0 SWAP1 SLOAD SWAP1 PUSH2 0x100 EXP SWAP1 DIV PUSH20 0xFFFFFFFFFFFFFFFFFFFFFFFFFFFFFFFFFFFFFFFF AND SWAP1 POP DUP2 PUSH1 0x6 PUSH1 0x0 PUSH2 0x100 EXP DUP2 SLOAD DUP2 PUSH20 0xFFFFFFFFFFFFFFFFFFFFFFFFFFFFFFFFFFFFFFFF MUL NOT AND SWAP1 DUP4 PUSH20 0xFFFFFFFFFFFFFFFFFFFFFFFFFFFFFFFFFFFFFFFF AND MUL OR SWAP1 SSTORE POP DUP2 PUSH20 0xFFFFFFFFFFFFFFFFFFFFFFFFFFFFFFFFFFFFFFFF AND DUP2 PUSH20 0xFFFFFFFFFFFFFFFFFFFFFFFFFFFFFFFFFFFFFFFF AND PUSH32 0x8BE0079C531659141344CD1FD0A4F28419497F9722A3DAAFE3B4186F6B6457E0 PUSH1 0x40 MLOAD PUSH1 0x40 MLOAD DUP1 SWAP2 SUB SWAP1 LOG3 POP POP JUMP JUMPDEST PUSH2 0x29F8 PUSH2 0x31E3 JUMP JUMPDEST PUSH2 0x2A08 DUP6 PUSH1 0x80 ADD MLOAD PUSH2 0x100 PUSH2 0x2B91 JUMP JUMPDEST POP DUP4 DUP6 PUSH1 0x0 ADD DUP2 DUP2 MSTORE POP POP DUP3 DUP6 PUSH1 0x20 ADD SWAP1 PUSH20 0xFFFFFFFFFFFFFFFFFFFFFFFFFFFFFFFFFFFFFFFF AND SWAP1 DUP2 PUSH20 0xFFFFFFFFFFFFFFFFFFFFFFFFFFFFFFFFFFFFFFFF AND DUP2 MSTORE POP POP DUP2 DUP6 PUSH1 0x40 ADD SWAP1 PUSH28 0xFFFFFFFFFFFFFFFFFFFFFFFFFFFFFFFFFFFFFFFFFFFFFFFFFFFFFFFF NOT AND SWAP1 DUP2 PUSH28 0xFFFFFFFFFFFFFFFFFFFFFFFFFFFFFFFFFFFFFFFFFFFFFFFFFFFFFFFF NOT AND DUP2 MSTORE POP POP DUP5 SWAP1 POP SWAP5 SWAP4 POP POP POP POP JUMP JUMPDEST PUSH2 0x2AAD DUP3 PUSH1 0x3 DUP4 MLOAD PUSH2 0x2BFB JUMP JUMPDEST PUSH2 0x2AC0 DUP2 DUP4 PUSH2 0x2D80 SWAP1 SWAP2 SWAP1 PUSH4 0xFFFFFFFF AND JUMP JUMPDEST POP POP POP JUMP JUMPDEST PUSH1 0x0 DUP1 PUSH1 0x4 SLOAD SWAP1 POP PUSH1 0x1 DUP2 PUSH2 0x2ADA SWAP2 SWAP1 PUSH2 0x423D JUMP JUMPDEST PUSH1 0x4 DUP2 SWAP1 SSTORE POP PUSH1 0x0 PUSH4 0x40429946 PUSH1 0xE0 SHL PUSH1 0x0 DUP1 DUP8 PUSH1 0x0 ADD MLOAD ADDRESS DUP10 PUSH1 0x40 ADD MLOAD DUP8 PUSH1 0x1 DUP13 PUSH1 0x80 ADD MLOAD PUSH1 0x0 ADD MLOAD PUSH1 0x40 MLOAD PUSH1 0x24 ADD PUSH2 0x2B1B SWAP9 SWAP8 SWAP7 SWAP6 SWAP5 SWAP4 SWAP3 SWAP2 SWAP1 PUSH2 0x494A JUMP JUMPDEST PUSH1 0x40 MLOAD PUSH1 0x20 DUP2 DUP4 SUB SUB DUP2 MSTORE SWAP1 PUSH1 0x40 MSTORE SWAP1 PUSH28 0xFFFFFFFFFFFFFFFFFFFFFFFFFFFFFFFFFFFFFFFFFFFFFFFFFFFFFFFF NOT AND PUSH1 0x20 DUP3 ADD DUP1 MLOAD PUSH28 0xFFFFFFFFFFFFFFFFFFFFFFFFFFFFFFFFFFFFFFFFFFFFFFFFFFFFFFFF DUP4 DUP2 DUP4 AND OR DUP4 MSTORE POP POP POP POP SWAP1 POP PUSH2 0x2B86 DUP7 DUP4 DUP7 DUP5 PUSH2 0x2DA2 JUMP JUMPDEST SWAP3 POP POP POP SWAP4 SWAP3 POP POP POP JUMP JUMPDEST PUSH2 0x2B99 PUSH2 0x3250 JUMP JUMPDEST PUSH1 0x0 PUSH1 0x20 DUP4 PUSH2 0x2BA8 SWAP2 SWAP1 PUSH2 0x48B5 JUMP JUMPDEST EQ PUSH2 0x2BD4 JUMPI PUSH1 0x20 DUP3 PUSH2 0x2BBA SWAP2 SWAP1 PUSH2 0x48B5 JUMP JUMPDEST PUSH1 0x20 PUSH2 0x2BC6 SWAP2 SWAP1 PUSH2 0x4271 JUMP JUMPDEST DUP3 PUSH2 0x2BD1 SWAP2 SWAP1 PUSH2 0x423D JUMP JUMPDEST SWAP2 POP JUMPDEST DUP2 DUP4 PUSH1 0x20 ADD DUP2 DUP2 MSTORE POP POP PUSH1 0x40 MLOAD DUP1 DUP5 MSTORE PUSH1 0x0 DUP2 MSTORE DUP3 DUP2 ADD PUSH1 0x20 ADD PUSH1 0x40 MSTORE POP DUP3 SWAP1 POP SWAP3 SWAP2 POP POP JUMP JUMPDEST PUSH1 0x17 DUP2 PUSH8 0xFFFFFFFFFFFFFFFF AND GT PUSH2 0x2C32 JUMPI PUSH2 0x2C2C DUP2 PUSH1 0x5 DUP5 PUSH1 0xFF AND SWAP1 SHL PUSH1 0xFF AND OR DUP5 PUSH2 0x2F37 SWAP1 SWAP2 SWAP1 PUSH4 0xFFFFFFFF AND JUMP JUMPDEST POP PUSH2 0x2D7B JUMP JUMPDEST PUSH1 0xFF DUP2 PUSH8 0xFFFFFFFFFFFFFFFF AND GT PUSH2 0x2C88 JUMPI PUSH2 0x2C61 PUSH1 0x18 PUSH1 0x5 DUP5 PUSH1 0xFF AND SWAP1 SHL OR DUP5 PUSH2 0x2F37 SWAP1 SWAP2 SWAP1 PUSH4 0xFFFFFFFF AND JUMP JUMPDEST POP PUSH2 0x2C82 DUP2 PUSH8 0xFFFFFFFFFFFFFFFF AND PUSH1 0x1 DUP6 PUSH2 0x2F57 SWAP1 SWAP3 SWAP2 SWAP1 PUSH4 0xFFFFFFFF AND JUMP JUMPDEST POP PUSH2 0x2D7A JUMP JUMPDEST PUSH2 0xFFFF DUP2 PUSH8 0xFFFFFFFFFFFFFFFF AND GT PUSH2 0x2CDF JUMPI PUSH2 0x2CB8 PUSH1 0x19 PUSH1 0x5 DUP5 PUSH1 0xFF AND SWAP1 SHL OR DUP5 PUSH2 0x2F37 SWAP1 SWAP2 SWAP1 PUSH4 0xFFFFFFFF AND JUMP JUMPDEST POP PUSH2 0x2CD9 DUP2 PUSH8 0xFFFFFFFFFFFFFFFF AND PUSH1 0x2 DUP6 PUSH2 0x2F57 SWAP1 SWAP3 SWAP2 SWAP1 PUSH4 0xFFFFFFFF AND JUMP JUMPDEST POP PUSH2 0x2D79 JUMP JUMPDEST PUSH4 0xFFFFFFFF DUP2 PUSH8 0xFFFFFFFFFFFFFFFF AND GT PUSH2 0x2D38 JUMPI PUSH2 0x2D11 PUSH1 0x1A PUSH1 0x5 DUP5 PUSH1 0xFF AND SWAP1 SHL OR DUP5 PUSH2 0x2F37 SWAP1 SWAP2 SWAP1 PUSH4 0xFFFFFFFF AND JUMP JUMPDEST POP PUSH2 0x2D32 DUP2 PUSH8 0xFFFFFFFFFFFFFFFF AND PUSH1 0x4 DUP6 PUSH2 0x2F57 SWAP1 SWAP3 SWAP2 SWAP1 PUSH4 0xFFFFFFFF AND JUMP JUMPDEST POP PUSH2 0x2D78 JUMP JUMPDEST PUSH2 0x2D55 PUSH1 0x1B PUSH1 0x5 DUP5 PUSH1 0xFF AND SWAP1 SHL OR DUP5 PUSH2 0x2F37 SWAP1 SWAP2 SWAP1 PUSH4 0xFFFFFFFF AND JUMP JUMPDEST POP PUSH2 0x2D76 DUP2 PUSH8 0xFFFFFFFFFFFFFFFF AND PUSH1 0x8 DUP6 PUSH2 0x2F57 SWAP1 SWAP3 SWAP2 SWAP1 PUSH4 0xFFFFFFFF AND JUMP JUMPDEST POP JUMPDEST JUMPDEST JUMPDEST JUMPDEST POP POP POP JUMP JUMPDEST PUSH2 0x2D88 PUSH2 0x3250 JUMP JUMPDEST PUSH2 0x2D9A DUP4 DUP5 PUSH1 0x0 ADD MLOAD MLOAD DUP5 DUP6 MLOAD PUSH2 0x2F79 JUMP JUMPDEST SWAP1 POP SWAP3 SWAP2 POP POP JUMP JUMPDEST PUSH1 0x0 ADDRESS DUP5 PUSH1 0x40 MLOAD PUSH1 0x20 ADD PUSH2 0x2DB7 SWAP3 SWAP2 SWAP1 PUSH2 0x4A4A JUMP JUMPDEST PUSH1 0x40 MLOAD PUSH1 0x20 DUP2 DUP4 SUB SUB DUP2 MSTORE SWAP1 PUSH1 0x40 MSTORE DUP1 MLOAD SWAP1 PUSH1 0x20 ADD KECCAK256 SWAP1 POP DUP5 PUSH1 0x5 PUSH1 0x0 DUP4 DUP2 MSTORE PUSH1 0x20 ADD SWAP1 DUP2 MSTORE PUSH1 0x20 ADD PUSH1 0x0 KECCAK256 PUSH1 0x0 PUSH2 0x100 EXP DUP2 SLOAD DUP2 PUSH20 0xFFFFFFFFFFFFFFFFFFFFFFFFFFFFFFFFFFFFFFFF MUL NOT AND SWAP1 DUP4 PUSH20 0xFFFFFFFFFFFFFFFFFFFFFFFFFFFFFFFFFFFFFFFF AND MUL OR SWAP1 SSTORE POP DUP1 PUSH32 0xB5E6E01E79F91267DC17B4E6314D5D4D03593D2CEEE0FBB452B750BD70EA5AF9 PUSH1 0x40 MLOAD PUSH1 0x40 MLOAD DUP1 SWAP2 SUB SWAP1 LOG2 PUSH1 0x2 PUSH1 0x0 SWAP1 SLOAD SWAP1 PUSH2 0x100 EXP SWAP1 DIV PUSH20 0xFFFFFFFFFFFFFFFFFFFFFFFFFFFFFFFFFFFFFFFF AND PUSH20 0xFFFFFFFFFFFFFFFFFFFFFFFFFFFFFFFFFFFFFFFF AND PUSH4 0x4000AEA0 DUP7 DUP6 DUP6 PUSH1 0x40 MLOAD DUP5 PUSH4 0xFFFFFFFF AND PUSH1 0xE0 SHL DUP2 MSTORE PUSH1 0x4 ADD PUSH2 0x2EAD SWAP4 SWAP3 SWAP2 SWAP1 PUSH2 0x4A76 JUMP JUMPDEST PUSH1 0x20 PUSH1 0x40 MLOAD DUP1 DUP4 SUB DUP2 PUSH1 0x0 DUP8 GAS CALL ISZERO DUP1 ISZERO PUSH2 0x2ECC JUMPI RETURNDATASIZE PUSH1 0x0 DUP1 RETURNDATACOPY RETURNDATASIZE PUSH1 0x0 REVERT JUMPDEST POP POP POP POP PUSH1 0x40 MLOAD RETURNDATASIZE PUSH1 0x1F NOT PUSH1 0x1F DUP3 ADD AND DUP3 ADD DUP1 PUSH1 0x40 MSTORE POP DUP2 ADD SWAP1 PUSH2 0x2EF0 SWAP2 SWAP1 PUSH2 0x40D8 JUMP JUMPDEST PUSH2 0x2F2F JUMPI PUSH1 0x40 MLOAD PUSH32 0x8C379A000000000000000000000000000000000000000000000000000000000 DUP2 MSTORE PUSH1 0x4 ADD PUSH2 0x2F26 SWAP1 PUSH2 0x4B26 JUMP JUMPDEST PUSH1 0x40 MLOAD DUP1 SWAP2 SUB SWAP1 REVERT JUMPDEST SWAP5 SWAP4 POP POP POP POP JUMP JUMPDEST PUSH2 0x2F3F PUSH2 0x3250 JUMP JUMPDEST PUSH2 0x2F4F DUP4 DUP5 PUSH1 0x0 ADD MLOAD MLOAD DUP5 PUSH2 0x3068 JUMP JUMPDEST SWAP1 POP SWAP3 SWAP2 POP POP JUMP JUMPDEST PUSH2 0x2F5F PUSH2 0x3250 JUMP JUMPDEST PUSH2 0x2F70 DUP5 DUP6 PUSH1 0x0 ADD MLOAD MLOAD DUP6 DUP6 PUSH2 0x30BE JUMP JUMPDEST SWAP1 POP SWAP4 SWAP3 POP POP POP JUMP JUMPDEST PUSH2 0x2F81 PUSH2 0x3250 JUMP JUMPDEST DUP3 MLOAD DUP3 GT ISZERO PUSH2 0x2F8F JUMPI PUSH1 0x0 DUP1 REVERT JUMPDEST DUP5 PUSH1 0x20 ADD MLOAD DUP3 DUP6 PUSH2 0x2FA0 SWAP2 SWAP1 PUSH2 0x423D JUMP JUMPDEST GT ISZERO PUSH2 0x2FD5 JUMPI PUSH2 0x2FD4 DUP6 PUSH1 0x2 PUSH2 0x2FC5 DUP9 PUSH1 0x20 ADD MLOAD DUP9 DUP8 PUSH2 0x2FC0 SWAP2 SWAP1 PUSH2 0x423D JUMP JUMPDEST PUSH2 0x314C JUMP JUMPDEST PUSH2 0x2FCF SWAP2 SWAP1 PUSH2 0x4033 JUMP JUMPDEST PUSH2 0x3168 JUMP JUMPDEST JUMPDEST PUSH1 0x0 DUP1 DUP7 MLOAD DUP1 MLOAD DUP8 PUSH1 0x20 DUP4 ADD ADD SWAP4 POP DUP1 DUP9 DUP8 ADD GT ISZERO PUSH2 0x2FF4 JUMPI DUP8 DUP7 ADD DUP3 MSTORE JUMPDEST PUSH1 0x20 DUP8 ADD SWAP3 POP POP POP JUMPDEST PUSH1 0x20 DUP5 LT PUSH2 0x303B JUMPI DUP1 MLOAD DUP3 MSTORE PUSH1 0x20 DUP3 PUSH2 0x3016 SWAP2 SWAP1 PUSH2 0x423D JUMP JUMPDEST SWAP2 POP PUSH1 0x20 DUP2 PUSH2 0x3025 SWAP2 SWAP1 PUSH2 0x423D JUMP JUMPDEST SWAP1 POP PUSH1 0x20 DUP5 PUSH2 0x3034 SWAP2 SWAP1 PUSH2 0x4271 JUMP JUMPDEST SWAP4 POP PUSH2 0x2FFD JUMP JUMPDEST PUSH1 0x0 PUSH1 0x1 DUP6 PUSH1 0x20 SUB PUSH2 0x100 EXP SUB SWAP1 POP DUP1 NOT DUP3 MLOAD AND DUP2 DUP5 MLOAD AND DUP2 DUP2 OR DUP6 MSTORE POP POP POP DUP7 SWAP3 POP POP POP SWAP5 SWAP4 POP POP POP POP JUMP JUMPDEST PUSH2 0x3070 PUSH2 0x3250 JUMP JUMPDEST DUP4 PUSH1 0x20 ADD MLOAD DUP4 LT PUSH2 0x3096 JUMPI PUSH2 0x3095 DUP5 PUSH1 0x2 DUP7 PUSH1 0x20 ADD MLOAD PUSH2 0x3090 SWAP2 SWAP1 PUSH2 0x4033 JUMP JUMPDEST PUSH2 0x3168 JUMP JUMPDEST JUMPDEST DUP4 MLOAD DUP1 MLOAD PUSH1 0x20 DUP6 DUP4 ADD ADD DUP5 DUP2 MSTORE8 DUP2 DUP7 SUB PUSH2 0x30B1 JUMPI PUSH1 0x1 DUP3 ADD DUP4 MSTORE JUMPDEST POP POP POP DUP4 SWAP1 POP SWAP4 SWAP3 POP POP POP JUMP JUMPDEST PUSH2 0x30C6 PUSH2 0x3250 JUMP JUMPDEST DUP5 PUSH1 0x20 ADD MLOAD DUP5 DUP4 PUSH2 0x30D7 SWAP2 SWAP1 PUSH2 0x423D JUMP JUMPDEST GT ISZERO PUSH2 0x30FF JUMPI PUSH2 0x30FE DUP6 PUSH1 0x2 DUP7 DUP6 PUSH2 0x30EF SWAP2 SWAP1 PUSH2 0x423D JUMP JUMPDEST PUSH2 0x30F9 SWAP2 SWAP1 PUSH2 0x4033 JUMP JUMPDEST PUSH2 0x3168 JUMP JUMPDEST JUMPDEST PUSH1 0x0 PUSH1 0x1 DUP4 PUSH2 0x100 PUSH2 0x3111 SWAP2 SWAP1 PUSH2 0x4C79 JUMP JUMPDEST PUSH2 0x311B SWAP2 SWAP1 PUSH2 0x4271 JUMP JUMPDEST SWAP1 POP DUP6 MLOAD DUP4 DUP7 DUP3 ADD ADD DUP6 DUP4 NOT DUP3 MLOAD AND OR DUP2 MSTORE DUP2 MLOAD DUP6 DUP9 ADD GT ISZERO PUSH2 0x313E JUMPI DUP5 DUP8 ADD DUP3 MSTORE JUMPDEST POP POP DUP6 SWAP2 POP POP SWAP5 SWAP4 POP POP POP POP JUMP JUMPDEST PUSH1 0x0 DUP2 DUP4 GT ISZERO PUSH2 0x315E JUMPI DUP3 SWAP1 POP PUSH2 0x3162 JUMP JUMPDEST DUP2 SWAP1 POP JUMPDEST SWAP3 SWAP2 POP POP JUMP JUMPDEST PUSH1 0x0 DUP3 PUSH1 0x0 ADD MLOAD SWAP1 POP PUSH2 0x317B DUP4 DUP4 PUSH2 0x2B91 JUMP JUMPDEST POP PUSH2 0x3186 DUP4 DUP3 PUSH2 0x2D80 JUMP JUMPDEST POP POP POP POP JUMP JUMPDEST PUSH1 0x40 MLOAD DUP1 PUSH1 0xE0 ADD PUSH1 0x40 MSTORE DUP1 PUSH1 0x0 PUSH20 0xFFFFFFFFFFFFFFFFFFFFFFFFFFFFFFFFFFFFFFFF AND DUP2 MSTORE PUSH1 0x20 ADD PUSH1 0x0 DUP2 MSTORE PUSH1 0x20 ADD PUSH1 0x0 DUP2 MSTORE PUSH1 0x20 ADD PUSH1 0x0 DUP2 MSTORE PUSH1 0x20 ADD PUSH1 0x0 DUP2 MSTORE PUSH1 0x20 ADD PUSH1 0x0 ISZERO ISZERO DUP2 MSTORE PUSH1 0x20 ADD PUSH1 0x0 ISZERO ISZERO DUP2 MSTORE POP SWAP1 JUMP JUMPDEST PUSH1 0x40 MLOAD DUP1 PUSH1 0xA0 ADD PUSH1 0x40 MSTORE DUP1 PUSH1 0x0 DUP1 NOT AND DUP2 MSTORE PUSH1 0x20 ADD PUSH1 0x0 PUSH20 0xFFFFFFFFFFFFFFFFFFFFFFFFFFFFFFFFFFFFFFFF AND DUP2 MSTORE PUSH1 0x20 ADD PUSH1 0x0 PUSH28 0xFFFFFFFFFFFFFFFFFFFFFFFFFFFFFFFFFFFFFFFFFFFFFFFFFFFFFFFF NOT AND DUP2 MSTORE PUSH1 0x20 ADD PUSH1 0x0 DUP2 MSTORE PUSH1 0x20 ADD PUSH2 0x324A PUSH2 0x3250 JUMP JUMPDEST DUP2 MSTORE POP SWAP1 JUMP JUMPDEST PUSH1 0x40 MLOAD DUP1 PUSH1 0x40 ADD PUSH1 0x40 MSTORE DUP1 PUSH1 0x60 DUP2 MSTORE PUSH1 0x20 ADD PUSH1 0x0 DUP2 MSTORE POP SWAP1 JUMP JUMPDEST PUSH1 0x0 PUSH1 0x40 MLOAD SWAP1 POP SWAP1 JUMP JUMPDEST PUSH1 0x0 DUP1 REVERT JUMPDEST PUSH1 0x0 DUP1 REVERT JUMPDEST PUSH1 0x0 PUSH32 0xFFFFFFFF00000000000000000000000000000000000000000000000000000000 DUP3 AND SWAP1 POP SWAP2 SWAP1 POP JUMP JUMPDEST PUSH2 0x32B3 DUP2 PUSH2 0x327E JUMP JUMPDEST DUP2 EQ PUSH2 0x32BE JUMPI PUSH1 0x0 DUP1 REVERT JUMPDEST POP JUMP JUMPDEST PUSH1 0x0 DUP2 CALLDATALOAD SWAP1 POP PUSH2 0x32D0 DUP2 PUSH2 0x32AA JUMP JUMPDEST SWAP3 SWAP2 POP POP JUMP JUMPDEST PUSH1 0x0 PUSH1 0x20 DUP3 DUP5 SUB SLT ISZERO PUSH2 0x32EC JUMPI PUSH2 0x32EB PUSH2 0x3274 JUMP JUMPDEST JUMPDEST PUSH1 0x0 PUSH2 0x32FA DUP5 DUP3 DUP6 ADD PUSH2 0x32C1 JUMP JUMPDEST SWAP2 POP POP SWAP3 SWAP2 POP POP JUMP JUMPDEST PUSH1 0x0 DUP2 ISZERO ISZERO SWAP1 POP SWAP2 SWAP1 POP JUMP JUMPDEST PUSH2 0x3318 DUP2 PUSH2 0x3303 JUMP JUMPDEST DUP3 MSTORE POP POP JUMP JUMPDEST PUSH1 0x0 PUSH1 0x20 DUP3 ADD SWAP1 POP PUSH2 0x3333 PUSH1 0x0 DUP4 ADD DUP5 PUSH2 0x330F JUMP JUMPDEST SWAP3 SWAP2 POP POP JUMP JUMPDEST PUSH1 0x0 DUP2 SWAP1 POP SWAP2 SWAP1 POP JUMP JUMPDEST PUSH2 0x334C DUP2 PUSH2 0x3339 JUMP JUMPDEST DUP2 EQ PUSH2 0x3357 JUMPI PUSH1 0x0 DUP1 REVERT JUMPDEST POP JUMP JUMPDEST PUSH1 0x0 DUP2 CALLDATALOAD SWAP1 POP PUSH2 0x3369 DUP2 PUSH2 0x3343 JUMP JUMPDEST SWAP3 SWAP2 POP POP JUMP JUMPDEST PUSH1 0x0 PUSH1 0x20 DUP3 DUP5 SUB SLT ISZERO PUSH2 0x3385 JUMPI PUSH2 0x3384 PUSH2 0x3274 JUMP JUMPDEST JUMPDEST PUSH1 0x0 PUSH2 0x3393 DUP5 DUP3 DUP6 ADD PUSH2 0x335A JUMP JUMPDEST SWAP2 POP POP SWAP3 SWAP2 POP POP JUMP JUMPDEST PUSH1 0x0 DUP2 MLOAD SWAP1 POP SWAP2 SWAP1 POP JUMP JUMPDEST PUSH1 0x0 DUP3 DUP3 MSTORE PUSH1 0x20 DUP3 ADD SWAP1 POP SWAP3 SWAP2 POP POP JUMP JUMPDEST PUSH1 0x0 JUMPDEST DUP4 DUP2 LT ISZERO PUSH2 0x33D6 JUMPI DUP1 DUP3 ADD MLOAD DUP2 DUP5 ADD MSTORE PUSH1 0x20 DUP2 ADD SWAP1 POP PUSH2 0x33BB JUMP JUMPDEST PUSH1 0x0 DUP5 DUP5 ADD MSTORE POP POP POP POP JUMP JUMPDEST PUSH1 0x0 PUSH1 0x1F NOT PUSH1 0x1F DUP4 ADD AND SWAP1 POP SWAP2 SWAP1 POP JUMP JUMPDEST PUSH1 0x0 PUSH2 0x33FE DUP3 PUSH2 0x339C JUMP JUMPDEST PUSH2 0x3408 DUP2 DUP6 PUSH2 0x33A7 JUMP JUMPDEST SWAP4 POP PUSH2 0x3418 DUP2 DUP6 PUSH1 0x20 DUP7 ADD PUSH2 0x33B8 JUMP JUMPDEST PUSH2 0x3421 DUP2 PUSH2 0x33E2 JUMP JUMPDEST DUP5 ADD SWAP2 POP POP SWAP3 SWAP2 POP POP JUMP JUMPDEST PUSH2 0x3435 DUP2 PUSH2 0x3339 JUMP JUMPDEST DUP3 MSTORE POP POP JUMP JUMPDEST PUSH1 0x0 PUSH2 0x120 DUP3 ADD SWAP1 POP DUP2 DUP2 SUB PUSH1 0x0 DUP4 ADD MSTORE PUSH2 0x3456 DUP2 DUP13 PUSH2 0x33F3 JUMP JUMPDEST SWAP1 POP DUP2 DUP2 SUB PUSH1 0x20 DUP4 ADD MSTORE PUSH2 0x346A DUP2 DUP12 PUSH2 0x33F3 JUMP JUMPDEST SWAP1 POP PUSH2 0x3479 PUSH1 0x40 DUP4 ADD DUP11 PUSH2 0x342C JUMP JUMPDEST PUSH2 0x3486 PUSH1 0x60 DUP4 ADD DUP10 PUSH2 0x342C JUMP JUMPDEST PUSH2 0x3493 PUSH1 0x80 DUP4 ADD DUP9 PUSH2 0x342C JUMP JUMPDEST PUSH2 0x34A0 PUSH1 0xA0 DUP4 ADD DUP8 PUSH2 0x330F JUMP JUMPDEST PUSH2 0x34AD PUSH1 0xC0 DUP4 ADD DUP7 PUSH2 0x342C JUMP JUMPDEST PUSH2 0x34BA PUSH1 0xE0 DUP4 ADD DUP6 PUSH2 0x342C JUMP JUMPDEST PUSH2 0x34C8 PUSH2 0x100 DUP4 ADD DUP5 PUSH2 0x342C JUMP JUMPDEST SWAP11 SWAP10 POP POP POP POP POP POP POP POP POP POP JUMP JUMPDEST PUSH1 0x0 DUP2 SWAP1 POP SWAP2 SWAP1 POP JUMP JUMPDEST PUSH2 0x34E9 DUP2 PUSH2 0x34D6 JUMP JUMPDEST DUP3 MSTORE POP POP JUMP JUMPDEST PUSH1 0x0 PUSH1 0x20 DUP3 ADD SWAP1 POP PUSH2 0x3504 PUSH1 0x0 DUP4 ADD DUP5 PUSH2 0x34E0 JUMP JUMPDEST SWAP3 SWAP2 POP POP JUMP JUMPDEST PUSH2 0x3513 DUP2 PUSH2 0x34D6 JUMP JUMPDEST DUP2 EQ PUSH2 0x351E JUMPI PUSH1 0x0 DUP1 REVERT JUMPDEST POP JUMP JUMPDEST PUSH1 0x0 DUP2 CALLDATALOAD SWAP1 POP PUSH2 0x3530 DUP2 PUSH2 0x350A JUMP JUMPDEST SWAP3 SWAP2 POP POP JUMP JUMPDEST PUSH1 0x0 PUSH1 0x20 DUP3 DUP5 SUB SLT ISZERO PUSH2 0x354C JUMPI PUSH2 0x354B PUSH2 0x3274 JUMP JUMPDEST JUMPDEST PUSH1 0x0 PUSH2 0x355A DUP5 DUP3 DUP6 ADD PUSH2 0x3521 JUMP JUMPDEST SWAP2 POP POP SWAP3 SWAP2 POP POP JUMP JUMPDEST PUSH1 0x0 PUSH20 0xFFFFFFFFFFFFFFFFFFFFFFFFFFFFFFFFFFFFFFFF DUP3 AND SWAP1 POP SWAP2 SWAP1 POP JUMP JUMPDEST PUSH1 0x0 PUSH2 0x358E DUP3 PUSH2 0x3563 JUMP JUMPDEST SWAP1 POP SWAP2 SWAP1 POP JUMP JUMPDEST PUSH2 0x359E DUP2 PUSH2 0x3583 JUMP JUMPDEST DUP2 EQ PUSH2 0x35A9 JUMPI PUSH1 0x0 DUP1 REVERT JUMPDEST POP JUMP JUMPDEST PUSH1 0x0 DUP2 CALLDATALOAD SWAP1 POP PUSH2 0x35BB DUP2 PUSH2 0x3595 JUMP JUMPDEST SWAP3 SWAP2 POP POP JUMP JUMPDEST PUSH1 0x0 DUP1 PUSH1 0x40 DUP4 DUP6 SUB SLT ISZERO PUSH2 0x35D8 JUMPI PUSH2 0x35D7 PUSH2 0x3274 JUMP JUMPDEST JUMPDEST PUSH1 0x0 PUSH2 0x35E6 DUP6 DUP3 DUP7 ADD PUSH2 0x3521 JUMP JUMPDEST SWAP3 POP POP PUSH1 0x20 PUSH2 0x35F7 DUP6 DUP3 DUP7 ADD PUSH2 0x35AC JUMP JUMPDEST SWAP2 POP POP SWAP3 POP SWAP3 SWAP1 POP JUMP JUMPDEST PUSH1 0x0 DUP1 PUSH1 0x40 DUP4 DUP6 SUB SLT ISZERO PUSH2 0x3618 JUMPI PUSH2 0x3617 PUSH2 0x3274 JUMP JUMPDEST JUMPDEST PUSH1 0x0 PUSH2 0x3626 DUP6 DUP3 DUP7 ADD PUSH2 0x335A JUMP JUMPDEST SWAP3 POP POP PUSH1 0x20 PUSH2 0x3637 DUP6 DUP3 DUP7 ADD PUSH2 0x335A JUMP JUMPDEST SWAP2 POP POP SWAP3 POP SWAP3 SWAP1 POP JUMP JUMPDEST PUSH2 0x364A DUP2 PUSH2 0x3583 JUMP JUMPDEST DUP3 MSTORE POP POP JUMP JUMPDEST PUSH1 0x0 PUSH1 0xE0 DUP3 ADD SWAP1 POP PUSH2 0x3665 PUSH1 0x0 DUP4 ADD DUP11 PUSH2 0x3641 JUMP JUMPDEST PUSH2 0x3672 PUSH1 0x20 DUP4 ADD DUP10 PUSH2 0x342C JUMP JUMPDEST PUSH2 0x367F PUSH1 0x40 DUP4 ADD DUP9 PUSH2 0x342C JUMP JUMPDEST PUSH2 0x368C PUSH1 0x60 DUP4 ADD DUP8 PUSH2 0x342C JUMP JUMPDEST PUSH2 0x3699 PUSH1 0x80 DUP4 ADD DUP7 PUSH2 0x342C JUMP JUMPDEST PUSH2 0x36A6 PUSH1 0xA0 DUP4 ADD DUP6 PUSH2 0x330F JUMP JUMPDEST PUSH2 0x36B3 PUSH1 0xC0 DUP4 ADD DUP5 PUSH2 0x330F JUMP JUMPDEST SWAP9 SWAP8 POP POP POP POP POP POP POP POP JUMP JUMPDEST PUSH1 0x0 DUP1 PUSH1 0x40 DUP4 DUP6 SUB SLT ISZERO PUSH2 0x36D6 JUMPI PUSH2 0x36D5 PUSH2 0x3274 JUMP JUMPDEST JUMPDEST PUSH1 0x0 PUSH2 0x36E4 DUP6 DUP3 DUP7 ADD PUSH2 0x3521 JUMP JUMPDEST SWAP3 POP POP PUSH1 0x20 PUSH2 0x36F5 DUP6 DUP3 DUP7 ADD PUSH2 0x335A JUMP JUMPDEST SWAP2 POP POP SWAP3 POP SWAP3 SWAP1 POP JUMP JUMPDEST PUSH1 0x0 PUSH1 0x20 DUP3 ADD SWAP1 POP PUSH2 0x3714 PUSH1 0x0 DUP4 ADD DUP5 PUSH2 0x342C JUMP JUMPDEST SWAP3 SWAP2 POP POP JUMP JUMPDEST PUSH1 0x0 PUSH1 0x20 DUP3 ADD SWAP1 POP PUSH2 0x372F PUSH1 0x0 DUP4 ADD DUP5 PUSH2 0x3641 JUMP JUMPDEST SWAP3 SWAP2 POP POP JUMP JUMPDEST PUSH1 0x0 PUSH1 0x20 DUP3 DUP5 SUB SLT ISZERO PUSH2 0x374B JUMPI PUSH2 0x374A PUSH2 0x3274 JUMP JUMPDEST JUMPDEST PUSH1 0x0 PUSH2 0x3759 DUP5 DUP3 DUP6 ADD PUSH2 0x35AC JUMP JUMPDEST SWAP2 POP POP SWAP3 SWAP2 POP POP JUMP JUMPDEST PUSH1 0x0 DUP1 PUSH1 0x0 DUP1 PUSH1 0x80 DUP6 DUP8 SUB SLT ISZERO PUSH2 0x377C JUMPI PUSH2 0x377B PUSH2 0x3274 JUMP JUMPDEST JUMPDEST PUSH1 0x0 PUSH2 0x378A DUP8 DUP3 DUP9 ADD PUSH2 0x335A JUMP JUMPDEST SWAP5 POP POP PUSH1 0x20 PUSH2 0x379B DUP8 DUP3 DUP9 ADD PUSH2 0x335A JUMP JUMPDEST SWAP4 POP POP PUSH1 0x40 PUSH2 0x37AC DUP8 DUP3 DUP9 ADD PUSH2 0x335A JUMP JUMPDEST SWAP3 POP POP PUSH1 0x60 PUSH2 0x37BD DUP8 DUP3 DUP9 ADD PUSH2 0x335A JUMP JUMPDEST SWAP2 POP POP SWAP3 SWAP6 SWAP2 SWAP5 POP SWAP3 POP JUMP JUMPDEST PUSH1 0x0 DUP1 PUSH1 0x0 PUSH1 0x60 DUP5 DUP7 SUB SLT ISZERO PUSH2 0x37E2 JUMPI PUSH2 0x37E1 PUSH2 0x3274 JUMP JUMPDEST JUMPDEST PUSH1 0x0 PUSH2 0x37F0 DUP7 DUP3 DUP8 ADD PUSH2 0x335A JUMP JUMPDEST SWAP4 POP POP PUSH1 0x20 PUSH2 0x3801 DUP7 DUP3 DUP8 ADD PUSH2 0x335A JUMP JUMPDEST SWAP3 POP POP PUSH1 0x40 PUSH2 0x3812 DUP7 DUP3 DUP8 ADD PUSH2 0x335A JUMP JUMPDEST SWAP2 POP POP SWAP3 POP SWAP3 POP SWAP3 JUMP JUMPDEST PUSH1 0x0 DUP1 REVERT JUMPDEST PUSH1 0x0 DUP1 REVERT JUMPDEST PUSH32 0x4E487B7100000000000000000000000000000000000000000000000000000000 PUSH1 0x0 MSTORE PUSH1 0x41 PUSH1 0x4 MSTORE PUSH1 0x24 PUSH1 0x0 REVERT JUMPDEST PUSH2 0x385E DUP3 PUSH2 0x33E2 JUMP JUMPDEST DUP2 ADD DUP2 DUP2 LT PUSH8 0xFFFFFFFFFFFFFFFF DUP3 GT OR ISZERO PUSH2 0x387D JUMPI PUSH2 0x387C PUSH2 0x3826 JUMP JUMPDEST JUMPDEST DUP1 PUSH1 0x40 MSTORE POP POP POP JUMP JUMPDEST PUSH1 0x0 PUSH2 0x3890 PUSH2 0x326A JUMP JUMPDEST SWAP1 POP PUSH2 0x389C DUP3 DUP3 PUSH2 0x3855 JUMP JUMPDEST SWAP2 SWAP1 POP JUMP JUMPDEST PUSH1 0x0 PUSH8 0xFFFFFFFFFFFFFFFF DUP3 GT ISZERO PUSH2 0x38BC JUMPI PUSH2 0x38BB PUSH2 0x3826 JUMP JUMPDEST JUMPDEST PUSH2 0x38C5 DUP3 PUSH2 0x33E2 JUMP JUMPDEST SWAP1 POP PUSH1 0x20 DUP2 ADD SWAP1 POP SWAP2 SWAP1 POP JUMP JUMPDEST DUP3 DUP2 DUP4 CALLDATACOPY PUSH1 0x0 DUP4 DUP4 ADD MSTORE POP POP POP JUMP JUMPDEST PUSH1 0x0 PUSH2 0x38F4 PUSH2 0x38EF DUP5 PUSH2 0x38A1 JUMP JUMPDEST PUSH2 0x3886 JUMP JUMPDEST SWAP1 POP DUP3 DUP2 MSTORE PUSH1 0x20 DUP2 ADD DUP5 DUP5 DUP5 ADD GT ISZERO PUSH2 0x3910 JUMPI PUSH2 0x390F PUSH2 0x3821 JUMP JUMPDEST JUMPDEST PUSH2 0x391B DUP5 DUP3 DUP6 PUSH2 0x38D2 JUMP JUMPDEST POP SWAP4 SWAP3 POP POP POP JUMP JUMPDEST PUSH1 0x0 DUP3 PUSH1 0x1F DUP4 ADD SLT PUSH2 0x3938 JUMPI PUSH2 0x3937 PUSH2 0x381C JUMP JUMPDEST JUMPDEST DUP2 CALLDATALOAD PUSH2 0x3948 DUP5 DUP3 PUSH1 0x20 DUP7 ADD PUSH2 0x38E1 JUMP JUMPDEST SWAP2 POP POP SWAP3 SWAP2 POP POP JUMP JUMPDEST PUSH1 0x0 DUP1 PUSH1 0x0 PUSH1 0x60 DUP5 DUP7 SUB SLT ISZERO PUSH2 0x396A JUMPI PUSH2 0x3969 PUSH2 0x3274 JUMP JUMPDEST JUMPDEST PUSH1 0x0 DUP5 ADD CALLDATALOAD PUSH8 0xFFFFFFFFFFFFFFFF DUP2 GT ISZERO PUSH2 0x3988 JUMPI PUSH2 0x3987 PUSH2 0x3279 JUMP JUMPDEST JUMPDEST PUSH2 0x3994 DUP7 DUP3 DUP8 ADD PUSH2 0x3923 JUMP JUMPDEST SWAP4 POP POP PUSH1 0x20 DUP5 ADD CALLDATALOAD PUSH8 0xFFFFFFFFFFFFFFFF DUP2 GT ISZERO PUSH2 0x39B5 JUMPI PUSH2 0x39B4 PUSH2 0x3279 JUMP JUMPDEST JUMPDEST PUSH2 0x39C1 DUP7 DUP3 DUP8 ADD PUSH2 0x3923 JUMP JUMPDEST SWAP3 POP POP PUSH1 0x40 PUSH2 0x39D2 DUP7 DUP3 DUP8 ADD PUSH2 0x335A JUMP JUMPDEST SWAP2 POP POP SWAP3 POP SWAP3 POP SWAP3 JUMP JUMPDEST PUSH1 0x0 DUP2 SWAP1 POP SWAP2 SWAP1 POP JUMP JUMPDEST PUSH1 0x0 PUSH2 0x3A01 PUSH2 0x39FC PUSH2 0x39F7 DUP5 PUSH2 0x3563 JUMP JUMPDEST PUSH2 0x39DC JUMP JUMPDEST PUSH2 0x3563 JUMP JUMPDEST SWAP1 POP SWAP2 SWAP1 POP JUMP JUMPDEST PUSH1 0x0 PUSH2 0x3A13 DUP3 PUSH2 0x39E6 JUMP JUMPDEST SWAP1 POP SWAP2 SWAP1 POP JUMP JUMPDEST PUSH1 0x0 PUSH2 0x3A25 DUP3 PUSH2 0x3A08 JUMP JUMPDEST SWAP1 POP SWAP2 SWAP1 POP JUMP JUMPDEST PUSH2 0x3A35 DUP2 PUSH2 0x3A1A JUMP JUMPDEST DUP3 MSTORE POP POP JUMP JUMPDEST PUSH1 0x0 PUSH1 0x20 DUP3 ADD SWAP1 POP PUSH2 0x3A50 PUSH1 0x0 DUP4 ADD DUP5 PUSH2 0x3A2C JUMP JUMPDEST SWAP3 SWAP2 POP POP JUMP JUMPDEST PUSH1 0x0 PUSH1 0x20 DUP3 DUP5 SUB SLT ISZERO PUSH2 0x3A6C JUMPI PUSH2 0x3A6B PUSH2 0x3274 JUMP JUMPDEST JUMPDEST PUSH1 0x0 DUP3 ADD CALLDATALOAD PUSH8 0xFFFFFFFFFFFFFFFF DUP2 GT ISZERO PUSH2 0x3A8A JUMPI PUSH2 0x3A89 PUSH2 0x3279 JUMP JUMPDEST JUMPDEST PUSH2 0x3A96 DUP5 DUP3 DUP6 ADD PUSH2 0x3923 JUMP JUMPDEST SWAP2 POP POP SWAP3 SWAP2 POP POP JUMP JUMPDEST PUSH1 0x0 PUSH2 0x3AAA DUP3 PUSH2 0x3563 JUMP JUMPDEST SWAP1 POP SWAP2 SWAP1 POP JUMP JUMPDEST PUSH2 0x3ABA DUP2 PUSH2 0x3A9F JUMP JUMPDEST DUP2 EQ PUSH2 0x3AC5 JUMPI PUSH1 0x0 DUP1 REVERT JUMPDEST POP JUMP JUMPDEST PUSH1 0x0 DUP2 CALLDATALOAD SWAP1 POP PUSH2 0x3AD7 DUP2 PUSH2 0x3AB1 JUMP JUMPDEST SWAP3 SWAP2 POP POP JUMP JUMPDEST PUSH1 0x0 DUP1 PUSH1 0x40 DUP4 DUP6 SUB SLT ISZERO PUSH2 0x3AF4 JUMPI PUSH2 0x3AF3 PUSH2 0x3274 JUMP JUMPDEST JUMPDEST PUSH1 0x0 PUSH2 0x3B02 DUP6 DUP3 DUP7 ADD PUSH2 0x335A JUMP JUMPDEST SWAP3 POP POP PUSH1 0x20 PUSH2 0x3B13 DUP6 DUP3 DUP7 ADD PUSH2 0x3AC8 JUMP JUMPDEST SWAP2 POP POP SWAP3 POP SWAP3 SWAP1 POP JUMP JUMPDEST PUSH32 0x4E487B7100000000000000000000000000000000000000000000000000000000 PUSH1 0x0 MSTORE PUSH1 0x22 PUSH1 0x4 MSTORE PUSH1 0x24 PUSH1 0x0 REVERT JUMPDEST PUSH1 0x0 PUSH1 0x2 DUP3 DIV SWAP1 POP PUSH1 0x1 DUP3 AND DUP1 PUSH2 0x3B64 JUMPI PUSH1 0x7F DUP3 AND SWAP2 POP JUMPDEST PUSH1 0x20 DUP3 LT DUP2 SUB PUSH2 0x3B77 JUMPI PUSH2 0x3B76 PUSH2 0x3B1D JUMP JUMPDEST JUMPDEST POP SWAP2 SWAP1 POP JUMP JUMPDEST PUSH32 0x416363657373436F6E74726F6C3A2063616E206F6E6C792072656E6F756E6365 PUSH1 0x0 DUP3 ADD MSTORE PUSH32 0x20726F6C657320666F722073656C660000000000000000000000000000000000 PUSH1 0x20 DUP3 ADD MSTORE POP JUMP JUMPDEST PUSH1 0x0 PUSH2 0x3BD9 PUSH1 0x2F DUP4 PUSH2 0x33A7 JUMP JUMPDEST SWAP2 POP PUSH2 0x3BE4 DUP3 PUSH2 0x3B7D JUMP JUMPDEST PUSH1 0x40 DUP3 ADD SWAP1 POP SWAP2 SWAP1 POP JUMP JUMPDEST PUSH1 0x0 PUSH1 0x20 DUP3 ADD SWAP1 POP DUP2 DUP2 SUB PUSH1 0x0 DUP4 ADD MSTORE PUSH2 0x3C08 DUP2 PUSH2 0x3BCC JUMP JUMPDEST SWAP1 POP SWAP2 SWAP1 POP JUMP JUMPDEST PUSH32 0x536F75726365206D75737420626520746865206F7261636C65206F6620746865 PUSH1 0x0 DUP3 ADD MSTORE PUSH32 0x2072657175657374000000000000000000000000000000000000000000000000 PUSH1 0x20 DUP3 ADD MSTORE POP JUMP JUMPDEST PUSH1 0x0 PUSH2 0x3C6B PUSH1 0x28 DUP4 PUSH2 0x33A7 JUMP JUMPDEST SWAP2 POP PUSH2 0x3C76 DUP3 PUSH2 0x3C0F JUMP JUMPDEST PUSH1 0x40 DUP3 ADD SWAP1 POP SWAP2 SWAP1 POP JUMP JUMPDEST PUSH1 0x0 PUSH1 0x20 DUP3 ADD SWAP1 POP DUP2 DUP2 SUB PUSH1 0x0 DUP4 ADD MSTORE PUSH2 0x3C9A DUP2 PUSH2 0x3C5E JUMP JUMPDEST SWAP1 POP SWAP2 SWAP1 POP JUMP JUMPDEST PUSH32 0x49535F4E4F545F41444D494E0000000000000000000000000000000000000000 PUSH1 0x0 DUP3 ADD MSTORE POP JUMP JUMPDEST PUSH1 0x0 PUSH2 0x3CD7 PUSH1 0xC DUP4 PUSH2 0x33A7 JUMP JUMPDEST SWAP2 POP PUSH2 0x3CE2 DUP3 PUSH2 0x3CA1 JUMP JUMPDEST PUSH1 0x20 DUP3 ADD SWAP1 POP SWAP2 SWAP1 POP JUMP JUMPDEST PUSH1 0x0 PUSH1 0x20 DUP3 ADD SWAP1 POP DUP2 DUP2 SUB PUSH1 0x0 DUP4 ADD MSTORE PUSH2 0x3D06 DUP2 PUSH2 0x3CCA JUMP JUMPDEST SWAP1 POP SWAP2 SWAP1 POP JUMP JUMPDEST PUSH1 0x0 DUP2 SWAP1 POP SWAP3 SWAP2 POP POP JUMP JUMPDEST PUSH1 0x0 DUP2 SWAP1 POP DUP2 PUSH1 0x0 MSTORE PUSH1 0x20 PUSH1 0x0 KECCAK256 SWAP1 POP SWAP2 SWAP1 POP JUMP JUMPDEST PUSH1 0x0 DUP2 SLOAD PUSH2 0x3D3A DUP2 PUSH2 0x3B4C JUMP JUMPDEST PUSH2 0x3D44 DUP2 DUP7 PUSH2 0x3D0D JUMP JUMPDEST SWAP5 POP PUSH1 0x1 DUP3 AND PUSH1 0x0 DUP2 EQ PUSH2 0x3D5F JUMPI PUSH1 0x1 DUP2 EQ PUSH2 0x3D74 JUMPI PUSH2 0x3DA7 JUMP JUMPDEST PUSH1 0xFF NOT DUP4 AND DUP7 MSTORE DUP2 ISZERO ISZERO DUP3 MUL DUP7 ADD SWAP4 POP PUSH2 0x3DA7 JUMP JUMPDEST PUSH2 0x3D7D DUP6 PUSH2 0x3D18 JUMP JUMPDEST PUSH1 0x0 JUMPDEST DUP4 DUP2 LT ISZERO PUSH2 0x3D9F JUMPI DUP2 SLOAD DUP2 DUP10 ADD MSTORE PUSH1 0x1 DUP3 ADD SWAP2 POP PUSH1 0x20 DUP2 ADD SWAP1 POP PUSH2 0x3D80 JUMP JUMPDEST DUP4 DUP9 ADD SWAP6 POP POP POP JUMPDEST POP POP POP SWAP3 SWAP2 POP POP JUMP JUMPDEST PUSH1 0x0 PUSH2 0x3DBB DUP3 PUSH2 0x339C JUMP JUMPDEST PUSH2 0x3DC5 DUP2 DUP6 PUSH2 0x3D0D JUMP JUMPDEST SWAP4 POP PUSH2 0x3DD5 DUP2 DUP6 PUSH1 0x20 DUP7 ADD PUSH2 0x33B8 JUMP JUMPDEST DUP1 DUP5 ADD SWAP2 POP POP SWAP3 SWAP2 POP POP JUMP JUMPDEST PUSH1 0x0 PUSH2 0x3DED DUP3 DUP6 PUSH2 0x3D2D JUMP JUMPDEST SWAP2 POP PUSH2 0x3DF9 DUP3 DUP5 PUSH2 0x3DB0 JUMP JUMPDEST SWAP2 POP DUP2 SWAP1 POP SWAP4 SWAP3 POP POP POP JUMP JUMPDEST PUSH1 0x0 PUSH1 0x40 DUP3 ADD SWAP1 POP PUSH2 0x3E1A PUSH1 0x0 DUP4 ADD DUP6 PUSH2 0x34E0 JUMP JUMPDEST PUSH2 0x3E27 PUSH1 0x20 DUP4 ADD DUP5 PUSH2 0x342C JUMP JUMPDEST SWAP4 SWAP3 POP POP POP JUMP JUMPDEST PUSH32 0x4F776E61626C653A2063616C6C6572206973206E6F7420746865206F776E6572 PUSH1 0x0 DUP3 ADD MSTORE POP JUMP JUMPDEST PUSH1 0x0 PUSH2 0x3E64 PUSH1 0x20 DUP4 PUSH2 0x33A7 JUMP JUMPDEST SWAP2 POP PUSH2 0x3E6F DUP3 PUSH2 0x3E2E JUMP JUMPDEST PUSH1 0x20 DUP3 ADD SWAP1 POP SWAP2 SWAP1 POP JUMP JUMPDEST PUSH1 0x0 PUSH1 0x20 DUP3 ADD SWAP1 POP DUP2 DUP2 SUB PUSH1 0x0 DUP4 ADD MSTORE PUSH2 0x3E93 DUP2 PUSH2 0x3E57 JUMP JUMPDEST SWAP1 POP SWAP2 SWAP1 POP JUMP JUMPDEST PUSH32 0x49535F4E4F545F52454C41594552000000000000000000000000000000000000 PUSH1 0x0 DUP3 ADD MSTORE POP JUMP JUMPDEST PUSH1 0x0 PUSH2 0x3ED0 PUSH1 0xE DUP4 PUSH2 0x33A7 JUMP JUMPDEST SWAP2 POP PUSH2 0x3EDB DUP3 PUSH2 0x3E9A JUMP JUMPDEST PUSH1 0x20 DUP3 ADD SWAP1 POP SWAP2 SWAP1 POP JUMP JUMPDEST PUSH1 0x0 PUSH1 0x20 DUP3 ADD SWAP1 POP DUP2 DUP2 SUB PUSH1 0x0 DUP4 ADD MSTORE PUSH2 0x3EFF DUP2 PUSH2 0x3EC3 JUMP JUMPDEST SWAP1 POP SWAP2 SWAP1 POP JUMP JUMPDEST PUSH32 0x496E76616C69642067616D652049440000000000000000000000000000000000 PUSH1 0x0 DUP3 ADD MSTORE POP JUMP JUMPDEST PUSH1 0x0 PUSH2 0x3F3C PUSH1 0xF DUP4 PUSH2 0x33A7 JUMP JUMPDEST SWAP2 POP PUSH2 0x3F47 DUP3 PUSH2 0x3F06 JUMP JUMPDEST PUSH1 0x20 DUP3 ADD SWAP1 POP SWAP2 SWAP1 POP JUMP JUMPDEST PUSH1 0x0 PUSH1 0x20 DUP3 ADD SWAP1 POP DUP2 DUP2 SUB PUSH1 0x0 DUP4 ADD MSTORE PUSH2 0x3F6B DUP2 PUSH2 0x3F2F JUMP JUMPDEST SWAP1 POP SWAP2 SWAP1 POP JUMP JUMPDEST PUSH32 0x42657420616D6F756E74206D7573742062652067726561746572207468616E20 PUSH1 0x0 DUP3 ADD MSTORE PUSH32 0x7A65726F00000000000000000000000000000000000000000000000000000000 PUSH1 0x20 DUP3 ADD MSTORE POP JUMP JUMPDEST PUSH1 0x0 PUSH2 0x3FCE PUSH1 0x24 DUP4 PUSH2 0x33A7 JUMP JUMPDEST SWAP2 POP PUSH2 0x3FD9 DUP3 PUSH2 0x3F72 JUMP JUMPDEST PUSH1 0x40 DUP3 ADD SWAP1 POP SWAP2 SWAP1 POP JUMP JUMPDEST PUSH1 0x0 PUSH1 0x20 DUP3 ADD SWAP1 POP DUP2 DUP2 SUB PUSH1 0x0 DUP4 ADD MSTORE PUSH2 0x3FFD DUP2 PUSH2 0x3FC1 JUMP JUMPDEST SWAP1 POP SWAP2 SWAP1 POP JUMP JUMPDEST PUSH32 0x4E487B7100000000000000000000000000000000000000000000000000000000 PUSH1 0x0 MSTORE PUSH1 0x11 PUSH1 0x4 MSTORE PUSH1 0x24 PUSH1 0x0 REVERT JUMPDEST PUSH1 0x0 PUSH2 0x403E DUP3 PUSH2 0x3339 JUMP JUMPDEST SWAP2 POP PUSH2 0x4049 DUP4 PUSH2 0x3339 JUMP JUMPDEST SWAP3 POP DUP3 DUP3 MUL PUSH2 0x4057 DUP2 PUSH2 0x3339 JUMP JUMPDEST SWAP2 POP DUP3 DUP3 DIV DUP5 EQ DUP4 ISZERO OR PUSH2 0x406E JUMPI PUSH2 0x406D PUSH2 0x4004 JUMP JUMPDEST JUMPDEST POP SWAP3 SWAP2 POP POP JUMP JUMPDEST PUSH1 0x0 PUSH1 0x60 DUP3 ADD SWAP1 POP PUSH2 0x408A PUSH1 0x0 DUP4 ADD DUP7 PUSH2 0x3641 JUMP JUMPDEST PUSH2 0x4097 PUSH1 0x20 DUP4 ADD DUP6 PUSH2 0x3641 JUMP JUMPDEST PUSH2 0x40A4 PUSH1 0x40 DUP4 ADD DUP5 PUSH2 0x342C JUMP JUMPDEST SWAP5 SWAP4 POP POP POP POP JUMP JUMPDEST PUSH2 0x40B5 DUP2 PUSH2 0x3303 JUMP JUMPDEST DUP2 EQ PUSH2 0x40C0 JUMPI PUSH1 0x0 DUP1 REVERT JUMPDEST POP JUMP JUMPDEST PUSH1 0x0 DUP2 MLOAD SWAP1 POP PUSH2 0x40D2 DUP2 PUSH2 0x40AC JUMP JUMPDEST SWAP3 SWAP2 POP POP JUMP JUMPDEST PUSH1 0x0 PUSH1 0x20 DUP3 DUP5 SUB SLT ISZERO PUSH2 0x40EE JUMPI PUSH2 0x40ED PUSH2 0x3274 JUMP JUMPDEST JUMPDEST PUSH1 0x0 PUSH2 0x40FC DUP5 DUP3 DUP6 ADD PUSH2 0x40C3 JUMP JUMPDEST SWAP2 POP POP SWAP3 SWAP2 POP POP JUMP JUMPDEST PUSH32 0x5472616E73616374696F6E206661696C65640000000000000000000000000000 PUSH1 0x0 DUP3 ADD MSTORE POP JUMP JUMPDEST PUSH1 0x0 PUSH2 0x413B PUSH1 0x12 DUP4 PUSH2 0x33A7 JUMP JUMPDEST SWAP2 POP PUSH2 0x4146 DUP3 PUSH2 0x4105 JUMP JUMPDEST PUSH1 0x20 DUP3 ADD SWAP1 POP SWAP2 SWAP1 POP JUMP JUMPDEST PUSH1 0x0 PUSH1 0x20 DUP3 ADD SWAP1 POP DUP2 DUP2 SUB PUSH1 0x0 DUP4 ADD MSTORE PUSH2 0x416A DUP2 PUSH2 0x412E JUMP JUMPDEST SWAP1 POP SWAP2 SWAP1 POP JUMP JUMPDEST PUSH32 0x47616D652068617320616C726561647920636F6D706C65746564000000000000 PUSH1 0x0 DUP3 ADD MSTORE POP JUMP JUMPDEST PUSH1 0x0 PUSH2 0x41A7 PUSH1 0x1A DUP4 PUSH2 0x33A7 JUMP JUMPDEST SWAP2 POP PUSH2 0x41B2 DUP3 PUSH2 0x4171 JUMP JUMPDEST PUSH1 0x20 DUP3 ADD SWAP1 POP SWAP2 SWAP1 POP JUMP JUMPDEST PUSH1 0x0 PUSH1 0x20 DUP3 ADD SWAP1 POP DUP2 DUP2 SUB PUSH1 0x0 DUP4 ADD MSTORE PUSH2 0x41D6 DUP2 PUSH2 0x419A JUMP JUMPDEST SWAP1 POP SWAP2 SWAP1 POP JUMP JUMPDEST PUSH32 0x4E487B7100000000000000000000000000000000000000000000000000000000 PUSH1 0x0 MSTORE PUSH1 0x12 PUSH1 0x4 MSTORE PUSH1 0x24 PUSH1 0x0 REVERT JUMPDEST PUSH1 0x0 PUSH2 0x4217 DUP3 PUSH2 0x3339 JUMP JUMPDEST SWAP2 POP PUSH2 0x4222 DUP4 PUSH2 0x3339 JUMP JUMPDEST SWAP3 POP DUP3 PUSH2 0x4232 JUMPI PUSH2 0x4231 PUSH2 0x41DD JUMP JUMPDEST JUMPDEST DUP3 DUP3 DIV SWAP1 POP SWAP3 SWAP2 POP POP JUMP JUMPDEST PUSH1 0x0 PUSH2 0x4248 DUP3 PUSH2 0x3339 JUMP JUMPDEST SWAP2 POP PUSH2 0x4253 DUP4 PUSH2 0x3339 JUMP JUMPDEST SWAP3 POP DUP3 DUP3 ADD SWAP1 POP DUP1 DUP3 GT ISZERO PUSH2 0x426B JUMPI PUSH2 0x426A PUSH2 0x4004 JUMP JUMPDEST JUMPDEST SWAP3 SWAP2 POP POP JUMP JUMPDEST PUSH1 0x0 PUSH2 0x427C DUP3 PUSH2 0x3339 JUMP JUMPDEST SWAP2 POP PUSH2 0x4287 DUP4 PUSH2 0x3339 JUMP JUMPDEST SWAP3 POP DUP3 DUP3 SUB SWAP1 POP DUP2 DUP2 GT ISZERO PUSH2 0x429F JUMPI PUSH2 0x429E PUSH2 0x4004 JUMP JUMPDEST JUMPDEST SWAP3 SWAP2 POP POP JUMP JUMPDEST PUSH1 0x0 PUSH2 0x42B0 DUP3 PUSH2 0x3339 JUMP JUMPDEST SWAP2 POP PUSH32 0xFFFFFFFFFFFFFFFFFFFFFFFFFFFFFFFFFFFFFFFFFFFFFFFFFFFFFFFFFFFFFFFF DUP3 SUB PUSH2 0x42E2 JUMPI PUSH2 0x42E1 PUSH2 0x4004 JUMP JUMPDEST JUMPDEST PUSH1 0x1 DUP3 ADD SWAP1 POP SWAP2 SWAP1 POP JUMP JUMPDEST PUSH1 0x0 PUSH1 0x40 DUP3 ADD SWAP1 POP PUSH2 0x4302 PUSH1 0x0 DUP4 ADD DUP6 PUSH2 0x342C JUMP JUMPDEST PUSH2 0x430F PUSH1 0x20 DUP4 ADD DUP5 PUSH2 0x342C JUMP JUMPDEST SWAP4 SWAP3 POP POP POP JUMP JUMPDEST PUSH32 0x49535F4E4F545F4D4F445F4F525F41444D494E00000000000000000000000000 PUSH1 0x0 DUP3 ADD MSTORE POP JUMP JUMPDEST PUSH1 0x0 PUSH2 0x434C PUSH1 0x13 DUP4 PUSH2 0x33A7 JUMP JUMPDEST SWAP2 POP PUSH2 0x4357 DUP3 PUSH2 0x4316 JUMP JUMPDEST PUSH1 0x20 DUP3 ADD SWAP1 POP SWAP2 SWAP1 POP JUMP JUMPDEST PUSH1 0x0 PUSH1 0x20 DUP3 ADD SWAP1 POP DUP2 DUP2 SUB PUSH1 0x0 DUP4 ADD MSTORE PUSH2 0x437B DUP2 PUSH2 0x433F JUMP JUMPDEST SWAP1 POP SWAP2 SWAP1 POP JUMP JUMPDEST PUSH32 0x4E487B7100000000000000000000000000000000000000000000000000000000 PUSH1 0x0 MSTORE PUSH1 0x32 PUSH1 0x4 MSTORE PUSH1 0x24 PUSH1 0x0 REVERT JUMPDEST PUSH1 0x0 PUSH1 0x40 DUP3 ADD SWAP1 POP PUSH2 0x43C6 PUSH1 0x0 DUP4 ADD DUP6 PUSH2 0x3641 JUMP JUMPDEST PUSH2 0x43D3 PUSH1 0x20 DUP4 ADD DUP5 PUSH2 0x342C JUMP JUMPDEST SWAP4 SWAP3 POP POP POP JUMP JUMPDEST PUSH1 0x0 PUSH1 0x20 PUSH1 0x1F DUP4 ADD DIV SWAP1 POP SWAP2 SWAP1 POP JUMP JUMPDEST PUSH1 0x0 DUP3 DUP3 SHL SWAP1 POP SWAP3 SWAP2 POP POP JUMP JUMPDEST PUSH1 0x0 PUSH1 0x8 DUP4 MUL PUSH2 0x4427 PUSH32 0xFFFFFFFFFFFFFFFFFFFFFFFFFFFFFFFFFFFFFFFFFFFFFFFFFFFFFFFFFFFFFFFF DUP3 PUSH2 0x43EA JUMP JUMPDEST PUSH2 0x4431 DUP7 DUP4 PUSH2 0x43EA JUMP JUMPDEST SWAP6 POP DUP1 NOT DUP5 AND SWAP4 POP DUP1 DUP7 AND DUP5 OR SWAP3 POP POP POP SWAP4 SWAP3 POP POP POP JUMP JUMPDEST PUSH1 0x0 PUSH2 0x4464 PUSH2 0x445F PUSH2 0x445A DUP5 PUSH2 0x3339 JUMP JUMPDEST PUSH2 0x39DC JUMP JUMPDEST PUSH2 0x3339 JUMP JUMPDEST SWAP1 POP SWAP2 SWAP1 POP JUMP JUMPDEST PUSH1 0x0 DUP2 SWAP1 POP SWAP2 SWAP1 POP JUMP JUMPDEST PUSH2 0x447E DUP4 PUSH2 0x4449 JUMP JUMPDEST PUSH2 0x4492 PUSH2 0x448A DUP3 PUSH2 0x446B JUMP JUMPDEST DUP5 DUP5 SLOAD PUSH2 0x43F7 JUMP JUMPDEST DUP3 SSTORE POP POP POP POP JUMP JUMPDEST PUSH1 0x0 SWAP1 JUMP JUMPDEST PUSH2 0x44A7 PUSH2 0x449A JUMP JUMPDEST PUSH2 0x44B2 DUP2 DUP5 DUP5 PUSH2 0x4475 JUMP JUMPDEST POP POP POP JUMP JUMPDEST JUMPDEST DUP2 DUP2 LT ISZERO PUSH2 0x44D6 JUMPI PUSH2 0x44CB PUSH1 0x0 DUP3 PUSH2 0x449F JUMP JUMPDEST PUSH1 0x1 DUP2 ADD SWAP1 POP PUSH2 0x44B8 JUMP JUMPDEST POP POP JUMP JUMPDEST PUSH1 0x1F DUP3 GT ISZERO PUSH2 0x451B JUMPI PUSH2 0x44EC DUP2 PUSH2 0x3D18 JUMP JUMPDEST PUSH2 0x44F5 DUP5 PUSH2 0x43DA JUMP JUMPDEST DUP2 ADD PUSH1 0x20 DUP6 LT ISZERO PUSH2 0x4504 JUMPI DUP2 SWAP1 POP JUMPDEST PUSH2 0x4518 PUSH2 0x4510 DUP6 PUSH2 0x43DA JUMP JUMPDEST DUP4 ADD DUP3 PUSH2 0x44B7 JUMP JUMPDEST POP POP JUMPDEST POP POP POP JUMP JUMPDEST PUSH1 0x0 DUP3 DUP3 SHR SWAP1 POP SWAP3 SWAP2 POP POP JUMP JUMPDEST PUSH1 0x0 PUSH2 0x453E PUSH1 0x0 NOT DUP5 PUSH1 0x8 MUL PUSH2 0x4520 JUMP JUMPDEST NOT DUP1 DUP4 AND SWAP2 POP POP SWAP3 SWAP2 POP POP JUMP JUMPDEST PUSH1 0x0 PUSH2 0x4557 DUP4 DUP4 PUSH2 0x452D JUMP JUMPDEST SWAP2 POP DUP3 PUSH1 0x2 MUL DUP3 OR SWAP1 POP SWAP3 SWAP2 POP POP JUMP JUMPDEST PUSH2 0x4570 DUP3 PUSH2 0x339C JUMP JUMPDEST PUSH8 0xFFFFFFFFFFFFFFFF DUP2 GT ISZERO PUSH2 0x4589 JUMPI PUSH2 0x4588 PUSH2 0x3826 JUMP JUMPDEST JUMPDEST PUSH2 0x4593 DUP3 SLOAD PUSH2 0x3B4C JUMP JUMPDEST PUSH2 0x459E DUP3 DUP3 DUP6 PUSH2 0x44DA JUMP JUMPDEST PUSH1 0x0 PUSH1 0x20 SWAP1 POP PUSH1 0x1F DUP4 GT PUSH1 0x1 DUP2 EQ PUSH2 0x45D1 JUMPI PUSH1 0x0 DUP5 ISZERO PUSH2 0x45BF JUMPI DUP3 DUP8 ADD MLOAD SWAP1 POP JUMPDEST PUSH2 0x45C9 DUP6 DUP3 PUSH2 0x454B JUMP JUMPDEST DUP7 SSTORE POP PUSH2 0x4631 JUMP JUMPDEST PUSH1 0x1F NOT DUP5 AND PUSH2 0x45DF DUP7 PUSH2 0x3D18 JUMP JUMPDEST PUSH1 0x0 JUMPDEST DUP3 DUP2 LT ISZERO PUSH2 0x4607 JUMPI DUP5 DUP10 ADD MLOAD DUP3 SSTORE PUSH1 0x1 DUP3 ADD SWAP2 POP PUSH1 0x20 DUP6 ADD SWAP5 POP PUSH1 0x20 DUP2 ADD SWAP1 POP PUSH2 0x45E2 JUMP JUMPDEST DUP7 DUP4 LT ISZERO PUSH2 0x4624 JUMPI DUP5 DUP10 ADD MLOAD PUSH2 0x4620 PUSH1 0x1F DUP10 AND DUP3 PUSH2 0x452D JUMP JUMPDEST DUP4 SSTORE POP JUMPDEST PUSH1 0x1 PUSH1 0x2 DUP9 MUL ADD DUP9 SSTORE POP POP POP JUMPDEST POP POP POP POP POP POP JUMP JUMPDEST PUSH1 0x0 PUSH2 0x4645 DUP3 DUP5 PUSH2 0x3DB0 JUMP JUMPDEST SWAP2 POP DUP2 SWAP1 POP SWAP3 SWAP2 POP POP JUMP JUMPDEST PUSH1 0x0 PUSH2 0x465B DUP3 PUSH2 0x3A08 JUMP JUMPDEST SWAP1 POP SWAP2 SWAP1 POP JUMP JUMPDEST PUSH2 0x466B DUP2 PUSH2 0x4650 JUMP JUMPDEST DUP3 MSTORE POP POP JUMP JUMPDEST PUSH1 0x0 PUSH1 0x40 DUP3 ADD SWAP1 POP PUSH2 0x4686 PUSH1 0x0 DUP4 ADD DUP6 PUSH2 0x4662 JUMP JUMPDEST PUSH2 0x4693 PUSH1 0x20 DUP4 ADD DUP5 PUSH2 0x342C JUMP JUMPDEST SWAP4 SWAP3 POP POP POP JUMP JUMPDEST PUSH32 0x4F776E61626C653A206E6577206F776E657220697320746865207A65726F2061 PUSH1 0x0 DUP3 ADD MSTORE PUSH32 0x6464726573730000000000000000000000000000000000000000000000000000 PUSH1 0x20 DUP3 ADD MSTORE POP JUMP JUMPDEST PUSH1 0x0 PUSH2 0x46F6 PUSH1 0x26 DUP4 PUSH2 0x33A7 JUMP JUMPDEST SWAP2 POP PUSH2 0x4701 DUP3 PUSH2 0x469A JUMP JUMPDEST PUSH1 0x40 DUP3 ADD SWAP1 POP SWAP2 SWAP1 POP JUMP JUMPDEST PUSH1 0x0 PUSH1 0x20 DUP3 ADD SWAP1 POP DUP2 DUP2 SUB PUSH1 0x0 DUP4 ADD MSTORE PUSH2 0x4725 DUP2 PUSH2 0x46E9 JUMP JUMPDEST SWAP1 POP SWAP2 SWAP1 POP JUMP JUMPDEST PUSH1 0x0 PUSH2 0x4737 DUP3 PUSH2 0x3339 JUMP JUMPDEST SWAP2 POP PUSH1 0x0 DUP3 SUB PUSH2 0x474A JUMPI PUSH2 0x4749 PUSH2 0x4004 JUMP JUMPDEST JUMPDEST PUSH1 0x1 DUP3 SUB SWAP1 POP SWAP2 SWAP1 POP JUMP JUMPDEST PUSH32 0x537472696E67733A20686578206C656E67746820696E73756666696369656E74 PUSH1 0x0 DUP3 ADD MSTORE POP JUMP JUMPDEST PUSH1 0x0 PUSH2 0x478B PUSH1 0x20 DUP4 PUSH2 0x33A7 JUMP JUMPDEST SWAP2 POP PUSH2 0x4796 DUP3 PUSH2 0x4755 JUMP JUMPDEST PUSH1 0x20 DUP3 ADD SWAP1 POP SWAP2 SWAP1 POP JUMP JUMPDEST PUSH1 0x0 PUSH1 0x20 DUP3 ADD SWAP1 POP DUP2 DUP2 SUB PUSH1 0x0 DUP4 ADD MSTORE PUSH2 0x47BA DUP2 PUSH2 0x477E JUMP JUMPDEST SWAP1 POP SWAP2 SWAP1 POP JUMP JUMPDEST PUSH32 0x416363657373436F6E74726F6C3A206163636F756E7420000000000000000000 PUSH1 0x0 DUP3 ADD MSTORE POP JUMP JUMPDEST PUSH1 0x0 PUSH2 0x47F7 PUSH1 0x17 DUP4 PUSH2 0x3D0D JUMP JUMPDEST SWAP2 POP PUSH2 0x4802 DUP3 PUSH2 0x47C1 JUMP JUMPDEST PUSH1 0x17 DUP3 ADD SWAP1 POP SWAP2 SWAP1 POP JUMP JUMPDEST PUSH32 0x206973206D697373696E6720726F6C6520000000000000000000000000000000 PUSH1 0x0 DUP3 ADD MSTORE POP JUMP JUMPDEST PUSH1 0x0 PUSH2 0x4843 PUSH1 0x11 DUP4 PUSH2 0x3D0D JUMP JUMPDEST SWAP2 POP PUSH2 0x484E DUP3 PUSH2 0x480D JUMP JUMPDEST PUSH1 0x11 DUP3 ADD SWAP1 POP SWAP2 SWAP1 POP JUMP JUMPDEST PUSH1 0x0 PUSH2 0x4864 DUP3 PUSH2 0x47EA JUMP JUMPDEST SWAP2 POP PUSH2 0x4870 DUP3 DUP6 PUSH2 0x3DB0 JUMP JUMPDEST SWAP2 POP PUSH2 0x487B DUP3 PUSH2 0x4836 JUMP JUMPDEST SWAP2 POP PUSH2 0x4887 DUP3 DUP5 PUSH2 0x3DB0 JUMP JUMPDEST SWAP2 POP DUP2 SWAP1 POP SWAP4 SWAP3 POP POP POP JUMP JUMPDEST PUSH1 0x0 PUSH1 0x20 DUP3 ADD SWAP1 POP DUP2 DUP2 SUB PUSH1 0x0 DUP4 ADD MSTORE PUSH2 0x48AD DUP2 DUP5 PUSH2 0x33F3 JUMP JUMPDEST SWAP1 POP SWAP3 SWAP2 POP POP JUMP JUMPDEST PUSH1 0x0 PUSH2 0x48C0 DUP3 PUSH2 0x3339 JUMP JUMPDEST SWAP2 POP PUSH2 0x48CB DUP4 PUSH2 0x3339 JUMP JUMPDEST SWAP3 POP DUP3 PUSH2 0x48DB JUMPI PUSH2 0x48DA PUSH2 0x41DD JUMP JUMPDEST JUMPDEST DUP3 DUP3 MOD SWAP1 POP SWAP3 SWAP2 POP POP JUMP JUMPDEST PUSH2 0x48EF DUP2 PUSH2 0x327E JUMP JUMPDEST DUP3 MSTORE POP POP JUMP JUMPDEST PUSH1 0x0 DUP2 MLOAD SWAP1 POP SWAP2 SWAP1 POP JUMP JUMPDEST PUSH1 0x0 DUP3 DUP3 MSTORE PUSH1 0x20 DUP3 ADD SWAP1 POP SWAP3 SWAP2 POP POP JUMP JUMPDEST PUSH1 0x0 PUSH2 0x491C DUP3 PUSH2 0x48F5 JUMP JUMPDEST PUSH2 0x4926 DUP2 DUP6 PUSH2 0x4900 JUMP JUMPDEST SWAP4 POP PUSH2 0x4936 DUP2 DUP6 PUSH1 0x20 DUP7 ADD PUSH2 0x33B8 JUMP JUMPDEST PUSH2 0x493F DUP2 PUSH2 0x33E2 JUMP JUMPDEST DUP5 ADD SWAP2 POP POP SWAP3 SWAP2 POP POP JUMP JUMPDEST PUSH1 0x0 PUSH2 0x100 DUP3 ADD SWAP1 POP PUSH2 0x4960 PUSH1 0x0 DUP4 ADD DUP12 PUSH2 0x3641 JUMP JUMPDEST PUSH2 0x496D PUSH1 0x20 DUP4 ADD DUP11 PUSH2 0x342C JUMP JUMPDEST PUSH2 0x497A PUSH1 0x40 DUP4 ADD DUP10 PUSH2 0x34E0 JUMP JUMPDEST PUSH2 0x4987 PUSH1 0x60 DUP4 ADD DUP9 PUSH2 0x3641 JUMP JUMPDEST PUSH2 0x4994 PUSH1 0x80 DUP4 ADD DUP8 PUSH2 0x48E6 JUMP JUMPDEST PUSH2 0x49A1 PUSH1 0xA0 DUP4 ADD DUP7 PUSH2 0x342C JUMP JUMPDEST PUSH2 0x49AE PUSH1 0xC0 DUP4 ADD DUP6 PUSH2 0x342C JUMP JUMPDEST DUP2 DUP2 SUB PUSH1 0xE0 DUP4 ADD MSTORE PUSH2 0x49C0 DUP2 DUP5 PUSH2 0x4911 JUMP JUMPDEST SWAP1 POP SWAP10 SWAP9 POP POP POP POP POP POP POP POP POP JUMP JUMPDEST PUSH1 0x0 PUSH2 0x49DA DUP3 PUSH2 0x3A08 JUMP JUMPDEST SWAP1 POP SWAP2 SWAP1 POP JUMP JUMPDEST PUSH1 0x0 DUP2 PUSH1 0x60 SHL SWAP1 POP SWAP2 SWAP1 POP JUMP JUMPDEST PUSH1 0x0 PUSH2 0x49F9 DUP3 PUSH2 0x49E1 JUMP JUMPDEST SWAP1 POP SWAP2 SWAP1 POP JUMP JUMPDEST PUSH1 0x0 PUSH2 0x4A0B DUP3 PUSH2 0x49EE JUMP JUMPDEST SWAP1 POP SWAP2 SWAP1 POP JUMP JUMPDEST PUSH2 0x4A23 PUSH2 0x4A1E DUP3 PUSH2 0x49CF JUMP JUMPDEST PUSH2 0x4A00 JUMP JUMPDEST DUP3 MSTORE POP POP JUMP JUMPDEST PUSH1 0x0 DUP2 SWAP1 POP SWAP2 SWAP1 POP JUMP JUMPDEST PUSH2 0x4A44 PUSH2 0x4A3F DUP3 PUSH2 0x3339 JUMP JUMPDEST PUSH2 0x4A29 JUMP JUMPDEST DUP3 MSTORE POP POP JUMP JUMPDEST PUSH1 0x0 PUSH2 0x4A56 DUP3 DUP6 PUSH2 0x4A12 JUMP JUMPDEST PUSH1 0x14 DUP3 ADD SWAP2 POP PUSH2 0x4A66 DUP3 DUP5 PUSH2 0x4A33 JUMP JUMPDEST PUSH1 0x20 DUP3 ADD SWAP2 POP DUP2 SWAP1 POP SWAP4 SWAP3 POP POP POP JUMP JUMPDEST PUSH1 0x0 PUSH1 0x60 DUP3 ADD SWAP1 POP PUSH2 0x4A8B PUSH1 0x0 DUP4 ADD DUP7 PUSH2 0x3641 JUMP JUMPDEST PUSH2 0x4A98 PUSH1 0x20 DUP4 ADD DUP6 PUSH2 0x342C JUMP JUMPDEST DUP2 DUP2 SUB PUSH1 0x40 DUP4 ADD MSTORE PUSH2 0x4AAA DUP2 DUP5 PUSH2 0x4911 JUMP JUMPDEST SWAP1 POP SWAP5 SWAP4 POP POP POP POP JUMP JUMPDEST PUSH32 0x756E61626C6520746F207472616E73666572416E6443616C6C20746F206F7261 PUSH1 0x0 DUP3 ADD MSTORE PUSH32 0x636C650000000000000000000000000000000000000000000000000000000000 PUSH1 0x20 DUP3 ADD MSTORE POP JUMP JUMPDEST PUSH1 0x0 PUSH2 0x4B10 PUSH1 0x23 DUP4 PUSH2 0x33A7 JUMP JUMPDEST SWAP2 POP PUSH2 0x4B1B DUP3 PUSH2 0x4AB4 JUMP JUMPDEST PUSH1 0x40 DUP3 ADD SWAP1 POP SWAP2 SWAP1 POP JUMP JUMPDEST PUSH1 0x0 PUSH1 0x20 DUP3 ADD SWAP1 POP DUP2 DUP2 SUB PUSH1 0x0 DUP4 ADD MSTORE PUSH2 0x4B3F DUP2 PUSH2 0x4B03 JUMP JUMPDEST SWAP1 POP SWAP2 SWAP1 POP JUMP JUMPDEST PUSH1 0x0 DUP2 PUSH1 0x1 SHR SWAP1 POP SWAP2 SWAP1 POP JUMP JUMPDEST PUSH1 0x0 DUP1 DUP3 SWAP2 POP DUP4 SWAP1 POP JUMPDEST PUSH1 0x1 DUP6 GT ISZERO PUSH2 0x4B9D JUMPI DUP1 DUP7 DIV DUP2 GT ISZERO PUSH2 0x4B79 JUMPI PUSH2 0x4B78 PUSH2 0x4004 JUMP JUMPDEST JUMPDEST PUSH1 0x1 DUP6 AND ISZERO PUSH2 0x4B88 JUMPI DUP1 DUP3 MUL SWAP2 POP JUMPDEST DUP1 DUP2 MUL SWAP1 POP PUSH2 0x4B96 DUP6 PUSH2 0x4B46 JUMP JUMPDEST SWAP5 POP PUSH2 0x4B5D JUMP JUMPDEST SWAP5 POP SWAP5 SWAP3 POP POP POP JUMP JUMPDEST PUSH1 0x0 DUP3 PUSH2 0x4BB6 JUMPI PUSH1 0x1 SWAP1 POP PUSH2 0x4C72 JUMP JUMPDEST DUP2 PUSH2 0x4BC4 JUMPI PUSH1 0x0 SWAP1 POP PUSH2 0x4C72 JUMP JUMPDEST DUP2 PUSH1 0x1 DUP2 EQ PUSH2 0x4BDA JUMPI PUSH1 0x2 DUP2 EQ PUSH2 0x4BE4 JUMPI PUSH2 0x4C13 JUMP JUMPDEST PUSH1 0x1 SWAP2 POP POP PUSH2 0x4C72 JUMP JUMPDEST PUSH1 0xFF DUP5 GT ISZERO PUSH2 0x4BF6 JUMPI PUSH2 0x4BF5 PUSH2 0x4004 JUMP JUMPDEST JUMPDEST DUP4 PUSH1 0x2 EXP SWAP2 POP DUP5 DUP3 GT ISZERO PUSH2 0x4C0D JUMPI PUSH2 0x4C0C PUSH2 0x4004 JUMP JUMPDEST JUMPDEST POP PUSH2 0x4C72 JUMP JUMPDEST POP PUSH1 0x20 DUP4 LT PUSH2 0x133 DUP4 LT AND PUSH1 0x4E DUP5 LT PUSH1 0xB DUP5 LT AND OR ISZERO PUSH2 0x4C48 JUMPI DUP3 DUP3 EXP SWAP1 POP DUP4 DUP2 GT ISZERO PUSH2 0x4C43 JUMPI PUSH2 0x4C42 PUSH2 0x4004 JUMP JUMPDEST JUMPDEST PUSH2 0x4C72 JUMP JUMPDEST PUSH2 0x4C55 DUP5 DUP5 DUP5 PUSH1 0x1 PUSH2 0x4B53 JUMP JUMPDEST SWAP3 POP SWAP1 POP DUP2 DUP5 DIV DUP2 GT ISZERO PUSH2 0x4C6C JUMPI PUSH2 0x4C6B PUSH2 0x4004 JUMP JUMPDEST JUMPDEST DUP2 DUP2 MUL SWAP1 POP JUMPDEST SWAP4 SWAP3 POP POP POP JUMP JUMPDEST PUSH1 0x0 PUSH2 0x4C84 DUP3 PUSH2 0x3339 JUMP JUMPDEST SWAP2 POP PUSH2 0x4C8F DUP4 PUSH2 0x3339 JUMP JUMPDEST SWAP3 POP PUSH2 0x4CBC PUSH32 0xFFFFFFFFFFFFFFFFFFFFFFFFFFFFFFFFFFFFFFFFFFFFFFFFFFFFFFFFFFFFFFFF DUP5 DUP5 PUSH2 0x4BA6 JUMP JUMPDEST SWAP1 POP SWAP3 SWAP2 POP POP JUMP INVALID LOG2 PUSH5 0x6970667358 0x22 SLT KECCAK256 INVALID MSTORE GASLIMIT 0xF6 0xD3 0xAD 0xBC 0xB9 0x49 SWAP11 0xD0 SWAP2 GT PUSH31 0xA260B881618F6A3580C4752CA7A31EC802CC64736F6C634300081100330000 "},"methodIdentifiers":{"ADMIN_ROLE()":"75b238fc","DEFAULT_ADMIN_ROLE()":"a217fddf","MOD_ROLE()":"e932406f","RELAYER()":"2483e715","USDc()":"afcc4ad5","addGame(string,string,uint256)":"a5c86b77","apiCall(bytes32,uint256)":"8b4ac639","betsByGame(uint256,uint256)":"3b6e6f1b","fulfill(bytes32,uint256)":"4357855e","gameCount()":"4d1975b4","games(uint256)":"117a5b90","getRoleAdmin(bytes32)":"248a9ca3","grantRole(bytes32,address)":"2f2ff15d","hasRole(bytes32,address)":"91d14854","lastNumber()":"b3db9f1a","makeBet(uint256,uint256,uint256,uint256)":"a063e9fb","owner()":"8da5cb5b","renounceOwnership()":"715018a6","renounceRole(bytes32,address)":"36568abe","revokeRole(bytes32,address)":"d547741f","selectLotteryWinner(uint256)":"55fb9d08","supportsInterface(bytes4)":"01ffc9a7","transferFunds(uint256,address)":"f08e362f","transferOwnership(address)":"f2fde38b","updateChainlinkJobId(bytes32)":"4eca519f","updateDashboard()":"7d807730","updateGameScore(uint256,uint256,uint256)":"a0949595","updateNumberAPI(string)":"bfd5c6df","updateRelayer(address)":"8f83ab13"}}}}}